{
  "abi": [
    {
      "anonymous": false,
      "inputs": [
        {
          "indexed": true,
          "internalType": "address",
          "name": "sender",
          "type": "address"
        },
        {
          "indexed": false,
          "internalType": "uint256",
          "name": "amount",
          "type": "uint256"
        }
      ],
      "name": "Deposit",
      "type": "event"
    },
    {
      "anonymous": false,
      "inputs": [
        {
          "indexed": false,
          "internalType": "uint256",
          "name": "proposalId",
          "type": "uint256"
        },
        {
          "indexed": false,
          "internalType": "bytes32",
          "name": "proposalHash",
          "type": "bytes32"
        }
      ],
      "name": "ProposalExecuted",
      "type": "event"
    },
    {
      "anonymous": false,
      "inputs": [
        {
          "indexed": false,
          "internalType": "address",
          "name": "validator",
          "type": "address"
        }
      ],
      "name": "ValidatorAdded",
      "type": "event"
    },
    {
      "anonymous": false,
      "inputs": [
        {
          "indexed": false,
          "internalType": "address",
          "name": "validator",
          "type": "address"
        }
      ],
      "name": "ValidatorRemoved",
      "type": "event"
    },
    {
      "inputs": [
        {
          "internalType": "address",
          "name": "validator",
          "type": "address"
        }
      ],
      "name": "addValidator",
      "outputs": [],
      "stateMutability": "nonpayable",
      "type": "function"
    },
    {
      "inputs": [
        {
          "internalType": "uint8",
          "name": "proposalNum",
          "type": "uint8"
        }
      ],
      "name": "approveTransaction",
      "outputs": [],
      "stateMutability": "nonpayable",
      "type": "function"
    },
    {
      "inputs": [
        {
          "internalType": "bytes32",
          "name": "proposalHash",
          "type": "bytes32"
        }
      ],
      "name": "createProposal",
      "outputs": [],
      "stateMutability": "nonpayable",
      "type": "function"
    },
    {
      "inputs": [
        {
          "internalType": "uint256",
          "name": "",
          "type": "uint256"
        }
      ],
      "name": "currentProposals",
      "outputs": [
        {
          "internalType": "bytes32",
          "name": "",
          "type": "bytes32"
        }
      ],
      "stateMutability": "view",
      "type": "function"
    },
    {
      "inputs": [
        {
          "internalType": "uint256",
          "name": "",
          "type": "uint256"
        }
      ],
      "name": "currentRoundValidators",
      "outputs": [
        {
          "internalType": "address",
          "name": "",
          "type": "address"
        }
      ],
      "stateMutability": "view",
      "type": "function"
    },
    {
      "inputs": [
        {
          "internalType": "address[]",
          "name": "validatorsToRemove",
          "type": "address[]"
        },
        {
          "internalType": "bytes32[]",
          "name": "jobHashes",
          "type": "bytes32[]"
        },
        {
          "internalType": "uint256[]",
          "name": "jobCapacities",
          "type": "uint256[]"
        },
        {
          "internalType": "address[]",
          "name": "workers",
          "type": "address[]"
        },
        {
          "internalType": "uint256",
          "name": "totalCapacity",
          "type": "uint256"
        }
      ],
      "name": "executeProposal",
      "outputs": [],
      "stateMutability": "nonpayable",
      "type": "function"
    },
    {
      "inputs": [
        {
          "internalType": "uint256",
          "name": "numValidators",
          "type": "uint256"
        }
      ],
      "name": "generateValidators",
      "outputs": [
        {
          "internalType": "address[]",
          "name": "",
          "type": "address[]"
        }
      ],
      "stateMutability": "view",
      "type": "function"
    },
    {
      "inputs": [],
      "name": "getNumValidators",
      "outputs": [
        {
          "internalType": "uint256",
          "name": "",
          "type": "uint256"
        }
      ],
      "stateMutability": "view",
      "type": "function"
    },
    {
      "inputs": [],
      "name": "getState",
      "outputs": [
        {
          "internalType": "uint256",
          "name": "",
          "type": "uint256"
        },
        {
          "internalType": "address[]",
          "name": "",
          "type": "address[]"
        }
      ],
      "stateMutability": "view",
      "type": "function"
    },
    {
      "inputs": [],
      "name": "halvePeriod",
      "outputs": [],
      "stateMutability": "nonpayable",
      "type": "function"
    },
    {
      "inputs": [
        {
          "internalType": "address",
          "name": "",
          "type": "address"
        }
      ],
      "name": "hasSubmittedProposal",
      "outputs": [
        {
          "internalType": "uint8",
          "name": "",
          "type": "uint8"
        }
      ],
      "stateMutability": "view",
      "type": "function"
    },
    {
      "inputs": [
        {
          "internalType": "address",
          "name": "",
          "type": "address"
        }
      ],
      "name": "hasVoted",
      "outputs": [
        {
          "internalType": "uint8",
          "name": "",
          "type": "uint8"
        }
      ],
      "stateMutability": "view",
      "type": "function"
    },
    {
      "inputs": [
        {
          "internalType": "address[]",
          "name": "validatorsToRemove",
          "type": "address[]"
        },
        {
          "internalType": "bytes32[]",
          "name": "jobHashes",
          "type": "bytes32[]"
        },
        {
          "internalType": "uint256[]",
          "name": "jobCapacities",
          "type": "uint256[]"
        },
        {
          "internalType": "address[]",
          "name": "workers",
          "type": "address[]"
        },
        {
          "internalType": "uint256",
          "name": "totalCapacity",
          "type": "uint256"
        }
      ],
      "name": "hashProposalData",
      "outputs": [
        {
          "internalType": "bytes32",
          "name": "",
          "type": "bytes32"
        }
      ],
      "stateMutability": "pure",
      "type": "function"
    },
    {
      "inputs": [
        {
          "internalType": "address",
          "name": "target",
          "type": "address"
        }
      ],
      "name": "initialize",
      "outputs": [],
      "stateMutability": "nonpayable",
      "type": "function"
    },
    {
      "inputs": [
        {
          "internalType": "address",
          "name": "_validatorAddress",
          "type": "address"
        }
      ],
      "name": "isActiveValidator",
      "outputs": [
        {
          "internalType": "bool",
          "name": "",
          "type": "bool"
        }
      ],
      "stateMutability": "view",
      "type": "function"
    },
    {
      "inputs": [
        {
          "internalType": "uint256",
          "name": "proposalNumber",
          "type": "uint256"
        }
      ],
      "name": "isProposalReady",
      "outputs": [
        {
          "internalType": "bool",
          "name": "",
          "type": "bool"
        }
      ],
      "stateMutability": "view",
      "type": "function"
    },
    {
      "inputs": [
        {
          "internalType": "address",
          "name": "",
          "type": "address"
        }
      ],
      "name": "isValidator",
      "outputs": [
        {
          "internalType": "bool",
          "name": "",
          "type": "bool"
        }
      ],
      "stateMutability": "view",
      "type": "function"
    },
    {
      "inputs": [],
      "name": "lastProposalTime",
      "outputs": [
        {
          "internalType": "uint256",
          "name": "",
          "type": "uint256"
        }
      ],
      "stateMutability": "view",
      "type": "function"
    },
    {
      "inputs": [],
      "name": "maxStateUpdates",
      "outputs": [
        {
          "internalType": "uint256",
          "name": "",
          "type": "uint256"
        }
      ],
      "stateMutability": "view",
      "type": "function"
    },
    {
      "inputs": [],
      "name": "nValidators",
      "outputs": [
        {
          "internalType": "uint8",
          "name": "",
          "type": "uint8"
        }
      ],
      "stateMutability": "view",
      "type": "function"
    },
    {
      "inputs": [],
      "name": "nextProposalId",
      "outputs": [
        {
          "internalType": "uint256",
          "name": "",
          "type": "uint256"
        }
      ],
      "stateMutability": "view",
      "type": "function"
    },
    {
      "inputs": [
        {
          "internalType": "uint8",
          "name": "",
          "type": "uint8"
        }
      ],
      "name": "proposalVotes",
      "outputs": [
        {
          "internalType": "uint256",
          "name": "",
          "type": "uint256"
        }
      ],
      "stateMutability": "view",
      "type": "function"
    },
    {
      "inputs": [
        {
          "internalType": "uint256",
          "name": "",
          "type": "uint256"
        }
      ],
      "name": "readyProposals",
      "outputs": [
        {
          "internalType": "uint8",
          "name": "",
          "type": "uint8"
        }
      ],
      "stateMutability": "view",
      "type": "function"
    },
    {
      "inputs": [
        {
          "internalType": "address",
          "name": "validator",
          "type": "address"
        }
      ],
      "name": "removeValidator",
      "outputs": [],
      "stateMutability": "nonpayable",
      "type": "function"
    },
    {
      "inputs": [],
      "name": "requiredApprovals",
      "outputs": [
        {
          "internalType": "uint256",
          "name": "",
          "type": "uint256"
        }
      ],
      "stateMutability": "view",
      "type": "function"
    },
    {
      "inputs": [],
      "name": "requiredApprovalsPercentage",
      "outputs": [
        {
          "internalType": "uint256",
          "name": "",
          "type": "uint256"
        }
      ],
      "stateMutability": "view",
      "type": "function"
    },
    {
      "inputs": [],
      "name": "smartnodesContractAddress",
      "outputs": [
        {
          "internalType": "address",
          "name": "",
          "type": "address"
        }
      ],
      "stateMutability": "view",
      "type": "function"
    },
    {
      "inputs": [],
      "name": "updateTime",
      "outputs": [
        {
          "internalType": "uint256",
          "name": "",
          "type": "uint256"
        }
      ],
      "stateMutability": "view",
      "type": "function"
    },
    {
      "inputs": [
        {
          "internalType": "uint256",
          "name": "",
          "type": "uint256"
        }
      ],
      "name": "validators",
      "outputs": [
        {
          "internalType": "address",
          "name": "",
          "type": "address"
        }
      ],
      "stateMutability": "view",
      "type": "function"
    },
    {
      "stateMutability": "payable",
      "type": "receive"
    }
  ],
  "bytecode": "6080604052603c600155348015601457600080fd5b506121fe806100246000396000f3fe6080604052600436106101c65760003560e01c8063926b9304116100f7578063dc55509011610095578063e8bb594611610064578063e8bb594614610586578063ec432772146105a6578063f5bbd43a146105bb578063facd743b146105db57600080fd5b8063dc5550901461050d578063ddaa545014610523578063e2a8f6f214610539578063e6f3d3d81461056657600080fd5b8063a6f9ed81116100d1578063a6f9ed8114610497578063bd423184146104b7578063c4d66de8146104d7578063d088650a146104f757600080fd5b8063926b93041461043157806399c1aadc146104515780639a1716291461046757600080fd5b806340a141ff1161016457806354d9d6141161013e57806354d9d614146103af5780636d6a0352146103cf57806385771184146103fc57806391e2e2521461041c57600080fd5b806340a141ff14610359578063473967c9146103795780634d238c8e1461038f57600080fd5b80632542bf06116101a05780632542bf06146102925780632ab09d14146102b457806335aa2e44146102d857806340550a1c1461031057600080fd5b80630833c91a1461020757806309eef43e1461023f5780631865c57d1461026f57600080fd5b366102025760405134815233907fe1fffcc4923d04b559f4d29a8bfc6cda04eb5b0d3c460751c2402c5c5cc9109c9060200160405180910390a2005b600080fd5b34801561021357600080fd5b5060085461022890600160a01b900460ff1681565b60405160ff90911681526020015b60405180910390f35b34801561024b57600080fd5b5061022861025a366004611c3c565b600f6020526000908152604090205460ff1681565b34801561027b57600080fd5b5061028461060b565b604051610236929190611ca3565b34801561029e57600080fd5b506102b26102ad366004611cc4565b610678565b005b3480156102c057600080fd5b506102ca60065481565b604051908152602001610236565b3480156102e457600080fd5b506102f86102f3366004611cc4565b61085a565b6040516001600160a01b039091168152602001610236565b34801561031c57600080fd5b5061034961032b366004611c3c565b6001600160a01b03166000908152600d602052604090205460ff1690565b6040519015158152602001610236565b34801561036557600080fd5b506102b2610374366004611c3c565b610884565b34801561038557600080fd5b506102ca60045481565b34801561039b57600080fd5b506102b26103aa366004611c3c565b610917565b3480156103bb57600080fd5b506102b26103ca366004611cdd565b610b1c565b3480156103db57600080fd5b506102ca6103ea366004611cdd565b60106020526000908152604090205481565b34801561040857600080fd5b50610228610417366004611cc4565b610ce0565b34801561042857600080fd5b506009546102ca565b34801561043d57600080fd5b5061034961044c366004611cc4565b610d14565b34801561045d57600080fd5b506102ca60035481565b34801561047357600080fd5b50610228610482366004611c3c565b600e6020526000908152604090205460ff1681565b3480156104a357600080fd5b506008546102f8906001600160a01b031681565b3480156104c357600080fd5b506102ca6104d2366004611cc4565b610d75565b3480156104e357600080fd5b506102b26104f2366004611c3c565b610d96565b34801561050357600080fd5b506102ca60055481565b34801561051957600080fd5b506102ca60015481565b34801561052f57600080fd5b506102ca60025481565b34801561054557600080fd5b50610559610554366004611cc4565b610ea1565b6040516102369190611d00565b34801561057257600080fd5b506102ca610581366004611e53565b61100b565b34801561059257600080fd5b506102f86105a1366004611cc4565b6110a7565b3480156105b257600080fd5b506102b26110b7565b3480156105c757600080fd5b506102b26105d6366004611e53565b61113a565b3480156105e757600080fd5b506103496105f6366004611c3c565b600d6020526000908152604090205460ff1681565b60006060600654600a8080548060200260200160405190810160405280929190818152602001828054801561066957602002820191906000526020600020905b81546001600160a01b0316815260019091019060200180831161064b575b50505050509050915091509091565b61068133611575565b8061068c5750600a54155b6106f85760405162461bcd60e51b815260206004820152603260248201527f43616c6c6572206973206e6f7420612073656c65637465642076616c696461746044820152716f7220666f72207468697320726f756e642160701b60648201526084015b60405180910390fd5b336000908152600e602052604090205460ff16156107775760405162461bcd60e51b815260206004820152603660248201527f56616c696461746f722068617320616c7265616479207375626d697474656420604482015275612070726f706f73616c207468697320726f756e642160501b60648201526084016106ef565b6001546005546107879042611f72565b10156108075760405162461bcd60e51b815260206004820152604360248201527f50726f706f73616c73206d757374206265207375626d697474656420302d313060448201527f206d696e73206166746572206c6173742065786563757465642070726f706f73606482015262616c2160e81b608482015260a4016106ef565b600b80546001810182557f0175b7a638427703f0dbe7bb9bbf987a2551717b34e79f33b5b1008d1fa01db9019190915554336000908152600e60205260409020805460ff191660ff909216919091179055565b6009818154811061086a57600080fd5b6000918252602090912001546001600160a01b0316905081565b336000908152600d602052604090205460ff166108b35760405162461bcd60e51b81526004016106ef90611f8b565b336001600160a01b0382161461090b5760405162461bcd60e51b815260206004820181905260248201527f43616e6e6f742072656d6f766520616e6f746865722076616c696461746f722160448201526064016106ef565b610914816115cb565b50565b600754604051631293efbb60e21b81526001600160a01b03838116600483015290911690634a4fbeec90602401602060405180830381865afa158015610961573d6000803e3d6000fd5b505050506040513d601f19601f820116820180604052508101906109859190611fd0565b6109f75760405162461bcd60e51b815260206004820152603a60248201527f56616c696461746f72206d757374206265207265676973746572656420616e6460448201527f206c6f636b6564206f6e20536d6172746e6f646573436f72652100000000000060648201526084016106ef565b6001600160a01b0381166000908152600d602052604090205460ff1615610a715760405162461bcd60e51b815260206004820152602860248201527f56616c696461746f7220616c72656164792072656769737465726564206f6e206044820152674d756c747369672160c01b60648201526084016106ef565b6009805460018082019092557f6e1540171b6c0c960b71a7020d9f60077f6af931a8bbf590da0223dacf75c7af0180546001600160a01b0319166001600160a01b0384169081179091556000908152600d60205260409020805460ff19169091179055610adc611791565b6040516001600160a01b03821681527fe366c1c0452ed8eec96861e9e54141ebff23c9ec89fe27b996b45f5ec3884987906020015b60405180910390a150565b336000908152600d602052604090205460ff16610b4b5760405162461bcd60e51b81526004016106ef90611f8b565b336000908152600f602052604090205460ff1615610bab5760405162461bcd60e51b815260206004820152601c60248201527f56616c696461746f722068617320616c726561647920766f746564210000000060448201526064016106ef565b600b5460ff821611801590610bc3575060008160ff16115b610c0f5760405162461bcd60e51b815260206004820152601860248201527f496e76616c69642070726f706f73616c206e756d62657221000000000000000060448201526064016106ef565b336000908152600d602052604081205460ff1615159003610c3357610c3333610917565b336000908152600f60209081526040808320805460ff191660ff8616908117909155835260109091528120805491610c6a83611ff2565b909155505060035460ff82166000908152601060205260409020541061091457600c8054600181018255600091909152602081047fdf6966c971051c3d54ec59162606531493a51404a002842f56009d7e5cf4a8c701805460ff808516601f9094166101000a9384029302191691909117905550565b600c8181548110610cf057600080fd5b9060005260206000209060209182820401919006915054906101000a900460ff1681565b6000805b600c54811015610d6c5782600c8281548110610d3657610d3661200b565b60009182526020918290209181049091015460ff601f9092166101000a90041603610d645750600192915050565b600101610d18565b50600092915050565b600b8181548110610d8557600080fd5b600091825260209091200154905081565b600054610100900460ff16610db15760005460ff1615610db5565b303b155b610e185760405162461bcd60e51b815260206004820152602e60248201527f496e697469616c697a61626c653a20636f6e747261637420697320616c72656160448201526d191e481a5b9a5d1a585b1a5e995960921b60648201526084016106ef565b600054610100900460ff16158015610e3a576000805461ffff19166101011790555b60088054601e600455603c600155600780546001600160a01b0319166001600160a01b0386169081179091556000600581905560426002556001600160a81b031990921617600160a01b179091556006558015610e9d576000805461ff00191690555b5050565b600954606090821115610ef65760405162461bcd60e51b815260206004820152601d60248201527f4e6f7420656e6f756768206163746976652076616c696461746f72732100000060448201526064016106ef565b60008267ffffffffffffffff811115610f1157610f11611d13565b604051908082528060200260200182016040528015610f3a578160200160208202803683370190505b5090506000805b848110156110025760095460408051426020820152339181019190915260608101839052600091906080016040516020818303038152906040528051906020012060001c610f8f9190612037565b905060098181548110610fa457610fa461200b565b9060005260206000200160009054906101000a90046001600160a01b0316848381518110610fd457610fd461200b565b6001600160a01b039092166020928302919091019091015282610ff681611ff2565b93505050600101610f41565b50909392505050565b6000835183511461106d5760405162461bcd60e51b815260206004820152602660248201527f576f726b65727320616e642063617061636974696573206c656e677468206d696044820152650e6dac2e8c6d60d31b60648201526084016106ef565b858585858560405160200161108695949392919061207c565b60405160208183030381529060405280519060200120905095945050505050565b600a818154811061086a57600080fd5b6008546001600160a01b031633146111205760405162461bcd60e51b815260206004820152602660248201527f43616c6c6572206d7573742062652074686520536d6172746e6f6465734d756c6044820152653a34a9b4b39760d11b60648201526084016106ef565b6002600160008282546111339190612103565b9091555050565b336000908152600d602052604090205460ff166111695760405162461bcd60e51b81526004016106ef90611f8b565b336000908152600e602052604090205460ff16806111c95760405162461bcd60e51b815260206004820152601b60248201527f4d75737420626520612070726f706f73616c2063726561746f7221000000000060448201526064016106ef565b60035460ff8216600090815260106020526040902054101561122d5760405162461bcd60e51b815260206004820152601a60248201527f4e6f7420656e6f7567682070726f706f73616c20766f7465732100000000000060448201526064016106ef565b6000600b61123c600184612117565b60ff168154811061124f5761124f61200b565b90600052602060002001549050600061126b888888888861100b565b90508181146112ce5760405162461bcd60e51b815260206004820152602960248201527f50726f706f73616c206461746120646f65736e2774206d6174636820696e697460448201526869616c20686173682160b81b60648201526084016106ef565b87511561130d5760005b885181101561130b576113038982815181106112f6576112f661200b565b60200260200101516115cb565b6001016112d8565b505b8651600090156113cf5760005b88518110156113cd5760075489516000916001600160a01b03169063991e0139908c908590811061134d5761134d61200b565b60200260200101516040518263ffffffff1660e01b815260040161137391815260200190565b6020604051808303816000875af1158015611392573d6000803e3d6000fd5b505050506040513d601f19601f820116820180604052508101906113b69190612130565b90506113c28184612149565b92505060010161131a565b505b60ff841660009081526010602052604081205467ffffffffffffffff8111156113fa576113fa611d13565b604051908082528060200260200182016040528015611423578160200160208202803683370190505b50905060005b6009548110156114b9576000600982815481106114485761144861200b565b60009182526020808320909101546001600160a01b0316808352600f90915260409091205490915060ff8089169116036114b0578083838151811061148f5761148f61200b565b60200260200101906001600160a01b031690816001600160a01b0316815250505b50600101611429565b50600754604051630dc2491160e31b81526001600160a01b0390911690636e124888906114f2908a908c908b908790899060040161215c565b600060405180830381600087803b15801561150c57600080fd5b505af1158015611520573d6000803e3d6000fd5b505060065460408051918252602082018790527f56a007d3eea04bd347e571f3451382cb2a33ef5fd102b9a63846ff8d787f43cf935001905060405180910390a16115696117c2565b50505050505050505050565b6000805b600a54811015610d6c57826001600160a01b0316600a82815481106115a0576115a061200b565b6000918252602090912001546001600160a01b0316036115c35750600192915050565b600101611579565b6001600160a01b0381166000908152600d602052604090205460ff166116335760405162461bcd60e51b815260206004820152601960248201527f56616c696461746f72206e6f742072656769737465726564210000000000000060448201526064016106ef565b6001600160a01b0381166000908152600d60205260408120805460ff191690555b60095481101561174f57816001600160a01b03166009828154811061167b5761167b61200b565b6000918252602090912001546001600160a01b03160361174757600980546116a590600190611f72565b815481106116b5576116b561200b565b600091825260209091200154600980546001600160a01b0390921691839081106116e1576116e161200b565b9060005260206000200160006101000a8154816001600160a01b0302191690836001600160a01b0316021790555060098054806117205761172061219b565b600082815260209020810160001990810180546001600160a01b031916905501905561174f565b600101611654565b50611758611791565b6040516001600160a01b03821681527fe1434e25d6611e0db941968fdc97811c982ac1602e951637d206f5fdda9dd8f190602001610b11565b6002546009546064916117a3916121b1565b6117ad9190612103565b6003819055600111156117c05760016003555b565b6117ca611875565b600b541561181257600b805460ff166000908152601060205260408120558054806117f7576117f761219b565b600190038181906000526020600020016000905590556117ca565b600c541561185a57600c80548061182b5761182b61219b565b60019003818190600052602060002090602091828204019190066101000a81549060ff02191690559055611812565b426005556006805490600061186e83611ff2565b9190505550565b60005b600a548110156118da576000600e6000600a848154811061189b5761189b61200b565b6000918252602080832091909101546001600160a01b031683528201929092526040019020805460ff191660ff92909216919091179055600101611878565b5060005b600954811015611940576000600f6000600984815481106119015761190161200b565b6000918252602080832091909101546001600160a01b031683528201929092526040019020805460ff191660ff929092169190911790556001016118de565b50600a546000036119b25760005b6009548110156119b0576000600e6000600984815481106119715761197161200b565b6000918252602080832091909101546001600160a01b031683528201929092526040019020805460ff191660ff9290921691909117905560010161194e565b505b6119be600a6000611bee565b600854600954600160a01b90910460ff161115611a1d5760405162461bcd60e51b815260206004820152601d60248201527f4e6f7420656e6f756768206163746976652076616c696461746f72732100000060448201526064016106ef565b600854600090600160a01b900460ff1667ffffffffffffffff811115611a4557611a45611d13565b604051908082528060200260200182016040528015611a6e578160200160208202803683370190505b5090506000805b600854600160a01b900460ff16821015611be95760095460408051426020820152339181019190915260608101849052608081018390526000919060a0016040516020818303038152906040528051906020012060001c611ad69190612037565b9050600060098281548110611aed57611aed61200b565b60009182526020822001546001600160a01b03169150805b85811015611b5057826001600160a01b0316878281518110611b2957611b2961200b565b60200260200101516001600160a01b031603611b485760019150611b50565b600101611b05565b5080611bd45781868681518110611b6957611b6961200b565b6001600160a01b039283166020918202929092010152600a80546001810182556000919091527fc65a7bb8d6351c1cf70c95a316cc6a92839c986682d98bc35f958f4883f9d2a80180546001600160a01b03191691841691909117905584611bd081611ff2565b9550505b83611bde81611ff2565b945050505050611a75565b505050565b508054600082559060005260206000209081019061091491905b80821115611c1c5760008155600101611c08565b5090565b80356001600160a01b0381168114611c3757600080fd5b919050565b600060208284031215611c4e57600080fd5b611c5782611c20565b9392505050565b60008151808452602080850194506020840160005b83811015611c985781516001600160a01b031687529582019590820190600101611c73565b509495945050505050565b828152604060208201526000611cbc6040830184611c5e565b949350505050565b600060208284031215611cd657600080fd5b5035919050565b600060208284031215611cef57600080fd5b813560ff81168114611c5757600080fd5b602081526000611c576020830184611c5e565b634e487b7160e01b600052604160045260246000fd5b604051601f8201601f1916810167ffffffffffffffff81118282101715611d5257611d52611d13565b604052919050565b600067ffffffffffffffff821115611d7457611d74611d13565b5060051b60200190565b600082601f830112611d8f57600080fd5b81356020611da4611d9f83611d5a565b611d29565b8083825260208201915060208460051b870101935086841115611dc657600080fd5b602086015b84811015611de957611ddc81611c20565b8352918301918301611dcb565b509695505050505050565b600082601f830112611e0557600080fd5b81356020611e15611d9f83611d5a565b8083825260208201915060208460051b870101935086841115611e3757600080fd5b602086015b84811015611de95780358352918301918301611e3c565b600080600080600060a08688031215611e6b57600080fd5b853567ffffffffffffffff80821115611e8357600080fd5b611e8f89838a01611d7e565b9650602091508188013581811115611ea657600080fd5b8801601f81018a13611eb757600080fd5b8035611ec5611d9f82611d5a565b81815260059190911b8201840190848101908c831115611ee457600080fd5b928501925b82841015611f0257833582529285019290850190611ee9565b98505050506040880135915080821115611f1b57600080fd5b611f2789838a01611df4565b94506060880135915080821115611f3d57600080fd5b50611f4a88828901611d7e565b95989497509295608001359392505050565b634e487b7160e01b600052601160045260246000fd5b81810381811115611f8557611f85611f5c565b92915050565b60208082526025908201527f43616c6c6572206973206e6f74206120536d6172746e6f6465732056616c696460408201526461746f722160d81b606082015260800190565b600060208284031215611fe257600080fd5b81518015158114611c5757600080fd5b60006001820161200457612004611f5c565b5060010190565b634e487b7160e01b600052603260045260246000fd5b634e487b7160e01b600052601260045260246000fd5b60008261204657612046612021565b500690565b60008151808452602080850194506020840160005b83811015611c9857815187529582019590820190600101612060565b60a08152600061208f60a0830188611c5e565b82810360208481019190915287518083528882019282019060005b818110156120c6578451835293830193918301916001016120aa565b505084810360408601526120da818961204b565b9250505082810360608401526120f08186611c5e565b9150508260808301529695505050505050565b60008261211257612112612021565b500490565b60ff8281168282160390811115611f8557611f85611f5c565b60006020828403121561214257600080fd5b5051919050565b80820180821115611f8557611f85611f5c565b60a08152600061216f60a0830188611c5e565b8281036020840152612181818861204b565b905085604084015282810360608401526120f08186611c5e565b634e487b7160e01b600052603160045260246000fd5b8082028115828204841417611f8557611f85611f5c56fea26469706673582212203715b3f98bbd2a32988d850865aa149efdef48d2b4809d5b04ddc3ec3a38f7ad64736f6c63430008190033",
  "bytecodeSha1": "997a2fdaf68d78835a1263bbb567fc20fb3fa300",
  "compiler": {
    "evm_version": "istanbul",
    "optimizer": {
      "enabled": true,
      "runs": 200
    },
    "version": "0.8.25+commit.b61c2a91"
  },
  "contractName": "SmartnodesMultiSig",
  "language": "Solidity",
  "natspec": {
    "details": "A multi-signature contract composed of Smartnodes validators responsible for managing the Core contract",
    "kind": "dev",
    "methods": {
      "addValidator(address)": {
        "notice": "Adds a new validator to the contract, must be staked on SmartnodesCore.",
        "params": {
          "validator": "The address of the new validator"
        }
      },
      "approveTransaction(uint8)": {
        "notice": "Casts a vote for a proposal and executes once required approvals are met. Add Validator to storage if it has just registered and is not stored on MultiSig. ",
        "params": {
          "proposalNum": "The ID of the current round proposal"
        }
      },
      "createProposal(bytes32)": {
        "notice": "Creates a new proposal, to update all the essential data structures given some aggregated off-chain state."
      },
      "executeProposal(address[],bytes32[],uint256[],address[],uint256)": {
        "notice": "Executes a proposal if it has enough approvals. Only to be called by approveTransaction"
      }
    },
    "title": "SmartnodesMultiSig",
    "version": 1
  },
  "opcodes": "PUSH1 0x80 PUSH1 0x40 MSTORE PUSH1 0x4 CALLDATASIZE LT PUSH2 0x1C6 JUMPI PUSH1 0x0 CALLDATALOAD PUSH1 0xE0 SHR DUP1 PUSH4 0x926B9304 GT PUSH2 0xF7 JUMPI DUP1 PUSH4 0xDC555090 GT PUSH2 0x95 JUMPI DUP1 PUSH4 0xE8BB5946 GT PUSH2 0x64 JUMPI DUP1 PUSH4 0xE8BB5946 EQ PUSH2 0x586 JUMPI DUP1 PUSH4 0xEC432772 EQ PUSH2 0x5A6 JUMPI DUP1 PUSH4 0xF5BBD43A EQ PUSH2 0x5BB JUMPI DUP1 PUSH4 0xFACD743B EQ PUSH2 0x5DB JUMPI PUSH1 0x0 DUP1 REVERT JUMPDEST DUP1 PUSH4 0xDC555090 EQ PUSH2 0x50D JUMPI DUP1 PUSH4 0xDDAA5450 EQ PUSH2 0x523 JUMPI DUP1 PUSH4 0xE2A8F6F2 EQ PUSH2 0x539 JUMPI DUP1 PUSH4 0xE6F3D3D8 EQ PUSH2 0x566 JUMPI PUSH1 0x0 DUP1 REVERT JUMPDEST DUP1 PUSH4 0xA6F9ED81 GT PUSH2 0xD1 JUMPI DUP1 PUSH4 0xA6F9ED81 EQ PUSH2 0x497 JUMPI DUP1 PUSH4 0xBD423184 EQ PUSH2 0x4B7 JUMPI DUP1 PUSH4 0xC4D66DE8 EQ PUSH2 0x4D7 JUMPI DUP1 PUSH4 0xD088650A EQ PUSH2 0x4F7 JUMPI PUSH1 0x0 DUP1 REVERT JUMPDEST DUP1 PUSH4 0x926B9304 EQ PUSH2 0x431 JUMPI DUP1 PUSH4 0x99C1AADC EQ PUSH2 0x451 JUMPI DUP1 PUSH4 0x9A171629 EQ PUSH2 0x467 JUMPI PUSH1 0x0 DUP1 REVERT JUMPDEST DUP1 PUSH4 0x40A141FF GT PUSH2 0x164 JUMPI DUP1 PUSH4 0x54D9D614 GT PUSH2 0x13E JUMPI DUP1 PUSH4 0x54D9D614 EQ PUSH2 0x3AF JUMPI DUP1 PUSH4 0x6D6A0352 EQ PUSH2 0x3CF JUMPI DUP1 PUSH4 0x85771184 EQ PUSH2 0x3FC JUMPI DUP1 PUSH4 0x91E2E252 EQ PUSH2 0x41C JUMPI PUSH1 0x0 DUP1 REVERT JUMPDEST DUP1 PUSH4 0x40A141FF EQ PUSH2 0x359 JUMPI DUP1 PUSH4 0x473967C9 EQ PUSH2 0x379 JUMPI DUP1 PUSH4 0x4D238C8E EQ PUSH2 0x38F JUMPI PUSH1 0x0 DUP1 REVERT JUMPDEST DUP1 PUSH4 0x2542BF06 GT PUSH2 0x1A0 JUMPI DUP1 PUSH4 0x2542BF06 EQ PUSH2 0x292 JUMPI DUP1 PUSH4 0x2AB09D14 EQ PUSH2 0x2B4 JUMPI DUP1 PUSH4 0x35AA2E44 EQ PUSH2 0x2D8 JUMPI DUP1 PUSH4 0x40550A1C EQ PUSH2 0x310 JUMPI PUSH1 0x0 DUP1 REVERT JUMPDEST DUP1 PUSH4 0x833C91A EQ PUSH2 0x207 JUMPI DUP1 PUSH4 0x9EEF43E EQ PUSH2 0x23F JUMPI DUP1 PUSH4 0x1865C57D EQ PUSH2 0x26F JUMPI PUSH1 0x0 DUP1 REVERT JUMPDEST CALLDATASIZE PUSH2 0x202 JUMPI PUSH1 0x40 MLOAD CALLVALUE DUP2 MSTORE CALLER SWAP1 PUSH32 0xE1FFFCC4923D04B559F4D29A8BFC6CDA04EB5B0D3C460751C2402C5C5CC9109C SWAP1 PUSH1 0x20 ADD PUSH1 0x40 MLOAD DUP1 SWAP2 SUB SWAP1 LOG2 STOP JUMPDEST PUSH1 0x0 DUP1 REVERT JUMPDEST CALLVALUE DUP1 ISZERO PUSH2 0x213 JUMPI PUSH1 0x0 DUP1 REVERT JUMPDEST POP PUSH1 0x8 SLOAD PUSH2 0x228 SWAP1 PUSH1 0x1 PUSH1 0xA0 SHL SWAP1 DIV PUSH1 0xFF AND DUP2 JUMP JUMPDEST PUSH1 0x40 MLOAD PUSH1 0xFF SWAP1 SWAP2 AND DUP2 MSTORE PUSH1 0x20 ADD JUMPDEST PUSH1 0x40 MLOAD DUP1 SWAP2 SUB SWAP1 RETURN JUMPDEST CALLVALUE DUP1 ISZERO PUSH2 0x24B JUMPI PUSH1 0x0 DUP1 REVERT JUMPDEST POP PUSH2 0x228 PUSH2 0x25A CALLDATASIZE PUSH1 0x4 PUSH2 0x1C3C JUMP JUMPDEST PUSH1 0xF PUSH1 0x20 MSTORE PUSH1 0x0 SWAP1 DUP2 MSTORE PUSH1 0x40 SWAP1 KECCAK256 SLOAD PUSH1 0xFF AND DUP2 JUMP JUMPDEST CALLVALUE DUP1 ISZERO PUSH2 0x27B JUMPI PUSH1 0x0 DUP1 REVERT JUMPDEST POP PUSH2 0x284 PUSH2 0x60B JUMP JUMPDEST PUSH1 0x40 MLOAD PUSH2 0x236 SWAP3 SWAP2 SWAP1 PUSH2 0x1CA3 JUMP JUMPDEST CALLVALUE DUP1 ISZERO PUSH2 0x29E JUMPI PUSH1 0x0 DUP1 REVERT JUMPDEST POP PUSH2 0x2B2 PUSH2 0x2AD CALLDATASIZE PUSH1 0x4 PUSH2 0x1CC4 JUMP JUMPDEST PUSH2 0x678 JUMP JUMPDEST STOP JUMPDEST CALLVALUE DUP1 ISZERO PUSH2 0x2C0 JUMPI PUSH1 0x0 DUP1 REVERT JUMPDEST POP PUSH2 0x2CA PUSH1 0x6 SLOAD DUP2 JUMP JUMPDEST PUSH1 0x40 MLOAD SWAP1 DUP2 MSTORE PUSH1 0x20 ADD PUSH2 0x236 JUMP JUMPDEST CALLVALUE DUP1 ISZERO PUSH2 0x2E4 JUMPI PUSH1 0x0 DUP1 REVERT JUMPDEST POP PUSH2 0x2F8 PUSH2 0x2F3 CALLDATASIZE PUSH1 0x4 PUSH2 0x1CC4 JUMP JUMPDEST PUSH2 0x85A JUMP JUMPDEST PUSH1 0x40 MLOAD PUSH1 0x1 PUSH1 0x1 PUSH1 0xA0 SHL SUB SWAP1 SWAP2 AND DUP2 MSTORE PUSH1 0x20 ADD PUSH2 0x236 JUMP JUMPDEST CALLVALUE DUP1 ISZERO PUSH2 0x31C JUMPI PUSH1 0x0 DUP1 REVERT JUMPDEST POP PUSH2 0x349 PUSH2 0x32B CALLDATASIZE PUSH1 0x4 PUSH2 0x1C3C JUMP JUMPDEST PUSH1 0x1 PUSH1 0x1 PUSH1 0xA0 SHL SUB AND PUSH1 0x0 SWAP1 DUP2 MSTORE PUSH1 0xD PUSH1 0x20 MSTORE PUSH1 0x40 SWAP1 KECCAK256 SLOAD PUSH1 0xFF AND SWAP1 JUMP JUMPDEST PUSH1 0x40 MLOAD SWAP1 ISZERO ISZERO DUP2 MSTORE PUSH1 0x20 ADD PUSH2 0x236 JUMP JUMPDEST CALLVALUE DUP1 ISZERO PUSH2 0x365 JUMPI PUSH1 0x0 DUP1 REVERT JUMPDEST POP PUSH2 0x2B2 PUSH2 0x374 CALLDATASIZE PUSH1 0x4 PUSH2 0x1C3C JUMP JUMPDEST PUSH2 0x884 JUMP JUMPDEST CALLVALUE DUP1 ISZERO PUSH2 0x385 JUMPI PUSH1 0x0 DUP1 REVERT JUMPDEST POP PUSH2 0x2CA PUSH1 0x4 SLOAD DUP2 JUMP JUMPDEST CALLVALUE DUP1 ISZERO PUSH2 0x39B JUMPI PUSH1 0x0 DUP1 REVERT JUMPDEST POP PUSH2 0x2B2 PUSH2 0x3AA CALLDATASIZE PUSH1 0x4 PUSH2 0x1C3C JUMP JUMPDEST PUSH2 0x917 JUMP JUMPDEST CALLVALUE DUP1 ISZERO PUSH2 0x3BB JUMPI PUSH1 0x0 DUP1 REVERT JUMPDEST POP PUSH2 0x2B2 PUSH2 0x3CA CALLDATASIZE PUSH1 0x4 PUSH2 0x1CDD JUMP JUMPDEST PUSH2 0xB1C JUMP JUMPDEST CALLVALUE DUP1 ISZERO PUSH2 0x3DB JUMPI PUSH1 0x0 DUP1 REVERT JUMPDEST POP PUSH2 0x2CA PUSH2 0x3EA CALLDATASIZE PUSH1 0x4 PUSH2 0x1CDD JUMP JUMPDEST PUSH1 0x10 PUSH1 0x20 MSTORE PUSH1 0x0 SWAP1 DUP2 MSTORE PUSH1 0x40 SWAP1 KECCAK256 SLOAD DUP2 JUMP JUMPDEST CALLVALUE DUP1 ISZERO PUSH2 0x408 JUMPI PUSH1 0x0 DUP1 REVERT JUMPDEST POP PUSH2 0x228 PUSH2 0x417 CALLDATASIZE PUSH1 0x4 PUSH2 0x1CC4 JUMP JUMPDEST PUSH2 0xCE0 JUMP JUMPDEST CALLVALUE DUP1 ISZERO PUSH2 0x428 JUMPI PUSH1 0x0 DUP1 REVERT JUMPDEST POP PUSH1 0x9 SLOAD PUSH2 0x2CA JUMP JUMPDEST CALLVALUE DUP1 ISZERO PUSH2 0x43D JUMPI PUSH1 0x0 DUP1 REVERT JUMPDEST POP PUSH2 0x349 PUSH2 0x44C CALLDATASIZE PUSH1 0x4 PUSH2 0x1CC4 JUMP JUMPDEST PUSH2 0xD14 JUMP JUMPDEST CALLVALUE DUP1 ISZERO PUSH2 0x45D JUMPI PUSH1 0x0 DUP1 REVERT JUMPDEST POP PUSH2 0x2CA PUSH1 0x3 SLOAD DUP2 JUMP JUMPDEST CALLVALUE DUP1 ISZERO PUSH2 0x473 JUMPI PUSH1 0x0 DUP1 REVERT JUMPDEST POP PUSH2 0x228 PUSH2 0x482 CALLDATASIZE PUSH1 0x4 PUSH2 0x1C3C JUMP JUMPDEST PUSH1 0xE PUSH1 0x20 MSTORE PUSH1 0x0 SWAP1 DUP2 MSTORE PUSH1 0x40 SWAP1 KECCAK256 SLOAD PUSH1 0xFF AND DUP2 JUMP JUMPDEST CALLVALUE DUP1 ISZERO PUSH2 0x4A3 JUMPI PUSH1 0x0 DUP1 REVERT JUMPDEST POP PUSH1 0x8 SLOAD PUSH2 0x2F8 SWAP1 PUSH1 0x1 PUSH1 0x1 PUSH1 0xA0 SHL SUB AND DUP2 JUMP JUMPDEST CALLVALUE DUP1 ISZERO PUSH2 0x4C3 JUMPI PUSH1 0x0 DUP1 REVERT JUMPDEST POP PUSH2 0x2CA PUSH2 0x4D2 CALLDATASIZE PUSH1 0x4 PUSH2 0x1CC4 JUMP JUMPDEST PUSH2 0xD75 JUMP JUMPDEST CALLVALUE DUP1 ISZERO PUSH2 0x4E3 JUMPI PUSH1 0x0 DUP1 REVERT JUMPDEST POP PUSH2 0x2B2 PUSH2 0x4F2 CALLDATASIZE PUSH1 0x4 PUSH2 0x1C3C JUMP JUMPDEST PUSH2 0xD96 JUMP JUMPDEST CALLVALUE DUP1 ISZERO PUSH2 0x503 JUMPI PUSH1 0x0 DUP1 REVERT JUMPDEST POP PUSH2 0x2CA PUSH1 0x5 SLOAD DUP2 JUMP JUMPDEST CALLVALUE DUP1 ISZERO PUSH2 0x519 JUMPI PUSH1 0x0 DUP1 REVERT JUMPDEST POP PUSH2 0x2CA PUSH1 0x1 SLOAD DUP2 JUMP JUMPDEST CALLVALUE DUP1 ISZERO PUSH2 0x52F JUMPI PUSH1 0x0 DUP1 REVERT JUMPDEST POP PUSH2 0x2CA PUSH1 0x2 SLOAD DUP2 JUMP JUMPDEST CALLVALUE DUP1 ISZERO PUSH2 0x545 JUMPI PUSH1 0x0 DUP1 REVERT JUMPDEST POP PUSH2 0x559 PUSH2 0x554 CALLDATASIZE PUSH1 0x4 PUSH2 0x1CC4 JUMP JUMPDEST PUSH2 0xEA1 JUMP JUMPDEST PUSH1 0x40 MLOAD PUSH2 0x236 SWAP2 SWAP1 PUSH2 0x1D00 JUMP JUMPDEST CALLVALUE DUP1 ISZERO PUSH2 0x572 JUMPI PUSH1 0x0 DUP1 REVERT JUMPDEST POP PUSH2 0x2CA PUSH2 0x581 CALLDATASIZE PUSH1 0x4 PUSH2 0x1E53 JUMP JUMPDEST PUSH2 0x100B JUMP JUMPDEST CALLVALUE DUP1 ISZERO PUSH2 0x592 JUMPI PUSH1 0x0 DUP1 REVERT JUMPDEST POP PUSH2 0x2F8 PUSH2 0x5A1 CALLDATASIZE PUSH1 0x4 PUSH2 0x1CC4 JUMP JUMPDEST PUSH2 0x10A7 JUMP JUMPDEST CALLVALUE DUP1 ISZERO PUSH2 0x5B2 JUMPI PUSH1 0x0 DUP1 REVERT JUMPDEST POP PUSH2 0x2B2 PUSH2 0x10B7 JUMP JUMPDEST CALLVALUE DUP1 ISZERO PUSH2 0x5C7 JUMPI PUSH1 0x0 DUP1 REVERT JUMPDEST POP PUSH2 0x2B2 PUSH2 0x5D6 CALLDATASIZE PUSH1 0x4 PUSH2 0x1E53 JUMP JUMPDEST PUSH2 0x113A JUMP JUMPDEST CALLVALUE DUP1 ISZERO PUSH2 0x5E7 JUMPI PUSH1 0x0 DUP1 REVERT JUMPDEST POP PUSH2 0x349 PUSH2 0x5F6 CALLDATASIZE PUSH1 0x4 PUSH2 0x1C3C JUMP JUMPDEST PUSH1 0xD PUSH1 0x20 MSTORE PUSH1 0x0 SWAP1 DUP2 MSTORE PUSH1 0x40 SWAP1 KECCAK256 SLOAD PUSH1 0xFF AND DUP2 JUMP JUMPDEST PUSH1 0x0 PUSH1 0x60 PUSH1 0x6 SLOAD PUSH1 0xA DUP1 DUP1 SLOAD DUP1 PUSH1 0x20 MUL PUSH1 0x20 ADD PUSH1 0x40 MLOAD SWAP1 DUP2 ADD PUSH1 0x40 MSTORE DUP1 SWAP3 SWAP2 SWAP1 DUP2 DUP2 MSTORE PUSH1 0x20 ADD DUP3 DUP1 SLOAD DUP1 ISZERO PUSH2 0x669 JUMPI PUSH1 0x20 MUL DUP3 ADD SWAP2 SWAP1 PUSH1 0x0 MSTORE PUSH1 0x20 PUSH1 0x0 KECCAK256 SWAP1 JUMPDEST DUP2 SLOAD PUSH1 0x1 PUSH1 0x1 PUSH1 0xA0 SHL SUB AND DUP2 MSTORE PUSH1 0x1 SWAP1 SWAP2 ADD SWAP1 PUSH1 0x20 ADD DUP1 DUP4 GT PUSH2 0x64B JUMPI JUMPDEST POP POP POP POP POP SWAP1 POP SWAP2 POP SWAP2 POP SWAP1 SWAP2 JUMP JUMPDEST PUSH2 0x681 CALLER PUSH2 0x1575 JUMP JUMPDEST DUP1 PUSH2 0x68C JUMPI POP PUSH1 0xA SLOAD ISZERO JUMPDEST PUSH2 0x6F8 JUMPI PUSH1 0x40 MLOAD PUSH3 0x461BCD PUSH1 0xE5 SHL DUP2 MSTORE PUSH1 0x20 PUSH1 0x4 DUP3 ADD MSTORE PUSH1 0x32 PUSH1 0x24 DUP3 ADD MSTORE PUSH32 0x43616C6C6572206973206E6F7420612073656C65637465642076616C69646174 PUSH1 0x44 DUP3 ADD MSTORE PUSH18 0x6F7220666F72207468697320726F756E6421 PUSH1 0x70 SHL PUSH1 0x64 DUP3 ADD MSTORE PUSH1 0x84 ADD JUMPDEST PUSH1 0x40 MLOAD DUP1 SWAP2 SUB SWAP1 REVERT JUMPDEST CALLER PUSH1 0x0 SWAP1 DUP2 MSTORE PUSH1 0xE PUSH1 0x20 MSTORE PUSH1 0x40 SWAP1 KECCAK256 SLOAD PUSH1 0xFF AND ISZERO PUSH2 0x777 JUMPI PUSH1 0x40 MLOAD PUSH3 0x461BCD PUSH1 0xE5 SHL DUP2 MSTORE PUSH1 0x20 PUSH1 0x4 DUP3 ADD MSTORE PUSH1 0x36 PUSH1 0x24 DUP3 ADD MSTORE PUSH32 0x56616C696461746F722068617320616C7265616479207375626D697474656420 PUSH1 0x44 DUP3 ADD MSTORE PUSH22 0x612070726F706F73616C207468697320726F756E6421 PUSH1 0x50 SHL PUSH1 0x64 DUP3 ADD MSTORE PUSH1 0x84 ADD PUSH2 0x6EF JUMP JUMPDEST PUSH1 0x1 SLOAD PUSH1 0x5 SLOAD PUSH2 0x787 SWAP1 TIMESTAMP PUSH2 0x1F72 JUMP JUMPDEST LT ISZERO PUSH2 0x807 JUMPI PUSH1 0x40 MLOAD PUSH3 0x461BCD PUSH1 0xE5 SHL DUP2 MSTORE PUSH1 0x20 PUSH1 0x4 DUP3 ADD MSTORE PUSH1 0x43 PUSH1 0x24 DUP3 ADD MSTORE PUSH32 0x50726F706F73616C73206D757374206265207375626D697474656420302D3130 PUSH1 0x44 DUP3 ADD MSTORE PUSH32 0x206D696E73206166746572206C6173742065786563757465642070726F706F73 PUSH1 0x64 DUP3 ADD MSTORE PUSH3 0x616C21 PUSH1 0xE8 SHL PUSH1 0x84 DUP3 ADD MSTORE PUSH1 0xA4 ADD PUSH2 0x6EF JUMP JUMPDEST PUSH1 0xB DUP1 SLOAD PUSH1 0x1 DUP2 ADD DUP3 SSTORE PUSH32 0x175B7A638427703F0DBE7BB9BBF987A2551717B34E79F33B5B1008D1FA01DB9 ADD SWAP2 SWAP1 SWAP2 SSTORE SLOAD CALLER PUSH1 0x0 SWAP1 DUP2 MSTORE PUSH1 0xE PUSH1 0x20 MSTORE PUSH1 0x40 SWAP1 KECCAK256 DUP1 SLOAD PUSH1 0xFF NOT AND PUSH1 0xFF SWAP1 SWAP3 AND SWAP2 SWAP1 SWAP2 OR SWAP1 SSTORE JUMP JUMPDEST PUSH1 0x9 DUP2 DUP2 SLOAD DUP2 LT PUSH2 0x86A JUMPI PUSH1 0x0 DUP1 REVERT JUMPDEST PUSH1 0x0 SWAP2 DUP3 MSTORE PUSH1 0x20 SWAP1 SWAP2 KECCAK256 ADD SLOAD PUSH1 0x1 PUSH1 0x1 PUSH1 0xA0 SHL SUB AND SWAP1 POP DUP2 JUMP JUMPDEST CALLER PUSH1 0x0 SWAP1 DUP2 MSTORE PUSH1 0xD PUSH1 0x20 MSTORE PUSH1 0x40 SWAP1 KECCAK256 SLOAD PUSH1 0xFF AND PUSH2 0x8B3 JUMPI PUSH1 0x40 MLOAD PUSH3 0x461BCD PUSH1 0xE5 SHL DUP2 MSTORE PUSH1 0x4 ADD PUSH2 0x6EF SWAP1 PUSH2 0x1F8B JUMP JUMPDEST CALLER PUSH1 0x1 PUSH1 0x1 PUSH1 0xA0 SHL SUB DUP3 AND EQ PUSH2 0x90B JUMPI PUSH1 0x40 MLOAD PUSH3 0x461BCD PUSH1 0xE5 SHL DUP2 MSTORE PUSH1 0x20 PUSH1 0x4 DUP3 ADD DUP2 SWAP1 MSTORE PUSH1 0x24 DUP3 ADD MSTORE PUSH32 0x43616E6E6F742072656D6F766520616E6F746865722076616C696461746F7221 PUSH1 0x44 DUP3 ADD MSTORE PUSH1 0x64 ADD PUSH2 0x6EF JUMP JUMPDEST PUSH2 0x914 DUP2 PUSH2 0x15CB JUMP JUMPDEST POP JUMP JUMPDEST PUSH1 0x7 SLOAD PUSH1 0x40 MLOAD PUSH4 0x1293EFBB PUSH1 0xE2 SHL DUP2 MSTORE PUSH1 0x1 PUSH1 0x1 PUSH1 0xA0 SHL SUB DUP4 DUP2 AND PUSH1 0x4 DUP4 ADD MSTORE SWAP1 SWAP2 AND SWAP1 PUSH4 0x4A4FBEEC SWAP1 PUSH1 0x24 ADD PUSH1 0x20 PUSH1 0x40 MLOAD DUP1 DUP4 SUB DUP2 DUP7 GAS STATICCALL ISZERO DUP1 ISZERO PUSH2 0x961 JUMPI RETURNDATASIZE PUSH1 0x0 DUP1 RETURNDATACOPY RETURNDATASIZE PUSH1 0x0 REVERT JUMPDEST POP POP POP POP PUSH1 0x40 MLOAD RETURNDATASIZE PUSH1 0x1F NOT PUSH1 0x1F DUP3 ADD AND DUP3 ADD DUP1 PUSH1 0x40 MSTORE POP DUP2 ADD SWAP1 PUSH2 0x985 SWAP2 SWAP1 PUSH2 0x1FD0 JUMP JUMPDEST PUSH2 0x9F7 JUMPI PUSH1 0x40 MLOAD PUSH3 0x461BCD PUSH1 0xE5 SHL DUP2 MSTORE PUSH1 0x20 PUSH1 0x4 DUP3 ADD MSTORE PUSH1 0x3A PUSH1 0x24 DUP3 ADD MSTORE PUSH32 0x56616C696461746F72206D757374206265207265676973746572656420616E64 PUSH1 0x44 DUP3 ADD MSTORE PUSH32 0x206C6F636B6564206F6E20536D6172746E6F646573436F726521000000000000 PUSH1 0x64 DUP3 ADD MSTORE PUSH1 0x84 ADD PUSH2 0x6EF JUMP JUMPDEST PUSH1 0x1 PUSH1 0x1 PUSH1 0xA0 SHL SUB DUP2 AND PUSH1 0x0 SWAP1 DUP2 MSTORE PUSH1 0xD PUSH1 0x20 MSTORE PUSH1 0x40 SWAP1 KECCAK256 SLOAD PUSH1 0xFF AND ISZERO PUSH2 0xA71 JUMPI PUSH1 0x40 MLOAD PUSH3 0x461BCD PUSH1 0xE5 SHL DUP2 MSTORE PUSH1 0x20 PUSH1 0x4 DUP3 ADD MSTORE PUSH1 0x28 PUSH1 0x24 DUP3 ADD MSTORE PUSH32 0x56616C696461746F7220616C72656164792072656769737465726564206F6E20 PUSH1 0x44 DUP3 ADD MSTORE PUSH8 0x4D756C7473696721 PUSH1 0xC0 SHL PUSH1 0x64 DUP3 ADD MSTORE PUSH1 0x84 ADD PUSH2 0x6EF JUMP JUMPDEST PUSH1 0x9 DUP1 SLOAD PUSH1 0x1 DUP1 DUP3 ADD SWAP1 SWAP3 SSTORE PUSH32 0x6E1540171B6C0C960B71A7020D9F60077F6AF931A8BBF590DA0223DACF75C7AF ADD DUP1 SLOAD PUSH1 0x1 PUSH1 0x1 PUSH1 0xA0 SHL SUB NOT AND PUSH1 0x1 PUSH1 0x1 PUSH1 0xA0 SHL SUB DUP5 AND SWAP1 DUP2 OR SWAP1 SWAP2 SSTORE PUSH1 0x0 SWAP1 DUP2 MSTORE PUSH1 0xD PUSH1 0x20 MSTORE PUSH1 0x40 SWAP1 KECCAK256 DUP1 SLOAD PUSH1 0xFF NOT AND SWAP1 SWAP2 OR SWAP1 SSTORE PUSH2 0xADC PUSH2 0x1791 JUMP JUMPDEST PUSH1 0x40 MLOAD PUSH1 0x1 PUSH1 0x1 PUSH1 0xA0 SHL SUB DUP3 AND DUP2 MSTORE PUSH32 0xE366C1C0452ED8EEC96861E9E54141EBFF23C9EC89FE27B996B45F5EC3884987 SWAP1 PUSH1 0x20 ADD JUMPDEST PUSH1 0x40 MLOAD DUP1 SWAP2 SUB SWAP1 LOG1 POP JUMP JUMPDEST CALLER PUSH1 0x0 SWAP1 DUP2 MSTORE PUSH1 0xD PUSH1 0x20 MSTORE PUSH1 0x40 SWAP1 KECCAK256 SLOAD PUSH1 0xFF AND PUSH2 0xB4B JUMPI PUSH1 0x40 MLOAD PUSH3 0x461BCD PUSH1 0xE5 SHL DUP2 MSTORE PUSH1 0x4 ADD PUSH2 0x6EF SWAP1 PUSH2 0x1F8B JUMP JUMPDEST CALLER PUSH1 0x0 SWAP1 DUP2 MSTORE PUSH1 0xF PUSH1 0x20 MSTORE PUSH1 0x40 SWAP1 KECCAK256 SLOAD PUSH1 0xFF AND ISZERO PUSH2 0xBAB JUMPI PUSH1 0x40 MLOAD PUSH3 0x461BCD PUSH1 0xE5 SHL DUP2 MSTORE PUSH1 0x20 PUSH1 0x4 DUP3 ADD MSTORE PUSH1 0x1C PUSH1 0x24 DUP3 ADD MSTORE PUSH32 0x56616C696461746F722068617320616C726561647920766F7465642100000000 PUSH1 0x44 DUP3 ADD MSTORE PUSH1 0x64 ADD PUSH2 0x6EF JUMP JUMPDEST PUSH1 0xB SLOAD PUSH1 0xFF DUP3 AND GT DUP1 ISZERO SWAP1 PUSH2 0xBC3 JUMPI POP PUSH1 0x0 DUP2 PUSH1 0xFF AND GT JUMPDEST PUSH2 0xC0F JUMPI PUSH1 0x40 MLOAD PUSH3 0x461BCD PUSH1 0xE5 SHL DUP2 MSTORE PUSH1 0x20 PUSH1 0x4 DUP3 ADD MSTORE PUSH1 0x18 PUSH1 0x24 DUP3 ADD MSTORE PUSH32 0x496E76616C69642070726F706F73616C206E756D626572210000000000000000 PUSH1 0x44 DUP3 ADD MSTORE PUSH1 0x64 ADD PUSH2 0x6EF JUMP JUMPDEST CALLER PUSH1 0x0 SWAP1 DUP2 MSTORE PUSH1 0xD PUSH1 0x20 MSTORE PUSH1 0x40 DUP2 KECCAK256 SLOAD PUSH1 0xFF AND ISZERO ISZERO SWAP1 SUB PUSH2 0xC33 JUMPI PUSH2 0xC33 CALLER PUSH2 0x917 JUMP JUMPDEST CALLER PUSH1 0x0 SWAP1 DUP2 MSTORE PUSH1 0xF PUSH1 0x20 SWAP1 DUP2 MSTORE PUSH1 0x40 DUP1 DUP4 KECCAK256 DUP1 SLOAD PUSH1 0xFF NOT AND PUSH1 0xFF DUP7 AND SWAP1 DUP2 OR SWAP1 SWAP2 SSTORE DUP4 MSTORE PUSH1 0x10 SWAP1 SWAP2 MSTORE DUP2 KECCAK256 DUP1 SLOAD SWAP2 PUSH2 0xC6A DUP4 PUSH2 0x1FF2 JUMP JUMPDEST SWAP1 SWAP2 SSTORE POP POP PUSH1 0x3 SLOAD PUSH1 0xFF DUP3 AND PUSH1 0x0 SWAP1 DUP2 MSTORE PUSH1 0x10 PUSH1 0x20 MSTORE PUSH1 0x40 SWAP1 KECCAK256 SLOAD LT PUSH2 0x914 JUMPI PUSH1 0xC DUP1 SLOAD PUSH1 0x1 DUP2 ADD DUP3 SSTORE PUSH1 0x0 SWAP2 SWAP1 SWAP2 MSTORE PUSH1 0x20 DUP2 DIV PUSH32 0xDF6966C971051C3D54EC59162606531493A51404A002842F56009D7E5CF4A8C7 ADD DUP1 SLOAD PUSH1 0xFF DUP1 DUP6 AND PUSH1 0x1F SWAP1 SWAP5 AND PUSH2 0x100 EXP SWAP4 DUP5 MUL SWAP4 MUL NOT AND SWAP2 SWAP1 SWAP2 OR SWAP1 SSTORE POP JUMP JUMPDEST PUSH1 0xC DUP2 DUP2 SLOAD DUP2 LT PUSH2 0xCF0 JUMPI PUSH1 0x0 DUP1 REVERT JUMPDEST SWAP1 PUSH1 0x0 MSTORE PUSH1 0x20 PUSH1 0x0 KECCAK256 SWAP1 PUSH1 0x20 SWAP2 DUP3 DUP3 DIV ADD SWAP2 SWAP1 MOD SWAP2 POP SLOAD SWAP1 PUSH2 0x100 EXP SWAP1 DIV PUSH1 0xFF AND DUP2 JUMP JUMPDEST PUSH1 0x0 DUP1 JUMPDEST PUSH1 0xC SLOAD DUP2 LT ISZERO PUSH2 0xD6C JUMPI DUP3 PUSH1 0xC DUP3 DUP2 SLOAD DUP2 LT PUSH2 0xD36 JUMPI PUSH2 0xD36 PUSH2 0x200B JUMP JUMPDEST PUSH1 0x0 SWAP2 DUP3 MSTORE PUSH1 0x20 SWAP2 DUP3 SWAP1 KECCAK256 SWAP2 DUP2 DIV SWAP1 SWAP2 ADD SLOAD PUSH1 0xFF PUSH1 0x1F SWAP1 SWAP3 AND PUSH2 0x100 EXP SWAP1 DIV AND SUB PUSH2 0xD64 JUMPI POP PUSH1 0x1 SWAP3 SWAP2 POP POP JUMP JUMPDEST PUSH1 0x1 ADD PUSH2 0xD18 JUMP JUMPDEST POP PUSH1 0x0 SWAP3 SWAP2 POP POP JUMP JUMPDEST PUSH1 0xB DUP2 DUP2 SLOAD DUP2 LT PUSH2 0xD85 JUMPI PUSH1 0x0 DUP1 REVERT JUMPDEST PUSH1 0x0 SWAP2 DUP3 MSTORE PUSH1 0x20 SWAP1 SWAP2 KECCAK256 ADD SLOAD SWAP1 POP DUP2 JUMP JUMPDEST PUSH1 0x0 SLOAD PUSH2 0x100 SWAP1 DIV PUSH1 0xFF AND PUSH2 0xDB1 JUMPI PUSH1 0x0 SLOAD PUSH1 0xFF AND ISZERO PUSH2 0xDB5 JUMP JUMPDEST ADDRESS EXTCODESIZE ISZERO JUMPDEST PUSH2 0xE18 JUMPI PUSH1 0x40 MLOAD PUSH3 0x461BCD PUSH1 0xE5 SHL DUP2 MSTORE PUSH1 0x20 PUSH1 0x4 DUP3 ADD MSTORE PUSH1 0x2E PUSH1 0x24 DUP3 ADD MSTORE PUSH32 0x496E697469616C697A61626C653A20636F6E747261637420697320616C726561 PUSH1 0x44 DUP3 ADD MSTORE PUSH14 0x191E481A5B9A5D1A585B1A5E9959 PUSH1 0x92 SHL PUSH1 0x64 DUP3 ADD MSTORE PUSH1 0x84 ADD PUSH2 0x6EF JUMP JUMPDEST PUSH1 0x0 SLOAD PUSH2 0x100 SWAP1 DIV PUSH1 0xFF AND ISZERO DUP1 ISZERO PUSH2 0xE3A JUMPI PUSH1 0x0 DUP1 SLOAD PUSH2 0xFFFF NOT AND PUSH2 0x101 OR SWAP1 SSTORE JUMPDEST PUSH1 0x8 DUP1 SLOAD PUSH1 0x1E PUSH1 0x4 SSTORE PUSH1 0x3C PUSH1 0x1 SSTORE PUSH1 0x7 DUP1 SLOAD PUSH1 0x1 PUSH1 0x1 PUSH1 0xA0 SHL SUB NOT AND PUSH1 0x1 PUSH1 0x1 PUSH1 0xA0 SHL SUB DUP7 AND SWAP1 DUP2 OR SWAP1 SWAP2 SSTORE PUSH1 0x0 PUSH1 0x5 DUP2 SWAP1 SSTORE PUSH1 0x42 PUSH1 0x2 SSTORE PUSH1 0x1 PUSH1 0x1 PUSH1 0xA8 SHL SUB NOT SWAP1 SWAP3 AND OR PUSH1 0x1 PUSH1 0xA0 SHL OR SWAP1 SWAP2 SSTORE PUSH1 0x6 SSTORE DUP1 ISZERO PUSH2 0xE9D JUMPI PUSH1 0x0 DUP1 SLOAD PUSH2 0xFF00 NOT AND SWAP1 SSTORE JUMPDEST POP POP JUMP JUMPDEST PUSH1 0x9 SLOAD PUSH1 0x60 SWAP1 DUP3 GT ISZERO PUSH2 0xEF6 JUMPI PUSH1 0x40 MLOAD PUSH3 0x461BCD PUSH1 0xE5 SHL DUP2 MSTORE PUSH1 0x20 PUSH1 0x4 DUP3 ADD MSTORE PUSH1 0x1D PUSH1 0x24 DUP3 ADD MSTORE PUSH32 0x4E6F7420656E6F756768206163746976652076616C696461746F727321000000 PUSH1 0x44 DUP3 ADD MSTORE PUSH1 0x64 ADD PUSH2 0x6EF JUMP JUMPDEST PUSH1 0x0 DUP3 PUSH8 0xFFFFFFFFFFFFFFFF DUP2 GT ISZERO PUSH2 0xF11 JUMPI PUSH2 0xF11 PUSH2 0x1D13 JUMP JUMPDEST PUSH1 0x40 MLOAD SWAP1 DUP1 DUP3 MSTORE DUP1 PUSH1 0x20 MUL PUSH1 0x20 ADD DUP3 ADD PUSH1 0x40 MSTORE DUP1 ISZERO PUSH2 0xF3A JUMPI DUP2 PUSH1 0x20 ADD PUSH1 0x20 DUP3 MUL DUP1 CALLDATASIZE DUP4 CALLDATACOPY ADD SWAP1 POP JUMPDEST POP SWAP1 POP PUSH1 0x0 DUP1 JUMPDEST DUP5 DUP2 LT ISZERO PUSH2 0x1002 JUMPI PUSH1 0x9 SLOAD PUSH1 0x40 DUP1 MLOAD TIMESTAMP PUSH1 0x20 DUP3 ADD MSTORE CALLER SWAP2 DUP2 ADD SWAP2 SWAP1 SWAP2 MSTORE PUSH1 0x60 DUP2 ADD DUP4 SWAP1 MSTORE PUSH1 0x0 SWAP2 SWAP1 PUSH1 0x80 ADD PUSH1 0x40 MLOAD PUSH1 0x20 DUP2 DUP4 SUB SUB DUP2 MSTORE SWAP1 PUSH1 0x40 MSTORE DUP1 MLOAD SWAP1 PUSH1 0x20 ADD KECCAK256 PUSH1 0x0 SHR PUSH2 0xF8F SWAP2 SWAP1 PUSH2 0x2037 JUMP JUMPDEST SWAP1 POP PUSH1 0x9 DUP2 DUP2 SLOAD DUP2 LT PUSH2 0xFA4 JUMPI PUSH2 0xFA4 PUSH2 0x200B JUMP JUMPDEST SWAP1 PUSH1 0x0 MSTORE PUSH1 0x20 PUSH1 0x0 KECCAK256 ADD PUSH1 0x0 SWAP1 SLOAD SWAP1 PUSH2 0x100 EXP SWAP1 DIV PUSH1 0x1 PUSH1 0x1 PUSH1 0xA0 SHL SUB AND DUP5 DUP4 DUP2 MLOAD DUP2 LT PUSH2 0xFD4 JUMPI PUSH2 0xFD4 PUSH2 0x200B JUMP JUMPDEST PUSH1 0x1 PUSH1 0x1 PUSH1 0xA0 SHL SUB SWAP1 SWAP3 AND PUSH1 0x20 SWAP3 DUP4 MUL SWAP2 SWAP1 SWAP2 ADD SWAP1 SWAP2 ADD MSTORE DUP3 PUSH2 0xFF6 DUP2 PUSH2 0x1FF2 JUMP JUMPDEST SWAP4 POP POP POP PUSH1 0x1 ADD PUSH2 0xF41 JUMP JUMPDEST POP SWAP1 SWAP4 SWAP3 POP POP POP JUMP JUMPDEST PUSH1 0x0 DUP4 MLOAD DUP4 MLOAD EQ PUSH2 0x106D JUMPI PUSH1 0x40 MLOAD PUSH3 0x461BCD PUSH1 0xE5 SHL DUP2 MSTORE PUSH1 0x20 PUSH1 0x4 DUP3 ADD MSTORE PUSH1 0x26 PUSH1 0x24 DUP3 ADD MSTORE PUSH32 0x576F726B65727320616E642063617061636974696573206C656E677468206D69 PUSH1 0x44 DUP3 ADD MSTORE PUSH6 0xE6DAC2E8C6D PUSH1 0xD3 SHL PUSH1 0x64 DUP3 ADD MSTORE PUSH1 0x84 ADD PUSH2 0x6EF JUMP JUMPDEST DUP6 DUP6 DUP6 DUP6 DUP6 PUSH1 0x40 MLOAD PUSH1 0x20 ADD PUSH2 0x1086 SWAP6 SWAP5 SWAP4 SWAP3 SWAP2 SWAP1 PUSH2 0x207C JUMP JUMPDEST PUSH1 0x40 MLOAD PUSH1 0x20 DUP2 DUP4 SUB SUB DUP2 MSTORE SWAP1 PUSH1 0x40 MSTORE DUP1 MLOAD SWAP1 PUSH1 0x20 ADD KECCAK256 SWAP1 POP SWAP6 SWAP5 POP POP POP POP POP JUMP JUMPDEST PUSH1 0xA DUP2 DUP2 SLOAD DUP2 LT PUSH2 0x86A JUMPI PUSH1 0x0 DUP1 REVERT JUMPDEST PUSH1 0x8 SLOAD PUSH1 0x1 PUSH1 0x1 PUSH1 0xA0 SHL SUB AND CALLER EQ PUSH2 0x1120 JUMPI PUSH1 0x40 MLOAD PUSH3 0x461BCD PUSH1 0xE5 SHL DUP2 MSTORE PUSH1 0x20 PUSH1 0x4 DUP3 ADD MSTORE PUSH1 0x26 PUSH1 0x24 DUP3 ADD MSTORE PUSH32 0x43616C6C6572206D7573742062652074686520536D6172746E6F6465734D756C PUSH1 0x44 DUP3 ADD MSTORE PUSH6 0x3A34A9B4B397 PUSH1 0xD1 SHL PUSH1 0x64 DUP3 ADD MSTORE PUSH1 0x84 ADD PUSH2 0x6EF JUMP JUMPDEST PUSH1 0x2 PUSH1 0x1 PUSH1 0x0 DUP3 DUP3 SLOAD PUSH2 0x1133 SWAP2 SWAP1 PUSH2 0x2103 JUMP JUMPDEST SWAP1 SWAP2 SSTORE POP POP JUMP JUMPDEST CALLER PUSH1 0x0 SWAP1 DUP2 MSTORE PUSH1 0xD PUSH1 0x20 MSTORE PUSH1 0x40 SWAP1 KECCAK256 SLOAD PUSH1 0xFF AND PUSH2 0x1169 JUMPI PUSH1 0x40 MLOAD PUSH3 0x461BCD PUSH1 0xE5 SHL DUP2 MSTORE PUSH1 0x4 ADD PUSH2 0x6EF SWAP1 PUSH2 0x1F8B JUMP JUMPDEST CALLER PUSH1 0x0 SWAP1 DUP2 MSTORE PUSH1 0xE PUSH1 0x20 MSTORE PUSH1 0x40 SWAP1 KECCAK256 SLOAD PUSH1 0xFF AND DUP1 PUSH2 0x11C9 JUMPI PUSH1 0x40 MLOAD PUSH3 0x461BCD PUSH1 0xE5 SHL DUP2 MSTORE PUSH1 0x20 PUSH1 0x4 DUP3 ADD MSTORE PUSH1 0x1B PUSH1 0x24 DUP3 ADD MSTORE PUSH32 0x4D75737420626520612070726F706F73616C2063726561746F72210000000000 PUSH1 0x44 DUP3 ADD MSTORE PUSH1 0x64 ADD PUSH2 0x6EF JUMP JUMPDEST PUSH1 0x3 SLOAD PUSH1 0xFF DUP3 AND PUSH1 0x0 SWAP1 DUP2 MSTORE PUSH1 0x10 PUSH1 0x20 MSTORE PUSH1 0x40 SWAP1 KECCAK256 SLOAD LT ISZERO PUSH2 0x122D JUMPI PUSH1 0x40 MLOAD PUSH3 0x461BCD PUSH1 0xE5 SHL DUP2 MSTORE PUSH1 0x20 PUSH1 0x4 DUP3 ADD MSTORE PUSH1 0x1A PUSH1 0x24 DUP3 ADD MSTORE PUSH32 0x4E6F7420656E6F7567682070726F706F73616C20766F74657321000000000000 PUSH1 0x44 DUP3 ADD MSTORE PUSH1 0x64 ADD PUSH2 0x6EF JUMP JUMPDEST PUSH1 0x0 PUSH1 0xB PUSH2 0x123C PUSH1 0x1 DUP5 PUSH2 0x2117 JUMP JUMPDEST PUSH1 0xFF AND DUP2 SLOAD DUP2 LT PUSH2 0x124F JUMPI PUSH2 0x124F PUSH2 0x200B JUMP JUMPDEST SWAP1 PUSH1 0x0 MSTORE PUSH1 0x20 PUSH1 0x0 KECCAK256 ADD SLOAD SWAP1 POP PUSH1 0x0 PUSH2 0x126B DUP9 DUP9 DUP9 DUP9 DUP9 PUSH2 0x100B JUMP JUMPDEST SWAP1 POP DUP2 DUP2 EQ PUSH2 0x12CE JUMPI PUSH1 0x40 MLOAD PUSH3 0x461BCD PUSH1 0xE5 SHL DUP2 MSTORE PUSH1 0x20 PUSH1 0x4 DUP3 ADD MSTORE PUSH1 0x29 PUSH1 0x24 DUP3 ADD MSTORE PUSH32 0x50726F706F73616C206461746120646F65736E2774206D6174636820696E6974 PUSH1 0x44 DUP3 ADD MSTORE PUSH9 0x69616C206861736821 PUSH1 0xB8 SHL PUSH1 0x64 DUP3 ADD MSTORE PUSH1 0x84 ADD PUSH2 0x6EF JUMP JUMPDEST DUP8 MLOAD ISZERO PUSH2 0x130D JUMPI PUSH1 0x0 JUMPDEST DUP9 MLOAD DUP2 LT ISZERO PUSH2 0x130B JUMPI PUSH2 0x1303 DUP10 DUP3 DUP2 MLOAD DUP2 LT PUSH2 0x12F6 JUMPI PUSH2 0x12F6 PUSH2 0x200B JUMP JUMPDEST PUSH1 0x20 MUL PUSH1 0x20 ADD ADD MLOAD PUSH2 0x15CB JUMP JUMPDEST PUSH1 0x1 ADD PUSH2 0x12D8 JUMP JUMPDEST POP JUMPDEST DUP7 MLOAD PUSH1 0x0 SWAP1 ISZERO PUSH2 0x13CF JUMPI PUSH1 0x0 JUMPDEST DUP9 MLOAD DUP2 LT ISZERO PUSH2 0x13CD JUMPI PUSH1 0x7 SLOAD DUP10 MLOAD PUSH1 0x0 SWAP2 PUSH1 0x1 PUSH1 0x1 PUSH1 0xA0 SHL SUB AND SWAP1 PUSH4 0x991E0139 SWAP1 DUP13 SWAP1 DUP6 SWAP1 DUP2 LT PUSH2 0x134D JUMPI PUSH2 0x134D PUSH2 0x200B JUMP JUMPDEST PUSH1 0x20 MUL PUSH1 0x20 ADD ADD MLOAD PUSH1 0x40 MLOAD DUP3 PUSH4 0xFFFFFFFF AND PUSH1 0xE0 SHL DUP2 MSTORE PUSH1 0x4 ADD PUSH2 0x1373 SWAP2 DUP2 MSTORE PUSH1 0x20 ADD SWAP1 JUMP JUMPDEST PUSH1 0x20 PUSH1 0x40 MLOAD DUP1 DUP4 SUB DUP2 PUSH1 0x0 DUP8 GAS CALL ISZERO DUP1 ISZERO PUSH2 0x1392 JUMPI RETURNDATASIZE PUSH1 0x0 DUP1 RETURNDATACOPY RETURNDATASIZE PUSH1 0x0 REVERT JUMPDEST POP POP POP POP PUSH1 0x40 MLOAD RETURNDATASIZE PUSH1 0x1F NOT PUSH1 0x1F DUP3 ADD AND DUP3 ADD DUP1 PUSH1 0x40 MSTORE POP DUP2 ADD SWAP1 PUSH2 0x13B6 SWAP2 SWAP1 PUSH2 0x2130 JUMP JUMPDEST SWAP1 POP PUSH2 0x13C2 DUP2 DUP5 PUSH2 0x2149 JUMP JUMPDEST SWAP3 POP POP PUSH1 0x1 ADD PUSH2 0x131A JUMP JUMPDEST POP JUMPDEST PUSH1 0xFF DUP5 AND PUSH1 0x0 SWAP1 DUP2 MSTORE PUSH1 0x10 PUSH1 0x20 MSTORE PUSH1 0x40 DUP2 KECCAK256 SLOAD PUSH8 0xFFFFFFFFFFFFFFFF DUP2 GT ISZERO PUSH2 0x13FA JUMPI PUSH2 0x13FA PUSH2 0x1D13 JUMP JUMPDEST PUSH1 0x40 MLOAD SWAP1 DUP1 DUP3 MSTORE DUP1 PUSH1 0x20 MUL PUSH1 0x20 ADD DUP3 ADD PUSH1 0x40 MSTORE DUP1 ISZERO PUSH2 0x1423 JUMPI DUP2 PUSH1 0x20 ADD PUSH1 0x20 DUP3 MUL DUP1 CALLDATASIZE DUP4 CALLDATACOPY ADD SWAP1 POP JUMPDEST POP SWAP1 POP PUSH1 0x0 JUMPDEST PUSH1 0x9 SLOAD DUP2 LT ISZERO PUSH2 0x14B9 JUMPI PUSH1 0x0 PUSH1 0x9 DUP3 DUP2 SLOAD DUP2 LT PUSH2 0x1448 JUMPI PUSH2 0x1448 PUSH2 0x200B JUMP JUMPDEST PUSH1 0x0 SWAP2 DUP3 MSTORE PUSH1 0x20 DUP1 DUP4 KECCAK256 SWAP1 SWAP2 ADD SLOAD PUSH1 0x1 PUSH1 0x1 PUSH1 0xA0 SHL SUB AND DUP1 DUP4 MSTORE PUSH1 0xF SWAP1 SWAP2 MSTORE PUSH1 0x40 SWAP1 SWAP2 KECCAK256 SLOAD SWAP1 SWAP2 POP PUSH1 0xFF DUP1 DUP10 AND SWAP2 AND SUB PUSH2 0x14B0 JUMPI DUP1 DUP4 DUP4 DUP2 MLOAD DUP2 LT PUSH2 0x148F JUMPI PUSH2 0x148F PUSH2 0x200B JUMP JUMPDEST PUSH1 0x20 MUL PUSH1 0x20 ADD ADD SWAP1 PUSH1 0x1 PUSH1 0x1 PUSH1 0xA0 SHL SUB AND SWAP1 DUP2 PUSH1 0x1 PUSH1 0x1 PUSH1 0xA0 SHL SUB AND DUP2 MSTORE POP POP JUMPDEST POP PUSH1 0x1 ADD PUSH2 0x1429 JUMP JUMPDEST POP PUSH1 0x7 SLOAD PUSH1 0x40 MLOAD PUSH4 0xDC24911 PUSH1 0xE3 SHL DUP2 MSTORE PUSH1 0x1 PUSH1 0x1 PUSH1 0xA0 SHL SUB SWAP1 SWAP2 AND SWAP1 PUSH4 0x6E124888 SWAP1 PUSH2 0x14F2 SWAP1 DUP11 SWAP1 DUP13 SWAP1 DUP12 SWAP1 DUP8 SWAP1 DUP10 SWAP1 PUSH1 0x4 ADD PUSH2 0x215C JUMP JUMPDEST PUSH1 0x0 PUSH1 0x40 MLOAD DUP1 DUP4 SUB DUP2 PUSH1 0x0 DUP8 DUP1 EXTCODESIZE ISZERO DUP1 ISZERO PUSH2 0x150C JUMPI PUSH1 0x0 DUP1 REVERT JUMPDEST POP GAS CALL ISZERO DUP1 ISZERO PUSH2 0x1520 JUMPI RETURNDATASIZE PUSH1 0x0 DUP1 RETURNDATACOPY RETURNDATASIZE PUSH1 0x0 REVERT JUMPDEST POP POP PUSH1 0x6 SLOAD PUSH1 0x40 DUP1 MLOAD SWAP2 DUP3 MSTORE PUSH1 0x20 DUP3 ADD DUP8 SWAP1 MSTORE PUSH32 0x56A007D3EEA04BD347E571F3451382CB2A33EF5FD102B9A63846FF8D787F43CF SWAP4 POP ADD SWAP1 POP PUSH1 0x40 MLOAD DUP1 SWAP2 SUB SWAP1 LOG1 PUSH2 0x1569 PUSH2 0x17C2 JUMP JUMPDEST POP POP POP POP POP POP POP POP POP POP JUMP JUMPDEST PUSH1 0x0 DUP1 JUMPDEST PUSH1 0xA SLOAD DUP2 LT ISZERO PUSH2 0xD6C JUMPI DUP3 PUSH1 0x1 PUSH1 0x1 PUSH1 0xA0 SHL SUB AND PUSH1 0xA DUP3 DUP2 SLOAD DUP2 LT PUSH2 0x15A0 JUMPI PUSH2 0x15A0 PUSH2 0x200B JUMP JUMPDEST PUSH1 0x0 SWAP2 DUP3 MSTORE PUSH1 0x20 SWAP1 SWAP2 KECCAK256 ADD SLOAD PUSH1 0x1 PUSH1 0x1 PUSH1 0xA0 SHL SUB AND SUB PUSH2 0x15C3 JUMPI POP PUSH1 0x1 SWAP3 SWAP2 POP POP JUMP JUMPDEST PUSH1 0x1 ADD PUSH2 0x1579 JUMP JUMPDEST PUSH1 0x1 PUSH1 0x1 PUSH1 0xA0 SHL SUB DUP2 AND PUSH1 0x0 SWAP1 DUP2 MSTORE PUSH1 0xD PUSH1 0x20 MSTORE PUSH1 0x40 SWAP1 KECCAK256 SLOAD PUSH1 0xFF AND PUSH2 0x1633 JUMPI PUSH1 0x40 MLOAD PUSH3 0x461BCD PUSH1 0xE5 SHL DUP2 MSTORE PUSH1 0x20 PUSH1 0x4 DUP3 ADD MSTORE PUSH1 0x19 PUSH1 0x24 DUP3 ADD MSTORE PUSH32 0x56616C696461746F72206E6F7420726567697374657265642100000000000000 PUSH1 0x44 DUP3 ADD MSTORE PUSH1 0x64 ADD PUSH2 0x6EF JUMP JUMPDEST PUSH1 0x1 PUSH1 0x1 PUSH1 0xA0 SHL SUB DUP2 AND PUSH1 0x0 SWAP1 DUP2 MSTORE PUSH1 0xD PUSH1 0x20 MSTORE PUSH1 0x40 DUP2 KECCAK256 DUP1 SLOAD PUSH1 0xFF NOT AND SWAP1 SSTORE JUMPDEST PUSH1 0x9 SLOAD DUP2 LT ISZERO PUSH2 0x174F JUMPI DUP2 PUSH1 0x1 PUSH1 0x1 PUSH1 0xA0 SHL SUB AND PUSH1 0x9 DUP3 DUP2 SLOAD DUP2 LT PUSH2 0x167B JUMPI PUSH2 0x167B PUSH2 0x200B JUMP JUMPDEST PUSH1 0x0 SWAP2 DUP3 MSTORE PUSH1 0x20 SWAP1 SWAP2 KECCAK256 ADD SLOAD PUSH1 0x1 PUSH1 0x1 PUSH1 0xA0 SHL SUB AND SUB PUSH2 0x1747 JUMPI PUSH1 0x9 DUP1 SLOAD PUSH2 0x16A5 SWAP1 PUSH1 0x1 SWAP1 PUSH2 0x1F72 JUMP JUMPDEST DUP2 SLOAD DUP2 LT PUSH2 0x16B5 JUMPI PUSH2 0x16B5 PUSH2 0x200B JUMP JUMPDEST PUSH1 0x0 SWAP2 DUP3 MSTORE PUSH1 0x20 SWAP1 SWAP2 KECCAK256 ADD SLOAD PUSH1 0x9 DUP1 SLOAD PUSH1 0x1 PUSH1 0x1 PUSH1 0xA0 SHL SUB SWAP1 SWAP3 AND SWAP2 DUP4 SWAP1 DUP2 LT PUSH2 0x16E1 JUMPI PUSH2 0x16E1 PUSH2 0x200B JUMP JUMPDEST SWAP1 PUSH1 0x0 MSTORE PUSH1 0x20 PUSH1 0x0 KECCAK256 ADD PUSH1 0x0 PUSH2 0x100 EXP DUP2 SLOAD DUP2 PUSH1 0x1 PUSH1 0x1 PUSH1 0xA0 SHL SUB MUL NOT AND SWAP1 DUP4 PUSH1 0x1 PUSH1 0x1 PUSH1 0xA0 SHL SUB AND MUL OR SWAP1 SSTORE POP PUSH1 0x9 DUP1 SLOAD DUP1 PUSH2 0x1720 JUMPI PUSH2 0x1720 PUSH2 0x219B JUMP JUMPDEST PUSH1 0x0 DUP3 DUP2 MSTORE PUSH1 0x20 SWAP1 KECCAK256 DUP2 ADD PUSH1 0x0 NOT SWAP1 DUP2 ADD DUP1 SLOAD PUSH1 0x1 PUSH1 0x1 PUSH1 0xA0 SHL SUB NOT AND SWAP1 SSTORE ADD SWAP1 SSTORE PUSH2 0x174F JUMP JUMPDEST PUSH1 0x1 ADD PUSH2 0x1654 JUMP JUMPDEST POP PUSH2 0x1758 PUSH2 0x1791 JUMP JUMPDEST PUSH1 0x40 MLOAD PUSH1 0x1 PUSH1 0x1 PUSH1 0xA0 SHL SUB DUP3 AND DUP2 MSTORE PUSH32 0xE1434E25D6611E0DB941968FDC97811C982AC1602E951637D206F5FDDA9DD8F1 SWAP1 PUSH1 0x20 ADD PUSH2 0xB11 JUMP JUMPDEST PUSH1 0x2 SLOAD PUSH1 0x9 SLOAD PUSH1 0x64 SWAP2 PUSH2 0x17A3 SWAP2 PUSH2 0x21B1 JUMP JUMPDEST PUSH2 0x17AD SWAP2 SWAP1 PUSH2 0x2103 JUMP JUMPDEST PUSH1 0x3 DUP2 SWAP1 SSTORE PUSH1 0x1 GT ISZERO PUSH2 0x17C0 JUMPI PUSH1 0x1 PUSH1 0x3 SSTORE JUMPDEST JUMP JUMPDEST PUSH2 0x17CA PUSH2 0x1875 JUMP JUMPDEST PUSH1 0xB SLOAD ISZERO PUSH2 0x1812 JUMPI PUSH1 0xB DUP1 SLOAD PUSH1 0xFF AND PUSH1 0x0 SWAP1 DUP2 MSTORE PUSH1 0x10 PUSH1 0x20 MSTORE PUSH1 0x40 DUP2 KECCAK256 SSTORE DUP1 SLOAD DUP1 PUSH2 0x17F7 JUMPI PUSH2 0x17F7 PUSH2 0x219B JUMP JUMPDEST PUSH1 0x1 SWAP1 SUB DUP2 DUP2 SWAP1 PUSH1 0x0 MSTORE PUSH1 0x20 PUSH1 0x0 KECCAK256 ADD PUSH1 0x0 SWAP1 SSTORE SWAP1 SSTORE PUSH2 0x17CA JUMP JUMPDEST PUSH1 0xC SLOAD ISZERO PUSH2 0x185A JUMPI PUSH1 0xC DUP1 SLOAD DUP1 PUSH2 0x182B JUMPI PUSH2 0x182B PUSH2 0x219B JUMP JUMPDEST PUSH1 0x1 SWAP1 SUB DUP2 DUP2 SWAP1 PUSH1 0x0 MSTORE PUSH1 0x20 PUSH1 0x0 KECCAK256 SWAP1 PUSH1 0x20 SWAP2 DUP3 DUP3 DIV ADD SWAP2 SWAP1 MOD PUSH2 0x100 EXP DUP2 SLOAD SWAP1 PUSH1 0xFF MUL NOT AND SWAP1 SSTORE SWAP1 SSTORE PUSH2 0x1812 JUMP JUMPDEST TIMESTAMP PUSH1 0x5 SSTORE PUSH1 0x6 DUP1 SLOAD SWAP1 PUSH1 0x0 PUSH2 0x186E DUP4 PUSH2 0x1FF2 JUMP JUMPDEST SWAP2 SWAP1 POP SSTORE POP JUMP JUMPDEST PUSH1 0x0 JUMPDEST PUSH1 0xA SLOAD DUP2 LT ISZERO PUSH2 0x18DA JUMPI PUSH1 0x0 PUSH1 0xE PUSH1 0x0 PUSH1 0xA DUP5 DUP2 SLOAD DUP2 LT PUSH2 0x189B JUMPI PUSH2 0x189B PUSH2 0x200B JUMP JUMPDEST PUSH1 0x0 SWAP2 DUP3 MSTORE PUSH1 0x20 DUP1 DUP4 KECCAK256 SWAP2 SWAP1 SWAP2 ADD SLOAD PUSH1 0x1 PUSH1 0x1 PUSH1 0xA0 SHL SUB AND DUP4 MSTORE DUP3 ADD SWAP3 SWAP1 SWAP3 MSTORE PUSH1 0x40 ADD SWAP1 KECCAK256 DUP1 SLOAD PUSH1 0xFF NOT AND PUSH1 0xFF SWAP3 SWAP1 SWAP3 AND SWAP2 SWAP1 SWAP2 OR SWAP1 SSTORE PUSH1 0x1 ADD PUSH2 0x1878 JUMP JUMPDEST POP PUSH1 0x0 JUMPDEST PUSH1 0x9 SLOAD DUP2 LT ISZERO PUSH2 0x1940 JUMPI PUSH1 0x0 PUSH1 0xF PUSH1 0x0 PUSH1 0x9 DUP5 DUP2 SLOAD DUP2 LT PUSH2 0x1901 JUMPI PUSH2 0x1901 PUSH2 0x200B JUMP JUMPDEST PUSH1 0x0 SWAP2 DUP3 MSTORE PUSH1 0x20 DUP1 DUP4 KECCAK256 SWAP2 SWAP1 SWAP2 ADD SLOAD PUSH1 0x1 PUSH1 0x1 PUSH1 0xA0 SHL SUB AND DUP4 MSTORE DUP3 ADD SWAP3 SWAP1 SWAP3 MSTORE PUSH1 0x40 ADD SWAP1 KECCAK256 DUP1 SLOAD PUSH1 0xFF NOT AND PUSH1 0xFF SWAP3 SWAP1 SWAP3 AND SWAP2 SWAP1 SWAP2 OR SWAP1 SSTORE PUSH1 0x1 ADD PUSH2 0x18DE JUMP JUMPDEST POP PUSH1 0xA SLOAD PUSH1 0x0 SUB PUSH2 0x19B2 JUMPI PUSH1 0x0 JUMPDEST PUSH1 0x9 SLOAD DUP2 LT ISZERO PUSH2 0x19B0 JUMPI PUSH1 0x0 PUSH1 0xE PUSH1 0x0 PUSH1 0x9 DUP5 DUP2 SLOAD DUP2 LT PUSH2 0x1971 JUMPI PUSH2 0x1971 PUSH2 0x200B JUMP JUMPDEST PUSH1 0x0 SWAP2 DUP3 MSTORE PUSH1 0x20 DUP1 DUP4 KECCAK256 SWAP2 SWAP1 SWAP2 ADD SLOAD PUSH1 0x1 PUSH1 0x1 PUSH1 0xA0 SHL SUB AND DUP4 MSTORE DUP3 ADD SWAP3 SWAP1 SWAP3 MSTORE PUSH1 0x40 ADD SWAP1 KECCAK256 DUP1 SLOAD PUSH1 0xFF NOT AND PUSH1 0xFF SWAP3 SWAP1 SWAP3 AND SWAP2 SWAP1 SWAP2 OR SWAP1 SSTORE PUSH1 0x1 ADD PUSH2 0x194E JUMP JUMPDEST POP JUMPDEST PUSH2 0x19BE PUSH1 0xA PUSH1 0x0 PUSH2 0x1BEE JUMP JUMPDEST PUSH1 0x8 SLOAD PUSH1 0x9 SLOAD PUSH1 0x1 PUSH1 0xA0 SHL SWAP1 SWAP2 DIV PUSH1 0xFF AND GT ISZERO PUSH2 0x1A1D JUMPI PUSH1 0x40 MLOAD PUSH3 0x461BCD PUSH1 0xE5 SHL DUP2 MSTORE PUSH1 0x20 PUSH1 0x4 DUP3 ADD MSTORE PUSH1 0x1D PUSH1 0x24 DUP3 ADD MSTORE PUSH32 0x4E6F7420656E6F756768206163746976652076616C696461746F727321000000 PUSH1 0x44 DUP3 ADD MSTORE PUSH1 0x64 ADD PUSH2 0x6EF JUMP JUMPDEST PUSH1 0x8 SLOAD PUSH1 0x0 SWAP1 PUSH1 0x1 PUSH1 0xA0 SHL SWAP1 DIV PUSH1 0xFF AND PUSH8 0xFFFFFFFFFFFFFFFF DUP2 GT ISZERO PUSH2 0x1A45 JUMPI PUSH2 0x1A45 PUSH2 0x1D13 JUMP JUMPDEST PUSH1 0x40 MLOAD SWAP1 DUP1 DUP3 MSTORE DUP1 PUSH1 0x20 MUL PUSH1 0x20 ADD DUP3 ADD PUSH1 0x40 MSTORE DUP1 ISZERO PUSH2 0x1A6E JUMPI DUP2 PUSH1 0x20 ADD PUSH1 0x20 DUP3 MUL DUP1 CALLDATASIZE DUP4 CALLDATACOPY ADD SWAP1 POP JUMPDEST POP SWAP1 POP PUSH1 0x0 DUP1 JUMPDEST PUSH1 0x8 SLOAD PUSH1 0x1 PUSH1 0xA0 SHL SWAP1 DIV PUSH1 0xFF AND DUP3 LT ISZERO PUSH2 0x1BE9 JUMPI PUSH1 0x9 SLOAD PUSH1 0x40 DUP1 MLOAD TIMESTAMP PUSH1 0x20 DUP3 ADD MSTORE CALLER SWAP2 DUP2 ADD SWAP2 SWAP1 SWAP2 MSTORE PUSH1 0x60 DUP2 ADD DUP5 SWAP1 MSTORE PUSH1 0x80 DUP2 ADD DUP4 SWAP1 MSTORE PUSH1 0x0 SWAP2 SWAP1 PUSH1 0xA0 ADD PUSH1 0x40 MLOAD PUSH1 0x20 DUP2 DUP4 SUB SUB DUP2 MSTORE SWAP1 PUSH1 0x40 MSTORE DUP1 MLOAD SWAP1 PUSH1 0x20 ADD KECCAK256 PUSH1 0x0 SHR PUSH2 0x1AD6 SWAP2 SWAP1 PUSH2 0x2037 JUMP JUMPDEST SWAP1 POP PUSH1 0x0 PUSH1 0x9 DUP3 DUP2 SLOAD DUP2 LT PUSH2 0x1AED JUMPI PUSH2 0x1AED PUSH2 0x200B JUMP JUMPDEST PUSH1 0x0 SWAP2 DUP3 MSTORE PUSH1 0x20 DUP3 KECCAK256 ADD SLOAD PUSH1 0x1 PUSH1 0x1 PUSH1 0xA0 SHL SUB AND SWAP2 POP DUP1 JUMPDEST DUP6 DUP2 LT ISZERO PUSH2 0x1B50 JUMPI DUP3 PUSH1 0x1 PUSH1 0x1 PUSH1 0xA0 SHL SUB AND DUP8 DUP3 DUP2 MLOAD DUP2 LT PUSH2 0x1B29 JUMPI PUSH2 0x1B29 PUSH2 0x200B JUMP JUMPDEST PUSH1 0x20 MUL PUSH1 0x20 ADD ADD MLOAD PUSH1 0x1 PUSH1 0x1 PUSH1 0xA0 SHL SUB AND SUB PUSH2 0x1B48 JUMPI PUSH1 0x1 SWAP2 POP PUSH2 0x1B50 JUMP JUMPDEST PUSH1 0x1 ADD PUSH2 0x1B05 JUMP JUMPDEST POP DUP1 PUSH2 0x1BD4 JUMPI DUP2 DUP7 DUP7 DUP2 MLOAD DUP2 LT PUSH2 0x1B69 JUMPI PUSH2 0x1B69 PUSH2 0x200B JUMP JUMPDEST PUSH1 0x1 PUSH1 0x1 PUSH1 0xA0 SHL SUB SWAP3 DUP4 AND PUSH1 0x20 SWAP2 DUP3 MUL SWAP3 SWAP1 SWAP3 ADD ADD MSTORE PUSH1 0xA DUP1 SLOAD PUSH1 0x1 DUP2 ADD DUP3 SSTORE PUSH1 0x0 SWAP2 SWAP1 SWAP2 MSTORE PUSH32 0xC65A7BB8D6351C1CF70C95A316CC6A92839C986682D98BC35F958F4883F9D2A8 ADD DUP1 SLOAD PUSH1 0x1 PUSH1 0x1 PUSH1 0xA0 SHL SUB NOT AND SWAP2 DUP5 AND SWAP2 SWAP1 SWAP2 OR SWAP1 SSTORE DUP5 PUSH2 0x1BD0 DUP2 PUSH2 0x1FF2 JUMP JUMPDEST SWAP6 POP POP JUMPDEST DUP4 PUSH2 0x1BDE DUP2 PUSH2 0x1FF2 JUMP JUMPDEST SWAP5 POP POP POP POP POP PUSH2 0x1A75 JUMP JUMPDEST POP POP POP JUMP JUMPDEST POP DUP1 SLOAD PUSH1 0x0 DUP3 SSTORE SWAP1 PUSH1 0x0 MSTORE PUSH1 0x20 PUSH1 0x0 KECCAK256 SWAP1 DUP2 ADD SWAP1 PUSH2 0x914 SWAP2 SWAP1 JUMPDEST DUP1 DUP3 GT ISZERO PUSH2 0x1C1C JUMPI PUSH1 0x0 DUP2 SSTORE PUSH1 0x1 ADD PUSH2 0x1C08 JUMP JUMPDEST POP SWAP1 JUMP JUMPDEST DUP1 CALLDATALOAD PUSH1 0x1 PUSH1 0x1 PUSH1 0xA0 SHL SUB DUP2 AND DUP2 EQ PUSH2 0x1C37 JUMPI PUSH1 0x0 DUP1 REVERT JUMPDEST SWAP2 SWAP1 POP JUMP JUMPDEST PUSH1 0x0 PUSH1 0x20 DUP3 DUP5 SUB SLT ISZERO PUSH2 0x1C4E JUMPI PUSH1 0x0 DUP1 REVERT JUMPDEST PUSH2 0x1C57 DUP3 PUSH2 0x1C20 JUMP JUMPDEST SWAP4 SWAP3 POP POP POP JUMP JUMPDEST PUSH1 0x0 DUP2 MLOAD DUP1 DUP5 MSTORE PUSH1 0x20 DUP1 DUP6 ADD SWAP5 POP PUSH1 0x20 DUP5 ADD PUSH1 0x0 JUMPDEST DUP4 DUP2 LT ISZERO PUSH2 0x1C98 JUMPI DUP2 MLOAD PUSH1 0x1 PUSH1 0x1 PUSH1 0xA0 SHL SUB AND DUP8 MSTORE SWAP6 DUP3 ADD SWAP6 SWAP1 DUP3 ADD SWAP1 PUSH1 0x1 ADD PUSH2 0x1C73 JUMP JUMPDEST POP SWAP5 SWAP6 SWAP5 POP POP POP POP POP JUMP JUMPDEST DUP3 DUP2 MSTORE PUSH1 0x40 PUSH1 0x20 DUP3 ADD MSTORE PUSH1 0x0 PUSH2 0x1CBC PUSH1 0x40 DUP4 ADD DUP5 PUSH2 0x1C5E JUMP JUMPDEST SWAP5 SWAP4 POP POP POP POP JUMP JUMPDEST PUSH1 0x0 PUSH1 0x20 DUP3 DUP5 SUB SLT ISZERO PUSH2 0x1CD6 JUMPI PUSH1 0x0 DUP1 REVERT JUMPDEST POP CALLDATALOAD SWAP2 SWAP1 POP JUMP JUMPDEST PUSH1 0x0 PUSH1 0x20 DUP3 DUP5 SUB SLT ISZERO PUSH2 0x1CEF JUMPI PUSH1 0x0 DUP1 REVERT JUMPDEST DUP2 CALLDATALOAD PUSH1 0xFF DUP2 AND DUP2 EQ PUSH2 0x1C57 JUMPI PUSH1 0x0 DUP1 REVERT JUMPDEST PUSH1 0x20 DUP2 MSTORE PUSH1 0x0 PUSH2 0x1C57 PUSH1 0x20 DUP4 ADD DUP5 PUSH2 0x1C5E JUMP JUMPDEST PUSH4 0x4E487B71 PUSH1 0xE0 SHL PUSH1 0x0 MSTORE PUSH1 0x41 PUSH1 0x4 MSTORE PUSH1 0x24 PUSH1 0x0 REVERT JUMPDEST PUSH1 0x40 MLOAD PUSH1 0x1F DUP3 ADD PUSH1 0x1F NOT AND DUP2 ADD PUSH8 0xFFFFFFFFFFFFFFFF DUP2 GT DUP3 DUP3 LT OR ISZERO PUSH2 0x1D52 JUMPI PUSH2 0x1D52 PUSH2 0x1D13 JUMP JUMPDEST PUSH1 0x40 MSTORE SWAP2 SWAP1 POP JUMP JUMPDEST PUSH1 0x0 PUSH8 0xFFFFFFFFFFFFFFFF DUP3 GT ISZERO PUSH2 0x1D74 JUMPI PUSH2 0x1D74 PUSH2 0x1D13 JUMP JUMPDEST POP PUSH1 0x5 SHL PUSH1 0x20 ADD SWAP1 JUMP JUMPDEST PUSH1 0x0 DUP3 PUSH1 0x1F DUP4 ADD SLT PUSH2 0x1D8F JUMPI PUSH1 0x0 DUP1 REVERT JUMPDEST DUP2 CALLDATALOAD PUSH1 0x20 PUSH2 0x1DA4 PUSH2 0x1D9F DUP4 PUSH2 0x1D5A JUMP JUMPDEST PUSH2 0x1D29 JUMP JUMPDEST DUP1 DUP4 DUP3 MSTORE PUSH1 0x20 DUP3 ADD SWAP2 POP PUSH1 0x20 DUP5 PUSH1 0x5 SHL DUP8 ADD ADD SWAP4 POP DUP7 DUP5 GT ISZERO PUSH2 0x1DC6 JUMPI PUSH1 0x0 DUP1 REVERT JUMPDEST PUSH1 0x20 DUP7 ADD JUMPDEST DUP5 DUP2 LT ISZERO PUSH2 0x1DE9 JUMPI PUSH2 0x1DDC DUP2 PUSH2 0x1C20 JUMP JUMPDEST DUP4 MSTORE SWAP2 DUP4 ADD SWAP2 DUP4 ADD PUSH2 0x1DCB JUMP JUMPDEST POP SWAP7 SWAP6 POP POP POP POP POP POP JUMP JUMPDEST PUSH1 0x0 DUP3 PUSH1 0x1F DUP4 ADD SLT PUSH2 0x1E05 JUMPI PUSH1 0x0 DUP1 REVERT JUMPDEST DUP2 CALLDATALOAD PUSH1 0x20 PUSH2 0x1E15 PUSH2 0x1D9F DUP4 PUSH2 0x1D5A JUMP JUMPDEST DUP1 DUP4 DUP3 MSTORE PUSH1 0x20 DUP3 ADD SWAP2 POP PUSH1 0x20 DUP5 PUSH1 0x5 SHL DUP8 ADD ADD SWAP4 POP DUP7 DUP5 GT ISZERO PUSH2 0x1E37 JUMPI PUSH1 0x0 DUP1 REVERT JUMPDEST PUSH1 0x20 DUP7 ADD JUMPDEST DUP5 DUP2 LT ISZERO PUSH2 0x1DE9 JUMPI DUP1 CALLDATALOAD DUP4 MSTORE SWAP2 DUP4 ADD SWAP2 DUP4 ADD PUSH2 0x1E3C JUMP JUMPDEST PUSH1 0x0 DUP1 PUSH1 0x0 DUP1 PUSH1 0x0 PUSH1 0xA0 DUP7 DUP9 SUB SLT ISZERO PUSH2 0x1E6B JUMPI PUSH1 0x0 DUP1 REVERT JUMPDEST DUP6 CALLDATALOAD PUSH8 0xFFFFFFFFFFFFFFFF DUP1 DUP3 GT ISZERO PUSH2 0x1E83 JUMPI PUSH1 0x0 DUP1 REVERT JUMPDEST PUSH2 0x1E8F DUP10 DUP4 DUP11 ADD PUSH2 0x1D7E JUMP JUMPDEST SWAP7 POP PUSH1 0x20 SWAP2 POP DUP2 DUP9 ADD CALLDATALOAD DUP2 DUP2 GT ISZERO PUSH2 0x1EA6 JUMPI PUSH1 0x0 DUP1 REVERT JUMPDEST DUP9 ADD PUSH1 0x1F DUP2 ADD DUP11 SGT PUSH2 0x1EB7 JUMPI PUSH1 0x0 DUP1 REVERT JUMPDEST DUP1 CALLDATALOAD PUSH2 0x1EC5 PUSH2 0x1D9F DUP3 PUSH2 0x1D5A JUMP JUMPDEST DUP2 DUP2 MSTORE PUSH1 0x5 SWAP2 SWAP1 SWAP2 SHL DUP3 ADD DUP5 ADD SWAP1 DUP5 DUP2 ADD SWAP1 DUP13 DUP4 GT ISZERO PUSH2 0x1EE4 JUMPI PUSH1 0x0 DUP1 REVERT JUMPDEST SWAP3 DUP6 ADD SWAP3 JUMPDEST DUP3 DUP5 LT ISZERO PUSH2 0x1F02 JUMPI DUP4 CALLDATALOAD DUP3 MSTORE SWAP3 DUP6 ADD SWAP3 SWAP1 DUP6 ADD SWAP1 PUSH2 0x1EE9 JUMP JUMPDEST SWAP9 POP POP POP POP PUSH1 0x40 DUP9 ADD CALLDATALOAD SWAP2 POP DUP1 DUP3 GT ISZERO PUSH2 0x1F1B JUMPI PUSH1 0x0 DUP1 REVERT JUMPDEST PUSH2 0x1F27 DUP10 DUP4 DUP11 ADD PUSH2 0x1DF4 JUMP JUMPDEST SWAP5 POP PUSH1 0x60 DUP9 ADD CALLDATALOAD SWAP2 POP DUP1 DUP3 GT ISZERO PUSH2 0x1F3D JUMPI PUSH1 0x0 DUP1 REVERT JUMPDEST POP PUSH2 0x1F4A DUP9 DUP3 DUP10 ADD PUSH2 0x1D7E JUMP JUMPDEST SWAP6 SWAP9 SWAP5 SWAP8 POP SWAP3 SWAP6 PUSH1 0x80 ADD CALLDATALOAD SWAP4 SWAP3 POP POP POP JUMP JUMPDEST PUSH4 0x4E487B71 PUSH1 0xE0 SHL PUSH1 0x0 MSTORE PUSH1 0x11 PUSH1 0x4 MSTORE PUSH1 0x24 PUSH1 0x0 REVERT JUMPDEST DUP2 DUP2 SUB DUP2 DUP2 GT ISZERO PUSH2 0x1F85 JUMPI PUSH2 0x1F85 PUSH2 0x1F5C JUMP JUMPDEST SWAP3 SWAP2 POP POP JUMP JUMPDEST PUSH1 0x20 DUP1 DUP3 MSTORE PUSH1 0x25 SWAP1 DUP3 ADD MSTORE PUSH32 0x43616C6C6572206973206E6F74206120536D6172746E6F6465732056616C6964 PUSH1 0x40 DUP3 ADD MSTORE PUSH5 0x61746F7221 PUSH1 0xD8 SHL PUSH1 0x60 DUP3 ADD MSTORE PUSH1 0x80 ADD SWAP1 JUMP JUMPDEST PUSH1 0x0 PUSH1 0x20 DUP3 DUP5 SUB SLT ISZERO PUSH2 0x1FE2 JUMPI PUSH1 0x0 DUP1 REVERT JUMPDEST DUP2 MLOAD DUP1 ISZERO ISZERO DUP2 EQ PUSH2 0x1C57 JUMPI PUSH1 0x0 DUP1 REVERT JUMPDEST PUSH1 0x0 PUSH1 0x1 DUP3 ADD PUSH2 0x2004 JUMPI PUSH2 0x2004 PUSH2 0x1F5C JUMP JUMPDEST POP PUSH1 0x1 ADD SWAP1 JUMP JUMPDEST PUSH4 0x4E487B71 PUSH1 0xE0 SHL PUSH1 0x0 MSTORE PUSH1 0x32 PUSH1 0x4 MSTORE PUSH1 0x24 PUSH1 0x0 REVERT JUMPDEST PUSH4 0x4E487B71 PUSH1 0xE0 SHL PUSH1 0x0 MSTORE PUSH1 0x12 PUSH1 0x4 MSTORE PUSH1 0x24 PUSH1 0x0 REVERT JUMPDEST PUSH1 0x0 DUP3 PUSH2 0x2046 JUMPI PUSH2 0x2046 PUSH2 0x2021 JUMP JUMPDEST POP MOD SWAP1 JUMP JUMPDEST PUSH1 0x0 DUP2 MLOAD DUP1 DUP5 MSTORE PUSH1 0x20 DUP1 DUP6 ADD SWAP5 POP PUSH1 0x20 DUP5 ADD PUSH1 0x0 JUMPDEST DUP4 DUP2 LT ISZERO PUSH2 0x1C98 JUMPI DUP2 MLOAD DUP8 MSTORE SWAP6 DUP3 ADD SWAP6 SWAP1 DUP3 ADD SWAP1 PUSH1 0x1 ADD PUSH2 0x2060 JUMP JUMPDEST PUSH1 0xA0 DUP2 MSTORE PUSH1 0x0 PUSH2 0x208F PUSH1 0xA0 DUP4 ADD DUP9 PUSH2 0x1C5E JUMP JUMPDEST DUP3 DUP2 SUB PUSH1 0x20 DUP5 DUP2 ADD SWAP2 SWAP1 SWAP2 MSTORE DUP8 MLOAD DUP1 DUP4 MSTORE DUP9 DUP3 ADD SWAP3 DUP3 ADD SWAP1 PUSH1 0x0 JUMPDEST DUP2 DUP2 LT ISZERO PUSH2 0x20C6 JUMPI DUP5 MLOAD DUP4 MSTORE SWAP4 DUP4 ADD SWAP4 SWAP2 DUP4 ADD SWAP2 PUSH1 0x1 ADD PUSH2 0x20AA JUMP JUMPDEST POP POP DUP5 DUP2 SUB PUSH1 0x40 DUP7 ADD MSTORE PUSH2 0x20DA DUP2 DUP10 PUSH2 0x204B JUMP JUMPDEST SWAP3 POP POP POP DUP3 DUP2 SUB PUSH1 0x60 DUP5 ADD MSTORE PUSH2 0x20F0 DUP2 DUP7 PUSH2 0x1C5E JUMP JUMPDEST SWAP2 POP POP DUP3 PUSH1 0x80 DUP4 ADD MSTORE SWAP7 SWAP6 POP POP POP POP POP POP JUMP JUMPDEST PUSH1 0x0 DUP3 PUSH2 0x2112 JUMPI PUSH2 0x2112 PUSH2 0x2021 JUMP JUMPDEST POP DIV SWAP1 JUMP JUMPDEST PUSH1 0xFF DUP3 DUP2 AND DUP3 DUP3 AND SUB SWAP1 DUP2 GT ISZERO PUSH2 0x1F85 JUMPI PUSH2 0x1F85 PUSH2 0x1F5C JUMP JUMPDEST PUSH1 0x0 PUSH1 0x20 DUP3 DUP5 SUB SLT ISZERO PUSH2 0x2142 JUMPI PUSH1 0x0 DUP1 REVERT JUMPDEST POP MLOAD SWAP2 SWAP1 POP JUMP JUMPDEST DUP1 DUP3 ADD DUP1 DUP3 GT ISZERO PUSH2 0x1F85 JUMPI PUSH2 0x1F85 PUSH2 0x1F5C JUMP JUMPDEST PUSH1 0xA0 DUP2 MSTORE PUSH1 0x0 PUSH2 0x216F PUSH1 0xA0 DUP4 ADD DUP9 PUSH2 0x1C5E JUMP JUMPDEST DUP3 DUP2 SUB PUSH1 0x20 DUP5 ADD MSTORE PUSH2 0x2181 DUP2 DUP9 PUSH2 0x204B JUMP JUMPDEST SWAP1 POP DUP6 PUSH1 0x40 DUP5 ADD MSTORE DUP3 DUP2 SUB PUSH1 0x60 DUP5 ADD MSTORE PUSH2 0x20F0 DUP2 DUP7 PUSH2 0x1C5E JUMP JUMPDEST PUSH4 0x4E487B71 PUSH1 0xE0 SHL PUSH1 0x0 MSTORE PUSH1 0x31 PUSH1 0x4 MSTORE PUSH1 0x24 PUSH1 0x0 REVERT JUMPDEST DUP1 DUP3 MUL DUP2 ISZERO DUP3 DUP3 DIV DUP5 EQ OR PUSH2 0x1F85 JUMPI PUSH2 0x1F85 PUSH2 0x1F5C JUMP INVALID LOG2 PUSH5 0x6970667358 0x22 SLT KECCAK256 CALLDATACOPY ISZERO 0xB3 0xF9 DUP12 0xBD 0x2A ORIGIN SWAP9 DUP14 DUP6 ADDMOD PUSH6 0xAA149EFDEF48 0xD2 0xB4 DUP1 SWAP14 JUMPDEST DIV 0xDD 0xC3 0xEC GASPRICE CODESIZE 0xF7 0xAD PUSH5 0x736F6C6343 STOP ADDMOD NOT STOP CALLER ",
  "sha1": "95205aeb8b8980429b70e5e411a5d38cd44b3f4e",
  "source": "// SPDX-License-Identifier: MIT\npragma solidity ^0.8.5;\n\nimport \"@openzeppelin-upgradeable/contracts/proxy/utils/Initializable.sol\";\nimport \"@openzeppelin-upgradeable/contracts/interfaces/IERC20Upgradeable.sol\";\nimport \"./interfaces/ISmartnodesCore.sol\";\n\n/** \n    * @title SmartnodesMultiSig\n    * @dev A multi-signature contract composed of Smartnodes validators responsible for\n     managing the Core contract\n*/\ncontract SmartnodesMultiSig is Initializable {\n    // State update constraints\n    uint256 public updateTime = 60; // 60 minutes minimum required between state updates\n    uint256 public requiredApprovalsPercentage;\n    uint256 public requiredApprovals;\n    uint256 public maxStateUpdates; // Maximum number of function calls per proposal\n    uint256 public lastProposalTime; // time of last proposal\n    uint256 public nextProposalId;\n\n    // Metadata and bytecode for SmartNodes calls\n    ISmartnodesCore private _smartnodesContractInstance;\n    address public smartnodesContractAddress;\n\n    // Counters for storage indexing / IDs\n    uint8 public nValidators;\n    address[] public validators;\n    address[] public currentRoundValidators;\n    bytes32[] public currentProposals;\n    uint8[] public readyProposals;\n\n    mapping(address => bool) public isValidator;\n    mapping(address => uint8) public hasSubmittedProposal;\n    mapping(address => uint8) public hasVoted;\n    mapping(uint8 => uint256) public proposalVotes;\n\n    event ProposalExecuted(uint256 proposalId, bytes32 proposalHash);\n    event Deposit(address indexed sender, uint amount);\n    event ValidatorAdded(address validator);\n    event ValidatorRemoved(address validator);\n\n    modifier onlyValidator() {\n        require(\n            isValidator[msg.sender],\n            \"Caller is not a Smartnodes Validator!\"\n        );\n        _;\n    }\n\n    modifier onlySmartnodesCore() {\n        require(\n            msg.sender == smartnodesContractAddress,\n            \"Caller must be the SmartnodesMultiSig.\"\n        );\n        _;\n    }\n\n    modifier onlySelectedValidator() {\n        require(\n            _isCurrentRoundValidator(msg.sender) ||\n                currentRoundValidators.length == 0,\n            \"Caller is not a selected validator for this round!\"\n        );\n        require(\n            hasSubmittedProposal[msg.sender] == 0,\n            \"Validator has already submitted a proposal this round!\"\n        );\n        _;\n    }\n\n    function initialize(\n        address target // Address of the main contract (Smart Nodes)\n    )\n        public\n        // address _vrfCoordinator,\n        // uint64 _subscriptionId\n        initializer\n    {\n        smartnodesContractAddress = target;\n\n        maxStateUpdates = 30;\n        updateTime = 60;\n\n        _smartnodesContractInstance = ISmartnodesCore(target);\n\n        lastProposalTime = 0; // time of last proposal\n        requiredApprovalsPercentage = 66;\n        nValidators = 1;\n        nextProposalId = 0;\n    }\n\n    receive() external payable {\n        emit Deposit(msg.sender, msg.value);\n    }\n\n    /**\n     * @notice Creates a new proposal, to update all the essential data structures given some aggregated off-chain state.\n     */\n    function createProposal(\n        bytes32 proposalHash\n    ) external onlySelectedValidator {\n        require(\n            block.timestamp - lastProposalTime >= updateTime,\n            \"Proposals must be submitted 0-10 mins after last executed proposal!\"\n        );\n\n        currentProposals.push(proposalHash);\n        uint8 proposalNum = uint8(currentProposals.length);\n        hasSubmittedProposal[msg.sender] = proposalNum;\n    }\n\n    /**\n     * @notice Casts a vote for a proposal and executes once required approvals are met. Add Validator to storage\n      if it has just registered and is not stored on MultiSig. \n     * @param proposalNum The ID of the current round proposal\n     */\n    function approveTransaction(uint8 proposalNum) external onlyValidator {\n        require(hasVoted[msg.sender] == 0, \"Validator has already voted!\");\n        require(\n            currentProposals.length >= proposalNum && proposalNum > 0,\n            \"Invalid proposal number!\"\n        );\n\n        if (isValidator[msg.sender] == false) {\n            addValidator(msg.sender);\n        }\n\n        hasVoted[msg.sender] = proposalNum;\n        proposalVotes[proposalNum]++;\n\n        if (proposalVotes[proposalNum] >= requiredApprovals) {\n            readyProposals.push(proposalNum);\n        }\n    }\n\n    /**\n     * @notice Executes a proposal if it has enough approvals. Only to be called by approveTransaction\n     */\n    function executeProposal(\n        address[] memory validatorsToRemove,\n        bytes32[] memory jobHashes,\n        uint256[] memory jobCapacities,\n        address[] memory workers,\n        uint256 totalCapacity\n    ) external onlyValidator {\n        uint8 proposalNum = hasSubmittedProposal[msg.sender];\n        require(proposalNum > 0, \"Must be a proposal creator!\");\n        require(\n            proposalVotes[proposalNum] >= requiredApprovals,\n            \"Not enough proposal votes!\"\n        );\n\n        bytes32 providedHash = currentProposals[proposalNum - 1];\n        bytes32 proposalHash = hashProposalData(\n            validatorsToRemove,\n            jobHashes,\n            jobCapacities,\n            workers,\n            totalCapacity\n        );\n        require(\n            proposalHash == providedHash,\n            \"Proposal data doesn't match initial hash!\"\n        );\n\n        if (validatorsToRemove.length > 0) {\n            for (uint i = 0; i < validatorsToRemove.length; i++) {\n                _removeValidator(validatorsToRemove[i]);\n            }\n        }\n\n        uint256 additionalReward = 0;\n\n        if (jobHashes.length > 0) {\n            for (uint i = 0; i < jobHashes.length; i++) {\n                uint256 reward = _smartnodesContractInstance.completeJob(\n                    jobHashes[i]\n                );\n                additionalReward += reward;\n            }\n        }\n\n        address[] memory _approvedValidators = new address[](\n            proposalVotes[proposalNum]\n        );\n\n        for (uint i = 0; i < validators.length; i++) {\n            address validator = validators[i];\n\n            if (hasVoted[validator] == proposalNum) {\n                _approvedValidators[i] = validator;\n            }\n        }\n\n        // Call mint function to generate rewards for workers and validators\n        _smartnodesContractInstance.mintTokens(\n            workers,\n            jobCapacities,\n            totalCapacity,\n            _approvedValidators,\n            additionalReward\n        );\n\n        emit ProposalExecuted(nextProposalId, proposalHash);\n        _updateRound();\n    }\n\n    function hashProposalData(\n        address[] memory validatorsToRemove,\n        bytes32[] memory jobHashes,\n        uint256[] memory jobCapacities,\n        address[] memory workers,\n        uint256 totalCapacity\n    ) public pure returns (bytes32) {\n        require(\n            workers.length == jobCapacities.length,\n            \"Workers and capacities length mismatch\"\n        );\n\n        return\n            keccak256(\n                abi.encode(\n                    validatorsToRemove,\n                    jobHashes,\n                    jobCapacities,\n                    workers,\n                    totalCapacity\n                )\n            );\n    }\n\n    /**\n     * @notice Adds a new validator to the contract, must be staked on SmartnodesCore.\n     * @param validator The address of the new validator\n     */\n    function addValidator(address validator) public {\n        require(\n            _smartnodesContractInstance.isLocked(validator),\n            \"Validator must be registered and locked on SmartnodesCore!\"\n        );\n        require(\n            !isValidator[validator],\n            \"Validator already registered on Multsig!\"\n        );\n\n        validators.push(validator);\n        isValidator[validator] = true;\n        _updateApprovalRequirements();\n\n        emit ValidatorAdded(validator);\n    }\n\n    function removeValidator(address validator) external onlyValidator {\n        require(msg.sender == validator, \"Cannot remove another validator!\");\n        _removeValidator(validator);\n    }\n\n    /**\n     * @dev Update the number of required approvals (66% of the active validators)\n     */\n    function _updateApprovalRequirements() internal {\n        requiredApprovals =\n            (validators.length * requiredApprovalsPercentage) /\n            100;\n\n        if (requiredApprovals < 1) {\n            requiredApprovals = 1; // Ensure at least 1 approval is required\n        }\n    }\n\n    function _removeValidator(address validator) private {\n        require(isValidator[validator], \"Validator not registered!\");\n        isValidator[validator] = false;\n\n        for (uint i = 0; i < validators.length; i++) {\n            if (validators[i] == validator) {\n                validators[i] = validators[validators.length - 1];\n                validators.pop();\n                break;\n            }\n        }\n\n        _updateApprovalRequirements();\n        emit ValidatorRemoved(validator);\n    }\n\n    function _isCurrentRoundValidator(\n        address _validator\n    ) internal view returns (bool) {\n        for (uint i = 0; i < currentRoundValidators.length; i++) {\n            if (currentRoundValidators[i] == _validator) {\n                return true;\n            }\n        }\n        return false;\n    }\n\n    function _updateRound() internal {\n        _resetCurrentValidators();\n\n        while (currentProposals.length > 0) {\n            proposalVotes[uint8(currentProposals.length)] = 0;\n            currentProposals.pop();\n        }\n\n        while (readyProposals.length > 0) {\n            readyProposals.pop();\n        }\n\n        lastProposalTime = block.timestamp;\n        nextProposalId++;\n    }\n\n    function _resetCurrentValidators() internal {\n        // Clear submission status and other parameters\n        for (uint256 i = 0; i < currentRoundValidators.length; i++) {\n            hasSubmittedProposal[currentRoundValidators[i]] = 0;\n        }\n\n        for (uint256 i = 0; i < validators.length; i++) {\n            hasVoted[validators[i]] = 0;\n        }\n\n        // If it's the genesis proposal and no round validators exist\n        if (currentRoundValidators.length == 0) {\n            for (uint256 i = 0; i < validators.length; i++) {\n                hasSubmittedProposal[validators[i]] = 0;\n            }\n        }\n\n        delete currentRoundValidators;\n\n        require(\n            validators.length >= nValidators,\n            \"Not enough active validators!\"\n        );\n\n        // Create a temporary array to store selected validators\n        address[] memory selectedValidators = new address[](nValidators);\n        uint256 selectedCount = 0;\n        uint nonce = 0;\n\n        while (selectedCount < nValidators) {\n            uint256 randId = uint256(\n                keccak256(\n                    abi.encode(\n                        block.timestamp,\n                        msg.sender,\n                        selectedCount,\n                        nonce\n                    )\n                )\n            ) % validators.length;\n\n            address selectedValidator = validators[randId];\n\n            // Check if the validator is already selected\n            bool alreadySelected = false;\n            for (uint256 j = 0; j < selectedCount; j++) {\n                if (selectedValidators[j] == selectedValidator) {\n                    alreadySelected = true;\n                    break;\n                }\n            }\n\n            // If not selected, add to the current round and increment counter\n            if (!alreadySelected) {\n                selectedValidators[selectedCount] = selectedValidator;\n                currentRoundValidators.push(selectedValidator);\n                selectedCount++;\n            }\n\n            nonce++;\n        }\n    }\n\n    function generateValidators(\n        uint256 numValidators\n    ) external view returns (address[] memory) {\n        require(\n            validators.length >= numValidators,\n            \"Not enough active validators!\"\n        );\n\n        address[] memory selectedValidators = new address[](numValidators);\n        uint256 selectedCount = 0;\n\n        for (uint256 i = 0; i < numValidators; i++) {\n            uint256 randId = uint256(\n                keccak256(abi.encode(block.timestamp, msg.sender, i))\n            ) % validators.length;\n\n            selectedValidators[i] = validators[randId];\n            selectedCount++;\n        }\n\n        return selectedValidators;\n    }\n\n    function halvePeriod() external onlySmartnodesCore {\n        updateTime /= 2;\n    }\n\n    function getNumValidators() external view returns (uint256) {\n        return validators.length;\n    }\n\n    function isActiveValidator(\n        address _validatorAddress\n    ) external view returns (bool) {\n        return isValidator[_validatorAddress];\n    }\n\n    // function getCurrentProposal(\n    //     uint8 proposalNum\n    // ) external view returns (RemoveValidator[] memory, CompleteJob[] memory) {\n    //     require(proposalNum < currentProposals.length, \"Proposal not found!\");\n    //     return (\n    //         currentProposals[proposalNum].validatorRemovals,\n    //         currentProposals[proposalNum].jobCompletions\n    //     );\n    // }\n\n    // Get basic info on the current state of the validator multisig\n    function getState() external view returns (uint256, address[] memory) {\n        return (nextProposalId, currentRoundValidators);\n    }\n\n    function isProposalReady(\n        uint256 proposalNumber\n    ) external view returns (bool) {\n        for (uint i = 0; i < readyProposals.length; i++) {\n            if (readyProposals[i] == proposalNumber) {\n                return true;\n            }\n        }\n\n        return false;\n    }\n}\n",
  "sourcePath": "contracts/SmartnodesMultiSig.sol",
  "type": "contract"
}