{"abi":[{"type":"constructor","inputs":[{"name":"_updateTime","type":"uint128","internalType":"uint128"},{"name":"_requiredApprovalsPercentage","type":"uint8","internalType":"uint8"},{"name":"_smartnodesCore","type":"address","internalType":"address"},{"name":"_genesisNodes","type":"address[]","internalType":"address[]"}],"stateMutability":"nonpayable"},{"type":"function","name":"addValidator","inputs":[],"outputs":[],"stateMutability":"nonpayable"},{"type":"function","name":"createProposal","inputs":[{"name":"proposalHash","type":"bytes32","internalType":"bytes32"}],"outputs":[],"stateMutability":"nonpayable"},{"type":"function","name":"currentProposals","inputs":[{"name":"","type":"uint256","internalType":"uint256"}],"outputs":[{"name":"creator","type":"address","internalType":"address"},{"name":"proposalNum","type":"uint8","internalType":"uint8"},{"name":"votes","type":"uint32","internalType":"uint32"},{"name":"proposalHash","type":"bytes32","internalType":"bytes32"}],"stateMutability":"view"},{"type":"function","name":"currentRoundNumber","inputs":[],"outputs":[{"name":"","type":"uint256","internalType":"uint256"}],"stateMutability":"view"},{"type":"function","name":"currentRoundValidators","inputs":[{"name":"","type":"uint256","internalType":"uint256"}],"outputs":[{"name":"","type":"address","internalType":"address"}],"stateMutability":"view"},{"type":"function","name":"executeProposal","inputs":[{"name":"proposalId","type":"uint8","internalType":"uint8"},{"name":"merkleRoot","type":"bytes32","internalType":"bytes32"},{"name":"totalCapacity","type":"uint256","internalType":"uint256"},{"name":"validatorsToRemove","type":"address[]","internalType":"address[]"},{"name":"jobHashes","type":"bytes32[]","internalType":"bytes32[]"},{"name":"workersHash","type":"bytes32","internalType":"bytes32"},{"name":"capacitiesHash","type":"bytes32","internalType":"bytes32"}],"outputs":[],"stateMutability":"nonpayable"},{"type":"function","name":"getCurrentProposals","inputs":[],"outputs":[{"name":"","type":"tuple[]","internalType":"struct SmartnodesCoordinator.Proposal[]","components":[{"name":"creator","type":"address","internalType":"address"},{"name":"proposalNum","type":"uint8","internalType":"uint8"},{"name":"votes","type":"uint32","internalType":"uint32"},{"name":"proposalHash","type":"bytes32","internalType":"bytes32"}]}],"stateMutability":"view"},{"type":"function","name":"getCurrentRoundInfo","inputs":[],"outputs":[{"name":"roundNumber","type":"uint256","internalType":"uint256"},{"name":"selectedValidatorCount","type":"uint256","internalType":"uint256"},{"name":"requiredValidatorCount","type":"uint256","internalType":"uint256"},{"name":"requiredVotes","type":"uint256","internalType":"uint256"}],"stateMutability":"view"},{"type":"function","name":"getCurrentRoundValidators","inputs":[],"outputs":[{"name":"","type":"address[]","internalType":"address[]"}],"stateMutability":"view"},{"type":"function","name":"getNumProposals","inputs":[],"outputs":[{"name":"","type":"uint8","internalType":"uint8"}],"stateMutability":"view"},{"type":"function","name":"getProposal","inputs":[{"name":"proposalId","type":"uint8","internalType":"uint8"}],"outputs":[{"name":"","type":"tuple","internalType":"struct SmartnodesCoordinator.Proposal","components":[{"name":"creator","type":"address","internalType":"address"},{"name":"proposalNum","type":"uint8","internalType":"uint8"},{"name":"votes","type":"uint32","internalType":"uint32"},{"name":"proposalHash","type":"bytes32","internalType":"bytes32"}]}],"stateMutability":"view"},{"type":"function","name":"getRequiredApprovals","inputs":[],"outputs":[{"name":"","type":"uint256","internalType":"uint256"}],"stateMutability":"view"},{"type":"function","name":"getState","inputs":[],"outputs":[{"name":"proposalId","type":"uint256","internalType":"uint256"},{"name":"executionTime","type":"uint256","internalType":"uint256"},{"name":"roundValidators","type":"address[]","internalType":"address[]"}],"stateMutability":"view"},{"type":"function","name":"getValidatorActivity","inputs":[{"name":"validator","type":"address","internalType":"address"}],"outputs":[{"name":"lastActiveRound","type":"uint256","internalType":"uint256"},{"name":"isCurrentlySelected","type":"bool","internalType":"bool"}],"stateMutability":"view"},{"type":"function","name":"getValidatorCount","inputs":[],"outputs":[{"name":"","type":"uint256","internalType":"uint256"}],"stateMutability":"view"},{"type":"function","name":"getValidators","inputs":[],"outputs":[{"name":"","type":"address[]","internalType":"address[]"}],"stateMutability":"view"},{"type":"function","name":"halfStateTime","inputs":[],"outputs":[],"stateMutability":"nonpayable"},{"type":"function","name":"hasSubmittedProposal","inputs":[{"name":"","type":"address","internalType":"address"}],"outputs":[{"name":"","type":"uint8","internalType":"uint8"}],"stateMutability":"view"},{"type":"function","name":"isProposalReady","inputs":[{"name":"proposalId","type":"uint8","internalType":"uint8"}],"outputs":[{"name":"","type":"bool","internalType":"bool"}],"stateMutability":"view"},{"type":"function","name":"isRoundExpired","inputs":[],"outputs":[{"name":"","type":"bool","internalType":"bool"}],"stateMutability":"view"},{"type":"function","name":"isValidator","inputs":[{"name":"","type":"address","internalType":"address"}],"outputs":[{"name":"","type":"bool","internalType":"bool"}],"stateMutability":"view"},{"type":"function","name":"nextProposalId","inputs":[],"outputs":[{"name":"","type":"uint256","internalType":"uint256"}],"stateMutability":"view"},{"type":"function","name":"removeValidator","inputs":[],"outputs":[],"stateMutability":"nonpayable"},{"type":"function","name":"timeConfig","inputs":[],"outputs":[{"name":"updateTime","type":"uint128","internalType":"uint128"},{"name":"lastExecutionTime","type":"uint128","internalType":"uint128"}],"stateMutability":"view"},{"type":"function","name":"validatorLastActiveRound","inputs":[{"name":"","type":"address","internalType":"address"}],"outputs":[{"name":"","type":"uint256","internalType":"uint256"}],"stateMutability":"view"},{"type":"function","name":"validatorVote","inputs":[{"name":"","type":"address","internalType":"address"}],"outputs":[{"name":"","type":"uint256","internalType":"uint256"}],"stateMutability":"view"},{"type":"function","name":"validators","inputs":[{"name":"","type":"uint256","internalType":"uint256"}],"outputs":[{"name":"","type":"address","internalType":"address"}],"stateMutability":"view"},{"type":"function","name":"voteForProposal","inputs":[{"name":"proposalId","type":"uint8","internalType":"uint8"}],"outputs":[],"stateMutability":"nonpayable"},{"type":"event","name":"ConfigUpdated","inputs":[{"name":"updateTime","type":"uint256","indexed":false,"internalType":"uint256"}],"anonymous":false},{"type":"event","name":"NewRoundStarted","inputs":[{"name":"roundNumber","type":"uint256","indexed":true,"internalType":"uint256"},{"name":"selectedValidators","type":"address[]","indexed":false,"internalType":"address[]"}],"anonymous":false},{"type":"event","name":"ProposalCreated","inputs":[{"name":"proposalId","type":"uint256","indexed":true,"internalType":"uint256"},{"name":"proposalHash","type":"bytes32","indexed":true,"internalType":"bytes32"},{"name":"creator","type":"address","indexed":true,"internalType":"address"}],"anonymous":false},{"type":"event","name":"ProposalExecuted","inputs":[{"name":"proposalId","type":"uint256","indexed":true,"internalType":"uint256"},{"name":"proposalHash","type":"bytes32","indexed":true,"internalType":"bytes32"}],"anonymous":false},{"type":"event","name":"ValidatorAdded","inputs":[{"name":"validator","type":"address","indexed":true,"internalType":"address"}],"anonymous":false},{"type":"event","name":"ValidatorRemoved","inputs":[{"name":"validator","type":"address","indexed":true,"internalType":"address"}],"anonymous":false},{"type":"error","name":"Coordinator__AlreadySubmittedProposal","inputs":[]},{"type":"error","name":"Coordinator__AlreadyVoted","inputs":[]},{"type":"error","name":"Coordinator__InvalidAddress","inputs":[]},{"type":"error","name":"Coordinator__InvalidApprovalPercentage","inputs":[]},{"type":"error","name":"Coordinator__InvalidProposalNumber","inputs":[]},{"type":"error","name":"Coordinator__MustBeProposalCreator","inputs":[]},{"type":"error","name":"Coordinator__NotCoreContract","inputs":[]},{"type":"error","name":"Coordinator__NotEligibleValidator","inputs":[]},{"type":"error","name":"Coordinator__NotEnoughActiveValidators","inputs":[]},{"type":"error","name":"Coordinator__NotEnoughVotes","inputs":[]},{"type":"error","name":"Coordinator__NotValidator","inputs":[]},{"type":"error","name":"Coordinator__ProposalDataMismatch","inputs":[]},{"type":"error","name":"Coordinator__ProposalTooEarly","inputs":[]},{"type":"error","name":"Coordinator__ValidatorAlreadyExists","inputs":[]},{"type":"error","name":"Coordinator__ValidatorNotRegistered","inputs":[]},{"type":"error","name":"ReentrancyGuardReentrantCall","inputs":[]}],"bytecode":{"object":"0x60c0604090808252346200037b57620025b68038038091620000228285620003f8565b833981016080916080818303126200037b5780516001600160801b03811692908390036200037b57602091828101519060ff9560ff8316968784036200037b576200006f8984016200041c565b96606084015160018060401b03948582116200037b57019486601f870112156200037b57855196620000a18862000431565b96620000b08d519889620003f8565b888852898801908a829a60051b8201019283116200037b578a809101915b838310620003dd57505050506001998a5f558015908115620003d1575b50620003c0576001600160a01b039889168015620003af5760805260a0528951808b01948511818610176200039b57875f918b968d9b999a9b5283815201528355825f905b620001e2575b505050600a558551928391858301956080840191428852448a8601526060808601525180925260a0840192945f905b89848310620001c657505050505062000188925003601f198101835282620003f8565b519020600b556200019862000551565b60025551611c5d90816200095982396080518181816101a601528181610576015261099b015260a051815050f35b8751821686529683019688965094830194919091019062000165565b849796959751811015620003915787620001fd828762000449565b511662000212575b8301839795969762000130565b909192508662000223828662000449565b5116878451168a5190637ad9028f60e01b8252818981600493868583015260249586915afa90811562000387575f9162000346575b50156200033857825f52600691828a52858d5f20541662000329576003908154926801000000000000000084101562000318578d8401808455841015620003075750505f90815289812090910180546001600160a01b031916841790558281529088528a8120805460ff19168b179055600a54600989528b82205589949392859290917fe366c1c0452ed8eec96861e9e54141ebff23c9ec89fe27b996b45f5ec38849879080a2905062000205565b603290634e487b7160e01b5f52525ffd5b604190634e487b7160e01b5f52525ffd5b508b5163028de34960e31b8152fd5b8b51631c6a4ddd60e01b8152fd5b90508981813d83116200037f575b620003608183620003f8565b810103126200037b575180151581036200037b575f62000258565b5f80fd5b503d62000354565b8d513d5f823e3d90fd5b9694959662000136565b634e487b7160e01b5f52604160045260245ffd5b8b51630af8bce760e31b8152600490fd5b8a51630c6698b360e21b8152600490fd5b60649150115f620000eb565b8190620003ea846200041c565b8152019101908a90620000ce565b601f909101601f19168101906001600160401b038211908210176200039b57604052565b51906001600160a01b03821682036200037b57565b6001600160401b0381116200039b5760051b60200190565b80518210156200045e5760209160051b010190565b634e487b7160e01b5f52603260045260245ffd5b600454680100000000000000008110156200039b5760018101806004558110156200045e5760045f527f8a35acfbc15ff81a39ae7d344fd709f28e8600b4aa8c65c6b64bfe7fe36bd19b0180546001600160a01b0319166001600160a01b03909216919091179055565b6004545f60045580620004ec5750565b60045f527f8a35acfbc15ff81a39ae7d344fd709f28e8600b4aa8c65c6b64bfe7fe36bd19b908101905b81811062000522575050565b5f815560010162000516565b5f1981146200053d5760010190565b634e487b7160e01b5f52601160045260245ffd5b6003805490811562000908576200056762000916565b91828110620008ff575b6200057b620004dc565b620005868162000431565b936040946200059886519182620003f8565b828152620005a68362000431565b60209490601f190136838701376003545f5b858110620008cb57505050600b8054600a54915f1992834301924384116200053d578a5193898501918252428c86015260609244606087015260808601524060a085015260a0845260c084019360018060401b0394818110868211176200039b578c52519020600b55865b60018111620008295750505050505f92600a54600381115f14620008205760021981019081116200053d57925b5f5b8281108062000816575b15620006c0576001600160a01b0362000676828662000449565b5116805f5260098852858a5f2054116200069d575b5062000697906200052e565b62000652565b620006979196620006b2620006b89262000472565b6200052e565b95906200068b565b5090959694965f5b878110806200080c575b156200078b576001600160a01b0380620006ed838762000449565b511690815f5260098b5286895f2054111562000717575b505062000711906200052e565b620006c8565b8a5f915f600490858254945b8583106200075d575b5050505050501562000740575b8062000704565b620007119196620006b2620007559262000472565b959062000739565b5f848152208201548416146200077857600101858f62000723565b505050505060015f808080858f6200072c565b505095939450505050600a54918051918083019181845260045480935283019160045f52815f20915f905b828210620007eb575050505090807f5a67d50d80c07ddacffffa43d630a2de733fe87ffa46a8c0d5fe3e3dcd0b8e6e920390a2565b83546001600160a01b031685529384019360019384019390910190620007b6565b50818610620006d2565b508786106200065c565b505f9262000650565b82548b518a8101918252828d8201528c8152838101818110878211176200039b578d525190208084558115620008b7578190066001600160a01b038062000871838a62000449565b511691878401908482116200053d576200089f620008a79362000895848d62000449565b5116918b62000449565b528862000449565b5280156200053d57840162000623565b634e487b7160e01b5f52601260045260245ffd5b818110156200045e575f838152879020810154600191906001600160a01b0316620008f7828762000449565b5201620005b8565b91508162000571565b505062000914620004dc565b565b600354600281106200095257600481106200094c57600881106200094657600f116200094157600590565b600490565b50600390565b50600290565b5060019056fe6080806040526004361015610012575f80fd5b5f905f3560e01c9081630f42f3c914611214575080631865c57d146111b95780632542bf0614610f895780632ab09d1414610f6c57806335aa2e4414610f435780633eeb907b14610ef9578063502e122314610ec15780636b6f3cd914610e9d5780637071688a14610e80578063747dff4214610e40578063798974dd14610e205780637f77403d14610d1c5780638105f3b614610c2357806389bfe54914610bf55780638b1e24ab14610bd357806398e88c9514610b9b5780639a17162914610b605780639c4780d814610b435780639c5bc49e14610ae05780639d54bdc114610abd578063b1afae071461096e578063b7ab4db51461092c578063bd423184146108cb578063bff05f451461036b578063dac001fe146102a0578063e8bb59461461025c578063ee33bda3146101935763facd743b14610152575f80fd5b346101905760203660031901126101905760209060ff906040906001600160a01b0361017c6113b7565b168152600684522054166040519015158152f35b80fd5b50346101905780600319360112610190577f00000000000000000000000000000000000000000000000000000000000000006001600160a01b0316330361024a576f7fffffffffffffffffffffffffffffff6101ed611486565b5160011c168015610242575b60206001600160801b037fc4dcf1e7351cef05b0dcbe5903857cd86c5a9510ae387d20a71166cd6abe57b49216806001600160801b03196001541617600155604051908152a180f35b5060016101f9565b604051639386ed7b60e01b8152600490fd5b5034610190576020366003190112610190576004359060045482101561019057602061028783611382565b905460405160039290921b1c6001600160a01b03168152f35b5034610190576020366003190112610190576102ba6112ed565b9060606040516102c981611448565b828152826020820152826040820152015260ff6005541660ff8216908115918215610361575b505061034f5761031161030b610306608093611436565b6113cd565b506115b8565b61034d60405180926060809160018060a01b03815116845260ff602082015116602085015263ffffffff60408201511660408501520151910152565bf35b604051635119e6a360e11b8152600490fd5b1190505f806102ef565b503461064d5760e036600319011261064d576103856112ed565b60643567ffffffffffffffff811161064d576103a5903690600401611405565b60843567ffffffffffffffff811161064d576103c5903690600401611405565b919092335f52600660205260ff60405f205416156108b9576103e5611620565b60ff85161580156108ab575b61034f5761040161030686611436565b5080546001909101549290336001600160a01b038216036108995763ffffffff610429611795565b9160a81c161061088757826040518260e0820160ff8a166020840152602435604084015260c06060840152526101008101845f5b85811061085657505061049f9082610483601f1992838382030160808401528a8c6115fc565b60a43560a083015260c43560c083015203908101835282611464565b602081519101200361084457600a54335f52600960205260405f2055806106dc575b5050604051936104db856104d481611521565b0386611464565b84515f805b82811061069f57506104f190611826565b955f905f5b838110610651575050505060ff167f56a007d3eea04bd347e571f3451382cb2a33ef5fd102b9a63846ff8d787f43cf5f80a3610530611866565b61053b600a54611858565b600a55610546611911565b61054e6116ed565b6001546001600160801b0380194260801b16911617600155610571600254611858565b6002557f00000000000000000000000000000000000000000000000000000000000000006001600160a01b0316803b1561064d575f92836105d4936105f660405197889687958694631781ab6160e31b865260a0600487015260a48601916115fc565b90602435602485015260443560448501526003198483030160648501526112fd565b33608483015203925af1801561064257610613575b506001815580f35b905067ffffffffffffffff811161062e576040525f8061060b565b634e487b7160e01b5f52604160045260245ffd5b6040513d5f823e3d90fd5b5f80fd5b6001600160a01b036106638284611641565b5116805f52600760205260ff861660405f205414610685575b506001016104f6565b83600192949161069684938d611641565b5201929061067c565b6001600160a01b036106b1828a611641565b51165f52600760205260ff841660405f2054146106d1575b6001016104e0565b6001909101906106c9565b600354915f5b8281106106f05750506104c1565b600581901b8201356001600160a01b038116810361064d576001600160a01b0381165f908152600660205260409020805460ff8116610735575b5050506001016106e2565b60ff1916905560076020525f604081205560096020525f60408120555f5b858110610795575b50600191906001600160a01b03167fe1434e25d6611e0db941968fdc97811c982ac1602e951637d206f5fdda9dd8f15f80a2905f8061072a565b61079e81611339565b905460039190911b1c6001600160a01b03908116908316146107c257600101610753565b855f96939296198101116108305760019261081b610828926107fd6107e95f198501611339565b888060a01b0391549060031b1c1691611339565b90919060018060a01b038084549260031b9316831b921b1916179055565b6108236117b4565b61181a565b94909161075b565b634e487b7160e01b5f52601160045260245ffd5b6040516345e679d360e11b8152600490fd5b929350919082356001600160a01b038116919082900361064d5790815286939260209182019291019060010161045d565b60405163dea7e86b60e01b8152600490fd5b604051631f046f9760e21b8152600490fd5b5060055460ff8616116103f1565b604051631c6a4ddd60e01b8152600490fd5b3461064d57602036600319011261064d5760043560055481101561064d576108f46080916113cd565b506001815491015463ffffffff6040519260018060a01b038116845260ff8160a01c16602085015260a81c1660408301526060820152f35b3461064d575f36600319011261064d5761096a6040516109568161094f81611521565b0382611464565b6040519182916020835260208301906112fd565b0390f35b3461064d575f36600319011261064d57604051637ad9028f60e01b815233600482015260209081816024817f00000000000000000000000000000000000000000000000000000000000000006001600160a01b03165afa908115610642575f91610a87575b50156108b957335f526006815260ff60405f205416610a7557600354600160401b81101561062e57610a0e816001610a2c9301600355611339565b81546001600160a01b0360039290921b91821b19163390911b179055565b335f526006815260405f20600160ff198254161790556009600a54915260405f2055337fe366c1c0452ed8eec96861e9e54141ebff23c9ec89fe27b996b45f5ec38849875f80a2005b60405163028de34960e31b8152600490fd5b90508181813d8311610ab6575b610a9e8183611464565b8101031261064d5751801515810361064d57826109d3565b503d610a94565b3461064d575f36600319011261064d5761096a6040516109568161094f816114bd565b3461064d57602036600319011261064d57610af96112ed565b60ff81168015908115610b37575b5061034f5763ffffffff610b1f610306602093611436565b505460a81c16610b2d611795565b1115604051908152f35b90506005541082610b07565b3461064d575f36600319011261064d576020600a54604051908152f35b3461064d57602036600319011261064d576001600160a01b03610b816113b7565b165f526008602052602060ff60405f205416604051908152f35b3461064d57602036600319011261064d576001600160a01b03610bbc6113b7565b165f526007602052602060405f2054604051908152f35b3461064d575f36600319011261064d576020610bed611795565b604051908152f35b3461064d575f36600319011261064d5760406001548151906001600160801b038116825260801c6020820152f35b3461064d575f36600319011261064d57600554610c3f816115a0565b610c4c6040519182611464565b81815260209060208101928360055f527f036b6384b5eca791c62761152d0c79bb0604c104a5fb6f4eb0703f3154bb3db05f915b838310610cff5760408051602080825287519082018190528992820190895f5b828110610cad5784840385f35b90919282608082610cf06001948a516060809160018060a01b03815116845260ff602082015116602085015263ffffffff60408201511660408501520151910152565b01960191019492919094610ca0565b600286600192610d0e856115b8565b815201920192019190610c80565b3461064d575f36600319011261064d57335f52600660205260ff60405f205416156108b957335f52600660205260ff60405f20541615610e0e57335f52600660205260405f2060ff19815416905560076020525f604081205560096020525f604081205560038054905f5b828110610db6575b337fe1434e25d6611e0db941968fdc97811c982ac1602e951637d206f5fdda9dd8f15f80a2005b610dbf81611339565b90546001600160a01b0391841b1c81163314610dde5750600101610d87565b6107fd9192610df2610dfe955f1901611339565b9054911b1c1691611339565b610e066117b4565b808080610d8f565b604051634dc80a9b60e11b8152600490fd5b3461064d575f36600319011261064d57602060ff60055416604051908152f35b3461064d575f36600319011261064d576080600a54600454610e60611757565b610e68611795565b91604051938452602084015260408301526060820152f35b3461064d575f36600319011261064d576020600354604051908152f35b3461064d575f36600319011261064d576020610eb76116af565b6040519015158152f35b3461064d57602036600319011261064d576001600160a01b03610ee26113b7565b165f526009602052602060405f2054604051908152f35b3461064d57602036600319011261064d576040610f146113b7565b6001600160a01b0381165f90815260096020528290205490610f3590611655565b825191825215156020820152f35b3461064d57602036600319011261064d5760043560035481101561064d57610287602091611339565b3461064d575f36600319011261064d576020600254604051908152f35b3461064d5760208060031936011261064d57600435610fa733611655565b610faf6116af565b901580611196575b6111845761116f575b610fc8611620565b610fd0611486565b610fec6001600160801b03918280868301511691511690611585565b16421061115d57600554915f805b8460ff821610611125575b5061111357600160ff84160160ff8111610830576040519061102682611448565b33825260ff83830191169485825260408301915f83526060840191868352600160401b81101561062e5780600161106092016005556113cd565b94909461110057518454915193516001600160c81b03199092166001600160a01b03919091161760a09390931b60ff60a01b169290921760a89290921b63ffffffff60a81b1691909117825560019051910155335f526008815260405f208360ff198254161790556009600a54915260405f205533917f18606676ae94dc828c91c323dfd6416c7671259f5637da4bbfbf91ecb3f437835f80a460015f55005b634e487b7160e01b5f525f60045260245ffd5b60405163de81385760e01b8152600490fd5b61112e816113cd565b50546001600160a01b031633146111535760ff80911690811461083057600101610ffa565b5050600184611005565b6040516309af6f5760e01b8152600490fd5b611177611866565b61117f6116ed565b610fc0565b604051632c38d4f760e21b8152600490fd5b50335f526006835260ff60405f205416806111b2575b15610fb7565b50806111ac565b3461064d575f36600319011261064d576111d1611486565b6001600160801b036020600254920151169061096a6040516111f68161094f816114bd565b604051938493845260208401526060604084015260608301906112fd565b3461064d57602036600319011261064d5761122d6112ed565b90335f52600660205260ff60405f205416156112de575061124c611620565b6005549060ff811691821161034f57335f52600760205260405f20546112cc5761030661127891611436565b5090335f52600760205260405f2055600a54600960205260405f205563ffffffff9081815460a81c1691821461083057805463ffffffff60a81b1916600192830160a81b63ffffffff60a81b161790555f55005b604051635803953f60e01b8152600490fd5b631c6a4ddd60e01b8152600490fd5b6004359060ff8216820361064d57565b9081518082526020808093019301915f5b82811061131c575050505090565b83516001600160a01b03168552938101939281019260010161130e565b60035481101561136e5760035f527fc2575a0e9e593c00f959f8c92f12db2869c3395a3b0502d05e2516446f71f85b01905f90565b634e487b7160e01b5f52603260045260245ffd5b60045481101561136e5760045f527f8a35acfbc15ff81a39ae7d344fd709f28e8600b4aa8c65c6b64bfe7fe36bd19b01905f90565b600435906001600160a01b038216820361064d57565b60055481101561136e5760055f5260011b7f036b6384b5eca791c62761152d0c79bb0604c104a5fb6f4eb0703f3154bb3db001905f90565b9181601f8401121561064d5782359167ffffffffffffffff831161064d576020808501948460051b01011161064d57565b60ff5f199116019060ff821161083057565b6080810190811067ffffffffffffffff82111761062e57604052565b90601f8019910116810190811067ffffffffffffffff82111761062e57604052565b604051906040820182811067ffffffffffffffff82111761062e576040526001546001600160801b038116835260801c6020830152565b6004549081815260208091019160045f527f8a35acfbc15ff81a39ae7d344fd709f28e8600b4aa8c65c6b64bfe7fe36bd19b915f905b828210611501575050505090565b83546001600160a01b0316855293840193600193840193909101906114f3565b6003549081815260208091019160035f527fc2575a0e9e593c00f959f8c92f12db2869c3395a3b0502d05e2516446f71f85b915f905b828210611565575050505090565b83546001600160a01b031685529384019360019384019390910190611557565b9190916001600160801b038080941691160191821161083057565b67ffffffffffffffff811161062e5760051b60200190565b906040516115c581611448565b82546001600160a01b038116825260a081901c60ff16602083015260a81c63ffffffff166040820152600192909201546060830152565b81835290916001600160fb1b03831161064d5760209260051b809284830137010190565b60025f541461162f5760025f55565b604051633ee5aeb560e01b8152600490fd5b805182101561136e5760209160051b010190565b6040519061166d82611666816114bd565b0383611464565b8151915f5b83811061168157505050505f90565b6001600160a01b03806116948385611641565b5116908416146116a657600101611672565b50505050600190565b6116b7611486565b6116e76001600160801b03916ffffffffffffffffffffffffffffffffe83602083015116915160011b1690611585565b16421190565b6005545f600555806116fc5750565b60016001600160ff1b03821682036108305760055f527f036b6384b5eca791c62761152d0c79bb0604c104a5fb6f4eb0703f3154bb3db09160011b8201915b82811061174757505050565b5f8082558282015560020161173b565b6003546002811061178f5760048110611789576008811061178357600f1161177e57600590565b600490565b50600390565b50600290565b50600190565b60035480156117af5760011c600181018091116108305790565b505f90565b60035480156117e1575f19016117c981611339565b81546001600160a01b03600392831b1b191690915555565b634e487b7160e01b5f52603160045260245ffd5b60045490600160401b82101561062e576107fd8260016118189401600455611382565b565b8015610830575f190190565b90611830826115a0565b61183d6040519182611464565b828152809261184e601f19916115a0565b0190602036910137565b5f1981146108305760010190565b60408051906118788261166681611521565b8151915f5b83811061188a5750505050565b6001906001600160a01b0361189f8285611641565b51165f5260086020600781525f8681205552835f2060ff1981541690550161187d565b6004545f600455806118d15750565b60045f527f8a35acfbc15ff81a39ae7d344fd709f28e8600b4aa8c65c6b64bfe7fe36bd19b908101905b818110611906575050565b5f81556001016118fb565b600390600354908115611c1c57611926611757565b91828110611c14575b6119376118c2565b61194081611826565b915f5b828110611bea5750600b92600b5490600a54915f1980430196438811610830576040948551936020998a8601918252428887015260609244606088015260808701524060a086015260a0855260c085019467ffffffffffffffff958181108782111761062e578852519020600b55875b60018111611b545750505050505f93600a54600381115f14611b4c57600219810190811161083057935b5f5b82811080611b43575b15611a3f576001600160a01b036119ff8286611641565b5116805f526009895286865f205411611a22575b50611a1d90611858565b6119df565b611a1d9197611a33611a38926117f5565b611858565b9690611a13565b5090965f5b88811080611b3a575b15611af5576001600160a01b0380611a658387611641565b511690815f5260098a5287875f20541115611a8b575b5050611a8690611858565b611a44565b6004545f9182848f5b848310611ac5575b505050505015611aad575b80611a7b565b611a869197611a33611abe926117f5565b9690611aa7565b8390611ad084611382565b9054911b1c1614611ae557600101848f611a94565b5050505060015f8080848f611a9c565b505096505093505050611b357f5a67d50d80c07ddacffffa43d630a2de733fe87ffa46a8c0d5fe3e3dcd0b8e6e91600a54935191818392835282016114bd565b0390a2565b50818710611a4d565b508887106119e8565b505f936119dd565b825487518b810191825282898201528881528381018181108882111761062e5789525190208084558115611bd657819006906001600160a01b0380611b99848a611641565b51169086830183811161083057611bd194611bc4611bcb93611bbb848e611641565b5116918c611641565b5289611641565b5261181a565b6119b3565b634e487b7160e01b5f52601260045260245ffd5b80611bf6600192611339565b838060a01b03915490891b1c16611c0d8287611641565b5201611943565b91508161192f565b9150506118186118c256fea2646970667358221220f97ed5865e72cba4fe05459a3b23f21cce50059ecd58c460ab99488d965d55d564736f6c63430008160033","linkReferences":{}},"methodIdentifiers":{"addValidator()":"b1afae07","createProposal(bytes32)":"2542bf06","currentProposals(uint256)":"bd423184","currentRoundNumber()":"9c4780d8","currentRoundValidators(uint256)":"e8bb5946","executeProposal(uint8,bytes32,uint256,address[],bytes32[],bytes32,bytes32)":"bff05f45","getCurrentProposals()":"8105f3b6","getCurrentRoundInfo()":"747dff42","getCurrentRoundValidators()":"9d54bdc1","getNumProposals()":"798974dd","getProposal(uint8)":"dac001fe","getRequiredApprovals()":"8b1e24ab","getState()":"1865c57d","getValidatorActivity(address)":"3eeb907b","getValidatorCount()":"7071688a","getValidators()":"b7ab4db5","halfStateTime()":"ee33bda3","hasSubmittedProposal(address)":"9a171629","isProposalReady(uint8)":"9c5bc49e","isRoundExpired()":"6b6f3cd9","isValidator(address)":"facd743b","nextProposalId()":"2ab09d14","removeValidator()":"7f77403d","timeConfig()":"89bfe549","validatorLastActiveRound(address)":"502e1223","validatorVote(address)":"98e88c95","validators(uint256)":"35aa2e44","voteForProposal(uint8)":"0f42f3c9"},"id":55}