{"abi":[{"type":"constructor","inputs":[{"name":"_tokenContract","type":"address","internalType":"address"}],"stateMutability":"nonpayable"},{"type":"function","name":"createUser","inputs":[{"name":"publicKeyHash","type":"bytes32","internalType":"bytes32"}],"outputs":[],"stateMutability":"nonpayable"},{"type":"function","name":"createValidator","inputs":[{"name":"publicKeyHash","type":"bytes32","internalType":"bytes32"}],"outputs":[],"stateMutability":"nonpayable"},{"type":"function","name":"getCoordinator","inputs":[],"outputs":[{"name":"","type":"address","internalType":"address"}],"stateMutability":"view"},{"type":"function","name":"getJobCount","inputs":[],"outputs":[{"name":"","type":"uint256","internalType":"uint256"}],"stateMutability":"view"},{"type":"function","name":"getValidatorInfo","inputs":[{"name":"_validator","type":"address","internalType":"address"}],"outputs":[{"name":"","type":"bool","internalType":"bool"},{"name":"","type":"bytes32","internalType":"bytes32"}],"stateMutability":"view"},{"type":"function","name":"isLockedValidator","inputs":[{"name":"validator","type":"address","internalType":"address"}],"outputs":[{"name":"","type":"bool","internalType":"bool"}],"stateMutability":"view"},{"type":"function","name":"jobs","inputs":[{"name":"","type":"bytes32","internalType":"bytes32"}],"outputs":[{"name":"owner","type":"address","internalType":"address"},{"name":"payment","type":"uint80","internalType":"uint80"},{"name":"packedData","type":"uint16","internalType":"uint16"}],"stateMutability":"view"},{"type":"function","name":"requestJob","inputs":[{"name":"_userId","type":"bytes32","internalType":"bytes32"},{"name":"_jobId","type":"bytes32","internalType":"bytes32"},{"name":"_network","type":"string","internalType":"string"},{"name":"_capacities","type":"uint256[]","internalType":"uint256[]"},{"name":"_payment","type":"uint128","internalType":"uint128"}],"outputs":[],"stateMutability":"payable"},{"type":"function","name":"setCoordinator","inputs":[{"name":"_validatorContract","type":"address","internalType":"address"}],"outputs":[],"stateMutability":"nonpayable"},{"type":"function","name":"unpackPayWithSNO","inputs":[{"name":"packedData","type":"uint16","internalType":"uint16"}],"outputs":[{"name":"","type":"bool","internalType":"bool"}],"stateMutability":"pure"},{"type":"function","name":"unpackState","inputs":[{"name":"packedData","type":"uint16","internalType":"uint16"}],"outputs":[{"name":"","type":"uint8","internalType":"uint8"}],"stateMutability":"pure"},{"type":"function","name":"updateContract","inputs":[{"name":"_jobIds","type":"bytes32[]","internalType":"bytes32[]"},{"name":"_merkleRoot","type":"bytes32","internalType":"bytes32"},{"name":"_totalCapacity","type":"uint256","internalType":"uint256"},{"name":"_approvedValidators","type":"address[]","internalType":"address[]"},{"name":"_biasValidator","type":"address","internalType":"address"}],"outputs":[],"stateMutability":"nonpayable"},{"type":"function","name":"users","inputs":[{"name":"","type":"address","internalType":"address"}],"outputs":[{"name":"publicKeyHash","type":"bytes32","internalType":"bytes32"},{"name":"locked","type":"bool","internalType":"bool"},{"name":"exists","type":"bool","internalType":"bool"}],"stateMutability":"view"},{"type":"function","name":"validators","inputs":[{"name":"","type":"address","internalType":"address"}],"outputs":[{"name":"publicKeyHash","type":"bytes32","internalType":"bytes32"},{"name":"locked","type":"bool","internalType":"bool"},{"name":"exists","type":"bool","internalType":"bool"}],"stateMutability":"view"},{"type":"event","name":"JobCompleted","inputs":[{"name":"jobId","type":"bytes32","indexed":true,"internalType":"bytes32"},{"name":"payment","type":"uint128","indexed":false,"internalType":"uint128"},{"name":"payWithSNO","type":"bool","indexed":false,"internalType":"bool"}],"anonymous":false},{"type":"event","name":"JobCreated","inputs":[{"name":"jobId","type":"bytes32","indexed":true,"internalType":"bytes32"},{"name":"owner","type":"bytes32","indexed":true,"internalType":"bytes32"},{"name":"network","type":"string","indexed":false,"internalType":"string"},{"name":"payment","type":"uint128","indexed":false,"internalType":"uint128"},{"name":"payWithSNO","type":"bool","indexed":false,"internalType":"bool"}],"anonymous":false},{"type":"error","name":"Core__InsufficientBalance","inputs":[]},{"type":"error","name":"Core__InvalidArrayLength","inputs":[]},{"type":"error","name":"Core__InvalidPayment","inputs":[]},{"type":"error","name":"Core__InvalidUser","inputs":[]},{"type":"error","name":"Core__JobExists","inputs":[]},{"type":"error","name":"Core__NodeExists","inputs":[]},{"type":"error","name":"Core__NotToken","inputs":[]},{"type":"error","name":"Core__NotValidatorMultisig","inputs":[]}],"bytecode":{"object":"0x60a0346100a857601f610e0638819003918201601f19168301916001600160401b038311848410176100ac578084926020946040528339810103126100a857516001600160a01b038116908190036100a8576080525f600155604051610d4590816100c182396080518181816102380152818161032a0152818161052e01528181610672015281816106db015281816107c60152818161082f015281816109770152610ae50152f35b5f80fd5b634e487b7160e01b5f52604160045260245ffdfe6080806040526004361015610012575f80fd5b5f905f3560e01c90816338ed7cfc14610c3b5750806371977fe014610c145780637aa8515714610be45780637ad9028f14610ba45780638a11d7c914610b5e5780638dca9a1914610aa25780638ea9811714610a53578063a87430ba146109ec578063abf7bfd814610933578063ac50965a14610902578063b02b4a2f146108e4578063bc0d5b081461043b578063e5c5a33a146101255763fa52c7d8146100b8575f80fd5b34610122576020366003190112610122576040906001600160a01b036100dc610c85565b168152600260205220600181549101549061011e60405192839260ff808360081c16921690849192604091949360608401958452151560208401521515910152565b0390f35b80fd5b5060a03660031901126101225767ffffffffffffffff6024356044358281116104375736602382011215610437578060040135928084116104335736602485840101116104335760643590811161043357610184903690600401610c9b565b6084359291506001600160801b038084169182850361042f571561041e57848752600460205260408720933388526003602052604088209260018060a01b03938487541661040c576001015460081c60ff16156103fa57151580806103f1575b6103df5734156103cf575050868134169481905b81156103c9576104005b3360a089901b69ffffffffffffffffffff60a01b161761010090911760f01b6001600160f01b03191617905515928315610328577f000000000000000000000000000000000000000000000000000000000000000016803b1561032457604051635380321160e01b81523360048201526001600160801b03871660248201529082908290604490829034905af1801561031957610301575b50507f13705943ae6051d7958a25e74d7cf1e1e35a3e53ed7edc7551bb648e16260d7e935b8660246040519560608752826060880152016080860137876080888601015216602083015215604082015260808160043595601f80199101168101030190a380f35b61030a90610ccc565b61031557865f61029a565b8680fd5b6040513d84823e3d90fd5b5080fd5b7f000000000000000000000000000000000000000000000000000000000000000016803b1561032457604051637855328f60e01b81523360048201526001600160801b03871660248201529082908290604490829084905af18015610319576103b5575b50507f13705943ae6051d7958a25e74d7cf1e1e35a3e53ed7edc7551bb648e16260d7e936102bf565b6103be90610ccc565b61031557865f61038c565b82610202565b156103df578790946001906101f8565b60405163f89736d160e01b8152600490fd5b503415156101e4565b60405163c99cc94960e01b8152600490fd5b604051632e460d6b60e21b8152600490fd5b6040516243f5c760e11b8152600490fd5b8780fd5b8480fd5b8380fd5b50346101225760a03660031901126101225767ffffffffffffffff906004358281116103245761046f903690600401610c9b565b9092606435938185116104375736602386011215610437578460040135928284116108d0578360051b9560405194601f19603f8901168601868110868211176108865760405285526020850190602482988201019036821161042f57602401915b8183106108b0575050506084356001600160a01b03811692908390036108ac5785546001600160a01b0316330361089a576040519360408501908582109082111761088657604052858452856020850152855b82811061060b5750507f00000000000000000000000000000000000000000000000000000000000000006001600160a01b0316929050823b15610433576040519363f91c67ed60e01b855260c48501906024356004870152604435602487015260c060448701525180915260e485019690865b8181106105ec575050509183858181988195839760206001600160801b0391828151166064870152015116608484015260a483015203925af18015610319576105dc5750f35b6105e590610ccc565b6101225780f35b82516001600160a01b0316895260209889019890920191600101610596565b600581901b8201358752600460205260408720546001600160a01b038116610637575b50600101610523565b6104008160f01c16155f146107a0576001600160801b0361066a6001600160501b038360a01c168260208a015116610ce0565b1660208701527f00000000000000000000000000000000000000000000000000000000000000006001600160a01b03163b1561042f5760405163045894bf60e51b81526001600160a01b038216600482015260a082901c6001600160501b03166024820152888180604481010381837f00000000000000000000000000000000000000000000000000000000000000006001600160a01b03165af1801561079557908991610781575b5050906001915b8160051b84013589526004602052886040812055610400604051916001600160501b038160a01c16835260f01c16151560208201527f7970c4033d4522807e7cab94e7190b024b156de71d4743d80ac0c23db5209dad60408360051b86013592a29061062e565b61078a90610ccc565b61042f57875f610713565b6040513d8b823e3d90fd5b6001600160801b036107c16001600160501b038360a01c1682895116610ce0565b1686527f00000000000000000000000000000000000000000000000000000000000000006001600160a01b03163b1561042f5760405163601c438d60e01b81526001600160a01b038216600482015260a082901c6001600160501b03166024820152888180604481010381837f00000000000000000000000000000000000000000000000000000000000000006001600160a01b03165af1801561079557908991610872575b50509060019161071a565b61087b90610ccc565b61042f57875f610867565b634e487b7160e01b5f52604160045260245ffd5b604051633f6dafff60e21b8152600490fd5b5f80fd5b82356001600160a01b03811681036108ac578152602092830192016104d0565b634e487b7160e01b85526041600452602485fd5b50346101225780600319360112610122576020600154604051908152f35b50346101225760203660031901126101225760043561ffff8116810361032457602090610400604051911615158152f35b5034610122576020366003190112610122573381526003602052604081206001810190815460ff8160081c166109da5760043590915561ffff1916610101179055807f00000000000000000000000000000000000000000000000000000000000000006001600160a01b0316803b156109d75781809160446040518094819363dc8bde8160e01b83523360048401528160248401525af18015610319576105dc5750f35b50fd5b60405163c107245560e01b8152600490fd5b5034610122576020366003190112610122576040906001600160a01b03610a11610c85565b168152600360205220600181549101549061011e60405192839260ff808360081c16921690849192604091949360608401958452151560208401521515910152565b503461012257602036600319011261012257610a6d610c85565b8154906001600160a01b039081831615610a85578380f35b16906bffffffffffffffffffffffff60a01b161781555f80808380f35b50346108ac5760203660031901126108ac57335f52600260205260405f206001810190815460ff8160081c166109da5760043590915561ffff19166101011790557f00000000000000000000000000000000000000000000000000000000000000006001600160a01b0316803b156108ac575f809160446040518094819363dc8bde8160e01b8352336004840152600160248401525af18015610b5357610b47575080f35b610b519150610ccc565b005b6040513d5f823e3d90fd5b346108ac5760203660031901126108ac576001600160a01b03610b7f610c85565b165f5260026020526040805f2060ff6001820154169054825191151582526020820152f35b346108ac5760203660031901126108ac576001600160a01b03610bc5610c85565b165f526002602052602060ff600160405f200154166040519015158152f35b346108ac5760203660031901126108ac5760043561ffff811681036108ac5760209060036040519160081c168152f35b346108ac575f3660031901126108ac575f546040516001600160a01b039091168152602090f35b346108ac5760203660031901126108ac576060906004355f52600460205260405f205460018060a01b03811682526001600160501b038160a01c16602083015260f01c6040820152f35b600435906001600160a01b03821682036108ac57565b9181601f840112156108ac5782359167ffffffffffffffff83116108ac576020808501948460051b0101116108ac57565b67ffffffffffffffff811161088657604052565b9190916001600160801b0380809416911601918211610cfb57565b634e487b7160e01b5f52601160045260245ffdfea26469706673582212208a0ff2da844b27b0add6706d7fb63c512ae20845bc00e51513e99b347e5dc09164736f6c63430008160033","linkReferences":{}},"methodIdentifiers":{"createUser(bytes32)":"abf7bfd8","createValidator(bytes32)":"8dca9a19","getCoordinator()":"71977fe0","getJobCount()":"b02b4a2f","getValidatorInfo(address)":"8a11d7c9","isLockedValidator(address)":"7ad9028f","jobs(bytes32)":"38ed7cfc","requestJob(bytes32,bytes32,string,uint256[],uint128)":"e5c5a33a","setCoordinator(address)":"8ea98117","unpackPayWithSNO(uint16)":"ac50965a","unpackState(uint16)":"7aa85157","updateContract(bytes32[],bytes32,uint256,address[],address)":"bc0d5b08","users(address)":"a87430ba","validators(address)":"fa52c7d8"},"id":56}