{
  "abi": [
    {
      "anonymous": false,
      "inputs": [
        {
          "indexed": true,
          "internalType": "address",
          "name": "owner",
          "type": "address"
        },
        {
          "indexed": true,
          "internalType": "address",
          "name": "spender",
          "type": "address"
        },
        {
          "indexed": false,
          "internalType": "uint256",
          "name": "value",
          "type": "uint256"
        }
      ],
      "name": "Approval",
      "type": "event"
    },
    {
      "anonymous": false,
      "inputs": [
        {
          "indexed": true,
          "internalType": "bytes32",
          "name": "jobId",
          "type": "bytes32"
        },
        {
          "indexed": false,
          "internalType": "uint256",
          "name": "timestamp",
          "type": "uint256"
        }
      ],
      "name": "JobCompleted",
      "type": "event"
    },
    {
      "anonymous": false,
      "inputs": [
        {
          "indexed": true,
          "internalType": "bytes32",
          "name": "jobId",
          "type": "bytes32"
        },
        {
          "indexed": false,
          "internalType": "uint256",
          "name": "timestamp",
          "type": "uint256"
        }
      ],
      "name": "JobDisputed",
      "type": "event"
    },
    {
      "anonymous": false,
      "inputs": [
        {
          "indexed": true,
          "internalType": "bytes32",
          "name": "jobHash",
          "type": "bytes32"
        },
        {
          "indexed": false,
          "internalType": "uint256",
          "name": "timestamp",
          "type": "uint256"
        },
        {
          "indexed": false,
          "internalType": "address[]",
          "name": "seedValidators",
          "type": "address[]"
        }
      ],
      "name": "JobRequested",
      "type": "event"
    },
    {
      "anonymous": false,
      "inputs": [
        {
          "indexed": true,
          "internalType": "address",
          "name": "validator",
          "type": "address"
        },
        {
          "indexed": false,
          "internalType": "uint256",
          "name": "amount",
          "type": "uint256"
        }
      ],
      "name": "TokensLocked",
      "type": "event"
    },
    {
      "anonymous": false,
      "inputs": [
        {
          "indexed": true,
          "internalType": "address",
          "name": "validator",
          "type": "address"
        },
        {
          "indexed": false,
          "internalType": "uint256",
          "name": "amount",
          "type": "uint256"
        }
      ],
      "name": "TokensUnlocked",
      "type": "event"
    },
    {
      "anonymous": false,
      "inputs": [
        {
          "indexed": true,
          "internalType": "address",
          "name": "from",
          "type": "address"
        },
        {
          "indexed": true,
          "internalType": "address",
          "name": "to",
          "type": "address"
        },
        {
          "indexed": false,
          "internalType": "uint256",
          "name": "value",
          "type": "uint256"
        }
      ],
      "name": "Transfer",
      "type": "event"
    },
    {
      "anonymous": false,
      "inputs": [
        {
          "indexed": true,
          "internalType": "address",
          "name": "validator",
          "type": "address"
        },
        {
          "indexed": false,
          "internalType": "uint256",
          "name": "unlockTime",
          "type": "uint256"
        }
      ],
      "name": "UnlockInitiated",
      "type": "event"
    },
    {
      "inputs": [],
      "name": "MAX_SUPPLY",
      "outputs": [
        {
          "internalType": "uint256",
          "name": "",
          "type": "uint256"
        }
      ],
      "stateMutability": "view",
      "type": "function"
    },
    {
      "inputs": [
        {
          "internalType": "uint256",
          "name": "",
          "type": "uint256"
        }
      ],
      "name": "activeJobs",
      "outputs": [
        {
          "internalType": "uint256",
          "name": "",
          "type": "uint256"
        }
      ],
      "stateMutability": "view",
      "type": "function"
    },
    {
      "inputs": [],
      "name": "activeValidators",
      "outputs": [
        {
          "internalType": "uint256",
          "name": "",
          "type": "uint256"
        }
      ],
      "stateMutability": "view",
      "type": "function"
    },
    {
      "inputs": [
        {
          "internalType": "address",
          "name": "owner",
          "type": "address"
        },
        {
          "internalType": "address",
          "name": "spender",
          "type": "address"
        }
      ],
      "name": "allowance",
      "outputs": [
        {
          "internalType": "uint256",
          "name": "",
          "type": "uint256"
        }
      ],
      "stateMutability": "view",
      "type": "function"
    },
    {
      "inputs": [
        {
          "internalType": "address",
          "name": "spender",
          "type": "address"
        },
        {
          "internalType": "uint256",
          "name": "amount",
          "type": "uint256"
        }
      ],
      "name": "approve",
      "outputs": [
        {
          "internalType": "bool",
          "name": "",
          "type": "bool"
        }
      ],
      "stateMutability": "nonpayable",
      "type": "function"
    },
    {
      "inputs": [
        {
          "internalType": "address",
          "name": "account",
          "type": "address"
        }
      ],
      "name": "balanceOf",
      "outputs": [
        {
          "internalType": "uint256",
          "name": "",
          "type": "uint256"
        }
      ],
      "stateMutability": "view",
      "type": "function"
    },
    {
      "inputs": [
        {
          "internalType": "bytes32",
          "name": "jobHash",
          "type": "bytes32"
        },
        {
          "internalType": "address[]",
          "name": "_workers",
          "type": "address[]"
        }
      ],
      "name": "completeJob",
      "outputs": [
        {
          "internalType": "uint256[]",
          "name": "",
          "type": "uint256[]"
        }
      ],
      "stateMutability": "nonpayable",
      "type": "function"
    },
    {
      "inputs": [
        {
          "internalType": "bytes32",
          "name": "_publicKeyHash",
          "type": "bytes32"
        }
      ],
      "name": "createUser",
      "outputs": [],
      "stateMutability": "nonpayable",
      "type": "function"
    },
    {
      "inputs": [
        {
          "internalType": "bytes32",
          "name": "_publicKeyHash",
          "type": "bytes32"
        },
        {
          "internalType": "uint256",
          "name": "_lockAmount",
          "type": "uint256"
        }
      ],
      "name": "createValidator",
      "outputs": [],
      "stateMutability": "nonpayable",
      "type": "function"
    },
    {
      "inputs": [],
      "name": "decimals",
      "outputs": [
        {
          "internalType": "uint8",
          "name": "",
          "type": "uint8"
        }
      ],
      "stateMutability": "view",
      "type": "function"
    },
    {
      "inputs": [
        {
          "internalType": "address",
          "name": "spender",
          "type": "address"
        },
        {
          "internalType": "uint256",
          "name": "subtractedValue",
          "type": "uint256"
        }
      ],
      "name": "decreaseAllowance",
      "outputs": [
        {
          "internalType": "bool",
          "name": "",
          "type": "bool"
        }
      ],
      "stateMutability": "nonpayable",
      "type": "function"
    },
    {
      "inputs": [
        {
          "internalType": "bytes32",
          "name": "jobHash",
          "type": "bytes32"
        }
      ],
      "name": "disputeJob",
      "outputs": [],
      "stateMutability": "nonpayable",
      "type": "function"
    },
    {
      "inputs": [],
      "name": "emissionRate",
      "outputs": [
        {
          "internalType": "uint256",
          "name": "",
          "type": "uint256"
        }
      ],
      "stateMutability": "view",
      "type": "function"
    },
    {
      "inputs": [],
      "name": "getActiveValidatorCount",
      "outputs": [
        {
          "internalType": "uint256",
          "name": "",
          "type": "uint256"
        }
      ],
      "stateMutability": "view",
      "type": "function"
    },
    {
      "inputs": [],
      "name": "getEmissionRate",
      "outputs": [
        {
          "internalType": "uint256",
          "name": "",
          "type": "uint256"
        }
      ],
      "stateMutability": "view",
      "type": "function"
    },
    {
      "inputs": [
        {
          "internalType": "bytes32",
          "name": "jobHash",
          "type": "bytes32"
        }
      ],
      "name": "getJobValidators",
      "outputs": [
        {
          "internalType": "address[]",
          "name": "",
          "type": "address[]"
        }
      ],
      "stateMutability": "view",
      "type": "function"
    },
    {
      "inputs": [],
      "name": "getProposees",
      "outputs": [
        {
          "internalType": "address[]",
          "name": "",
          "type": "address[]"
        }
      ],
      "stateMutability": "view",
      "type": "function"
    },
    {
      "inputs": [],
      "name": "getState",
      "outputs": [
        {
          "internalType": "uint256",
          "name": "",
          "type": "uint256"
        },
        {
          "internalType": "uint256",
          "name": "",
          "type": "uint256"
        },
        {
          "internalType": "uint256",
          "name": "",
          "type": "uint256"
        },
        {
          "internalType": "address[]",
          "name": "",
          "type": "address[]"
        }
      ],
      "stateMutability": "view",
      "type": "function"
    },
    {
      "inputs": [],
      "name": "getSupply",
      "outputs": [
        {
          "internalType": "uint256",
          "name": "",
          "type": "uint256"
        }
      ],
      "stateMutability": "view",
      "type": "function"
    },
    {
      "inputs": [],
      "name": "getUserCount",
      "outputs": [
        {
          "internalType": "uint256",
          "name": "",
          "type": "uint256"
        }
      ],
      "stateMutability": "view",
      "type": "function"
    },
    {
      "inputs": [
        {
          "internalType": "address",
          "name": "validatorAddress",
          "type": "address"
        }
      ],
      "name": "getValidatorBytes",
      "outputs": [
        {
          "internalType": "bytes32",
          "name": "",
          "type": "bytes32"
        }
      ],
      "stateMutability": "view",
      "type": "function"
    },
    {
      "inputs": [],
      "name": "getValidatorCount",
      "outputs": [
        {
          "internalType": "uint256",
          "name": "",
          "type": "uint256"
        }
      ],
      "stateMutability": "view",
      "type": "function"
    },
    {
      "inputs": [
        {
          "internalType": "uint256",
          "name": "_validatorId",
          "type": "uint256"
        }
      ],
      "name": "getValidatorInfo",
      "outputs": [
        {
          "internalType": "bool",
          "name": "",
          "type": "bool"
        },
        {
          "internalType": "bytes32",
          "name": "",
          "type": "bytes32"
        },
        {
          "internalType": "address",
          "name": "",
          "type": "address"
        }
      ],
      "stateMutability": "view",
      "type": "function"
    },
    {
      "inputs": [],
      "name": "halving",
      "outputs": [
        {
          "internalType": "uint256",
          "name": "",
          "type": "uint256"
        }
      ],
      "stateMutability": "view",
      "type": "function"
    },
    {
      "inputs": [
        {
          "internalType": "address",
          "name": "spender",
          "type": "address"
        },
        {
          "internalType": "uint256",
          "name": "addedValue",
          "type": "uint256"
        }
      ],
      "name": "increaseAllowance",
      "outputs": [
        {
          "internalType": "bool",
          "name": "",
          "type": "bool"
        }
      ],
      "stateMutability": "nonpayable",
      "type": "function"
    },
    {
      "inputs": [
        {
          "internalType": "address[]",
          "name": "_leadDevelopers",
          "type": "address[]"
        },
        {
          "internalType": "address",
          "name": "_communityWallet",
          "type": "address"
        }
      ],
      "name": "initialize",
      "outputs": [],
      "stateMutability": "nonpayable",
      "type": "function"
    },
    {
      "inputs": [
        {
          "internalType": "address",
          "name": "validatorAddr",
          "type": "address"
        }
      ],
      "name": "isLocked",
      "outputs": [
        {
          "internalType": "bool",
          "name": "",
          "type": "bool"
        }
      ],
      "stateMutability": "view",
      "type": "function"
    },
    {
      "inputs": [],
      "name": "jobCounter",
      "outputs": [
        {
          "internalType": "uint256",
          "name": "",
          "type": "uint256"
        }
      ],
      "stateMutability": "view",
      "type": "function"
    },
    {
      "inputs": [
        {
          "internalType": "bytes32",
          "name": "",
          "type": "bytes32"
        }
      ],
      "name": "jobs",
      "outputs": [
        {
          "internalType": "address",
          "name": "author",
          "type": "address"
        },
        {
          "internalType": "bool",
          "name": "activity",
          "type": "bool"
        }
      ],
      "stateMutability": "view",
      "type": "function"
    },
    {
      "inputs": [],
      "name": "lockAmount",
      "outputs": [
        {
          "internalType": "uint256",
          "name": "",
          "type": "uint256"
        }
      ],
      "stateMutability": "view",
      "type": "function"
    },
    {
      "inputs": [
        {
          "internalType": "uint256",
          "name": "amount",
          "type": "uint256"
        }
      ],
      "name": "lockTokens",
      "outputs": [],
      "stateMutability": "nonpayable",
      "type": "function"
    },
    {
      "inputs": [],
      "name": "maxValidators",
      "outputs": [
        {
          "internalType": "uint256",
          "name": "",
          "type": "uint256"
        }
      ],
      "stateMutability": "view",
      "type": "function"
    },
    {
      "inputs": [],
      "name": "minValidators",
      "outputs": [
        {
          "internalType": "uint256",
          "name": "",
          "type": "uint256"
        }
      ],
      "stateMutability": "view",
      "type": "function"
    },
    {
      "inputs": [
        {
          "internalType": "address[]",
          "name": "_workers",
          "type": "address[]"
        },
        {
          "internalType": "uint256[]",
          "name": "_workerCapacities",
          "type": "uint256[]"
        },
        {
          "internalType": "uint256",
          "name": "_totalCapacity",
          "type": "uint256"
        },
        {
          "internalType": "address[]",
          "name": "_validatorsVoted",
          "type": "address[]"
        }
      ],
      "name": "mintTokens",
      "outputs": [],
      "stateMutability": "nonpayable",
      "type": "function"
    },
    {
      "inputs": [],
      "name": "name",
      "outputs": [
        {
          "internalType": "string",
          "name": "",
          "type": "string"
        }
      ],
      "stateMutability": "view",
      "type": "function"
    },
    {
      "inputs": [
        {
          "internalType": "bytes32",
          "name": "userHash",
          "type": "bytes32"
        },
        {
          "internalType": "bytes32",
          "name": "jobHash",
          "type": "bytes32"
        },
        {
          "internalType": "uint256[]",
          "name": "_capacities",
          "type": "uint256[]"
        }
      ],
      "name": "requestJob",
      "outputs": [
        {
          "internalType": "uint256[]",
          "name": "validatorIds",
          "type": "uint256[]"
        }
      ],
      "stateMutability": "nonpayable",
      "type": "function"
    },
    {
      "inputs": [
        {
          "internalType": "address",
          "name": "validatorAddress",
          "type": "address"
        }
      ],
      "name": "setValidatorContract",
      "outputs": [],
      "stateMutability": "nonpayable",
      "type": "function"
    },
    {
      "inputs": [],
      "name": "symbol",
      "outputs": [
        {
          "internalType": "string",
          "name": "",
          "type": "string"
        }
      ],
      "stateMutability": "view",
      "type": "function"
    },
    {
      "inputs": [],
      "name": "timeSinceLastHalving",
      "outputs": [
        {
          "internalType": "uint256",
          "name": "",
          "type": "uint256"
        }
      ],
      "stateMutability": "view",
      "type": "function"
    },
    {
      "inputs": [],
      "name": "totalSupply",
      "outputs": [
        {
          "internalType": "uint256",
          "name": "",
          "type": "uint256"
        }
      ],
      "stateMutability": "view",
      "type": "function"
    },
    {
      "inputs": [
        {
          "internalType": "address",
          "name": "to",
          "type": "address"
        },
        {
          "internalType": "uint256",
          "name": "amount",
          "type": "uint256"
        }
      ],
      "name": "transfer",
      "outputs": [
        {
          "internalType": "bool",
          "name": "",
          "type": "bool"
        }
      ],
      "stateMutability": "nonpayable",
      "type": "function"
    },
    {
      "inputs": [
        {
          "internalType": "address",
          "name": "from",
          "type": "address"
        },
        {
          "internalType": "address",
          "name": "to",
          "type": "address"
        },
        {
          "internalType": "uint256",
          "name": "amount",
          "type": "uint256"
        }
      ],
      "name": "transferFrom",
      "outputs": [
        {
          "internalType": "bool",
          "name": "",
          "type": "bool"
        }
      ],
      "stateMutability": "nonpayable",
      "type": "function"
    },
    {
      "inputs": [],
      "name": "unlockPeriod",
      "outputs": [
        {
          "internalType": "uint256",
          "name": "",
          "type": "uint256"
        }
      ],
      "stateMutability": "view",
      "type": "function"
    },
    {
      "inputs": [
        {
          "internalType": "uint256",
          "name": "amount",
          "type": "uint256"
        }
      ],
      "name": "unlockTokens",
      "outputs": [],
      "stateMutability": "nonpayable",
      "type": "function"
    },
    {
      "inputs": [],
      "name": "userCounter",
      "outputs": [
        {
          "internalType": "uint256",
          "name": "",
          "type": "uint256"
        }
      ],
      "stateMutability": "view",
      "type": "function"
    },
    {
      "inputs": [
        {
          "internalType": "address",
          "name": "",
          "type": "address"
        }
      ],
      "name": "userHashByAddress",
      "outputs": [
        {
          "internalType": "bytes32",
          "name": "",
          "type": "bytes32"
        }
      ],
      "stateMutability": "view",
      "type": "function"
    },
    {
      "inputs": [
        {
          "internalType": "bytes32",
          "name": "",
          "type": "bytes32"
        }
      ],
      "name": "users",
      "outputs": [
        {
          "internalType": "address",
          "name": "userAddress",
          "type": "address"
        },
        {
          "internalType": "bytes32",
          "name": "publicKeyHash",
          "type": "bytes32"
        },
        {
          "internalType": "uint8",
          "name": "reputation",
          "type": "uint8"
        }
      ],
      "stateMutability": "view",
      "type": "function"
    },
    {
      "inputs": [
        {
          "internalType": "bytes32",
          "name": "",
          "type": "bytes32"
        }
      ],
      "name": "validatorAddressByHash",
      "outputs": [
        {
          "internalType": "address",
          "name": "",
          "type": "address"
        }
      ],
      "stateMutability": "view",
      "type": "function"
    },
    {
      "inputs": [],
      "name": "validatorContractAddress",
      "outputs": [
        {
          "internalType": "address",
          "name": "",
          "type": "address"
        }
      ],
      "stateMutability": "view",
      "type": "function"
    },
    {
      "inputs": [
        {
          "internalType": "address",
          "name": "",
          "type": "address"
        }
      ],
      "name": "validatorIdByAddress",
      "outputs": [
        {
          "internalType": "uint256",
          "name": "",
          "type": "uint256"
        }
      ],
      "stateMutability": "view",
      "type": "function"
    },
    {
      "inputs": [],
      "name": "validatorIdCounter",
      "outputs": [
        {
          "internalType": "uint256",
          "name": "",
          "type": "uint256"
        }
      ],
      "stateMutability": "view",
      "type": "function"
    },
    {
      "inputs": [
        {
          "internalType": "uint256",
          "name": "",
          "type": "uint256"
        }
      ],
      "name": "validators",
      "outputs": [
        {
          "internalType": "bytes32",
          "name": "publicKeyHash",
          "type": "bytes32"
        },
        {
          "internalType": "address",
          "name": "validatorAddress",
          "type": "address"
        },
        {
          "internalType": "uint256",
          "name": "locked",
          "type": "uint256"
        },
        {
          "internalType": "uint256",
          "name": "unlockTime",
          "type": "uint256"
        },
        {
          "internalType": "uint8",
          "name": "reputation",
          "type": "uint8"
        }
      ],
      "stateMutability": "view",
      "type": "function"
    },
    {
      "inputs": [
        {
          "internalType": "bytes32",
          "name": "",
          "type": "bytes32"
        }
      ],
      "name": "workers",
      "outputs": [
        {
          "internalType": "address",
          "name": "",
          "type": "address"
        }
      ],
      "stateMutability": "view",
      "type": "function"
    }
  ],
  "bytecode": "6080604052610870606d55681bc16d674ec8000000606e55690a968163f0a57b400000606f5561c4e0607055348015603657600080fd5b50612c58806100466000396000f3fe608060405234801561001057600080fd5b50600436106103275760003560e01c80637071688a116101b8578063ba3f544311610104578063d057fc19116100a2578063d8df5dc11161007c578063d8df5dc114610826578063dd62ed3e1461082f578063f0c37a5914610868578063f79621bd1461087157600080fd5b8063d057fc19146107d4578063d2d49c4b146107f4578063d3eece97146107fd57600080fd5b8063c5ab2241116100de578063c5ab22411461074b578063c8df245a14610754578063cdf64a761461075d578063cea6ab981461077057600080fd5b8063ba3f54431461071d578063bc1d82a114610730578063c0a77da91461074357600080fd5b8063a3273d2211610171578063abf7bfd81161014b578063abf7bfd8146106c0578063b115f50d146106d3578063b5cb15f7146106dc578063b7797537146106e457600080fd5b8063a3273d2214610687578063a457c2d71461069a578063a9059cbb146106ad57600080fd5b80637071688a1461062957806370a08231146106315780637c4053251461065a5780638f029d5e1461066d57806395d89b411461067657806396afc4501461067e57600080fd5b806337deea70116102775780634966d0861161023057806350355d761161020a57806350355d76146105f257806362fb00fc146105fb5780636c9c2faf1461060e5780636e27d8891461061657600080fd5b80634966d0861461058a578063497dfe631461059f5780634a4fbeec146105b257600080fd5b806337deea70146104b157806338e56261146104b957806338ed7cfc146104fa578063395093511461054f57806343a8d91414610562578063462d0b2e1461057557600080fd5b806320d3a0b4116102e457806327764547116102be57806327764547146103f3578063313ce5671461041357806332cb6b0c1461042257806335aa2e441461043457600080fd5b806320d3a0b4146103c457806321b0908b146103cd57806323b872dd146103e057600080fd5b806306fdde031461032c57806308ac52561461034a578063095ea7b31461036157806318160ddd146103845780631865c57d1461038c5780631d4e7793146103a4575b600080fd5b610334610884565b604051610341919061230d565b60405180910390f35b610353606c5481565b604051908152602001610341565b61037461036f366004612371565b610916565b6040519015158152602001610341565b603554610353565b610394610930565b60405161034194939291906123e2565b6103b76103b2366004612411565b6109c0565b6040516103419190612494565b61035360705481565b6103536103db3660046124d8565b610d3f565b6103746103ee3660046124f1565b610d60565b610353610401366004612532565b60796020526000908152604090205481565b60405160128152602001610341565b6103536a115eec47f6cf7e3500000081565b61047e6104423660046124d8565b6075602052600090815260409020805460018201546002830154600384015460049094015492936001600160a01b039092169290919060ff1685565b604080519586526001600160a01b03909416602086015292840191909152606083015260ff16608082015260a001610341565b610353610d84565b6104e26104c73660046124d8565b6074602052600090815260409020546001600160a01b031681565b6040516001600160a01b039091168152602001610341565b6105306105083660046124d8565b607660205260009081526040902080546004909101546001600160a01b039091169060ff1682565b604080516001600160a01b039093168352901515602083015201610341565b61037461055d366004612371565b610df7565b6103b7610570366004612639565b610e36565b610588610583366004612680565b610f60565b005b610592611111565b60405161034191906126d2565b6105886105ad3660046126e5565b611183565b6103746105c0366004612532565b6001600160a01b0316600090815260796020908152604080832054606f54908452607590925290912060020154101590565b61035360695481565b610353610609366004612532565b611321565b610353611398565b6105886106243660046124d8565b6113d8565b6103536113e5565b61035361063f366004612532565b6001600160a01b031660009081526033602052604090205490565b6105886106683660046124d8565b6113f6565b61035360675481565b610334611607565b610353606e5481565b610588610695366004612707565b611616565b6103746106a8366004612371565b6117f8565b6103746106bb366004612371565b61188a565b6105886106ce3660046124d8565b611898565b61035360715481565b61035361197d565b6106f76106f23660046124d8565b61198e565b60408051931515845260208401929092526001600160a01b031690820152606001610341565b61058861072b3660046124d8565b611aa3565b61059261073e3660046124d8565b611b21565b606e54610353565b610353606b5481565b610353606d5481565b61058861076b366004612532565b611b90565b6107ac61077e3660046124d8565b6072602052600090815260409020805460018201546002909201546001600160a01b03909116919060ff1683565b604080516001600160a01b039094168452602084019290925260ff1690820152606001610341565b6103536107e2366004612532565b60786020526000908152604090205481565b610353606a5481565b6104e261080b3660046124d8565b6073602052600090815260409020546001600160a01b031681565b610353606f5481565b61035361083d3660046127ed565b6001600160a01b03918216600090815260346020908152604080832093909416825291909152205490565b61035360685481565b6066546104e2906001600160a01b031681565b6060603680546108939061281b565b80601f01602080910402602001604051908101604052809291908181526020018280546108bf9061281b565b801561090c5780601f106108e15761010080835404028352916020019161090c565b820191906000526020600020905b8154815290600101906020018083116108ef57829003601f168201915b5050505050905090565b600033610924818585611c15565b60019150505b92915050565b60008060006060606560009054906101000a90046001600160a01b03166001600160a01b0316631865c57d6040518163ffffffff1660e01b8152600401600060405180830381865afa15801561098a573d6000803e3d6000fd5b505050506040513d6000823e601f3d908101601f191682016040526109b291908101906128bd565b935093509350935090919293565b6066546060906001600160a01b03163314610a055733600090815260786020526040902054610a05576109f285611898565b3360009081526078602052604090205494505b84610a4e5760405162461bcd60e51b815260206004820152601460248201527355736572206e6f7420726567697374657265642160601b60448201526064015b60405180910390fd5b6000848152607660205260409020546001600160a01b031615610aaa5760405162461bcd60e51b81526020600482015260146024820152732537b11030b63932b0b23c9031b932b0ba32b21760611b6044820152606401610a45565b6065546040516371547b7960e11b8152600160048201526000916001600160a01b03169063e2a8f6f290602401600060405180830381865afa158015610af4573d6000803e3d6000fd5b505050506040513d6000823e601f3d908101601f19168201604052610b1c919081019061290b565b604080516001808252818301909252919250600091906020808301908036833701905050905060005b8251811015610bb25760796000848381518110610b6457610b64612948565b60200260200101516001600160a01b03166001600160a01b0316815260200190815260200160002054828281518110610b9f57610b9f612948565b6020908102919091010152600101610b45565b506040805160a081018252338152602081018490529081018567ffffffffffffffff811115610be357610be3612556565b604051908082528060200260200182016040528015610c0c578160200160208202803683370190505b50815260200186868080602002602001604051908101604052809392919081815260200183836020028082843760009201829052509385525050600160209384018190528a8352607684526040909220845181546001600160a01b0319166001600160a01b039091161781558484015180519194610c8f94860193500190612258565b5060408201518051610cab916002840191602090910190612258565b5060608201518051610cc79160038401916020909101906122bd565b50608091909101516004909101805460ff191691151591909117905560405186907f5dd5aff7b55a6d23db5800ae74fafb29f5f00976a85526c852c81900d14cf3e790610d17904290869061295e565b60405180910390a260698054906000610d2f8361298d565b9091555090979650505050505050565b60778181548110610d4f57600080fd5b600091825260209091200154905081565b600033610d6e858285611d39565b610d79858585611dcb565b506001949350505050565b606554604080516348f1712960e11b815290516000926001600160a01b0316916391e2e2529160048083019260209291908290030181865afa158015610dce573d6000803e3d6000fd5b505050506040513d601f19601f82011682018060405250810190610df291906129a6565b905090565b3360008181526034602090815260408083206001600160a01b03871684529091528120549091906109249082908690610e319087906129bf565b611c15565b6066546060906001600160a01b03163314610e635760405162461bcd60e51b8152600401610a45906129d2565b600083815260766020526040902060030154825114610e8157600080fd5b60008381526076602090815260409091208351610ea692600290920191850190612258565b5060008381526076602052604090819020600401805460ff191690555183907f9b5ed714c31dfcb1a9397710b6fc1842f37d94ab5dc0ccb528d9a2c97ea76f2a90610ef49042815260200190565b60405180910390a260008381526076602090815260409182902060030180548351818402810184019094528084529091830182828015610f5357602002820191906000526020600020905b815481526020019060010190808311610f3f575b5050505050905092915050565b600054610100900460ff16610f7b5760005460ff1615610f7f565b303b155b610fe25760405162461bcd60e51b815260206004820152602e60248201527f496e697469616c697a61626c653a20636f6e747261637420697320616c72656160448201526d191e481a5b9a5d1a585b1a5e995960921b6064820152608401610a45565b600054610100900460ff16158015611004576000805461ffff19166101011790555b61104b6040518060400160405280600a815260200169536d6172746e6f64657360b01b81525060405180604001604052806003815260200162534e4f60e81b815250611f99565b600160688190556069819055606755681bc16d674ec8000000606e5569021e19e0c9bab2400000606f55612220606d556212750060705560006071819055699ed194db19b238c00000906a017293b0a9e69fd9c00000905b85518110156110e3576110db8682815181106110c1576110c1612948565b60200260200101518751856110d69190612a18565b611fce565b6001016110a3565b506110ee8482611fce565b50506001606b556005606c55801561110c576000805461ff00191690555b505050565b6065546040805163fbcca27360e01b815290516060926001600160a01b03169163fbcca2739160048083019260009291908290030181865afa15801561115b573d6000803e3d6000fd5b505050506040513d6000823e601f3d908101601f19168201604052610df2919081019061290b565b33600090815260796020526040902054156111e05760405162461bcd60e51b815260206004820152601960248201527f56616c696461746f7220616c7265616479206578697374732e000000000000006044820152606401610a45565b3360009081526033602052604090205481111580156112015750606f548110155b61124d5760405162461bcd60e51b815260206004820152601b60248201527f496e73756666696369656e7420746f6b656e2062616c616e63652e00000000006044820152606401610a45565b6040805160a081018252838152336020808301828152606f8054858701908152600060608701818152603260808901908152606780548452607588528a842099518a55955160018a0180546001600160a01b039092166001600160a01b0319928316179055935160028a015590516003890155516004909701805460ff90981660ff199098169790971790965591548486526079845286862055878552607490925293909220805490931681179092555461130891906120ad565b606780549060006113188361298d565b91905055505050565b6001600160a01b038116600090815260796020526040812054806113835760405162461bcd60e51b81526020600482015260196024820152782b30b634b230ba37b9103237b2b9903737ba1032bc34b9ba1760391b6044820152606401610a45565b60009081526075602052604090205492915050565b6000306001600160a01b03166318160ddd6040518163ffffffff1660e01b8152600401602060405180830381865afa158015610dce573d6000803e3d6000fd5b6113e233826120ad565b50565b60006001606754610df29190612a3a565b33600090815260796020526040902054806114535760405162461bcd60e51b815260206004820152601b60248201527f4e6f74206120726567697374657265642076616c696461746f722e00000000006044820152606401610a45565b600081815260756020526040902060028101548311156114b55760405162461bcd60e51b815260206004820152601e60248201527f416d6f756e742065786365656473206c6f636b65642062616c616e63652e00006044820152606401610a45565b600083116114d55760405162461bcd60e51b8152600401610a4590612a4d565b8060030154600003611555576070546114ee90426129bf565b60038201556002810154600090611506908590612a3a565b9050336001600160a01b03167f77635f8f13ee1a01d11246347c649817c6ee9fa7620ce4c6adfa2452bfa162b2836003015460405161154791815260200190565b60405180910390a250505050565b80600301544210156115a95760405162461bcd60e51b815260206004820152601860248201527f546f6b656e7320617265207374696c6c206c6f636b65642e00000000000000006044820152606401610a45565b828160020160008282546115bd9190612a3a565b909155506115cd90503384611fce565b60405183815233907fe7b379c6c1fa169e9079c25e9143b127637eef8ec8c9d5c06ddb4ab3e11958889060200160405180910390a2505050565b6060603780546108939061281b565b6066546001600160a01b031633146116405760405162461bcd60e51b8152600401610a45906129d2565b6a115eec47f6cf7e35000000606e5461165860355490565b61166291906129bf565b11156116b05760405162461bcd60e51b815260206004820152601760248201527f4d6178696d756d20737570706c792072656163686564210000000000000000006044820152606401610a45565b606d54607154106116e657670de0b6b3a7640000606e5411156116e6576002606e60008282546116e09190612a18565b90915550505b60006064606e5460146116f99190612a8e565b6117039190612a18565b905060006064606e5460506117189190612a8e565b6117229190612a18565b905060008351836117339190612a18565b905060005b845181101561176c5761176485828151811061175657611756612948565b602002602001015183611fce565b600101611738565b5060005b87518110156117d9576000868489848151811061178f5761178f612948565b60200260200101516117a19190612a8e565b6117ab9190612a18565b90506117d08983815181106117c2576117c2612948565b602002602001015182611fce565b50600101611770565b50607180549060006117ea8361298d565b919050555050505050505050565b3360008181526034602090815260408083206001600160a01b03871684529091528120549091908381101561187d5760405162461bcd60e51b815260206004820152602560248201527f45524332303a2064656372656173656420616c6c6f77616e63652062656c6f77604482015264207a65726f60d81b6064820152608401610a45565b610d798286868403611c15565b600033610924818585611dcb565b33600090815260786020526040902054156118f55760405162461bcd60e51b815260206004820152601860248201527f5573657220616c726561647920726567697374657265642e00000000000000006044820152606401610a45565b604080516060810182523380825260208083018581526032848601908152600087815260728452868120955186546001600160a01b0319166001600160a01b0390911617865591516001860155516002909401805460ff191660ff909516949094179093559082526078905290812082905560688054916119758361298d565b919050555050565b60006001606854610df29190612a3a565b600080600060675484106119d25760405162461bcd60e51b815260206004820152600b60248201526a24b73b30b634b21024a21760a91b6044820152606401610a45565b6000848152607560209081526040808320815160a0810183528154815260018201546001600160a01b039081169482018590526002830154828501526003830154606083015260049283015460ff1660808301526065549351631015428760e21b815292830194909452939291909116906340550a1c90602401602060405180830381865afa158015611a69573d6000803e3d6000fd5b505050506040513d601f19601f82011682018060405250810190611a8d9190612aa5565b8251602090930151909792965094509092505050565b6066546001600160a01b03163314611acd5760405162461bcd60e51b8152600401610a45906129d2565b60008181526076602090815260409182902060048101805460ff19169055915142815283917f6e04aa702f9af7a9a398f10d27918152df25ac0cdc6d74321b9f7496374387a7910160405180910390a25050565b6000818152607660209081526040808320600101805482518185028101850190935280835260609493830182828015611b8357602002820191906000526020600020905b81546001600160a01b03168152600190910190602001808311611b65575b5093979650505050505050565b6066546001600160a01b031615611be95760405162461bcd60e51b815260206004820152601e60248201527f56616c696461746f72206164647265737320616c7265616479207365742e00006044820152606401610a45565b606580546001600160a01b039092166001600160a01b0319928316811790915560668054909216179055565b6001600160a01b038316611c775760405162461bcd60e51b8152602060048201526024808201527f45524332303a20617070726f76652066726f6d20746865207a65726f206164646044820152637265737360e01b6064820152608401610a45565b6001600160a01b038216611cd85760405162461bcd60e51b815260206004820152602260248201527f45524332303a20617070726f766520746f20746865207a65726f206164647265604482015261737360f01b6064820152608401610a45565b6001600160a01b0383811660008181526034602090815260408083209487168084529482529182902085905590518481527f8c5be1e5ebec7d5bd14f71427d1e84f3dd0314c0f7b2291e5b200ac8c7c3b925910160405180910390a3505050565b6001600160a01b038381166000908152603460209081526040808320938616835292905220546000198114611dc55781811015611db85760405162461bcd60e51b815260206004820152601d60248201527f45524332303a20696e73756666696369656e7420616c6c6f77616e63650000006044820152606401610a45565b611dc58484848403611c15565b50505050565b6001600160a01b038316611e2f5760405162461bcd60e51b815260206004820152602560248201527f45524332303a207472616e736665722066726f6d20746865207a65726f206164604482015264647265737360d81b6064820152608401610a45565b6001600160a01b038216611e915760405162461bcd60e51b815260206004820152602360248201527f45524332303a207472616e7366657220746f20746865207a65726f206164647260448201526265737360e81b6064820152608401610a45565b6001600160a01b03831660009081526033602052604090205481811015611f095760405162461bcd60e51b815260206004820152602660248201527f45524332303a207472616e7366657220616d6f756e7420657863656564732062604482015265616c616e636560d01b6064820152608401610a45565b6001600160a01b03808516600090815260336020526040808220858503905591851681529081208054849290611f409084906129bf565b92505081905550826001600160a01b0316846001600160a01b03167fddf252ad1be2c89b69c2b068fc378daa952ba7f163c4a11628f55a4df523b3ef84604051611f8c91815260200190565b60405180910390a3611dc5565b600054610100900460ff16611fc05760405162461bcd60e51b8152600401610a4590612ac7565b611fca8282612218565b5050565b6001600160a01b0382166120245760405162461bcd60e51b815260206004820152601f60248201527f45524332303a206d696e7420746f20746865207a65726f2061646472657373006044820152606401610a45565b806035600082825461203691906129bf565b90915550506001600160a01b038216600090815260336020526040812080548392906120639084906129bf565b90915550506040518181526001600160a01b038316906000907fddf252ad1be2c89b69c2b068fc378daa952ba7f163c4a11628f55a4df523b3ef9060200160405180910390a35050565b600081116120cd5760405162461bcd60e51b8152600401610a4590612a4d565b806120ed836001600160a01b031660009081526033602052604090205490565b10156121335760405162461bcd60e51b815260206004820152601560248201527424b739bab33334b1b4b2b73a103130b630b731b29760591b6044820152606401610a45565b6001600160a01b038216600090815260796020526040812054908190036121985760405162461bcd60e51b81526020600482015260196024820152782b30b634b230ba37b9103237b2b9903737ba1032bc34b9ba1760391b6044820152606401610a45565b6121a3833084610d60565b50600081815260756020526040812060020180548492906121c59084906129bf565b90915550506000818152607560209081526040918290206002015491518481526001600160a01b038616917fac87f20a77d28ee8bbb58ec87ea8fa968b3393efae1a368fd50b767c2847391c9101611547565b600054610100900460ff1661223f5760405162461bcd60e51b8152600401610a4590612ac7565b603661224b8382612b62565b50603761110c8282612b62565b8280548282559060005260206000209081019282156122ad579160200282015b828111156122ad57825182546001600160a01b0319166001600160a01b03909116178255602090920191600190910190612278565b506122b99291506122f8565b5090565b8280548282559060005260206000209081019282156122ad579160200282015b828111156122ad5782518255916020019190600101906122dd565b5b808211156122b957600081556001016122f9565b60006020808352835180602085015260005b8181101561233b5785810183015185820160400152820161231f565b506000604082860101526040601f19601f8301168501019250505092915050565b6001600160a01b03811681146113e257600080fd5b6000806040838503121561238457600080fd5b823561238f8161235c565b946020939093013593505050565b60008151808452602080850194506020840160005b838110156123d75781516001600160a01b0316875295820195908201906001016123b2565b509495945050505050565b848152836020820152826040820152608060608201526000612407608083018461239d565b9695505050505050565b6000806000806060858703121561242757600080fd5b8435935060208501359250604085013567ffffffffffffffff8082111561244d57600080fd5b818701915087601f83011261246157600080fd5b81358181111561247057600080fd5b8860208260051b850101111561248557600080fd5b95989497505060200194505050565b6020808252825182820181905260009190848201906040850190845b818110156124cc578351835292840192918401916001016124b0565b50909695505050505050565b6000602082840312156124ea57600080fd5b5035919050565b60008060006060848603121561250657600080fd5b83356125118161235c565b925060208401356125218161235c565b929592945050506040919091013590565b60006020828403121561254457600080fd5b813561254f8161235c565b9392505050565b634e487b7160e01b600052604160045260246000fd5b604051601f8201601f1916810167ffffffffffffffff8111828210171561259557612595612556565b604052919050565b600067ffffffffffffffff8211156125b7576125b7612556565b5060051b60200190565b600082601f8301126125d257600080fd5b813560206125e76125e28361259d565b61256c565b8083825260208201915060208460051b87010193508684111561260957600080fd5b602086015b8481101561262e5780356126218161235c565b835291830191830161260e565b509695505050505050565b6000806040838503121561264c57600080fd5b82359150602083013567ffffffffffffffff81111561266a57600080fd5b612676858286016125c1565b9150509250929050565b6000806040838503121561269357600080fd5b823567ffffffffffffffff8111156126aa57600080fd5b6126b6858286016125c1565b92505060208301356126c78161235c565b809150509250929050565b60208152600061254f602083018461239d565b600080604083850312156126f857600080fd5b50508035926020909101359150565b6000806000806080858703121561271d57600080fd5b843567ffffffffffffffff8082111561273557600080fd5b612741888389016125c1565b955060209150818701358181111561275857600080fd5b8701601f8101891361276957600080fd5b80356127776125e28261259d565b81815260059190911b8201840190848101908b83111561279657600080fd5b928501925b828410156127b45783358252928501929085019061279b565b97505050506040870135935060608701359150808211156127d457600080fd5b506127e1878288016125c1565b91505092959194509250565b6000806040838503121561280057600080fd5b823561280b8161235c565b915060208301356126c78161235c565b600181811c9082168061282f57607f821691505b60208210810361284f57634e487b7160e01b600052602260045260246000fd5b50919050565b600082601f83011261286657600080fd5b815160206128766125e28361259d565b8083825260208201915060208460051b87010193508684111561289857600080fd5b602086015b8481101561262e5780516128b08161235c565b835291830191830161289d565b600080600080608085870312156128d357600080fd5b845193506020850151925060408501519150606085015167ffffffffffffffff8111156128ff57600080fd5b6127e187828801612855565b60006020828403121561291d57600080fd5b815167ffffffffffffffff81111561293457600080fd5b61294084828501612855565b949350505050565b634e487b7160e01b600052603260045260246000fd5b828152604060208201526000612940604083018461239d565b634e487b7160e01b600052601160045260246000fd5b60006001820161299f5761299f612977565b5060010190565b6000602082840312156129b857600080fd5b5051919050565b8082018082111561092a5761092a612977565b60208082526026908201527f43616c6c6572206d7573742062652074686520536d6172746e6f6465734d756c6040820152653a34a9b4b39760d11b606082015260800190565b600082612a3557634e487b7160e01b600052601260045260246000fd5b500490565b8181038181111561092a5761092a612977565b60208082526021908201527f416d6f756e74206d7573742062652067726561746572207468616e207a65726f6040820152601760f91b606082015260800190565b808202811582820484141761092a5761092a612977565b600060208284031215612ab757600080fd5b8151801515811461254f57600080fd5b6020808252602b908201527f496e697469616c697a61626c653a20636f6e7472616374206973206e6f74206960408201526a6e697469616c697a696e6760a81b606082015260800190565b601f82111561110c576000816000526020600020601f850160051c81016020861015612b3b5750805b601f850160051c820191505b81811015612b5a57828155600101612b47565b505050505050565b815167ffffffffffffffff811115612b7c57612b7c612556565b612b9081612b8a845461281b565b84612b12565b602080601f831160018114612bc55760008415612bad5750858301515b600019600386901b1c1916600185901b178555612b5a565b600085815260208120601f198616915b82811015612bf457888601518255948401946001909101908401612bd5565b5085821015612c125787850151600019600388901b60f8161c191681555b5050505050600190811b0190555056fea264697066735822122064640d9682f6a452bab39ac6beeeac26a6604dcd9f2b822cd49f31bb73ab974c64736f6c63430008190033",
  "bytecodeSha1": "88357280145c49481fa9fb18dafdcbadbe227df3",
  "compiler": {
    "evm_version": "istanbul",
    "optimizer": {
      "enabled": true,
      "runs": 200
    },
    "version": "0.8.25+commit.b61c2a91"
  },
  "contractName": "SmartnodesCore",
  "language": "Solidity",
  "natspec": {
    "details": "An ERC20 contract for managing off-chain networks",
    "kind": "dev",
    "methods": {
      "allowance(address,address)": {
        "details": "See {IERC20-allowance}."
      },
      "approve(address,uint256)": {
        "details": "See {IERC20-approve}. NOTE: If `amount` is the maximum `uint256`, the allowance is not updated on `transferFrom`. This is semantically equivalent to an infinite approval. Requirements: - `spender` cannot be the zero address."
      },
      "balanceOf(address)": {
        "details": "See {IERC20-balanceOf}."
      },
      "createUser(bytes32)": {
        "details": "Create a User, limit one per address & public key hash (RSA)"
      },
      "createValidator(bytes32,uint256)": {
        "details": "Create a Validator, limit one per address & public key hash (RSA), requires locking up sno"
      },
      "decimals()": {
        "details": "Returns the number of decimals used to get its user representation. For example, if `decimals` equals `2`, a balance of `505` tokens should be displayed to a user as `5.05` (`505 / 10 ** 2`). Tokens usually opt for a value of 18, imitating the relationship between Ether and Wei. This is the value {ERC20} uses, unless this function is overridden; NOTE: This information is only used for _display_ purposes: it in no way affects any of the arithmetic of the contract, including {IERC20-balanceOf} and {IERC20-transfer}."
      },
      "decreaseAllowance(address,uint256)": {
        "details": "Atomically decreases the allowance granted to `spender` by the caller. This is an alternative to {approve} that can be used as a mitigation for problems described in {IERC20-approve}. Emits an {Approval} event indicating the updated allowance. Requirements: - `spender` cannot be the zero address. - `spender` must have allowance for the caller of at least `subtractedValue`."
      },
      "increaseAllowance(address,uint256)": {
        "details": "Atomically increases the allowance granted to `spender` by the caller. This is an alternative to {approve} that can be used as a mitigation for problems described in {IERC20-approve}. Emits an {Approval} event indicating the updated allowance. Requirements: - `spender` cannot be the zero address."
      },
      "lockTokens(uint256)": {
        "details": "Validator token unlocking, 30 day withdrawal period."
      },
      "mintTokens(address[],uint256[],uint256,address[])": {
        "details": "Mint tokens for updating state rewards, distribute 40/60 among validators and workers Updates the emission rate and halving accordingly"
      },
      "name()": {
        "details": "Returns the name of the token."
      },
      "symbol()": {
        "details": "Returns the symbol of the token, usually a shorter version of the name."
      },
      "totalSupply()": {
        "details": "See {IERC20-totalSupply}."
      },
      "transfer(address,uint256)": {
        "details": "See {IERC20-transfer}. Requirements: - `to` cannot be the zero address. - the caller must have a balance of at least `amount`."
      },
      "transferFrom(address,address,uint256)": {
        "details": "See {IERC20-transferFrom}. Emits an {Approval} event indicating the updated allowance. This is not required by the EIP. See the note at the beginning of {ERC20}. NOTE: Does not update the allowance if the current allowance is the maximum `uint256`. Requirements: - `from` and `to` cannot be the zero address. - `from` must have a balance of at least `amount`. - the caller must have allowance for ``from``'s tokens of at least `amount`."
      }
    },
    "title": "SmartNodes",
    "version": 1
  },
  "opcodes": "PUSH1 0x80 PUSH1 0x40 MSTORE CALLVALUE DUP1 ISZERO PUSH2 0x10 JUMPI PUSH1 0x0 DUP1 REVERT JUMPDEST POP PUSH1 0x4 CALLDATASIZE LT PUSH2 0x327 JUMPI PUSH1 0x0 CALLDATALOAD PUSH1 0xE0 SHR DUP1 PUSH4 0x7071688A GT PUSH2 0x1B8 JUMPI DUP1 PUSH4 0xBA3F5443 GT PUSH2 0x104 JUMPI DUP1 PUSH4 0xD057FC19 GT PUSH2 0xA2 JUMPI DUP1 PUSH4 0xD8DF5DC1 GT PUSH2 0x7C JUMPI DUP1 PUSH4 0xD8DF5DC1 EQ PUSH2 0x826 JUMPI DUP1 PUSH4 0xDD62ED3E EQ PUSH2 0x82F JUMPI DUP1 PUSH4 0xF0C37A59 EQ PUSH2 0x868 JUMPI DUP1 PUSH4 0xF79621BD EQ PUSH2 0x871 JUMPI PUSH1 0x0 DUP1 REVERT JUMPDEST DUP1 PUSH4 0xD057FC19 EQ PUSH2 0x7D4 JUMPI DUP1 PUSH4 0xD2D49C4B EQ PUSH2 0x7F4 JUMPI DUP1 PUSH4 0xD3EECE97 EQ PUSH2 0x7FD JUMPI PUSH1 0x0 DUP1 REVERT JUMPDEST DUP1 PUSH4 0xC5AB2241 GT PUSH2 0xDE JUMPI DUP1 PUSH4 0xC5AB2241 EQ PUSH2 0x74B JUMPI DUP1 PUSH4 0xC8DF245A EQ PUSH2 0x754 JUMPI DUP1 PUSH4 0xCDF64A76 EQ PUSH2 0x75D JUMPI DUP1 PUSH4 0xCEA6AB98 EQ PUSH2 0x770 JUMPI PUSH1 0x0 DUP1 REVERT JUMPDEST DUP1 PUSH4 0xBA3F5443 EQ PUSH2 0x71D JUMPI DUP1 PUSH4 0xBC1D82A1 EQ PUSH2 0x730 JUMPI DUP1 PUSH4 0xC0A77DA9 EQ PUSH2 0x743 JUMPI PUSH1 0x0 DUP1 REVERT JUMPDEST DUP1 PUSH4 0xA3273D22 GT PUSH2 0x171 JUMPI DUP1 PUSH4 0xABF7BFD8 GT PUSH2 0x14B JUMPI DUP1 PUSH4 0xABF7BFD8 EQ PUSH2 0x6C0 JUMPI DUP1 PUSH4 0xB115F50D EQ PUSH2 0x6D3 JUMPI DUP1 PUSH4 0xB5CB15F7 EQ PUSH2 0x6DC JUMPI DUP1 PUSH4 0xB7797537 EQ PUSH2 0x6E4 JUMPI PUSH1 0x0 DUP1 REVERT JUMPDEST DUP1 PUSH4 0xA3273D22 EQ PUSH2 0x687 JUMPI DUP1 PUSH4 0xA457C2D7 EQ PUSH2 0x69A JUMPI DUP1 PUSH4 0xA9059CBB EQ PUSH2 0x6AD JUMPI PUSH1 0x0 DUP1 REVERT JUMPDEST DUP1 PUSH4 0x7071688A EQ PUSH2 0x629 JUMPI DUP1 PUSH4 0x70A08231 EQ PUSH2 0x631 JUMPI DUP1 PUSH4 0x7C405325 EQ PUSH2 0x65A JUMPI DUP1 PUSH4 0x8F029D5E EQ PUSH2 0x66D JUMPI DUP1 PUSH4 0x95D89B41 EQ PUSH2 0x676 JUMPI DUP1 PUSH4 0x96AFC450 EQ PUSH2 0x67E JUMPI PUSH1 0x0 DUP1 REVERT JUMPDEST DUP1 PUSH4 0x37DEEA70 GT PUSH2 0x277 JUMPI DUP1 PUSH4 0x4966D086 GT PUSH2 0x230 JUMPI DUP1 PUSH4 0x50355D76 GT PUSH2 0x20A JUMPI DUP1 PUSH4 0x50355D76 EQ PUSH2 0x5F2 JUMPI DUP1 PUSH4 0x62FB00FC EQ PUSH2 0x5FB JUMPI DUP1 PUSH4 0x6C9C2FAF EQ PUSH2 0x60E JUMPI DUP1 PUSH4 0x6E27D889 EQ PUSH2 0x616 JUMPI PUSH1 0x0 DUP1 REVERT JUMPDEST DUP1 PUSH4 0x4966D086 EQ PUSH2 0x58A JUMPI DUP1 PUSH4 0x497DFE63 EQ PUSH2 0x59F JUMPI DUP1 PUSH4 0x4A4FBEEC EQ PUSH2 0x5B2 JUMPI PUSH1 0x0 DUP1 REVERT JUMPDEST DUP1 PUSH4 0x37DEEA70 EQ PUSH2 0x4B1 JUMPI DUP1 PUSH4 0x38E56261 EQ PUSH2 0x4B9 JUMPI DUP1 PUSH4 0x38ED7CFC EQ PUSH2 0x4FA JUMPI DUP1 PUSH4 0x39509351 EQ PUSH2 0x54F JUMPI DUP1 PUSH4 0x43A8D914 EQ PUSH2 0x562 JUMPI DUP1 PUSH4 0x462D0B2E EQ PUSH2 0x575 JUMPI PUSH1 0x0 DUP1 REVERT JUMPDEST DUP1 PUSH4 0x20D3A0B4 GT PUSH2 0x2E4 JUMPI DUP1 PUSH4 0x27764547 GT PUSH2 0x2BE JUMPI DUP1 PUSH4 0x27764547 EQ PUSH2 0x3F3 JUMPI DUP1 PUSH4 0x313CE567 EQ PUSH2 0x413 JUMPI DUP1 PUSH4 0x32CB6B0C EQ PUSH2 0x422 JUMPI DUP1 PUSH4 0x35AA2E44 EQ PUSH2 0x434 JUMPI PUSH1 0x0 DUP1 REVERT JUMPDEST DUP1 PUSH4 0x20D3A0B4 EQ PUSH2 0x3C4 JUMPI DUP1 PUSH4 0x21B0908B EQ PUSH2 0x3CD JUMPI DUP1 PUSH4 0x23B872DD EQ PUSH2 0x3E0 JUMPI PUSH1 0x0 DUP1 REVERT JUMPDEST DUP1 PUSH4 0x6FDDE03 EQ PUSH2 0x32C JUMPI DUP1 PUSH4 0x8AC5256 EQ PUSH2 0x34A JUMPI DUP1 PUSH4 0x95EA7B3 EQ PUSH2 0x361 JUMPI DUP1 PUSH4 0x18160DDD EQ PUSH2 0x384 JUMPI DUP1 PUSH4 0x1865C57D EQ PUSH2 0x38C JUMPI DUP1 PUSH4 0x1D4E7793 EQ PUSH2 0x3A4 JUMPI JUMPDEST PUSH1 0x0 DUP1 REVERT JUMPDEST PUSH2 0x334 PUSH2 0x884 JUMP JUMPDEST PUSH1 0x40 MLOAD PUSH2 0x341 SWAP2 SWAP1 PUSH2 0x230D JUMP JUMPDEST PUSH1 0x40 MLOAD DUP1 SWAP2 SUB SWAP1 RETURN JUMPDEST PUSH2 0x353 PUSH1 0x6C SLOAD DUP2 JUMP JUMPDEST PUSH1 0x40 MLOAD SWAP1 DUP2 MSTORE PUSH1 0x20 ADD PUSH2 0x341 JUMP JUMPDEST PUSH2 0x374 PUSH2 0x36F CALLDATASIZE PUSH1 0x4 PUSH2 0x2371 JUMP JUMPDEST PUSH2 0x916 JUMP JUMPDEST PUSH1 0x40 MLOAD SWAP1 ISZERO ISZERO DUP2 MSTORE PUSH1 0x20 ADD PUSH2 0x341 JUMP JUMPDEST PUSH1 0x35 SLOAD PUSH2 0x353 JUMP JUMPDEST PUSH2 0x394 PUSH2 0x930 JUMP JUMPDEST PUSH1 0x40 MLOAD PUSH2 0x341 SWAP5 SWAP4 SWAP3 SWAP2 SWAP1 PUSH2 0x23E2 JUMP JUMPDEST PUSH2 0x3B7 PUSH2 0x3B2 CALLDATASIZE PUSH1 0x4 PUSH2 0x2411 JUMP JUMPDEST PUSH2 0x9C0 JUMP JUMPDEST PUSH1 0x40 MLOAD PUSH2 0x341 SWAP2 SWAP1 PUSH2 0x2494 JUMP JUMPDEST PUSH2 0x353 PUSH1 0x70 SLOAD DUP2 JUMP JUMPDEST PUSH2 0x353 PUSH2 0x3DB CALLDATASIZE PUSH1 0x4 PUSH2 0x24D8 JUMP JUMPDEST PUSH2 0xD3F JUMP JUMPDEST PUSH2 0x374 PUSH2 0x3EE CALLDATASIZE PUSH1 0x4 PUSH2 0x24F1 JUMP JUMPDEST PUSH2 0xD60 JUMP JUMPDEST PUSH2 0x353 PUSH2 0x401 CALLDATASIZE PUSH1 0x4 PUSH2 0x2532 JUMP JUMPDEST PUSH1 0x79 PUSH1 0x20 MSTORE PUSH1 0x0 SWAP1 DUP2 MSTORE PUSH1 0x40 SWAP1 KECCAK256 SLOAD DUP2 JUMP JUMPDEST PUSH1 0x40 MLOAD PUSH1 0x12 DUP2 MSTORE PUSH1 0x20 ADD PUSH2 0x341 JUMP JUMPDEST PUSH2 0x353 PUSH11 0x115EEC47F6CF7E35000000 DUP2 JUMP JUMPDEST PUSH2 0x47E PUSH2 0x442 CALLDATASIZE PUSH1 0x4 PUSH2 0x24D8 JUMP JUMPDEST PUSH1 0x75 PUSH1 0x20 MSTORE PUSH1 0x0 SWAP1 DUP2 MSTORE PUSH1 0x40 SWAP1 KECCAK256 DUP1 SLOAD PUSH1 0x1 DUP3 ADD SLOAD PUSH1 0x2 DUP4 ADD SLOAD PUSH1 0x3 DUP5 ADD SLOAD PUSH1 0x4 SWAP1 SWAP5 ADD SLOAD SWAP3 SWAP4 PUSH1 0x1 PUSH1 0x1 PUSH1 0xA0 SHL SUB SWAP1 SWAP3 AND SWAP3 SWAP1 SWAP2 SWAP1 PUSH1 0xFF AND DUP6 JUMP JUMPDEST PUSH1 0x40 DUP1 MLOAD SWAP6 DUP7 MSTORE PUSH1 0x1 PUSH1 0x1 PUSH1 0xA0 SHL SUB SWAP1 SWAP5 AND PUSH1 0x20 DUP7 ADD MSTORE SWAP3 DUP5 ADD SWAP2 SWAP1 SWAP2 MSTORE PUSH1 0x60 DUP4 ADD MSTORE PUSH1 0xFF AND PUSH1 0x80 DUP3 ADD MSTORE PUSH1 0xA0 ADD PUSH2 0x341 JUMP JUMPDEST PUSH2 0x353 PUSH2 0xD84 JUMP JUMPDEST PUSH2 0x4E2 PUSH2 0x4C7 CALLDATASIZE PUSH1 0x4 PUSH2 0x24D8 JUMP JUMPDEST PUSH1 0x74 PUSH1 0x20 MSTORE PUSH1 0x0 SWAP1 DUP2 MSTORE PUSH1 0x40 SWAP1 KECCAK256 SLOAD PUSH1 0x1 PUSH1 0x1 PUSH1 0xA0 SHL SUB AND DUP2 JUMP JUMPDEST PUSH1 0x40 MLOAD PUSH1 0x1 PUSH1 0x1 PUSH1 0xA0 SHL SUB SWAP1 SWAP2 AND DUP2 MSTORE PUSH1 0x20 ADD PUSH2 0x341 JUMP JUMPDEST PUSH2 0x530 PUSH2 0x508 CALLDATASIZE PUSH1 0x4 PUSH2 0x24D8 JUMP JUMPDEST PUSH1 0x76 PUSH1 0x20 MSTORE PUSH1 0x0 SWAP1 DUP2 MSTORE PUSH1 0x40 SWAP1 KECCAK256 DUP1 SLOAD PUSH1 0x4 SWAP1 SWAP2 ADD SLOAD PUSH1 0x1 PUSH1 0x1 PUSH1 0xA0 SHL SUB SWAP1 SWAP2 AND SWAP1 PUSH1 0xFF AND DUP3 JUMP JUMPDEST PUSH1 0x40 DUP1 MLOAD PUSH1 0x1 PUSH1 0x1 PUSH1 0xA0 SHL SUB SWAP1 SWAP4 AND DUP4 MSTORE SWAP1 ISZERO ISZERO PUSH1 0x20 DUP4 ADD MSTORE ADD PUSH2 0x341 JUMP JUMPDEST PUSH2 0x374 PUSH2 0x55D CALLDATASIZE PUSH1 0x4 PUSH2 0x2371 JUMP JUMPDEST PUSH2 0xDF7 JUMP JUMPDEST PUSH2 0x3B7 PUSH2 0x570 CALLDATASIZE PUSH1 0x4 PUSH2 0x2639 JUMP JUMPDEST PUSH2 0xE36 JUMP JUMPDEST PUSH2 0x588 PUSH2 0x583 CALLDATASIZE PUSH1 0x4 PUSH2 0x2680 JUMP JUMPDEST PUSH2 0xF60 JUMP JUMPDEST STOP JUMPDEST PUSH2 0x592 PUSH2 0x1111 JUMP JUMPDEST PUSH1 0x40 MLOAD PUSH2 0x341 SWAP2 SWAP1 PUSH2 0x26D2 JUMP JUMPDEST PUSH2 0x588 PUSH2 0x5AD CALLDATASIZE PUSH1 0x4 PUSH2 0x26E5 JUMP JUMPDEST PUSH2 0x1183 JUMP JUMPDEST PUSH2 0x374 PUSH2 0x5C0 CALLDATASIZE PUSH1 0x4 PUSH2 0x2532 JUMP JUMPDEST PUSH1 0x1 PUSH1 0x1 PUSH1 0xA0 SHL SUB AND PUSH1 0x0 SWAP1 DUP2 MSTORE PUSH1 0x79 PUSH1 0x20 SWAP1 DUP2 MSTORE PUSH1 0x40 DUP1 DUP4 KECCAK256 SLOAD PUSH1 0x6F SLOAD SWAP1 DUP5 MSTORE PUSH1 0x75 SWAP1 SWAP3 MSTORE SWAP1 SWAP2 KECCAK256 PUSH1 0x2 ADD SLOAD LT ISZERO SWAP1 JUMP JUMPDEST PUSH2 0x353 PUSH1 0x69 SLOAD DUP2 JUMP JUMPDEST PUSH2 0x353 PUSH2 0x609 CALLDATASIZE PUSH1 0x4 PUSH2 0x2532 JUMP JUMPDEST PUSH2 0x1321 JUMP JUMPDEST PUSH2 0x353 PUSH2 0x1398 JUMP JUMPDEST PUSH2 0x588 PUSH2 0x624 CALLDATASIZE PUSH1 0x4 PUSH2 0x24D8 JUMP JUMPDEST PUSH2 0x13D8 JUMP JUMPDEST PUSH2 0x353 PUSH2 0x13E5 JUMP JUMPDEST PUSH2 0x353 PUSH2 0x63F CALLDATASIZE PUSH1 0x4 PUSH2 0x2532 JUMP JUMPDEST PUSH1 0x1 PUSH1 0x1 PUSH1 0xA0 SHL SUB AND PUSH1 0x0 SWAP1 DUP2 MSTORE PUSH1 0x33 PUSH1 0x20 MSTORE PUSH1 0x40 SWAP1 KECCAK256 SLOAD SWAP1 JUMP JUMPDEST PUSH2 0x588 PUSH2 0x668 CALLDATASIZE PUSH1 0x4 PUSH2 0x24D8 JUMP JUMPDEST PUSH2 0x13F6 JUMP JUMPDEST PUSH2 0x353 PUSH1 0x67 SLOAD DUP2 JUMP JUMPDEST PUSH2 0x334 PUSH2 0x1607 JUMP JUMPDEST PUSH2 0x353 PUSH1 0x6E SLOAD DUP2 JUMP JUMPDEST PUSH2 0x588 PUSH2 0x695 CALLDATASIZE PUSH1 0x4 PUSH2 0x2707 JUMP JUMPDEST PUSH2 0x1616 JUMP JUMPDEST PUSH2 0x374 PUSH2 0x6A8 CALLDATASIZE PUSH1 0x4 PUSH2 0x2371 JUMP JUMPDEST PUSH2 0x17F8 JUMP JUMPDEST PUSH2 0x374 PUSH2 0x6BB CALLDATASIZE PUSH1 0x4 PUSH2 0x2371 JUMP JUMPDEST PUSH2 0x188A JUMP JUMPDEST PUSH2 0x588 PUSH2 0x6CE CALLDATASIZE PUSH1 0x4 PUSH2 0x24D8 JUMP JUMPDEST PUSH2 0x1898 JUMP JUMPDEST PUSH2 0x353 PUSH1 0x71 SLOAD DUP2 JUMP JUMPDEST PUSH2 0x353 PUSH2 0x197D JUMP JUMPDEST PUSH2 0x6F7 PUSH2 0x6F2 CALLDATASIZE PUSH1 0x4 PUSH2 0x24D8 JUMP JUMPDEST PUSH2 0x198E JUMP JUMPDEST PUSH1 0x40 DUP1 MLOAD SWAP4 ISZERO ISZERO DUP5 MSTORE PUSH1 0x20 DUP5 ADD SWAP3 SWAP1 SWAP3 MSTORE PUSH1 0x1 PUSH1 0x1 PUSH1 0xA0 SHL SUB AND SWAP1 DUP3 ADD MSTORE PUSH1 0x60 ADD PUSH2 0x341 JUMP JUMPDEST PUSH2 0x588 PUSH2 0x72B CALLDATASIZE PUSH1 0x4 PUSH2 0x24D8 JUMP JUMPDEST PUSH2 0x1AA3 JUMP JUMPDEST PUSH2 0x592 PUSH2 0x73E CALLDATASIZE PUSH1 0x4 PUSH2 0x24D8 JUMP JUMPDEST PUSH2 0x1B21 JUMP JUMPDEST PUSH1 0x6E SLOAD PUSH2 0x353 JUMP JUMPDEST PUSH2 0x353 PUSH1 0x6B SLOAD DUP2 JUMP JUMPDEST PUSH2 0x353 PUSH1 0x6D SLOAD DUP2 JUMP JUMPDEST PUSH2 0x588 PUSH2 0x76B CALLDATASIZE PUSH1 0x4 PUSH2 0x2532 JUMP JUMPDEST PUSH2 0x1B90 JUMP JUMPDEST PUSH2 0x7AC PUSH2 0x77E CALLDATASIZE PUSH1 0x4 PUSH2 0x24D8 JUMP JUMPDEST PUSH1 0x72 PUSH1 0x20 MSTORE PUSH1 0x0 SWAP1 DUP2 MSTORE PUSH1 0x40 SWAP1 KECCAK256 DUP1 SLOAD PUSH1 0x1 DUP3 ADD SLOAD PUSH1 0x2 SWAP1 SWAP3 ADD SLOAD PUSH1 0x1 PUSH1 0x1 PUSH1 0xA0 SHL SUB SWAP1 SWAP2 AND SWAP2 SWAP1 PUSH1 0xFF AND DUP4 JUMP JUMPDEST PUSH1 0x40 DUP1 MLOAD PUSH1 0x1 PUSH1 0x1 PUSH1 0xA0 SHL SUB SWAP1 SWAP5 AND DUP5 MSTORE PUSH1 0x20 DUP5 ADD SWAP3 SWAP1 SWAP3 MSTORE PUSH1 0xFF AND SWAP1 DUP3 ADD MSTORE PUSH1 0x60 ADD PUSH2 0x341 JUMP JUMPDEST PUSH2 0x353 PUSH2 0x7E2 CALLDATASIZE PUSH1 0x4 PUSH2 0x2532 JUMP JUMPDEST PUSH1 0x78 PUSH1 0x20 MSTORE PUSH1 0x0 SWAP1 DUP2 MSTORE PUSH1 0x40 SWAP1 KECCAK256 SLOAD DUP2 JUMP JUMPDEST PUSH2 0x353 PUSH1 0x6A SLOAD DUP2 JUMP JUMPDEST PUSH2 0x4E2 PUSH2 0x80B CALLDATASIZE PUSH1 0x4 PUSH2 0x24D8 JUMP JUMPDEST PUSH1 0x73 PUSH1 0x20 MSTORE PUSH1 0x0 SWAP1 DUP2 MSTORE PUSH1 0x40 SWAP1 KECCAK256 SLOAD PUSH1 0x1 PUSH1 0x1 PUSH1 0xA0 SHL SUB AND DUP2 JUMP JUMPDEST PUSH2 0x353 PUSH1 0x6F SLOAD DUP2 JUMP JUMPDEST PUSH2 0x353 PUSH2 0x83D CALLDATASIZE PUSH1 0x4 PUSH2 0x27ED JUMP JUMPDEST PUSH1 0x1 PUSH1 0x1 PUSH1 0xA0 SHL SUB SWAP2 DUP3 AND PUSH1 0x0 SWAP1 DUP2 MSTORE PUSH1 0x34 PUSH1 0x20 SWAP1 DUP2 MSTORE PUSH1 0x40 DUP1 DUP4 KECCAK256 SWAP4 SWAP1 SWAP5 AND DUP3 MSTORE SWAP2 SWAP1 SWAP2 MSTORE KECCAK256 SLOAD SWAP1 JUMP JUMPDEST PUSH2 0x353 PUSH1 0x68 SLOAD DUP2 JUMP JUMPDEST PUSH1 0x66 SLOAD PUSH2 0x4E2 SWAP1 PUSH1 0x1 PUSH1 0x1 PUSH1 0xA0 SHL SUB AND DUP2 JUMP JUMPDEST PUSH1 0x60 PUSH1 0x36 DUP1 SLOAD PUSH2 0x893 SWAP1 PUSH2 0x281B JUMP JUMPDEST DUP1 PUSH1 0x1F ADD PUSH1 0x20 DUP1 SWAP2 DIV MUL PUSH1 0x20 ADD PUSH1 0x40 MLOAD SWAP1 DUP2 ADD PUSH1 0x40 MSTORE DUP1 SWAP3 SWAP2 SWAP1 DUP2 DUP2 MSTORE PUSH1 0x20 ADD DUP3 DUP1 SLOAD PUSH2 0x8BF SWAP1 PUSH2 0x281B JUMP JUMPDEST DUP1 ISZERO PUSH2 0x90C JUMPI DUP1 PUSH1 0x1F LT PUSH2 0x8E1 JUMPI PUSH2 0x100 DUP1 DUP4 SLOAD DIV MUL DUP4 MSTORE SWAP2 PUSH1 0x20 ADD SWAP2 PUSH2 0x90C JUMP JUMPDEST DUP3 ADD SWAP2 SWAP1 PUSH1 0x0 MSTORE PUSH1 0x20 PUSH1 0x0 KECCAK256 SWAP1 JUMPDEST DUP2 SLOAD DUP2 MSTORE SWAP1 PUSH1 0x1 ADD SWAP1 PUSH1 0x20 ADD DUP1 DUP4 GT PUSH2 0x8EF JUMPI DUP3 SWAP1 SUB PUSH1 0x1F AND DUP3 ADD SWAP2 JUMPDEST POP POP POP POP POP SWAP1 POP SWAP1 JUMP JUMPDEST PUSH1 0x0 CALLER PUSH2 0x924 DUP2 DUP6 DUP6 PUSH2 0x1C15 JUMP JUMPDEST PUSH1 0x1 SWAP2 POP POP JUMPDEST SWAP3 SWAP2 POP POP JUMP JUMPDEST PUSH1 0x0 DUP1 PUSH1 0x0 PUSH1 0x60 PUSH1 0x65 PUSH1 0x0 SWAP1 SLOAD SWAP1 PUSH2 0x100 EXP SWAP1 DIV PUSH1 0x1 PUSH1 0x1 PUSH1 0xA0 SHL SUB AND PUSH1 0x1 PUSH1 0x1 PUSH1 0xA0 SHL SUB AND PUSH4 0x1865C57D PUSH1 0x40 MLOAD DUP2 PUSH4 0xFFFFFFFF AND PUSH1 0xE0 SHL DUP2 MSTORE PUSH1 0x4 ADD PUSH1 0x0 PUSH1 0x40 MLOAD DUP1 DUP4 SUB DUP2 DUP7 GAS STATICCALL ISZERO DUP1 ISZERO PUSH2 0x98A JUMPI RETURNDATASIZE PUSH1 0x0 DUP1 RETURNDATACOPY RETURNDATASIZE PUSH1 0x0 REVERT JUMPDEST POP POP POP POP PUSH1 0x40 MLOAD RETURNDATASIZE PUSH1 0x0 DUP3 RETURNDATACOPY PUSH1 0x1F RETURNDATASIZE SWAP1 DUP2 ADD PUSH1 0x1F NOT AND DUP3 ADD PUSH1 0x40 MSTORE PUSH2 0x9B2 SWAP2 SWAP1 DUP2 ADD SWAP1 PUSH2 0x28BD JUMP JUMPDEST SWAP4 POP SWAP4 POP SWAP4 POP SWAP4 POP SWAP1 SWAP2 SWAP3 SWAP4 JUMP JUMPDEST PUSH1 0x66 SLOAD PUSH1 0x60 SWAP1 PUSH1 0x1 PUSH1 0x1 PUSH1 0xA0 SHL SUB AND CALLER EQ PUSH2 0xA05 JUMPI CALLER PUSH1 0x0 SWAP1 DUP2 MSTORE PUSH1 0x78 PUSH1 0x20 MSTORE PUSH1 0x40 SWAP1 KECCAK256 SLOAD PUSH2 0xA05 JUMPI PUSH2 0x9F2 DUP6 PUSH2 0x1898 JUMP JUMPDEST CALLER PUSH1 0x0 SWAP1 DUP2 MSTORE PUSH1 0x78 PUSH1 0x20 MSTORE PUSH1 0x40 SWAP1 KECCAK256 SLOAD SWAP5 POP JUMPDEST DUP5 PUSH2 0xA4E JUMPI PUSH1 0x40 MLOAD PUSH3 0x461BCD PUSH1 0xE5 SHL DUP2 MSTORE PUSH1 0x20 PUSH1 0x4 DUP3 ADD MSTORE PUSH1 0x14 PUSH1 0x24 DUP3 ADD MSTORE PUSH20 0x55736572206E6F74207265676973746572656421 PUSH1 0x60 SHL PUSH1 0x44 DUP3 ADD MSTORE PUSH1 0x64 ADD JUMPDEST PUSH1 0x40 MLOAD DUP1 SWAP2 SUB SWAP1 REVERT JUMPDEST PUSH1 0x0 DUP5 DUP2 MSTORE PUSH1 0x76 PUSH1 0x20 MSTORE PUSH1 0x40 SWAP1 KECCAK256 SLOAD PUSH1 0x1 PUSH1 0x1 PUSH1 0xA0 SHL SUB AND ISZERO PUSH2 0xAAA JUMPI PUSH1 0x40 MLOAD PUSH3 0x461BCD PUSH1 0xE5 SHL DUP2 MSTORE PUSH1 0x20 PUSH1 0x4 DUP3 ADD MSTORE PUSH1 0x14 PUSH1 0x24 DUP3 ADD MSTORE PUSH20 0x2537B11030B63932B0B23C9031B932B0BA32B217 PUSH1 0x61 SHL PUSH1 0x44 DUP3 ADD MSTORE PUSH1 0x64 ADD PUSH2 0xA45 JUMP JUMPDEST PUSH1 0x65 SLOAD PUSH1 0x40 MLOAD PUSH4 0x71547B79 PUSH1 0xE1 SHL DUP2 MSTORE PUSH1 0x1 PUSH1 0x4 DUP3 ADD MSTORE PUSH1 0x0 SWAP2 PUSH1 0x1 PUSH1 0x1 PUSH1 0xA0 SHL SUB AND SWAP1 PUSH4 0xE2A8F6F2 SWAP1 PUSH1 0x24 ADD PUSH1 0x0 PUSH1 0x40 MLOAD DUP1 DUP4 SUB DUP2 DUP7 GAS STATICCALL ISZERO DUP1 ISZERO PUSH2 0xAF4 JUMPI RETURNDATASIZE PUSH1 0x0 DUP1 RETURNDATACOPY RETURNDATASIZE PUSH1 0x0 REVERT JUMPDEST POP POP POP POP PUSH1 0x40 MLOAD RETURNDATASIZE PUSH1 0x0 DUP3 RETURNDATACOPY PUSH1 0x1F RETURNDATASIZE SWAP1 DUP2 ADD PUSH1 0x1F NOT AND DUP3 ADD PUSH1 0x40 MSTORE PUSH2 0xB1C SWAP2 SWAP1 DUP2 ADD SWAP1 PUSH2 0x290B JUMP JUMPDEST PUSH1 0x40 DUP1 MLOAD PUSH1 0x1 DUP1 DUP3 MSTORE DUP2 DUP4 ADD SWAP1 SWAP3 MSTORE SWAP2 SWAP3 POP PUSH1 0x0 SWAP2 SWAP1 PUSH1 0x20 DUP1 DUP4 ADD SWAP1 DUP1 CALLDATASIZE DUP4 CALLDATACOPY ADD SWAP1 POP POP SWAP1 POP PUSH1 0x0 JUMPDEST DUP3 MLOAD DUP2 LT ISZERO PUSH2 0xBB2 JUMPI PUSH1 0x79 PUSH1 0x0 DUP5 DUP4 DUP2 MLOAD DUP2 LT PUSH2 0xB64 JUMPI PUSH2 0xB64 PUSH2 0x2948 JUMP JUMPDEST PUSH1 0x20 MUL PUSH1 0x20 ADD ADD MLOAD PUSH1 0x1 PUSH1 0x1 PUSH1 0xA0 SHL SUB AND PUSH1 0x1 PUSH1 0x1 PUSH1 0xA0 SHL SUB AND DUP2 MSTORE PUSH1 0x20 ADD SWAP1 DUP2 MSTORE PUSH1 0x20 ADD PUSH1 0x0 KECCAK256 SLOAD DUP3 DUP3 DUP2 MLOAD DUP2 LT PUSH2 0xB9F JUMPI PUSH2 0xB9F PUSH2 0x2948 JUMP JUMPDEST PUSH1 0x20 SWAP1 DUP2 MUL SWAP2 SWAP1 SWAP2 ADD ADD MSTORE PUSH1 0x1 ADD PUSH2 0xB45 JUMP JUMPDEST POP PUSH1 0x40 DUP1 MLOAD PUSH1 0xA0 DUP2 ADD DUP3 MSTORE CALLER DUP2 MSTORE PUSH1 0x20 DUP2 ADD DUP5 SWAP1 MSTORE SWAP1 DUP2 ADD DUP6 PUSH8 0xFFFFFFFFFFFFFFFF DUP2 GT ISZERO PUSH2 0xBE3 JUMPI PUSH2 0xBE3 PUSH2 0x2556 JUMP JUMPDEST PUSH1 0x40 MLOAD SWAP1 DUP1 DUP3 MSTORE DUP1 PUSH1 0x20 MUL PUSH1 0x20 ADD DUP3 ADD PUSH1 0x40 MSTORE DUP1 ISZERO PUSH2 0xC0C JUMPI DUP2 PUSH1 0x20 ADD PUSH1 0x20 DUP3 MUL DUP1 CALLDATASIZE DUP4 CALLDATACOPY ADD SWAP1 POP JUMPDEST POP DUP2 MSTORE PUSH1 0x20 ADD DUP7 DUP7 DUP1 DUP1 PUSH1 0x20 MUL PUSH1 0x20 ADD PUSH1 0x40 MLOAD SWAP1 DUP2 ADD PUSH1 0x40 MSTORE DUP1 SWAP4 SWAP3 SWAP2 SWAP1 DUP2 DUP2 MSTORE PUSH1 0x20 ADD DUP4 DUP4 PUSH1 0x20 MUL DUP1 DUP3 DUP5 CALLDATACOPY PUSH1 0x0 SWAP3 ADD DUP3 SWAP1 MSTORE POP SWAP4 DUP6 MSTORE POP POP PUSH1 0x1 PUSH1 0x20 SWAP4 DUP5 ADD DUP2 SWAP1 MSTORE DUP11 DUP4 MSTORE PUSH1 0x76 DUP5 MSTORE PUSH1 0x40 SWAP1 SWAP3 KECCAK256 DUP5 MLOAD DUP2 SLOAD PUSH1 0x1 PUSH1 0x1 PUSH1 0xA0 SHL SUB NOT AND PUSH1 0x1 PUSH1 0x1 PUSH1 0xA0 SHL SUB SWAP1 SWAP2 AND OR DUP2 SSTORE DUP5 DUP5 ADD MLOAD DUP1 MLOAD SWAP2 SWAP5 PUSH2 0xC8F SWAP5 DUP7 ADD SWAP4 POP ADD SWAP1 PUSH2 0x2258 JUMP JUMPDEST POP PUSH1 0x40 DUP3 ADD MLOAD DUP1 MLOAD PUSH2 0xCAB SWAP2 PUSH1 0x2 DUP5 ADD SWAP2 PUSH1 0x20 SWAP1 SWAP2 ADD SWAP1 PUSH2 0x2258 JUMP JUMPDEST POP PUSH1 0x60 DUP3 ADD MLOAD DUP1 MLOAD PUSH2 0xCC7 SWAP2 PUSH1 0x3 DUP5 ADD SWAP2 PUSH1 0x20 SWAP1 SWAP2 ADD SWAP1 PUSH2 0x22BD JUMP JUMPDEST POP PUSH1 0x80 SWAP2 SWAP1 SWAP2 ADD MLOAD PUSH1 0x4 SWAP1 SWAP2 ADD DUP1 SLOAD PUSH1 0xFF NOT AND SWAP2 ISZERO ISZERO SWAP2 SWAP1 SWAP2 OR SWAP1 SSTORE PUSH1 0x40 MLOAD DUP7 SWAP1 PUSH32 0x5DD5AFF7B55A6D23DB5800AE74FAFB29F5F00976A85526C852C81900D14CF3E7 SWAP1 PUSH2 0xD17 SWAP1 TIMESTAMP SWAP1 DUP7 SWAP1 PUSH2 0x295E JUMP JUMPDEST PUSH1 0x40 MLOAD DUP1 SWAP2 SUB SWAP1 LOG2 PUSH1 0x69 DUP1 SLOAD SWAP1 PUSH1 0x0 PUSH2 0xD2F DUP4 PUSH2 0x298D JUMP JUMPDEST SWAP1 SWAP2 SSTORE POP SWAP1 SWAP8 SWAP7 POP POP POP POP POP POP POP JUMP JUMPDEST PUSH1 0x77 DUP2 DUP2 SLOAD DUP2 LT PUSH2 0xD4F JUMPI PUSH1 0x0 DUP1 REVERT JUMPDEST PUSH1 0x0 SWAP2 DUP3 MSTORE PUSH1 0x20 SWAP1 SWAP2 KECCAK256 ADD SLOAD SWAP1 POP DUP2 JUMP JUMPDEST PUSH1 0x0 CALLER PUSH2 0xD6E DUP6 DUP3 DUP6 PUSH2 0x1D39 JUMP JUMPDEST PUSH2 0xD79 DUP6 DUP6 DUP6 PUSH2 0x1DCB JUMP JUMPDEST POP PUSH1 0x1 SWAP5 SWAP4 POP POP POP POP JUMP JUMPDEST PUSH1 0x65 SLOAD PUSH1 0x40 DUP1 MLOAD PUSH4 0x48F17129 PUSH1 0xE1 SHL DUP2 MSTORE SWAP1 MLOAD PUSH1 0x0 SWAP3 PUSH1 0x1 PUSH1 0x1 PUSH1 0xA0 SHL SUB AND SWAP2 PUSH4 0x91E2E252 SWAP2 PUSH1 0x4 DUP1 DUP4 ADD SWAP3 PUSH1 0x20 SWAP3 SWAP2 SWAP1 DUP3 SWAP1 SUB ADD DUP2 DUP7 GAS STATICCALL ISZERO DUP1 ISZERO PUSH2 0xDCE JUMPI RETURNDATASIZE PUSH1 0x0 DUP1 RETURNDATACOPY RETURNDATASIZE PUSH1 0x0 REVERT JUMPDEST POP POP POP POP PUSH1 0x40 MLOAD RETURNDATASIZE PUSH1 0x1F NOT PUSH1 0x1F DUP3 ADD AND DUP3 ADD DUP1 PUSH1 0x40 MSTORE POP DUP2 ADD SWAP1 PUSH2 0xDF2 SWAP2 SWAP1 PUSH2 0x29A6 JUMP JUMPDEST SWAP1 POP SWAP1 JUMP JUMPDEST CALLER PUSH1 0x0 DUP2 DUP2 MSTORE PUSH1 0x34 PUSH1 0x20 SWAP1 DUP2 MSTORE PUSH1 0x40 DUP1 DUP4 KECCAK256 PUSH1 0x1 PUSH1 0x1 PUSH1 0xA0 SHL SUB DUP8 AND DUP5 MSTORE SWAP1 SWAP2 MSTORE DUP2 KECCAK256 SLOAD SWAP1 SWAP2 SWAP1 PUSH2 0x924 SWAP1 DUP3 SWAP1 DUP7 SWAP1 PUSH2 0xE31 SWAP1 DUP8 SWAP1 PUSH2 0x29BF JUMP JUMPDEST PUSH2 0x1C15 JUMP JUMPDEST PUSH1 0x66 SLOAD PUSH1 0x60 SWAP1 PUSH1 0x1 PUSH1 0x1 PUSH1 0xA0 SHL SUB AND CALLER EQ PUSH2 0xE63 JUMPI PUSH1 0x40 MLOAD PUSH3 0x461BCD PUSH1 0xE5 SHL DUP2 MSTORE PUSH1 0x4 ADD PUSH2 0xA45 SWAP1 PUSH2 0x29D2 JUMP JUMPDEST PUSH1 0x0 DUP4 DUP2 MSTORE PUSH1 0x76 PUSH1 0x20 MSTORE PUSH1 0x40 SWAP1 KECCAK256 PUSH1 0x3 ADD SLOAD DUP3 MLOAD EQ PUSH2 0xE81 JUMPI PUSH1 0x0 DUP1 REVERT JUMPDEST PUSH1 0x0 DUP4 DUP2 MSTORE PUSH1 0x76 PUSH1 0x20 SWAP1 DUP2 MSTORE PUSH1 0x40 SWAP1 SWAP2 KECCAK256 DUP4 MLOAD PUSH2 0xEA6 SWAP3 PUSH1 0x2 SWAP1 SWAP3 ADD SWAP2 DUP6 ADD SWAP1 PUSH2 0x2258 JUMP JUMPDEST POP PUSH1 0x0 DUP4 DUP2 MSTORE PUSH1 0x76 PUSH1 0x20 MSTORE PUSH1 0x40 SWAP1 DUP2 SWAP1 KECCAK256 PUSH1 0x4 ADD DUP1 SLOAD PUSH1 0xFF NOT AND SWAP1 SSTORE MLOAD DUP4 SWAP1 PUSH32 0x9B5ED714C31DFCB1A9397710B6FC1842F37D94AB5DC0CCB528D9A2C97EA76F2A SWAP1 PUSH2 0xEF4 SWAP1 TIMESTAMP DUP2 MSTORE PUSH1 0x20 ADD SWAP1 JUMP JUMPDEST PUSH1 0x40 MLOAD DUP1 SWAP2 SUB SWAP1 LOG2 PUSH1 0x0 DUP4 DUP2 MSTORE PUSH1 0x76 PUSH1 0x20 SWAP1 DUP2 MSTORE PUSH1 0x40 SWAP2 DUP3 SWAP1 KECCAK256 PUSH1 0x3 ADD DUP1 SLOAD DUP4 MLOAD DUP2 DUP5 MUL DUP2 ADD DUP5 ADD SWAP1 SWAP5 MSTORE DUP1 DUP5 MSTORE SWAP1 SWAP2 DUP4 ADD DUP3 DUP3 DUP1 ISZERO PUSH2 0xF53 JUMPI PUSH1 0x20 MUL DUP3 ADD SWAP2 SWAP1 PUSH1 0x0 MSTORE PUSH1 0x20 PUSH1 0x0 KECCAK256 SWAP1 JUMPDEST DUP2 SLOAD DUP2 MSTORE PUSH1 0x20 ADD SWAP1 PUSH1 0x1 ADD SWAP1 DUP1 DUP4 GT PUSH2 0xF3F JUMPI JUMPDEST POP POP POP POP POP SWAP1 POP SWAP3 SWAP2 POP POP JUMP JUMPDEST PUSH1 0x0 SLOAD PUSH2 0x100 SWAP1 DIV PUSH1 0xFF AND PUSH2 0xF7B JUMPI PUSH1 0x0 SLOAD PUSH1 0xFF AND ISZERO PUSH2 0xF7F JUMP JUMPDEST ADDRESS EXTCODESIZE ISZERO JUMPDEST PUSH2 0xFE2 JUMPI PUSH1 0x40 MLOAD PUSH3 0x461BCD PUSH1 0xE5 SHL DUP2 MSTORE PUSH1 0x20 PUSH1 0x4 DUP3 ADD MSTORE PUSH1 0x2E PUSH1 0x24 DUP3 ADD MSTORE PUSH32 0x496E697469616C697A61626C653A20636F6E747261637420697320616C726561 PUSH1 0x44 DUP3 ADD MSTORE PUSH14 0x191E481A5B9A5D1A585B1A5E9959 PUSH1 0x92 SHL PUSH1 0x64 DUP3 ADD MSTORE PUSH1 0x84 ADD PUSH2 0xA45 JUMP JUMPDEST PUSH1 0x0 SLOAD PUSH2 0x100 SWAP1 DIV PUSH1 0xFF AND ISZERO DUP1 ISZERO PUSH2 0x1004 JUMPI PUSH1 0x0 DUP1 SLOAD PUSH2 0xFFFF NOT AND PUSH2 0x101 OR SWAP1 SSTORE JUMPDEST PUSH2 0x104B PUSH1 0x40 MLOAD DUP1 PUSH1 0x40 ADD PUSH1 0x40 MSTORE DUP1 PUSH1 0xA DUP2 MSTORE PUSH1 0x20 ADD PUSH10 0x536D6172746E6F646573 PUSH1 0xB0 SHL DUP2 MSTORE POP PUSH1 0x40 MLOAD DUP1 PUSH1 0x40 ADD PUSH1 0x40 MSTORE DUP1 PUSH1 0x3 DUP2 MSTORE PUSH1 0x20 ADD PUSH3 0x534E4F PUSH1 0xE8 SHL DUP2 MSTORE POP PUSH2 0x1F99 JUMP JUMPDEST PUSH1 0x1 PUSH1 0x68 DUP2 SWAP1 SSTORE PUSH1 0x69 DUP2 SWAP1 SSTORE PUSH1 0x67 SSTORE PUSH9 0x1BC16D674EC8000000 PUSH1 0x6E SSTORE PUSH10 0x21E19E0C9BAB2400000 PUSH1 0x6F SSTORE PUSH2 0x2220 PUSH1 0x6D SSTORE PUSH3 0x127500 PUSH1 0x70 SSTORE PUSH1 0x0 PUSH1 0x71 DUP2 SWAP1 SSTORE PUSH10 0x9ED194DB19B238C00000 SWAP1 PUSH11 0x17293B0A9E69FD9C00000 SWAP1 JUMPDEST DUP6 MLOAD DUP2 LT ISZERO PUSH2 0x10E3 JUMPI PUSH2 0x10DB DUP7 DUP3 DUP2 MLOAD DUP2 LT PUSH2 0x10C1 JUMPI PUSH2 0x10C1 PUSH2 0x2948 JUMP JUMPDEST PUSH1 0x20 MUL PUSH1 0x20 ADD ADD MLOAD DUP8 MLOAD DUP6 PUSH2 0x10D6 SWAP2 SWAP1 PUSH2 0x2A18 JUMP JUMPDEST PUSH2 0x1FCE JUMP JUMPDEST PUSH1 0x1 ADD PUSH2 0x10A3 JUMP JUMPDEST POP PUSH2 0x10EE DUP5 DUP3 PUSH2 0x1FCE JUMP JUMPDEST POP POP PUSH1 0x1 PUSH1 0x6B SSTORE PUSH1 0x5 PUSH1 0x6C SSTORE DUP1 ISZERO PUSH2 0x110C JUMPI PUSH1 0x0 DUP1 SLOAD PUSH2 0xFF00 NOT AND SWAP1 SSTORE JUMPDEST POP POP POP JUMP JUMPDEST PUSH1 0x65 SLOAD PUSH1 0x40 DUP1 MLOAD PUSH4 0xFBCCA273 PUSH1 0xE0 SHL DUP2 MSTORE SWAP1 MLOAD PUSH1 0x60 SWAP3 PUSH1 0x1 PUSH1 0x1 PUSH1 0xA0 SHL SUB AND SWAP2 PUSH4 0xFBCCA273 SWAP2 PUSH1 0x4 DUP1 DUP4 ADD SWAP3 PUSH1 0x0 SWAP3 SWAP2 SWAP1 DUP3 SWAP1 SUB ADD DUP2 DUP7 GAS STATICCALL ISZERO DUP1 ISZERO PUSH2 0x115B JUMPI RETURNDATASIZE PUSH1 0x0 DUP1 RETURNDATACOPY RETURNDATASIZE PUSH1 0x0 REVERT JUMPDEST POP POP POP POP PUSH1 0x40 MLOAD RETURNDATASIZE PUSH1 0x0 DUP3 RETURNDATACOPY PUSH1 0x1F RETURNDATASIZE SWAP1 DUP2 ADD PUSH1 0x1F NOT AND DUP3 ADD PUSH1 0x40 MSTORE PUSH2 0xDF2 SWAP2 SWAP1 DUP2 ADD SWAP1 PUSH2 0x290B JUMP JUMPDEST CALLER PUSH1 0x0 SWAP1 DUP2 MSTORE PUSH1 0x79 PUSH1 0x20 MSTORE PUSH1 0x40 SWAP1 KECCAK256 SLOAD ISZERO PUSH2 0x11E0 JUMPI PUSH1 0x40 MLOAD PUSH3 0x461BCD PUSH1 0xE5 SHL DUP2 MSTORE PUSH1 0x20 PUSH1 0x4 DUP3 ADD MSTORE PUSH1 0x19 PUSH1 0x24 DUP3 ADD MSTORE PUSH32 0x56616C696461746F7220616C7265616479206578697374732E00000000000000 PUSH1 0x44 DUP3 ADD MSTORE PUSH1 0x64 ADD PUSH2 0xA45 JUMP JUMPDEST CALLER PUSH1 0x0 SWAP1 DUP2 MSTORE PUSH1 0x33 PUSH1 0x20 MSTORE PUSH1 0x40 SWAP1 KECCAK256 SLOAD DUP2 GT ISZERO DUP1 ISZERO PUSH2 0x1201 JUMPI POP PUSH1 0x6F SLOAD DUP2 LT ISZERO JUMPDEST PUSH2 0x124D JUMPI PUSH1 0x40 MLOAD PUSH3 0x461BCD PUSH1 0xE5 SHL DUP2 MSTORE PUSH1 0x20 PUSH1 0x4 DUP3 ADD MSTORE PUSH1 0x1B PUSH1 0x24 DUP3 ADD MSTORE PUSH32 0x496E73756666696369656E7420746F6B656E2062616C616E63652E0000000000 PUSH1 0x44 DUP3 ADD MSTORE PUSH1 0x64 ADD PUSH2 0xA45 JUMP JUMPDEST PUSH1 0x40 DUP1 MLOAD PUSH1 0xA0 DUP2 ADD DUP3 MSTORE DUP4 DUP2 MSTORE CALLER PUSH1 0x20 DUP1 DUP4 ADD DUP3 DUP2 MSTORE PUSH1 0x6F DUP1 SLOAD DUP6 DUP8 ADD SWAP1 DUP2 MSTORE PUSH1 0x0 PUSH1 0x60 DUP8 ADD DUP2 DUP2 MSTORE PUSH1 0x32 PUSH1 0x80 DUP10 ADD SWAP1 DUP2 MSTORE PUSH1 0x67 DUP1 SLOAD DUP5 MSTORE PUSH1 0x75 DUP9 MSTORE DUP11 DUP5 KECCAK256 SWAP10 MLOAD DUP11 SSTORE SWAP6 MLOAD PUSH1 0x1 DUP11 ADD DUP1 SLOAD PUSH1 0x1 PUSH1 0x1 PUSH1 0xA0 SHL SUB SWAP1 SWAP3 AND PUSH1 0x1 PUSH1 0x1 PUSH1 0xA0 SHL SUB NOT SWAP3 DUP4 AND OR SWAP1 SSTORE SWAP4 MLOAD PUSH1 0x2 DUP11 ADD SSTORE SWAP1 MLOAD PUSH1 0x3 DUP10 ADD SSTORE MLOAD PUSH1 0x4 SWAP1 SWAP8 ADD DUP1 SLOAD PUSH1 0xFF SWAP1 SWAP9 AND PUSH1 0xFF NOT SWAP1 SWAP9 AND SWAP8 SWAP1 SWAP8 OR SWAP1 SWAP7 SSTORE SWAP2 SLOAD DUP5 DUP7 MSTORE PUSH1 0x79 DUP5 MSTORE DUP7 DUP7 KECCAK256 SSTORE DUP8 DUP6 MSTORE PUSH1 0x74 SWAP1 SWAP3 MSTORE SWAP4 SWAP1 SWAP3 KECCAK256 DUP1 SLOAD SWAP1 SWAP4 AND DUP2 OR SWAP1 SWAP3 SSTORE SLOAD PUSH2 0x1308 SWAP2 SWAP1 PUSH2 0x20AD JUMP JUMPDEST PUSH1 0x67 DUP1 SLOAD SWAP1 PUSH1 0x0 PUSH2 0x1318 DUP4 PUSH2 0x298D JUMP JUMPDEST SWAP2 SWAP1 POP SSTORE POP POP POP JUMP JUMPDEST PUSH1 0x1 PUSH1 0x1 PUSH1 0xA0 SHL SUB DUP2 AND PUSH1 0x0 SWAP1 DUP2 MSTORE PUSH1 0x79 PUSH1 0x20 MSTORE PUSH1 0x40 DUP2 KECCAK256 SLOAD DUP1 PUSH2 0x1383 JUMPI PUSH1 0x40 MLOAD PUSH3 0x461BCD PUSH1 0xE5 SHL DUP2 MSTORE PUSH1 0x20 PUSH1 0x4 DUP3 ADD MSTORE PUSH1 0x19 PUSH1 0x24 DUP3 ADD MSTORE PUSH25 0x2B30B634B230BA37B9103237B2B9903737BA1032BC34B9BA17 PUSH1 0x39 SHL PUSH1 0x44 DUP3 ADD MSTORE PUSH1 0x64 ADD PUSH2 0xA45 JUMP JUMPDEST PUSH1 0x0 SWAP1 DUP2 MSTORE PUSH1 0x75 PUSH1 0x20 MSTORE PUSH1 0x40 SWAP1 KECCAK256 SLOAD SWAP3 SWAP2 POP POP JUMP JUMPDEST PUSH1 0x0 ADDRESS PUSH1 0x1 PUSH1 0x1 PUSH1 0xA0 SHL SUB AND PUSH4 0x18160DDD PUSH1 0x40 MLOAD DUP2 PUSH4 0xFFFFFFFF AND PUSH1 0xE0 SHL DUP2 MSTORE PUSH1 0x4 ADD PUSH1 0x20 PUSH1 0x40 MLOAD DUP1 DUP4 SUB DUP2 DUP7 GAS STATICCALL ISZERO DUP1 ISZERO PUSH2 0xDCE JUMPI RETURNDATASIZE PUSH1 0x0 DUP1 RETURNDATACOPY RETURNDATASIZE PUSH1 0x0 REVERT JUMPDEST PUSH2 0x13E2 CALLER DUP3 PUSH2 0x20AD JUMP JUMPDEST POP JUMP JUMPDEST PUSH1 0x0 PUSH1 0x1 PUSH1 0x67 SLOAD PUSH2 0xDF2 SWAP2 SWAP1 PUSH2 0x2A3A JUMP JUMPDEST CALLER PUSH1 0x0 SWAP1 DUP2 MSTORE PUSH1 0x79 PUSH1 0x20 MSTORE PUSH1 0x40 SWAP1 KECCAK256 SLOAD DUP1 PUSH2 0x1453 JUMPI PUSH1 0x40 MLOAD PUSH3 0x461BCD PUSH1 0xE5 SHL DUP2 MSTORE PUSH1 0x20 PUSH1 0x4 DUP3 ADD MSTORE PUSH1 0x1B PUSH1 0x24 DUP3 ADD MSTORE PUSH32 0x4E6F74206120726567697374657265642076616C696461746F722E0000000000 PUSH1 0x44 DUP3 ADD MSTORE PUSH1 0x64 ADD PUSH2 0xA45 JUMP JUMPDEST PUSH1 0x0 DUP2 DUP2 MSTORE PUSH1 0x75 PUSH1 0x20 MSTORE PUSH1 0x40 SWAP1 KECCAK256 PUSH1 0x2 DUP2 ADD SLOAD DUP4 GT ISZERO PUSH2 0x14B5 JUMPI PUSH1 0x40 MLOAD PUSH3 0x461BCD PUSH1 0xE5 SHL DUP2 MSTORE PUSH1 0x20 PUSH1 0x4 DUP3 ADD MSTORE PUSH1 0x1E PUSH1 0x24 DUP3 ADD MSTORE PUSH32 0x416D6F756E742065786365656473206C6F636B65642062616C616E63652E0000 PUSH1 0x44 DUP3 ADD MSTORE PUSH1 0x64 ADD PUSH2 0xA45 JUMP JUMPDEST PUSH1 0x0 DUP4 GT PUSH2 0x14D5 JUMPI PUSH1 0x40 MLOAD PUSH3 0x461BCD PUSH1 0xE5 SHL DUP2 MSTORE PUSH1 0x4 ADD PUSH2 0xA45 SWAP1 PUSH2 0x2A4D JUMP JUMPDEST DUP1 PUSH1 0x3 ADD SLOAD PUSH1 0x0 SUB PUSH2 0x1555 JUMPI PUSH1 0x70 SLOAD PUSH2 0x14EE SWAP1 TIMESTAMP PUSH2 0x29BF JUMP JUMPDEST PUSH1 0x3 DUP3 ADD SSTORE PUSH1 0x2 DUP2 ADD SLOAD PUSH1 0x0 SWAP1 PUSH2 0x1506 SWAP1 DUP6 SWAP1 PUSH2 0x2A3A JUMP JUMPDEST SWAP1 POP CALLER PUSH1 0x1 PUSH1 0x1 PUSH1 0xA0 SHL SUB AND PUSH32 0x77635F8F13EE1A01D11246347C649817C6EE9FA7620CE4C6ADFA2452BFA162B2 DUP4 PUSH1 0x3 ADD SLOAD PUSH1 0x40 MLOAD PUSH2 0x1547 SWAP2 DUP2 MSTORE PUSH1 0x20 ADD SWAP1 JUMP JUMPDEST PUSH1 0x40 MLOAD DUP1 SWAP2 SUB SWAP1 LOG2 POP POP POP POP JUMP JUMPDEST DUP1 PUSH1 0x3 ADD SLOAD TIMESTAMP LT ISZERO PUSH2 0x15A9 JUMPI PUSH1 0x40 MLOAD PUSH3 0x461BCD PUSH1 0xE5 SHL DUP2 MSTORE PUSH1 0x20 PUSH1 0x4 DUP3 ADD MSTORE PUSH1 0x18 PUSH1 0x24 DUP3 ADD MSTORE PUSH32 0x546F6B656E7320617265207374696C6C206C6F636B65642E0000000000000000 PUSH1 0x44 DUP3 ADD MSTORE PUSH1 0x64 ADD PUSH2 0xA45 JUMP JUMPDEST DUP3 DUP2 PUSH1 0x2 ADD PUSH1 0x0 DUP3 DUP3 SLOAD PUSH2 0x15BD SWAP2 SWAP1 PUSH2 0x2A3A JUMP JUMPDEST SWAP1 SWAP2 SSTORE POP PUSH2 0x15CD SWAP1 POP CALLER DUP5 PUSH2 0x1FCE JUMP JUMPDEST PUSH1 0x40 MLOAD DUP4 DUP2 MSTORE CALLER SWAP1 PUSH32 0xE7B379C6C1FA169E9079C25E9143B127637EEF8EC8C9D5C06DDB4AB3E1195888 SWAP1 PUSH1 0x20 ADD PUSH1 0x40 MLOAD DUP1 SWAP2 SUB SWAP1 LOG2 POP POP POP JUMP JUMPDEST PUSH1 0x60 PUSH1 0x37 DUP1 SLOAD PUSH2 0x893 SWAP1 PUSH2 0x281B JUMP JUMPDEST PUSH1 0x66 SLOAD PUSH1 0x1 PUSH1 0x1 PUSH1 0xA0 SHL SUB AND CALLER EQ PUSH2 0x1640 JUMPI PUSH1 0x40 MLOAD PUSH3 0x461BCD PUSH1 0xE5 SHL DUP2 MSTORE PUSH1 0x4 ADD PUSH2 0xA45 SWAP1 PUSH2 0x29D2 JUMP JUMPDEST PUSH11 0x115EEC47F6CF7E35000000 PUSH1 0x6E SLOAD PUSH2 0x1658 PUSH1 0x35 SLOAD SWAP1 JUMP JUMPDEST PUSH2 0x1662 SWAP2 SWAP1 PUSH2 0x29BF JUMP JUMPDEST GT ISZERO PUSH2 0x16B0 JUMPI PUSH1 0x40 MLOAD PUSH3 0x461BCD PUSH1 0xE5 SHL DUP2 MSTORE PUSH1 0x20 PUSH1 0x4 DUP3 ADD MSTORE PUSH1 0x17 PUSH1 0x24 DUP3 ADD MSTORE PUSH32 0x4D6178696D756D20737570706C79207265616368656421000000000000000000 PUSH1 0x44 DUP3 ADD MSTORE PUSH1 0x64 ADD PUSH2 0xA45 JUMP JUMPDEST PUSH1 0x6D SLOAD PUSH1 0x71 SLOAD LT PUSH2 0x16E6 JUMPI PUSH8 0xDE0B6B3A7640000 PUSH1 0x6E SLOAD GT ISZERO PUSH2 0x16E6 JUMPI PUSH1 0x2 PUSH1 0x6E PUSH1 0x0 DUP3 DUP3 SLOAD PUSH2 0x16E0 SWAP2 SWAP1 PUSH2 0x2A18 JUMP JUMPDEST SWAP1 SWAP2 SSTORE POP POP JUMPDEST PUSH1 0x0 PUSH1 0x64 PUSH1 0x6E SLOAD PUSH1 0x14 PUSH2 0x16F9 SWAP2 SWAP1 PUSH2 0x2A8E JUMP JUMPDEST PUSH2 0x1703 SWAP2 SWAP1 PUSH2 0x2A18 JUMP JUMPDEST SWAP1 POP PUSH1 0x0 PUSH1 0x64 PUSH1 0x6E SLOAD PUSH1 0x50 PUSH2 0x1718 SWAP2 SWAP1 PUSH2 0x2A8E JUMP JUMPDEST PUSH2 0x1722 SWAP2 SWAP1 PUSH2 0x2A18 JUMP JUMPDEST SWAP1 POP PUSH1 0x0 DUP4 MLOAD DUP4 PUSH2 0x1733 SWAP2 SWAP1 PUSH2 0x2A18 JUMP JUMPDEST SWAP1 POP PUSH1 0x0 JUMPDEST DUP5 MLOAD DUP2 LT ISZERO PUSH2 0x176C JUMPI PUSH2 0x1764 DUP6 DUP3 DUP2 MLOAD DUP2 LT PUSH2 0x1756 JUMPI PUSH2 0x1756 PUSH2 0x2948 JUMP JUMPDEST PUSH1 0x20 MUL PUSH1 0x20 ADD ADD MLOAD DUP4 PUSH2 0x1FCE JUMP JUMPDEST PUSH1 0x1 ADD PUSH2 0x1738 JUMP JUMPDEST POP PUSH1 0x0 JUMPDEST DUP8 MLOAD DUP2 LT ISZERO PUSH2 0x17D9 JUMPI PUSH1 0x0 DUP7 DUP5 DUP10 DUP5 DUP2 MLOAD DUP2 LT PUSH2 0x178F JUMPI PUSH2 0x178F PUSH2 0x2948 JUMP JUMPDEST PUSH1 0x20 MUL PUSH1 0x20 ADD ADD MLOAD PUSH2 0x17A1 SWAP2 SWAP1 PUSH2 0x2A8E JUMP JUMPDEST PUSH2 0x17AB SWAP2 SWAP1 PUSH2 0x2A18 JUMP JUMPDEST SWAP1 POP PUSH2 0x17D0 DUP10 DUP4 DUP2 MLOAD DUP2 LT PUSH2 0x17C2 JUMPI PUSH2 0x17C2 PUSH2 0x2948 JUMP JUMPDEST PUSH1 0x20 MUL PUSH1 0x20 ADD ADD MLOAD DUP3 PUSH2 0x1FCE JUMP JUMPDEST POP PUSH1 0x1 ADD PUSH2 0x1770 JUMP JUMPDEST POP PUSH1 0x71 DUP1 SLOAD SWAP1 PUSH1 0x0 PUSH2 0x17EA DUP4 PUSH2 0x298D JUMP JUMPDEST SWAP2 SWAP1 POP SSTORE POP POP POP POP POP POP POP POP JUMP JUMPDEST CALLER PUSH1 0x0 DUP2 DUP2 MSTORE PUSH1 0x34 PUSH1 0x20 SWAP1 DUP2 MSTORE PUSH1 0x40 DUP1 DUP4 KECCAK256 PUSH1 0x1 PUSH1 0x1 PUSH1 0xA0 SHL SUB DUP8 AND DUP5 MSTORE SWAP1 SWAP2 MSTORE DUP2 KECCAK256 SLOAD SWAP1 SWAP2 SWAP1 DUP4 DUP2 LT ISZERO PUSH2 0x187D JUMPI PUSH1 0x40 MLOAD PUSH3 0x461BCD PUSH1 0xE5 SHL DUP2 MSTORE PUSH1 0x20 PUSH1 0x4 DUP3 ADD MSTORE PUSH1 0x25 PUSH1 0x24 DUP3 ADD MSTORE PUSH32 0x45524332303A2064656372656173656420616C6C6F77616E63652062656C6F77 PUSH1 0x44 DUP3 ADD MSTORE PUSH5 0x207A65726F PUSH1 0xD8 SHL PUSH1 0x64 DUP3 ADD MSTORE PUSH1 0x84 ADD PUSH2 0xA45 JUMP JUMPDEST PUSH2 0xD79 DUP3 DUP7 DUP7 DUP5 SUB PUSH2 0x1C15 JUMP JUMPDEST PUSH1 0x0 CALLER PUSH2 0x924 DUP2 DUP6 DUP6 PUSH2 0x1DCB JUMP JUMPDEST CALLER PUSH1 0x0 SWAP1 DUP2 MSTORE PUSH1 0x78 PUSH1 0x20 MSTORE PUSH1 0x40 SWAP1 KECCAK256 SLOAD ISZERO PUSH2 0x18F5 JUMPI PUSH1 0x40 MLOAD PUSH3 0x461BCD PUSH1 0xE5 SHL DUP2 MSTORE PUSH1 0x20 PUSH1 0x4 DUP3 ADD MSTORE PUSH1 0x18 PUSH1 0x24 DUP3 ADD MSTORE PUSH32 0x5573657220616C726561647920726567697374657265642E0000000000000000 PUSH1 0x44 DUP3 ADD MSTORE PUSH1 0x64 ADD PUSH2 0xA45 JUMP JUMPDEST PUSH1 0x40 DUP1 MLOAD PUSH1 0x60 DUP2 ADD DUP3 MSTORE CALLER DUP1 DUP3 MSTORE PUSH1 0x20 DUP1 DUP4 ADD DUP6 DUP2 MSTORE PUSH1 0x32 DUP5 DUP7 ADD SWAP1 DUP2 MSTORE PUSH1 0x0 DUP8 DUP2 MSTORE PUSH1 0x72 DUP5 MSTORE DUP7 DUP2 KECCAK256 SWAP6 MLOAD DUP7 SLOAD PUSH1 0x1 PUSH1 0x1 PUSH1 0xA0 SHL SUB NOT AND PUSH1 0x1 PUSH1 0x1 PUSH1 0xA0 SHL SUB SWAP1 SWAP2 AND OR DUP7 SSTORE SWAP2 MLOAD PUSH1 0x1 DUP7 ADD SSTORE MLOAD PUSH1 0x2 SWAP1 SWAP5 ADD DUP1 SLOAD PUSH1 0xFF NOT AND PUSH1 0xFF SWAP1 SWAP6 AND SWAP5 SWAP1 SWAP5 OR SWAP1 SWAP4 SSTORE SWAP1 DUP3 MSTORE PUSH1 0x78 SWAP1 MSTORE SWAP1 DUP2 KECCAK256 DUP3 SWAP1 SSTORE PUSH1 0x68 DUP1 SLOAD SWAP2 PUSH2 0x1975 DUP4 PUSH2 0x298D JUMP JUMPDEST SWAP2 SWAP1 POP SSTORE POP POP JUMP JUMPDEST PUSH1 0x0 PUSH1 0x1 PUSH1 0x68 SLOAD PUSH2 0xDF2 SWAP2 SWAP1 PUSH2 0x2A3A JUMP JUMPDEST PUSH1 0x0 DUP1 PUSH1 0x0 PUSH1 0x67 SLOAD DUP5 LT PUSH2 0x19D2 JUMPI PUSH1 0x40 MLOAD PUSH3 0x461BCD PUSH1 0xE5 SHL DUP2 MSTORE PUSH1 0x20 PUSH1 0x4 DUP3 ADD MSTORE PUSH1 0xB PUSH1 0x24 DUP3 ADD MSTORE PUSH11 0x24B73B30B634B21024A217 PUSH1 0xA9 SHL PUSH1 0x44 DUP3 ADD MSTORE PUSH1 0x64 ADD PUSH2 0xA45 JUMP JUMPDEST PUSH1 0x0 DUP5 DUP2 MSTORE PUSH1 0x75 PUSH1 0x20 SWAP1 DUP2 MSTORE PUSH1 0x40 DUP1 DUP4 KECCAK256 DUP2 MLOAD PUSH1 0xA0 DUP2 ADD DUP4 MSTORE DUP2 SLOAD DUP2 MSTORE PUSH1 0x1 DUP3 ADD SLOAD PUSH1 0x1 PUSH1 0x1 PUSH1 0xA0 SHL SUB SWAP1 DUP2 AND SWAP5 DUP3 ADD DUP6 SWAP1 MSTORE PUSH1 0x2 DUP4 ADD SLOAD DUP3 DUP6 ADD MSTORE PUSH1 0x3 DUP4 ADD SLOAD PUSH1 0x60 DUP4 ADD MSTORE PUSH1 0x4 SWAP3 DUP4 ADD SLOAD PUSH1 0xFF AND PUSH1 0x80 DUP4 ADD MSTORE PUSH1 0x65 SLOAD SWAP4 MLOAD PUSH4 0x10154287 PUSH1 0xE2 SHL DUP2 MSTORE SWAP3 DUP4 ADD SWAP5 SWAP1 SWAP5 MSTORE SWAP4 SWAP3 SWAP2 SWAP1 SWAP2 AND SWAP1 PUSH4 0x40550A1C SWAP1 PUSH1 0x24 ADD PUSH1 0x20 PUSH1 0x40 MLOAD DUP1 DUP4 SUB DUP2 DUP7 GAS STATICCALL ISZERO DUP1 ISZERO PUSH2 0x1A69 JUMPI RETURNDATASIZE PUSH1 0x0 DUP1 RETURNDATACOPY RETURNDATASIZE PUSH1 0x0 REVERT JUMPDEST POP POP POP POP PUSH1 0x40 MLOAD RETURNDATASIZE PUSH1 0x1F NOT PUSH1 0x1F DUP3 ADD AND DUP3 ADD DUP1 PUSH1 0x40 MSTORE POP DUP2 ADD SWAP1 PUSH2 0x1A8D SWAP2 SWAP1 PUSH2 0x2AA5 JUMP JUMPDEST DUP3 MLOAD PUSH1 0x20 SWAP1 SWAP4 ADD MLOAD SWAP1 SWAP8 SWAP3 SWAP7 POP SWAP5 POP SWAP1 SWAP3 POP POP POP JUMP JUMPDEST PUSH1 0x66 SLOAD PUSH1 0x1 PUSH1 0x1 PUSH1 0xA0 SHL SUB AND CALLER EQ PUSH2 0x1ACD JUMPI PUSH1 0x40 MLOAD PUSH3 0x461BCD PUSH1 0xE5 SHL DUP2 MSTORE PUSH1 0x4 ADD PUSH2 0xA45 SWAP1 PUSH2 0x29D2 JUMP JUMPDEST PUSH1 0x0 DUP2 DUP2 MSTORE PUSH1 0x76 PUSH1 0x20 SWAP1 DUP2 MSTORE PUSH1 0x40 SWAP2 DUP3 SWAP1 KECCAK256 PUSH1 0x4 DUP2 ADD DUP1 SLOAD PUSH1 0xFF NOT AND SWAP1 SSTORE SWAP2 MLOAD TIMESTAMP DUP2 MSTORE DUP4 SWAP2 PUSH32 0x6E04AA702F9AF7A9A398F10D27918152DF25AC0CDC6D74321B9F7496374387A7 SWAP2 ADD PUSH1 0x40 MLOAD DUP1 SWAP2 SUB SWAP1 LOG2 POP POP JUMP JUMPDEST PUSH1 0x0 DUP2 DUP2 MSTORE PUSH1 0x76 PUSH1 0x20 SWAP1 DUP2 MSTORE PUSH1 0x40 DUP1 DUP4 KECCAK256 PUSH1 0x1 ADD DUP1 SLOAD DUP3 MLOAD DUP2 DUP6 MUL DUP2 ADD DUP6 ADD SWAP1 SWAP4 MSTORE DUP1 DUP4 MSTORE PUSH1 0x60 SWAP5 SWAP4 DUP4 ADD DUP3 DUP3 DUP1 ISZERO PUSH2 0x1B83 JUMPI PUSH1 0x20 MUL DUP3 ADD SWAP2 SWAP1 PUSH1 0x0 MSTORE PUSH1 0x20 PUSH1 0x0 KECCAK256 SWAP1 JUMPDEST DUP2 SLOAD PUSH1 0x1 PUSH1 0x1 PUSH1 0xA0 SHL SUB AND DUP2 MSTORE PUSH1 0x1 SWAP1 SWAP2 ADD SWAP1 PUSH1 0x20 ADD DUP1 DUP4 GT PUSH2 0x1B65 JUMPI JUMPDEST POP SWAP4 SWAP8 SWAP7 POP POP POP POP POP POP POP JUMP JUMPDEST PUSH1 0x66 SLOAD PUSH1 0x1 PUSH1 0x1 PUSH1 0xA0 SHL SUB AND ISZERO PUSH2 0x1BE9 JUMPI PUSH1 0x40 MLOAD PUSH3 0x461BCD PUSH1 0xE5 SHL DUP2 MSTORE PUSH1 0x20 PUSH1 0x4 DUP3 ADD MSTORE PUSH1 0x1E PUSH1 0x24 DUP3 ADD MSTORE PUSH32 0x56616C696461746F72206164647265737320616C7265616479207365742E0000 PUSH1 0x44 DUP3 ADD MSTORE PUSH1 0x64 ADD PUSH2 0xA45 JUMP JUMPDEST PUSH1 0x65 DUP1 SLOAD PUSH1 0x1 PUSH1 0x1 PUSH1 0xA0 SHL SUB SWAP1 SWAP3 AND PUSH1 0x1 PUSH1 0x1 PUSH1 0xA0 SHL SUB NOT SWAP3 DUP4 AND DUP2 OR SWAP1 SWAP2 SSTORE PUSH1 0x66 DUP1 SLOAD SWAP1 SWAP3 AND OR SWAP1 SSTORE JUMP JUMPDEST PUSH1 0x1 PUSH1 0x1 PUSH1 0xA0 SHL SUB DUP4 AND PUSH2 0x1C77 JUMPI PUSH1 0x40 MLOAD PUSH3 0x461BCD PUSH1 0xE5 SHL DUP2 MSTORE PUSH1 0x20 PUSH1 0x4 DUP3 ADD MSTORE PUSH1 0x24 DUP1 DUP3 ADD MSTORE PUSH32 0x45524332303A20617070726F76652066726F6D20746865207A65726F20616464 PUSH1 0x44 DUP3 ADD MSTORE PUSH4 0x72657373 PUSH1 0xE0 SHL PUSH1 0x64 DUP3 ADD MSTORE PUSH1 0x84 ADD PUSH2 0xA45 JUMP JUMPDEST PUSH1 0x1 PUSH1 0x1 PUSH1 0xA0 SHL SUB DUP3 AND PUSH2 0x1CD8 JUMPI PUSH1 0x40 MLOAD PUSH3 0x461BCD PUSH1 0xE5 SHL DUP2 MSTORE PUSH1 0x20 PUSH1 0x4 DUP3 ADD MSTORE PUSH1 0x22 PUSH1 0x24 DUP3 ADD MSTORE PUSH32 0x45524332303A20617070726F766520746F20746865207A65726F206164647265 PUSH1 0x44 DUP3 ADD MSTORE PUSH2 0x7373 PUSH1 0xF0 SHL PUSH1 0x64 DUP3 ADD MSTORE PUSH1 0x84 ADD PUSH2 0xA45 JUMP JUMPDEST PUSH1 0x1 PUSH1 0x1 PUSH1 0xA0 SHL SUB DUP4 DUP2 AND PUSH1 0x0 DUP2 DUP2 MSTORE PUSH1 0x34 PUSH1 0x20 SWAP1 DUP2 MSTORE PUSH1 0x40 DUP1 DUP4 KECCAK256 SWAP5 DUP8 AND DUP1 DUP5 MSTORE SWAP5 DUP3 MSTORE SWAP2 DUP3 SWAP1 KECCAK256 DUP6 SWAP1 SSTORE SWAP1 MLOAD DUP5 DUP2 MSTORE PUSH32 0x8C5BE1E5EBEC7D5BD14F71427D1E84F3DD0314C0F7B2291E5B200AC8C7C3B925 SWAP2 ADD PUSH1 0x40 MLOAD DUP1 SWAP2 SUB SWAP1 LOG3 POP POP POP JUMP JUMPDEST PUSH1 0x1 PUSH1 0x1 PUSH1 0xA0 SHL SUB DUP4 DUP2 AND PUSH1 0x0 SWAP1 DUP2 MSTORE PUSH1 0x34 PUSH1 0x20 SWAP1 DUP2 MSTORE PUSH1 0x40 DUP1 DUP4 KECCAK256 SWAP4 DUP7 AND DUP4 MSTORE SWAP3 SWAP1 MSTORE KECCAK256 SLOAD PUSH1 0x0 NOT DUP2 EQ PUSH2 0x1DC5 JUMPI DUP2 DUP2 LT ISZERO PUSH2 0x1DB8 JUMPI PUSH1 0x40 MLOAD PUSH3 0x461BCD PUSH1 0xE5 SHL DUP2 MSTORE PUSH1 0x20 PUSH1 0x4 DUP3 ADD MSTORE PUSH1 0x1D PUSH1 0x24 DUP3 ADD MSTORE PUSH32 0x45524332303A20696E73756666696369656E7420616C6C6F77616E6365000000 PUSH1 0x44 DUP3 ADD MSTORE PUSH1 0x64 ADD PUSH2 0xA45 JUMP JUMPDEST PUSH2 0x1DC5 DUP5 DUP5 DUP5 DUP5 SUB PUSH2 0x1C15 JUMP JUMPDEST POP POP POP POP JUMP JUMPDEST PUSH1 0x1 PUSH1 0x1 PUSH1 0xA0 SHL SUB DUP4 AND PUSH2 0x1E2F JUMPI PUSH1 0x40 MLOAD PUSH3 0x461BCD PUSH1 0xE5 SHL DUP2 MSTORE PUSH1 0x20 PUSH1 0x4 DUP3 ADD MSTORE PUSH1 0x25 PUSH1 0x24 DUP3 ADD MSTORE PUSH32 0x45524332303A207472616E736665722066726F6D20746865207A65726F206164 PUSH1 0x44 DUP3 ADD MSTORE PUSH5 0x6472657373 PUSH1 0xD8 SHL PUSH1 0x64 DUP3 ADD MSTORE PUSH1 0x84 ADD PUSH2 0xA45 JUMP JUMPDEST PUSH1 0x1 PUSH1 0x1 PUSH1 0xA0 SHL SUB DUP3 AND PUSH2 0x1E91 JUMPI PUSH1 0x40 MLOAD PUSH3 0x461BCD PUSH1 0xE5 SHL DUP2 MSTORE PUSH1 0x20 PUSH1 0x4 DUP3 ADD MSTORE PUSH1 0x23 PUSH1 0x24 DUP3 ADD MSTORE PUSH32 0x45524332303A207472616E7366657220746F20746865207A65726F2061646472 PUSH1 0x44 DUP3 ADD MSTORE PUSH3 0x657373 PUSH1 0xE8 SHL PUSH1 0x64 DUP3 ADD MSTORE PUSH1 0x84 ADD PUSH2 0xA45 JUMP JUMPDEST PUSH1 0x1 PUSH1 0x1 PUSH1 0xA0 SHL SUB DUP4 AND PUSH1 0x0 SWAP1 DUP2 MSTORE PUSH1 0x33 PUSH1 0x20 MSTORE PUSH1 0x40 SWAP1 KECCAK256 SLOAD DUP2 DUP2 LT ISZERO PUSH2 0x1F09 JUMPI PUSH1 0x40 MLOAD PUSH3 0x461BCD PUSH1 0xE5 SHL DUP2 MSTORE PUSH1 0x20 PUSH1 0x4 DUP3 ADD MSTORE PUSH1 0x26 PUSH1 0x24 DUP3 ADD MSTORE PUSH32 0x45524332303A207472616E7366657220616D6F756E7420657863656564732062 PUSH1 0x44 DUP3 ADD MSTORE PUSH6 0x616C616E6365 PUSH1 0xD0 SHL PUSH1 0x64 DUP3 ADD MSTORE PUSH1 0x84 ADD PUSH2 0xA45 JUMP JUMPDEST PUSH1 0x1 PUSH1 0x1 PUSH1 0xA0 SHL SUB DUP1 DUP6 AND PUSH1 0x0 SWAP1 DUP2 MSTORE PUSH1 0x33 PUSH1 0x20 MSTORE PUSH1 0x40 DUP1 DUP3 KECCAK256 DUP6 DUP6 SUB SWAP1 SSTORE SWAP2 DUP6 AND DUP2 MSTORE SWAP1 DUP2 KECCAK256 DUP1 SLOAD DUP5 SWAP3 SWAP1 PUSH2 0x1F40 SWAP1 DUP5 SWAP1 PUSH2 0x29BF JUMP JUMPDEST SWAP3 POP POP DUP2 SWAP1 SSTORE POP DUP3 PUSH1 0x1 PUSH1 0x1 PUSH1 0xA0 SHL SUB AND DUP5 PUSH1 0x1 PUSH1 0x1 PUSH1 0xA0 SHL SUB AND PUSH32 0xDDF252AD1BE2C89B69C2B068FC378DAA952BA7F163C4A11628F55A4DF523B3EF DUP5 PUSH1 0x40 MLOAD PUSH2 0x1F8C SWAP2 DUP2 MSTORE PUSH1 0x20 ADD SWAP1 JUMP JUMPDEST PUSH1 0x40 MLOAD DUP1 SWAP2 SUB SWAP1 LOG3 PUSH2 0x1DC5 JUMP JUMPDEST PUSH1 0x0 SLOAD PUSH2 0x100 SWAP1 DIV PUSH1 0xFF AND PUSH2 0x1FC0 JUMPI PUSH1 0x40 MLOAD PUSH3 0x461BCD PUSH1 0xE5 SHL DUP2 MSTORE PUSH1 0x4 ADD PUSH2 0xA45 SWAP1 PUSH2 0x2AC7 JUMP JUMPDEST PUSH2 0x1FCA DUP3 DUP3 PUSH2 0x2218 JUMP JUMPDEST POP POP JUMP JUMPDEST PUSH1 0x1 PUSH1 0x1 PUSH1 0xA0 SHL SUB DUP3 AND PUSH2 0x2024 JUMPI PUSH1 0x40 MLOAD PUSH3 0x461BCD PUSH1 0xE5 SHL DUP2 MSTORE PUSH1 0x20 PUSH1 0x4 DUP3 ADD MSTORE PUSH1 0x1F PUSH1 0x24 DUP3 ADD MSTORE PUSH32 0x45524332303A206D696E7420746F20746865207A65726F206164647265737300 PUSH1 0x44 DUP3 ADD MSTORE PUSH1 0x64 ADD PUSH2 0xA45 JUMP JUMPDEST DUP1 PUSH1 0x35 PUSH1 0x0 DUP3 DUP3 SLOAD PUSH2 0x2036 SWAP2 SWAP1 PUSH2 0x29BF JUMP JUMPDEST SWAP1 SWAP2 SSTORE POP POP PUSH1 0x1 PUSH1 0x1 PUSH1 0xA0 SHL SUB DUP3 AND PUSH1 0x0 SWAP1 DUP2 MSTORE PUSH1 0x33 PUSH1 0x20 MSTORE PUSH1 0x40 DUP2 KECCAK256 DUP1 SLOAD DUP4 SWAP3 SWAP1 PUSH2 0x2063 SWAP1 DUP5 SWAP1 PUSH2 0x29BF JUMP JUMPDEST SWAP1 SWAP2 SSTORE POP POP PUSH1 0x40 MLOAD DUP2 DUP2 MSTORE PUSH1 0x1 PUSH1 0x1 PUSH1 0xA0 SHL SUB DUP4 AND SWAP1 PUSH1 0x0 SWAP1 PUSH32 0xDDF252AD1BE2C89B69C2B068FC378DAA952BA7F163C4A11628F55A4DF523B3EF SWAP1 PUSH1 0x20 ADD PUSH1 0x40 MLOAD DUP1 SWAP2 SUB SWAP1 LOG3 POP POP JUMP JUMPDEST PUSH1 0x0 DUP2 GT PUSH2 0x20CD JUMPI PUSH1 0x40 MLOAD PUSH3 0x461BCD PUSH1 0xE5 SHL DUP2 MSTORE PUSH1 0x4 ADD PUSH2 0xA45 SWAP1 PUSH2 0x2A4D JUMP JUMPDEST DUP1 PUSH2 0x20ED DUP4 PUSH1 0x1 PUSH1 0x1 PUSH1 0xA0 SHL SUB AND PUSH1 0x0 SWAP1 DUP2 MSTORE PUSH1 0x33 PUSH1 0x20 MSTORE PUSH1 0x40 SWAP1 KECCAK256 SLOAD SWAP1 JUMP JUMPDEST LT ISZERO PUSH2 0x2133 JUMPI PUSH1 0x40 MLOAD PUSH3 0x461BCD PUSH1 0xE5 SHL DUP2 MSTORE PUSH1 0x20 PUSH1 0x4 DUP3 ADD MSTORE PUSH1 0x15 PUSH1 0x24 DUP3 ADD MSTORE PUSH21 0x24B739BAB33334B1B4B2B73A103130B630B731B297 PUSH1 0x59 SHL PUSH1 0x44 DUP3 ADD MSTORE PUSH1 0x64 ADD PUSH2 0xA45 JUMP JUMPDEST PUSH1 0x1 PUSH1 0x1 PUSH1 0xA0 SHL SUB DUP3 AND PUSH1 0x0 SWAP1 DUP2 MSTORE PUSH1 0x79 PUSH1 0x20 MSTORE PUSH1 0x40 DUP2 KECCAK256 SLOAD SWAP1 DUP2 SWAP1 SUB PUSH2 0x2198 JUMPI PUSH1 0x40 MLOAD PUSH3 0x461BCD PUSH1 0xE5 SHL DUP2 MSTORE PUSH1 0x20 PUSH1 0x4 DUP3 ADD MSTORE PUSH1 0x19 PUSH1 0x24 DUP3 ADD MSTORE PUSH25 0x2B30B634B230BA37B9103237B2B9903737BA1032BC34B9BA17 PUSH1 0x39 SHL PUSH1 0x44 DUP3 ADD MSTORE PUSH1 0x64 ADD PUSH2 0xA45 JUMP JUMPDEST PUSH2 0x21A3 DUP4 ADDRESS DUP5 PUSH2 0xD60 JUMP JUMPDEST POP PUSH1 0x0 DUP2 DUP2 MSTORE PUSH1 0x75 PUSH1 0x20 MSTORE PUSH1 0x40 DUP2 KECCAK256 PUSH1 0x2 ADD DUP1 SLOAD DUP5 SWAP3 SWAP1 PUSH2 0x21C5 SWAP1 DUP5 SWAP1 PUSH2 0x29BF JUMP JUMPDEST SWAP1 SWAP2 SSTORE POP POP PUSH1 0x0 DUP2 DUP2 MSTORE PUSH1 0x75 PUSH1 0x20 SWAP1 DUP2 MSTORE PUSH1 0x40 SWAP2 DUP3 SWAP1 KECCAK256 PUSH1 0x2 ADD SLOAD SWAP2 MLOAD DUP5 DUP2 MSTORE PUSH1 0x1 PUSH1 0x1 PUSH1 0xA0 SHL SUB DUP7 AND SWAP2 PUSH32 0xAC87F20A77D28EE8BBB58EC87EA8FA968B3393EFAE1A368FD50B767C2847391C SWAP2 ADD PUSH2 0x1547 JUMP JUMPDEST PUSH1 0x0 SLOAD PUSH2 0x100 SWAP1 DIV PUSH1 0xFF AND PUSH2 0x223F JUMPI PUSH1 0x40 MLOAD PUSH3 0x461BCD PUSH1 0xE5 SHL DUP2 MSTORE PUSH1 0x4 ADD PUSH2 0xA45 SWAP1 PUSH2 0x2AC7 JUMP JUMPDEST PUSH1 0x36 PUSH2 0x224B DUP4 DUP3 PUSH2 0x2B62 JUMP JUMPDEST POP PUSH1 0x37 PUSH2 0x110C DUP3 DUP3 PUSH2 0x2B62 JUMP JUMPDEST DUP3 DUP1 SLOAD DUP3 DUP3 SSTORE SWAP1 PUSH1 0x0 MSTORE PUSH1 0x20 PUSH1 0x0 KECCAK256 SWAP1 DUP2 ADD SWAP3 DUP3 ISZERO PUSH2 0x22AD JUMPI SWAP2 PUSH1 0x20 MUL DUP3 ADD JUMPDEST DUP3 DUP2 GT ISZERO PUSH2 0x22AD JUMPI DUP3 MLOAD DUP3 SLOAD PUSH1 0x1 PUSH1 0x1 PUSH1 0xA0 SHL SUB NOT AND PUSH1 0x1 PUSH1 0x1 PUSH1 0xA0 SHL SUB SWAP1 SWAP2 AND OR DUP3 SSTORE PUSH1 0x20 SWAP1 SWAP3 ADD SWAP2 PUSH1 0x1 SWAP1 SWAP2 ADD SWAP1 PUSH2 0x2278 JUMP JUMPDEST POP PUSH2 0x22B9 SWAP3 SWAP2 POP PUSH2 0x22F8 JUMP JUMPDEST POP SWAP1 JUMP JUMPDEST DUP3 DUP1 SLOAD DUP3 DUP3 SSTORE SWAP1 PUSH1 0x0 MSTORE PUSH1 0x20 PUSH1 0x0 KECCAK256 SWAP1 DUP2 ADD SWAP3 DUP3 ISZERO PUSH2 0x22AD JUMPI SWAP2 PUSH1 0x20 MUL DUP3 ADD JUMPDEST DUP3 DUP2 GT ISZERO PUSH2 0x22AD JUMPI DUP3 MLOAD DUP3 SSTORE SWAP2 PUSH1 0x20 ADD SWAP2 SWAP1 PUSH1 0x1 ADD SWAP1 PUSH2 0x22DD JUMP JUMPDEST JUMPDEST DUP1 DUP3 GT ISZERO PUSH2 0x22B9 JUMPI PUSH1 0x0 DUP2 SSTORE PUSH1 0x1 ADD PUSH2 0x22F9 JUMP JUMPDEST PUSH1 0x0 PUSH1 0x20 DUP1 DUP4 MSTORE DUP4 MLOAD DUP1 PUSH1 0x20 DUP6 ADD MSTORE PUSH1 0x0 JUMPDEST DUP2 DUP2 LT ISZERO PUSH2 0x233B JUMPI DUP6 DUP2 ADD DUP4 ADD MLOAD DUP6 DUP3 ADD PUSH1 0x40 ADD MSTORE DUP3 ADD PUSH2 0x231F JUMP JUMPDEST POP PUSH1 0x0 PUSH1 0x40 DUP3 DUP7 ADD ADD MSTORE PUSH1 0x40 PUSH1 0x1F NOT PUSH1 0x1F DUP4 ADD AND DUP6 ADD ADD SWAP3 POP POP POP SWAP3 SWAP2 POP POP JUMP JUMPDEST PUSH1 0x1 PUSH1 0x1 PUSH1 0xA0 SHL SUB DUP2 AND DUP2 EQ PUSH2 0x13E2 JUMPI PUSH1 0x0 DUP1 REVERT JUMPDEST PUSH1 0x0 DUP1 PUSH1 0x40 DUP4 DUP6 SUB SLT ISZERO PUSH2 0x2384 JUMPI PUSH1 0x0 DUP1 REVERT JUMPDEST DUP3 CALLDATALOAD PUSH2 0x238F DUP2 PUSH2 0x235C JUMP JUMPDEST SWAP5 PUSH1 0x20 SWAP4 SWAP1 SWAP4 ADD CALLDATALOAD SWAP4 POP POP POP JUMP JUMPDEST PUSH1 0x0 DUP2 MLOAD DUP1 DUP5 MSTORE PUSH1 0x20 DUP1 DUP6 ADD SWAP5 POP PUSH1 0x20 DUP5 ADD PUSH1 0x0 JUMPDEST DUP4 DUP2 LT ISZERO PUSH2 0x23D7 JUMPI DUP2 MLOAD PUSH1 0x1 PUSH1 0x1 PUSH1 0xA0 SHL SUB AND DUP8 MSTORE SWAP6 DUP3 ADD SWAP6 SWAP1 DUP3 ADD SWAP1 PUSH1 0x1 ADD PUSH2 0x23B2 JUMP JUMPDEST POP SWAP5 SWAP6 SWAP5 POP POP POP POP POP JUMP JUMPDEST DUP5 DUP2 MSTORE DUP4 PUSH1 0x20 DUP3 ADD MSTORE DUP3 PUSH1 0x40 DUP3 ADD MSTORE PUSH1 0x80 PUSH1 0x60 DUP3 ADD MSTORE PUSH1 0x0 PUSH2 0x2407 PUSH1 0x80 DUP4 ADD DUP5 PUSH2 0x239D JUMP JUMPDEST SWAP7 SWAP6 POP POP POP POP POP POP JUMP JUMPDEST PUSH1 0x0 DUP1 PUSH1 0x0 DUP1 PUSH1 0x60 DUP6 DUP8 SUB SLT ISZERO PUSH2 0x2427 JUMPI PUSH1 0x0 DUP1 REVERT JUMPDEST DUP5 CALLDATALOAD SWAP4 POP PUSH1 0x20 DUP6 ADD CALLDATALOAD SWAP3 POP PUSH1 0x40 DUP6 ADD CALLDATALOAD PUSH8 0xFFFFFFFFFFFFFFFF DUP1 DUP3 GT ISZERO PUSH2 0x244D JUMPI PUSH1 0x0 DUP1 REVERT JUMPDEST DUP2 DUP8 ADD SWAP2 POP DUP8 PUSH1 0x1F DUP4 ADD SLT PUSH2 0x2461 JUMPI PUSH1 0x0 DUP1 REVERT JUMPDEST DUP2 CALLDATALOAD DUP2 DUP2 GT ISZERO PUSH2 0x2470 JUMPI PUSH1 0x0 DUP1 REVERT JUMPDEST DUP9 PUSH1 0x20 DUP3 PUSH1 0x5 SHL DUP6 ADD ADD GT ISZERO PUSH2 0x2485 JUMPI PUSH1 0x0 DUP1 REVERT JUMPDEST SWAP6 SWAP9 SWAP5 SWAP8 POP POP PUSH1 0x20 ADD SWAP5 POP POP POP JUMP JUMPDEST PUSH1 0x20 DUP1 DUP3 MSTORE DUP3 MLOAD DUP3 DUP3 ADD DUP2 SWAP1 MSTORE PUSH1 0x0 SWAP2 SWAP1 DUP5 DUP3 ADD SWAP1 PUSH1 0x40 DUP6 ADD SWAP1 DUP5 JUMPDEST DUP2 DUP2 LT ISZERO PUSH2 0x24CC JUMPI DUP4 MLOAD DUP4 MSTORE SWAP3 DUP5 ADD SWAP3 SWAP2 DUP5 ADD SWAP2 PUSH1 0x1 ADD PUSH2 0x24B0 JUMP JUMPDEST POP SWAP1 SWAP7 SWAP6 POP POP POP POP POP POP JUMP JUMPDEST PUSH1 0x0 PUSH1 0x20 DUP3 DUP5 SUB SLT ISZERO PUSH2 0x24EA JUMPI PUSH1 0x0 DUP1 REVERT JUMPDEST POP CALLDATALOAD SWAP2 SWAP1 POP JUMP JUMPDEST PUSH1 0x0 DUP1 PUSH1 0x0 PUSH1 0x60 DUP5 DUP7 SUB SLT ISZERO PUSH2 0x2506 JUMPI PUSH1 0x0 DUP1 REVERT JUMPDEST DUP4 CALLDATALOAD PUSH2 0x2511 DUP2 PUSH2 0x235C JUMP JUMPDEST SWAP3 POP PUSH1 0x20 DUP5 ADD CALLDATALOAD PUSH2 0x2521 DUP2 PUSH2 0x235C JUMP JUMPDEST SWAP3 SWAP6 SWAP3 SWAP5 POP POP POP PUSH1 0x40 SWAP2 SWAP1 SWAP2 ADD CALLDATALOAD SWAP1 JUMP JUMPDEST PUSH1 0x0 PUSH1 0x20 DUP3 DUP5 SUB SLT ISZERO PUSH2 0x2544 JUMPI PUSH1 0x0 DUP1 REVERT JUMPDEST DUP2 CALLDATALOAD PUSH2 0x254F DUP2 PUSH2 0x235C JUMP JUMPDEST SWAP4 SWAP3 POP POP POP JUMP JUMPDEST PUSH4 0x4E487B71 PUSH1 0xE0 SHL PUSH1 0x0 MSTORE PUSH1 0x41 PUSH1 0x4 MSTORE PUSH1 0x24 PUSH1 0x0 REVERT JUMPDEST PUSH1 0x40 MLOAD PUSH1 0x1F DUP3 ADD PUSH1 0x1F NOT AND DUP2 ADD PUSH8 0xFFFFFFFFFFFFFFFF DUP2 GT DUP3 DUP3 LT OR ISZERO PUSH2 0x2595 JUMPI PUSH2 0x2595 PUSH2 0x2556 JUMP JUMPDEST PUSH1 0x40 MSTORE SWAP2 SWAP1 POP JUMP JUMPDEST PUSH1 0x0 PUSH8 0xFFFFFFFFFFFFFFFF DUP3 GT ISZERO PUSH2 0x25B7 JUMPI PUSH2 0x25B7 PUSH2 0x2556 JUMP JUMPDEST POP PUSH1 0x5 SHL PUSH1 0x20 ADD SWAP1 JUMP JUMPDEST PUSH1 0x0 DUP3 PUSH1 0x1F DUP4 ADD SLT PUSH2 0x25D2 JUMPI PUSH1 0x0 DUP1 REVERT JUMPDEST DUP2 CALLDATALOAD PUSH1 0x20 PUSH2 0x25E7 PUSH2 0x25E2 DUP4 PUSH2 0x259D JUMP JUMPDEST PUSH2 0x256C JUMP JUMPDEST DUP1 DUP4 DUP3 MSTORE PUSH1 0x20 DUP3 ADD SWAP2 POP PUSH1 0x20 DUP5 PUSH1 0x5 SHL DUP8 ADD ADD SWAP4 POP DUP7 DUP5 GT ISZERO PUSH2 0x2609 JUMPI PUSH1 0x0 DUP1 REVERT JUMPDEST PUSH1 0x20 DUP7 ADD JUMPDEST DUP5 DUP2 LT ISZERO PUSH2 0x262E JUMPI DUP1 CALLDATALOAD PUSH2 0x2621 DUP2 PUSH2 0x235C JUMP JUMPDEST DUP4 MSTORE SWAP2 DUP4 ADD SWAP2 DUP4 ADD PUSH2 0x260E JUMP JUMPDEST POP SWAP7 SWAP6 POP POP POP POP POP POP JUMP JUMPDEST PUSH1 0x0 DUP1 PUSH1 0x40 DUP4 DUP6 SUB SLT ISZERO PUSH2 0x264C JUMPI PUSH1 0x0 DUP1 REVERT JUMPDEST DUP3 CALLDATALOAD SWAP2 POP PUSH1 0x20 DUP4 ADD CALLDATALOAD PUSH8 0xFFFFFFFFFFFFFFFF DUP2 GT ISZERO PUSH2 0x266A JUMPI PUSH1 0x0 DUP1 REVERT JUMPDEST PUSH2 0x2676 DUP6 DUP3 DUP7 ADD PUSH2 0x25C1 JUMP JUMPDEST SWAP2 POP POP SWAP3 POP SWAP3 SWAP1 POP JUMP JUMPDEST PUSH1 0x0 DUP1 PUSH1 0x40 DUP4 DUP6 SUB SLT ISZERO PUSH2 0x2693 JUMPI PUSH1 0x0 DUP1 REVERT JUMPDEST DUP3 CALLDATALOAD PUSH8 0xFFFFFFFFFFFFFFFF DUP2 GT ISZERO PUSH2 0x26AA JUMPI PUSH1 0x0 DUP1 REVERT JUMPDEST PUSH2 0x26B6 DUP6 DUP3 DUP7 ADD PUSH2 0x25C1 JUMP JUMPDEST SWAP3 POP POP PUSH1 0x20 DUP4 ADD CALLDATALOAD PUSH2 0x26C7 DUP2 PUSH2 0x235C JUMP JUMPDEST DUP1 SWAP2 POP POP SWAP3 POP SWAP3 SWAP1 POP JUMP JUMPDEST PUSH1 0x20 DUP2 MSTORE PUSH1 0x0 PUSH2 0x254F PUSH1 0x20 DUP4 ADD DUP5 PUSH2 0x239D JUMP JUMPDEST PUSH1 0x0 DUP1 PUSH1 0x40 DUP4 DUP6 SUB SLT ISZERO PUSH2 0x26F8 JUMPI PUSH1 0x0 DUP1 REVERT JUMPDEST POP POP DUP1 CALLDATALOAD SWAP3 PUSH1 0x20 SWAP1 SWAP2 ADD CALLDATALOAD SWAP2 POP JUMP JUMPDEST PUSH1 0x0 DUP1 PUSH1 0x0 DUP1 PUSH1 0x80 DUP6 DUP8 SUB SLT ISZERO PUSH2 0x271D JUMPI PUSH1 0x0 DUP1 REVERT JUMPDEST DUP5 CALLDATALOAD PUSH8 0xFFFFFFFFFFFFFFFF DUP1 DUP3 GT ISZERO PUSH2 0x2735 JUMPI PUSH1 0x0 DUP1 REVERT JUMPDEST PUSH2 0x2741 DUP9 DUP4 DUP10 ADD PUSH2 0x25C1 JUMP JUMPDEST SWAP6 POP PUSH1 0x20 SWAP2 POP DUP2 DUP8 ADD CALLDATALOAD DUP2 DUP2 GT ISZERO PUSH2 0x2758 JUMPI PUSH1 0x0 DUP1 REVERT JUMPDEST DUP8 ADD PUSH1 0x1F DUP2 ADD DUP10 SGT PUSH2 0x2769 JUMPI PUSH1 0x0 DUP1 REVERT JUMPDEST DUP1 CALLDATALOAD PUSH2 0x2777 PUSH2 0x25E2 DUP3 PUSH2 0x259D JUMP JUMPDEST DUP2 DUP2 MSTORE PUSH1 0x5 SWAP2 SWAP1 SWAP2 SHL DUP3 ADD DUP5 ADD SWAP1 DUP5 DUP2 ADD SWAP1 DUP12 DUP4 GT ISZERO PUSH2 0x2796 JUMPI PUSH1 0x0 DUP1 REVERT JUMPDEST SWAP3 DUP6 ADD SWAP3 JUMPDEST DUP3 DUP5 LT ISZERO PUSH2 0x27B4 JUMPI DUP4 CALLDATALOAD DUP3 MSTORE SWAP3 DUP6 ADD SWAP3 SWAP1 DUP6 ADD SWAP1 PUSH2 0x279B JUMP JUMPDEST SWAP8 POP POP POP POP PUSH1 0x40 DUP8 ADD CALLDATALOAD SWAP4 POP PUSH1 0x60 DUP8 ADD CALLDATALOAD SWAP2 POP DUP1 DUP3 GT ISZERO PUSH2 0x27D4 JUMPI PUSH1 0x0 DUP1 REVERT JUMPDEST POP PUSH2 0x27E1 DUP8 DUP3 DUP9 ADD PUSH2 0x25C1 JUMP JUMPDEST SWAP2 POP POP SWAP3 SWAP6 SWAP2 SWAP5 POP SWAP3 POP JUMP JUMPDEST PUSH1 0x0 DUP1 PUSH1 0x40 DUP4 DUP6 SUB SLT ISZERO PUSH2 0x2800 JUMPI PUSH1 0x0 DUP1 REVERT JUMPDEST DUP3 CALLDATALOAD PUSH2 0x280B DUP2 PUSH2 0x235C JUMP JUMPDEST SWAP2 POP PUSH1 0x20 DUP4 ADD CALLDATALOAD PUSH2 0x26C7 DUP2 PUSH2 0x235C JUMP JUMPDEST PUSH1 0x1 DUP2 DUP2 SHR SWAP1 DUP3 AND DUP1 PUSH2 0x282F JUMPI PUSH1 0x7F DUP3 AND SWAP2 POP JUMPDEST PUSH1 0x20 DUP3 LT DUP2 SUB PUSH2 0x284F JUMPI PUSH4 0x4E487B71 PUSH1 0xE0 SHL PUSH1 0x0 MSTORE PUSH1 0x22 PUSH1 0x4 MSTORE PUSH1 0x24 PUSH1 0x0 REVERT JUMPDEST POP SWAP2 SWAP1 POP JUMP JUMPDEST PUSH1 0x0 DUP3 PUSH1 0x1F DUP4 ADD SLT PUSH2 0x2866 JUMPI PUSH1 0x0 DUP1 REVERT JUMPDEST DUP2 MLOAD PUSH1 0x20 PUSH2 0x2876 PUSH2 0x25E2 DUP4 PUSH2 0x259D JUMP JUMPDEST DUP1 DUP4 DUP3 MSTORE PUSH1 0x20 DUP3 ADD SWAP2 POP PUSH1 0x20 DUP5 PUSH1 0x5 SHL DUP8 ADD ADD SWAP4 POP DUP7 DUP5 GT ISZERO PUSH2 0x2898 JUMPI PUSH1 0x0 DUP1 REVERT JUMPDEST PUSH1 0x20 DUP7 ADD JUMPDEST DUP5 DUP2 LT ISZERO PUSH2 0x262E JUMPI DUP1 MLOAD PUSH2 0x28B0 DUP2 PUSH2 0x235C JUMP JUMPDEST DUP4 MSTORE SWAP2 DUP4 ADD SWAP2 DUP4 ADD PUSH2 0x289D JUMP JUMPDEST PUSH1 0x0 DUP1 PUSH1 0x0 DUP1 PUSH1 0x80 DUP6 DUP8 SUB SLT ISZERO PUSH2 0x28D3 JUMPI PUSH1 0x0 DUP1 REVERT JUMPDEST DUP5 MLOAD SWAP4 POP PUSH1 0x20 DUP6 ADD MLOAD SWAP3 POP PUSH1 0x40 DUP6 ADD MLOAD SWAP2 POP PUSH1 0x60 DUP6 ADD MLOAD PUSH8 0xFFFFFFFFFFFFFFFF DUP2 GT ISZERO PUSH2 0x28FF JUMPI PUSH1 0x0 DUP1 REVERT JUMPDEST PUSH2 0x27E1 DUP8 DUP3 DUP9 ADD PUSH2 0x2855 JUMP JUMPDEST PUSH1 0x0 PUSH1 0x20 DUP3 DUP5 SUB SLT ISZERO PUSH2 0x291D JUMPI PUSH1 0x0 DUP1 REVERT JUMPDEST DUP2 MLOAD PUSH8 0xFFFFFFFFFFFFFFFF DUP2 GT ISZERO PUSH2 0x2934 JUMPI PUSH1 0x0 DUP1 REVERT JUMPDEST PUSH2 0x2940 DUP5 DUP3 DUP6 ADD PUSH2 0x2855 JUMP JUMPDEST SWAP5 SWAP4 POP POP POP POP JUMP JUMPDEST PUSH4 0x4E487B71 PUSH1 0xE0 SHL PUSH1 0x0 MSTORE PUSH1 0x32 PUSH1 0x4 MSTORE PUSH1 0x24 PUSH1 0x0 REVERT JUMPDEST DUP3 DUP2 MSTORE PUSH1 0x40 PUSH1 0x20 DUP3 ADD MSTORE PUSH1 0x0 PUSH2 0x2940 PUSH1 0x40 DUP4 ADD DUP5 PUSH2 0x239D JUMP JUMPDEST PUSH4 0x4E487B71 PUSH1 0xE0 SHL PUSH1 0x0 MSTORE PUSH1 0x11 PUSH1 0x4 MSTORE PUSH1 0x24 PUSH1 0x0 REVERT JUMPDEST PUSH1 0x0 PUSH1 0x1 DUP3 ADD PUSH2 0x299F JUMPI PUSH2 0x299F PUSH2 0x2977 JUMP JUMPDEST POP PUSH1 0x1 ADD SWAP1 JUMP JUMPDEST PUSH1 0x0 PUSH1 0x20 DUP3 DUP5 SUB SLT ISZERO PUSH2 0x29B8 JUMPI PUSH1 0x0 DUP1 REVERT JUMPDEST POP MLOAD SWAP2 SWAP1 POP JUMP JUMPDEST DUP1 DUP3 ADD DUP1 DUP3 GT ISZERO PUSH2 0x92A JUMPI PUSH2 0x92A PUSH2 0x2977 JUMP JUMPDEST PUSH1 0x20 DUP1 DUP3 MSTORE PUSH1 0x26 SWAP1 DUP3 ADD MSTORE PUSH32 0x43616C6C6572206D7573742062652074686520536D6172746E6F6465734D756C PUSH1 0x40 DUP3 ADD MSTORE PUSH6 0x3A34A9B4B397 PUSH1 0xD1 SHL PUSH1 0x60 DUP3 ADD MSTORE PUSH1 0x80 ADD SWAP1 JUMP JUMPDEST PUSH1 0x0 DUP3 PUSH2 0x2A35 JUMPI PUSH4 0x4E487B71 PUSH1 0xE0 SHL PUSH1 0x0 MSTORE PUSH1 0x12 PUSH1 0x4 MSTORE PUSH1 0x24 PUSH1 0x0 REVERT JUMPDEST POP DIV SWAP1 JUMP JUMPDEST DUP2 DUP2 SUB DUP2 DUP2 GT ISZERO PUSH2 0x92A JUMPI PUSH2 0x92A PUSH2 0x2977 JUMP JUMPDEST PUSH1 0x20 DUP1 DUP3 MSTORE PUSH1 0x21 SWAP1 DUP3 ADD MSTORE PUSH32 0x416D6F756E74206D7573742062652067726561746572207468616E207A65726F PUSH1 0x40 DUP3 ADD MSTORE PUSH1 0x17 PUSH1 0xF9 SHL PUSH1 0x60 DUP3 ADD MSTORE PUSH1 0x80 ADD SWAP1 JUMP JUMPDEST DUP1 DUP3 MUL DUP2 ISZERO DUP3 DUP3 DIV DUP5 EQ OR PUSH2 0x92A JUMPI PUSH2 0x92A PUSH2 0x2977 JUMP JUMPDEST PUSH1 0x0 PUSH1 0x20 DUP3 DUP5 SUB SLT ISZERO PUSH2 0x2AB7 JUMPI PUSH1 0x0 DUP1 REVERT JUMPDEST DUP2 MLOAD DUP1 ISZERO ISZERO DUP2 EQ PUSH2 0x254F JUMPI PUSH1 0x0 DUP1 REVERT JUMPDEST PUSH1 0x20 DUP1 DUP3 MSTORE PUSH1 0x2B SWAP1 DUP3 ADD MSTORE PUSH32 0x496E697469616C697A61626C653A20636F6E7472616374206973206E6F742069 PUSH1 0x40 DUP3 ADD MSTORE PUSH11 0x6E697469616C697A696E67 PUSH1 0xA8 SHL PUSH1 0x60 DUP3 ADD MSTORE PUSH1 0x80 ADD SWAP1 JUMP JUMPDEST PUSH1 0x1F DUP3 GT ISZERO PUSH2 0x110C JUMPI PUSH1 0x0 DUP2 PUSH1 0x0 MSTORE PUSH1 0x20 PUSH1 0x0 KECCAK256 PUSH1 0x1F DUP6 ADD PUSH1 0x5 SHR DUP2 ADD PUSH1 0x20 DUP7 LT ISZERO PUSH2 0x2B3B JUMPI POP DUP1 JUMPDEST PUSH1 0x1F DUP6 ADD PUSH1 0x5 SHR DUP3 ADD SWAP2 POP JUMPDEST DUP2 DUP2 LT ISZERO PUSH2 0x2B5A JUMPI DUP3 DUP2 SSTORE PUSH1 0x1 ADD PUSH2 0x2B47 JUMP JUMPDEST POP POP POP POP POP POP JUMP JUMPDEST DUP2 MLOAD PUSH8 0xFFFFFFFFFFFFFFFF DUP2 GT ISZERO PUSH2 0x2B7C JUMPI PUSH2 0x2B7C PUSH2 0x2556 JUMP JUMPDEST PUSH2 0x2B90 DUP2 PUSH2 0x2B8A DUP5 SLOAD PUSH2 0x281B JUMP JUMPDEST DUP5 PUSH2 0x2B12 JUMP JUMPDEST PUSH1 0x20 DUP1 PUSH1 0x1F DUP4 GT PUSH1 0x1 DUP2 EQ PUSH2 0x2BC5 JUMPI PUSH1 0x0 DUP5 ISZERO PUSH2 0x2BAD JUMPI POP DUP6 DUP4 ADD MLOAD JUMPDEST PUSH1 0x0 NOT PUSH1 0x3 DUP7 SWAP1 SHL SHR NOT AND PUSH1 0x1 DUP6 SWAP1 SHL OR DUP6 SSTORE PUSH2 0x2B5A JUMP JUMPDEST PUSH1 0x0 DUP6 DUP2 MSTORE PUSH1 0x20 DUP2 KECCAK256 PUSH1 0x1F NOT DUP7 AND SWAP2 JUMPDEST DUP3 DUP2 LT ISZERO PUSH2 0x2BF4 JUMPI DUP9 DUP7 ADD MLOAD DUP3 SSTORE SWAP5 DUP5 ADD SWAP5 PUSH1 0x1 SWAP1 SWAP2 ADD SWAP1 DUP5 ADD PUSH2 0x2BD5 JUMP JUMPDEST POP DUP6 DUP3 LT ISZERO PUSH2 0x2C12 JUMPI DUP8 DUP6 ADD MLOAD PUSH1 0x0 NOT PUSH1 0x3 DUP9 SWAP1 SHL PUSH1 0xF8 AND SHR NOT AND DUP2 SSTORE JUMPDEST POP POP POP POP POP PUSH1 0x1 SWAP1 DUP2 SHL ADD SWAP1 SSTORE POP JUMP INVALID LOG2 PUSH5 0x6970667358 0x22 SLT KECCAK256 PUSH5 0x640D9682F6 LOG4 MSTORE 0xBA 0xB3 SWAP11 0xC6 0xBE 0xEE 0xAC 0x26 0xA6 PUSH1 0x4D 0xCD SWAP16 0x2B DUP3 0x2C 0xD4 SWAP16 BALANCE 0xBB PUSH20 0xAB974C64736F6C63430008190033000000000000 ",
  "sha1": "a84bcb23730188fbdb3a9dba77945eefb05d191b",
  "source": "// SPDX-License-Identifier: MIT\npragma solidity ^0.8.5;\n\nimport \"@openzeppelin-upgradeable/contracts/token/ERC20/ERC20Upgradeable.sol\";\nimport \"./interfaces/ISmartnodesMultiSig.sol\";\n\n/**\n * @title SmartNodes\n * @dev An ERC20 contract for managing off-chain networks\n */\ncontract SmartnodesCore is ERC20Upgradeable {\n    // Validator multi-sig address\n    ISmartnodesMultiSig private _validatorContractInstance;\n    address public validatorContractAddress;\n\n    // Counters for storage indexing / IDs\n    uint256 public validatorIdCounter;\n    uint256 public userCounter;\n    uint256 public jobCounter;\n    uint256 public activeValidators;\n    uint256 public minValidators;\n    uint256 public maxValidators;\n\n    // Events\n    event TokensLocked(address indexed validator, uint256 amount);\n    event UnlockInitiated(address indexed validator, uint256 unlockTime);\n    event TokensUnlocked(address indexed validator, uint256 amount);\n    event JobRequested(\n        bytes32 indexed jobHash,\n        uint256 timestamp,\n        address[] seedValidators\n    );\n    event JobCompleted(bytes32 indexed jobId, uint256 timestamp);\n    event JobDisputed(bytes32 indexed jobId, uint256 timestamp);\n\n    // User data with key information (address, RSA key hash, reputation)\n    struct User {\n        address userAddress;\n        bytes32 publicKeyHash;\n        uint8 reputation;\n    }\n\n    // Validator data with key information (address, RSA key hash, locked value, reputation, activity)\n    struct Validator {\n        bytes32 publicKeyHash;\n        address validatorAddress;\n        uint256 locked;\n        uint256 unlockTime;\n        uint8 reputation;\n    }\n\n    // Information for  a generic off-chain job (job hash [key for kademlia lookup], seed validators, participants, author, etc)\n    struct Job {\n        address author;\n        address[] seedValidators;\n        address[] workers;\n        uint256[] capacities;\n        bool activity;\n    }\n\n    // ERC20 token supply metrics\n    uint256 public constant MAX_SUPPLY = 21_000_000e18;\n    uint256 constant _TAIL_EMISSION = 8e18;\n\n    uint256 public halving = 2160; // number of state updates until next halving (~3 months)\n    uint256 public emissionRate = 512e18; // amount of tokens to be emitted per state update\n    uint256 public lockAmount = 50_000e18; // minimum validator locked tokens required\n    uint256 public unlockPeriod = 50400;\n    uint256 public timeSinceLastHalving;\n\n    // Main datastructure mappings via id lookup\n    mapping(bytes32 => User) public users;\n    mapping(bytes32 => address) public workers;\n    mapping(bytes32 => address) public validatorAddressByHash;\n    mapping(uint256 => Validator) public validators;\n    mapping(bytes32 => Job) public jobs;\n    uint256[] public activeJobs;\n\n    // Helpful mappings\n    mapping(address => bytes32) public userHashByAddress;\n    mapping(address => uint256) public validatorIdByAddress;\n\n    modifier onlyValidatorMultiSig() {\n        require(\n            msg.sender == validatorContractAddress,\n            \"Caller must be the SmartnodesMultiSig.\"\n        );\n        _;\n    }\n\n    function initialize(\n        address[] memory _leadDevelopers,\n        address _communityWallet\n    ) public initializer {\n        __ERC20_init(\"Smartnodes\", \"SNO\");\n\n        // Set all counters to 1 (when looking up values, 0 = Not found)\n        userCounter = 1;\n        jobCounter = 1;\n        validatorIdCounter = 1;\n\n        // Set ERC20 token parameters\n        emissionRate = 512e18; // amount of tokens to be emitted per state update\n        lockAmount = 10_000e18; // minimum validator locked tokens required\n        halving = 8736; // Number of state updates before reward halving\n        unlockPeriod = 1_209_600; // (seconds)\n        timeSinceLastHalving = 0;\n\n        uint256 devWallets = 750_000e18; // For genesis nodes\n        uint256 communityWallet = 1_750_000e18; // 1.5M for IDO, 0.25M for community endeavours\n\n        for (uint i = 0; i < _leadDevelopers.length; i++) {\n            _mint(_leadDevelopers[i], devWallets / _leadDevelopers.length);\n        }\n\n        _mint(_communityWallet, communityWallet);\n\n        // Other parameters\n        minValidators = 1;\n        maxValidators = 5;\n    }\n\n    function setValidatorContract(address validatorAddress) external {\n        require(\n            validatorContractAddress == address(0),\n            \"Validator address already set.\"\n        );\n        _validatorContractInstance = ISmartnodesMultiSig(validatorAddress);\n        validatorContractAddress = validatorAddress;\n    }\n\n    /**\n     * @dev Create a User, limit one per address & public key hash (RSA)\n     */\n    function createUser(bytes32 _publicKeyHash) public {\n        // Only one address & public key hash per user.\n        require(\n            userHashByAddress[msg.sender] == bytes32(0),\n            \"User already registered.\"\n        );\n\n        users[_publicKeyHash] = User({\n            userAddress: msg.sender,\n            publicKeyHash: _publicKeyHash,\n            reputation: 50\n        });\n\n        userHashByAddress[msg.sender] = _publicKeyHash;\n        userCounter++;\n    }\n\n    /**\n     * @dev Create a Validator, limit one per address & public key hash (RSA), requires locking up sno\n     */\n    function createValidator(\n        bytes32 _publicKeyHash,\n        uint256 _lockAmount\n    ) external {\n        require(\n            validatorIdByAddress[msg.sender] == 0,\n            \"Validator already exists.\"\n        );\n\n        require(\n            balanceOf(msg.sender) >= _lockAmount && _lockAmount >= lockAmount,\n            \"Insufficient token balance.\"\n        );\n\n        // Create validator on SmartnodesCore\n        validators[validatorIdCounter] = Validator({\n            publicKeyHash: _publicKeyHash,\n            validatorAddress: msg.sender,\n            locked: lockAmount,\n            unlockTime: 0,\n            reputation: 50\n        });\n\n        validatorIdByAddress[msg.sender] = validatorIdCounter;\n        validatorAddressByHash[_publicKeyHash] = msg.sender;\n\n        // Lock token in contract\n        _lockTokens(msg.sender, lockAmount);\n\n        validatorIdCounter++;\n    }\n\n    // User Job Requesting Via Chainlink VRF TODO\n    function requestJob(\n        bytes32 userHash,\n        bytes32 jobHash,\n        uint256[] calldata _capacities\n    ) external returns (uint256[] memory validatorIds) {\n        // If user directly requests a job, register if they have not already done so\n        if (msg.sender != validatorContractAddress) {\n            if (userHashByAddress[msg.sender] == bytes32(0)) {\n                createUser(userHash);\n                userHash = userHashByAddress[msg.sender];\n            }\n        }\n\n        require(userHash != bytes32(0), \"User not registered!\");\n        require(jobs[jobHash].author == address(0), \"Job already created.\");\n        // require(_capacities[0] > 0, \"Capacity must be greater zero.\");\n\n        address[] memory _seedValidators = _validatorContractInstance\n            .generateValidators(1);\n        uint256[] memory _validatorIds = new uint256[](1); // (_seedValidators.length);\n\n        for (uint256 i = 0; i < _seedValidators.length; i++) {\n            _validatorIds[i] = validatorIdByAddress[_seedValidators[i]];\n        }\n\n        // Store the job in the jobs mapping\n        jobs[jobHash] = Job({\n            author: msg.sender,\n            seedValidators: _seedValidators,\n            workers: new address[](_capacities.length),\n            capacities: _capacities,\n            activity: true\n        });\n\n        emit JobRequested(jobHash, block.timestamp, _seedValidators);\n        jobCounter++;\n\n        return _validatorIds;\n    }\n\n    function completeJob(\n        bytes32 jobHash,\n        address[] memory _workers\n    ) external onlyValidatorMultiSig returns (uint256[] memory) {\n        require(_workers.length == jobs[jobHash].capacities.length);\n\n        jobs[jobHash].workers = _workers;\n        jobs[jobHash].activity = false;\n        // jobIdByUserHash[userIdHash] = 0;\n\n        emit JobCompleted(jobHash, block.timestamp);\n\n        return jobs[jobHash].capacities;\n    }\n\n    function disputeJob(bytes32 jobHash) external onlyValidatorMultiSig {\n        Job storage job = jobs[jobHash];\n        job.activity = false;\n        emit JobDisputed(jobHash, block.timestamp);\n    }\n\n    /**\n     * @dev Internal function to lock tokens, callable from other functions\n     */\n    function _lockTokens(address sender, uint256 amount) internal {\n        require(amount > 0, \"Amount must be greater than zero.\");\n        require(balanceOf(sender) >= amount, \"Insufficient balance.\");\n\n        uint256 validatorId = validatorIdByAddress[sender];\n        require(validatorId != 0, \"Validator does not exist.\");\n\n        transferFrom(sender, address(this), amount);\n        validators[validatorId].locked += amount;\n        uint256 totalLocked = validators[validatorId].locked;\n\n        emit TokensLocked(sender, amount);\n    }\n\n    /**\n     * @dev Validator token unlocking, 30 day withdrawal period.\n     */\n    function lockTokens(uint256 amount) external {\n        _lockTokens(msg.sender, amount);\n    }\n\n    function unlockTokens(uint256 amount) external {\n        uint256 validatorId = validatorIdByAddress[msg.sender];\n        require(validatorId > 0, \"Not a registered validator.\");\n\n        Validator storage validator = validators[validatorId];\n\n        require(amount <= validator.locked, \"Amount exceeds locked balance.\");\n        require(amount > 0, \"Amount must be greater than zero.\");\n\n        // Initialize the unlock time if it's the first unlock attempt\n        if (validator.unlockTime == 0) {\n            validator.unlockTime = block.timestamp + unlockPeriod; // unlocking period\n\n            // Update multisig validator\n            uint256 totalLocked = validator.locked - amount;\n\n            emit UnlockInitiated(msg.sender, validator.unlockTime); // Optional: emit an event\n        } else {\n            // On subsequent attempts, check if the unlock period has elapsed\n            require(\n                block.timestamp >= validator.unlockTime,\n                \"Tokens are still locked.\"\n            );\n\n            validator.locked -= amount;\n            _mint(msg.sender, amount); // Mint tokens back to the validator's address\n\n            emit TokensUnlocked(msg.sender, amount); // Optional: emit an event when tokens are unlocked\n        }\n    }\n\n    /**\n     * @dev Mint tokens for updating state rewards, distribute 40/60 among validators and workers\n     * Updates the emission rate and halving accordingly\n     */\n    function mintTokens(\n        address[] memory _workers,\n        uint256[] memory _workerCapacities,\n        uint256 _totalCapacity,\n        address[] memory _validatorsVoted\n    ) external onlyValidatorMultiSig {\n        require(\n            totalSupply() + emissionRate <= MAX_SUPPLY,\n            \"Maximum supply reached!\"\n        );\n\n        if (timeSinceLastHalving >= halving) {\n            if (emissionRate > 1e18) {\n                emissionRate /= 2;\n            }\n        }\n\n        uint256 validatorRewardTotal = (emissionRate * 20) / 100;\n        uint256 workerRewardTotal = (emissionRate * 80) / 100;\n\n        // Distribute rewards for validators equally\n        uint256 validatorReward = validatorRewardTotal /\n            _validatorsVoted.length;\n\n        for (uint256 v = 0; v < _validatorsVoted.length; v++) {\n            _mint(_validatorsVoted[v], validatorReward);\n        }\n\n        // Distribute rewards for workers\n        for (uint256 w = 0; w < _workers.length; w++) {\n            uint256 reward = ((_workerCapacities[w] * workerRewardTotal) /\n                _totalCapacity);\n            _mint(_workers[w], reward);\n        }\n\n        timeSinceLastHalving++;\n    }\n\n    // Returns a list of all the selected validators for a job request\n    function getJobValidators(\n        bytes32 jobHash\n    ) external view returns (address[] memory) {\n        address[] memory jobValidators = jobs[jobHash].seedValidators;\n        return jobValidators;\n    }\n\n    function getValidatorInfo(\n        uint256 _validatorId\n    ) external view returns (bool, bytes32, address) {\n        require(_validatorId < validatorIdCounter, \"Invalid ID.\");\n        Validator memory _validator = validators[_validatorId];\n        bool isActive = _validatorContractInstance.isActiveValidator(\n            _validator.validatorAddress\n        );\n        return (\n            isActive,\n            _validator.publicKeyHash,\n            _validator.validatorAddress\n        );\n    }\n\n    function getValidatorBytes(\n        address validatorAddress\n    ) external view returns (bytes32) {\n        uint256 validatorId = validatorIdByAddress[validatorAddress];\n        require(validatorId > 0, \"Validator does not exist.\");\n\n        return validators[validatorId].publicKeyHash;\n    }\n\n    function getUserCount() external view returns (uint256) {\n        return userCounter - 1;\n    }\n\n    function getValidatorCount() external view returns (uint256) {\n        return validatorIdCounter - 1;\n    }\n\n    function getActiveValidatorCount() external view returns (uint256) {\n        return _validatorContractInstance.getNumValidators();\n    }\n\n    function getEmissionRate() external view returns (uint256) {\n        return emissionRate;\n    }\n\n    function getSupply() external view returns (uint256) {\n        return this.totalSupply();\n    }\n\n    function isLocked(address validatorAddr) external view returns (bool) {\n        uint256 _id = validatorIdByAddress[validatorAddr];\n        return validators[_id].locked >= lockAmount;\n    }\n\n    function getProposees() external view returns (address[] memory) {\n        return _validatorContractInstance.getSelectedValidators();\n    }\n\n    function getState()\n        external\n        view\n        returns (uint256, uint256, uint256, address[] memory)\n    {\n        return _validatorContractInstance.getState();\n    }\n}\n",
  "sourcePath": "contracts/SmartnodesCore.sol",
  "type": "contract"
}