{"abi":[{"type":"constructor","inputs":[{"name":"_tokenContract","type":"address","internalType":"address"}],"stateMutability":"nonpayable"},{"type":"function","name":"addNetwork","inputs":[{"name":"_name","type":"string","internalType":"string"}],"outputs":[],"stateMutability":"nonpayable"},{"type":"function","name":"createUser","inputs":[{"name":"publicKeyHash","type":"bytes32","internalType":"bytes32"}],"outputs":[],"stateMutability":"nonpayable"},{"type":"function","name":"createValidator","inputs":[{"name":"publicKeyHash","type":"bytes32","internalType":"bytes32"}],"outputs":[],"stateMutability":"nonpayable"},{"type":"function","name":"getCoordinator","inputs":[],"outputs":[{"name":"","type":"address","internalType":"address"}],"stateMutability":"view"},{"type":"function","name":"getJobCount","inputs":[],"outputs":[{"name":"","type":"uint256","internalType":"uint256"}],"stateMutability":"view"},{"type":"function","name":"getValidatorInfo","inputs":[{"name":"_validator","type":"address","internalType":"address"}],"outputs":[{"name":"","type":"bool","internalType":"bool"},{"name":"","type":"bytes32","internalType":"bytes32"}],"stateMutability":"view"},{"type":"function","name":"isLockedValidator","inputs":[{"name":"validator","type":"address","internalType":"address"}],"outputs":[{"name":"","type":"bool","internalType":"bool"}],"stateMutability":"view"},{"type":"function","name":"jobs","inputs":[{"name":"","type":"bytes32","internalType":"bytes32"}],"outputs":[{"name":"payment","type":"uint128","internalType":"uint128"},{"name":"networkId","type":"uint8","internalType":"uint8"},{"name":"state","type":"uint8","internalType":"uint8"},{"name":"payWithSNO","type":"bool","internalType":"bool"},{"name":"owner","type":"address","internalType":"address"}],"stateMutability":"view"},{"type":"function","name":"networkCounter","inputs":[],"outputs":[{"name":"","type":"uint8","internalType":"uint8"}],"stateMutability":"view"},{"type":"function","name":"networks","inputs":[{"name":"","type":"uint8","internalType":"uint8"}],"outputs":[{"name":"networkId","type":"uint8","internalType":"uint8"},{"name":"exists","type":"bool","internalType":"bool"},{"name":"name","type":"string","internalType":"string"}],"stateMutability":"view"},{"type":"function","name":"removeNetwork","inputs":[{"name":"_networkId","type":"uint8","internalType":"uint8"}],"outputs":[],"stateMutability":"nonpayable"},{"type":"function","name":"requestJob","inputs":[{"name":"_userId","type":"bytes32","internalType":"bytes32"},{"name":"_jobId","type":"bytes32","internalType":"bytes32"},{"name":"_networkId","type":"uint8","internalType":"uint8"},{"name":"_capacities","type":"uint256[]","internalType":"uint256[]"},{"name":"_payment","type":"uint128","internalType":"uint128"}],"outputs":[],"stateMutability":"payable"},{"type":"function","name":"setCoordinator","inputs":[{"name":"_validatorContract","type":"address","internalType":"address"}],"outputs":[],"stateMutability":"nonpayable"},{"type":"function","name":"updateContract","inputs":[{"name":"_jobIds","type":"bytes32[]","internalType":"bytes32[]"},{"name":"_validators","type":"address[]","internalType":"address[]"},{"name":"_workers","type":"address[]","internalType":"address[]"},{"name":"_capacities","type":"uint256[]","internalType":"uint256[]"}],"outputs":[],"stateMutability":"nonpayable"},{"type":"function","name":"users","inputs":[{"name":"","type":"address","internalType":"address"}],"outputs":[{"name":"publicKeyHash","type":"bytes32","internalType":"bytes32"},{"name":"reputation","type":"uint8","internalType":"uint8"},{"name":"locked","type":"bool","internalType":"bool"},{"name":"exists","type":"bool","internalType":"bool"}],"stateMutability":"view"},{"type":"function","name":"validators","inputs":[{"name":"","type":"address","internalType":"address"}],"outputs":[{"name":"publicKeyHash","type":"bytes32","internalType":"bytes32"},{"name":"reputation","type":"uint8","internalType":"uint8"},{"name":"locked","type":"bool","internalType":"bool"},{"name":"exists","type":"bool","internalType":"bool"}],"stateMutability":"view"},{"type":"event","name":"JobCompleted","inputs":[{"name":"jobId","type":"bytes32","indexed":true,"internalType":"bytes32"},{"name":"networkId","type":"uint8","indexed":false,"internalType":"uint8"},{"name":"payment","type":"uint128","indexed":false,"internalType":"uint128"},{"name":"payWithSNO","type":"bool","indexed":false,"internalType":"bool"}],"anonymous":false},{"type":"event","name":"JobCreated","inputs":[{"name":"jobId","type":"bytes32","indexed":true,"internalType":"bytes32"},{"name":"owner","type":"bytes32","indexed":true,"internalType":"bytes32"},{"name":"networkId","type":"uint8","indexed":false,"internalType":"uint8"},{"name":"payment","type":"uint128","indexed":false,"internalType":"uint128"},{"name":"payWithSNO","type":"bool","indexed":false,"internalType":"bool"}],"anonymous":false},{"type":"event","name":"NetworkAdded","inputs":[{"name":"networkId","type":"uint8","indexed":true,"internalType":"uint8"},{"name":"name","type":"string","indexed":false,"internalType":"string"}],"anonymous":false},{"type":"event","name":"NetworkRemoved","inputs":[{"name":"networkId","type":"uint8","indexed":true,"internalType":"uint8"}],"anonymous":false},{"type":"error","name":"Core__InsufficientBalance","inputs":[]},{"type":"error","name":"Core__InvalidArrayLength","inputs":[]},{"type":"error","name":"Core__InvalidNetworkId","inputs":[]},{"type":"error","name":"Core__InvalidPayment","inputs":[]},{"type":"error","name":"Core__InvalidUser","inputs":[]},{"type":"error","name":"Core__JobExists","inputs":[]},{"type":"error","name":"Core__NodeExists","inputs":[]},{"type":"error","name":"Core__NotValidatorMultisig","inputs":[]}],"bytecode":{"object":"0x60a03461009d57601f61123038819003918201601f19168301916001600160401b038311848410176100a15780849260209460405283398101031261009d57516001600160a01b0381169081900361009d576080525f60015560ff196002541660025560405161117a90816100b68239608051818181610285015281816103600152818161087601528181610c4001528181610d770152610ec50152f35b5f80fd5b634e487b7160e01b5f52604160045260245ffdfe6080806040526004361015610012575f80fd5b5f3560e01c908163010196b114610feb5750806338ed7cfc14610f825780635c182a7114610b8157806371977fe014610b5a5780637ad9028f14610b175780637c93e7d214610a5c5780638a11d7c914610a135780638a21e639146108e15780638dca9a19146108325780638ea98117146107f057806391ef735714610572578063a87430ba146104fc578063abf7bfd8146104a6578063b02b4a2f14610489578063b3010c021461014a5763fa52c7d8146100cc575f80fd5b34610146576020366003190112610146576001600160a01b036100ed611039565b165f52600360205260405f2060018154910154610142604051928260ff859460101c169160ff808360081c16921690859260ff6060939695929660808601978652166020850152151560408401521515910152565b0390f35b5f80fd5b60a03660031901126101465760443560243560ff82168083036101465760643567ffffffffffffffff811161014657610187903690600401611008565b6001600160801b0392608435925083831691908284036101465760ff600254168111908115610480575b5061046e571561045d57835f52600560205260405f2090335f52600460205260405f2091600181019384549260018060a01b039485851661044b576001015460ff8160101c161590811561043f575b5061042d5715158080610424575b610412573415610404575050843416945f945b82546001600160a01b031990941633179055608088901b60ff60801b1671ffffffffffffffffffffffffffffffffffff199093169086161791909117600160881b1760ff60901b1916831515609081901b60ff60901b169190911790915561035e577f00000000000000000000000000000000000000000000000000000000000000001691823b1561014657604051630cdb80e360e21b81523360048201526001600160801b038216602482015260ff86166044820152925f908490606490829034905af1928315610353577f1e5837348769105684cda816327cb2153712ecb587371272fa078b1fb24d3bd893610344575b505b6040805160ff9690961686526001600160801b039190911660208601529015159084015260043592606090a3005b61034d90611097565b85610314565b6040513d5f823e3d90fd5b7f00000000000000000000000000000000000000000000000000000000000000001691823b156101465760405163812a56bf60e01b81523360048201526001600160801b038216602482015260ff86166044820152925f908490606490829084905af1928315610353577f1e5837348769105684cda816327cb2153712ecb587371272fa078b1fb24d3bd8936103f5575b50610316565b6103fe90611097565b856103ef565b156104125794600194610221565b60405163f89736d160e01b8152600490fd5b5034151561020e565b60405163c99cc94960e01b8152600490fd5b60ff915016158a610200565b604051632e460d6b60e21b8152600490fd5b6040516243f5c760e11b8152600490fd5b6040516334e10f3960e21b8152600490fd5b905015876101b1565b34610146575f366003190112610146576020600154604051908152f35b3461014657602036600319011261014657335f52600460205260405f206001810190815460ff8160101c166104ea5760043590915562ff00ff191662010001179055005b60405163c107245560e01b8152600490fd5b34610146576020366003190112610146576001600160a01b0361051d611039565b165f52600460205260405f2060018154910154610142604051928260ff859460101c169160ff808360081c16921690859260ff6060939695929660808601978652166020850152151560408401521515910152565b34610146576020806003193601126101465760043567ffffffffffffffff8082116101465736602383011215610146578160040135908082116101465760248301926024833692010111610146576002549260ff8416601081101561046e5760ff81146107dc5760ff600180920116809560ff1916176002556040519260608401848110828211176107c85760405285845286840191808352601f198181601f89011696604051956106268c8a01886110ab565b89875289888d8901375f8c8b89010152604082019687528a5f5260068c5260ff60405f2092511661ff0083549251151560081b169161ffff19161717815501935180519384116107c85761067a855461105f565b601f811161078f575b508991601f851160011461070257507f789058c6d820226a3716faa58ff581dcf7d5f1999d848965ec5129b48e0a31d29899956040979585805f978b978d9788978b946106f7575b50501b9188199060031b1c19161790555b835198878a98895288015283870137840101528101030190a2005b015192505f806106cb565b8493949291921691855f528a5f20925f5b81811061077a5750955f95858b9586957f789058c6d820226a3716faa58ff581dcf7d5f1999d848965ec5129b48e0a31d29e9f9b9560409d9b998e9a10610762575b505050811b0190556106dc565b0151891960f88460031b161c191690558e8080610755565b82840151855593860193928c01928c01610713565b6107b890865f528b5f20601f870160051c8101918d88106107be575b601f0160051c0190611113565b8a610683565b90915081906107ab565b634e487b7160e01b5f52604160045260245ffd5b634e487b7160e01b5f52601160045260245ffd5b3461014657602036600319011261014657610809611039565b5f54906001600160a01b03908183161561081f57005b6001600160a01b03199092169116175f55005b3461014657602036600319011261014657335f52600360205260405f206001810190815460ff8160101c166104ea5760043590915562ffff001916620101001790557f00000000000000000000000000000000000000000000000000000000000000006001600160a01b0316803b15610146575f809160446040518094819363dc8bde8160e01b8352336004840152600160248401525af18015610353576108d657005b6108df90611097565b005b34610146576020806003193601126101465760ff6108fd61104f565b165f526006815260405f20805491600180920160405180935f908354936109238561105f565b94858552866001821691825f146109f15750506001146109b5575b505060ff95939250906109529103846110ab565b604051938281869416845260081c16151581830152606060408301528251908160608401525f935b82851061099c575050608092505f838284010152601f80199101168101030190f35b848101820151868601608001529381019385935061097a565b8592505f52815f20905f915b8583106109d95750506109529350820101868061093e565b805483890185015287945086939092019181016109c1565b925093505061095294915060ff191682840152151560051b820101868061093e565b34610146576020366003190112610146576001600160a01b03610a34611039565b165f5260036020526040805f2060ff600182015460081c169054825191151582526020820152f35b346101465760203660031901126101465760ff610a7761104f565b16805f52600660205260ff60405f205460081c161561046e57805f526006602052600160405f205f815501610aac815461105f565b9081610ada575b827f8734406cb2bd2ee742cf44452608ee0edd2cdc74d63d00ff9c1ddeb3b82d5f6f5f80a2005b81601f5f9311600114610af15750555b8180610ab3565b908083918252610b10601f60208420940160051c840160018501611113565b5555610aea565b34610146576020366003190112610146576001600160a01b03610b38611039565b165f526003602052602060ff600160405f20015460081c166040519015158152f35b34610146575f366003190112610146575f546040516001600160a01b039091168152602090f35b346101465760803660031901126101465767ffffffffffffffff60043581811161014657610bb3903690600401611008565b60249291923582811161014657610bce903690600401611008565b9360443584811161014657610be7903690600401611008565b929060643586811161014657610c01903690600401611008565b959093868614801590610f7a575b61045d57604051976040890190898210908211176107c8576040525f88525f60208901525f5b828110610d0b5750507f00000000000000000000000000000000000000000000000000000000000000006001600160a01b0316949050843b15610146576040516303c0389960e61b815260a0600482015297610cab93610c999160a48b01916110cd565b8881036003190160248a0152916110cd565b8581036003190160448701528381526001600160fb1b038411610146576020868095935f97938894839660051b809386840137846001600160801b03918281511660648701520151166084840152010301925af18015610353576108d657005b8060051b8201355f52600560205260405f2090815460018060a01b036001840154169260ff8260801c16610d46575b50506001915001610c35565b60ff8260901c16155f14610ea8576001600160801b03610d6f8d82602081871692015116611129565b1660208d01527f00000000000000000000000000000000000000000000000000000000000000006001600160a01b0316803b156101465760405163045894bf60e51b81526001600160a01b039590951660048601526001600160801b03831660248601525f908590604490829084905af19384156103535760ff7f52d4e670c8ea6ccc11b558971137442d7609a96d41515a17f0f9a38b7151e63c92610e8f92600197610e99575b505b600360881b8260881b198254161781558560051b8801355f5260056020525f876040822082815501555460801c16926040519182918660051b890135956001600160801b0360ff8360901c169216908491926001600160801b03604092959460ff60608601971685521660208401521515910152565b0390a28b80610d3a565b610ea290611097565b5f610e17565b6001600160801b03610ec08d82808616915116611129565b168c527f00000000000000000000000000000000000000000000000000000000000000006001600160a01b0316803b156101465760405163601c438d60e01b81526001600160a01b039590951660048601526001600160801b03831660248601525f908590604490829084905af19384156103535760ff7f52d4e670c8ea6ccc11b558971137442d7609a96d41515a17f0f9a38b7151e63c92610e8f92600197610f6b575b50610e19565b610f7490611097565b5f610f65565b508815610c0f565b34610146576020366003190112610146576004355f52600560205260a060405f2080549060018080851b039101541660ff604051926001600160801b0381168452818160801c166020850152818160881c16604085015260901c16151560608301526080820152f35b34610146575f3660031901126101465760209060ff600254168152f35b9181601f840112156101465782359167ffffffffffffffff8311610146576020808501948460051b01011161014657565b600435906001600160a01b038216820361014657565b6004359060ff8216820361014657565b90600182811c9216801561108d575b602083101461107957565b634e487b7160e01b5f52602260045260245ffd5b91607f169161106e565b67ffffffffffffffff81116107c857604052565b90601f8019910116810190811067ffffffffffffffff8211176107c857604052565b9190808252602080920192915f5b8281106110e9575050505090565b9091929384359060018060a01b0382168092036101465790815282019382019291906001016110db565b81811061111e575050565b5f8155600101611113565b9190916001600160801b03808094169116019182116107dc5756fea26469706673582212203a2918b234421b32ffe6849b5e07d1577bff0092bdc7ed16f6f334af168b242d64736f6c63430008160033","linkReferences":{}},"methodIdentifiers":{"addNetwork(string)":"91ef7357","createUser(bytes32)":"abf7bfd8","createValidator(bytes32)":"8dca9a19","getCoordinator()":"71977fe0","getJobCount()":"b02b4a2f","getValidatorInfo(address)":"8a11d7c9","isLockedValidator(address)":"7ad9028f","jobs(bytes32)":"38ed7cfc","networkCounter()":"010196b1","networks(uint8)":"8a21e639","removeNetwork(uint8)":"7c93e7d2","requestJob(bytes32,bytes32,uint8,uint256[],uint128)":"b3010c02","setCoordinator(address)":"8ea98117","updateContract(bytes32[],address[],address[],uint256[])":"5c182a71","users(address)":"a87430ba","validators(address)":"fa52c7d8"},"id":27}