{
  "abi": [
    {
      "inputs": [],
      "name": "ContractAlreadyInitialized",
      "type": "error"
    },
    {
      "inputs": [],
      "name": "InsufficientBalance",
      "type": "error"
    },
    {
      "inputs": [],
      "name": "InvalidAmount",
      "type": "error"
    },
    {
      "inputs": [],
      "name": "InvalidLength",
      "type": "error"
    },
    {
      "inputs": [],
      "name": "NoRewards",
      "type": "error"
    },
    {
      "inputs": [],
      "name": "NoValidators",
      "type": "error"
    },
    {
      "inputs": [],
      "name": "StateUpdateTooFrequent",
      "type": "error"
    },
    {
      "inputs": [],
      "name": "TokensStillLocked",
      "type": "error"
    },
    {
      "inputs": [],
      "name": "UnauthorizedCaller",
      "type": "error"
    },
    {
      "inputs": [],
      "name": "ValidatorAlreadyExists",
      "type": "error"
    },
    {
      "inputs": [],
      "name": "ValidatorNotFound",
      "type": "error"
    },
    {
      "inputs": [],
      "name": "ZeroAddress",
      "type": "error"
    },
    {
      "anonymous": false,
      "inputs": [
        {
          "indexed": true,
          "internalType": "address",
          "name": "owner",
          "type": "address"
        },
        {
          "indexed": true,
          "internalType": "address",
          "name": "spender",
          "type": "address"
        },
        {
          "indexed": false,
          "internalType": "uint256",
          "name": "value",
          "type": "uint256"
        }
      ],
      "name": "Approval",
      "type": "event"
    },
    {
      "anonymous": false,
      "inputs": [
        {
          "indexed": false,
          "internalType": "uint256",
          "name": "newRate",
          "type": "uint256"
        }
      ],
      "name": "EmissionRateUpdated",
      "type": "event"
    },
    {
      "anonymous": false,
      "inputs": [
        {
          "indexed": true,
          "internalType": "bytes32",
          "name": "jobHash",
          "type": "bytes32"
        },
        {
          "indexed": true,
          "internalType": "address",
          "name": "requester",
          "type": "address"
        }
      ],
      "name": "JobCancelled",
      "type": "event"
    },
    {
      "anonymous": false,
      "inputs": [
        {
          "indexed": true,
          "internalType": "bytes32",
          "name": "jobHash",
          "type": "bytes32"
        },
        {
          "indexed": false,
          "internalType": "uint256",
          "name": "reward",
          "type": "uint256"
        }
      ],
      "name": "JobCompleted",
      "type": "event"
    },
    {
      "anonymous": false,
      "inputs": [
        {
          "indexed": true,
          "internalType": "bytes32",
          "name": "jobHash",
          "type": "bytes32"
        },
        {
          "indexed": false,
          "internalType": "bytes32",
          "name": "userHash",
          "type": "bytes32"
        },
        {
          "indexed": true,
          "internalType": "address",
          "name": "requester",
          "type": "address"
        }
      ],
      "name": "JobRequested",
      "type": "event"
    },
    {
      "anonymous": false,
      "inputs": [
        {
          "indexed": false,
          "internalType": "uint256",
          "name": "newAmount",
          "type": "uint256"
        }
      ],
      "name": "LockAmountChanged",
      "type": "event"
    },
    {
      "anonymous": false,
      "inputs": [
        {
          "indexed": true,
          "internalType": "address",
          "name": "previousOwner",
          "type": "address"
        },
        {
          "indexed": true,
          "internalType": "address",
          "name": "newOwner",
          "type": "address"
        }
      ],
      "name": "OwnershipTransferred",
      "type": "event"
    },
    {
      "anonymous": false,
      "inputs": [
        {
          "indexed": false,
          "internalType": "address",
          "name": "account",
          "type": "address"
        }
      ],
      "name": "Paused",
      "type": "event"
    },
    {
      "anonymous": false,
      "inputs": [
        {
          "indexed": true,
          "internalType": "address",
          "name": "sender",
          "type": "address"
        },
        {
          "indexed": false,
          "internalType": "uint256",
          "name": "amount",
          "type": "uint256"
        }
      ],
      "name": "RewardsClaimed",
      "type": "event"
    },
    {
      "anonymous": false,
      "inputs": [
        {
          "indexed": false,
          "internalType": "uint256[]",
          "name": "networkWorkers",
          "type": "uint256[]"
        },
        {
          "indexed": false,
          "internalType": "uint256[]",
          "name": "networkCapacities",
          "type": "uint256[]"
        },
        {
          "indexed": false,
          "internalType": "uint24",
          "name": "activeValidators",
          "type": "uint24"
        },
        {
          "indexed": false,
          "internalType": "uint64",
          "name": "numUsers",
          "type": "uint64"
        }
      ],
      "name": "StateUpdate",
      "type": "event"
    },
    {
      "anonymous": false,
      "inputs": [
        {
          "indexed": true,
          "internalType": "address",
          "name": "validator",
          "type": "address"
        },
        {
          "indexed": false,
          "internalType": "uint256",
          "name": "amount",
          "type": "uint256"
        }
      ],
      "name": "TokensLocked",
      "type": "event"
    },
    {
      "anonymous": false,
      "inputs": [
        {
          "indexed": true,
          "internalType": "address",
          "name": "validator",
          "type": "address"
        },
        {
          "indexed": false,
          "internalType": "uint256",
          "name": "amount",
          "type": "uint256"
        }
      ],
      "name": "TokensUnlocked",
      "type": "event"
    },
    {
      "anonymous": false,
      "inputs": [
        {
          "indexed": true,
          "internalType": "address",
          "name": "from",
          "type": "address"
        },
        {
          "indexed": true,
          "internalType": "address",
          "name": "to",
          "type": "address"
        },
        {
          "indexed": false,
          "internalType": "uint256",
          "name": "value",
          "type": "uint256"
        }
      ],
      "name": "Transfer",
      "type": "event"
    },
    {
      "anonymous": false,
      "inputs": [
        {
          "indexed": true,
          "internalType": "address",
          "name": "validator",
          "type": "address"
        },
        {
          "indexed": false,
          "internalType": "uint256",
          "name": "unlockTime",
          "type": "uint256"
        }
      ],
      "name": "UnlockInitiated",
      "type": "event"
    },
    {
      "anonymous": false,
      "inputs": [
        {
          "indexed": false,
          "internalType": "address",
          "name": "account",
          "type": "address"
        }
      ],
      "name": "Unpaused",
      "type": "event"
    },
    {
      "anonymous": false,
      "inputs": [
        {
          "indexed": true,
          "internalType": "address",
          "name": "validatorContract",
          "type": "address"
        }
      ],
      "name": "ValidatorContractSet",
      "type": "event"
    },
    {
      "inputs": [],
      "name": "INITIAL_EMISSION_RATE",
      "outputs": [
        {
          "internalType": "uint256",
          "name": "",
          "type": "uint256"
        }
      ],
      "stateMutability": "view",
      "type": "function"
    },
    {
      "inputs": [],
      "name": "INITIAL_LOCK_AMOUNT",
      "outputs": [
        {
          "internalType": "uint256",
          "name": "",
          "type": "uint256"
        }
      ],
      "stateMutability": "view",
      "type": "function"
    },
    {
      "inputs": [],
      "name": "UNLOCK_PERIOD",
      "outputs": [
        {
          "internalType": "uint256",
          "name": "",
          "type": "uint256"
        }
      ],
      "stateMutability": "view",
      "type": "function"
    },
    {
      "inputs": [],
      "name": "VALIDATOR_REWARD_PERCENTAGE",
      "outputs": [
        {
          "internalType": "uint256",
          "name": "",
          "type": "uint256"
        }
      ],
      "stateMutability": "view",
      "type": "function"
    },
    {
      "inputs": [
        {
          "internalType": "address",
          "name": "owner",
          "type": "address"
        },
        {
          "internalType": "address",
          "name": "spender",
          "type": "address"
        }
      ],
      "name": "allowance",
      "outputs": [
        {
          "internalType": "uint256",
          "name": "",
          "type": "uint256"
        }
      ],
      "stateMutability": "view",
      "type": "function"
    },
    {
      "inputs": [
        {
          "internalType": "address",
          "name": "spender",
          "type": "address"
        },
        {
          "internalType": "uint256",
          "name": "amount",
          "type": "uint256"
        }
      ],
      "name": "approve",
      "outputs": [
        {
          "internalType": "bool",
          "name": "",
          "type": "bool"
        }
      ],
      "stateMutability": "nonpayable",
      "type": "function"
    },
    {
      "inputs": [
        {
          "internalType": "address",
          "name": "account",
          "type": "address"
        }
      ],
      "name": "balanceOf",
      "outputs": [
        {
          "internalType": "uint256",
          "name": "",
          "type": "uint256"
        }
      ],
      "stateMutability": "view",
      "type": "function"
    },
    {
      "inputs": [
        {
          "internalType": "bytes32",
          "name": "jobHash",
          "type": "bytes32"
        }
      ],
      "name": "cancelJob",
      "outputs": [],
      "stateMutability": "nonpayable",
      "type": "function"
    },
    {
      "inputs": [
        {
          "internalType": "uint256",
          "name": "amount",
          "type": "uint256"
        }
      ],
      "name": "changeLockAmount",
      "outputs": [],
      "stateMutability": "nonpayable",
      "type": "function"
    },
    {
      "inputs": [],
      "name": "claimRewards",
      "outputs": [],
      "stateMutability": "nonpayable",
      "type": "function"
    },
    {
      "inputs": [
        {
          "internalType": "bytes32",
          "name": "jobHash",
          "type": "bytes32"
        }
      ],
      "name": "completeJob",
      "outputs": [
        {
          "internalType": "uint256",
          "name": "",
          "type": "uint256"
        }
      ],
      "stateMutability": "nonpayable",
      "type": "function"
    },
    {
      "inputs": [
        {
          "internalType": "bytes32",
          "name": "_publicKeyHash",
          "type": "bytes32"
        },
        {
          "internalType": "uint256",
          "name": "_lockAmount",
          "type": "uint256"
        }
      ],
      "name": "createValidator",
      "outputs": [],
      "stateMutability": "nonpayable",
      "type": "function"
    },
    {
      "inputs": [],
      "name": "decimals",
      "outputs": [
        {
          "internalType": "uint8",
          "name": "",
          "type": "uint8"
        }
      ],
      "stateMutability": "view",
      "type": "function"
    },
    {
      "inputs": [
        {
          "internalType": "address",
          "name": "spender",
          "type": "address"
        },
        {
          "internalType": "uint256",
          "name": "subtractedValue",
          "type": "uint256"
        }
      ],
      "name": "decreaseAllowance",
      "outputs": [
        {
          "internalType": "bool",
          "name": "",
          "type": "bool"
        }
      ],
      "stateMutability": "nonpayable",
      "type": "function"
    },
    {
      "inputs": [],
      "name": "doubleStateTime",
      "outputs": [],
      "stateMutability": "nonpayable",
      "type": "function"
    },
    {
      "inputs": [],
      "name": "emissionRate",
      "outputs": [
        {
          "internalType": "uint256",
          "name": "",
          "type": "uint256"
        }
      ],
      "stateMutability": "view",
      "type": "function"
    },
    {
      "inputs": [],
      "name": "getActiveValidatorCount",
      "outputs": [
        {
          "internalType": "uint256",
          "name": "",
          "type": "uint256"
        }
      ],
      "stateMutability": "view",
      "type": "function"
    },
    {
      "inputs": [
        {
          "internalType": "address",
          "name": "validatorAddress",
          "type": "address"
        }
      ],
      "name": "getLockedBalance",
      "outputs": [
        {
          "internalType": "uint256",
          "name": "",
          "type": "uint256"
        }
      ],
      "stateMutability": "view",
      "type": "function"
    },
    {
      "inputs": [],
      "name": "getSupply",
      "outputs": [
        {
          "internalType": "uint256",
          "name": "",
          "type": "uint256"
        },
        {
          "internalType": "uint256",
          "name": "",
          "type": "uint256"
        },
        {
          "internalType": "uint256",
          "name": "",
          "type": "uint256"
        }
      ],
      "stateMutability": "view",
      "type": "function"
    },
    {
      "inputs": [
        {
          "internalType": "address",
          "name": "user",
          "type": "address"
        }
      ],
      "name": "getUnclaimedRewards",
      "outputs": [
        {
          "internalType": "uint256",
          "name": "",
          "type": "uint256"
        }
      ],
      "stateMutability": "view",
      "type": "function"
    },
    {
      "inputs": [
        {
          "internalType": "address",
          "name": "validatorAddress",
          "type": "address"
        }
      ],
      "name": "getValidatorInfo",
      "outputs": [
        {
          "internalType": "bool",
          "name": "",
          "type": "bool"
        },
        {
          "internalType": "bytes32",
          "name": "",
          "type": "bytes32"
        }
      ],
      "stateMutability": "view",
      "type": "function"
    },
    {
      "inputs": [],
      "name": "halveStateTime",
      "outputs": [],
      "stateMutability": "nonpayable",
      "type": "function"
    },
    {
      "inputs": [],
      "name": "halvingPeriod",
      "outputs": [
        {
          "internalType": "uint256",
          "name": "",
          "type": "uint256"
        }
      ],
      "stateMutability": "view",
      "type": "function"
    },
    {
      "inputs": [
        {
          "internalType": "address",
          "name": "spender",
          "type": "address"
        },
        {
          "internalType": "uint256",
          "name": "addedValue",
          "type": "uint256"
        }
      ],
      "name": "increaseAllowance",
      "outputs": [
        {
          "internalType": "bool",
          "name": "",
          "type": "bool"
        }
      ],
      "stateMutability": "nonpayable",
      "type": "function"
    },
    {
      "inputs": [
        {
          "internalType": "address[]",
          "name": "_genesisNodes",
          "type": "address[]"
        }
      ],
      "name": "initialize",
      "outputs": [],
      "stateMutability": "nonpayable",
      "type": "function"
    },
    {
      "inputs": [
        {
          "internalType": "address",
          "name": "validatorAddress",
          "type": "address"
        }
      ],
      "name": "isLocked",
      "outputs": [
        {
          "internalType": "bool",
          "name": "",
          "type": "bool"
        }
      ],
      "stateMutability": "view",
      "type": "function"
    },
    {
      "inputs": [],
      "name": "jobCounter",
      "outputs": [
        {
          "internalType": "uint256",
          "name": "",
          "type": "uint256"
        }
      ],
      "stateMutability": "view",
      "type": "function"
    },
    {
      "inputs": [
        {
          "internalType": "bytes32",
          "name": "",
          "type": "bytes32"
        }
      ],
      "name": "jobs",
      "outputs": [
        {
          "internalType": "uint256",
          "name": "payment",
          "type": "uint256"
        },
        {
          "internalType": "bool",
          "name": "exists",
          "type": "bool"
        },
        {
          "internalType": "address",
          "name": "requester",
          "type": "address"
        }
      ],
      "stateMutability": "view",
      "type": "function"
    },
    {
      "inputs": [],
      "name": "lastStateUpdateTimestamp",
      "outputs": [
        {
          "internalType": "uint256",
          "name": "",
          "type": "uint256"
        }
      ],
      "stateMutability": "view",
      "type": "function"
    },
    {
      "inputs": [],
      "name": "lockAmount",
      "outputs": [
        {
          "internalType": "uint256",
          "name": "",
          "type": "uint256"
        }
      ],
      "stateMutability": "view",
      "type": "function"
    },
    {
      "inputs": [
        {
          "internalType": "uint256",
          "name": "amount",
          "type": "uint256"
        }
      ],
      "name": "lockTokens",
      "outputs": [],
      "stateMutability": "nonpayable",
      "type": "function"
    },
    {
      "inputs": [],
      "name": "name",
      "outputs": [
        {
          "internalType": "string",
          "name": "",
          "type": "string"
        }
      ],
      "stateMutability": "view",
      "type": "function"
    },
    {
      "inputs": [],
      "name": "owner",
      "outputs": [
        {
          "internalType": "address",
          "name": "",
          "type": "address"
        }
      ],
      "stateMutability": "view",
      "type": "function"
    },
    {
      "inputs": [],
      "name": "paused",
      "outputs": [
        {
          "internalType": "bool",
          "name": "",
          "type": "bool"
        }
      ],
      "stateMutability": "view",
      "type": "function"
    },
    {
      "inputs": [],
      "name": "proxyAdmin",
      "outputs": [
        {
          "internalType": "address",
          "name": "",
          "type": "address"
        }
      ],
      "stateMutability": "view",
      "type": "function"
    },
    {
      "inputs": [],
      "name": "renounceOwnership",
      "outputs": [],
      "stateMutability": "nonpayable",
      "type": "function"
    },
    {
      "inputs": [
        {
          "internalType": "bytes32",
          "name": "userHash",
          "type": "bytes32"
        },
        {
          "internalType": "bytes32",
          "name": "jobHash",
          "type": "bytes32"
        },
        {
          "internalType": "uint256[]",
          "name": "capacities",
          "type": "uint256[]"
        },
        {
          "internalType": "uint256",
          "name": "paymentAmount",
          "type": "uint256"
        }
      ],
      "name": "requestJob",
      "outputs": [],
      "stateMutability": "nonpayable",
      "type": "function"
    },
    {
      "inputs": [
        {
          "internalType": "address",
          "name": "_validatorAddress",
          "type": "address"
        }
      ],
      "name": "setValidatorContract",
      "outputs": [],
      "stateMutability": "nonpayable",
      "type": "function"
    },
    {
      "inputs": [],
      "name": "statesSinceLastHalving",
      "outputs": [
        {
          "internalType": "uint256",
          "name": "",
          "type": "uint256"
        }
      ],
      "stateMutability": "view",
      "type": "function"
    },
    {
      "inputs": [],
      "name": "symbol",
      "outputs": [
        {
          "internalType": "string",
          "name": "",
          "type": "string"
        }
      ],
      "stateMutability": "view",
      "type": "function"
    },
    {
      "inputs": [],
      "name": "tailEmission",
      "outputs": [
        {
          "internalType": "uint256",
          "name": "",
          "type": "uint256"
        }
      ],
      "stateMutability": "view",
      "type": "function"
    },
    {
      "inputs": [],
      "name": "totalLocked",
      "outputs": [
        {
          "internalType": "uint256",
          "name": "",
          "type": "uint256"
        }
      ],
      "stateMutability": "view",
      "type": "function"
    },
    {
      "inputs": [],
      "name": "totalSupply",
      "outputs": [
        {
          "internalType": "uint256",
          "name": "",
          "type": "uint256"
        }
      ],
      "stateMutability": "view",
      "type": "function"
    },
    {
      "inputs": [],
      "name": "totalUnclaimed",
      "outputs": [
        {
          "internalType": "uint256",
          "name": "",
          "type": "uint256"
        }
      ],
      "stateMutability": "view",
      "type": "function"
    },
    {
      "inputs": [
        {
          "internalType": "address",
          "name": "to",
          "type": "address"
        },
        {
          "internalType": "uint256",
          "name": "amount",
          "type": "uint256"
        }
      ],
      "name": "transfer",
      "outputs": [
        {
          "internalType": "bool",
          "name": "",
          "type": "bool"
        }
      ],
      "stateMutability": "nonpayable",
      "type": "function"
    },
    {
      "inputs": [
        {
          "internalType": "address",
          "name": "from",
          "type": "address"
        },
        {
          "internalType": "address",
          "name": "to",
          "type": "address"
        },
        {
          "internalType": "uint256",
          "name": "amount",
          "type": "uint256"
        }
      ],
      "name": "transferFrom",
      "outputs": [
        {
          "internalType": "bool",
          "name": "",
          "type": "bool"
        }
      ],
      "stateMutability": "nonpayable",
      "type": "function"
    },
    {
      "inputs": [
        {
          "internalType": "address",
          "name": "newOwner",
          "type": "address"
        }
      ],
      "name": "transferOwnership",
      "outputs": [],
      "stateMutability": "nonpayable",
      "type": "function"
    },
    {
      "inputs": [
        {
          "internalType": "address",
          "name": "",
          "type": "address"
        }
      ],
      "name": "unclaimedRewards",
      "outputs": [
        {
          "internalType": "uint256",
          "name": "",
          "type": "uint256"
        }
      ],
      "stateMutability": "view",
      "type": "function"
    },
    {
      "inputs": [
        {
          "internalType": "uint256",
          "name": "amount",
          "type": "uint256"
        }
      ],
      "name": "unlockTokens",
      "outputs": [],
      "stateMutability": "nonpayable",
      "type": "function"
    },
    {
      "inputs": [
        {
          "internalType": "bytes32[]",
          "name": "jobHashes",
          "type": "bytes32[]"
        },
        {
          "internalType": "address[]",
          "name": "workers",
          "type": "address[]"
        },
        {
          "internalType": "uint256[]",
          "name": "capacities",
          "type": "uint256[]"
        },
        {
          "internalType": "uint256[]",
          "name": "allCapacities",
          "type": "uint256[]"
        },
        {
          "internalType": "uint256[]",
          "name": "allWorkers",
          "type": "uint256[]"
        },
        {
          "internalType": "address[]",
          "name": "validatorsVoted",
          "type": "address[]"
        }
      ],
      "name": "updateContract",
      "outputs": [],
      "stateMutability": "nonpayable",
      "type": "function"
    },
    {
      "inputs": [],
      "name": "userCounter",
      "outputs": [
        {
          "internalType": "uint64",
          "name": "",
          "type": "uint64"
        }
      ],
      "stateMutability": "view",
      "type": "function"
    },
    {
      "inputs": [],
      "name": "validatorContract",
      "outputs": [
        {
          "internalType": "contract ISmartnodesMultiSig",
          "name": "",
          "type": "address"
        }
      ],
      "stateMutability": "view",
      "type": "function"
    },
    {
      "inputs": [],
      "name": "validatorCounter",
      "outputs": [
        {
          "internalType": "uint24",
          "name": "",
          "type": "uint24"
        }
      ],
      "stateMutability": "view",
      "type": "function"
    },
    {
      "inputs": [
        {
          "internalType": "address",
          "name": "",
          "type": "address"
        }
      ],
      "name": "validators",
      "outputs": [
        {
          "internalType": "uint256",
          "name": "locked",
          "type": "uint256"
        },
        {
          "internalType": "uint256",
          "name": "unlockTime",
          "type": "uint256"
        },
        {
          "internalType": "bytes32",
          "name": "publicKeyHash",
          "type": "bytes32"
        },
        {
          "internalType": "bool",
          "name": "exists",
          "type": "bool"
        }
      ],
      "stateMutability": "view",
      "type": "function"
    }
  ],
  "bytecode": "6080604052348015600f57600080fd5b50612ff18061001f6000396000f3fe608060405234801561001057600080fd5b50600436106103425760003560e01c80638da5cb5b116101b8578063a457c2d711610104578063cdf64a76116100a2578063eabd4bd71161007c578063eabd4bd7146107db578063f0c37a59146107e3578063f2fde38b14610818578063fa52c7d81461082b57600080fd5b8063cdf64a7614610785578063d8df5dc114610798578063dd62ed3e146107a257600080fd5b8063c1873850116100de578063c1873850146106fc578063c40868931461070f578063c96f14b814610773578063cd928de91461077d57600080fd5b8063a457c2d7146106b2578063a9059cbb146106c5578063ab051190146106d857600080fd5b8063991e0139116101715780639b7015531161014b5780639b701553146106735780639f46fc3714610686578063a00fabdd14610697578063a224cee71461069f57600080fd5b8063991e01391461063a578063994390891461064d5780639b6f91761461066057600080fd5b80638da5cb5b146105de57806391bb809c146105ef578063949813b8146105ff57806395b84bc21461062057806395d89b411461062957806396afc4501461063157600080fd5b80634a4fbeec116102925780636c9c2faf11610230578063715018a61161020a578063715018a61461058f5780637c4053251461059757806388ef046d146105aa5780638a11d7c9146105b457600080fd5b80636c9c2faf146105305780636e27d8891461055357806370a082311461056657600080fd5b80635a3e251f1161026c5780635a3e251f146104df5780635c975abb146104e85780635fae1450146104f357806369a69e291461050657600080fd5b80634a4fbeec1461049957806350355d76146104cb57806356891412146104d557600080fd5b8063313ce567116102ff57806338ed7cfc116102d957806338ed7cfc146103e657806339509351146104485780633e47158c1461045b578063497dfe631461048657600080fd5b8063313ce567146103c5578063372500ab146103d457806337deea70146103de57600080fd5b806306fdde0314610347578063095ea7b3146103655780630c1db7ab1461038857806318160ddd146103a057806323b872dd146103a8578063259a28cf146103bb575b600080fd5b61034f610886565b60405161035c919061277e565b60405180910390f35b6103786103733660046127e4565b610918565b604051901515815260200161035c565b6103926101065481565b60405190815260200161035c565b603554610392565b6103786103b636600461280e565b610932565b6103926212750081565b6040516012815260200161035c565b6103dc610956565b005b610392610a2b565b6104246103f436600461284a565b610107602052600090815260409020600181015460029091015460ff81169061010090046001600160a01b031683565b6040805193845291151560208401526001600160a01b03169082015260600161035c565b6103786104563660046127e4565b610a9e565b60fc5461046e906001600160a01b031681565b6040516001600160a01b03909116815260200161035c565b6103dc610494366004612863565b610add565b6103786104a7366004612885565b610105546001600160a01b0390911660009081526101086020526040902054101590565b6103926101035481565b6103926101015481565b61039260fd5481565b60975460ff16610378565b6103dc61050136600461284a565b610c64565b610392610514366004612885565b6001600160a01b03166000908152610109602052604090205490565b610538610d8f565b6040805193845260208401929092529082015260600161035c565b6103dc61056136600461284a565b610e09565b610392610574366004612885565b6001600160a01b031660009081526033602052604090205490565b6103dc610e16565b6103dc6105a536600461284a565b610e7c565b6103926101005481565b6105c76105c2366004612885565b61110c565b60408051921515835260208301919091520161035c565b60c9546001600160a01b031661046e565b610392686f05b59d3b2000000081565b61039261060d366004612885565b6101096020526000908152604090205481565b61039260fe5481565b61034f6111d6565b61039260ff5481565b61039261064836600461284a565b6111e5565b60fb5461046e906001600160a01b031681565b6103dc61066e3660046129e7565b611363565b6103dc610681366004612adc565b6115ad565b6103926969e10de76676d080000081565b6103dc6117a1565b6103dc6106ad366004612b67565b611878565b6103786106c03660046127e4565b611a89565b6103786106d33660046127e4565b611b1b565b610104546106e89062ffffff1681565b60405162ffffff909116815260200161035c565b6103dc61070a36600461284a565b611b29565b61039261071d366004612885565b6001600160a01b031660009081526101086020908152604091829020825160808101845281548082526001830154938201939093526002820154938101939093526003015460ff16151560609092019190915290565b6103926101025481565b610392601481565b6103dc610793366004612885565b611b5a565b6103926101055481565b6103926107b0366004612ba4565b6001600160a01b03918216600090815260346020908152604080832093909416825291909152205490565b6103dc611bd5565b610104546107ff906301000000900467ffffffffffffffff1681565b60405167ffffffffffffffff909116815260200161035c565b6103dc610826366004612885565b611c92565b610864610839366004612885565b6101086020526000908152604090208054600182015460028301546003909301549192909160ff1684565b604080519485526020850193909352918301521515606082015260800161035c565b60606036805461089590612bd7565b80601f01602080910402602001604051908101604052809291908181526020018280546108c190612bd7565b801561090e5780601f106108e35761010080835404028352916020019161090e565b820191906000526020600020905b8154815290600101906020018083116108f157829003601f168201915b5050505050905090565b600033610926818585611d5a565b60019150505b92915050565b600033610940858285611e7e565b61094b858585611f0a565b506001949350505050565b6002606554036109815760405162461bcd60e51b815260040161097890612c11565b60405180910390fd5b60026065553360009081526101096020526040812054908190036109b857604051630fec21fd60e21b815260040160405180910390fd5b3360009081526101096020526040812081905561010280548392906109de908490612c5e565b909155506109ee905033826120d8565b60405181815233907ffc30cddea38e2bf4d6ea7d3f9ed3b6ad7f176419f4963bd81318067a4aee73fe9060200160405180910390a2506001606555565b60fb54604080516348f1712960e11b815290516000926001600160a01b0316916391e2e2529160048083019260209291908290030181865afa158015610a75573d6000803e3d6000fd5b505050506040513d601f19601f82011682018060405250810190610a999190612c71565b905090565b3360008181526034602090815260408083206001600160a01b03871684529091528120549091906109269082908690610ad8908790612c8a565b611d5a565b336000908152603360205260409020548111158015610aff5750610105548110155b610b4b5760405162461bcd60e51b815260206004820152601b60248201527f496e73756666696369656e7420746f6b656e2062616c616e63652e00000000006044820152606401610978565b336000908152610108602052604090206002015415610bc15760405162461bcd60e51b815260206004820152602c60248201527f56616c696461746f7220616c726561647920637265617465642077697468207460448201526b686973206163636f756e742160a01b6064820152608401610978565b60408051608081018252600080825260208083018281528385018781526001606086018181523380875261010890955296909420945185559051928401929092559051600283015591516003909101805460ff191691151591909117905561010554610c2d91906121b7565b610104805462ffffff16906000610c4383612c9d565b91906101000a81548162ffffff021916908362ffffff160217905550505050565b60975460ff1615610c875760405162461bcd60e51b815260040161097890612cbf565b600260655403610ca95760405162461bcd60e51b815260040161097890612c11565b600260658190556000828152610107602052604090209081015460ff16610ce35760405163162908e360e11b815260040160405180910390fd5b600281015461010090046001600160a01b03163314610d1557604051635c427cd960e01b815260040160405180910390fd5b600181015460008381526101076020526040812090610d348282612700565b506000600182015560020180546001600160a81b0319169055610d58303383611f0a565b604051339084907f97729287f7ba8b32555258e73e27488f492c99bf34e2869740c56843a2ffb23b90600090a35050600160655550565b6000806000306001600160a01b03166318160ddd6040518163ffffffff1660e01b8152600401602060405180830381865afa158015610dd2573d6000803e3d6000fd5b505050506040513d601f19601f82011682018060405250810190610df69190612c71565b6101015461010254925092509250909192565b610e1333826121b7565b50565b60c9546001600160a01b03163314610e705760405162461bcd60e51b815260206004820181905260248201527f4f776e61626c653a2063616c6c6572206973206e6f7420746865206f776e65726044820152606401610978565b610e7a6000612338565b565b600260655403610e9e5760405162461bcd60e51b815260040161097890612c11565b600260658190553360009081526101086020526040902090810154610f015760405162461bcd60e51b81526020600482015260196024820152782b30b634b230ba37b9103237b2b9903737ba1032bc34b9ba1760391b6044820152606401610978565b8054821115610f525760405162461bcd60e51b815260206004820152601e60248201527f416d6f756e742065786365656473206c6f636b65642062616c616e63652e00006044820152606401610978565b60008211610f725760405162461bcd60e51b815260040161097890612ce9565b8060010154600003611054576101055481541015610fe85760fb546040516340a141ff60e01b81523360048201526001600160a01b03909116906340a141ff90602401600060405180830381600087803b158015610fcf57600080fd5b505af1158015610fe3573d6000803e3d6000fd5b505050505b610ff56212750042612c8a565b81600101819055508161010160008282546110109190612c5e565b9091555050600181015460405190815233907f77635f8f13ee1a01d11246347c649817c6ee9fa7620ce4c6adfa2452bfa162b29060200160405180910390a2611103565b80600101544210156110a85760405162461bcd60e51b815260206004820152601860248201527f546f6b656e7320617265207374696c6c206c6f636b65642e00000000000000006044820152606401610978565b818160000160008282546110bc9190612c5e565b909155506110cd9050303384611f0a565b60405182815233907fe7b379c6c1fa169e9079c25e9143b127637eef8ec8c9d5c06ddb4ab3e11958889060200160405180910390a25b50506001606555565b6001600160a01b038181166000818152610108602090815260408083208151608081018352815481526001820154938101939093526002810154838301526003015460ff161515606083015260fb549051631015428760e21b8152600481019490945291938493919284929116906340550a1c90602401602060405180830381865afa1580156111a0573d6000803e3d6000fd5b505050506040513d601f19601f820116820180604052508101906111c49190612d2a565b60409092015191959194509092505050565b60606037805461089590612bd7565b60fb546000906001600160a01b0316331461121357604051635c427cd960e01b815260040160405180910390fd5b60975460ff16156112365760405162461bcd60e51b815260040161097890612cbf565b6000828152610107602090815260408083208151815460a0948102820185019093526080810183815290939192849284919084018282801561129757602002820191906000526020600020905b815481526020019060010190808311611283575b5050509183525050600182015460208083019190915260029092015460ff811615156040808401919091526101009091046001600160a01b03166060909201919091528282015190518181529293509185917f9b5ed714c31dfcb1a9397710b6fc1842f37d94ab5dc0ccb528d9a2c97ea76f2a910160405180910390a28160400151611327575060009392505050565b600084815261010760205260408120906113418282612700565b506000600182015560020180546001600160a81b03191690559150505b919050565b60fb546001600160a01b0316331461138e57604051635c427cd960e01b815260040160405180910390fd5b6002606554036113b05760405162461bcd60e51b815260040161097890612c11565b600260655560975460ff16156113d85760405162461bcd60e51b815260040161097890612cbf565b83518551146113fa5760405163251f56a160e21b815260040160405180910390fd5b805160000361141c576040516313f8a3a760e31b815260040160405180910390fd5b60fd54610100541061148a5760fe5460ff54111561148357600260ff60008282546114479190612d4c565b909155505060ff546040519081527fffcc630bf88a67ba7c8b27440787c31777ae923aee1e9bbd0127feea56da2cd09060200160405180910390a15b6000610100555b6000805b84518110156114c6578481815181106114a9576114a9612d6e565b6020026020010151826114bc9190612c8a565b915060010161148e565b506000805b8451811015611503578481815181106114e6576114e6612d6e565b6020026020010151826114f99190612c8a565b91506001016114cb565b50600061150f8961238a565b905061151e88888587856123d5565b610104547f2bb68acb0b971efcb22138f6832c4692cd163e34567b71e0f79d012e0563b83390869088906115599060019062ffffff16612d84565b6101045461157a906001906301000000900467ffffffffffffffff16612da0565b60405161158a9493929190612dfd565b60405180910390a150506101008054600190810190915560655550505050505050565b60975460ff16156115d05760405162461bcd60e51b815260040161097890612cbf565b806000036115f15760405163162908e360e11b815260040160405180910390fd5b3360009081526033602052604090205481111561162157604051631e9acf1760e31b815260040160405180910390fd5b6000848152610107602052604090206002015460ff16156116795760405162461bcd60e51b81526020600482015260126024820152714a6f6220616c72656164792065786973747360701b6044820152606401610978565b611684333083611f0a565b60405180608001604052808484808060200260200160405190810160405280939291908181526020018383602002808284376000920182905250938552505050602080830185905260016040808501919091523360609094019390935287825261010781529190208251805191926117019284929091019061271e565b5060208201516001820155604080830151600290920180546060909401516001600160a01b031661010002610100600160a81b0319931515939093166001600160a81b0319909416939093179190911790915551339085907fc68107c5db64fb317e66156a992dc164307c3971f013e08ab3ed86cf50c05de5906117889089815260200190565b60405180910390a3505061010380546001019055505050565b60fc546001600160a01b031633146117cc57604051635c427cd960e01b815260040160405180910390fd5b600260fe60008282546117df9190612e49565b92505081905550600260ff60008282546117f99190612e49565b92505081905550600260fd60008282546118139190612d4c565b909155505060fb546040805163738e719760e11b815290516001600160a01b039092169163e71ce32e9160048082019260009290919082900301818387803b15801561185e57600080fd5b505af1158015611872573d6000803e3d6000fd5b50505050565b600054610100900460ff166118935760005460ff1615611897565b303b155b6118fa5760405162461bcd60e51b815260206004820152602e60248201527f496e697469616c697a61626c653a20636f6e747261637420697320616c72656160448201526d191e481a5b9a5d1a585b1a5e995960921b6064820152608401610978565b600054610100900460ff1615801561191c576000805461ffff19166101011790555b6119636040518060400160405280600a815260200169536d6172746e6f64657360b01b81525060405180604001604052806003815260200162534e4f60e81b81525061256c565b61196b61259d565b6119736125cc565b61197b6125fb565b60fc80546001600160a01b03191633179055686f05b59d3b2000000060ff556969e10de76676d08000006101055561222660fd556803782dace9d900000060fe556001610103819055610104805463010000016affffffffffffffffffffff199091161790556101065560005b8251811015611a725760006001600160a01b0316838281518110611a0e57611a0e612d6e565b60200260200101516001600160a01b031603611a3d5760405163d92e233d60e01b815260040160405180910390fd5b611a6a838281518110611a5257611a52612d6e565b60200260200101516969e10de76676d08000006120d8565b6001016119e8565b508015611a85576000805461ff00191690555b5050565b3360008181526034602090815260408083206001600160a01b038716845290915281205490919083811015611b0e5760405162461bcd60e51b815260206004820152602560248201527f45524332303a2064656372656173656420616c6c6f77616e63652062656c6f77604482015264207a65726f60d81b6064820152608401610978565b61094b8286868403611d5a565b600033610926818585611f0a565b60fc546001600160a01b03163314611b5457604051635c427cd960e01b815260040160405180910390fd5b61010555565b60fb546001600160a01b031615611bb35760405162461bcd60e51b815260206004820152601e60248201527f56616c696461746f72206164647265737320616c7265616479207365742e00006044820152606401610978565b60fb80546001600160a01b0319166001600160a01b0392909216919091179055565b60fc546001600160a01b03163314611c0057604051635c427cd960e01b815260040160405180910390fd5b600260fe6000828254611c139190612d4c565b92505081905550600260ff6000828254611c2d9190612d4c565b92505081905550600260fd6000828254611c479190612e49565b909155505060fb546040805163762193b960e11b815290516001600160a01b039092169163ec4327729160048082019260009290919082900301818387803b15801561185e57600080fd5b60c9546001600160a01b03163314611cec5760405162461bcd60e51b815260206004820181905260248201527f4f776e61626c653a2063616c6c6572206973206e6f7420746865206f776e65726044820152606401610978565b6001600160a01b038116611d515760405162461bcd60e51b815260206004820152602660248201527f4f776e61626c653a206e6577206f776e657220697320746865207a65726f206160448201526564647265737360d01b6064820152608401610978565b610e1381612338565b6001600160a01b038316611dbc5760405162461bcd60e51b8152602060048201526024808201527f45524332303a20617070726f76652066726f6d20746865207a65726f206164646044820152637265737360e01b6064820152608401610978565b6001600160a01b038216611e1d5760405162461bcd60e51b815260206004820152602260248201527f45524332303a20617070726f766520746f20746865207a65726f206164647265604482015261737360f01b6064820152608401610978565b6001600160a01b0383811660008181526034602090815260408083209487168084529482529182902085905590518481527f8c5be1e5ebec7d5bd14f71427d1e84f3dd0314c0f7b2291e5b200ac8c7c3b925910160405180910390a3505050565b6001600160a01b0383811660009081526034602090815260408083209386168352929052205460001981146118725781811015611efd5760405162461bcd60e51b815260206004820152601d60248201527f45524332303a20696e73756666696369656e7420616c6c6f77616e63650000006044820152606401610978565b6118728484848403611d5a565b6001600160a01b038316611f6e5760405162461bcd60e51b815260206004820152602560248201527f45524332303a207472616e736665722066726f6d20746865207a65726f206164604482015264647265737360d81b6064820152608401610978565b6001600160a01b038216611fd05760405162461bcd60e51b815260206004820152602360248201527f45524332303a207472616e7366657220746f20746865207a65726f206164647260448201526265737360e81b6064820152608401610978565b6001600160a01b038316600090815260336020526040902054818110156120485760405162461bcd60e51b815260206004820152602660248201527f45524332303a207472616e7366657220616d6f756e7420657863656564732062604482015265616c616e636560d01b6064820152608401610978565b6001600160a01b0380851660009081526033602052604080822085850390559185168152908120805484929061207f908490612c8a565b92505081905550826001600160a01b0316846001600160a01b03167fddf252ad1be2c89b69c2b068fc378daa952ba7f163c4a11628f55a4df523b3ef846040516120cb91815260200190565b60405180910390a3611872565b6001600160a01b03821661212e5760405162461bcd60e51b815260206004820152601f60248201527f45524332303a206d696e7420746f20746865207a65726f2061646472657373006044820152606401610978565b80603560008282546121409190612c8a565b90915550506001600160a01b0382166000908152603360205260408120805483929061216d908490612c8a565b90915550506040518181526001600160a01b038316906000907fddf252ad1be2c89b69c2b068fc378daa952ba7f163c4a11628f55a4df523b3ef9060200160405180910390a35050565b600081116121d75760405162461bcd60e51b815260040161097890612ce9565b806121f7836001600160a01b031660009081526033602052604090205490565b101561223d5760405162461bcd60e51b815260206004820152601560248201527424b739bab33334b1b4b2b73a103130b630b731b29760591b6044820152606401610978565b6001600160a01b038216600090815261010860205260409020600201546122a25760405162461bcd60e51b81526020600482015260196024820152782b30b634b230ba37b9103237b2b9903737ba1032bc34b9ba1760391b6044820152606401610978565b6122ad823083610932565b506001600160a01b03821660009081526101086020526040812080548392906122d7908490612c8a565b925050819055508061010160008282546122f19190612c8a565b90915550506040518181526001600160a01b038316907fac87f20a77d28ee8bbb58ec87ea8fa968b3393efae1a368fd50b767c2847391c9060200160405180910390a25050565b60c980546001600160a01b038381166001600160a01b0319831681179093556040519116919082907f8be0079c531659141344cd1fd0a4f28419497f9722a3daafe3b4186f6b6457e090600090a35050565b600080805b83518110156123ce576123ba8482815181106123ad576123ad612d6e565b60200260200101516111e5565b6123c49083612c8a565b915060010161238f565b5092915050565b60008160ff546123e59190612c8a565b905060008087516000036123fb57829150612421565b6064612408601485612e49565b6124129190612d4c565b915061241e8284612c5e565b90505b8261010260008282546124349190612c8a565b90915550508451156124bc57600085518361244f9190612d4c565b905060005b86518110156124b95781610109600089848151811061247557612475612d6e565b60200260200101516001600160a01b03166001600160a01b0316815260200190815260200160002060008282546124ac9190612c8a565b9091555050600101612454565b50505b8751156125625760005b885181101561256057600087838a84815181106124e5576124e5612d6e565b60200260200101516124f79190612e49565b6125019190612d4c565b90508061010960008c858151811061251b5761251b612d6e565b60200260200101516001600160a01b03166001600160a01b0316815260200190815260200160002060008282546125529190612c8a565b9091555050506001016124c6565b505b5050505050505050565b600054610100900460ff166125935760405162461bcd60e51b815260040161097890612e60565b611a85828261262f565b600054610100900460ff166125c45760405162461bcd60e51b815260040161097890612e60565b610e7a61266f565b600054610100900460ff166125f35760405162461bcd60e51b815260040161097890612e60565b610e7a61269d565b600054610100900460ff166126225760405162461bcd60e51b815260040161097890612e60565b610e7a6126d0565b505050565b600054610100900460ff166126565760405162461bcd60e51b815260040161097890612e60565b60366126628382612efb565b50603761262a8282612efb565b600054610100900460ff166126965760405162461bcd60e51b815260040161097890612e60565b6001606555565b600054610100900460ff166126c45760405162461bcd60e51b815260040161097890612e60565b6097805460ff19169055565b600054610100900460ff166126f75760405162461bcd60e51b815260040161097890612e60565b610e7a33612338565b5080546000825590600052602060002090810190610e139190612769565b828054828255906000526020600020908101928215612759579160200282015b8281111561275957825182559160200191906001019061273e565b50612765929150612769565b5090565b5b80821115612765576000815560010161276a565b60006020808352835180602085015260005b818110156127ac57858101830151858201604001528201612790565b506000604082860101526040601f19601f8301168501019250505092915050565b80356001600160a01b038116811461135e57600080fd5b600080604083850312156127f757600080fd5b612800836127cd565b946020939093013593505050565b60008060006060848603121561282357600080fd5b61282c846127cd565b925061283a602085016127cd565b9150604084013590509250925092565b60006020828403121561285c57600080fd5b5035919050565b6000806040838503121561287657600080fd5b50508035926020909101359150565b60006020828403121561289757600080fd5b6128a0826127cd565b9392505050565b634e487b7160e01b600052604160045260246000fd5b604051601f8201601f1916810167ffffffffffffffff811182821017156128e6576128e66128a7565b604052919050565b600067ffffffffffffffff821115612908576129086128a7565b5060051b60200190565b600082601f83011261292357600080fd5b81356020612938612933836128ee565b6128bd565b8083825260208201915060208460051b87010193508684111561295a57600080fd5b602086015b84811015612976578035835291830191830161295f565b509695505050505050565b600082601f83011261299257600080fd5b813560206129a2612933836128ee565b8083825260208201915060208460051b8701019350868411156129c457600080fd5b602086015b84811015612976576129da816127cd565b83529183019183016129c9565b60008060008060008060c08789031215612a0057600080fd5b863567ffffffffffffffff80821115612a1857600080fd5b612a248a838b01612912565b97506020890135915080821115612a3a57600080fd5b612a468a838b01612981565b96506040890135915080821115612a5c57600080fd5b612a688a838b01612912565b95506060890135915080821115612a7e57600080fd5b612a8a8a838b01612912565b94506080890135915080821115612aa057600080fd5b612aac8a838b01612912565b935060a0890135915080821115612ac257600080fd5b50612acf89828a01612981565b9150509295509295509295565b600080600080600060808688031215612af457600080fd5b8535945060208601359350604086013567ffffffffffffffff80821115612b1a57600080fd5b818801915088601f830112612b2e57600080fd5b813581811115612b3d57600080fd5b8960208260051b8501011115612b5257600080fd5b96999598505060200195606001359392505050565b600060208284031215612b7957600080fd5b813567ffffffffffffffff811115612b9057600080fd5b612b9c84828501612981565b949350505050565b60008060408385031215612bb757600080fd5b612bc0836127cd565b9150612bce602084016127cd565b90509250929050565b600181811c90821680612beb57607f821691505b602082108103612c0b57634e487b7160e01b600052602260045260246000fd5b50919050565b6020808252601f908201527f5265656e7472616e637947756172643a207265656e7472616e742063616c6c00604082015260600190565b634e487b7160e01b600052601160045260246000fd5b8181038181111561092c5761092c612c48565b600060208284031215612c8357600080fd5b5051919050565b8082018082111561092c5761092c612c48565b600062ffffff808316818103612cb557612cb5612c48565b6001019392505050565b60208082526010908201526f14185d5cd8589b194e881c185d5cd95960821b604082015260600190565b60208082526021908201527f416d6f756e74206d7573742062652067726561746572207468616e207a65726f6040820152601760f91b606082015260800190565b600060208284031215612d3c57600080fd5b815180151581146128a057600080fd5b600082612d6957634e487b7160e01b600052601260045260246000fd5b500490565b634e487b7160e01b600052603260045260246000fd5b62ffffff8281168282160390808211156123ce576123ce612c48565b67ffffffffffffffff8281168282160390808211156123ce576123ce612c48565b60008151808452602080850194506020840160005b83811015612df257815187529582019590820190600101612dd6565b509495945050505050565b608081526000612e106080830187612dc1565b8281036020840152612e228187612dc1565b91505062ffffff8416604083015267ffffffffffffffff8316606083015295945050505050565b808202811582820484141761092c5761092c612c48565b6020808252602b908201527f496e697469616c697a61626c653a20636f6e7472616374206973206e6f74206960408201526a6e697469616c697a696e6760a81b606082015260800190565b601f82111561262a576000816000526020600020601f850160051c81016020861015612ed45750805b601f850160051c820191505b81811015612ef357828155600101612ee0565b505050505050565b815167ffffffffffffffff811115612f1557612f156128a7565b612f2981612f238454612bd7565b84612eab565b602080601f831160018114612f5e5760008415612f465750858301515b600019600386901b1c1916600185901b178555612ef3565b600085815260208120601f198616915b82811015612f8d57888601518255948401946001909101908401612f6e565b5085821015612fab5787850151600019600388901b60f8161c191681555b5050505050600190811b0190555056fea264697066735822122056d0f0294fe9b3ee30e8b4f99e0909649fef4932600dcfe8296db84cd317030e64736f6c63430008190033",
  "bytecodeSha1": "7af2a7c4f49d558e1a01150eab9c15d0ab239c04",
  "compiler": {
    "evm_version": "istanbul",
    "optimizer": {
      "enabled": true,
      "runs": 200
    },
    "version": "0.8.25+commit.b61c2a91"
  },
  "contractName": "SmartnodesCore",
  "language": "Solidity",
  "natspec": {
    "kind": "dev",
    "methods": {
      "allowance(address,address)": {
        "details": "See {IERC20-allowance}."
      },
      "approve(address,uint256)": {
        "details": "See {IERC20-approve}. NOTE: If `amount` is the maximum `uint256`, the allowance is not updated on `transferFrom`. This is semantically equivalent to an infinite approval. Requirements: - `spender` cannot be the zero address."
      },
      "balanceOf(address)": {
        "details": "See {IERC20-balanceOf}."
      },
      "decimals()": {
        "details": "Returns the number of decimals used to get its user representation. For example, if `decimals` equals `2`, a balance of `505` tokens should be displayed to a user as `5.05` (`505 / 10 ** 2`). Tokens usually opt for a value of 18, imitating the relationship between Ether and Wei. This is the value {ERC20} uses, unless this function is overridden; NOTE: This information is only used for _display_ purposes: it in no way affects any of the arithmetic of the contract, including {IERC20-balanceOf} and {IERC20-transfer}."
      },
      "decreaseAllowance(address,uint256)": {
        "details": "Atomically decreases the allowance granted to `spender` by the caller. This is an alternative to {approve} that can be used as a mitigation for problems described in {IERC20-approve}. Emits an {Approval} event indicating the updated allowance. Requirements: - `spender` cannot be the zero address. - `spender` must have allowance for the caller of at least `subtractedValue`."
      },
      "getUnclaimedRewards(address)": {
        "notice": "View function to check unclaimed rewards"
      },
      "increaseAllowance(address,uint256)": {
        "details": "Atomically increases the allowance granted to `spender` by the caller. This is an alternative to {approve} that can be used as a mitigation for problems described in {IERC20-approve}. Emits an {Approval} event indicating the updated allowance. Requirements: - `spender` cannot be the zero address."
      },
      "name()": {
        "details": "Returns the name of the token."
      },
      "owner()": {
        "details": "Returns the address of the current owner."
      },
      "paused()": {
        "details": "Returns true if the contract is paused, and false otherwise."
      },
      "renounceOwnership()": {
        "details": "Leaves the contract without owner. It will not be possible to call `onlyOwner` functions anymore. Can only be called by the current owner. NOTE: Renouncing ownership will leave the contract without an owner, thereby removing any functionality that is only available to the owner."
      },
      "symbol()": {
        "details": "Returns the symbol of the token, usually a shorter version of the name."
      },
      "totalSupply()": {
        "details": "See {IERC20-totalSupply}."
      },
      "transfer(address,uint256)": {
        "details": "See {IERC20-transfer}. Requirements: - `to` cannot be the zero address. - the caller must have a balance of at least `amount`."
      },
      "transferFrom(address,address,uint256)": {
        "details": "See {IERC20-transferFrom}. Emits an {Approval} event indicating the updated allowance. This is not required by the EIP. See the note at the beginning of {ERC20}. NOTE: Does not update the allowance if the current allowance is the maximum `uint256`. Requirements: - `from` and `to` cannot be the zero address. - `from` must have a balance of at least `amount`. - the caller must have allowance for ``from``'s tokens of at least `amount`."
      },
      "transferOwnership(address)": {
        "details": "Transfers ownership of the contract to a new account (`newOwner`). Can only be called by the current owner."
      }
    },
    "version": 1
  },
  "opcodes": "PUSH1 0x80 PUSH1 0x40 MSTORE CALLVALUE DUP1 ISZERO PUSH2 0x10 JUMPI PUSH1 0x0 DUP1 REVERT JUMPDEST POP PUSH1 0x4 CALLDATASIZE LT PUSH2 0x342 JUMPI PUSH1 0x0 CALLDATALOAD PUSH1 0xE0 SHR DUP1 PUSH4 0x8DA5CB5B GT PUSH2 0x1B8 JUMPI DUP1 PUSH4 0xA457C2D7 GT PUSH2 0x104 JUMPI DUP1 PUSH4 0xCDF64A76 GT PUSH2 0xA2 JUMPI DUP1 PUSH4 0xEABD4BD7 GT PUSH2 0x7C JUMPI DUP1 PUSH4 0xEABD4BD7 EQ PUSH2 0x7DB JUMPI DUP1 PUSH4 0xF0C37A59 EQ PUSH2 0x7E3 JUMPI DUP1 PUSH4 0xF2FDE38B EQ PUSH2 0x818 JUMPI DUP1 PUSH4 0xFA52C7D8 EQ PUSH2 0x82B JUMPI PUSH1 0x0 DUP1 REVERT JUMPDEST DUP1 PUSH4 0xCDF64A76 EQ PUSH2 0x785 JUMPI DUP1 PUSH4 0xD8DF5DC1 EQ PUSH2 0x798 JUMPI DUP1 PUSH4 0xDD62ED3E EQ PUSH2 0x7A2 JUMPI PUSH1 0x0 DUP1 REVERT JUMPDEST DUP1 PUSH4 0xC1873850 GT PUSH2 0xDE JUMPI DUP1 PUSH4 0xC1873850 EQ PUSH2 0x6FC JUMPI DUP1 PUSH4 0xC4086893 EQ PUSH2 0x70F JUMPI DUP1 PUSH4 0xC96F14B8 EQ PUSH2 0x773 JUMPI DUP1 PUSH4 0xCD928DE9 EQ PUSH2 0x77D JUMPI PUSH1 0x0 DUP1 REVERT JUMPDEST DUP1 PUSH4 0xA457C2D7 EQ PUSH2 0x6B2 JUMPI DUP1 PUSH4 0xA9059CBB EQ PUSH2 0x6C5 JUMPI DUP1 PUSH4 0xAB051190 EQ PUSH2 0x6D8 JUMPI PUSH1 0x0 DUP1 REVERT JUMPDEST DUP1 PUSH4 0x991E0139 GT PUSH2 0x171 JUMPI DUP1 PUSH4 0x9B701553 GT PUSH2 0x14B JUMPI DUP1 PUSH4 0x9B701553 EQ PUSH2 0x673 JUMPI DUP1 PUSH4 0x9F46FC37 EQ PUSH2 0x686 JUMPI DUP1 PUSH4 0xA00FABDD EQ PUSH2 0x697 JUMPI DUP1 PUSH4 0xA224CEE7 EQ PUSH2 0x69F JUMPI PUSH1 0x0 DUP1 REVERT JUMPDEST DUP1 PUSH4 0x991E0139 EQ PUSH2 0x63A JUMPI DUP1 PUSH4 0x99439089 EQ PUSH2 0x64D JUMPI DUP1 PUSH4 0x9B6F9176 EQ PUSH2 0x660 JUMPI PUSH1 0x0 DUP1 REVERT JUMPDEST DUP1 PUSH4 0x8DA5CB5B EQ PUSH2 0x5DE JUMPI DUP1 PUSH4 0x91BB809C EQ PUSH2 0x5EF JUMPI DUP1 PUSH4 0x949813B8 EQ PUSH2 0x5FF JUMPI DUP1 PUSH4 0x95B84BC2 EQ PUSH2 0x620 JUMPI DUP1 PUSH4 0x95D89B41 EQ PUSH2 0x629 JUMPI DUP1 PUSH4 0x96AFC450 EQ PUSH2 0x631 JUMPI PUSH1 0x0 DUP1 REVERT JUMPDEST DUP1 PUSH4 0x4A4FBEEC GT PUSH2 0x292 JUMPI DUP1 PUSH4 0x6C9C2FAF GT PUSH2 0x230 JUMPI DUP1 PUSH4 0x715018A6 GT PUSH2 0x20A JUMPI DUP1 PUSH4 0x715018A6 EQ PUSH2 0x58F JUMPI DUP1 PUSH4 0x7C405325 EQ PUSH2 0x597 JUMPI DUP1 PUSH4 0x88EF046D EQ PUSH2 0x5AA JUMPI DUP1 PUSH4 0x8A11D7C9 EQ PUSH2 0x5B4 JUMPI PUSH1 0x0 DUP1 REVERT JUMPDEST DUP1 PUSH4 0x6C9C2FAF EQ PUSH2 0x530 JUMPI DUP1 PUSH4 0x6E27D889 EQ PUSH2 0x553 JUMPI DUP1 PUSH4 0x70A08231 EQ PUSH2 0x566 JUMPI PUSH1 0x0 DUP1 REVERT JUMPDEST DUP1 PUSH4 0x5A3E251F GT PUSH2 0x26C JUMPI DUP1 PUSH4 0x5A3E251F EQ PUSH2 0x4DF JUMPI DUP1 PUSH4 0x5C975ABB EQ PUSH2 0x4E8 JUMPI DUP1 PUSH4 0x5FAE1450 EQ PUSH2 0x4F3 JUMPI DUP1 PUSH4 0x69A69E29 EQ PUSH2 0x506 JUMPI PUSH1 0x0 DUP1 REVERT JUMPDEST DUP1 PUSH4 0x4A4FBEEC EQ PUSH2 0x499 JUMPI DUP1 PUSH4 0x50355D76 EQ PUSH2 0x4CB JUMPI DUP1 PUSH4 0x56891412 EQ PUSH2 0x4D5 JUMPI PUSH1 0x0 DUP1 REVERT JUMPDEST DUP1 PUSH4 0x313CE567 GT PUSH2 0x2FF JUMPI DUP1 PUSH4 0x38ED7CFC GT PUSH2 0x2D9 JUMPI DUP1 PUSH4 0x38ED7CFC EQ PUSH2 0x3E6 JUMPI DUP1 PUSH4 0x39509351 EQ PUSH2 0x448 JUMPI DUP1 PUSH4 0x3E47158C EQ PUSH2 0x45B JUMPI DUP1 PUSH4 0x497DFE63 EQ PUSH2 0x486 JUMPI PUSH1 0x0 DUP1 REVERT JUMPDEST DUP1 PUSH4 0x313CE567 EQ PUSH2 0x3C5 JUMPI DUP1 PUSH4 0x372500AB EQ PUSH2 0x3D4 JUMPI DUP1 PUSH4 0x37DEEA70 EQ PUSH2 0x3DE JUMPI PUSH1 0x0 DUP1 REVERT JUMPDEST DUP1 PUSH4 0x6FDDE03 EQ PUSH2 0x347 JUMPI DUP1 PUSH4 0x95EA7B3 EQ PUSH2 0x365 JUMPI DUP1 PUSH4 0xC1DB7AB EQ PUSH2 0x388 JUMPI DUP1 PUSH4 0x18160DDD EQ PUSH2 0x3A0 JUMPI DUP1 PUSH4 0x23B872DD EQ PUSH2 0x3A8 JUMPI DUP1 PUSH4 0x259A28CF EQ PUSH2 0x3BB JUMPI JUMPDEST PUSH1 0x0 DUP1 REVERT JUMPDEST PUSH2 0x34F PUSH2 0x886 JUMP JUMPDEST PUSH1 0x40 MLOAD PUSH2 0x35C SWAP2 SWAP1 PUSH2 0x277E JUMP JUMPDEST PUSH1 0x40 MLOAD DUP1 SWAP2 SUB SWAP1 RETURN JUMPDEST PUSH2 0x378 PUSH2 0x373 CALLDATASIZE PUSH1 0x4 PUSH2 0x27E4 JUMP JUMPDEST PUSH2 0x918 JUMP JUMPDEST PUSH1 0x40 MLOAD SWAP1 ISZERO ISZERO DUP2 MSTORE PUSH1 0x20 ADD PUSH2 0x35C JUMP JUMPDEST PUSH2 0x392 PUSH2 0x106 SLOAD DUP2 JUMP JUMPDEST PUSH1 0x40 MLOAD SWAP1 DUP2 MSTORE PUSH1 0x20 ADD PUSH2 0x35C JUMP JUMPDEST PUSH1 0x35 SLOAD PUSH2 0x392 JUMP JUMPDEST PUSH2 0x378 PUSH2 0x3B6 CALLDATASIZE PUSH1 0x4 PUSH2 0x280E JUMP JUMPDEST PUSH2 0x932 JUMP JUMPDEST PUSH2 0x392 PUSH3 0x127500 DUP2 JUMP JUMPDEST PUSH1 0x40 MLOAD PUSH1 0x12 DUP2 MSTORE PUSH1 0x20 ADD PUSH2 0x35C JUMP JUMPDEST PUSH2 0x3DC PUSH2 0x956 JUMP JUMPDEST STOP JUMPDEST PUSH2 0x392 PUSH2 0xA2B JUMP JUMPDEST PUSH2 0x424 PUSH2 0x3F4 CALLDATASIZE PUSH1 0x4 PUSH2 0x284A JUMP JUMPDEST PUSH2 0x107 PUSH1 0x20 MSTORE PUSH1 0x0 SWAP1 DUP2 MSTORE PUSH1 0x40 SWAP1 KECCAK256 PUSH1 0x1 DUP2 ADD SLOAD PUSH1 0x2 SWAP1 SWAP2 ADD SLOAD PUSH1 0xFF DUP2 AND SWAP1 PUSH2 0x100 SWAP1 DIV PUSH1 0x1 PUSH1 0x1 PUSH1 0xA0 SHL SUB AND DUP4 JUMP JUMPDEST PUSH1 0x40 DUP1 MLOAD SWAP4 DUP5 MSTORE SWAP2 ISZERO ISZERO PUSH1 0x20 DUP5 ADD MSTORE PUSH1 0x1 PUSH1 0x1 PUSH1 0xA0 SHL SUB AND SWAP1 DUP3 ADD MSTORE PUSH1 0x60 ADD PUSH2 0x35C JUMP JUMPDEST PUSH2 0x378 PUSH2 0x456 CALLDATASIZE PUSH1 0x4 PUSH2 0x27E4 JUMP JUMPDEST PUSH2 0xA9E JUMP JUMPDEST PUSH1 0xFC SLOAD PUSH2 0x46E SWAP1 PUSH1 0x1 PUSH1 0x1 PUSH1 0xA0 SHL SUB AND DUP2 JUMP JUMPDEST PUSH1 0x40 MLOAD PUSH1 0x1 PUSH1 0x1 PUSH1 0xA0 SHL SUB SWAP1 SWAP2 AND DUP2 MSTORE PUSH1 0x20 ADD PUSH2 0x35C JUMP JUMPDEST PUSH2 0x3DC PUSH2 0x494 CALLDATASIZE PUSH1 0x4 PUSH2 0x2863 JUMP JUMPDEST PUSH2 0xADD JUMP JUMPDEST PUSH2 0x378 PUSH2 0x4A7 CALLDATASIZE PUSH1 0x4 PUSH2 0x2885 JUMP JUMPDEST PUSH2 0x105 SLOAD PUSH1 0x1 PUSH1 0x1 PUSH1 0xA0 SHL SUB SWAP1 SWAP2 AND PUSH1 0x0 SWAP1 DUP2 MSTORE PUSH2 0x108 PUSH1 0x20 MSTORE PUSH1 0x40 SWAP1 KECCAK256 SLOAD LT ISZERO SWAP1 JUMP JUMPDEST PUSH2 0x392 PUSH2 0x103 SLOAD DUP2 JUMP JUMPDEST PUSH2 0x392 PUSH2 0x101 SLOAD DUP2 JUMP JUMPDEST PUSH2 0x392 PUSH1 0xFD SLOAD DUP2 JUMP JUMPDEST PUSH1 0x97 SLOAD PUSH1 0xFF AND PUSH2 0x378 JUMP JUMPDEST PUSH2 0x3DC PUSH2 0x501 CALLDATASIZE PUSH1 0x4 PUSH2 0x284A JUMP JUMPDEST PUSH2 0xC64 JUMP JUMPDEST PUSH2 0x392 PUSH2 0x514 CALLDATASIZE PUSH1 0x4 PUSH2 0x2885 JUMP JUMPDEST PUSH1 0x1 PUSH1 0x1 PUSH1 0xA0 SHL SUB AND PUSH1 0x0 SWAP1 DUP2 MSTORE PUSH2 0x109 PUSH1 0x20 MSTORE PUSH1 0x40 SWAP1 KECCAK256 SLOAD SWAP1 JUMP JUMPDEST PUSH2 0x538 PUSH2 0xD8F JUMP JUMPDEST PUSH1 0x40 DUP1 MLOAD SWAP4 DUP5 MSTORE PUSH1 0x20 DUP5 ADD SWAP3 SWAP1 SWAP3 MSTORE SWAP1 DUP3 ADD MSTORE PUSH1 0x60 ADD PUSH2 0x35C JUMP JUMPDEST PUSH2 0x3DC PUSH2 0x561 CALLDATASIZE PUSH1 0x4 PUSH2 0x284A JUMP JUMPDEST PUSH2 0xE09 JUMP JUMPDEST PUSH2 0x392 PUSH2 0x574 CALLDATASIZE PUSH1 0x4 PUSH2 0x2885 JUMP JUMPDEST PUSH1 0x1 PUSH1 0x1 PUSH1 0xA0 SHL SUB AND PUSH1 0x0 SWAP1 DUP2 MSTORE PUSH1 0x33 PUSH1 0x20 MSTORE PUSH1 0x40 SWAP1 KECCAK256 SLOAD SWAP1 JUMP JUMPDEST PUSH2 0x3DC PUSH2 0xE16 JUMP JUMPDEST PUSH2 0x3DC PUSH2 0x5A5 CALLDATASIZE PUSH1 0x4 PUSH2 0x284A JUMP JUMPDEST PUSH2 0xE7C JUMP JUMPDEST PUSH2 0x392 PUSH2 0x100 SLOAD DUP2 JUMP JUMPDEST PUSH2 0x5C7 PUSH2 0x5C2 CALLDATASIZE PUSH1 0x4 PUSH2 0x2885 JUMP JUMPDEST PUSH2 0x110C JUMP JUMPDEST PUSH1 0x40 DUP1 MLOAD SWAP3 ISZERO ISZERO DUP4 MSTORE PUSH1 0x20 DUP4 ADD SWAP2 SWAP1 SWAP2 MSTORE ADD PUSH2 0x35C JUMP JUMPDEST PUSH1 0xC9 SLOAD PUSH1 0x1 PUSH1 0x1 PUSH1 0xA0 SHL SUB AND PUSH2 0x46E JUMP JUMPDEST PUSH2 0x392 PUSH9 0x6F05B59D3B20000000 DUP2 JUMP JUMPDEST PUSH2 0x392 PUSH2 0x60D CALLDATASIZE PUSH1 0x4 PUSH2 0x2885 JUMP JUMPDEST PUSH2 0x109 PUSH1 0x20 MSTORE PUSH1 0x0 SWAP1 DUP2 MSTORE PUSH1 0x40 SWAP1 KECCAK256 SLOAD DUP2 JUMP JUMPDEST PUSH2 0x392 PUSH1 0xFE SLOAD DUP2 JUMP JUMPDEST PUSH2 0x34F PUSH2 0x11D6 JUMP JUMPDEST PUSH2 0x392 PUSH1 0xFF SLOAD DUP2 JUMP JUMPDEST PUSH2 0x392 PUSH2 0x648 CALLDATASIZE PUSH1 0x4 PUSH2 0x284A JUMP JUMPDEST PUSH2 0x11E5 JUMP JUMPDEST PUSH1 0xFB SLOAD PUSH2 0x46E SWAP1 PUSH1 0x1 PUSH1 0x1 PUSH1 0xA0 SHL SUB AND DUP2 JUMP JUMPDEST PUSH2 0x3DC PUSH2 0x66E CALLDATASIZE PUSH1 0x4 PUSH2 0x29E7 JUMP JUMPDEST PUSH2 0x1363 JUMP JUMPDEST PUSH2 0x3DC PUSH2 0x681 CALLDATASIZE PUSH1 0x4 PUSH2 0x2ADC JUMP JUMPDEST PUSH2 0x15AD JUMP JUMPDEST PUSH2 0x392 PUSH10 0x69E10DE76676D0800000 DUP2 JUMP JUMPDEST PUSH2 0x3DC PUSH2 0x17A1 JUMP JUMPDEST PUSH2 0x3DC PUSH2 0x6AD CALLDATASIZE PUSH1 0x4 PUSH2 0x2B67 JUMP JUMPDEST PUSH2 0x1878 JUMP JUMPDEST PUSH2 0x378 PUSH2 0x6C0 CALLDATASIZE PUSH1 0x4 PUSH2 0x27E4 JUMP JUMPDEST PUSH2 0x1A89 JUMP JUMPDEST PUSH2 0x378 PUSH2 0x6D3 CALLDATASIZE PUSH1 0x4 PUSH2 0x27E4 JUMP JUMPDEST PUSH2 0x1B1B JUMP JUMPDEST PUSH2 0x104 SLOAD PUSH2 0x6E8 SWAP1 PUSH3 0xFFFFFF AND DUP2 JUMP JUMPDEST PUSH1 0x40 MLOAD PUSH3 0xFFFFFF SWAP1 SWAP2 AND DUP2 MSTORE PUSH1 0x20 ADD PUSH2 0x35C JUMP JUMPDEST PUSH2 0x3DC PUSH2 0x70A CALLDATASIZE PUSH1 0x4 PUSH2 0x284A JUMP JUMPDEST PUSH2 0x1B29 JUMP JUMPDEST PUSH2 0x392 PUSH2 0x71D CALLDATASIZE PUSH1 0x4 PUSH2 0x2885 JUMP JUMPDEST PUSH1 0x1 PUSH1 0x1 PUSH1 0xA0 SHL SUB AND PUSH1 0x0 SWAP1 DUP2 MSTORE PUSH2 0x108 PUSH1 0x20 SWAP1 DUP2 MSTORE PUSH1 0x40 SWAP2 DUP3 SWAP1 KECCAK256 DUP3 MLOAD PUSH1 0x80 DUP2 ADD DUP5 MSTORE DUP2 SLOAD DUP1 DUP3 MSTORE PUSH1 0x1 DUP4 ADD SLOAD SWAP4 DUP3 ADD SWAP4 SWAP1 SWAP4 MSTORE PUSH1 0x2 DUP3 ADD SLOAD SWAP4 DUP2 ADD SWAP4 SWAP1 SWAP4 MSTORE PUSH1 0x3 ADD SLOAD PUSH1 0xFF AND ISZERO ISZERO PUSH1 0x60 SWAP1 SWAP3 ADD SWAP2 SWAP1 SWAP2 MSTORE SWAP1 JUMP JUMPDEST PUSH2 0x392 PUSH2 0x102 SLOAD DUP2 JUMP JUMPDEST PUSH2 0x392 PUSH1 0x14 DUP2 JUMP JUMPDEST PUSH2 0x3DC PUSH2 0x793 CALLDATASIZE PUSH1 0x4 PUSH2 0x2885 JUMP JUMPDEST PUSH2 0x1B5A JUMP JUMPDEST PUSH2 0x392 PUSH2 0x105 SLOAD DUP2 JUMP JUMPDEST PUSH2 0x392 PUSH2 0x7B0 CALLDATASIZE PUSH1 0x4 PUSH2 0x2BA4 JUMP JUMPDEST PUSH1 0x1 PUSH1 0x1 PUSH1 0xA0 SHL SUB SWAP2 DUP3 AND PUSH1 0x0 SWAP1 DUP2 MSTORE PUSH1 0x34 PUSH1 0x20 SWAP1 DUP2 MSTORE PUSH1 0x40 DUP1 DUP4 KECCAK256 SWAP4 SWAP1 SWAP5 AND DUP3 MSTORE SWAP2 SWAP1 SWAP2 MSTORE KECCAK256 SLOAD SWAP1 JUMP JUMPDEST PUSH2 0x3DC PUSH2 0x1BD5 JUMP JUMPDEST PUSH2 0x104 SLOAD PUSH2 0x7FF SWAP1 PUSH4 0x1000000 SWAP1 DIV PUSH8 0xFFFFFFFFFFFFFFFF AND DUP2 JUMP JUMPDEST PUSH1 0x40 MLOAD PUSH8 0xFFFFFFFFFFFFFFFF SWAP1 SWAP2 AND DUP2 MSTORE PUSH1 0x20 ADD PUSH2 0x35C JUMP JUMPDEST PUSH2 0x3DC PUSH2 0x826 CALLDATASIZE PUSH1 0x4 PUSH2 0x2885 JUMP JUMPDEST PUSH2 0x1C92 JUMP JUMPDEST PUSH2 0x864 PUSH2 0x839 CALLDATASIZE PUSH1 0x4 PUSH2 0x2885 JUMP JUMPDEST PUSH2 0x108 PUSH1 0x20 MSTORE PUSH1 0x0 SWAP1 DUP2 MSTORE PUSH1 0x40 SWAP1 KECCAK256 DUP1 SLOAD PUSH1 0x1 DUP3 ADD SLOAD PUSH1 0x2 DUP4 ADD SLOAD PUSH1 0x3 SWAP1 SWAP4 ADD SLOAD SWAP2 SWAP3 SWAP1 SWAP2 PUSH1 0xFF AND DUP5 JUMP JUMPDEST PUSH1 0x40 DUP1 MLOAD SWAP5 DUP6 MSTORE PUSH1 0x20 DUP6 ADD SWAP4 SWAP1 SWAP4 MSTORE SWAP2 DUP4 ADD MSTORE ISZERO ISZERO PUSH1 0x60 DUP3 ADD MSTORE PUSH1 0x80 ADD PUSH2 0x35C JUMP JUMPDEST PUSH1 0x60 PUSH1 0x36 DUP1 SLOAD PUSH2 0x895 SWAP1 PUSH2 0x2BD7 JUMP JUMPDEST DUP1 PUSH1 0x1F ADD PUSH1 0x20 DUP1 SWAP2 DIV MUL PUSH1 0x20 ADD PUSH1 0x40 MLOAD SWAP1 DUP2 ADD PUSH1 0x40 MSTORE DUP1 SWAP3 SWAP2 SWAP1 DUP2 DUP2 MSTORE PUSH1 0x20 ADD DUP3 DUP1 SLOAD PUSH2 0x8C1 SWAP1 PUSH2 0x2BD7 JUMP JUMPDEST DUP1 ISZERO PUSH2 0x90E JUMPI DUP1 PUSH1 0x1F LT PUSH2 0x8E3 JUMPI PUSH2 0x100 DUP1 DUP4 SLOAD DIV MUL DUP4 MSTORE SWAP2 PUSH1 0x20 ADD SWAP2 PUSH2 0x90E JUMP JUMPDEST DUP3 ADD SWAP2 SWAP1 PUSH1 0x0 MSTORE PUSH1 0x20 PUSH1 0x0 KECCAK256 SWAP1 JUMPDEST DUP2 SLOAD DUP2 MSTORE SWAP1 PUSH1 0x1 ADD SWAP1 PUSH1 0x20 ADD DUP1 DUP4 GT PUSH2 0x8F1 JUMPI DUP3 SWAP1 SUB PUSH1 0x1F AND DUP3 ADD SWAP2 JUMPDEST POP POP POP POP POP SWAP1 POP SWAP1 JUMP JUMPDEST PUSH1 0x0 CALLER PUSH2 0x926 DUP2 DUP6 DUP6 PUSH2 0x1D5A JUMP JUMPDEST PUSH1 0x1 SWAP2 POP POP JUMPDEST SWAP3 SWAP2 POP POP JUMP JUMPDEST PUSH1 0x0 CALLER PUSH2 0x940 DUP6 DUP3 DUP6 PUSH2 0x1E7E JUMP JUMPDEST PUSH2 0x94B DUP6 DUP6 DUP6 PUSH2 0x1F0A JUMP JUMPDEST POP PUSH1 0x1 SWAP5 SWAP4 POP POP POP POP JUMP JUMPDEST PUSH1 0x2 PUSH1 0x65 SLOAD SUB PUSH2 0x981 JUMPI PUSH1 0x40 MLOAD PUSH3 0x461BCD PUSH1 0xE5 SHL DUP2 MSTORE PUSH1 0x4 ADD PUSH2 0x978 SWAP1 PUSH2 0x2C11 JUMP JUMPDEST PUSH1 0x40 MLOAD DUP1 SWAP2 SUB SWAP1 REVERT JUMPDEST PUSH1 0x2 PUSH1 0x65 SSTORE CALLER PUSH1 0x0 SWAP1 DUP2 MSTORE PUSH2 0x109 PUSH1 0x20 MSTORE PUSH1 0x40 DUP2 KECCAK256 SLOAD SWAP1 DUP2 SWAP1 SUB PUSH2 0x9B8 JUMPI PUSH1 0x40 MLOAD PUSH4 0xFEC21FD PUSH1 0xE2 SHL DUP2 MSTORE PUSH1 0x4 ADD PUSH1 0x40 MLOAD DUP1 SWAP2 SUB SWAP1 REVERT JUMPDEST CALLER PUSH1 0x0 SWAP1 DUP2 MSTORE PUSH2 0x109 PUSH1 0x20 MSTORE PUSH1 0x40 DUP2 KECCAK256 DUP2 SWAP1 SSTORE PUSH2 0x102 DUP1 SLOAD DUP4 SWAP3 SWAP1 PUSH2 0x9DE SWAP1 DUP5 SWAP1 PUSH2 0x2C5E JUMP JUMPDEST SWAP1 SWAP2 SSTORE POP PUSH2 0x9EE SWAP1 POP CALLER DUP3 PUSH2 0x20D8 JUMP JUMPDEST PUSH1 0x40 MLOAD DUP2 DUP2 MSTORE CALLER SWAP1 PUSH32 0xFC30CDDEA38E2BF4D6EA7D3F9ED3B6AD7F176419F4963BD81318067A4AEE73FE SWAP1 PUSH1 0x20 ADD PUSH1 0x40 MLOAD DUP1 SWAP2 SUB SWAP1 LOG2 POP PUSH1 0x1 PUSH1 0x65 SSTORE JUMP JUMPDEST PUSH1 0xFB SLOAD PUSH1 0x40 DUP1 MLOAD PUSH4 0x48F17129 PUSH1 0xE1 SHL DUP2 MSTORE SWAP1 MLOAD PUSH1 0x0 SWAP3 PUSH1 0x1 PUSH1 0x1 PUSH1 0xA0 SHL SUB AND SWAP2 PUSH4 0x91E2E252 SWAP2 PUSH1 0x4 DUP1 DUP4 ADD SWAP3 PUSH1 0x20 SWAP3 SWAP2 SWAP1 DUP3 SWAP1 SUB ADD DUP2 DUP7 GAS STATICCALL ISZERO DUP1 ISZERO PUSH2 0xA75 JUMPI RETURNDATASIZE PUSH1 0x0 DUP1 RETURNDATACOPY RETURNDATASIZE PUSH1 0x0 REVERT JUMPDEST POP POP POP POP PUSH1 0x40 MLOAD RETURNDATASIZE PUSH1 0x1F NOT PUSH1 0x1F DUP3 ADD AND DUP3 ADD DUP1 PUSH1 0x40 MSTORE POP DUP2 ADD SWAP1 PUSH2 0xA99 SWAP2 SWAP1 PUSH2 0x2C71 JUMP JUMPDEST SWAP1 POP SWAP1 JUMP JUMPDEST CALLER PUSH1 0x0 DUP2 DUP2 MSTORE PUSH1 0x34 PUSH1 0x20 SWAP1 DUP2 MSTORE PUSH1 0x40 DUP1 DUP4 KECCAK256 PUSH1 0x1 PUSH1 0x1 PUSH1 0xA0 SHL SUB DUP8 AND DUP5 MSTORE SWAP1 SWAP2 MSTORE DUP2 KECCAK256 SLOAD SWAP1 SWAP2 SWAP1 PUSH2 0x926 SWAP1 DUP3 SWAP1 DUP7 SWAP1 PUSH2 0xAD8 SWAP1 DUP8 SWAP1 PUSH2 0x2C8A JUMP JUMPDEST PUSH2 0x1D5A JUMP JUMPDEST CALLER PUSH1 0x0 SWAP1 DUP2 MSTORE PUSH1 0x33 PUSH1 0x20 MSTORE PUSH1 0x40 SWAP1 KECCAK256 SLOAD DUP2 GT ISZERO DUP1 ISZERO PUSH2 0xAFF JUMPI POP PUSH2 0x105 SLOAD DUP2 LT ISZERO JUMPDEST PUSH2 0xB4B JUMPI PUSH1 0x40 MLOAD PUSH3 0x461BCD PUSH1 0xE5 SHL DUP2 MSTORE PUSH1 0x20 PUSH1 0x4 DUP3 ADD MSTORE PUSH1 0x1B PUSH1 0x24 DUP3 ADD MSTORE PUSH32 0x496E73756666696369656E7420746F6B656E2062616C616E63652E0000000000 PUSH1 0x44 DUP3 ADD MSTORE PUSH1 0x64 ADD PUSH2 0x978 JUMP JUMPDEST CALLER PUSH1 0x0 SWAP1 DUP2 MSTORE PUSH2 0x108 PUSH1 0x20 MSTORE PUSH1 0x40 SWAP1 KECCAK256 PUSH1 0x2 ADD SLOAD ISZERO PUSH2 0xBC1 JUMPI PUSH1 0x40 MLOAD PUSH3 0x461BCD PUSH1 0xE5 SHL DUP2 MSTORE PUSH1 0x20 PUSH1 0x4 DUP3 ADD MSTORE PUSH1 0x2C PUSH1 0x24 DUP3 ADD MSTORE PUSH32 0x56616C696461746F7220616C7265616479206372656174656420776974682074 PUSH1 0x44 DUP3 ADD MSTORE PUSH12 0x686973206163636F756E7421 PUSH1 0xA0 SHL PUSH1 0x64 DUP3 ADD MSTORE PUSH1 0x84 ADD PUSH2 0x978 JUMP JUMPDEST PUSH1 0x40 DUP1 MLOAD PUSH1 0x80 DUP2 ADD DUP3 MSTORE PUSH1 0x0 DUP1 DUP3 MSTORE PUSH1 0x20 DUP1 DUP4 ADD DUP3 DUP2 MSTORE DUP4 DUP6 ADD DUP8 DUP2 MSTORE PUSH1 0x1 PUSH1 0x60 DUP7 ADD DUP2 DUP2 MSTORE CALLER DUP1 DUP8 MSTORE PUSH2 0x108 SWAP1 SWAP6 MSTORE SWAP7 SWAP1 SWAP5 KECCAK256 SWAP5 MLOAD DUP6 SSTORE SWAP1 MLOAD SWAP3 DUP5 ADD SWAP3 SWAP1 SWAP3 SSTORE SWAP1 MLOAD PUSH1 0x2 DUP4 ADD SSTORE SWAP2 MLOAD PUSH1 0x3 SWAP1 SWAP2 ADD DUP1 SLOAD PUSH1 0xFF NOT AND SWAP2 ISZERO ISZERO SWAP2 SWAP1 SWAP2 OR SWAP1 SSTORE PUSH2 0x105 SLOAD PUSH2 0xC2D SWAP2 SWAP1 PUSH2 0x21B7 JUMP JUMPDEST PUSH2 0x104 DUP1 SLOAD PUSH3 0xFFFFFF AND SWAP1 PUSH1 0x0 PUSH2 0xC43 DUP4 PUSH2 0x2C9D JUMP JUMPDEST SWAP2 SWAP1 PUSH2 0x100 EXP DUP2 SLOAD DUP2 PUSH3 0xFFFFFF MUL NOT AND SWAP1 DUP4 PUSH3 0xFFFFFF AND MUL OR SWAP1 SSTORE POP POP POP POP JUMP JUMPDEST PUSH1 0x97 SLOAD PUSH1 0xFF AND ISZERO PUSH2 0xC87 JUMPI PUSH1 0x40 MLOAD PUSH3 0x461BCD PUSH1 0xE5 SHL DUP2 MSTORE PUSH1 0x4 ADD PUSH2 0x978 SWAP1 PUSH2 0x2CBF JUMP JUMPDEST PUSH1 0x2 PUSH1 0x65 SLOAD SUB PUSH2 0xCA9 JUMPI PUSH1 0x40 MLOAD PUSH3 0x461BCD PUSH1 0xE5 SHL DUP2 MSTORE PUSH1 0x4 ADD PUSH2 0x978 SWAP1 PUSH2 0x2C11 JUMP JUMPDEST PUSH1 0x2 PUSH1 0x65 DUP2 SWAP1 SSTORE PUSH1 0x0 DUP3 DUP2 MSTORE PUSH2 0x107 PUSH1 0x20 MSTORE PUSH1 0x40 SWAP1 KECCAK256 SWAP1 DUP2 ADD SLOAD PUSH1 0xFF AND PUSH2 0xCE3 JUMPI PUSH1 0x40 MLOAD PUSH4 0x162908E3 PUSH1 0xE1 SHL DUP2 MSTORE PUSH1 0x4 ADD PUSH1 0x40 MLOAD DUP1 SWAP2 SUB SWAP1 REVERT JUMPDEST PUSH1 0x2 DUP2 ADD SLOAD PUSH2 0x100 SWAP1 DIV PUSH1 0x1 PUSH1 0x1 PUSH1 0xA0 SHL SUB AND CALLER EQ PUSH2 0xD15 JUMPI PUSH1 0x40 MLOAD PUSH4 0x5C427CD9 PUSH1 0xE0 SHL DUP2 MSTORE PUSH1 0x4 ADD PUSH1 0x40 MLOAD DUP1 SWAP2 SUB SWAP1 REVERT JUMPDEST PUSH1 0x1 DUP2 ADD SLOAD PUSH1 0x0 DUP4 DUP2 MSTORE PUSH2 0x107 PUSH1 0x20 MSTORE PUSH1 0x40 DUP2 KECCAK256 SWAP1 PUSH2 0xD34 DUP3 DUP3 PUSH2 0x2700 JUMP JUMPDEST POP PUSH1 0x0 PUSH1 0x1 DUP3 ADD SSTORE PUSH1 0x2 ADD DUP1 SLOAD PUSH1 0x1 PUSH1 0x1 PUSH1 0xA8 SHL SUB NOT AND SWAP1 SSTORE PUSH2 0xD58 ADDRESS CALLER DUP4 PUSH2 0x1F0A JUMP JUMPDEST PUSH1 0x40 MLOAD CALLER SWAP1 DUP5 SWAP1 PUSH32 0x97729287F7BA8B32555258E73E27488F492C99BF34E2869740C56843A2FFB23B SWAP1 PUSH1 0x0 SWAP1 LOG3 POP POP PUSH1 0x1 PUSH1 0x65 SSTORE POP JUMP JUMPDEST PUSH1 0x0 DUP1 PUSH1 0x0 ADDRESS PUSH1 0x1 PUSH1 0x1 PUSH1 0xA0 SHL SUB AND PUSH4 0x18160DDD PUSH1 0x40 MLOAD DUP2 PUSH4 0xFFFFFFFF AND PUSH1 0xE0 SHL DUP2 MSTORE PUSH1 0x4 ADD PUSH1 0x20 PUSH1 0x40 MLOAD DUP1 DUP4 SUB DUP2 DUP7 GAS STATICCALL ISZERO DUP1 ISZERO PUSH2 0xDD2 JUMPI RETURNDATASIZE PUSH1 0x0 DUP1 RETURNDATACOPY RETURNDATASIZE PUSH1 0x0 REVERT JUMPDEST POP POP POP POP PUSH1 0x40 MLOAD RETURNDATASIZE PUSH1 0x1F NOT PUSH1 0x1F DUP3 ADD AND DUP3 ADD DUP1 PUSH1 0x40 MSTORE POP DUP2 ADD SWAP1 PUSH2 0xDF6 SWAP2 SWAP1 PUSH2 0x2C71 JUMP JUMPDEST PUSH2 0x101 SLOAD PUSH2 0x102 SLOAD SWAP3 POP SWAP3 POP SWAP3 POP SWAP1 SWAP2 SWAP3 JUMP JUMPDEST PUSH2 0xE13 CALLER DUP3 PUSH2 0x21B7 JUMP JUMPDEST POP JUMP JUMPDEST PUSH1 0xC9 SLOAD PUSH1 0x1 PUSH1 0x1 PUSH1 0xA0 SHL SUB AND CALLER EQ PUSH2 0xE70 JUMPI PUSH1 0x40 MLOAD PUSH3 0x461BCD PUSH1 0xE5 SHL DUP2 MSTORE PUSH1 0x20 PUSH1 0x4 DUP3 ADD DUP2 SWAP1 MSTORE PUSH1 0x24 DUP3 ADD MSTORE PUSH32 0x4F776E61626C653A2063616C6C6572206973206E6F7420746865206F776E6572 PUSH1 0x44 DUP3 ADD MSTORE PUSH1 0x64 ADD PUSH2 0x978 JUMP JUMPDEST PUSH2 0xE7A PUSH1 0x0 PUSH2 0x2338 JUMP JUMPDEST JUMP JUMPDEST PUSH1 0x2 PUSH1 0x65 SLOAD SUB PUSH2 0xE9E JUMPI PUSH1 0x40 MLOAD PUSH3 0x461BCD PUSH1 0xE5 SHL DUP2 MSTORE PUSH1 0x4 ADD PUSH2 0x978 SWAP1 PUSH2 0x2C11 JUMP JUMPDEST PUSH1 0x2 PUSH1 0x65 DUP2 SWAP1 SSTORE CALLER PUSH1 0x0 SWAP1 DUP2 MSTORE PUSH2 0x108 PUSH1 0x20 MSTORE PUSH1 0x40 SWAP1 KECCAK256 SWAP1 DUP2 ADD SLOAD PUSH2 0xF01 JUMPI PUSH1 0x40 MLOAD PUSH3 0x461BCD PUSH1 0xE5 SHL DUP2 MSTORE PUSH1 0x20 PUSH1 0x4 DUP3 ADD MSTORE PUSH1 0x19 PUSH1 0x24 DUP3 ADD MSTORE PUSH25 0x2B30B634B230BA37B9103237B2B9903737BA1032BC34B9BA17 PUSH1 0x39 SHL PUSH1 0x44 DUP3 ADD MSTORE PUSH1 0x64 ADD PUSH2 0x978 JUMP JUMPDEST DUP1 SLOAD DUP3 GT ISZERO PUSH2 0xF52 JUMPI PUSH1 0x40 MLOAD PUSH3 0x461BCD PUSH1 0xE5 SHL DUP2 MSTORE PUSH1 0x20 PUSH1 0x4 DUP3 ADD MSTORE PUSH1 0x1E PUSH1 0x24 DUP3 ADD MSTORE PUSH32 0x416D6F756E742065786365656473206C6F636B65642062616C616E63652E0000 PUSH1 0x44 DUP3 ADD MSTORE PUSH1 0x64 ADD PUSH2 0x978 JUMP JUMPDEST PUSH1 0x0 DUP3 GT PUSH2 0xF72 JUMPI PUSH1 0x40 MLOAD PUSH3 0x461BCD PUSH1 0xE5 SHL DUP2 MSTORE PUSH1 0x4 ADD PUSH2 0x978 SWAP1 PUSH2 0x2CE9 JUMP JUMPDEST DUP1 PUSH1 0x1 ADD SLOAD PUSH1 0x0 SUB PUSH2 0x1054 JUMPI PUSH2 0x105 SLOAD DUP2 SLOAD LT ISZERO PUSH2 0xFE8 JUMPI PUSH1 0xFB SLOAD PUSH1 0x40 MLOAD PUSH4 0x40A141FF PUSH1 0xE0 SHL DUP2 MSTORE CALLER PUSH1 0x4 DUP3 ADD MSTORE PUSH1 0x1 PUSH1 0x1 PUSH1 0xA0 SHL SUB SWAP1 SWAP2 AND SWAP1 PUSH4 0x40A141FF SWAP1 PUSH1 0x24 ADD PUSH1 0x0 PUSH1 0x40 MLOAD DUP1 DUP4 SUB DUP2 PUSH1 0x0 DUP8 DUP1 EXTCODESIZE ISZERO DUP1 ISZERO PUSH2 0xFCF JUMPI PUSH1 0x0 DUP1 REVERT JUMPDEST POP GAS CALL ISZERO DUP1 ISZERO PUSH2 0xFE3 JUMPI RETURNDATASIZE PUSH1 0x0 DUP1 RETURNDATACOPY RETURNDATASIZE PUSH1 0x0 REVERT JUMPDEST POP POP POP POP JUMPDEST PUSH2 0xFF5 PUSH3 0x127500 TIMESTAMP PUSH2 0x2C8A JUMP JUMPDEST DUP2 PUSH1 0x1 ADD DUP2 SWAP1 SSTORE POP DUP2 PUSH2 0x101 PUSH1 0x0 DUP3 DUP3 SLOAD PUSH2 0x1010 SWAP2 SWAP1 PUSH2 0x2C5E JUMP JUMPDEST SWAP1 SWAP2 SSTORE POP POP PUSH1 0x1 DUP2 ADD SLOAD PUSH1 0x40 MLOAD SWAP1 DUP2 MSTORE CALLER SWAP1 PUSH32 0x77635F8F13EE1A01D11246347C649817C6EE9FA7620CE4C6ADFA2452BFA162B2 SWAP1 PUSH1 0x20 ADD PUSH1 0x40 MLOAD DUP1 SWAP2 SUB SWAP1 LOG2 PUSH2 0x1103 JUMP JUMPDEST DUP1 PUSH1 0x1 ADD SLOAD TIMESTAMP LT ISZERO PUSH2 0x10A8 JUMPI PUSH1 0x40 MLOAD PUSH3 0x461BCD PUSH1 0xE5 SHL DUP2 MSTORE PUSH1 0x20 PUSH1 0x4 DUP3 ADD MSTORE PUSH1 0x18 PUSH1 0x24 DUP3 ADD MSTORE PUSH32 0x546F6B656E7320617265207374696C6C206C6F636B65642E0000000000000000 PUSH1 0x44 DUP3 ADD MSTORE PUSH1 0x64 ADD PUSH2 0x978 JUMP JUMPDEST DUP2 DUP2 PUSH1 0x0 ADD PUSH1 0x0 DUP3 DUP3 SLOAD PUSH2 0x10BC SWAP2 SWAP1 PUSH2 0x2C5E JUMP JUMPDEST SWAP1 SWAP2 SSTORE POP PUSH2 0x10CD SWAP1 POP ADDRESS CALLER DUP5 PUSH2 0x1F0A JUMP JUMPDEST PUSH1 0x40 MLOAD DUP3 DUP2 MSTORE CALLER SWAP1 PUSH32 0xE7B379C6C1FA169E9079C25E9143B127637EEF8EC8C9D5C06DDB4AB3E1195888 SWAP1 PUSH1 0x20 ADD PUSH1 0x40 MLOAD DUP1 SWAP2 SUB SWAP1 LOG2 JUMPDEST POP POP PUSH1 0x1 PUSH1 0x65 SSTORE JUMP JUMPDEST PUSH1 0x1 PUSH1 0x1 PUSH1 0xA0 SHL SUB DUP2 DUP2 AND PUSH1 0x0 DUP2 DUP2 MSTORE PUSH2 0x108 PUSH1 0x20 SWAP1 DUP2 MSTORE PUSH1 0x40 DUP1 DUP4 KECCAK256 DUP2 MLOAD PUSH1 0x80 DUP2 ADD DUP4 MSTORE DUP2 SLOAD DUP2 MSTORE PUSH1 0x1 DUP3 ADD SLOAD SWAP4 DUP2 ADD SWAP4 SWAP1 SWAP4 MSTORE PUSH1 0x2 DUP2 ADD SLOAD DUP4 DUP4 ADD MSTORE PUSH1 0x3 ADD SLOAD PUSH1 0xFF AND ISZERO ISZERO PUSH1 0x60 DUP4 ADD MSTORE PUSH1 0xFB SLOAD SWAP1 MLOAD PUSH4 0x10154287 PUSH1 0xE2 SHL DUP2 MSTORE PUSH1 0x4 DUP2 ADD SWAP5 SWAP1 SWAP5 MSTORE SWAP2 SWAP4 DUP5 SWAP4 SWAP2 SWAP3 DUP5 SWAP3 SWAP2 AND SWAP1 PUSH4 0x40550A1C SWAP1 PUSH1 0x24 ADD PUSH1 0x20 PUSH1 0x40 MLOAD DUP1 DUP4 SUB DUP2 DUP7 GAS STATICCALL ISZERO DUP1 ISZERO PUSH2 0x11A0 JUMPI RETURNDATASIZE PUSH1 0x0 DUP1 RETURNDATACOPY RETURNDATASIZE PUSH1 0x0 REVERT JUMPDEST POP POP POP POP PUSH1 0x40 MLOAD RETURNDATASIZE PUSH1 0x1F NOT PUSH1 0x1F DUP3 ADD AND DUP3 ADD DUP1 PUSH1 0x40 MSTORE POP DUP2 ADD SWAP1 PUSH2 0x11C4 SWAP2 SWAP1 PUSH2 0x2D2A JUMP JUMPDEST PUSH1 0x40 SWAP1 SWAP3 ADD MLOAD SWAP2 SWAP6 SWAP2 SWAP5 POP SWAP1 SWAP3 POP POP POP JUMP JUMPDEST PUSH1 0x60 PUSH1 0x37 DUP1 SLOAD PUSH2 0x895 SWAP1 PUSH2 0x2BD7 JUMP JUMPDEST PUSH1 0xFB SLOAD PUSH1 0x0 SWAP1 PUSH1 0x1 PUSH1 0x1 PUSH1 0xA0 SHL SUB AND CALLER EQ PUSH2 0x1213 JUMPI PUSH1 0x40 MLOAD PUSH4 0x5C427CD9 PUSH1 0xE0 SHL DUP2 MSTORE PUSH1 0x4 ADD PUSH1 0x40 MLOAD DUP1 SWAP2 SUB SWAP1 REVERT JUMPDEST PUSH1 0x97 SLOAD PUSH1 0xFF AND ISZERO PUSH2 0x1236 JUMPI PUSH1 0x40 MLOAD PUSH3 0x461BCD PUSH1 0xE5 SHL DUP2 MSTORE PUSH1 0x4 ADD PUSH2 0x978 SWAP1 PUSH2 0x2CBF JUMP JUMPDEST PUSH1 0x0 DUP3 DUP2 MSTORE PUSH2 0x107 PUSH1 0x20 SWAP1 DUP2 MSTORE PUSH1 0x40 DUP1 DUP4 KECCAK256 DUP2 MLOAD DUP2 SLOAD PUSH1 0xA0 SWAP5 DUP2 MUL DUP3 ADD DUP6 ADD SWAP1 SWAP4 MSTORE PUSH1 0x80 DUP2 ADD DUP4 DUP2 MSTORE SWAP1 SWAP4 SWAP2 SWAP3 DUP5 SWAP3 DUP5 SWAP2 SWAP1 DUP5 ADD DUP3 DUP3 DUP1 ISZERO PUSH2 0x1297 JUMPI PUSH1 0x20 MUL DUP3 ADD SWAP2 SWAP1 PUSH1 0x0 MSTORE PUSH1 0x20 PUSH1 0x0 KECCAK256 SWAP1 JUMPDEST DUP2 SLOAD DUP2 MSTORE PUSH1 0x20 ADD SWAP1 PUSH1 0x1 ADD SWAP1 DUP1 DUP4 GT PUSH2 0x1283 JUMPI JUMPDEST POP POP POP SWAP2 DUP4 MSTORE POP POP PUSH1 0x1 DUP3 ADD SLOAD PUSH1 0x20 DUP1 DUP4 ADD SWAP2 SWAP1 SWAP2 MSTORE PUSH1 0x2 SWAP1 SWAP3 ADD SLOAD PUSH1 0xFF DUP2 AND ISZERO ISZERO PUSH1 0x40 DUP1 DUP5 ADD SWAP2 SWAP1 SWAP2 MSTORE PUSH2 0x100 SWAP1 SWAP2 DIV PUSH1 0x1 PUSH1 0x1 PUSH1 0xA0 SHL SUB AND PUSH1 0x60 SWAP1 SWAP3 ADD SWAP2 SWAP1 SWAP2 MSTORE DUP3 DUP3 ADD MLOAD SWAP1 MLOAD DUP2 DUP2 MSTORE SWAP3 SWAP4 POP SWAP2 DUP6 SWAP2 PUSH32 0x9B5ED714C31DFCB1A9397710B6FC1842F37D94AB5DC0CCB528D9A2C97EA76F2A SWAP2 ADD PUSH1 0x40 MLOAD DUP1 SWAP2 SUB SWAP1 LOG2 DUP2 PUSH1 0x40 ADD MLOAD PUSH2 0x1327 JUMPI POP PUSH1 0x0 SWAP4 SWAP3 POP POP POP JUMP JUMPDEST PUSH1 0x0 DUP5 DUP2 MSTORE PUSH2 0x107 PUSH1 0x20 MSTORE PUSH1 0x40 DUP2 KECCAK256 SWAP1 PUSH2 0x1341 DUP3 DUP3 PUSH2 0x2700 JUMP JUMPDEST POP PUSH1 0x0 PUSH1 0x1 DUP3 ADD SSTORE PUSH1 0x2 ADD DUP1 SLOAD PUSH1 0x1 PUSH1 0x1 PUSH1 0xA8 SHL SUB NOT AND SWAP1 SSTORE SWAP2 POP POP JUMPDEST SWAP2 SWAP1 POP JUMP JUMPDEST PUSH1 0xFB SLOAD PUSH1 0x1 PUSH1 0x1 PUSH1 0xA0 SHL SUB AND CALLER EQ PUSH2 0x138E JUMPI PUSH1 0x40 MLOAD PUSH4 0x5C427CD9 PUSH1 0xE0 SHL DUP2 MSTORE PUSH1 0x4 ADD PUSH1 0x40 MLOAD DUP1 SWAP2 SUB SWAP1 REVERT JUMPDEST PUSH1 0x2 PUSH1 0x65 SLOAD SUB PUSH2 0x13B0 JUMPI PUSH1 0x40 MLOAD PUSH3 0x461BCD PUSH1 0xE5 SHL DUP2 MSTORE PUSH1 0x4 ADD PUSH2 0x978 SWAP1 PUSH2 0x2C11 JUMP JUMPDEST PUSH1 0x2 PUSH1 0x65 SSTORE PUSH1 0x97 SLOAD PUSH1 0xFF AND ISZERO PUSH2 0x13D8 JUMPI PUSH1 0x40 MLOAD PUSH3 0x461BCD PUSH1 0xE5 SHL DUP2 MSTORE PUSH1 0x4 ADD PUSH2 0x978 SWAP1 PUSH2 0x2CBF JUMP JUMPDEST DUP4 MLOAD DUP6 MLOAD EQ PUSH2 0x13FA JUMPI PUSH1 0x40 MLOAD PUSH4 0x251F56A1 PUSH1 0xE2 SHL DUP2 MSTORE PUSH1 0x4 ADD PUSH1 0x40 MLOAD DUP1 SWAP2 SUB SWAP1 REVERT JUMPDEST DUP1 MLOAD PUSH1 0x0 SUB PUSH2 0x141C JUMPI PUSH1 0x40 MLOAD PUSH4 0x13F8A3A7 PUSH1 0xE3 SHL DUP2 MSTORE PUSH1 0x4 ADD PUSH1 0x40 MLOAD DUP1 SWAP2 SUB SWAP1 REVERT JUMPDEST PUSH1 0xFD SLOAD PUSH2 0x100 SLOAD LT PUSH2 0x148A JUMPI PUSH1 0xFE SLOAD PUSH1 0xFF SLOAD GT ISZERO PUSH2 0x1483 JUMPI PUSH1 0x2 PUSH1 0xFF PUSH1 0x0 DUP3 DUP3 SLOAD PUSH2 0x1447 SWAP2 SWAP1 PUSH2 0x2D4C JUMP JUMPDEST SWAP1 SWAP2 SSTORE POP POP PUSH1 0xFF SLOAD PUSH1 0x40 MLOAD SWAP1 DUP2 MSTORE PUSH32 0xFFCC630BF88A67BA7C8B27440787C31777AE923AEE1E9BBD0127FEEA56DA2CD0 SWAP1 PUSH1 0x20 ADD PUSH1 0x40 MLOAD DUP1 SWAP2 SUB SWAP1 LOG1 JUMPDEST PUSH1 0x0 PUSH2 0x100 SSTORE JUMPDEST PUSH1 0x0 DUP1 JUMPDEST DUP5 MLOAD DUP2 LT ISZERO PUSH2 0x14C6 JUMPI DUP5 DUP2 DUP2 MLOAD DUP2 LT PUSH2 0x14A9 JUMPI PUSH2 0x14A9 PUSH2 0x2D6E JUMP JUMPDEST PUSH1 0x20 MUL PUSH1 0x20 ADD ADD MLOAD DUP3 PUSH2 0x14BC SWAP2 SWAP1 PUSH2 0x2C8A JUMP JUMPDEST SWAP2 POP PUSH1 0x1 ADD PUSH2 0x148E JUMP JUMPDEST POP PUSH1 0x0 DUP1 JUMPDEST DUP5 MLOAD DUP2 LT ISZERO PUSH2 0x1503 JUMPI DUP5 DUP2 DUP2 MLOAD DUP2 LT PUSH2 0x14E6 JUMPI PUSH2 0x14E6 PUSH2 0x2D6E JUMP JUMPDEST PUSH1 0x20 MUL PUSH1 0x20 ADD ADD MLOAD DUP3 PUSH2 0x14F9 SWAP2 SWAP1 PUSH2 0x2C8A JUMP JUMPDEST SWAP2 POP PUSH1 0x1 ADD PUSH2 0x14CB JUMP JUMPDEST POP PUSH1 0x0 PUSH2 0x150F DUP10 PUSH2 0x238A JUMP JUMPDEST SWAP1 POP PUSH2 0x151E DUP9 DUP9 DUP6 DUP8 DUP6 PUSH2 0x23D5 JUMP JUMPDEST PUSH2 0x104 SLOAD PUSH32 0x2BB68ACB0B971EFCB22138F6832C4692CD163E34567B71E0F79D012E0563B833 SWAP1 DUP7 SWAP1 DUP9 SWAP1 PUSH2 0x1559 SWAP1 PUSH1 0x1 SWAP1 PUSH3 0xFFFFFF AND PUSH2 0x2D84 JUMP JUMPDEST PUSH2 0x104 SLOAD PUSH2 0x157A SWAP1 PUSH1 0x1 SWAP1 PUSH4 0x1000000 SWAP1 DIV PUSH8 0xFFFFFFFFFFFFFFFF AND PUSH2 0x2DA0 JUMP JUMPDEST PUSH1 0x40 MLOAD PUSH2 0x158A SWAP5 SWAP4 SWAP3 SWAP2 SWAP1 PUSH2 0x2DFD JUMP JUMPDEST PUSH1 0x40 MLOAD DUP1 SWAP2 SUB SWAP1 LOG1 POP POP PUSH2 0x100 DUP1 SLOAD PUSH1 0x1 SWAP1 DUP2 ADD SWAP1 SWAP2 SSTORE PUSH1 0x65 SSTORE POP POP POP POP POP POP POP JUMP JUMPDEST PUSH1 0x97 SLOAD PUSH1 0xFF AND ISZERO PUSH2 0x15D0 JUMPI PUSH1 0x40 MLOAD PUSH3 0x461BCD PUSH1 0xE5 SHL DUP2 MSTORE PUSH1 0x4 ADD PUSH2 0x978 SWAP1 PUSH2 0x2CBF JUMP JUMPDEST DUP1 PUSH1 0x0 SUB PUSH2 0x15F1 JUMPI PUSH1 0x40 MLOAD PUSH4 0x162908E3 PUSH1 0xE1 SHL DUP2 MSTORE PUSH1 0x4 ADD PUSH1 0x40 MLOAD DUP1 SWAP2 SUB SWAP1 REVERT JUMPDEST CALLER PUSH1 0x0 SWAP1 DUP2 MSTORE PUSH1 0x33 PUSH1 0x20 MSTORE PUSH1 0x40 SWAP1 KECCAK256 SLOAD DUP2 GT ISZERO PUSH2 0x1621 JUMPI PUSH1 0x40 MLOAD PUSH4 0x1E9ACF17 PUSH1 0xE3 SHL DUP2 MSTORE PUSH1 0x4 ADD PUSH1 0x40 MLOAD DUP1 SWAP2 SUB SWAP1 REVERT JUMPDEST PUSH1 0x0 DUP5 DUP2 MSTORE PUSH2 0x107 PUSH1 0x20 MSTORE PUSH1 0x40 SWAP1 KECCAK256 PUSH1 0x2 ADD SLOAD PUSH1 0xFF AND ISZERO PUSH2 0x1679 JUMPI PUSH1 0x40 MLOAD PUSH3 0x461BCD PUSH1 0xE5 SHL DUP2 MSTORE PUSH1 0x20 PUSH1 0x4 DUP3 ADD MSTORE PUSH1 0x12 PUSH1 0x24 DUP3 ADD MSTORE PUSH18 0x4A6F6220616C726561647920657869737473 PUSH1 0x70 SHL PUSH1 0x44 DUP3 ADD MSTORE PUSH1 0x64 ADD PUSH2 0x978 JUMP JUMPDEST PUSH2 0x1684 CALLER ADDRESS DUP4 PUSH2 0x1F0A JUMP JUMPDEST PUSH1 0x40 MLOAD DUP1 PUSH1 0x80 ADD PUSH1 0x40 MSTORE DUP1 DUP5 DUP5 DUP1 DUP1 PUSH1 0x20 MUL PUSH1 0x20 ADD PUSH1 0x40 MLOAD SWAP1 DUP2 ADD PUSH1 0x40 MSTORE DUP1 SWAP4 SWAP3 SWAP2 SWAP1 DUP2 DUP2 MSTORE PUSH1 0x20 ADD DUP4 DUP4 PUSH1 0x20 MUL DUP1 DUP3 DUP5 CALLDATACOPY PUSH1 0x0 SWAP3 ADD DUP3 SWAP1 MSTORE POP SWAP4 DUP6 MSTORE POP POP POP PUSH1 0x20 DUP1 DUP4 ADD DUP6 SWAP1 MSTORE PUSH1 0x1 PUSH1 0x40 DUP1 DUP6 ADD SWAP2 SWAP1 SWAP2 MSTORE CALLER PUSH1 0x60 SWAP1 SWAP5 ADD SWAP4 SWAP1 SWAP4 MSTORE DUP8 DUP3 MSTORE PUSH2 0x107 DUP2 MSTORE SWAP2 SWAP1 KECCAK256 DUP3 MLOAD DUP1 MLOAD SWAP2 SWAP3 PUSH2 0x1701 SWAP3 DUP5 SWAP3 SWAP1 SWAP2 ADD SWAP1 PUSH2 0x271E JUMP JUMPDEST POP PUSH1 0x20 DUP3 ADD MLOAD PUSH1 0x1 DUP3 ADD SSTORE PUSH1 0x40 DUP1 DUP4 ADD MLOAD PUSH1 0x2 SWAP1 SWAP3 ADD DUP1 SLOAD PUSH1 0x60 SWAP1 SWAP5 ADD MLOAD PUSH1 0x1 PUSH1 0x1 PUSH1 0xA0 SHL SUB AND PUSH2 0x100 MUL PUSH2 0x100 PUSH1 0x1 PUSH1 0xA8 SHL SUB NOT SWAP4 ISZERO ISZERO SWAP4 SWAP1 SWAP4 AND PUSH1 0x1 PUSH1 0x1 PUSH1 0xA8 SHL SUB NOT SWAP1 SWAP5 AND SWAP4 SWAP1 SWAP4 OR SWAP2 SWAP1 SWAP2 OR SWAP1 SWAP2 SSTORE MLOAD CALLER SWAP1 DUP6 SWAP1 PUSH32 0xC68107C5DB64FB317E66156A992DC164307C3971F013E08AB3ED86CF50C05DE5 SWAP1 PUSH2 0x1788 SWAP1 DUP10 DUP2 MSTORE PUSH1 0x20 ADD SWAP1 JUMP JUMPDEST PUSH1 0x40 MLOAD DUP1 SWAP2 SUB SWAP1 LOG3 POP POP PUSH2 0x103 DUP1 SLOAD PUSH1 0x1 ADD SWAP1 SSTORE POP POP POP JUMP JUMPDEST PUSH1 0xFC SLOAD PUSH1 0x1 PUSH1 0x1 PUSH1 0xA0 SHL SUB AND CALLER EQ PUSH2 0x17CC JUMPI PUSH1 0x40 MLOAD PUSH4 0x5C427CD9 PUSH1 0xE0 SHL DUP2 MSTORE PUSH1 0x4 ADD PUSH1 0x40 MLOAD DUP1 SWAP2 SUB SWAP1 REVERT JUMPDEST PUSH1 0x2 PUSH1 0xFE PUSH1 0x0 DUP3 DUP3 SLOAD PUSH2 0x17DF SWAP2 SWAP1 PUSH2 0x2E49 JUMP JUMPDEST SWAP3 POP POP DUP2 SWAP1 SSTORE POP PUSH1 0x2 PUSH1 0xFF PUSH1 0x0 DUP3 DUP3 SLOAD PUSH2 0x17F9 SWAP2 SWAP1 PUSH2 0x2E49 JUMP JUMPDEST SWAP3 POP POP DUP2 SWAP1 SSTORE POP PUSH1 0x2 PUSH1 0xFD PUSH1 0x0 DUP3 DUP3 SLOAD PUSH2 0x1813 SWAP2 SWAP1 PUSH2 0x2D4C JUMP JUMPDEST SWAP1 SWAP2 SSTORE POP POP PUSH1 0xFB SLOAD PUSH1 0x40 DUP1 MLOAD PUSH4 0x738E7197 PUSH1 0xE1 SHL DUP2 MSTORE SWAP1 MLOAD PUSH1 0x1 PUSH1 0x1 PUSH1 0xA0 SHL SUB SWAP1 SWAP3 AND SWAP2 PUSH4 0xE71CE32E SWAP2 PUSH1 0x4 DUP1 DUP3 ADD SWAP3 PUSH1 0x0 SWAP3 SWAP1 SWAP2 SWAP1 DUP3 SWAP1 SUB ADD DUP2 DUP4 DUP8 DUP1 EXTCODESIZE ISZERO DUP1 ISZERO PUSH2 0x185E JUMPI PUSH1 0x0 DUP1 REVERT JUMPDEST POP GAS CALL ISZERO DUP1 ISZERO PUSH2 0x1872 JUMPI RETURNDATASIZE PUSH1 0x0 DUP1 RETURNDATACOPY RETURNDATASIZE PUSH1 0x0 REVERT JUMPDEST POP POP POP POP JUMP JUMPDEST PUSH1 0x0 SLOAD PUSH2 0x100 SWAP1 DIV PUSH1 0xFF AND PUSH2 0x1893 JUMPI PUSH1 0x0 SLOAD PUSH1 0xFF AND ISZERO PUSH2 0x1897 JUMP JUMPDEST ADDRESS EXTCODESIZE ISZERO JUMPDEST PUSH2 0x18FA JUMPI PUSH1 0x40 MLOAD PUSH3 0x461BCD PUSH1 0xE5 SHL DUP2 MSTORE PUSH1 0x20 PUSH1 0x4 DUP3 ADD MSTORE PUSH1 0x2E PUSH1 0x24 DUP3 ADD MSTORE PUSH32 0x496E697469616C697A61626C653A20636F6E747261637420697320616C726561 PUSH1 0x44 DUP3 ADD MSTORE PUSH14 0x191E481A5B9A5D1A585B1A5E9959 PUSH1 0x92 SHL PUSH1 0x64 DUP3 ADD MSTORE PUSH1 0x84 ADD PUSH2 0x978 JUMP JUMPDEST PUSH1 0x0 SLOAD PUSH2 0x100 SWAP1 DIV PUSH1 0xFF AND ISZERO DUP1 ISZERO PUSH2 0x191C JUMPI PUSH1 0x0 DUP1 SLOAD PUSH2 0xFFFF NOT AND PUSH2 0x101 OR SWAP1 SSTORE JUMPDEST PUSH2 0x1963 PUSH1 0x40 MLOAD DUP1 PUSH1 0x40 ADD PUSH1 0x40 MSTORE DUP1 PUSH1 0xA DUP2 MSTORE PUSH1 0x20 ADD PUSH10 0x536D6172746E6F646573 PUSH1 0xB0 SHL DUP2 MSTORE POP PUSH1 0x40 MLOAD DUP1 PUSH1 0x40 ADD PUSH1 0x40 MSTORE DUP1 PUSH1 0x3 DUP2 MSTORE PUSH1 0x20 ADD PUSH3 0x534E4F PUSH1 0xE8 SHL DUP2 MSTORE POP PUSH2 0x256C JUMP JUMPDEST PUSH2 0x196B PUSH2 0x259D JUMP JUMPDEST PUSH2 0x1973 PUSH2 0x25CC JUMP JUMPDEST PUSH2 0x197B PUSH2 0x25FB JUMP JUMPDEST PUSH1 0xFC DUP1 SLOAD PUSH1 0x1 PUSH1 0x1 PUSH1 0xA0 SHL SUB NOT AND CALLER OR SWAP1 SSTORE PUSH9 0x6F05B59D3B20000000 PUSH1 0xFF SSTORE PUSH10 0x69E10DE76676D0800000 PUSH2 0x105 SSTORE PUSH2 0x2226 PUSH1 0xFD SSTORE PUSH9 0x3782DACE9D9000000 PUSH1 0xFE SSTORE PUSH1 0x1 PUSH2 0x103 DUP2 SWAP1 SSTORE PUSH2 0x104 DUP1 SLOAD PUSH4 0x1000001 PUSH11 0xFFFFFFFFFFFFFFFFFFFFFF NOT SWAP1 SWAP2 AND OR SWAP1 SSTORE PUSH2 0x106 SSTORE PUSH1 0x0 JUMPDEST DUP3 MLOAD DUP2 LT ISZERO PUSH2 0x1A72 JUMPI PUSH1 0x0 PUSH1 0x1 PUSH1 0x1 PUSH1 0xA0 SHL SUB AND DUP4 DUP3 DUP2 MLOAD DUP2 LT PUSH2 0x1A0E JUMPI PUSH2 0x1A0E PUSH2 0x2D6E JUMP JUMPDEST PUSH1 0x20 MUL PUSH1 0x20 ADD ADD MLOAD PUSH1 0x1 PUSH1 0x1 PUSH1 0xA0 SHL SUB AND SUB PUSH2 0x1A3D JUMPI PUSH1 0x40 MLOAD PUSH4 0xD92E233D PUSH1 0xE0 SHL DUP2 MSTORE PUSH1 0x4 ADD PUSH1 0x40 MLOAD DUP1 SWAP2 SUB SWAP1 REVERT JUMPDEST PUSH2 0x1A6A DUP4 DUP3 DUP2 MLOAD DUP2 LT PUSH2 0x1A52 JUMPI PUSH2 0x1A52 PUSH2 0x2D6E JUMP JUMPDEST PUSH1 0x20 MUL PUSH1 0x20 ADD ADD MLOAD PUSH10 0x69E10DE76676D0800000 PUSH2 0x20D8 JUMP JUMPDEST PUSH1 0x1 ADD PUSH2 0x19E8 JUMP JUMPDEST POP DUP1 ISZERO PUSH2 0x1A85 JUMPI PUSH1 0x0 DUP1 SLOAD PUSH2 0xFF00 NOT AND SWAP1 SSTORE JUMPDEST POP POP JUMP JUMPDEST CALLER PUSH1 0x0 DUP2 DUP2 MSTORE PUSH1 0x34 PUSH1 0x20 SWAP1 DUP2 MSTORE PUSH1 0x40 DUP1 DUP4 KECCAK256 PUSH1 0x1 PUSH1 0x1 PUSH1 0xA0 SHL SUB DUP8 AND DUP5 MSTORE SWAP1 SWAP2 MSTORE DUP2 KECCAK256 SLOAD SWAP1 SWAP2 SWAP1 DUP4 DUP2 LT ISZERO PUSH2 0x1B0E JUMPI PUSH1 0x40 MLOAD PUSH3 0x461BCD PUSH1 0xE5 SHL DUP2 MSTORE PUSH1 0x20 PUSH1 0x4 DUP3 ADD MSTORE PUSH1 0x25 PUSH1 0x24 DUP3 ADD MSTORE PUSH32 0x45524332303A2064656372656173656420616C6C6F77616E63652062656C6F77 PUSH1 0x44 DUP3 ADD MSTORE PUSH5 0x207A65726F PUSH1 0xD8 SHL PUSH1 0x64 DUP3 ADD MSTORE PUSH1 0x84 ADD PUSH2 0x978 JUMP JUMPDEST PUSH2 0x94B DUP3 DUP7 DUP7 DUP5 SUB PUSH2 0x1D5A JUMP JUMPDEST PUSH1 0x0 CALLER PUSH2 0x926 DUP2 DUP6 DUP6 PUSH2 0x1F0A JUMP JUMPDEST PUSH1 0xFC SLOAD PUSH1 0x1 PUSH1 0x1 PUSH1 0xA0 SHL SUB AND CALLER EQ PUSH2 0x1B54 JUMPI PUSH1 0x40 MLOAD PUSH4 0x5C427CD9 PUSH1 0xE0 SHL DUP2 MSTORE PUSH1 0x4 ADD PUSH1 0x40 MLOAD DUP1 SWAP2 SUB SWAP1 REVERT JUMPDEST PUSH2 0x105 SSTORE JUMP JUMPDEST PUSH1 0xFB SLOAD PUSH1 0x1 PUSH1 0x1 PUSH1 0xA0 SHL SUB AND ISZERO PUSH2 0x1BB3 JUMPI PUSH1 0x40 MLOAD PUSH3 0x461BCD PUSH1 0xE5 SHL DUP2 MSTORE PUSH1 0x20 PUSH1 0x4 DUP3 ADD MSTORE PUSH1 0x1E PUSH1 0x24 DUP3 ADD MSTORE PUSH32 0x56616C696461746F72206164647265737320616C7265616479207365742E0000 PUSH1 0x44 DUP3 ADD MSTORE PUSH1 0x64 ADD PUSH2 0x978 JUMP JUMPDEST PUSH1 0xFB DUP1 SLOAD PUSH1 0x1 PUSH1 0x1 PUSH1 0xA0 SHL SUB NOT AND PUSH1 0x1 PUSH1 0x1 PUSH1 0xA0 SHL SUB SWAP3 SWAP1 SWAP3 AND SWAP2 SWAP1 SWAP2 OR SWAP1 SSTORE JUMP JUMPDEST PUSH1 0xFC SLOAD PUSH1 0x1 PUSH1 0x1 PUSH1 0xA0 SHL SUB AND CALLER EQ PUSH2 0x1C00 JUMPI PUSH1 0x40 MLOAD PUSH4 0x5C427CD9 PUSH1 0xE0 SHL DUP2 MSTORE PUSH1 0x4 ADD PUSH1 0x40 MLOAD DUP1 SWAP2 SUB SWAP1 REVERT JUMPDEST PUSH1 0x2 PUSH1 0xFE PUSH1 0x0 DUP3 DUP3 SLOAD PUSH2 0x1C13 SWAP2 SWAP1 PUSH2 0x2D4C JUMP JUMPDEST SWAP3 POP POP DUP2 SWAP1 SSTORE POP PUSH1 0x2 PUSH1 0xFF PUSH1 0x0 DUP3 DUP3 SLOAD PUSH2 0x1C2D SWAP2 SWAP1 PUSH2 0x2D4C JUMP JUMPDEST SWAP3 POP POP DUP2 SWAP1 SSTORE POP PUSH1 0x2 PUSH1 0xFD PUSH1 0x0 DUP3 DUP3 SLOAD PUSH2 0x1C47 SWAP2 SWAP1 PUSH2 0x2E49 JUMP JUMPDEST SWAP1 SWAP2 SSTORE POP POP PUSH1 0xFB SLOAD PUSH1 0x40 DUP1 MLOAD PUSH4 0x762193B9 PUSH1 0xE1 SHL DUP2 MSTORE SWAP1 MLOAD PUSH1 0x1 PUSH1 0x1 PUSH1 0xA0 SHL SUB SWAP1 SWAP3 AND SWAP2 PUSH4 0xEC432772 SWAP2 PUSH1 0x4 DUP1 DUP3 ADD SWAP3 PUSH1 0x0 SWAP3 SWAP1 SWAP2 SWAP1 DUP3 SWAP1 SUB ADD DUP2 DUP4 DUP8 DUP1 EXTCODESIZE ISZERO DUP1 ISZERO PUSH2 0x185E JUMPI PUSH1 0x0 DUP1 REVERT JUMPDEST PUSH1 0xC9 SLOAD PUSH1 0x1 PUSH1 0x1 PUSH1 0xA0 SHL SUB AND CALLER EQ PUSH2 0x1CEC JUMPI PUSH1 0x40 MLOAD PUSH3 0x461BCD PUSH1 0xE5 SHL DUP2 MSTORE PUSH1 0x20 PUSH1 0x4 DUP3 ADD DUP2 SWAP1 MSTORE PUSH1 0x24 DUP3 ADD MSTORE PUSH32 0x4F776E61626C653A2063616C6C6572206973206E6F7420746865206F776E6572 PUSH1 0x44 DUP3 ADD MSTORE PUSH1 0x64 ADD PUSH2 0x978 JUMP JUMPDEST PUSH1 0x1 PUSH1 0x1 PUSH1 0xA0 SHL SUB DUP2 AND PUSH2 0x1D51 JUMPI PUSH1 0x40 MLOAD PUSH3 0x461BCD PUSH1 0xE5 SHL DUP2 MSTORE PUSH1 0x20 PUSH1 0x4 DUP3 ADD MSTORE PUSH1 0x26 PUSH1 0x24 DUP3 ADD MSTORE PUSH32 0x4F776E61626C653A206E6577206F776E657220697320746865207A65726F2061 PUSH1 0x44 DUP3 ADD MSTORE PUSH6 0x646472657373 PUSH1 0xD0 SHL PUSH1 0x64 DUP3 ADD MSTORE PUSH1 0x84 ADD PUSH2 0x978 JUMP JUMPDEST PUSH2 0xE13 DUP2 PUSH2 0x2338 JUMP JUMPDEST PUSH1 0x1 PUSH1 0x1 PUSH1 0xA0 SHL SUB DUP4 AND PUSH2 0x1DBC JUMPI PUSH1 0x40 MLOAD PUSH3 0x461BCD PUSH1 0xE5 SHL DUP2 MSTORE PUSH1 0x20 PUSH1 0x4 DUP3 ADD MSTORE PUSH1 0x24 DUP1 DUP3 ADD MSTORE PUSH32 0x45524332303A20617070726F76652066726F6D20746865207A65726F20616464 PUSH1 0x44 DUP3 ADD MSTORE PUSH4 0x72657373 PUSH1 0xE0 SHL PUSH1 0x64 DUP3 ADD MSTORE PUSH1 0x84 ADD PUSH2 0x978 JUMP JUMPDEST PUSH1 0x1 PUSH1 0x1 PUSH1 0xA0 SHL SUB DUP3 AND PUSH2 0x1E1D JUMPI PUSH1 0x40 MLOAD PUSH3 0x461BCD PUSH1 0xE5 SHL DUP2 MSTORE PUSH1 0x20 PUSH1 0x4 DUP3 ADD MSTORE PUSH1 0x22 PUSH1 0x24 DUP3 ADD MSTORE PUSH32 0x45524332303A20617070726F766520746F20746865207A65726F206164647265 PUSH1 0x44 DUP3 ADD MSTORE PUSH2 0x7373 PUSH1 0xF0 SHL PUSH1 0x64 DUP3 ADD MSTORE PUSH1 0x84 ADD PUSH2 0x978 JUMP JUMPDEST PUSH1 0x1 PUSH1 0x1 PUSH1 0xA0 SHL SUB DUP4 DUP2 AND PUSH1 0x0 DUP2 DUP2 MSTORE PUSH1 0x34 PUSH1 0x20 SWAP1 DUP2 MSTORE PUSH1 0x40 DUP1 DUP4 KECCAK256 SWAP5 DUP8 AND DUP1 DUP5 MSTORE SWAP5 DUP3 MSTORE SWAP2 DUP3 SWAP1 KECCAK256 DUP6 SWAP1 SSTORE SWAP1 MLOAD DUP5 DUP2 MSTORE PUSH32 0x8C5BE1E5EBEC7D5BD14F71427D1E84F3DD0314C0F7B2291E5B200AC8C7C3B925 SWAP2 ADD PUSH1 0x40 MLOAD DUP1 SWAP2 SUB SWAP1 LOG3 POP POP POP JUMP JUMPDEST PUSH1 0x1 PUSH1 0x1 PUSH1 0xA0 SHL SUB DUP4 DUP2 AND PUSH1 0x0 SWAP1 DUP2 MSTORE PUSH1 0x34 PUSH1 0x20 SWAP1 DUP2 MSTORE PUSH1 0x40 DUP1 DUP4 KECCAK256 SWAP4 DUP7 AND DUP4 MSTORE SWAP3 SWAP1 MSTORE KECCAK256 SLOAD PUSH1 0x0 NOT DUP2 EQ PUSH2 0x1872 JUMPI DUP2 DUP2 LT ISZERO PUSH2 0x1EFD JUMPI PUSH1 0x40 MLOAD PUSH3 0x461BCD PUSH1 0xE5 SHL DUP2 MSTORE PUSH1 0x20 PUSH1 0x4 DUP3 ADD MSTORE PUSH1 0x1D PUSH1 0x24 DUP3 ADD MSTORE PUSH32 0x45524332303A20696E73756666696369656E7420616C6C6F77616E6365000000 PUSH1 0x44 DUP3 ADD MSTORE PUSH1 0x64 ADD PUSH2 0x978 JUMP JUMPDEST PUSH2 0x1872 DUP5 DUP5 DUP5 DUP5 SUB PUSH2 0x1D5A JUMP JUMPDEST PUSH1 0x1 PUSH1 0x1 PUSH1 0xA0 SHL SUB DUP4 AND PUSH2 0x1F6E JUMPI PUSH1 0x40 MLOAD PUSH3 0x461BCD PUSH1 0xE5 SHL DUP2 MSTORE PUSH1 0x20 PUSH1 0x4 DUP3 ADD MSTORE PUSH1 0x25 PUSH1 0x24 DUP3 ADD MSTORE PUSH32 0x45524332303A207472616E736665722066726F6D20746865207A65726F206164 PUSH1 0x44 DUP3 ADD MSTORE PUSH5 0x6472657373 PUSH1 0xD8 SHL PUSH1 0x64 DUP3 ADD MSTORE PUSH1 0x84 ADD PUSH2 0x978 JUMP JUMPDEST PUSH1 0x1 PUSH1 0x1 PUSH1 0xA0 SHL SUB DUP3 AND PUSH2 0x1FD0 JUMPI PUSH1 0x40 MLOAD PUSH3 0x461BCD PUSH1 0xE5 SHL DUP2 MSTORE PUSH1 0x20 PUSH1 0x4 DUP3 ADD MSTORE PUSH1 0x23 PUSH1 0x24 DUP3 ADD MSTORE PUSH32 0x45524332303A207472616E7366657220746F20746865207A65726F2061646472 PUSH1 0x44 DUP3 ADD MSTORE PUSH3 0x657373 PUSH1 0xE8 SHL PUSH1 0x64 DUP3 ADD MSTORE PUSH1 0x84 ADD PUSH2 0x978 JUMP JUMPDEST PUSH1 0x1 PUSH1 0x1 PUSH1 0xA0 SHL SUB DUP4 AND PUSH1 0x0 SWAP1 DUP2 MSTORE PUSH1 0x33 PUSH1 0x20 MSTORE PUSH1 0x40 SWAP1 KECCAK256 SLOAD DUP2 DUP2 LT ISZERO PUSH2 0x2048 JUMPI PUSH1 0x40 MLOAD PUSH3 0x461BCD PUSH1 0xE5 SHL DUP2 MSTORE PUSH1 0x20 PUSH1 0x4 DUP3 ADD MSTORE PUSH1 0x26 PUSH1 0x24 DUP3 ADD MSTORE PUSH32 0x45524332303A207472616E7366657220616D6F756E7420657863656564732062 PUSH1 0x44 DUP3 ADD MSTORE PUSH6 0x616C616E6365 PUSH1 0xD0 SHL PUSH1 0x64 DUP3 ADD MSTORE PUSH1 0x84 ADD PUSH2 0x978 JUMP JUMPDEST PUSH1 0x1 PUSH1 0x1 PUSH1 0xA0 SHL SUB DUP1 DUP6 AND PUSH1 0x0 SWAP1 DUP2 MSTORE PUSH1 0x33 PUSH1 0x20 MSTORE PUSH1 0x40 DUP1 DUP3 KECCAK256 DUP6 DUP6 SUB SWAP1 SSTORE SWAP2 DUP6 AND DUP2 MSTORE SWAP1 DUP2 KECCAK256 DUP1 SLOAD DUP5 SWAP3 SWAP1 PUSH2 0x207F SWAP1 DUP5 SWAP1 PUSH2 0x2C8A JUMP JUMPDEST SWAP3 POP POP DUP2 SWAP1 SSTORE POP DUP3 PUSH1 0x1 PUSH1 0x1 PUSH1 0xA0 SHL SUB AND DUP5 PUSH1 0x1 PUSH1 0x1 PUSH1 0xA0 SHL SUB AND PUSH32 0xDDF252AD1BE2C89B69C2B068FC378DAA952BA7F163C4A11628F55A4DF523B3EF DUP5 PUSH1 0x40 MLOAD PUSH2 0x20CB SWAP2 DUP2 MSTORE PUSH1 0x20 ADD SWAP1 JUMP JUMPDEST PUSH1 0x40 MLOAD DUP1 SWAP2 SUB SWAP1 LOG3 PUSH2 0x1872 JUMP JUMPDEST PUSH1 0x1 PUSH1 0x1 PUSH1 0xA0 SHL SUB DUP3 AND PUSH2 0x212E JUMPI PUSH1 0x40 MLOAD PUSH3 0x461BCD PUSH1 0xE5 SHL DUP2 MSTORE PUSH1 0x20 PUSH1 0x4 DUP3 ADD MSTORE PUSH1 0x1F PUSH1 0x24 DUP3 ADD MSTORE PUSH32 0x45524332303A206D696E7420746F20746865207A65726F206164647265737300 PUSH1 0x44 DUP3 ADD MSTORE PUSH1 0x64 ADD PUSH2 0x978 JUMP JUMPDEST DUP1 PUSH1 0x35 PUSH1 0x0 DUP3 DUP3 SLOAD PUSH2 0x2140 SWAP2 SWAP1 PUSH2 0x2C8A JUMP JUMPDEST SWAP1 SWAP2 SSTORE POP POP PUSH1 0x1 PUSH1 0x1 PUSH1 0xA0 SHL SUB DUP3 AND PUSH1 0x0 SWAP1 DUP2 MSTORE PUSH1 0x33 PUSH1 0x20 MSTORE PUSH1 0x40 DUP2 KECCAK256 DUP1 SLOAD DUP4 SWAP3 SWAP1 PUSH2 0x216D SWAP1 DUP5 SWAP1 PUSH2 0x2C8A JUMP JUMPDEST SWAP1 SWAP2 SSTORE POP POP PUSH1 0x40 MLOAD DUP2 DUP2 MSTORE PUSH1 0x1 PUSH1 0x1 PUSH1 0xA0 SHL SUB DUP4 AND SWAP1 PUSH1 0x0 SWAP1 PUSH32 0xDDF252AD1BE2C89B69C2B068FC378DAA952BA7F163C4A11628F55A4DF523B3EF SWAP1 PUSH1 0x20 ADD PUSH1 0x40 MLOAD DUP1 SWAP2 SUB SWAP1 LOG3 POP POP JUMP JUMPDEST PUSH1 0x0 DUP2 GT PUSH2 0x21D7 JUMPI PUSH1 0x40 MLOAD PUSH3 0x461BCD PUSH1 0xE5 SHL DUP2 MSTORE PUSH1 0x4 ADD PUSH2 0x978 SWAP1 PUSH2 0x2CE9 JUMP JUMPDEST DUP1 PUSH2 0x21F7 DUP4 PUSH1 0x1 PUSH1 0x1 PUSH1 0xA0 SHL SUB AND PUSH1 0x0 SWAP1 DUP2 MSTORE PUSH1 0x33 PUSH1 0x20 MSTORE PUSH1 0x40 SWAP1 KECCAK256 SLOAD SWAP1 JUMP JUMPDEST LT ISZERO PUSH2 0x223D JUMPI PUSH1 0x40 MLOAD PUSH3 0x461BCD PUSH1 0xE5 SHL DUP2 MSTORE PUSH1 0x20 PUSH1 0x4 DUP3 ADD MSTORE PUSH1 0x15 PUSH1 0x24 DUP3 ADD MSTORE PUSH21 0x24B739BAB33334B1B4B2B73A103130B630B731B297 PUSH1 0x59 SHL PUSH1 0x44 DUP3 ADD MSTORE PUSH1 0x64 ADD PUSH2 0x978 JUMP JUMPDEST PUSH1 0x1 PUSH1 0x1 PUSH1 0xA0 SHL SUB DUP3 AND PUSH1 0x0 SWAP1 DUP2 MSTORE PUSH2 0x108 PUSH1 0x20 MSTORE PUSH1 0x40 SWAP1 KECCAK256 PUSH1 0x2 ADD SLOAD PUSH2 0x22A2 JUMPI PUSH1 0x40 MLOAD PUSH3 0x461BCD PUSH1 0xE5 SHL DUP2 MSTORE PUSH1 0x20 PUSH1 0x4 DUP3 ADD MSTORE PUSH1 0x19 PUSH1 0x24 DUP3 ADD MSTORE PUSH25 0x2B30B634B230BA37B9103237B2B9903737BA1032BC34B9BA17 PUSH1 0x39 SHL PUSH1 0x44 DUP3 ADD MSTORE PUSH1 0x64 ADD PUSH2 0x978 JUMP JUMPDEST PUSH2 0x22AD DUP3 ADDRESS DUP4 PUSH2 0x932 JUMP JUMPDEST POP PUSH1 0x1 PUSH1 0x1 PUSH1 0xA0 SHL SUB DUP3 AND PUSH1 0x0 SWAP1 DUP2 MSTORE PUSH2 0x108 PUSH1 0x20 MSTORE PUSH1 0x40 DUP2 KECCAK256 DUP1 SLOAD DUP4 SWAP3 SWAP1 PUSH2 0x22D7 SWAP1 DUP5 SWAP1 PUSH2 0x2C8A JUMP JUMPDEST SWAP3 POP POP DUP2 SWAP1 SSTORE POP DUP1 PUSH2 0x101 PUSH1 0x0 DUP3 DUP3 SLOAD PUSH2 0x22F1 SWAP2 SWAP1 PUSH2 0x2C8A JUMP JUMPDEST SWAP1 SWAP2 SSTORE POP POP PUSH1 0x40 MLOAD DUP2 DUP2 MSTORE PUSH1 0x1 PUSH1 0x1 PUSH1 0xA0 SHL SUB DUP4 AND SWAP1 PUSH32 0xAC87F20A77D28EE8BBB58EC87EA8FA968B3393EFAE1A368FD50B767C2847391C SWAP1 PUSH1 0x20 ADD PUSH1 0x40 MLOAD DUP1 SWAP2 SUB SWAP1 LOG2 POP POP JUMP JUMPDEST PUSH1 0xC9 DUP1 SLOAD PUSH1 0x1 PUSH1 0x1 PUSH1 0xA0 SHL SUB DUP4 DUP2 AND PUSH1 0x1 PUSH1 0x1 PUSH1 0xA0 SHL SUB NOT DUP4 AND DUP2 OR SWAP1 SWAP4 SSTORE PUSH1 0x40 MLOAD SWAP2 AND SWAP2 SWAP1 DUP3 SWAP1 PUSH32 0x8BE0079C531659141344CD1FD0A4F28419497F9722A3DAAFE3B4186F6B6457E0 SWAP1 PUSH1 0x0 SWAP1 LOG3 POP POP JUMP JUMPDEST PUSH1 0x0 DUP1 DUP1 JUMPDEST DUP4 MLOAD DUP2 LT ISZERO PUSH2 0x23CE JUMPI PUSH2 0x23BA DUP5 DUP3 DUP2 MLOAD DUP2 LT PUSH2 0x23AD JUMPI PUSH2 0x23AD PUSH2 0x2D6E JUMP JUMPDEST PUSH1 0x20 MUL PUSH1 0x20 ADD ADD MLOAD PUSH2 0x11E5 JUMP JUMPDEST PUSH2 0x23C4 SWAP1 DUP4 PUSH2 0x2C8A JUMP JUMPDEST SWAP2 POP PUSH1 0x1 ADD PUSH2 0x238F JUMP JUMPDEST POP SWAP3 SWAP2 POP POP JUMP JUMPDEST PUSH1 0x0 DUP2 PUSH1 0xFF SLOAD PUSH2 0x23E5 SWAP2 SWAP1 PUSH2 0x2C8A JUMP JUMPDEST SWAP1 POP PUSH1 0x0 DUP1 DUP8 MLOAD PUSH1 0x0 SUB PUSH2 0x23FB JUMPI DUP3 SWAP2 POP PUSH2 0x2421 JUMP JUMPDEST PUSH1 0x64 PUSH2 0x2408 PUSH1 0x14 DUP6 PUSH2 0x2E49 JUMP JUMPDEST PUSH2 0x2412 SWAP2 SWAP1 PUSH2 0x2D4C JUMP JUMPDEST SWAP2 POP PUSH2 0x241E DUP3 DUP5 PUSH2 0x2C5E JUMP JUMPDEST SWAP1 POP JUMPDEST DUP3 PUSH2 0x102 PUSH1 0x0 DUP3 DUP3 SLOAD PUSH2 0x2434 SWAP2 SWAP1 PUSH2 0x2C8A JUMP JUMPDEST SWAP1 SWAP2 SSTORE POP POP DUP5 MLOAD ISZERO PUSH2 0x24BC JUMPI PUSH1 0x0 DUP6 MLOAD DUP4 PUSH2 0x244F SWAP2 SWAP1 PUSH2 0x2D4C JUMP JUMPDEST SWAP1 POP PUSH1 0x0 JUMPDEST DUP7 MLOAD DUP2 LT ISZERO PUSH2 0x24B9 JUMPI DUP2 PUSH2 0x109 PUSH1 0x0 DUP10 DUP5 DUP2 MLOAD DUP2 LT PUSH2 0x2475 JUMPI PUSH2 0x2475 PUSH2 0x2D6E JUMP JUMPDEST PUSH1 0x20 MUL PUSH1 0x20 ADD ADD MLOAD PUSH1 0x1 PUSH1 0x1 PUSH1 0xA0 SHL SUB AND PUSH1 0x1 PUSH1 0x1 PUSH1 0xA0 SHL SUB AND DUP2 MSTORE PUSH1 0x20 ADD SWAP1 DUP2 MSTORE PUSH1 0x20 ADD PUSH1 0x0 KECCAK256 PUSH1 0x0 DUP3 DUP3 SLOAD PUSH2 0x24AC SWAP2 SWAP1 PUSH2 0x2C8A JUMP JUMPDEST SWAP1 SWAP2 SSTORE POP POP PUSH1 0x1 ADD PUSH2 0x2454 JUMP JUMPDEST POP POP JUMPDEST DUP8 MLOAD ISZERO PUSH2 0x2562 JUMPI PUSH1 0x0 JUMPDEST DUP9 MLOAD DUP2 LT ISZERO PUSH2 0x2560 JUMPI PUSH1 0x0 DUP8 DUP4 DUP11 DUP5 DUP2 MLOAD DUP2 LT PUSH2 0x24E5 JUMPI PUSH2 0x24E5 PUSH2 0x2D6E JUMP JUMPDEST PUSH1 0x20 MUL PUSH1 0x20 ADD ADD MLOAD PUSH2 0x24F7 SWAP2 SWAP1 PUSH2 0x2E49 JUMP JUMPDEST PUSH2 0x2501 SWAP2 SWAP1 PUSH2 0x2D4C JUMP JUMPDEST SWAP1 POP DUP1 PUSH2 0x109 PUSH1 0x0 DUP13 DUP6 DUP2 MLOAD DUP2 LT PUSH2 0x251B JUMPI PUSH2 0x251B PUSH2 0x2D6E JUMP JUMPDEST PUSH1 0x20 MUL PUSH1 0x20 ADD ADD MLOAD PUSH1 0x1 PUSH1 0x1 PUSH1 0xA0 SHL SUB AND PUSH1 0x1 PUSH1 0x1 PUSH1 0xA0 SHL SUB AND DUP2 MSTORE PUSH1 0x20 ADD SWAP1 DUP2 MSTORE PUSH1 0x20 ADD PUSH1 0x0 KECCAK256 PUSH1 0x0 DUP3 DUP3 SLOAD PUSH2 0x2552 SWAP2 SWAP1 PUSH2 0x2C8A JUMP JUMPDEST SWAP1 SWAP2 SSTORE POP POP POP PUSH1 0x1 ADD PUSH2 0x24C6 JUMP JUMPDEST POP JUMPDEST POP POP POP POP POP POP POP POP JUMP JUMPDEST PUSH1 0x0 SLOAD PUSH2 0x100 SWAP1 DIV PUSH1 0xFF AND PUSH2 0x2593 JUMPI PUSH1 0x40 MLOAD PUSH3 0x461BCD PUSH1 0xE5 SHL DUP2 MSTORE PUSH1 0x4 ADD PUSH2 0x978 SWAP1 PUSH2 0x2E60 JUMP JUMPDEST PUSH2 0x1A85 DUP3 DUP3 PUSH2 0x262F JUMP JUMPDEST PUSH1 0x0 SLOAD PUSH2 0x100 SWAP1 DIV PUSH1 0xFF AND PUSH2 0x25C4 JUMPI PUSH1 0x40 MLOAD PUSH3 0x461BCD PUSH1 0xE5 SHL DUP2 MSTORE PUSH1 0x4 ADD PUSH2 0x978 SWAP1 PUSH2 0x2E60 JUMP JUMPDEST PUSH2 0xE7A PUSH2 0x266F JUMP JUMPDEST PUSH1 0x0 SLOAD PUSH2 0x100 SWAP1 DIV PUSH1 0xFF AND PUSH2 0x25F3 JUMPI PUSH1 0x40 MLOAD PUSH3 0x461BCD PUSH1 0xE5 SHL DUP2 MSTORE PUSH1 0x4 ADD PUSH2 0x978 SWAP1 PUSH2 0x2E60 JUMP JUMPDEST PUSH2 0xE7A PUSH2 0x269D JUMP JUMPDEST PUSH1 0x0 SLOAD PUSH2 0x100 SWAP1 DIV PUSH1 0xFF AND PUSH2 0x2622 JUMPI PUSH1 0x40 MLOAD PUSH3 0x461BCD PUSH1 0xE5 SHL DUP2 MSTORE PUSH1 0x4 ADD PUSH2 0x978 SWAP1 PUSH2 0x2E60 JUMP JUMPDEST PUSH2 0xE7A PUSH2 0x26D0 JUMP JUMPDEST POP POP POP JUMP JUMPDEST PUSH1 0x0 SLOAD PUSH2 0x100 SWAP1 DIV PUSH1 0xFF AND PUSH2 0x2656 JUMPI PUSH1 0x40 MLOAD PUSH3 0x461BCD PUSH1 0xE5 SHL DUP2 MSTORE PUSH1 0x4 ADD PUSH2 0x978 SWAP1 PUSH2 0x2E60 JUMP JUMPDEST PUSH1 0x36 PUSH2 0x2662 DUP4 DUP3 PUSH2 0x2EFB JUMP JUMPDEST POP PUSH1 0x37 PUSH2 0x262A DUP3 DUP3 PUSH2 0x2EFB JUMP JUMPDEST PUSH1 0x0 SLOAD PUSH2 0x100 SWAP1 DIV PUSH1 0xFF AND PUSH2 0x2696 JUMPI PUSH1 0x40 MLOAD PUSH3 0x461BCD PUSH1 0xE5 SHL DUP2 MSTORE PUSH1 0x4 ADD PUSH2 0x978 SWAP1 PUSH2 0x2E60 JUMP JUMPDEST PUSH1 0x1 PUSH1 0x65 SSTORE JUMP JUMPDEST PUSH1 0x0 SLOAD PUSH2 0x100 SWAP1 DIV PUSH1 0xFF AND PUSH2 0x26C4 JUMPI PUSH1 0x40 MLOAD PUSH3 0x461BCD PUSH1 0xE5 SHL DUP2 MSTORE PUSH1 0x4 ADD PUSH2 0x978 SWAP1 PUSH2 0x2E60 JUMP JUMPDEST PUSH1 0x97 DUP1 SLOAD PUSH1 0xFF NOT AND SWAP1 SSTORE JUMP JUMPDEST PUSH1 0x0 SLOAD PUSH2 0x100 SWAP1 DIV PUSH1 0xFF AND PUSH2 0x26F7 JUMPI PUSH1 0x40 MLOAD PUSH3 0x461BCD PUSH1 0xE5 SHL DUP2 MSTORE PUSH1 0x4 ADD PUSH2 0x978 SWAP1 PUSH2 0x2E60 JUMP JUMPDEST PUSH2 0xE7A CALLER PUSH2 0x2338 JUMP JUMPDEST POP DUP1 SLOAD PUSH1 0x0 DUP3 SSTORE SWAP1 PUSH1 0x0 MSTORE PUSH1 0x20 PUSH1 0x0 KECCAK256 SWAP1 DUP2 ADD SWAP1 PUSH2 0xE13 SWAP2 SWAP1 PUSH2 0x2769 JUMP JUMPDEST DUP3 DUP1 SLOAD DUP3 DUP3 SSTORE SWAP1 PUSH1 0x0 MSTORE PUSH1 0x20 PUSH1 0x0 KECCAK256 SWAP1 DUP2 ADD SWAP3 DUP3 ISZERO PUSH2 0x2759 JUMPI SWAP2 PUSH1 0x20 MUL DUP3 ADD JUMPDEST DUP3 DUP2 GT ISZERO PUSH2 0x2759 JUMPI DUP3 MLOAD DUP3 SSTORE SWAP2 PUSH1 0x20 ADD SWAP2 SWAP1 PUSH1 0x1 ADD SWAP1 PUSH2 0x273E JUMP JUMPDEST POP PUSH2 0x2765 SWAP3 SWAP2 POP PUSH2 0x2769 JUMP JUMPDEST POP SWAP1 JUMP JUMPDEST JUMPDEST DUP1 DUP3 GT ISZERO PUSH2 0x2765 JUMPI PUSH1 0x0 DUP2 SSTORE PUSH1 0x1 ADD PUSH2 0x276A JUMP JUMPDEST PUSH1 0x0 PUSH1 0x20 DUP1 DUP4 MSTORE DUP4 MLOAD DUP1 PUSH1 0x20 DUP6 ADD MSTORE PUSH1 0x0 JUMPDEST DUP2 DUP2 LT ISZERO PUSH2 0x27AC JUMPI DUP6 DUP2 ADD DUP4 ADD MLOAD DUP6 DUP3 ADD PUSH1 0x40 ADD MSTORE DUP3 ADD PUSH2 0x2790 JUMP JUMPDEST POP PUSH1 0x0 PUSH1 0x40 DUP3 DUP7 ADD ADD MSTORE PUSH1 0x40 PUSH1 0x1F NOT PUSH1 0x1F DUP4 ADD AND DUP6 ADD ADD SWAP3 POP POP POP SWAP3 SWAP2 POP POP JUMP JUMPDEST DUP1 CALLDATALOAD PUSH1 0x1 PUSH1 0x1 PUSH1 0xA0 SHL SUB DUP2 AND DUP2 EQ PUSH2 0x135E JUMPI PUSH1 0x0 DUP1 REVERT JUMPDEST PUSH1 0x0 DUP1 PUSH1 0x40 DUP4 DUP6 SUB SLT ISZERO PUSH2 0x27F7 JUMPI PUSH1 0x0 DUP1 REVERT JUMPDEST PUSH2 0x2800 DUP4 PUSH2 0x27CD JUMP JUMPDEST SWAP5 PUSH1 0x20 SWAP4 SWAP1 SWAP4 ADD CALLDATALOAD SWAP4 POP POP POP JUMP JUMPDEST PUSH1 0x0 DUP1 PUSH1 0x0 PUSH1 0x60 DUP5 DUP7 SUB SLT ISZERO PUSH2 0x2823 JUMPI PUSH1 0x0 DUP1 REVERT JUMPDEST PUSH2 0x282C DUP5 PUSH2 0x27CD JUMP JUMPDEST SWAP3 POP PUSH2 0x283A PUSH1 0x20 DUP6 ADD PUSH2 0x27CD JUMP JUMPDEST SWAP2 POP PUSH1 0x40 DUP5 ADD CALLDATALOAD SWAP1 POP SWAP3 POP SWAP3 POP SWAP3 JUMP JUMPDEST PUSH1 0x0 PUSH1 0x20 DUP3 DUP5 SUB SLT ISZERO PUSH2 0x285C JUMPI PUSH1 0x0 DUP1 REVERT JUMPDEST POP CALLDATALOAD SWAP2 SWAP1 POP JUMP JUMPDEST PUSH1 0x0 DUP1 PUSH1 0x40 DUP4 DUP6 SUB SLT ISZERO PUSH2 0x2876 JUMPI PUSH1 0x0 DUP1 REVERT JUMPDEST POP POP DUP1 CALLDATALOAD SWAP3 PUSH1 0x20 SWAP1 SWAP2 ADD CALLDATALOAD SWAP2 POP JUMP JUMPDEST PUSH1 0x0 PUSH1 0x20 DUP3 DUP5 SUB SLT ISZERO PUSH2 0x2897 JUMPI PUSH1 0x0 DUP1 REVERT JUMPDEST PUSH2 0x28A0 DUP3 PUSH2 0x27CD JUMP JUMPDEST SWAP4 SWAP3 POP POP POP JUMP JUMPDEST PUSH4 0x4E487B71 PUSH1 0xE0 SHL PUSH1 0x0 MSTORE PUSH1 0x41 PUSH1 0x4 MSTORE PUSH1 0x24 PUSH1 0x0 REVERT JUMPDEST PUSH1 0x40 MLOAD PUSH1 0x1F DUP3 ADD PUSH1 0x1F NOT AND DUP2 ADD PUSH8 0xFFFFFFFFFFFFFFFF DUP2 GT DUP3 DUP3 LT OR ISZERO PUSH2 0x28E6 JUMPI PUSH2 0x28E6 PUSH2 0x28A7 JUMP JUMPDEST PUSH1 0x40 MSTORE SWAP2 SWAP1 POP JUMP JUMPDEST PUSH1 0x0 PUSH8 0xFFFFFFFFFFFFFFFF DUP3 GT ISZERO PUSH2 0x2908 JUMPI PUSH2 0x2908 PUSH2 0x28A7 JUMP JUMPDEST POP PUSH1 0x5 SHL PUSH1 0x20 ADD SWAP1 JUMP JUMPDEST PUSH1 0x0 DUP3 PUSH1 0x1F DUP4 ADD SLT PUSH2 0x2923 JUMPI PUSH1 0x0 DUP1 REVERT JUMPDEST DUP2 CALLDATALOAD PUSH1 0x20 PUSH2 0x2938 PUSH2 0x2933 DUP4 PUSH2 0x28EE JUMP JUMPDEST PUSH2 0x28BD JUMP JUMPDEST DUP1 DUP4 DUP3 MSTORE PUSH1 0x20 DUP3 ADD SWAP2 POP PUSH1 0x20 DUP5 PUSH1 0x5 SHL DUP8 ADD ADD SWAP4 POP DUP7 DUP5 GT ISZERO PUSH2 0x295A JUMPI PUSH1 0x0 DUP1 REVERT JUMPDEST PUSH1 0x20 DUP7 ADD JUMPDEST DUP5 DUP2 LT ISZERO PUSH2 0x2976 JUMPI DUP1 CALLDATALOAD DUP4 MSTORE SWAP2 DUP4 ADD SWAP2 DUP4 ADD PUSH2 0x295F JUMP JUMPDEST POP SWAP7 SWAP6 POP POP POP POP POP POP JUMP JUMPDEST PUSH1 0x0 DUP3 PUSH1 0x1F DUP4 ADD SLT PUSH2 0x2992 JUMPI PUSH1 0x0 DUP1 REVERT JUMPDEST DUP2 CALLDATALOAD PUSH1 0x20 PUSH2 0x29A2 PUSH2 0x2933 DUP4 PUSH2 0x28EE JUMP JUMPDEST DUP1 DUP4 DUP3 MSTORE PUSH1 0x20 DUP3 ADD SWAP2 POP PUSH1 0x20 DUP5 PUSH1 0x5 SHL DUP8 ADD ADD SWAP4 POP DUP7 DUP5 GT ISZERO PUSH2 0x29C4 JUMPI PUSH1 0x0 DUP1 REVERT JUMPDEST PUSH1 0x20 DUP7 ADD JUMPDEST DUP5 DUP2 LT ISZERO PUSH2 0x2976 JUMPI PUSH2 0x29DA DUP2 PUSH2 0x27CD JUMP JUMPDEST DUP4 MSTORE SWAP2 DUP4 ADD SWAP2 DUP4 ADD PUSH2 0x29C9 JUMP JUMPDEST PUSH1 0x0 DUP1 PUSH1 0x0 DUP1 PUSH1 0x0 DUP1 PUSH1 0xC0 DUP8 DUP10 SUB SLT ISZERO PUSH2 0x2A00 JUMPI PUSH1 0x0 DUP1 REVERT JUMPDEST DUP7 CALLDATALOAD PUSH8 0xFFFFFFFFFFFFFFFF DUP1 DUP3 GT ISZERO PUSH2 0x2A18 JUMPI PUSH1 0x0 DUP1 REVERT JUMPDEST PUSH2 0x2A24 DUP11 DUP4 DUP12 ADD PUSH2 0x2912 JUMP JUMPDEST SWAP8 POP PUSH1 0x20 DUP10 ADD CALLDATALOAD SWAP2 POP DUP1 DUP3 GT ISZERO PUSH2 0x2A3A JUMPI PUSH1 0x0 DUP1 REVERT JUMPDEST PUSH2 0x2A46 DUP11 DUP4 DUP12 ADD PUSH2 0x2981 JUMP JUMPDEST SWAP7 POP PUSH1 0x40 DUP10 ADD CALLDATALOAD SWAP2 POP DUP1 DUP3 GT ISZERO PUSH2 0x2A5C JUMPI PUSH1 0x0 DUP1 REVERT JUMPDEST PUSH2 0x2A68 DUP11 DUP4 DUP12 ADD PUSH2 0x2912 JUMP JUMPDEST SWAP6 POP PUSH1 0x60 DUP10 ADD CALLDATALOAD SWAP2 POP DUP1 DUP3 GT ISZERO PUSH2 0x2A7E JUMPI PUSH1 0x0 DUP1 REVERT JUMPDEST PUSH2 0x2A8A DUP11 DUP4 DUP12 ADD PUSH2 0x2912 JUMP JUMPDEST SWAP5 POP PUSH1 0x80 DUP10 ADD CALLDATALOAD SWAP2 POP DUP1 DUP3 GT ISZERO PUSH2 0x2AA0 JUMPI PUSH1 0x0 DUP1 REVERT JUMPDEST PUSH2 0x2AAC DUP11 DUP4 DUP12 ADD PUSH2 0x2912 JUMP JUMPDEST SWAP4 POP PUSH1 0xA0 DUP10 ADD CALLDATALOAD SWAP2 POP DUP1 DUP3 GT ISZERO PUSH2 0x2AC2 JUMPI PUSH1 0x0 DUP1 REVERT JUMPDEST POP PUSH2 0x2ACF DUP10 DUP3 DUP11 ADD PUSH2 0x2981 JUMP JUMPDEST SWAP2 POP POP SWAP3 SWAP6 POP SWAP3 SWAP6 POP SWAP3 SWAP6 JUMP JUMPDEST PUSH1 0x0 DUP1 PUSH1 0x0 DUP1 PUSH1 0x0 PUSH1 0x80 DUP7 DUP9 SUB SLT ISZERO PUSH2 0x2AF4 JUMPI PUSH1 0x0 DUP1 REVERT JUMPDEST DUP6 CALLDATALOAD SWAP5 POP PUSH1 0x20 DUP7 ADD CALLDATALOAD SWAP4 POP PUSH1 0x40 DUP7 ADD CALLDATALOAD PUSH8 0xFFFFFFFFFFFFFFFF DUP1 DUP3 GT ISZERO PUSH2 0x2B1A JUMPI PUSH1 0x0 DUP1 REVERT JUMPDEST DUP2 DUP9 ADD SWAP2 POP DUP9 PUSH1 0x1F DUP4 ADD SLT PUSH2 0x2B2E JUMPI PUSH1 0x0 DUP1 REVERT JUMPDEST DUP2 CALLDATALOAD DUP2 DUP2 GT ISZERO PUSH2 0x2B3D JUMPI PUSH1 0x0 DUP1 REVERT JUMPDEST DUP10 PUSH1 0x20 DUP3 PUSH1 0x5 SHL DUP6 ADD ADD GT ISZERO PUSH2 0x2B52 JUMPI PUSH1 0x0 DUP1 REVERT JUMPDEST SWAP7 SWAP10 SWAP6 SWAP9 POP POP PUSH1 0x20 ADD SWAP6 PUSH1 0x60 ADD CALLDATALOAD SWAP4 SWAP3 POP POP POP JUMP JUMPDEST PUSH1 0x0 PUSH1 0x20 DUP3 DUP5 SUB SLT ISZERO PUSH2 0x2B79 JUMPI PUSH1 0x0 DUP1 REVERT JUMPDEST DUP2 CALLDATALOAD PUSH8 0xFFFFFFFFFFFFFFFF DUP2 GT ISZERO PUSH2 0x2B90 JUMPI PUSH1 0x0 DUP1 REVERT JUMPDEST PUSH2 0x2B9C DUP5 DUP3 DUP6 ADD PUSH2 0x2981 JUMP JUMPDEST SWAP5 SWAP4 POP POP POP POP JUMP JUMPDEST PUSH1 0x0 DUP1 PUSH1 0x40 DUP4 DUP6 SUB SLT ISZERO PUSH2 0x2BB7 JUMPI PUSH1 0x0 DUP1 REVERT JUMPDEST PUSH2 0x2BC0 DUP4 PUSH2 0x27CD JUMP JUMPDEST SWAP2 POP PUSH2 0x2BCE PUSH1 0x20 DUP5 ADD PUSH2 0x27CD JUMP JUMPDEST SWAP1 POP SWAP3 POP SWAP3 SWAP1 POP JUMP JUMPDEST PUSH1 0x1 DUP2 DUP2 SHR SWAP1 DUP3 AND DUP1 PUSH2 0x2BEB JUMPI PUSH1 0x7F DUP3 AND SWAP2 POP JUMPDEST PUSH1 0x20 DUP3 LT DUP2 SUB PUSH2 0x2C0B JUMPI PUSH4 0x4E487B71 PUSH1 0xE0 SHL PUSH1 0x0 MSTORE PUSH1 0x22 PUSH1 0x4 MSTORE PUSH1 0x24 PUSH1 0x0 REVERT JUMPDEST POP SWAP2 SWAP1 POP JUMP JUMPDEST PUSH1 0x20 DUP1 DUP3 MSTORE PUSH1 0x1F SWAP1 DUP3 ADD MSTORE PUSH32 0x5265656E7472616E637947756172643A207265656E7472616E742063616C6C00 PUSH1 0x40 DUP3 ADD MSTORE PUSH1 0x60 ADD SWAP1 JUMP JUMPDEST PUSH4 0x4E487B71 PUSH1 0xE0 SHL PUSH1 0x0 MSTORE PUSH1 0x11 PUSH1 0x4 MSTORE PUSH1 0x24 PUSH1 0x0 REVERT JUMPDEST DUP2 DUP2 SUB DUP2 DUP2 GT ISZERO PUSH2 0x92C JUMPI PUSH2 0x92C PUSH2 0x2C48 JUMP JUMPDEST PUSH1 0x0 PUSH1 0x20 DUP3 DUP5 SUB SLT ISZERO PUSH2 0x2C83 JUMPI PUSH1 0x0 DUP1 REVERT JUMPDEST POP MLOAD SWAP2 SWAP1 POP JUMP JUMPDEST DUP1 DUP3 ADD DUP1 DUP3 GT ISZERO PUSH2 0x92C JUMPI PUSH2 0x92C PUSH2 0x2C48 JUMP JUMPDEST PUSH1 0x0 PUSH3 0xFFFFFF DUP1 DUP4 AND DUP2 DUP2 SUB PUSH2 0x2CB5 JUMPI PUSH2 0x2CB5 PUSH2 0x2C48 JUMP JUMPDEST PUSH1 0x1 ADD SWAP4 SWAP3 POP POP POP JUMP JUMPDEST PUSH1 0x20 DUP1 DUP3 MSTORE PUSH1 0x10 SWAP1 DUP3 ADD MSTORE PUSH16 0x14185D5CD8589B194E881C185D5CD959 PUSH1 0x82 SHL PUSH1 0x40 DUP3 ADD MSTORE PUSH1 0x60 ADD SWAP1 JUMP JUMPDEST PUSH1 0x20 DUP1 DUP3 MSTORE PUSH1 0x21 SWAP1 DUP3 ADD MSTORE PUSH32 0x416D6F756E74206D7573742062652067726561746572207468616E207A65726F PUSH1 0x40 DUP3 ADD MSTORE PUSH1 0x17 PUSH1 0xF9 SHL PUSH1 0x60 DUP3 ADD MSTORE PUSH1 0x80 ADD SWAP1 JUMP JUMPDEST PUSH1 0x0 PUSH1 0x20 DUP3 DUP5 SUB SLT ISZERO PUSH2 0x2D3C JUMPI PUSH1 0x0 DUP1 REVERT JUMPDEST DUP2 MLOAD DUP1 ISZERO ISZERO DUP2 EQ PUSH2 0x28A0 JUMPI PUSH1 0x0 DUP1 REVERT JUMPDEST PUSH1 0x0 DUP3 PUSH2 0x2D69 JUMPI PUSH4 0x4E487B71 PUSH1 0xE0 SHL PUSH1 0x0 MSTORE PUSH1 0x12 PUSH1 0x4 MSTORE PUSH1 0x24 PUSH1 0x0 REVERT JUMPDEST POP DIV SWAP1 JUMP JUMPDEST PUSH4 0x4E487B71 PUSH1 0xE0 SHL PUSH1 0x0 MSTORE PUSH1 0x32 PUSH1 0x4 MSTORE PUSH1 0x24 PUSH1 0x0 REVERT JUMPDEST PUSH3 0xFFFFFF DUP3 DUP2 AND DUP3 DUP3 AND SUB SWAP1 DUP1 DUP3 GT ISZERO PUSH2 0x23CE JUMPI PUSH2 0x23CE PUSH2 0x2C48 JUMP JUMPDEST PUSH8 0xFFFFFFFFFFFFFFFF DUP3 DUP2 AND DUP3 DUP3 AND SUB SWAP1 DUP1 DUP3 GT ISZERO PUSH2 0x23CE JUMPI PUSH2 0x23CE PUSH2 0x2C48 JUMP JUMPDEST PUSH1 0x0 DUP2 MLOAD DUP1 DUP5 MSTORE PUSH1 0x20 DUP1 DUP6 ADD SWAP5 POP PUSH1 0x20 DUP5 ADD PUSH1 0x0 JUMPDEST DUP4 DUP2 LT ISZERO PUSH2 0x2DF2 JUMPI DUP2 MLOAD DUP8 MSTORE SWAP6 DUP3 ADD SWAP6 SWAP1 DUP3 ADD SWAP1 PUSH1 0x1 ADD PUSH2 0x2DD6 JUMP JUMPDEST POP SWAP5 SWAP6 SWAP5 POP POP POP POP POP JUMP JUMPDEST PUSH1 0x80 DUP2 MSTORE PUSH1 0x0 PUSH2 0x2E10 PUSH1 0x80 DUP4 ADD DUP8 PUSH2 0x2DC1 JUMP JUMPDEST DUP3 DUP2 SUB PUSH1 0x20 DUP5 ADD MSTORE PUSH2 0x2E22 DUP2 DUP8 PUSH2 0x2DC1 JUMP JUMPDEST SWAP2 POP POP PUSH3 0xFFFFFF DUP5 AND PUSH1 0x40 DUP4 ADD MSTORE PUSH8 0xFFFFFFFFFFFFFFFF DUP4 AND PUSH1 0x60 DUP4 ADD MSTORE SWAP6 SWAP5 POP POP POP POP POP JUMP JUMPDEST DUP1 DUP3 MUL DUP2 ISZERO DUP3 DUP3 DIV DUP5 EQ OR PUSH2 0x92C JUMPI PUSH2 0x92C PUSH2 0x2C48 JUMP JUMPDEST PUSH1 0x20 DUP1 DUP3 MSTORE PUSH1 0x2B SWAP1 DUP3 ADD MSTORE PUSH32 0x496E697469616C697A61626C653A20636F6E7472616374206973206E6F742069 PUSH1 0x40 DUP3 ADD MSTORE PUSH11 0x6E697469616C697A696E67 PUSH1 0xA8 SHL PUSH1 0x60 DUP3 ADD MSTORE PUSH1 0x80 ADD SWAP1 JUMP JUMPDEST PUSH1 0x1F DUP3 GT ISZERO PUSH2 0x262A JUMPI PUSH1 0x0 DUP2 PUSH1 0x0 MSTORE PUSH1 0x20 PUSH1 0x0 KECCAK256 PUSH1 0x1F DUP6 ADD PUSH1 0x5 SHR DUP2 ADD PUSH1 0x20 DUP7 LT ISZERO PUSH2 0x2ED4 JUMPI POP DUP1 JUMPDEST PUSH1 0x1F DUP6 ADD PUSH1 0x5 SHR DUP3 ADD SWAP2 POP JUMPDEST DUP2 DUP2 LT ISZERO PUSH2 0x2EF3 JUMPI DUP3 DUP2 SSTORE PUSH1 0x1 ADD PUSH2 0x2EE0 JUMP JUMPDEST POP POP POP POP POP POP JUMP JUMPDEST DUP2 MLOAD PUSH8 0xFFFFFFFFFFFFFFFF DUP2 GT ISZERO PUSH2 0x2F15 JUMPI PUSH2 0x2F15 PUSH2 0x28A7 JUMP JUMPDEST PUSH2 0x2F29 DUP2 PUSH2 0x2F23 DUP5 SLOAD PUSH2 0x2BD7 JUMP JUMPDEST DUP5 PUSH2 0x2EAB JUMP JUMPDEST PUSH1 0x20 DUP1 PUSH1 0x1F DUP4 GT PUSH1 0x1 DUP2 EQ PUSH2 0x2F5E JUMPI PUSH1 0x0 DUP5 ISZERO PUSH2 0x2F46 JUMPI POP DUP6 DUP4 ADD MLOAD JUMPDEST PUSH1 0x0 NOT PUSH1 0x3 DUP7 SWAP1 SHL SHR NOT AND PUSH1 0x1 DUP6 SWAP1 SHL OR DUP6 SSTORE PUSH2 0x2EF3 JUMP JUMPDEST PUSH1 0x0 DUP6 DUP2 MSTORE PUSH1 0x20 DUP2 KECCAK256 PUSH1 0x1F NOT DUP7 AND SWAP2 JUMPDEST DUP3 DUP2 LT ISZERO PUSH2 0x2F8D JUMPI DUP9 DUP7 ADD MLOAD DUP3 SSTORE SWAP5 DUP5 ADD SWAP5 PUSH1 0x1 SWAP1 SWAP2 ADD SWAP1 DUP5 ADD PUSH2 0x2F6E JUMP JUMPDEST POP DUP6 DUP3 LT ISZERO PUSH2 0x2FAB JUMPI DUP8 DUP6 ADD MLOAD PUSH1 0x0 NOT PUSH1 0x3 DUP9 SWAP1 SHL PUSH1 0xF8 AND SHR NOT AND DUP2 SSTORE JUMPDEST POP POP POP POP POP PUSH1 0x1 SWAP1 DUP2 SHL ADD SWAP1 SSTORE POP JUMP INVALID LOG2 PUSH5 0x6970667358 0x22 SLT KECCAK256 JUMP 0xD0 CREATE 0x29 0x4F 0xE9 0xB3 0xEE ADDRESS 0xE8 0xB4 0xF9 SWAP15 MULMOD MULMOD PUSH5 0x9FEF493260 0xD 0xCF 0xE8 0x29 PUSH14 0xB84CD317030E64736F6C63430008 NOT STOP CALLER ",
  "sha1": "00c776fd8c68a265b50084298eda557211bb8b8e",
  "source": "// SPDX-License-Identifier: MIT\npragma solidity ^0.8.5;\n\nimport \"@openzeppelin-upgradeable/contracts/token/ERC20/ERC20Upgradeable.sol\";\nimport \"@openzeppelin-upgradeable/contracts/security/ReentrancyGuardUpgradeable.sol\";\nimport \"@openzeppelin-upgradeable/contracts/security/PausableUpgradeable.sol\";\nimport \"@openzeppelin-upgradeable/contracts/access/OwnableUpgradeable.sol\";\nimport \"./interfaces/ISmartnodesMultiSig.sol\";\n\ncontract SmartnodesCore is\n    ERC20Upgradeable,\n    ReentrancyGuardUpgradeable,\n    PausableUpgradeable,\n    OwnableUpgradeable\n{\n    error InsufficientBalance();\n    error InvalidAmount();\n    error InvalidLength();\n    error NoValidators();\n    error NoRewards();\n    error TokensStillLocked();\n    error ValidatorNotFound();\n    error UnauthorizedCaller();\n    error ZeroAddress();\n    error ValidatorAlreadyExists();\n    error ContractAlreadyInitialized();\n    error StateUpdateTooFrequent();\n\n    ISmartnodesMultiSig public validatorContract;\n    address public proxyAdmin;\n\n    uint256 public constant UNLOCK_PERIOD = 1_209_600; // 14 days in seconds\n    uint256 public constant VALIDATOR_REWARD_PERCENTAGE = 20;\n    uint256 public constant INITIAL_LOCK_AMOUNT = 500_000e18;\n    uint256 public constant INITIAL_EMISSION_RATE = 2048e18;\n\n    uint256 public halvingPeriod;\n    uint256 public tailEmission;\n    uint256 public emissionRate;\n    uint256 public statesSinceLastHalving;\n    uint256 public totalLocked;\n    uint256 public totalUnclaimed;\n    uint256 public jobCounter;\n    uint24 public validatorCounter;\n    uint64 public userCounter;\n    uint256 public lockAmount;\n    uint256 public lastStateUpdateTimestamp;\n\n    struct Validator {\n        uint256 locked;\n        uint256 unlockTime; // Changed from uint24 to uint256 for timestamp compatibility\n        bytes32 publicKeyHash;\n        bool exists;\n    }\n\n    struct Job {\n        uint256[] capacities;\n        uint256 payment;\n        bool exists;\n        address requester;\n    }\n\n    mapping(bytes32 => Job) public jobs;\n    mapping(address => Validator) public validators;\n    mapping(address => uint256) public unclaimedRewards;\n\n    event TokensLocked(address indexed validator, uint256 amount);\n    event UnlockInitiated(address indexed validator, uint256 unlockTime);\n    event TokensUnlocked(address indexed validator, uint256 amount);\n    event JobRequested(\n        bytes32 indexed jobHash,\n        bytes32 userHash,\n        address indexed requester\n    );\n    event JobCompleted(bytes32 indexed jobHash, uint256 reward);\n    event JobCancelled(bytes32 indexed jobHash, address indexed requester);\n    event RewardsClaimed(address indexed sender, uint256 amount);\n    event StateUpdate(\n        uint256[] networkWorkers,\n        uint256[] networkCapacities,\n        uint24 activeValidators,\n        uint64 numUsers\n    );\n    event EmissionRateUpdated(uint256 newRate);\n    event ValidatorContractSet(address indexed validatorContract);\n    event LockAmountChanged(uint256 newAmount);\n\n    modifier onlyValidatorMultiSig() {\n        if (msg.sender != address(validatorContract))\n            revert UnauthorizedCaller();\n        _;\n    }\n\n    modifier onlyProxyAdmin() {\n        if (msg.sender != proxyAdmin) revert UnauthorizedCaller();\n        _;\n    }\n\n    function initialize(address[] memory _genesisNodes) external initializer {\n        __ERC20_init(\"Smartnodes\", \"SNO\");\n        __ReentrancyGuard_init();\n        __Pausable_init();\n        __Ownable_init();\n\n        proxyAdmin = msg.sender;\n        emissionRate = INITIAL_EMISSION_RATE;\n        lockAmount = INITIAL_LOCK_AMOUNT;\n        halvingPeriod = 8742; // 364.25 * 24\n        tailEmission = 64e18;\n\n        jobCounter = 1;\n        validatorCounter = 1;\n        userCounter = 1;\n        lastStateUpdateTimestamp = 1;\n\n        for (uint i = 0; i < _genesisNodes.length; ) {\n            if (_genesisNodes[i] == address(0)) revert ZeroAddress();\n            _mint(_genesisNodes[i], INITIAL_LOCK_AMOUNT);\n            unchecked {\n                ++i;\n            }\n        }\n    }\n\n    function requestJob(\n        bytes32 userHash,\n        bytes32 jobHash,\n        uint256[] calldata capacities,\n        uint256 paymentAmount\n    ) external whenNotPaused {\n        if (paymentAmount == 0) revert InvalidAmount();\n        if (balanceOf(msg.sender) < paymentAmount) revert InsufficientBalance();\n        if (jobs[jobHash].exists) revert(\"Job already exists\");\n\n        // Transfer the payment tokens to contract instead of burning\n        _transfer(msg.sender, address(this), paymentAmount);\n\n        jobs[jobHash] = Job({\n            capacities: capacities,\n            payment: paymentAmount,\n            exists: true,\n            requester: msg.sender\n        });\n\n        emit JobRequested(jobHash, userHash, msg.sender);\n        unchecked {\n            ++jobCounter;\n        }\n    }\n\n    function cancelJob(bytes32 jobHash) external whenNotPaused nonReentrant {\n        Job storage job = jobs[jobHash];\n        if (!job.exists) revert InvalidAmount();\n        if (job.requester != msg.sender) revert UnauthorizedCaller();\n\n        uint256 payment = job.payment;\n        delete jobs[jobHash];\n\n        // Return tokens instead of minting new ones\n        _transfer(address(this), msg.sender, payment);\n\n        emit JobCancelled(jobHash, msg.sender);\n    }\n\n    function completeJob(\n        bytes32 jobHash\n    ) public onlyValidatorMultiSig whenNotPaused returns (uint256) {\n        Job memory job = jobs[jobHash];\n        uint256 totalReward = job.payment;\n\n        emit JobCompleted(jobHash, totalReward);\n\n        if (!job.exists) return 0;\n\n        delete jobs[jobHash];\n\n        return totalReward;\n    }\n\n    function updateContract(\n        bytes32[] memory jobHashes,\n        address[] memory workers,\n        uint256[] memory capacities,\n        uint256[] memory allCapacities,\n        uint256[] memory allWorkers,\n        address[] memory validatorsVoted\n    ) external onlyValidatorMultiSig nonReentrant whenNotPaused {\n        if (workers.length != capacities.length) revert InvalidLength();\n        if (validatorsVoted.length == 0) revert NoValidators();\n\n        // Update emission rate if needed\n        if (statesSinceLastHalving >= halvingPeriod) {\n            if (emissionRate > tailEmission) {\n                emissionRate /= 2;\n                emit EmissionRateUpdated(emissionRate);\n            }\n            statesSinceLastHalving = 0;\n        }\n\n        // allCapacities contains total capacities of each network, we must summate them\n        uint256 totalCapacity = 0;\n        for (uint i = 0; i < allCapacities.length; i++) {\n            totalCapacity += allCapacities[i];\n        }\n\n        uint256 totalWorkers = 0;\n        for (uint i = 0; i < allWorkers.length; i++) {\n            totalWorkers += allWorkers[i];\n        }\n\n        // Process rewards\n        uint256 additionalReward = _processCompletedJobs(jobHashes);\n        _distributeRewards(\n            workers,\n            capacities,\n            totalCapacity,\n            validatorsVoted,\n            additionalReward\n        );\n\n        emit StateUpdate(\n            allWorkers,\n            allCapacities,\n            validatorCounter - 1,\n            userCounter - 1\n        );\n\n        unchecked {\n            ++statesSinceLastHalving;\n        }\n    }\n\n    function _processCompletedJobs(\n        bytes32[] memory jobHashes\n    ) internal returns (uint256) {\n        uint256 additionalReward = 0;\n        for (uint i = 0; i < jobHashes.length; ) {\n            additionalReward += completeJob(jobHashes[i]);\n            unchecked {\n                ++i;\n            }\n        }\n        return additionalReward;\n    }\n\n    function _distributeRewards(\n        address[] memory _workers,\n        uint256[] memory _capacities,\n        uint256 _totalCapacity,\n        address[] memory _validatorsVoted,\n        uint256 additionalReward\n    ) internal {\n        uint256 totalReward = emissionRate + additionalReward;\n        uint256 validatorReward;\n        uint256 workerReward;\n\n        if (_workers.length == 0) {\n            validatorReward = totalReward;\n        } else {\n            validatorReward = (totalReward * VALIDATOR_REWARD_PERCENTAGE) / 100;\n            workerReward = totalReward - validatorReward;\n        }\n\n        totalUnclaimed += totalReward;\n\n        // Distribute validator rewards\n        if (_validatorsVoted.length > 0) {\n            uint256 validatorShare = validatorReward / _validatorsVoted.length;\n            for (uint256 i = 0; i < _validatorsVoted.length; ) {\n                unclaimedRewards[_validatorsVoted[i]] += validatorShare;\n                unchecked {\n                    ++i;\n                }\n            }\n        }\n\n        // Distribute worker rewards\n        if (_workers.length > 0) {\n            for (uint256 i = 0; i < _workers.length; ) {\n                uint256 reward = (_capacities[i] * workerReward) /\n                    _totalCapacity;\n                unclaimedRewards[_workers[i]] += reward;\n                unchecked {\n                    ++i;\n                }\n            }\n        }\n    }\n\n    function claimRewards() external nonReentrant {\n        uint256 amount = unclaimedRewards[msg.sender];\n        if (amount == 0) revert NoRewards();\n\n        unclaimedRewards[msg.sender] = 0;\n        totalUnclaimed -= amount;\n        _mint(msg.sender, amount);\n\n        emit RewardsClaimed(msg.sender, amount);\n    }\n\n    /**\n     * @dev Validator token unlocking, 14 day withdrawal period.\n     */\n    function _lockTokens(address sender, uint256 amount) internal {\n        require(amount > 0, \"Amount must be greater than zero.\");\n        require(balanceOf(sender) >= amount, \"Insufficient balance.\");\n        require(\n            validators[sender].publicKeyHash != bytes32(0),\n            \"Validator does not exist.\"\n        );\n\n        transferFrom(sender, address(this), amount);\n        validators[sender].locked += amount;\n        totalLocked += amount;\n\n        emit TokensLocked(sender, amount);\n    }\n\n    function lockTokens(uint256 amount) external {\n        _lockTokens(msg.sender, amount);\n    }\n\n    function unlockTokens(uint256 amount) external nonReentrant {\n        Validator storage validator = validators[msg.sender];\n\n        require(\n            validators[msg.sender].publicKeyHash != bytes32(0),\n            \"Validator does not exist.\"\n        );\n        require(amount <= validator.locked, \"Amount exceeds locked balance.\");\n        require(amount > 0, \"Amount must be greater than zero.\");\n\n        // Initialize the unlock time if it's the first unlock attempt\n        if (validator.unlockTime == 0) {\n            if (validator.locked < lockAmount) {\n                validatorContract.removeValidator(msg.sender);\n            }\n            validator.unlockTime = block.timestamp + UNLOCK_PERIOD; // unlocking period\n\n            // Update multisig validator\n            totalLocked -= amount;\n\n            emit UnlockInitiated(msg.sender, validator.unlockTime); // Optional: emit an event\n        } else {\n            // On subsequent attempts, check if the unlock period has elapsed\n            require(\n                block.timestamp >= validator.unlockTime,\n                \"Tokens are still locked.\"\n            );\n\n            validator.locked -= amount;\n            _transfer(address(this), msg.sender, amount);\n            emit TokensUnlocked(msg.sender, amount); // Optional: emit an event when tokens are unlocked\n        }\n    }\n\n    function createValidator(\n        bytes32 _publicKeyHash,\n        uint256 _lockAmount\n    ) external {\n        require(\n            balanceOf(msg.sender) >= _lockAmount && _lockAmount >= lockAmount,\n            \"Insufficient token balance.\"\n        );\n        require(\n            validators[msg.sender].publicKeyHash == bytes32(0),\n            \"Validator already created with this account!\"\n        );\n\n        validators[msg.sender] = Validator({\n            locked: 0,\n            unlockTime: 0,\n            publicKeyHash: _publicKeyHash,\n            exists: true\n        });\n\n        _lockTokens(msg.sender, lockAmount);\n        validatorCounter++;\n    }\n\n    function isLocked(address validatorAddress) external view returns (bool) {\n        return validators[validatorAddress].locked >= lockAmount;\n    }\n\n    /**\n     * @notice View function to check unclaimed rewards\n     */\n    function getUnclaimedRewards(address user) external view returns (uint256) {\n        return unclaimedRewards[user];\n    }\n\n    function getLockedBalance(\n        address validatorAddress\n    ) external view returns (uint256) {\n        Validator memory validator = validators[validatorAddress];\n        return validator.locked;\n    }\n\n    function getActiveValidatorCount() external view returns (uint256) {\n        return validatorContract.getNumValidators();\n    }\n\n    function getValidatorInfo(\n        address validatorAddress\n    ) external view returns (bool, bytes32) {\n        Validator memory _validator = validators[validatorAddress];\n        bool isActive = validatorContract.isActiveValidator(validatorAddress);\n        return (isActive, _validator.publicKeyHash);\n    }\n\n    function setValidatorContract(address _validatorAddress) external {\n        require(\n            address(validatorContract) == address(0),\n            \"Validator address already set.\"\n        );\n        validatorContract = ISmartnodesMultiSig(_validatorAddress);\n    }\n\n    function getSupply() external view returns (uint256, uint256, uint256) {\n        return (this.totalSupply(), totalLocked, totalUnclaimed);\n    }\n\n    function halveStateTime() external onlyProxyAdmin {\n        // By reducing the state time in half, we must reduce emissions (ie. state reward)\n        // by half, including the tail emission value\n        tailEmission /= 2;\n        emissionRate /= 2;\n        halvingPeriod *= 2; // Double the state updates requied between halvings\n        validatorContract.halvePeriod(); // Halve the time required between state updates\n    }\n\n    function doubleStateTime() external onlyProxyAdmin {\n        tailEmission *= 2;\n        emissionRate *= 2;\n        halvingPeriod /= 2; // Double the state updates requied between halvings\n        validatorContract.doublePeriod(); // Halve the time required between state updates\n    }\n\n    function changeLockAmount(uint256 amount) external onlyProxyAdmin {\n        lockAmount = amount;\n    }\n}\n",
  "sourcePath": "contracts/SmartnodesCore.sol",
  "type": "contract"
}