{
  "abi": [
    {
      "anonymous": false,
      "inputs": [
        {
          "indexed": true,
          "internalType": "address",
          "name": "owner",
          "type": "address"
        },
        {
          "indexed": true,
          "internalType": "address",
          "name": "spender",
          "type": "address"
        },
        {
          "indexed": false,
          "internalType": "uint256",
          "name": "value",
          "type": "uint256"
        }
      ],
      "name": "Approval",
      "type": "event"
    },
    {
      "anonymous": false,
      "inputs": [
        {
          "indexed": false,
          "internalType": "uint256",
          "name": "jobId",
          "type": "uint256"
        },
        {
          "indexed": false,
          "internalType": "bytes32",
          "name": "jobHash",
          "type": "bytes32"
        }
      ],
      "name": "JobCompleted",
      "type": "event"
    },
    {
      "anonymous": false,
      "inputs": [
        {
          "indexed": true,
          "internalType": "bytes32",
          "name": "jobId",
          "type": "bytes32"
        },
        {
          "indexed": false,
          "internalType": "uint256",
          "name": "timestamp",
          "type": "uint256"
        }
      ],
      "name": "JobDisputed",
      "type": "event"
    },
    {
      "anonymous": false,
      "inputs": [
        {
          "indexed": false,
          "internalType": "uint256",
          "name": "jobId",
          "type": "uint256"
        },
        {
          "indexed": false,
          "internalType": "bytes32",
          "name": "jobHash",
          "type": "bytes32"
        },
        {
          "indexed": false,
          "internalType": "bytes32",
          "name": "userHash",
          "type": "bytes32"
        }
      ],
      "name": "JobRequested",
      "type": "event"
    },
    {
      "anonymous": false,
      "inputs": [
        {
          "indexed": false,
          "internalType": "address",
          "name": "validator",
          "type": "address"
        },
        {
          "indexed": false,
          "internalType": "uint256",
          "name": "amount",
          "type": "uint256"
        }
      ],
      "name": "TokensLocked",
      "type": "event"
    },
    {
      "anonymous": false,
      "inputs": [
        {
          "indexed": true,
          "internalType": "address",
          "name": "validator",
          "type": "address"
        },
        {
          "indexed": false,
          "internalType": "uint256",
          "name": "amount",
          "type": "uint256"
        }
      ],
      "name": "TokensUnlocked",
      "type": "event"
    },
    {
      "anonymous": false,
      "inputs": [
        {
          "indexed": true,
          "internalType": "address",
          "name": "from",
          "type": "address"
        },
        {
          "indexed": true,
          "internalType": "address",
          "name": "to",
          "type": "address"
        },
        {
          "indexed": false,
          "internalType": "uint256",
          "name": "value",
          "type": "uint256"
        }
      ],
      "name": "Transfer",
      "type": "event"
    },
    {
      "anonymous": false,
      "inputs": [
        {
          "indexed": true,
          "internalType": "address",
          "name": "validator",
          "type": "address"
        },
        {
          "indexed": false,
          "internalType": "uint256",
          "name": "unlockTime",
          "type": "uint256"
        }
      ],
      "name": "UnlockInitiated",
      "type": "event"
    },
    {
      "inputs": [],
      "name": "UNLOCK_PERIOD",
      "outputs": [
        {
          "internalType": "uint256",
          "name": "",
          "type": "uint256"
        }
      ],
      "stateMutability": "view",
      "type": "function"
    },
    {
      "inputs": [
        {
          "internalType": "address",
          "name": "owner",
          "type": "address"
        },
        {
          "internalType": "address",
          "name": "spender",
          "type": "address"
        }
      ],
      "name": "allowance",
      "outputs": [
        {
          "internalType": "uint256",
          "name": "",
          "type": "uint256"
        }
      ],
      "stateMutability": "view",
      "type": "function"
    },
    {
      "inputs": [
        {
          "internalType": "address",
          "name": "spender",
          "type": "address"
        },
        {
          "internalType": "uint256",
          "name": "amount",
          "type": "uint256"
        }
      ],
      "name": "approve",
      "outputs": [
        {
          "internalType": "bool",
          "name": "",
          "type": "bool"
        }
      ],
      "stateMutability": "nonpayable",
      "type": "function"
    },
    {
      "inputs": [],
      "name": "availableCapacity",
      "outputs": [
        {
          "internalType": "uint256",
          "name": "",
          "type": "uint256"
        }
      ],
      "stateMutability": "view",
      "type": "function"
    },
    {
      "inputs": [
        {
          "internalType": "address",
          "name": "account",
          "type": "address"
        }
      ],
      "name": "balanceOf",
      "outputs": [
        {
          "internalType": "uint256",
          "name": "",
          "type": "uint256"
        }
      ],
      "stateMutability": "view",
      "type": "function"
    },
    {
      "inputs": [
        {
          "internalType": "bytes32",
          "name": "jobHash",
          "type": "bytes32"
        }
      ],
      "name": "completeJob",
      "outputs": [
        {
          "internalType": "uint256",
          "name": "",
          "type": "uint256"
        }
      ],
      "stateMutability": "nonpayable",
      "type": "function"
    },
    {
      "inputs": [
        {
          "internalType": "bytes32",
          "name": "_publicKeyHash",
          "type": "bytes32"
        },
        {
          "internalType": "uint256",
          "name": "_lockAmount",
          "type": "uint256"
        }
      ],
      "name": "createValidator",
      "outputs": [],
      "stateMutability": "nonpayable",
      "type": "function"
    },
    {
      "inputs": [],
      "name": "decimals",
      "outputs": [
        {
          "internalType": "uint8",
          "name": "",
          "type": "uint8"
        }
      ],
      "stateMutability": "view",
      "type": "function"
    },
    {
      "inputs": [
        {
          "internalType": "address",
          "name": "spender",
          "type": "address"
        },
        {
          "internalType": "uint256",
          "name": "subtractedValue",
          "type": "uint256"
        }
      ],
      "name": "decreaseAllowance",
      "outputs": [
        {
          "internalType": "bool",
          "name": "",
          "type": "bool"
        }
      ],
      "stateMutability": "nonpayable",
      "type": "function"
    },
    {
      "inputs": [],
      "name": "emissionRate",
      "outputs": [
        {
          "internalType": "uint256",
          "name": "",
          "type": "uint256"
        }
      ],
      "stateMutability": "view",
      "type": "function"
    },
    {
      "inputs": [],
      "name": "getActiveValidatorCount",
      "outputs": [
        {
          "internalType": "uint256",
          "name": "",
          "type": "uint256"
        }
      ],
      "stateMutability": "view",
      "type": "function"
    },
    {
      "inputs": [
        {
          "internalType": "uint256",
          "name": "_validatorId",
          "type": "uint256"
        }
      ],
      "name": "getValidatorInfo",
      "outputs": [
        {
          "internalType": "bool",
          "name": "",
          "type": "bool"
        },
        {
          "internalType": "bytes32",
          "name": "",
          "type": "bytes32"
        },
        {
          "internalType": "address",
          "name": "",
          "type": "address"
        }
      ],
      "stateMutability": "view",
      "type": "function"
    },
    {
      "inputs": [],
      "name": "halveStateTime",
      "outputs": [],
      "stateMutability": "nonpayable",
      "type": "function"
    },
    {
      "inputs": [],
      "name": "halvingPeriod",
      "outputs": [
        {
          "internalType": "uint256",
          "name": "",
          "type": "uint256"
        }
      ],
      "stateMutability": "view",
      "type": "function"
    },
    {
      "inputs": [
        {
          "internalType": "address",
          "name": "spender",
          "type": "address"
        },
        {
          "internalType": "uint256",
          "name": "addedValue",
          "type": "uint256"
        }
      ],
      "name": "increaseAllowance",
      "outputs": [
        {
          "internalType": "bool",
          "name": "",
          "type": "bool"
        }
      ],
      "stateMutability": "nonpayable",
      "type": "function"
    },
    {
      "inputs": [
        {
          "internalType": "address[]",
          "name": "_genesisNodes",
          "type": "address[]"
        }
      ],
      "name": "initialize",
      "outputs": [],
      "stateMutability": "nonpayable",
      "type": "function"
    },
    {
      "inputs": [
        {
          "internalType": "address",
          "name": "validatorAddress",
          "type": "address"
        }
      ],
      "name": "isLocked",
      "outputs": [
        {
          "internalType": "bool",
          "name": "",
          "type": "bool"
        }
      ],
      "stateMutability": "view",
      "type": "function"
    },
    {
      "inputs": [],
      "name": "jobCounter",
      "outputs": [
        {
          "internalType": "uint256",
          "name": "",
          "type": "uint256"
        }
      ],
      "stateMutability": "view",
      "type": "function"
    },
    {
      "inputs": [
        {
          "internalType": "bytes32",
          "name": "",
          "type": "bytes32"
        }
      ],
      "name": "jobHashToId",
      "outputs": [
        {
          "internalType": "uint256",
          "name": "",
          "type": "uint256"
        }
      ],
      "stateMutability": "view",
      "type": "function"
    },
    {
      "inputs": [
        {
          "internalType": "uint256",
          "name": "",
          "type": "uint256"
        }
      ],
      "name": "jobs",
      "outputs": [
        {
          "internalType": "uint256",
          "name": "payment",
          "type": "uint256"
        }
      ],
      "stateMutability": "view",
      "type": "function"
    },
    {
      "inputs": [],
      "name": "lockAmount",
      "outputs": [
        {
          "internalType": "uint256",
          "name": "",
          "type": "uint256"
        }
      ],
      "stateMutability": "view",
      "type": "function"
    },
    {
      "inputs": [
        {
          "internalType": "uint256",
          "name": "amount",
          "type": "uint256"
        }
      ],
      "name": "lockTokens",
      "outputs": [],
      "stateMutability": "nonpayable",
      "type": "function"
    },
    {
      "inputs": [
        {
          "internalType": "address[]",
          "name": "_workers",
          "type": "address[]"
        },
        {
          "internalType": "uint256[]",
          "name": "_capacities",
          "type": "uint256[]"
        },
        {
          "internalType": "uint256",
          "name": "_totalCapacity",
          "type": "uint256"
        },
        {
          "internalType": "address[]",
          "name": "_validatorsVoted",
          "type": "address[]"
        },
        {
          "internalType": "uint256",
          "name": "additionalReward",
          "type": "uint256"
        }
      ],
      "name": "mintTokens",
      "outputs": [],
      "stateMutability": "nonpayable",
      "type": "function"
    },
    {
      "inputs": [],
      "name": "name",
      "outputs": [
        {
          "internalType": "string",
          "name": "",
          "type": "string"
        }
      ],
      "stateMutability": "view",
      "type": "function"
    },
    {
      "inputs": [],
      "name": "proxyAdmin",
      "outputs": [
        {
          "internalType": "address",
          "name": "",
          "type": "address"
        }
      ],
      "stateMutability": "view",
      "type": "function"
    },
    {
      "inputs": [
        {
          "internalType": "address",
          "name": "_validatorAddress",
          "type": "address"
        }
      ],
      "name": "setValidatorContract",
      "outputs": [],
      "stateMutability": "nonpayable",
      "type": "function"
    },
    {
      "inputs": [],
      "name": "statesSinceLastHalving",
      "outputs": [
        {
          "internalType": "uint256",
          "name": "",
          "type": "uint256"
        }
      ],
      "stateMutability": "view",
      "type": "function"
    },
    {
      "inputs": [],
      "name": "symbol",
      "outputs": [
        {
          "internalType": "string",
          "name": "",
          "type": "string"
        }
      ],
      "stateMutability": "view",
      "type": "function"
    },
    {
      "inputs": [],
      "name": "tailEmission",
      "outputs": [
        {
          "internalType": "uint256",
          "name": "",
          "type": "uint256"
        }
      ],
      "stateMutability": "view",
      "type": "function"
    },
    {
      "inputs": [],
      "name": "totalLocked",
      "outputs": [
        {
          "internalType": "uint256",
          "name": "",
          "type": "uint256"
        }
      ],
      "stateMutability": "view",
      "type": "function"
    },
    {
      "inputs": [],
      "name": "totalSupply",
      "outputs": [
        {
          "internalType": "uint256",
          "name": "",
          "type": "uint256"
        }
      ],
      "stateMutability": "view",
      "type": "function"
    },
    {
      "inputs": [
        {
          "internalType": "address",
          "name": "to",
          "type": "address"
        },
        {
          "internalType": "uint256",
          "name": "amount",
          "type": "uint256"
        }
      ],
      "name": "transfer",
      "outputs": [
        {
          "internalType": "bool",
          "name": "",
          "type": "bool"
        }
      ],
      "stateMutability": "nonpayable",
      "type": "function"
    },
    {
      "inputs": [
        {
          "internalType": "address",
          "name": "from",
          "type": "address"
        },
        {
          "internalType": "address",
          "name": "to",
          "type": "address"
        },
        {
          "internalType": "uint256",
          "name": "amount",
          "type": "uint256"
        }
      ],
      "name": "transferFrom",
      "outputs": [
        {
          "internalType": "bool",
          "name": "",
          "type": "bool"
        }
      ],
      "stateMutability": "nonpayable",
      "type": "function"
    },
    {
      "inputs": [],
      "name": "unlockPeriod",
      "outputs": [
        {
          "internalType": "uint256",
          "name": "",
          "type": "uint256"
        }
      ],
      "stateMutability": "view",
      "type": "function"
    },
    {
      "inputs": [
        {
          "internalType": "uint256",
          "name": "amount",
          "type": "uint256"
        }
      ],
      "name": "unlockTokens",
      "outputs": [],
      "stateMutability": "nonpayable",
      "type": "function"
    },
    {
      "inputs": [],
      "name": "userCounter",
      "outputs": [
        {
          "internalType": "uint256",
          "name": "",
          "type": "uint256"
        }
      ],
      "stateMutability": "view",
      "type": "function"
    },
    {
      "inputs": [],
      "name": "validatorContract",
      "outputs": [
        {
          "internalType": "contract ISmartnodesMultiSig",
          "name": "",
          "type": "address"
        }
      ],
      "stateMutability": "view",
      "type": "function"
    },
    {
      "inputs": [],
      "name": "validatorCounter",
      "outputs": [
        {
          "internalType": "uint256",
          "name": "",
          "type": "uint256"
        }
      ],
      "stateMutability": "view",
      "type": "function"
    },
    {
      "inputs": [
        {
          "internalType": "address",
          "name": "",
          "type": "address"
        }
      ],
      "name": "validatorIdByAddress",
      "outputs": [
        {
          "internalType": "uint256",
          "name": "",
          "type": "uint256"
        }
      ],
      "stateMutability": "view",
      "type": "function"
    },
    {
      "inputs": [
        {
          "internalType": "uint256",
          "name": "",
          "type": "uint256"
        }
      ],
      "name": "validators",
      "outputs": [
        {
          "internalType": "address",
          "name": "_address",
          "type": "address"
        },
        {
          "internalType": "uint256",
          "name": "locked",
          "type": "uint256"
        },
        {
          "internalType": "uint256",
          "name": "unlockTime",
          "type": "uint256"
        },
        {
          "internalType": "bytes32",
          "name": "publicKeyHash",
          "type": "bytes32"
        }
      ],
      "stateMutability": "view",
      "type": "function"
    }
  ],
  "bytecode": "6080604052676f05b59d3b200000606755348015601b57600080fd5b5061207b8061002b6000396000f3fe608060405234801561001057600080fd5b50600436106102485760003560e01c806370a082311161013b578063a457c2d7116100b8578063cdf64a761161007c578063cdf64a761461058a578063d8df5dc11461059d578063dd62ed3e146105a6578063eabd4bd7146105df578063f0c37a59146105e757600080fd5b8063a457c2d714610502578063a9059cbb14610515578063ab05119014610528578063b779753714610531578063b8d4090d1461056a57600080fd5b806396afc450116100ff57806396afc450146104b7578063991e0139146104c057806399439089146104d3578063a21bc3fb146104e6578063a224cee7146104ef57600080fd5b806370a08231146104615780637c4053251461048a57806388ef046d1461049d57806395b84bc2146104a657806395d89b41146104af57600080fd5b806337deea70116101c957806350355d761161018d57806350355d761461042057806356891412146104295780635a3e251f146104325780636e1248881461043b5780636e27d8891461044e57600080fd5b806337deea7014610385578063395093511461038d5780633e47158c146103a0578063497dfe63146103cb5780634a4fbeec146103e057600080fd5b806323b872dd1161021057806323b872dd146102d0578063259a28cf146102e357806327764547146102ed578063313ce5671461030d57806335aa2e441461031c57600080fd5b806306fdde031461024d578063095ea7b31461026b578063180aedf31461028e57806318160ddd146102bf57806320d3a0b4146102c7575b600080fd5b6102556105f0565b60405161026291906119e2565b60405180910390f35b61027e610279366004611a48565b610682565b6040519015158152602001610262565b6102b161029c366004611a72565b606f6020526000908152604090206001015481565b604051908152602001610262565b6035546102b1565b6102b1606d5481565b61027e6102de366004611a8b565b61069c565b6102b16212750081565b6102b16102fb366004611ac7565b60716020526000908152604090205481565b60405160128152602001610262565b61035b61032a366004611a72565b60706020526000908152604090208054600182015460028301546003909301546001600160a01b0390921692909184565b604080516001600160a01b0390951685526020850193909352918301526060820152608001610262565b6102b16106c0565b61027e61039b366004611a48565b610733565b6066546103b3906001600160a01b031681565b6040516001600160a01b039091168152602001610262565b6103de6103d9366004611ae9565b610772565b005b61027e6103ee366004611ac7565b6001600160a01b0316600090815260716020908152604080832054606954908452607090925290912060010154101590565b6102b160725481565b6102b1606c5481565b6102b1606a5481565b6103de610449366004611bec565b6108f1565b6103de61045c366004611a72565b610a96565b6102b161046f366004611ac7565b6001600160a01b031660009081526033602052604090205490565b6103de610498366004611a72565b610aa3565b6102b1606b5481565b6102b160675481565b610255610d17565b6102b160685481565b6102b16104ce366004611a72565b610d26565b6065546103b3906001600160a01b031681565b6102b160755481565b6103de6104fd366004611cda565b610eb4565b61027e610510366004611a48565b61103d565b61027e610523366004611a48565b6110cf565b6102b160745481565b61054461053f366004611a72565b6110dd565b60408051931515845260208401929092526001600160a01b031690820152606001610262565b6102b1610578366004611a72565b606e6020526000908152604090205481565b6103de610598366004611ac7565b6111e5565b6102b160695481565b6102b16105b4366004611d17565b6001600160a01b03918216600090815260346020908152604080832093909416825291909152205490565b6103de611260565b6102b160735481565b6060603680546105ff90611d4a565b80601f016020809104026020016040519081016040528092919081815260200182805461062b90611d4a565b80156106785780601f1061064d57610100808354040283529160200191610678565b820191906000526020600020905b81548152906001019060200180831161065b57829003601f168201915b5050505050905090565b600033610690818585611366565b60019150505b92915050565b6000336106aa85828561148a565b6106b5858585611516565b506001949350505050565b606554604080516348f1712960e11b815290516000926001600160a01b0316916391e2e2529160048083019260209291908290030181865afa15801561070a573d6000803e3d6000fd5b505050506040513d601f19601f8201168201806040525081019061072e9190611d84565b905090565b3360008181526034602090815260408083206001600160a01b0387168452909152812054909190610690908290869061076d908790611db3565b611366565b33600090815260336020526040902054811115801561079357506069548110155b6107e45760405162461bcd60e51b815260206004820152601b60248201527f496e73756666696369656e7420746f6b656e2062616c616e63652e000000000060448201526064015b60405180910390fd5b33600090815260716020526040902054156108565760405162461bcd60e51b815260206004820152602c60248201527f56616c696461746f7220616c726561647920637265617465642077697468207460448201526b686973206163636f756e742160a01b60648201526084016107db565b6040805160808101825233808252600060208084018281528486018381526060860189815260748054865260708552888620975188546001600160a01b0319166001600160a01b039091161788559251600188015590516002870155516003909501949094559254828252607190935292909220556069546108d891906116e4565b607480549060006108e883611dc6565b91905055505050565b6065546001600160a01b0316331461091b5760405162461bcd60e51b81526004016107db90611ddf565b606a54606b541061094b57606754606854111561094b576002606860008282546109459190611e25565b90915550505b600080865160000361097057826068546109659190611db3565b9150600090506109bf565b6064836068546109809190611db3565b61098b906019611e47565b6109959190611e25565b91506064836068546109a79190611db3565b6109b290604b611e47565b6109bc9190611e25565b90505b60005b8451811015610a02576109fa8582815181106109e0576109e0611e5e565b60200260200101518651856109f59190611e25565b611865565b6001016109c2565b50865115610a785760005b8751811015610a765760008683898481518110610a2c57610a2c611e5e565b6020026020010151610a3e9190611e47565b610a489190611e25565b9050610a6d898381518110610a5f57610a5f611e5e565b602002602001015182611865565b50600101610a0d565b505b606b8054906000610a8883611dc6565b919050555050505050505050565b610aa033826116e4565b50565b3360009081526071602052604090205480610b005760405162461bcd60e51b815260206004820152601b60248201527f4e6f74206120726567697374657265642076616c696461746f722e000000000060448201526064016107db565b60008181526070602052604090206001810154831115610b625760405162461bcd60e51b815260206004820152601e60248201527f416d6f756e742065786365656473206c6f636b65642062616c616e63652e000060448201526064016107db565b60008311610b825760405162461bcd60e51b81526004016107db90611e74565b8060020154600003610c665760695481600101541015610bfa576065546040516340a141ff60e01b81523360048201526001600160a01b03909116906340a141ff90602401600060405180830381600087803b158015610be157600080fd5b505af1158015610bf5573d6000803e3d6000fd5b505050505b606d54610c079042611db3565b816002018190555082606c6000828254610c219190611eb5565b9091555050600281015460405190815233907f77635f8f13ee1a01d11246347c649817c6ee9fa7620ce4c6adfa2452bfa162b2906020015b60405180910390a2505050565b8060020154421015610cba5760405162461bcd60e51b815260206004820152601860248201527f546f6b656e7320617265207374696c6c206c6f636b65642e000000000000000060448201526064016107db565b82816001016000828254610cce9190611eb5565b90915550610cdf905030338561069c565b5060405183815233907fe7b379c6c1fa169e9079c25e9143b127637eef8ec8c9d5c06ddb4ab3e119588890602001610c59565b505050565b6060603780546105ff90611d4a565b6065546000906001600160a01b03163314610d535760405162461bcd60e51b81526004016107db90611ddf565b6000828152606e602052604081205490819003610dc15760728054906000610d7a83611dc6565b909155505060408051828152602081018590527f45c386dc6524a2d9fe630455323c6a39f557c52ab01e886deee20a0b538147ac910160405180910390a150600092915050565b6000818152606f60209081526040808320815181546060948102820185018452928101838152909391928492849190840182828015610e1f57602002820191906000526020600020905b815481526020019060010190808311610e0b575b505050918352505060019190910154602091820152818101516000858152606f909252604082209293509190610e5582826119b0565b506000600191909101819055858152606e602090815260408083209290925581518581529081018790527f45c386dc6524a2d9fe630455323c6a39f557c52ab01e886deee20a0b538147ac910160405180910390a1925050505b919050565b600054610100900460ff16610ecf5760005460ff1615610ed3565b303b155b610f365760405162461bcd60e51b815260206004820152602e60248201527f496e697469616c697a61626c653a20636f6e747261637420697320616c72656160448201526d191e481a5b9a5d1a585b1a5e995960921b60648201526084016107db565b600054610100900460ff16158015610f58576000805461ffff19166101011790555b610f9f6040518060400160405280600a815260200169536d6172746e6f64657360b01b81525060405180604001604052806003815260200162534e4f60e81b815250611944565b606680546001600160a01b03191633179055686f05b59d3b200000006068556969e10de76676d0800000606955612226606a556000606b81905562127500606d556001607281905560748190556073555b82518110156110265761101e83828151811061100e5761100e611e5e565b6020026020010151606954611865565b600101610ff0565b508015611039576000805461ff00191690555b5050565b3360008181526034602090815260408083206001600160a01b0387168452909152812054909190838110156110c25760405162461bcd60e51b815260206004820152602560248201527f45524332303a2064656372656173656420616c6c6f77616e63652062656c6f77604482015264207a65726f60d81b60648201526084016107db565b6106b58286868403611366565b600033610690818585611516565b600080600060745484106111215760405162461bcd60e51b815260206004820152600b60248201526a24b73b30b634b21024a21760a91b60448201526064016107db565b6000848152607060209081526040808320815160808101835281546001600160a01b0390811680835260018401549583019590955260028301548285015260039092015460608201526065549251631015428760e21b8152600481019490945293929116906340550a1c90602401602060405180830381865afa1580156111ac573d6000803e3d6000fd5b505050506040513d601f19601f820116820180604052508101906111d09190611ec8565b60608301519251909792965094509092505050565b6065546001600160a01b03161561123e5760405162461bcd60e51b815260206004820152601e60248201527f56616c696461746f72206164647265737320616c7265616479207365742e000060448201526064016107db565b606580546001600160a01b0319166001600160a01b0392909216919091179055565b6066546001600160a01b031633146112ba5760405162461bcd60e51b815260206004820152601f60248201527f43616c6c6572206d757374206265207468652070726f78792061646d696e2e0060448201526064016107db565b6002606760008282546112cd9190611e25565b925050819055506002606860008282546112e79190611e25565b925050819055506002606a60008282546113019190611e47565b90915550506065546040805163762193b960e11b815290516001600160a01b039092169163ec4327729160048082019260009290919082900301818387803b15801561134c57600080fd5b505af1158015611360573d6000803e3d6000fd5b50505050565b6001600160a01b0383166113c85760405162461bcd60e51b8152602060048201526024808201527f45524332303a20617070726f76652066726f6d20746865207a65726f206164646044820152637265737360e01b60648201526084016107db565b6001600160a01b0382166114295760405162461bcd60e51b815260206004820152602260248201527f45524332303a20617070726f766520746f20746865207a65726f206164647265604482015261737360f01b60648201526084016107db565b6001600160a01b0383811660008181526034602090815260408083209487168084529482529182902085905590518481527f8c5be1e5ebec7d5bd14f71427d1e84f3dd0314c0f7b2291e5b200ac8c7c3b925910160405180910390a3505050565b6001600160a01b03838116600090815260346020908152604080832093861683529290522054600019811461136057818110156115095760405162461bcd60e51b815260206004820152601d60248201527f45524332303a20696e73756666696369656e7420616c6c6f77616e636500000060448201526064016107db565b6113608484848403611366565b6001600160a01b03831661157a5760405162461bcd60e51b815260206004820152602560248201527f45524332303a207472616e736665722066726f6d20746865207a65726f206164604482015264647265737360d81b60648201526084016107db565b6001600160a01b0382166115dc5760405162461bcd60e51b815260206004820152602360248201527f45524332303a207472616e7366657220746f20746865207a65726f206164647260448201526265737360e81b60648201526084016107db565b6001600160a01b038316600090815260336020526040902054818110156116545760405162461bcd60e51b815260206004820152602660248201527f45524332303a207472616e7366657220616d6f756e7420657863656564732062604482015265616c616e636560d01b60648201526084016107db565b6001600160a01b0380851660009081526033602052604080822085850390559185168152908120805484929061168b908490611db3565b92505081905550826001600160a01b0316846001600160a01b03167fddf252ad1be2c89b69c2b068fc378daa952ba7f163c4a11628f55a4df523b3ef846040516116d791815260200190565b60405180910390a3611360565b600081116117045760405162461bcd60e51b81526004016107db90611e74565b80611724836001600160a01b031660009081526033602052604090205490565b101561176a5760405162461bcd60e51b815260206004820152601560248201527424b739bab33334b1b4b2b73a103130b630b731b29760591b60448201526064016107db565b6001600160a01b038216600090815260716020526040812054908190036117d35760405162461bcd60e51b815260206004820152601960248201527f56616c696461746f7220646f6573206e6f742065786973742e0000000000000060448201526064016107db565b6117de83308461069c565b5060008181526070602052604081206001018054849290611800908490611db3565b9250508190555081606c60008282546118199190611db3565b9091555050604080516001600160a01b0385168152602081018490527fac87f20a77d28ee8bbb58ec87ea8fa968b3393efae1a368fd50b767c2847391c910160405180910390a1505050565b6001600160a01b0382166118bb5760405162461bcd60e51b815260206004820152601f60248201527f45524332303a206d696e7420746f20746865207a65726f20616464726573730060448201526064016107db565b80603560008282546118cd9190611db3565b90915550506001600160a01b038216600090815260336020526040812080548392906118fa908490611db3565b90915550506040518181526001600160a01b038316906000907fddf252ad1be2c89b69c2b068fc378daa952ba7f163c4a11628f55a4df523b3ef9060200160405180910390a35050565b600054610100900460ff1661196b5760405162461bcd60e51b81526004016107db90611eea565b6110398282600054610100900460ff166119975760405162461bcd60e51b81526004016107db90611eea565b60366119a38382611f85565b506037610d128282611f85565b5080546000825590600052602060002090810190610aa091905b808211156119de57600081556001016119ca565b5090565b60006020808352835180602085015260005b81811015611a10578581018301518582016040015282016119f4565b506000604082860101526040601f19601f8301168501019250505092915050565b80356001600160a01b0381168114610eaf57600080fd5b60008060408385031215611a5b57600080fd5b611a6483611a31565b946020939093013593505050565b600060208284031215611a8457600080fd5b5035919050565b600080600060608486031215611aa057600080fd5b611aa984611a31565b9250611ab760208501611a31565b9150604084013590509250925092565b600060208284031215611ad957600080fd5b611ae282611a31565b9392505050565b60008060408385031215611afc57600080fd5b50508035926020909101359150565b634e487b7160e01b600052604160045260246000fd5b604051601f8201601f1916810167ffffffffffffffff81118282101715611b4a57611b4a611b0b565b604052919050565b600067ffffffffffffffff821115611b6c57611b6c611b0b565b5060051b60200190565b600082601f830112611b8757600080fd5b81356020611b9c611b9783611b52565b611b21565b8083825260208201915060208460051b870101935086841115611bbe57600080fd5b602086015b84811015611be157611bd481611a31565b8352918301918301611bc3565b509695505050505050565b600080600080600060a08688031215611c0457600080fd5b853567ffffffffffffffff80821115611c1c57600080fd5b611c2889838a01611b76565b9650602091508188013581811115611c3f57600080fd5b8801601f81018a13611c5057600080fd5b8035611c5e611b9782611b52565b81815260059190911b8201840190848101908c831115611c7d57600080fd5b928501925b82841015611c9b57833582529285019290850190611c82565b9850505050604088013594506060880135915080821115611cbb57600080fd5b50611cc888828901611b76565b95989497509295608001359392505050565b600060208284031215611cec57600080fd5b813567ffffffffffffffff811115611d0357600080fd5b611d0f84828501611b76565b949350505050565b60008060408385031215611d2a57600080fd5b611d3383611a31565b9150611d4160208401611a31565b90509250929050565b600181811c90821680611d5e57607f821691505b602082108103611d7e57634e487b7160e01b600052602260045260246000fd5b50919050565b600060208284031215611d9657600080fd5b5051919050565b634e487b7160e01b600052601160045260246000fd5b8082018082111561069657610696611d9d565b600060018201611dd857611dd8611d9d565b5060010190565b60208082526026908201527f43616c6c6572206d7573742062652074686520536d6172746e6f6465734d756c6040820152653a34a9b4b39760d11b606082015260800190565b600082611e4257634e487b7160e01b600052601260045260246000fd5b500490565b808202811582820484141761069657610696611d9d565b634e487b7160e01b600052603260045260246000fd5b60208082526021908201527f416d6f756e74206d7573742062652067726561746572207468616e207a65726f6040820152601760f91b606082015260800190565b8181038181111561069657610696611d9d565b600060208284031215611eda57600080fd5b81518015158114611ae257600080fd5b6020808252602b908201527f496e697469616c697a61626c653a20636f6e7472616374206973206e6f74206960408201526a6e697469616c697a696e6760a81b606082015260800190565b601f821115610d12576000816000526020600020601f850160051c81016020861015611f5e5750805b601f850160051c820191505b81811015611f7d57828155600101611f6a565b505050505050565b815167ffffffffffffffff811115611f9f57611f9f611b0b565b611fb381611fad8454611d4a565b84611f35565b602080601f831160018114611fe85760008415611fd05750858301515b600019600386901b1c1916600185901b178555611f7d565b600085815260208120601f198616915b8281101561201757888601518255948401946001909101908401611ff8565b50858210156120355787850151600019600388901b60f8161c191681555b5050505050600190811b0190555056fea264697066735822122003d4216c9ab17f45f147469e6f13a3968e6927569684e83cd2c5e0d58a7b506c64736f6c63430008190033",
  "bytecodeSha1": "a7c80f59b53663767489f90a3d1f2ead1bebef1c",
  "compiler": {
    "evm_version": "istanbul",
    "optimizer": {
      "enabled": true,
      "runs": 200
    },
    "version": "0.8.25+commit.b61c2a91"
  },
  "contractName": "SmartnodesCore",
  "language": "Solidity",
  "natspec": {
    "kind": "dev",
    "methods": {
      "allowance(address,address)": {
        "details": "See {IERC20-allowance}."
      },
      "approve(address,uint256)": {
        "details": "See {IERC20-approve}. NOTE: If `amount` is the maximum `uint256`, the allowance is not updated on `transferFrom`. This is semantically equivalent to an infinite approval. Requirements: - `spender` cannot be the zero address."
      },
      "balanceOf(address)": {
        "details": "See {IERC20-balanceOf}."
      },
      "decimals()": {
        "details": "Returns the number of decimals used to get its user representation. For example, if `decimals` equals `2`, a balance of `505` tokens should be displayed to a user as `5.05` (`505 / 10 ** 2`). Tokens usually opt for a value of 18, imitating the relationship between Ether and Wei. This is the value {ERC20} uses, unless this function is overridden; NOTE: This information is only used for _display_ purposes: it in no way affects any of the arithmetic of the contract, including {IERC20-balanceOf} and {IERC20-transfer}."
      },
      "decreaseAllowance(address,uint256)": {
        "details": "Atomically decreases the allowance granted to `spender` by the caller. This is an alternative to {approve} that can be used as a mitigation for problems described in {IERC20-approve}. Emits an {Approval} event indicating the updated allowance. Requirements: - `spender` cannot be the zero address. - `spender` must have allowance for the caller of at least `subtractedValue`."
      },
      "increaseAllowance(address,uint256)": {
        "details": "Atomically increases the allowance granted to `spender` by the caller. This is an alternative to {approve} that can be used as a mitigation for problems described in {IERC20-approve}. Emits an {Approval} event indicating the updated allowance. Requirements: - `spender` cannot be the zero address."
      },
      "name()": {
        "details": "Returns the name of the token."
      },
      "symbol()": {
        "details": "Returns the symbol of the token, usually a shorter version of the name."
      },
      "totalSupply()": {
        "details": "See {IERC20-totalSupply}."
      },
      "transfer(address,uint256)": {
        "details": "See {IERC20-transfer}. Requirements: - `to` cannot be the zero address. - the caller must have a balance of at least `amount`."
      },
      "transferFrom(address,address,uint256)": {
        "details": "See {IERC20-transferFrom}. Emits an {Approval} event indicating the updated allowance. This is not required by the EIP. See the note at the beginning of {ERC20}. NOTE: Does not update the allowance if the current allowance is the maximum `uint256`. Requirements: - `from` and `to` cannot be the zero address. - `from` must have a balance of at least `amount`. - the caller must have allowance for ``from``'s tokens of at least `amount`."
      }
    },
    "version": 1
  },
  "opcodes": "PUSH1 0x80 PUSH1 0x40 MSTORE CALLVALUE DUP1 ISZERO PUSH2 0x10 JUMPI PUSH1 0x0 DUP1 REVERT JUMPDEST POP PUSH1 0x4 CALLDATASIZE LT PUSH2 0x248 JUMPI PUSH1 0x0 CALLDATALOAD PUSH1 0xE0 SHR DUP1 PUSH4 0x70A08231 GT PUSH2 0x13B JUMPI DUP1 PUSH4 0xA457C2D7 GT PUSH2 0xB8 JUMPI DUP1 PUSH4 0xCDF64A76 GT PUSH2 0x7C JUMPI DUP1 PUSH4 0xCDF64A76 EQ PUSH2 0x58A JUMPI DUP1 PUSH4 0xD8DF5DC1 EQ PUSH2 0x59D JUMPI DUP1 PUSH4 0xDD62ED3E EQ PUSH2 0x5A6 JUMPI DUP1 PUSH4 0xEABD4BD7 EQ PUSH2 0x5DF JUMPI DUP1 PUSH4 0xF0C37A59 EQ PUSH2 0x5E7 JUMPI PUSH1 0x0 DUP1 REVERT JUMPDEST DUP1 PUSH4 0xA457C2D7 EQ PUSH2 0x502 JUMPI DUP1 PUSH4 0xA9059CBB EQ PUSH2 0x515 JUMPI DUP1 PUSH4 0xAB051190 EQ PUSH2 0x528 JUMPI DUP1 PUSH4 0xB7797537 EQ PUSH2 0x531 JUMPI DUP1 PUSH4 0xB8D4090D EQ PUSH2 0x56A JUMPI PUSH1 0x0 DUP1 REVERT JUMPDEST DUP1 PUSH4 0x96AFC450 GT PUSH2 0xFF JUMPI DUP1 PUSH4 0x96AFC450 EQ PUSH2 0x4B7 JUMPI DUP1 PUSH4 0x991E0139 EQ PUSH2 0x4C0 JUMPI DUP1 PUSH4 0x99439089 EQ PUSH2 0x4D3 JUMPI DUP1 PUSH4 0xA21BC3FB EQ PUSH2 0x4E6 JUMPI DUP1 PUSH4 0xA224CEE7 EQ PUSH2 0x4EF JUMPI PUSH1 0x0 DUP1 REVERT JUMPDEST DUP1 PUSH4 0x70A08231 EQ PUSH2 0x461 JUMPI DUP1 PUSH4 0x7C405325 EQ PUSH2 0x48A JUMPI DUP1 PUSH4 0x88EF046D EQ PUSH2 0x49D JUMPI DUP1 PUSH4 0x95B84BC2 EQ PUSH2 0x4A6 JUMPI DUP1 PUSH4 0x95D89B41 EQ PUSH2 0x4AF JUMPI PUSH1 0x0 DUP1 REVERT JUMPDEST DUP1 PUSH4 0x37DEEA70 GT PUSH2 0x1C9 JUMPI DUP1 PUSH4 0x50355D76 GT PUSH2 0x18D JUMPI DUP1 PUSH4 0x50355D76 EQ PUSH2 0x420 JUMPI DUP1 PUSH4 0x56891412 EQ PUSH2 0x429 JUMPI DUP1 PUSH4 0x5A3E251F EQ PUSH2 0x432 JUMPI DUP1 PUSH4 0x6E124888 EQ PUSH2 0x43B JUMPI DUP1 PUSH4 0x6E27D889 EQ PUSH2 0x44E JUMPI PUSH1 0x0 DUP1 REVERT JUMPDEST DUP1 PUSH4 0x37DEEA70 EQ PUSH2 0x385 JUMPI DUP1 PUSH4 0x39509351 EQ PUSH2 0x38D JUMPI DUP1 PUSH4 0x3E47158C EQ PUSH2 0x3A0 JUMPI DUP1 PUSH4 0x497DFE63 EQ PUSH2 0x3CB JUMPI DUP1 PUSH4 0x4A4FBEEC EQ PUSH2 0x3E0 JUMPI PUSH1 0x0 DUP1 REVERT JUMPDEST DUP1 PUSH4 0x23B872DD GT PUSH2 0x210 JUMPI DUP1 PUSH4 0x23B872DD EQ PUSH2 0x2D0 JUMPI DUP1 PUSH4 0x259A28CF EQ PUSH2 0x2E3 JUMPI DUP1 PUSH4 0x27764547 EQ PUSH2 0x2ED JUMPI DUP1 PUSH4 0x313CE567 EQ PUSH2 0x30D JUMPI DUP1 PUSH4 0x35AA2E44 EQ PUSH2 0x31C JUMPI PUSH1 0x0 DUP1 REVERT JUMPDEST DUP1 PUSH4 0x6FDDE03 EQ PUSH2 0x24D JUMPI DUP1 PUSH4 0x95EA7B3 EQ PUSH2 0x26B JUMPI DUP1 PUSH4 0x180AEDF3 EQ PUSH2 0x28E JUMPI DUP1 PUSH4 0x18160DDD EQ PUSH2 0x2BF JUMPI DUP1 PUSH4 0x20D3A0B4 EQ PUSH2 0x2C7 JUMPI JUMPDEST PUSH1 0x0 DUP1 REVERT JUMPDEST PUSH2 0x255 PUSH2 0x5F0 JUMP JUMPDEST PUSH1 0x40 MLOAD PUSH2 0x262 SWAP2 SWAP1 PUSH2 0x19E2 JUMP JUMPDEST PUSH1 0x40 MLOAD DUP1 SWAP2 SUB SWAP1 RETURN JUMPDEST PUSH2 0x27E PUSH2 0x279 CALLDATASIZE PUSH1 0x4 PUSH2 0x1A48 JUMP JUMPDEST PUSH2 0x682 JUMP JUMPDEST PUSH1 0x40 MLOAD SWAP1 ISZERO ISZERO DUP2 MSTORE PUSH1 0x20 ADD PUSH2 0x262 JUMP JUMPDEST PUSH2 0x2B1 PUSH2 0x29C CALLDATASIZE PUSH1 0x4 PUSH2 0x1A72 JUMP JUMPDEST PUSH1 0x6F PUSH1 0x20 MSTORE PUSH1 0x0 SWAP1 DUP2 MSTORE PUSH1 0x40 SWAP1 KECCAK256 PUSH1 0x1 ADD SLOAD DUP2 JUMP JUMPDEST PUSH1 0x40 MLOAD SWAP1 DUP2 MSTORE PUSH1 0x20 ADD PUSH2 0x262 JUMP JUMPDEST PUSH1 0x35 SLOAD PUSH2 0x2B1 JUMP JUMPDEST PUSH2 0x2B1 PUSH1 0x6D SLOAD DUP2 JUMP JUMPDEST PUSH2 0x27E PUSH2 0x2DE CALLDATASIZE PUSH1 0x4 PUSH2 0x1A8B JUMP JUMPDEST PUSH2 0x69C JUMP JUMPDEST PUSH2 0x2B1 PUSH3 0x127500 DUP2 JUMP JUMPDEST PUSH2 0x2B1 PUSH2 0x2FB CALLDATASIZE PUSH1 0x4 PUSH2 0x1AC7 JUMP JUMPDEST PUSH1 0x71 PUSH1 0x20 MSTORE PUSH1 0x0 SWAP1 DUP2 MSTORE PUSH1 0x40 SWAP1 KECCAK256 SLOAD DUP2 JUMP JUMPDEST PUSH1 0x40 MLOAD PUSH1 0x12 DUP2 MSTORE PUSH1 0x20 ADD PUSH2 0x262 JUMP JUMPDEST PUSH2 0x35B PUSH2 0x32A CALLDATASIZE PUSH1 0x4 PUSH2 0x1A72 JUMP JUMPDEST PUSH1 0x70 PUSH1 0x20 MSTORE PUSH1 0x0 SWAP1 DUP2 MSTORE PUSH1 0x40 SWAP1 KECCAK256 DUP1 SLOAD PUSH1 0x1 DUP3 ADD SLOAD PUSH1 0x2 DUP4 ADD SLOAD PUSH1 0x3 SWAP1 SWAP4 ADD SLOAD PUSH1 0x1 PUSH1 0x1 PUSH1 0xA0 SHL SUB SWAP1 SWAP3 AND SWAP3 SWAP1 SWAP2 DUP5 JUMP JUMPDEST PUSH1 0x40 DUP1 MLOAD PUSH1 0x1 PUSH1 0x1 PUSH1 0xA0 SHL SUB SWAP1 SWAP6 AND DUP6 MSTORE PUSH1 0x20 DUP6 ADD SWAP4 SWAP1 SWAP4 MSTORE SWAP2 DUP4 ADD MSTORE PUSH1 0x60 DUP3 ADD MSTORE PUSH1 0x80 ADD PUSH2 0x262 JUMP JUMPDEST PUSH2 0x2B1 PUSH2 0x6C0 JUMP JUMPDEST PUSH2 0x27E PUSH2 0x39B CALLDATASIZE PUSH1 0x4 PUSH2 0x1A48 JUMP JUMPDEST PUSH2 0x733 JUMP JUMPDEST PUSH1 0x66 SLOAD PUSH2 0x3B3 SWAP1 PUSH1 0x1 PUSH1 0x1 PUSH1 0xA0 SHL SUB AND DUP2 JUMP JUMPDEST PUSH1 0x40 MLOAD PUSH1 0x1 PUSH1 0x1 PUSH1 0xA0 SHL SUB SWAP1 SWAP2 AND DUP2 MSTORE PUSH1 0x20 ADD PUSH2 0x262 JUMP JUMPDEST PUSH2 0x3DE PUSH2 0x3D9 CALLDATASIZE PUSH1 0x4 PUSH2 0x1AE9 JUMP JUMPDEST PUSH2 0x772 JUMP JUMPDEST STOP JUMPDEST PUSH2 0x27E PUSH2 0x3EE CALLDATASIZE PUSH1 0x4 PUSH2 0x1AC7 JUMP JUMPDEST PUSH1 0x1 PUSH1 0x1 PUSH1 0xA0 SHL SUB AND PUSH1 0x0 SWAP1 DUP2 MSTORE PUSH1 0x71 PUSH1 0x20 SWAP1 DUP2 MSTORE PUSH1 0x40 DUP1 DUP4 KECCAK256 SLOAD PUSH1 0x69 SLOAD SWAP1 DUP5 MSTORE PUSH1 0x70 SWAP1 SWAP3 MSTORE SWAP1 SWAP2 KECCAK256 PUSH1 0x1 ADD SLOAD LT ISZERO SWAP1 JUMP JUMPDEST PUSH2 0x2B1 PUSH1 0x72 SLOAD DUP2 JUMP JUMPDEST PUSH2 0x2B1 PUSH1 0x6C SLOAD DUP2 JUMP JUMPDEST PUSH2 0x2B1 PUSH1 0x6A SLOAD DUP2 JUMP JUMPDEST PUSH2 0x3DE PUSH2 0x449 CALLDATASIZE PUSH1 0x4 PUSH2 0x1BEC JUMP JUMPDEST PUSH2 0x8F1 JUMP JUMPDEST PUSH2 0x3DE PUSH2 0x45C CALLDATASIZE PUSH1 0x4 PUSH2 0x1A72 JUMP JUMPDEST PUSH2 0xA96 JUMP JUMPDEST PUSH2 0x2B1 PUSH2 0x46F CALLDATASIZE PUSH1 0x4 PUSH2 0x1AC7 JUMP JUMPDEST PUSH1 0x1 PUSH1 0x1 PUSH1 0xA0 SHL SUB AND PUSH1 0x0 SWAP1 DUP2 MSTORE PUSH1 0x33 PUSH1 0x20 MSTORE PUSH1 0x40 SWAP1 KECCAK256 SLOAD SWAP1 JUMP JUMPDEST PUSH2 0x3DE PUSH2 0x498 CALLDATASIZE PUSH1 0x4 PUSH2 0x1A72 JUMP JUMPDEST PUSH2 0xAA3 JUMP JUMPDEST PUSH2 0x2B1 PUSH1 0x6B SLOAD DUP2 JUMP JUMPDEST PUSH2 0x2B1 PUSH1 0x67 SLOAD DUP2 JUMP JUMPDEST PUSH2 0x255 PUSH2 0xD17 JUMP JUMPDEST PUSH2 0x2B1 PUSH1 0x68 SLOAD DUP2 JUMP JUMPDEST PUSH2 0x2B1 PUSH2 0x4CE CALLDATASIZE PUSH1 0x4 PUSH2 0x1A72 JUMP JUMPDEST PUSH2 0xD26 JUMP JUMPDEST PUSH1 0x65 SLOAD PUSH2 0x3B3 SWAP1 PUSH1 0x1 PUSH1 0x1 PUSH1 0xA0 SHL SUB AND DUP2 JUMP JUMPDEST PUSH2 0x2B1 PUSH1 0x75 SLOAD DUP2 JUMP JUMPDEST PUSH2 0x3DE PUSH2 0x4FD CALLDATASIZE PUSH1 0x4 PUSH2 0x1CDA JUMP JUMPDEST PUSH2 0xEB4 JUMP JUMPDEST PUSH2 0x27E PUSH2 0x510 CALLDATASIZE PUSH1 0x4 PUSH2 0x1A48 JUMP JUMPDEST PUSH2 0x103D JUMP JUMPDEST PUSH2 0x27E PUSH2 0x523 CALLDATASIZE PUSH1 0x4 PUSH2 0x1A48 JUMP JUMPDEST PUSH2 0x10CF JUMP JUMPDEST PUSH2 0x2B1 PUSH1 0x74 SLOAD DUP2 JUMP JUMPDEST PUSH2 0x544 PUSH2 0x53F CALLDATASIZE PUSH1 0x4 PUSH2 0x1A72 JUMP JUMPDEST PUSH2 0x10DD JUMP JUMPDEST PUSH1 0x40 DUP1 MLOAD SWAP4 ISZERO ISZERO DUP5 MSTORE PUSH1 0x20 DUP5 ADD SWAP3 SWAP1 SWAP3 MSTORE PUSH1 0x1 PUSH1 0x1 PUSH1 0xA0 SHL SUB AND SWAP1 DUP3 ADD MSTORE PUSH1 0x60 ADD PUSH2 0x262 JUMP JUMPDEST PUSH2 0x2B1 PUSH2 0x578 CALLDATASIZE PUSH1 0x4 PUSH2 0x1A72 JUMP JUMPDEST PUSH1 0x6E PUSH1 0x20 MSTORE PUSH1 0x0 SWAP1 DUP2 MSTORE PUSH1 0x40 SWAP1 KECCAK256 SLOAD DUP2 JUMP JUMPDEST PUSH2 0x3DE PUSH2 0x598 CALLDATASIZE PUSH1 0x4 PUSH2 0x1AC7 JUMP JUMPDEST PUSH2 0x11E5 JUMP JUMPDEST PUSH2 0x2B1 PUSH1 0x69 SLOAD DUP2 JUMP JUMPDEST PUSH2 0x2B1 PUSH2 0x5B4 CALLDATASIZE PUSH1 0x4 PUSH2 0x1D17 JUMP JUMPDEST PUSH1 0x1 PUSH1 0x1 PUSH1 0xA0 SHL SUB SWAP2 DUP3 AND PUSH1 0x0 SWAP1 DUP2 MSTORE PUSH1 0x34 PUSH1 0x20 SWAP1 DUP2 MSTORE PUSH1 0x40 DUP1 DUP4 KECCAK256 SWAP4 SWAP1 SWAP5 AND DUP3 MSTORE SWAP2 SWAP1 SWAP2 MSTORE KECCAK256 SLOAD SWAP1 JUMP JUMPDEST PUSH2 0x3DE PUSH2 0x1260 JUMP JUMPDEST PUSH2 0x2B1 PUSH1 0x73 SLOAD DUP2 JUMP JUMPDEST PUSH1 0x60 PUSH1 0x36 DUP1 SLOAD PUSH2 0x5FF SWAP1 PUSH2 0x1D4A JUMP JUMPDEST DUP1 PUSH1 0x1F ADD PUSH1 0x20 DUP1 SWAP2 DIV MUL PUSH1 0x20 ADD PUSH1 0x40 MLOAD SWAP1 DUP2 ADD PUSH1 0x40 MSTORE DUP1 SWAP3 SWAP2 SWAP1 DUP2 DUP2 MSTORE PUSH1 0x20 ADD DUP3 DUP1 SLOAD PUSH2 0x62B SWAP1 PUSH2 0x1D4A JUMP JUMPDEST DUP1 ISZERO PUSH2 0x678 JUMPI DUP1 PUSH1 0x1F LT PUSH2 0x64D JUMPI PUSH2 0x100 DUP1 DUP4 SLOAD DIV MUL DUP4 MSTORE SWAP2 PUSH1 0x20 ADD SWAP2 PUSH2 0x678 JUMP JUMPDEST DUP3 ADD SWAP2 SWAP1 PUSH1 0x0 MSTORE PUSH1 0x20 PUSH1 0x0 KECCAK256 SWAP1 JUMPDEST DUP2 SLOAD DUP2 MSTORE SWAP1 PUSH1 0x1 ADD SWAP1 PUSH1 0x20 ADD DUP1 DUP4 GT PUSH2 0x65B JUMPI DUP3 SWAP1 SUB PUSH1 0x1F AND DUP3 ADD SWAP2 JUMPDEST POP POP POP POP POP SWAP1 POP SWAP1 JUMP JUMPDEST PUSH1 0x0 CALLER PUSH2 0x690 DUP2 DUP6 DUP6 PUSH2 0x1366 JUMP JUMPDEST PUSH1 0x1 SWAP2 POP POP JUMPDEST SWAP3 SWAP2 POP POP JUMP JUMPDEST PUSH1 0x0 CALLER PUSH2 0x6AA DUP6 DUP3 DUP6 PUSH2 0x148A JUMP JUMPDEST PUSH2 0x6B5 DUP6 DUP6 DUP6 PUSH2 0x1516 JUMP JUMPDEST POP PUSH1 0x1 SWAP5 SWAP4 POP POP POP POP JUMP JUMPDEST PUSH1 0x65 SLOAD PUSH1 0x40 DUP1 MLOAD PUSH4 0x48F17129 PUSH1 0xE1 SHL DUP2 MSTORE SWAP1 MLOAD PUSH1 0x0 SWAP3 PUSH1 0x1 PUSH1 0x1 PUSH1 0xA0 SHL SUB AND SWAP2 PUSH4 0x91E2E252 SWAP2 PUSH1 0x4 DUP1 DUP4 ADD SWAP3 PUSH1 0x20 SWAP3 SWAP2 SWAP1 DUP3 SWAP1 SUB ADD DUP2 DUP7 GAS STATICCALL ISZERO DUP1 ISZERO PUSH2 0x70A JUMPI RETURNDATASIZE PUSH1 0x0 DUP1 RETURNDATACOPY RETURNDATASIZE PUSH1 0x0 REVERT JUMPDEST POP POP POP POP PUSH1 0x40 MLOAD RETURNDATASIZE PUSH1 0x1F NOT PUSH1 0x1F DUP3 ADD AND DUP3 ADD DUP1 PUSH1 0x40 MSTORE POP DUP2 ADD SWAP1 PUSH2 0x72E SWAP2 SWAP1 PUSH2 0x1D84 JUMP JUMPDEST SWAP1 POP SWAP1 JUMP JUMPDEST CALLER PUSH1 0x0 DUP2 DUP2 MSTORE PUSH1 0x34 PUSH1 0x20 SWAP1 DUP2 MSTORE PUSH1 0x40 DUP1 DUP4 KECCAK256 PUSH1 0x1 PUSH1 0x1 PUSH1 0xA0 SHL SUB DUP8 AND DUP5 MSTORE SWAP1 SWAP2 MSTORE DUP2 KECCAK256 SLOAD SWAP1 SWAP2 SWAP1 PUSH2 0x690 SWAP1 DUP3 SWAP1 DUP7 SWAP1 PUSH2 0x76D SWAP1 DUP8 SWAP1 PUSH2 0x1DB3 JUMP JUMPDEST PUSH2 0x1366 JUMP JUMPDEST CALLER PUSH1 0x0 SWAP1 DUP2 MSTORE PUSH1 0x33 PUSH1 0x20 MSTORE PUSH1 0x40 SWAP1 KECCAK256 SLOAD DUP2 GT ISZERO DUP1 ISZERO PUSH2 0x793 JUMPI POP PUSH1 0x69 SLOAD DUP2 LT ISZERO JUMPDEST PUSH2 0x7E4 JUMPI PUSH1 0x40 MLOAD PUSH3 0x461BCD PUSH1 0xE5 SHL DUP2 MSTORE PUSH1 0x20 PUSH1 0x4 DUP3 ADD MSTORE PUSH1 0x1B PUSH1 0x24 DUP3 ADD MSTORE PUSH32 0x496E73756666696369656E7420746F6B656E2062616C616E63652E0000000000 PUSH1 0x44 DUP3 ADD MSTORE PUSH1 0x64 ADD JUMPDEST PUSH1 0x40 MLOAD DUP1 SWAP2 SUB SWAP1 REVERT JUMPDEST CALLER PUSH1 0x0 SWAP1 DUP2 MSTORE PUSH1 0x71 PUSH1 0x20 MSTORE PUSH1 0x40 SWAP1 KECCAK256 SLOAD ISZERO PUSH2 0x856 JUMPI PUSH1 0x40 MLOAD PUSH3 0x461BCD PUSH1 0xE5 SHL DUP2 MSTORE PUSH1 0x20 PUSH1 0x4 DUP3 ADD MSTORE PUSH1 0x2C PUSH1 0x24 DUP3 ADD MSTORE PUSH32 0x56616C696461746F7220616C7265616479206372656174656420776974682074 PUSH1 0x44 DUP3 ADD MSTORE PUSH12 0x686973206163636F756E7421 PUSH1 0xA0 SHL PUSH1 0x64 DUP3 ADD MSTORE PUSH1 0x84 ADD PUSH2 0x7DB JUMP JUMPDEST PUSH1 0x40 DUP1 MLOAD PUSH1 0x80 DUP2 ADD DUP3 MSTORE CALLER DUP1 DUP3 MSTORE PUSH1 0x0 PUSH1 0x20 DUP1 DUP5 ADD DUP3 DUP2 MSTORE DUP5 DUP7 ADD DUP4 DUP2 MSTORE PUSH1 0x60 DUP7 ADD DUP10 DUP2 MSTORE PUSH1 0x74 DUP1 SLOAD DUP7 MSTORE PUSH1 0x70 DUP6 MSTORE DUP9 DUP7 KECCAK256 SWAP8 MLOAD DUP9 SLOAD PUSH1 0x1 PUSH1 0x1 PUSH1 0xA0 SHL SUB NOT AND PUSH1 0x1 PUSH1 0x1 PUSH1 0xA0 SHL SUB SWAP1 SWAP2 AND OR DUP9 SSTORE SWAP3 MLOAD PUSH1 0x1 DUP9 ADD SSTORE SWAP1 MLOAD PUSH1 0x2 DUP8 ADD SSTORE MLOAD PUSH1 0x3 SWAP1 SWAP6 ADD SWAP5 SWAP1 SWAP5 SSTORE SWAP3 SLOAD DUP3 DUP3 MSTORE PUSH1 0x71 SWAP1 SWAP4 MSTORE SWAP3 SWAP1 SWAP3 KECCAK256 SSTORE PUSH1 0x69 SLOAD PUSH2 0x8D8 SWAP2 SWAP1 PUSH2 0x16E4 JUMP JUMPDEST PUSH1 0x74 DUP1 SLOAD SWAP1 PUSH1 0x0 PUSH2 0x8E8 DUP4 PUSH2 0x1DC6 JUMP JUMPDEST SWAP2 SWAP1 POP SSTORE POP POP POP JUMP JUMPDEST PUSH1 0x65 SLOAD PUSH1 0x1 PUSH1 0x1 PUSH1 0xA0 SHL SUB AND CALLER EQ PUSH2 0x91B JUMPI PUSH1 0x40 MLOAD PUSH3 0x461BCD PUSH1 0xE5 SHL DUP2 MSTORE PUSH1 0x4 ADD PUSH2 0x7DB SWAP1 PUSH2 0x1DDF JUMP JUMPDEST PUSH1 0x6A SLOAD PUSH1 0x6B SLOAD LT PUSH2 0x94B JUMPI PUSH1 0x67 SLOAD PUSH1 0x68 SLOAD GT ISZERO PUSH2 0x94B JUMPI PUSH1 0x2 PUSH1 0x68 PUSH1 0x0 DUP3 DUP3 SLOAD PUSH2 0x945 SWAP2 SWAP1 PUSH2 0x1E25 JUMP JUMPDEST SWAP1 SWAP2 SSTORE POP POP JUMPDEST PUSH1 0x0 DUP1 DUP7 MLOAD PUSH1 0x0 SUB PUSH2 0x970 JUMPI DUP3 PUSH1 0x68 SLOAD PUSH2 0x965 SWAP2 SWAP1 PUSH2 0x1DB3 JUMP JUMPDEST SWAP2 POP PUSH1 0x0 SWAP1 POP PUSH2 0x9BF JUMP JUMPDEST PUSH1 0x64 DUP4 PUSH1 0x68 SLOAD PUSH2 0x980 SWAP2 SWAP1 PUSH2 0x1DB3 JUMP JUMPDEST PUSH2 0x98B SWAP1 PUSH1 0x19 PUSH2 0x1E47 JUMP JUMPDEST PUSH2 0x995 SWAP2 SWAP1 PUSH2 0x1E25 JUMP JUMPDEST SWAP2 POP PUSH1 0x64 DUP4 PUSH1 0x68 SLOAD PUSH2 0x9A7 SWAP2 SWAP1 PUSH2 0x1DB3 JUMP JUMPDEST PUSH2 0x9B2 SWAP1 PUSH1 0x4B PUSH2 0x1E47 JUMP JUMPDEST PUSH2 0x9BC SWAP2 SWAP1 PUSH2 0x1E25 JUMP JUMPDEST SWAP1 POP JUMPDEST PUSH1 0x0 JUMPDEST DUP5 MLOAD DUP2 LT ISZERO PUSH2 0xA02 JUMPI PUSH2 0x9FA DUP6 DUP3 DUP2 MLOAD DUP2 LT PUSH2 0x9E0 JUMPI PUSH2 0x9E0 PUSH2 0x1E5E JUMP JUMPDEST PUSH1 0x20 MUL PUSH1 0x20 ADD ADD MLOAD DUP7 MLOAD DUP6 PUSH2 0x9F5 SWAP2 SWAP1 PUSH2 0x1E25 JUMP JUMPDEST PUSH2 0x1865 JUMP JUMPDEST PUSH1 0x1 ADD PUSH2 0x9C2 JUMP JUMPDEST POP DUP7 MLOAD ISZERO PUSH2 0xA78 JUMPI PUSH1 0x0 JUMPDEST DUP8 MLOAD DUP2 LT ISZERO PUSH2 0xA76 JUMPI PUSH1 0x0 DUP7 DUP4 DUP10 DUP5 DUP2 MLOAD DUP2 LT PUSH2 0xA2C JUMPI PUSH2 0xA2C PUSH2 0x1E5E JUMP JUMPDEST PUSH1 0x20 MUL PUSH1 0x20 ADD ADD MLOAD PUSH2 0xA3E SWAP2 SWAP1 PUSH2 0x1E47 JUMP JUMPDEST PUSH2 0xA48 SWAP2 SWAP1 PUSH2 0x1E25 JUMP JUMPDEST SWAP1 POP PUSH2 0xA6D DUP10 DUP4 DUP2 MLOAD DUP2 LT PUSH2 0xA5F JUMPI PUSH2 0xA5F PUSH2 0x1E5E JUMP JUMPDEST PUSH1 0x20 MUL PUSH1 0x20 ADD ADD MLOAD DUP3 PUSH2 0x1865 JUMP JUMPDEST POP PUSH1 0x1 ADD PUSH2 0xA0D JUMP JUMPDEST POP JUMPDEST PUSH1 0x6B DUP1 SLOAD SWAP1 PUSH1 0x0 PUSH2 0xA88 DUP4 PUSH2 0x1DC6 JUMP JUMPDEST SWAP2 SWAP1 POP SSTORE POP POP POP POP POP POP POP POP JUMP JUMPDEST PUSH2 0xAA0 CALLER DUP3 PUSH2 0x16E4 JUMP JUMPDEST POP JUMP JUMPDEST CALLER PUSH1 0x0 SWAP1 DUP2 MSTORE PUSH1 0x71 PUSH1 0x20 MSTORE PUSH1 0x40 SWAP1 KECCAK256 SLOAD DUP1 PUSH2 0xB00 JUMPI PUSH1 0x40 MLOAD PUSH3 0x461BCD PUSH1 0xE5 SHL DUP2 MSTORE PUSH1 0x20 PUSH1 0x4 DUP3 ADD MSTORE PUSH1 0x1B PUSH1 0x24 DUP3 ADD MSTORE PUSH32 0x4E6F74206120726567697374657265642076616C696461746F722E0000000000 PUSH1 0x44 DUP3 ADD MSTORE PUSH1 0x64 ADD PUSH2 0x7DB JUMP JUMPDEST PUSH1 0x0 DUP2 DUP2 MSTORE PUSH1 0x70 PUSH1 0x20 MSTORE PUSH1 0x40 SWAP1 KECCAK256 PUSH1 0x1 DUP2 ADD SLOAD DUP4 GT ISZERO PUSH2 0xB62 JUMPI PUSH1 0x40 MLOAD PUSH3 0x461BCD PUSH1 0xE5 SHL DUP2 MSTORE PUSH1 0x20 PUSH1 0x4 DUP3 ADD MSTORE PUSH1 0x1E PUSH1 0x24 DUP3 ADD MSTORE PUSH32 0x416D6F756E742065786365656473206C6F636B65642062616C616E63652E0000 PUSH1 0x44 DUP3 ADD MSTORE PUSH1 0x64 ADD PUSH2 0x7DB JUMP JUMPDEST PUSH1 0x0 DUP4 GT PUSH2 0xB82 JUMPI PUSH1 0x40 MLOAD PUSH3 0x461BCD PUSH1 0xE5 SHL DUP2 MSTORE PUSH1 0x4 ADD PUSH2 0x7DB SWAP1 PUSH2 0x1E74 JUMP JUMPDEST DUP1 PUSH1 0x2 ADD SLOAD PUSH1 0x0 SUB PUSH2 0xC66 JUMPI PUSH1 0x69 SLOAD DUP2 PUSH1 0x1 ADD SLOAD LT ISZERO PUSH2 0xBFA JUMPI PUSH1 0x65 SLOAD PUSH1 0x40 MLOAD PUSH4 0x40A141FF PUSH1 0xE0 SHL DUP2 MSTORE CALLER PUSH1 0x4 DUP3 ADD MSTORE PUSH1 0x1 PUSH1 0x1 PUSH1 0xA0 SHL SUB SWAP1 SWAP2 AND SWAP1 PUSH4 0x40A141FF SWAP1 PUSH1 0x24 ADD PUSH1 0x0 PUSH1 0x40 MLOAD DUP1 DUP4 SUB DUP2 PUSH1 0x0 DUP8 DUP1 EXTCODESIZE ISZERO DUP1 ISZERO PUSH2 0xBE1 JUMPI PUSH1 0x0 DUP1 REVERT JUMPDEST POP GAS CALL ISZERO DUP1 ISZERO PUSH2 0xBF5 JUMPI RETURNDATASIZE PUSH1 0x0 DUP1 RETURNDATACOPY RETURNDATASIZE PUSH1 0x0 REVERT JUMPDEST POP POP POP POP JUMPDEST PUSH1 0x6D SLOAD PUSH2 0xC07 SWAP1 TIMESTAMP PUSH2 0x1DB3 JUMP JUMPDEST DUP2 PUSH1 0x2 ADD DUP2 SWAP1 SSTORE POP DUP3 PUSH1 0x6C PUSH1 0x0 DUP3 DUP3 SLOAD PUSH2 0xC21 SWAP2 SWAP1 PUSH2 0x1EB5 JUMP JUMPDEST SWAP1 SWAP2 SSTORE POP POP PUSH1 0x2 DUP2 ADD SLOAD PUSH1 0x40 MLOAD SWAP1 DUP2 MSTORE CALLER SWAP1 PUSH32 0x77635F8F13EE1A01D11246347C649817C6EE9FA7620CE4C6ADFA2452BFA162B2 SWAP1 PUSH1 0x20 ADD JUMPDEST PUSH1 0x40 MLOAD DUP1 SWAP2 SUB SWAP1 LOG2 POP POP POP JUMP JUMPDEST DUP1 PUSH1 0x2 ADD SLOAD TIMESTAMP LT ISZERO PUSH2 0xCBA JUMPI PUSH1 0x40 MLOAD PUSH3 0x461BCD PUSH1 0xE5 SHL DUP2 MSTORE PUSH1 0x20 PUSH1 0x4 DUP3 ADD MSTORE PUSH1 0x18 PUSH1 0x24 DUP3 ADD MSTORE PUSH32 0x546F6B656E7320617265207374696C6C206C6F636B65642E0000000000000000 PUSH1 0x44 DUP3 ADD MSTORE PUSH1 0x64 ADD PUSH2 0x7DB JUMP JUMPDEST DUP3 DUP2 PUSH1 0x1 ADD PUSH1 0x0 DUP3 DUP3 SLOAD PUSH2 0xCCE SWAP2 SWAP1 PUSH2 0x1EB5 JUMP JUMPDEST SWAP1 SWAP2 SSTORE POP PUSH2 0xCDF SWAP1 POP ADDRESS CALLER DUP6 PUSH2 0x69C JUMP JUMPDEST POP PUSH1 0x40 MLOAD DUP4 DUP2 MSTORE CALLER SWAP1 PUSH32 0xE7B379C6C1FA169E9079C25E9143B127637EEF8EC8C9D5C06DDB4AB3E1195888 SWAP1 PUSH1 0x20 ADD PUSH2 0xC59 JUMP JUMPDEST POP POP POP JUMP JUMPDEST PUSH1 0x60 PUSH1 0x37 DUP1 SLOAD PUSH2 0x5FF SWAP1 PUSH2 0x1D4A JUMP JUMPDEST PUSH1 0x65 SLOAD PUSH1 0x0 SWAP1 PUSH1 0x1 PUSH1 0x1 PUSH1 0xA0 SHL SUB AND CALLER EQ PUSH2 0xD53 JUMPI PUSH1 0x40 MLOAD PUSH3 0x461BCD PUSH1 0xE5 SHL DUP2 MSTORE PUSH1 0x4 ADD PUSH2 0x7DB SWAP1 PUSH2 0x1DDF JUMP JUMPDEST PUSH1 0x0 DUP3 DUP2 MSTORE PUSH1 0x6E PUSH1 0x20 MSTORE PUSH1 0x40 DUP2 KECCAK256 SLOAD SWAP1 DUP2 SWAP1 SUB PUSH2 0xDC1 JUMPI PUSH1 0x72 DUP1 SLOAD SWAP1 PUSH1 0x0 PUSH2 0xD7A DUP4 PUSH2 0x1DC6 JUMP JUMPDEST SWAP1 SWAP2 SSTORE POP POP PUSH1 0x40 DUP1 MLOAD DUP3 DUP2 MSTORE PUSH1 0x20 DUP2 ADD DUP6 SWAP1 MSTORE PUSH32 0x45C386DC6524A2D9FE630455323C6A39F557C52AB01E886DEEE20A0B538147AC SWAP2 ADD PUSH1 0x40 MLOAD DUP1 SWAP2 SUB SWAP1 LOG1 POP PUSH1 0x0 SWAP3 SWAP2 POP POP JUMP JUMPDEST PUSH1 0x0 DUP2 DUP2 MSTORE PUSH1 0x6F PUSH1 0x20 SWAP1 DUP2 MSTORE PUSH1 0x40 DUP1 DUP4 KECCAK256 DUP2 MLOAD DUP2 SLOAD PUSH1 0x60 SWAP5 DUP2 MUL DUP3 ADD DUP6 ADD DUP5 MSTORE SWAP3 DUP2 ADD DUP4 DUP2 MSTORE SWAP1 SWAP4 SWAP2 SWAP3 DUP5 SWAP3 DUP5 SWAP2 SWAP1 DUP5 ADD DUP3 DUP3 DUP1 ISZERO PUSH2 0xE1F JUMPI PUSH1 0x20 MUL DUP3 ADD SWAP2 SWAP1 PUSH1 0x0 MSTORE PUSH1 0x20 PUSH1 0x0 KECCAK256 SWAP1 JUMPDEST DUP2 SLOAD DUP2 MSTORE PUSH1 0x20 ADD SWAP1 PUSH1 0x1 ADD SWAP1 DUP1 DUP4 GT PUSH2 0xE0B JUMPI JUMPDEST POP POP POP SWAP2 DUP4 MSTORE POP POP PUSH1 0x1 SWAP2 SWAP1 SWAP2 ADD SLOAD PUSH1 0x20 SWAP2 DUP3 ADD MSTORE DUP2 DUP2 ADD MLOAD PUSH1 0x0 DUP6 DUP2 MSTORE PUSH1 0x6F SWAP1 SWAP3 MSTORE PUSH1 0x40 DUP3 KECCAK256 SWAP3 SWAP4 POP SWAP2 SWAP1 PUSH2 0xE55 DUP3 DUP3 PUSH2 0x19B0 JUMP JUMPDEST POP PUSH1 0x0 PUSH1 0x1 SWAP2 SWAP1 SWAP2 ADD DUP2 SWAP1 SSTORE DUP6 DUP2 MSTORE PUSH1 0x6E PUSH1 0x20 SWAP1 DUP2 MSTORE PUSH1 0x40 DUP1 DUP4 KECCAK256 SWAP3 SWAP1 SWAP3 SSTORE DUP2 MLOAD DUP6 DUP2 MSTORE SWAP1 DUP2 ADD DUP8 SWAP1 MSTORE PUSH32 0x45C386DC6524A2D9FE630455323C6A39F557C52AB01E886DEEE20A0B538147AC SWAP2 ADD PUSH1 0x40 MLOAD DUP1 SWAP2 SUB SWAP1 LOG1 SWAP3 POP POP POP JUMPDEST SWAP2 SWAP1 POP JUMP JUMPDEST PUSH1 0x0 SLOAD PUSH2 0x100 SWAP1 DIV PUSH1 0xFF AND PUSH2 0xECF JUMPI PUSH1 0x0 SLOAD PUSH1 0xFF AND ISZERO PUSH2 0xED3 JUMP JUMPDEST ADDRESS EXTCODESIZE ISZERO JUMPDEST PUSH2 0xF36 JUMPI PUSH1 0x40 MLOAD PUSH3 0x461BCD PUSH1 0xE5 SHL DUP2 MSTORE PUSH1 0x20 PUSH1 0x4 DUP3 ADD MSTORE PUSH1 0x2E PUSH1 0x24 DUP3 ADD MSTORE PUSH32 0x496E697469616C697A61626C653A20636F6E747261637420697320616C726561 PUSH1 0x44 DUP3 ADD MSTORE PUSH14 0x191E481A5B9A5D1A585B1A5E9959 PUSH1 0x92 SHL PUSH1 0x64 DUP3 ADD MSTORE PUSH1 0x84 ADD PUSH2 0x7DB JUMP JUMPDEST PUSH1 0x0 SLOAD PUSH2 0x100 SWAP1 DIV PUSH1 0xFF AND ISZERO DUP1 ISZERO PUSH2 0xF58 JUMPI PUSH1 0x0 DUP1 SLOAD PUSH2 0xFFFF NOT AND PUSH2 0x101 OR SWAP1 SSTORE JUMPDEST PUSH2 0xF9F PUSH1 0x40 MLOAD DUP1 PUSH1 0x40 ADD PUSH1 0x40 MSTORE DUP1 PUSH1 0xA DUP2 MSTORE PUSH1 0x20 ADD PUSH10 0x536D6172746E6F646573 PUSH1 0xB0 SHL DUP2 MSTORE POP PUSH1 0x40 MLOAD DUP1 PUSH1 0x40 ADD PUSH1 0x40 MSTORE DUP1 PUSH1 0x3 DUP2 MSTORE PUSH1 0x20 ADD PUSH3 0x534E4F PUSH1 0xE8 SHL DUP2 MSTORE POP PUSH2 0x1944 JUMP JUMPDEST PUSH1 0x66 DUP1 SLOAD PUSH1 0x1 PUSH1 0x1 PUSH1 0xA0 SHL SUB NOT AND CALLER OR SWAP1 SSTORE PUSH9 0x6F05B59D3B20000000 PUSH1 0x68 SSTORE PUSH10 0x69E10DE76676D0800000 PUSH1 0x69 SSTORE PUSH2 0x2226 PUSH1 0x6A SSTORE PUSH1 0x0 PUSH1 0x6B DUP2 SWAP1 SSTORE PUSH3 0x127500 PUSH1 0x6D SSTORE PUSH1 0x1 PUSH1 0x72 DUP2 SWAP1 SSTORE PUSH1 0x74 DUP2 SWAP1 SSTORE PUSH1 0x73 SSTORE JUMPDEST DUP3 MLOAD DUP2 LT ISZERO PUSH2 0x1026 JUMPI PUSH2 0x101E DUP4 DUP3 DUP2 MLOAD DUP2 LT PUSH2 0x100E JUMPI PUSH2 0x100E PUSH2 0x1E5E JUMP JUMPDEST PUSH1 0x20 MUL PUSH1 0x20 ADD ADD MLOAD PUSH1 0x69 SLOAD PUSH2 0x1865 JUMP JUMPDEST PUSH1 0x1 ADD PUSH2 0xFF0 JUMP JUMPDEST POP DUP1 ISZERO PUSH2 0x1039 JUMPI PUSH1 0x0 DUP1 SLOAD PUSH2 0xFF00 NOT AND SWAP1 SSTORE JUMPDEST POP POP JUMP JUMPDEST CALLER PUSH1 0x0 DUP2 DUP2 MSTORE PUSH1 0x34 PUSH1 0x20 SWAP1 DUP2 MSTORE PUSH1 0x40 DUP1 DUP4 KECCAK256 PUSH1 0x1 PUSH1 0x1 PUSH1 0xA0 SHL SUB DUP8 AND DUP5 MSTORE SWAP1 SWAP2 MSTORE DUP2 KECCAK256 SLOAD SWAP1 SWAP2 SWAP1 DUP4 DUP2 LT ISZERO PUSH2 0x10C2 JUMPI PUSH1 0x40 MLOAD PUSH3 0x461BCD PUSH1 0xE5 SHL DUP2 MSTORE PUSH1 0x20 PUSH1 0x4 DUP3 ADD MSTORE PUSH1 0x25 PUSH1 0x24 DUP3 ADD MSTORE PUSH32 0x45524332303A2064656372656173656420616C6C6F77616E63652062656C6F77 PUSH1 0x44 DUP3 ADD MSTORE PUSH5 0x207A65726F PUSH1 0xD8 SHL PUSH1 0x64 DUP3 ADD MSTORE PUSH1 0x84 ADD PUSH2 0x7DB JUMP JUMPDEST PUSH2 0x6B5 DUP3 DUP7 DUP7 DUP5 SUB PUSH2 0x1366 JUMP JUMPDEST PUSH1 0x0 CALLER PUSH2 0x690 DUP2 DUP6 DUP6 PUSH2 0x1516 JUMP JUMPDEST PUSH1 0x0 DUP1 PUSH1 0x0 PUSH1 0x74 SLOAD DUP5 LT PUSH2 0x1121 JUMPI PUSH1 0x40 MLOAD PUSH3 0x461BCD PUSH1 0xE5 SHL DUP2 MSTORE PUSH1 0x20 PUSH1 0x4 DUP3 ADD MSTORE PUSH1 0xB PUSH1 0x24 DUP3 ADD MSTORE PUSH11 0x24B73B30B634B21024A217 PUSH1 0xA9 SHL PUSH1 0x44 DUP3 ADD MSTORE PUSH1 0x64 ADD PUSH2 0x7DB JUMP JUMPDEST PUSH1 0x0 DUP5 DUP2 MSTORE PUSH1 0x70 PUSH1 0x20 SWAP1 DUP2 MSTORE PUSH1 0x40 DUP1 DUP4 KECCAK256 DUP2 MLOAD PUSH1 0x80 DUP2 ADD DUP4 MSTORE DUP2 SLOAD PUSH1 0x1 PUSH1 0x1 PUSH1 0xA0 SHL SUB SWAP1 DUP2 AND DUP1 DUP4 MSTORE PUSH1 0x1 DUP5 ADD SLOAD SWAP6 DUP4 ADD SWAP6 SWAP1 SWAP6 MSTORE PUSH1 0x2 DUP4 ADD SLOAD DUP3 DUP6 ADD MSTORE PUSH1 0x3 SWAP1 SWAP3 ADD SLOAD PUSH1 0x60 DUP3 ADD MSTORE PUSH1 0x65 SLOAD SWAP3 MLOAD PUSH4 0x10154287 PUSH1 0xE2 SHL DUP2 MSTORE PUSH1 0x4 DUP2 ADD SWAP5 SWAP1 SWAP5 MSTORE SWAP4 SWAP3 SWAP2 AND SWAP1 PUSH4 0x40550A1C SWAP1 PUSH1 0x24 ADD PUSH1 0x20 PUSH1 0x40 MLOAD DUP1 DUP4 SUB DUP2 DUP7 GAS STATICCALL ISZERO DUP1 ISZERO PUSH2 0x11AC JUMPI RETURNDATASIZE PUSH1 0x0 DUP1 RETURNDATACOPY RETURNDATASIZE PUSH1 0x0 REVERT JUMPDEST POP POP POP POP PUSH1 0x40 MLOAD RETURNDATASIZE PUSH1 0x1F NOT PUSH1 0x1F DUP3 ADD AND DUP3 ADD DUP1 PUSH1 0x40 MSTORE POP DUP2 ADD SWAP1 PUSH2 0x11D0 SWAP2 SWAP1 PUSH2 0x1EC8 JUMP JUMPDEST PUSH1 0x60 DUP4 ADD MLOAD SWAP3 MLOAD SWAP1 SWAP8 SWAP3 SWAP7 POP SWAP5 POP SWAP1 SWAP3 POP POP POP JUMP JUMPDEST PUSH1 0x65 SLOAD PUSH1 0x1 PUSH1 0x1 PUSH1 0xA0 SHL SUB AND ISZERO PUSH2 0x123E JUMPI PUSH1 0x40 MLOAD PUSH3 0x461BCD PUSH1 0xE5 SHL DUP2 MSTORE PUSH1 0x20 PUSH1 0x4 DUP3 ADD MSTORE PUSH1 0x1E PUSH1 0x24 DUP3 ADD MSTORE PUSH32 0x56616C696461746F72206164647265737320616C7265616479207365742E0000 PUSH1 0x44 DUP3 ADD MSTORE PUSH1 0x64 ADD PUSH2 0x7DB JUMP JUMPDEST PUSH1 0x65 DUP1 SLOAD PUSH1 0x1 PUSH1 0x1 PUSH1 0xA0 SHL SUB NOT AND PUSH1 0x1 PUSH1 0x1 PUSH1 0xA0 SHL SUB SWAP3 SWAP1 SWAP3 AND SWAP2 SWAP1 SWAP2 OR SWAP1 SSTORE JUMP JUMPDEST PUSH1 0x66 SLOAD PUSH1 0x1 PUSH1 0x1 PUSH1 0xA0 SHL SUB AND CALLER EQ PUSH2 0x12BA JUMPI PUSH1 0x40 MLOAD PUSH3 0x461BCD PUSH1 0xE5 SHL DUP2 MSTORE PUSH1 0x20 PUSH1 0x4 DUP3 ADD MSTORE PUSH1 0x1F PUSH1 0x24 DUP3 ADD MSTORE PUSH32 0x43616C6C6572206D757374206265207468652070726F78792061646D696E2E00 PUSH1 0x44 DUP3 ADD MSTORE PUSH1 0x64 ADD PUSH2 0x7DB JUMP JUMPDEST PUSH1 0x2 PUSH1 0x67 PUSH1 0x0 DUP3 DUP3 SLOAD PUSH2 0x12CD SWAP2 SWAP1 PUSH2 0x1E25 JUMP JUMPDEST SWAP3 POP POP DUP2 SWAP1 SSTORE POP PUSH1 0x2 PUSH1 0x68 PUSH1 0x0 DUP3 DUP3 SLOAD PUSH2 0x12E7 SWAP2 SWAP1 PUSH2 0x1E25 JUMP JUMPDEST SWAP3 POP POP DUP2 SWAP1 SSTORE POP PUSH1 0x2 PUSH1 0x6A PUSH1 0x0 DUP3 DUP3 SLOAD PUSH2 0x1301 SWAP2 SWAP1 PUSH2 0x1E47 JUMP JUMPDEST SWAP1 SWAP2 SSTORE POP POP PUSH1 0x65 SLOAD PUSH1 0x40 DUP1 MLOAD PUSH4 0x762193B9 PUSH1 0xE1 SHL DUP2 MSTORE SWAP1 MLOAD PUSH1 0x1 PUSH1 0x1 PUSH1 0xA0 SHL SUB SWAP1 SWAP3 AND SWAP2 PUSH4 0xEC432772 SWAP2 PUSH1 0x4 DUP1 DUP3 ADD SWAP3 PUSH1 0x0 SWAP3 SWAP1 SWAP2 SWAP1 DUP3 SWAP1 SUB ADD DUP2 DUP4 DUP8 DUP1 EXTCODESIZE ISZERO DUP1 ISZERO PUSH2 0x134C JUMPI PUSH1 0x0 DUP1 REVERT JUMPDEST POP GAS CALL ISZERO DUP1 ISZERO PUSH2 0x1360 JUMPI RETURNDATASIZE PUSH1 0x0 DUP1 RETURNDATACOPY RETURNDATASIZE PUSH1 0x0 REVERT JUMPDEST POP POP POP POP JUMP JUMPDEST PUSH1 0x1 PUSH1 0x1 PUSH1 0xA0 SHL SUB DUP4 AND PUSH2 0x13C8 JUMPI PUSH1 0x40 MLOAD PUSH3 0x461BCD PUSH1 0xE5 SHL DUP2 MSTORE PUSH1 0x20 PUSH1 0x4 DUP3 ADD MSTORE PUSH1 0x24 DUP1 DUP3 ADD MSTORE PUSH32 0x45524332303A20617070726F76652066726F6D20746865207A65726F20616464 PUSH1 0x44 DUP3 ADD MSTORE PUSH4 0x72657373 PUSH1 0xE0 SHL PUSH1 0x64 DUP3 ADD MSTORE PUSH1 0x84 ADD PUSH2 0x7DB JUMP JUMPDEST PUSH1 0x1 PUSH1 0x1 PUSH1 0xA0 SHL SUB DUP3 AND PUSH2 0x1429 JUMPI PUSH1 0x40 MLOAD PUSH3 0x461BCD PUSH1 0xE5 SHL DUP2 MSTORE PUSH1 0x20 PUSH1 0x4 DUP3 ADD MSTORE PUSH1 0x22 PUSH1 0x24 DUP3 ADD MSTORE PUSH32 0x45524332303A20617070726F766520746F20746865207A65726F206164647265 PUSH1 0x44 DUP3 ADD MSTORE PUSH2 0x7373 PUSH1 0xF0 SHL PUSH1 0x64 DUP3 ADD MSTORE PUSH1 0x84 ADD PUSH2 0x7DB JUMP JUMPDEST PUSH1 0x1 PUSH1 0x1 PUSH1 0xA0 SHL SUB DUP4 DUP2 AND PUSH1 0x0 DUP2 DUP2 MSTORE PUSH1 0x34 PUSH1 0x20 SWAP1 DUP2 MSTORE PUSH1 0x40 DUP1 DUP4 KECCAK256 SWAP5 DUP8 AND DUP1 DUP5 MSTORE SWAP5 DUP3 MSTORE SWAP2 DUP3 SWAP1 KECCAK256 DUP6 SWAP1 SSTORE SWAP1 MLOAD DUP5 DUP2 MSTORE PUSH32 0x8C5BE1E5EBEC7D5BD14F71427D1E84F3DD0314C0F7B2291E5B200AC8C7C3B925 SWAP2 ADD PUSH1 0x40 MLOAD DUP1 SWAP2 SUB SWAP1 LOG3 POP POP POP JUMP JUMPDEST PUSH1 0x1 PUSH1 0x1 PUSH1 0xA0 SHL SUB DUP4 DUP2 AND PUSH1 0x0 SWAP1 DUP2 MSTORE PUSH1 0x34 PUSH1 0x20 SWAP1 DUP2 MSTORE PUSH1 0x40 DUP1 DUP4 KECCAK256 SWAP4 DUP7 AND DUP4 MSTORE SWAP3 SWAP1 MSTORE KECCAK256 SLOAD PUSH1 0x0 NOT DUP2 EQ PUSH2 0x1360 JUMPI DUP2 DUP2 LT ISZERO PUSH2 0x1509 JUMPI PUSH1 0x40 MLOAD PUSH3 0x461BCD PUSH1 0xE5 SHL DUP2 MSTORE PUSH1 0x20 PUSH1 0x4 DUP3 ADD MSTORE PUSH1 0x1D PUSH1 0x24 DUP3 ADD MSTORE PUSH32 0x45524332303A20696E73756666696369656E7420616C6C6F77616E6365000000 PUSH1 0x44 DUP3 ADD MSTORE PUSH1 0x64 ADD PUSH2 0x7DB JUMP JUMPDEST PUSH2 0x1360 DUP5 DUP5 DUP5 DUP5 SUB PUSH2 0x1366 JUMP JUMPDEST PUSH1 0x1 PUSH1 0x1 PUSH1 0xA0 SHL SUB DUP4 AND PUSH2 0x157A JUMPI PUSH1 0x40 MLOAD PUSH3 0x461BCD PUSH1 0xE5 SHL DUP2 MSTORE PUSH1 0x20 PUSH1 0x4 DUP3 ADD MSTORE PUSH1 0x25 PUSH1 0x24 DUP3 ADD MSTORE PUSH32 0x45524332303A207472616E736665722066726F6D20746865207A65726F206164 PUSH1 0x44 DUP3 ADD MSTORE PUSH5 0x6472657373 PUSH1 0xD8 SHL PUSH1 0x64 DUP3 ADD MSTORE PUSH1 0x84 ADD PUSH2 0x7DB JUMP JUMPDEST PUSH1 0x1 PUSH1 0x1 PUSH1 0xA0 SHL SUB DUP3 AND PUSH2 0x15DC JUMPI PUSH1 0x40 MLOAD PUSH3 0x461BCD PUSH1 0xE5 SHL DUP2 MSTORE PUSH1 0x20 PUSH1 0x4 DUP3 ADD MSTORE PUSH1 0x23 PUSH1 0x24 DUP3 ADD MSTORE PUSH32 0x45524332303A207472616E7366657220746F20746865207A65726F2061646472 PUSH1 0x44 DUP3 ADD MSTORE PUSH3 0x657373 PUSH1 0xE8 SHL PUSH1 0x64 DUP3 ADD MSTORE PUSH1 0x84 ADD PUSH2 0x7DB JUMP JUMPDEST PUSH1 0x1 PUSH1 0x1 PUSH1 0xA0 SHL SUB DUP4 AND PUSH1 0x0 SWAP1 DUP2 MSTORE PUSH1 0x33 PUSH1 0x20 MSTORE PUSH1 0x40 SWAP1 KECCAK256 SLOAD DUP2 DUP2 LT ISZERO PUSH2 0x1654 JUMPI PUSH1 0x40 MLOAD PUSH3 0x461BCD PUSH1 0xE5 SHL DUP2 MSTORE PUSH1 0x20 PUSH1 0x4 DUP3 ADD MSTORE PUSH1 0x26 PUSH1 0x24 DUP3 ADD MSTORE PUSH32 0x45524332303A207472616E7366657220616D6F756E7420657863656564732062 PUSH1 0x44 DUP3 ADD MSTORE PUSH6 0x616C616E6365 PUSH1 0xD0 SHL PUSH1 0x64 DUP3 ADD MSTORE PUSH1 0x84 ADD PUSH2 0x7DB JUMP JUMPDEST PUSH1 0x1 PUSH1 0x1 PUSH1 0xA0 SHL SUB DUP1 DUP6 AND PUSH1 0x0 SWAP1 DUP2 MSTORE PUSH1 0x33 PUSH1 0x20 MSTORE PUSH1 0x40 DUP1 DUP3 KECCAK256 DUP6 DUP6 SUB SWAP1 SSTORE SWAP2 DUP6 AND DUP2 MSTORE SWAP1 DUP2 KECCAK256 DUP1 SLOAD DUP5 SWAP3 SWAP1 PUSH2 0x168B SWAP1 DUP5 SWAP1 PUSH2 0x1DB3 JUMP JUMPDEST SWAP3 POP POP DUP2 SWAP1 SSTORE POP DUP3 PUSH1 0x1 PUSH1 0x1 PUSH1 0xA0 SHL SUB AND DUP5 PUSH1 0x1 PUSH1 0x1 PUSH1 0xA0 SHL SUB AND PUSH32 0xDDF252AD1BE2C89B69C2B068FC378DAA952BA7F163C4A11628F55A4DF523B3EF DUP5 PUSH1 0x40 MLOAD PUSH2 0x16D7 SWAP2 DUP2 MSTORE PUSH1 0x20 ADD SWAP1 JUMP JUMPDEST PUSH1 0x40 MLOAD DUP1 SWAP2 SUB SWAP1 LOG3 PUSH2 0x1360 JUMP JUMPDEST PUSH1 0x0 DUP2 GT PUSH2 0x1704 JUMPI PUSH1 0x40 MLOAD PUSH3 0x461BCD PUSH1 0xE5 SHL DUP2 MSTORE PUSH1 0x4 ADD PUSH2 0x7DB SWAP1 PUSH2 0x1E74 JUMP JUMPDEST DUP1 PUSH2 0x1724 DUP4 PUSH1 0x1 PUSH1 0x1 PUSH1 0xA0 SHL SUB AND PUSH1 0x0 SWAP1 DUP2 MSTORE PUSH1 0x33 PUSH1 0x20 MSTORE PUSH1 0x40 SWAP1 KECCAK256 SLOAD SWAP1 JUMP JUMPDEST LT ISZERO PUSH2 0x176A JUMPI PUSH1 0x40 MLOAD PUSH3 0x461BCD PUSH1 0xE5 SHL DUP2 MSTORE PUSH1 0x20 PUSH1 0x4 DUP3 ADD MSTORE PUSH1 0x15 PUSH1 0x24 DUP3 ADD MSTORE PUSH21 0x24B739BAB33334B1B4B2B73A103130B630B731B297 PUSH1 0x59 SHL PUSH1 0x44 DUP3 ADD MSTORE PUSH1 0x64 ADD PUSH2 0x7DB JUMP JUMPDEST PUSH1 0x1 PUSH1 0x1 PUSH1 0xA0 SHL SUB DUP3 AND PUSH1 0x0 SWAP1 DUP2 MSTORE PUSH1 0x71 PUSH1 0x20 MSTORE PUSH1 0x40 DUP2 KECCAK256 SLOAD SWAP1 DUP2 SWAP1 SUB PUSH2 0x17D3 JUMPI PUSH1 0x40 MLOAD PUSH3 0x461BCD PUSH1 0xE5 SHL DUP2 MSTORE PUSH1 0x20 PUSH1 0x4 DUP3 ADD MSTORE PUSH1 0x19 PUSH1 0x24 DUP3 ADD MSTORE PUSH32 0x56616C696461746F7220646F6573206E6F742065786973742E00000000000000 PUSH1 0x44 DUP3 ADD MSTORE PUSH1 0x64 ADD PUSH2 0x7DB JUMP JUMPDEST PUSH2 0x17DE DUP4 ADDRESS DUP5 PUSH2 0x69C JUMP JUMPDEST POP PUSH1 0x0 DUP2 DUP2 MSTORE PUSH1 0x70 PUSH1 0x20 MSTORE PUSH1 0x40 DUP2 KECCAK256 PUSH1 0x1 ADD DUP1 SLOAD DUP5 SWAP3 SWAP1 PUSH2 0x1800 SWAP1 DUP5 SWAP1 PUSH2 0x1DB3 JUMP JUMPDEST SWAP3 POP POP DUP2 SWAP1 SSTORE POP DUP2 PUSH1 0x6C PUSH1 0x0 DUP3 DUP3 SLOAD PUSH2 0x1819 SWAP2 SWAP1 PUSH2 0x1DB3 JUMP JUMPDEST SWAP1 SWAP2 SSTORE POP POP PUSH1 0x40 DUP1 MLOAD PUSH1 0x1 PUSH1 0x1 PUSH1 0xA0 SHL SUB DUP6 AND DUP2 MSTORE PUSH1 0x20 DUP2 ADD DUP5 SWAP1 MSTORE PUSH32 0xAC87F20A77D28EE8BBB58EC87EA8FA968B3393EFAE1A368FD50B767C2847391C SWAP2 ADD PUSH1 0x40 MLOAD DUP1 SWAP2 SUB SWAP1 LOG1 POP POP POP JUMP JUMPDEST PUSH1 0x1 PUSH1 0x1 PUSH1 0xA0 SHL SUB DUP3 AND PUSH2 0x18BB JUMPI PUSH1 0x40 MLOAD PUSH3 0x461BCD PUSH1 0xE5 SHL DUP2 MSTORE PUSH1 0x20 PUSH1 0x4 DUP3 ADD MSTORE PUSH1 0x1F PUSH1 0x24 DUP3 ADD MSTORE PUSH32 0x45524332303A206D696E7420746F20746865207A65726F206164647265737300 PUSH1 0x44 DUP3 ADD MSTORE PUSH1 0x64 ADD PUSH2 0x7DB JUMP JUMPDEST DUP1 PUSH1 0x35 PUSH1 0x0 DUP3 DUP3 SLOAD PUSH2 0x18CD SWAP2 SWAP1 PUSH2 0x1DB3 JUMP JUMPDEST SWAP1 SWAP2 SSTORE POP POP PUSH1 0x1 PUSH1 0x1 PUSH1 0xA0 SHL SUB DUP3 AND PUSH1 0x0 SWAP1 DUP2 MSTORE PUSH1 0x33 PUSH1 0x20 MSTORE PUSH1 0x40 DUP2 KECCAK256 DUP1 SLOAD DUP4 SWAP3 SWAP1 PUSH2 0x18FA SWAP1 DUP5 SWAP1 PUSH2 0x1DB3 JUMP JUMPDEST SWAP1 SWAP2 SSTORE POP POP PUSH1 0x40 MLOAD DUP2 DUP2 MSTORE PUSH1 0x1 PUSH1 0x1 PUSH1 0xA0 SHL SUB DUP4 AND SWAP1 PUSH1 0x0 SWAP1 PUSH32 0xDDF252AD1BE2C89B69C2B068FC378DAA952BA7F163C4A11628F55A4DF523B3EF SWAP1 PUSH1 0x20 ADD PUSH1 0x40 MLOAD DUP1 SWAP2 SUB SWAP1 LOG3 POP POP JUMP JUMPDEST PUSH1 0x0 SLOAD PUSH2 0x100 SWAP1 DIV PUSH1 0xFF AND PUSH2 0x196B JUMPI PUSH1 0x40 MLOAD PUSH3 0x461BCD PUSH1 0xE5 SHL DUP2 MSTORE PUSH1 0x4 ADD PUSH2 0x7DB SWAP1 PUSH2 0x1EEA JUMP JUMPDEST PUSH2 0x1039 DUP3 DUP3 PUSH1 0x0 SLOAD PUSH2 0x100 SWAP1 DIV PUSH1 0xFF AND PUSH2 0x1997 JUMPI PUSH1 0x40 MLOAD PUSH3 0x461BCD PUSH1 0xE5 SHL DUP2 MSTORE PUSH1 0x4 ADD PUSH2 0x7DB SWAP1 PUSH2 0x1EEA JUMP JUMPDEST PUSH1 0x36 PUSH2 0x19A3 DUP4 DUP3 PUSH2 0x1F85 JUMP JUMPDEST POP PUSH1 0x37 PUSH2 0xD12 DUP3 DUP3 PUSH2 0x1F85 JUMP JUMPDEST POP DUP1 SLOAD PUSH1 0x0 DUP3 SSTORE SWAP1 PUSH1 0x0 MSTORE PUSH1 0x20 PUSH1 0x0 KECCAK256 SWAP1 DUP2 ADD SWAP1 PUSH2 0xAA0 SWAP2 SWAP1 JUMPDEST DUP1 DUP3 GT ISZERO PUSH2 0x19DE JUMPI PUSH1 0x0 DUP2 SSTORE PUSH1 0x1 ADD PUSH2 0x19CA JUMP JUMPDEST POP SWAP1 JUMP JUMPDEST PUSH1 0x0 PUSH1 0x20 DUP1 DUP4 MSTORE DUP4 MLOAD DUP1 PUSH1 0x20 DUP6 ADD MSTORE PUSH1 0x0 JUMPDEST DUP2 DUP2 LT ISZERO PUSH2 0x1A10 JUMPI DUP6 DUP2 ADD DUP4 ADD MLOAD DUP6 DUP3 ADD PUSH1 0x40 ADD MSTORE DUP3 ADD PUSH2 0x19F4 JUMP JUMPDEST POP PUSH1 0x0 PUSH1 0x40 DUP3 DUP7 ADD ADD MSTORE PUSH1 0x40 PUSH1 0x1F NOT PUSH1 0x1F DUP4 ADD AND DUP6 ADD ADD SWAP3 POP POP POP SWAP3 SWAP2 POP POP JUMP JUMPDEST DUP1 CALLDATALOAD PUSH1 0x1 PUSH1 0x1 PUSH1 0xA0 SHL SUB DUP2 AND DUP2 EQ PUSH2 0xEAF JUMPI PUSH1 0x0 DUP1 REVERT JUMPDEST PUSH1 0x0 DUP1 PUSH1 0x40 DUP4 DUP6 SUB SLT ISZERO PUSH2 0x1A5B JUMPI PUSH1 0x0 DUP1 REVERT JUMPDEST PUSH2 0x1A64 DUP4 PUSH2 0x1A31 JUMP JUMPDEST SWAP5 PUSH1 0x20 SWAP4 SWAP1 SWAP4 ADD CALLDATALOAD SWAP4 POP POP POP JUMP JUMPDEST PUSH1 0x0 PUSH1 0x20 DUP3 DUP5 SUB SLT ISZERO PUSH2 0x1A84 JUMPI PUSH1 0x0 DUP1 REVERT JUMPDEST POP CALLDATALOAD SWAP2 SWAP1 POP JUMP JUMPDEST PUSH1 0x0 DUP1 PUSH1 0x0 PUSH1 0x60 DUP5 DUP7 SUB SLT ISZERO PUSH2 0x1AA0 JUMPI PUSH1 0x0 DUP1 REVERT JUMPDEST PUSH2 0x1AA9 DUP5 PUSH2 0x1A31 JUMP JUMPDEST SWAP3 POP PUSH2 0x1AB7 PUSH1 0x20 DUP6 ADD PUSH2 0x1A31 JUMP JUMPDEST SWAP2 POP PUSH1 0x40 DUP5 ADD CALLDATALOAD SWAP1 POP SWAP3 POP SWAP3 POP SWAP3 JUMP JUMPDEST PUSH1 0x0 PUSH1 0x20 DUP3 DUP5 SUB SLT ISZERO PUSH2 0x1AD9 JUMPI PUSH1 0x0 DUP1 REVERT JUMPDEST PUSH2 0x1AE2 DUP3 PUSH2 0x1A31 JUMP JUMPDEST SWAP4 SWAP3 POP POP POP JUMP JUMPDEST PUSH1 0x0 DUP1 PUSH1 0x40 DUP4 DUP6 SUB SLT ISZERO PUSH2 0x1AFC JUMPI PUSH1 0x0 DUP1 REVERT JUMPDEST POP POP DUP1 CALLDATALOAD SWAP3 PUSH1 0x20 SWAP1 SWAP2 ADD CALLDATALOAD SWAP2 POP JUMP JUMPDEST PUSH4 0x4E487B71 PUSH1 0xE0 SHL PUSH1 0x0 MSTORE PUSH1 0x41 PUSH1 0x4 MSTORE PUSH1 0x24 PUSH1 0x0 REVERT JUMPDEST PUSH1 0x40 MLOAD PUSH1 0x1F DUP3 ADD PUSH1 0x1F NOT AND DUP2 ADD PUSH8 0xFFFFFFFFFFFFFFFF DUP2 GT DUP3 DUP3 LT OR ISZERO PUSH2 0x1B4A JUMPI PUSH2 0x1B4A PUSH2 0x1B0B JUMP JUMPDEST PUSH1 0x40 MSTORE SWAP2 SWAP1 POP JUMP JUMPDEST PUSH1 0x0 PUSH8 0xFFFFFFFFFFFFFFFF DUP3 GT ISZERO PUSH2 0x1B6C JUMPI PUSH2 0x1B6C PUSH2 0x1B0B JUMP JUMPDEST POP PUSH1 0x5 SHL PUSH1 0x20 ADD SWAP1 JUMP JUMPDEST PUSH1 0x0 DUP3 PUSH1 0x1F DUP4 ADD SLT PUSH2 0x1B87 JUMPI PUSH1 0x0 DUP1 REVERT JUMPDEST DUP2 CALLDATALOAD PUSH1 0x20 PUSH2 0x1B9C PUSH2 0x1B97 DUP4 PUSH2 0x1B52 JUMP JUMPDEST PUSH2 0x1B21 JUMP JUMPDEST DUP1 DUP4 DUP3 MSTORE PUSH1 0x20 DUP3 ADD SWAP2 POP PUSH1 0x20 DUP5 PUSH1 0x5 SHL DUP8 ADD ADD SWAP4 POP DUP7 DUP5 GT ISZERO PUSH2 0x1BBE JUMPI PUSH1 0x0 DUP1 REVERT JUMPDEST PUSH1 0x20 DUP7 ADD JUMPDEST DUP5 DUP2 LT ISZERO PUSH2 0x1BE1 JUMPI PUSH2 0x1BD4 DUP2 PUSH2 0x1A31 JUMP JUMPDEST DUP4 MSTORE SWAP2 DUP4 ADD SWAP2 DUP4 ADD PUSH2 0x1BC3 JUMP JUMPDEST POP SWAP7 SWAP6 POP POP POP POP POP POP JUMP JUMPDEST PUSH1 0x0 DUP1 PUSH1 0x0 DUP1 PUSH1 0x0 PUSH1 0xA0 DUP7 DUP9 SUB SLT ISZERO PUSH2 0x1C04 JUMPI PUSH1 0x0 DUP1 REVERT JUMPDEST DUP6 CALLDATALOAD PUSH8 0xFFFFFFFFFFFFFFFF DUP1 DUP3 GT ISZERO PUSH2 0x1C1C JUMPI PUSH1 0x0 DUP1 REVERT JUMPDEST PUSH2 0x1C28 DUP10 DUP4 DUP11 ADD PUSH2 0x1B76 JUMP JUMPDEST SWAP7 POP PUSH1 0x20 SWAP2 POP DUP2 DUP9 ADD CALLDATALOAD DUP2 DUP2 GT ISZERO PUSH2 0x1C3F JUMPI PUSH1 0x0 DUP1 REVERT JUMPDEST DUP9 ADD PUSH1 0x1F DUP2 ADD DUP11 SGT PUSH2 0x1C50 JUMPI PUSH1 0x0 DUP1 REVERT JUMPDEST DUP1 CALLDATALOAD PUSH2 0x1C5E PUSH2 0x1B97 DUP3 PUSH2 0x1B52 JUMP JUMPDEST DUP2 DUP2 MSTORE PUSH1 0x5 SWAP2 SWAP1 SWAP2 SHL DUP3 ADD DUP5 ADD SWAP1 DUP5 DUP2 ADD SWAP1 DUP13 DUP4 GT ISZERO PUSH2 0x1C7D JUMPI PUSH1 0x0 DUP1 REVERT JUMPDEST SWAP3 DUP6 ADD SWAP3 JUMPDEST DUP3 DUP5 LT ISZERO PUSH2 0x1C9B JUMPI DUP4 CALLDATALOAD DUP3 MSTORE SWAP3 DUP6 ADD SWAP3 SWAP1 DUP6 ADD SWAP1 PUSH2 0x1C82 JUMP JUMPDEST SWAP9 POP POP POP POP PUSH1 0x40 DUP9 ADD CALLDATALOAD SWAP5 POP PUSH1 0x60 DUP9 ADD CALLDATALOAD SWAP2 POP DUP1 DUP3 GT ISZERO PUSH2 0x1CBB JUMPI PUSH1 0x0 DUP1 REVERT JUMPDEST POP PUSH2 0x1CC8 DUP9 DUP3 DUP10 ADD PUSH2 0x1B76 JUMP JUMPDEST SWAP6 SWAP9 SWAP5 SWAP8 POP SWAP3 SWAP6 PUSH1 0x80 ADD CALLDATALOAD SWAP4 SWAP3 POP POP POP JUMP JUMPDEST PUSH1 0x0 PUSH1 0x20 DUP3 DUP5 SUB SLT ISZERO PUSH2 0x1CEC JUMPI PUSH1 0x0 DUP1 REVERT JUMPDEST DUP2 CALLDATALOAD PUSH8 0xFFFFFFFFFFFFFFFF DUP2 GT ISZERO PUSH2 0x1D03 JUMPI PUSH1 0x0 DUP1 REVERT JUMPDEST PUSH2 0x1D0F DUP5 DUP3 DUP6 ADD PUSH2 0x1B76 JUMP JUMPDEST SWAP5 SWAP4 POP POP POP POP JUMP JUMPDEST PUSH1 0x0 DUP1 PUSH1 0x40 DUP4 DUP6 SUB SLT ISZERO PUSH2 0x1D2A JUMPI PUSH1 0x0 DUP1 REVERT JUMPDEST PUSH2 0x1D33 DUP4 PUSH2 0x1A31 JUMP JUMPDEST SWAP2 POP PUSH2 0x1D41 PUSH1 0x20 DUP5 ADD PUSH2 0x1A31 JUMP JUMPDEST SWAP1 POP SWAP3 POP SWAP3 SWAP1 POP JUMP JUMPDEST PUSH1 0x1 DUP2 DUP2 SHR SWAP1 DUP3 AND DUP1 PUSH2 0x1D5E JUMPI PUSH1 0x7F DUP3 AND SWAP2 POP JUMPDEST PUSH1 0x20 DUP3 LT DUP2 SUB PUSH2 0x1D7E JUMPI PUSH4 0x4E487B71 PUSH1 0xE0 SHL PUSH1 0x0 MSTORE PUSH1 0x22 PUSH1 0x4 MSTORE PUSH1 0x24 PUSH1 0x0 REVERT JUMPDEST POP SWAP2 SWAP1 POP JUMP JUMPDEST PUSH1 0x0 PUSH1 0x20 DUP3 DUP5 SUB SLT ISZERO PUSH2 0x1D96 JUMPI PUSH1 0x0 DUP1 REVERT JUMPDEST POP MLOAD SWAP2 SWAP1 POP JUMP JUMPDEST PUSH4 0x4E487B71 PUSH1 0xE0 SHL PUSH1 0x0 MSTORE PUSH1 0x11 PUSH1 0x4 MSTORE PUSH1 0x24 PUSH1 0x0 REVERT JUMPDEST DUP1 DUP3 ADD DUP1 DUP3 GT ISZERO PUSH2 0x696 JUMPI PUSH2 0x696 PUSH2 0x1D9D JUMP JUMPDEST PUSH1 0x0 PUSH1 0x1 DUP3 ADD PUSH2 0x1DD8 JUMPI PUSH2 0x1DD8 PUSH2 0x1D9D JUMP JUMPDEST POP PUSH1 0x1 ADD SWAP1 JUMP JUMPDEST PUSH1 0x20 DUP1 DUP3 MSTORE PUSH1 0x26 SWAP1 DUP3 ADD MSTORE PUSH32 0x43616C6C6572206D7573742062652074686520536D6172746E6F6465734D756C PUSH1 0x40 DUP3 ADD MSTORE PUSH6 0x3A34A9B4B397 PUSH1 0xD1 SHL PUSH1 0x60 DUP3 ADD MSTORE PUSH1 0x80 ADD SWAP1 JUMP JUMPDEST PUSH1 0x0 DUP3 PUSH2 0x1E42 JUMPI PUSH4 0x4E487B71 PUSH1 0xE0 SHL PUSH1 0x0 MSTORE PUSH1 0x12 PUSH1 0x4 MSTORE PUSH1 0x24 PUSH1 0x0 REVERT JUMPDEST POP DIV SWAP1 JUMP JUMPDEST DUP1 DUP3 MUL DUP2 ISZERO DUP3 DUP3 DIV DUP5 EQ OR PUSH2 0x696 JUMPI PUSH2 0x696 PUSH2 0x1D9D JUMP JUMPDEST PUSH4 0x4E487B71 PUSH1 0xE0 SHL PUSH1 0x0 MSTORE PUSH1 0x32 PUSH1 0x4 MSTORE PUSH1 0x24 PUSH1 0x0 REVERT JUMPDEST PUSH1 0x20 DUP1 DUP3 MSTORE PUSH1 0x21 SWAP1 DUP3 ADD MSTORE PUSH32 0x416D6F756E74206D7573742062652067726561746572207468616E207A65726F PUSH1 0x40 DUP3 ADD MSTORE PUSH1 0x17 PUSH1 0xF9 SHL PUSH1 0x60 DUP3 ADD MSTORE PUSH1 0x80 ADD SWAP1 JUMP JUMPDEST DUP2 DUP2 SUB DUP2 DUP2 GT ISZERO PUSH2 0x696 JUMPI PUSH2 0x696 PUSH2 0x1D9D JUMP JUMPDEST PUSH1 0x0 PUSH1 0x20 DUP3 DUP5 SUB SLT ISZERO PUSH2 0x1EDA JUMPI PUSH1 0x0 DUP1 REVERT JUMPDEST DUP2 MLOAD DUP1 ISZERO ISZERO DUP2 EQ PUSH2 0x1AE2 JUMPI PUSH1 0x0 DUP1 REVERT JUMPDEST PUSH1 0x20 DUP1 DUP3 MSTORE PUSH1 0x2B SWAP1 DUP3 ADD MSTORE PUSH32 0x496E697469616C697A61626C653A20636F6E7472616374206973206E6F742069 PUSH1 0x40 DUP3 ADD MSTORE PUSH11 0x6E697469616C697A696E67 PUSH1 0xA8 SHL PUSH1 0x60 DUP3 ADD MSTORE PUSH1 0x80 ADD SWAP1 JUMP JUMPDEST PUSH1 0x1F DUP3 GT ISZERO PUSH2 0xD12 JUMPI PUSH1 0x0 DUP2 PUSH1 0x0 MSTORE PUSH1 0x20 PUSH1 0x0 KECCAK256 PUSH1 0x1F DUP6 ADD PUSH1 0x5 SHR DUP2 ADD PUSH1 0x20 DUP7 LT ISZERO PUSH2 0x1F5E JUMPI POP DUP1 JUMPDEST PUSH1 0x1F DUP6 ADD PUSH1 0x5 SHR DUP3 ADD SWAP2 POP JUMPDEST DUP2 DUP2 LT ISZERO PUSH2 0x1F7D JUMPI DUP3 DUP2 SSTORE PUSH1 0x1 ADD PUSH2 0x1F6A JUMP JUMPDEST POP POP POP POP POP POP JUMP JUMPDEST DUP2 MLOAD PUSH8 0xFFFFFFFFFFFFFFFF DUP2 GT ISZERO PUSH2 0x1F9F JUMPI PUSH2 0x1F9F PUSH2 0x1B0B JUMP JUMPDEST PUSH2 0x1FB3 DUP2 PUSH2 0x1FAD DUP5 SLOAD PUSH2 0x1D4A JUMP JUMPDEST DUP5 PUSH2 0x1F35 JUMP JUMPDEST PUSH1 0x20 DUP1 PUSH1 0x1F DUP4 GT PUSH1 0x1 DUP2 EQ PUSH2 0x1FE8 JUMPI PUSH1 0x0 DUP5 ISZERO PUSH2 0x1FD0 JUMPI POP DUP6 DUP4 ADD MLOAD JUMPDEST PUSH1 0x0 NOT PUSH1 0x3 DUP7 SWAP1 SHL SHR NOT AND PUSH1 0x1 DUP6 SWAP1 SHL OR DUP6 SSTORE PUSH2 0x1F7D JUMP JUMPDEST PUSH1 0x0 DUP6 DUP2 MSTORE PUSH1 0x20 DUP2 KECCAK256 PUSH1 0x1F NOT DUP7 AND SWAP2 JUMPDEST DUP3 DUP2 LT ISZERO PUSH2 0x2017 JUMPI DUP9 DUP7 ADD MLOAD DUP3 SSTORE SWAP5 DUP5 ADD SWAP5 PUSH1 0x1 SWAP1 SWAP2 ADD SWAP1 DUP5 ADD PUSH2 0x1FF8 JUMP JUMPDEST POP DUP6 DUP3 LT ISZERO PUSH2 0x2035 JUMPI DUP8 DUP6 ADD MLOAD PUSH1 0x0 NOT PUSH1 0x3 DUP9 SWAP1 SHL PUSH1 0xF8 AND SHR NOT AND DUP2 SSTORE JUMPDEST POP POP POP POP POP PUSH1 0x1 SWAP1 DUP2 SHL ADD SWAP1 SSTORE POP JUMP INVALID LOG2 PUSH5 0x6970667358 0x22 SLT KECCAK256 SUB 0xD4 0x21 PUSH13 0x9AB17F45F147469E6F13A3968E PUSH10 0x27569684E83CD2C5E0D5 DUP11 PUSH28 0x506C64736F6C63430008190033000000000000000000000000000000 ",
  "sha1": "9ae23c3f3bd815e6a1c9f4488b4742badc12f56f",
  "source": "// SPDX-License-Identifier: MIT\npragma solidity ^0.8.5;\n\nimport \"@openzeppelin-upgradeable/contracts/token/ERC20/ERC20Upgradeable.sol\";\nimport \"./interfaces/ISmartnodesMultiSig.sol\";\n\ncontract SmartnodesCore is ERC20Upgradeable {\n    ISmartnodesMultiSig public validatorContract;\n    address public proxyAdmin;\n\n    uint256 public tailEmission = 8e18; // a relative number as the state-time can be adjusted. Equivalent to\n    uint256 public constant UNLOCK_PERIOD = 1_209_600; // 14 days in seconds\n\n    uint256 public emissionRate;\n    uint256 public lockAmount;\n    uint256 public halvingPeriod;\n    uint256 public statesSinceLastHalving;\n    uint256 public totalLocked;\n    uint256 public unlockPeriod;\n\n    struct Validator {\n        address _address;\n        uint256 locked;\n        uint256 unlockTime;\n        bytes32 publicKeyHash;\n    }\n\n    struct Job {\n        uint256[] capacities;\n        uint256 payment;\n    }\n\n    mapping(bytes32 => uint256) public jobHashToId;\n    mapping(uint256 => Job) public jobs;\n    mapping(uint256 => Validator) public validators;\n    mapping(address => uint256) public validatorIdByAddress;\n\n    uint256 public jobCounter;\n    uint256 public userCounter;\n    uint256 public validatorCounter;\n    uint256 public availableCapacity;\n\n    event TokensLocked(address validator, uint256 amount);\n    event UnlockInitiated(address indexed validator, uint256 unlockTime);\n    event TokensUnlocked(address indexed validator, uint256 amount);\n    event JobRequested(uint256 jobId, bytes32 jobHash, bytes32 userHash);\n    event JobCompleted(uint256 jobId, bytes32 jobHash);\n    event JobDisputed(bytes32 indexed jobId, uint256 timestamp);\n\n    modifier onlyValidatorMultiSig() {\n        require(\n            msg.sender == address(validatorContract),\n            \"Caller must be the SmartnodesMultiSig.\"\n        );\n        _;\n    }\n\n    modifier onlyProxyAdmin() {\n        require(msg.sender == proxyAdmin, \"Caller must be the proxy admin.\");\n        _;\n    }\n\n    function initialize(address[] memory _genesisNodes) public initializer {\n        __ERC20_init(\"Smartnodes\", \"SNO\");\n        proxyAdmin = msg.sender;\n        emissionRate = 2048e18;\n        lockAmount = 500_000e18;\n        halvingPeriod = 8742; // 364.25 * 24\n        statesSinceLastHalving = 0;\n        unlockPeriod = 1_209_600; // (14 days in seconds)\n\n        jobCounter = 1;\n        validatorCounter = 1;\n        userCounter = 1;\n\n        for (uint i = 0; i < _genesisNodes.length; i++) {\n            _mint(_genesisNodes[i], lockAmount);\n        }\n    }\n\n    function setValidatorContract(address _validatorAddress) external {\n        require(\n            address(validatorContract) == address(0),\n            \"Validator address already set.\"\n        );\n        validatorContract = ISmartnodesMultiSig(_validatorAddress);\n    }\n\n    function halveStateTime() external onlyProxyAdmin {\n        // By reducing the state time in half, we must reduce emissions (ie. state reward)\n        // by half, including the tail emission value\n        tailEmission /= 2;\n        emissionRate /= 2;\n        halvingPeriod *= 2; // Double the state updates requied between halvings\n        validatorContract.halvePeriod(); // Halve the time required between state updates\n    }\n\n    // Request a job and associate a payment with it\n    // function requestJob(\n    //     bytes32 userHash,\n    //     bytes32 jobHash,\n    //     uint256[] calldata capacities,\n    //     uint256 paymentAmount // Accept payment in tokens\n    // ) external {\n    //     require(jobHashToId[jobHash] == 0, \"Job already created!\");\n    //     require(capacities.length > 0, \"Job must have a capacity.\");\n    //     jobHashToId[jobHash] = jobCounter;\n\n    //     // Require a payment for the job\n    //     require(paymentAmount > 0, \"Payment must be greater than zero.\");\n    //     require(\n    //         balanceOf(msg.sender) >= paymentAmount,\n    //         \"Insufficient token balance.\"\n    //     );\n    //     require(capacities.length > 0, \"\");\n\n    //     // Transfer the payment tokens and burn them\n    //     _transfer(msg.sender, address(0), paymentAmount); // Burn the tokens by sending to zero address\n\n    //     // Store the job with associated payment\n    //     jobs[jobCounter] = Job({\n    //         capacities: capacities,\n    //         payment: paymentAmount // Store the payment amount\n    //     });\n\n    //     emit JobRequested(jobCounter, jobHash, userHash);\n    //     jobCounter++;\n    // }\n\n    // Complete the job and distribute payment to validators/workers\n    function completeJob(\n        bytes32 jobHash\n    ) external onlyValidatorMultiSig returns (uint256) {\n        uint256 jobId = jobHashToId[jobHash];\n\n        // If we have a user-requested job\n        if (jobId == 0) {\n            // If not, we can log the job counter\n            jobCounter++;\n            emit JobCompleted(jobId, jobHash);\n            return 0;\n        }\n\n        // Get the job and calculate reward\n        Job memory job = jobs[jobId];\n        uint256 totalReward = job.payment;\n\n        // Cleanup\n        delete jobs[jobId];\n        delete jobHashToId[jobHash];\n        emit JobCompleted(jobId, jobHash);\n        return totalReward;\n    }\n\n    function mintTokens(\n        address[] memory _workers,\n        uint256[] memory _capacities,\n        uint256 _totalCapacity,\n        address[] memory _validatorsVoted,\n        uint256 additionalReward\n    ) external onlyValidatorMultiSig {\n        if (statesSinceLastHalving >= halvingPeriod) {\n            if (emissionRate > tailEmission) {\n                emissionRate /= 2;\n            }\n        }\n\n        uint256 validatorReward;\n        uint256 workerReward;\n\n        if (_workers.length == 0) {\n            validatorReward = emissionRate + additionalReward;\n            workerReward = 0;\n        } else {\n            validatorReward = ((emissionRate + additionalReward) * 25) / 100;\n            workerReward = ((emissionRate + additionalReward) * 75) / 100;\n        }\n\n        for (uint256 v = 0; v < _validatorsVoted.length; v++) {\n            _mint(\n                _validatorsVoted[v],\n                validatorReward / _validatorsVoted.length\n            );\n        }\n\n        if (_workers.length > 0) {\n            for (uint256 w = 0; w < _workers.length; w++) {\n                uint256 reward = ((_capacities[w] * workerReward) /\n                    _totalCapacity);\n                _mint(_workers[w], reward);\n            }\n        }\n\n        statesSinceLastHalving++;\n    }\n\n    /**\n     * @dev Validator token unlocking, 14 day withdrawal period.\n     */\n    function _lockTokens(address sender, uint256 amount) internal {\n        require(amount > 0, \"Amount must be greater than zero.\");\n        require(balanceOf(sender) >= amount, \"Insufficient balance.\");\n\n        uint256 validatorId = validatorIdByAddress[sender];\n        require(validatorId != 0, \"Validator does not exist.\");\n\n        transferFrom(sender, address(this), amount);\n        validators[validatorId].locked += amount;\n        totalLocked += amount;\n\n        emit TokensLocked(sender, amount);\n    }\n\n    function lockTokens(uint256 amount) external {\n        _lockTokens(msg.sender, amount);\n    }\n\n    function unlockTokens(uint256 amount) external {\n        uint256 validatorId = validatorIdByAddress[msg.sender];\n        require(validatorId > 0, \"Not a registered validator.\");\n\n        Validator storage validator = validators[validatorId];\n\n        require(amount <= validator.locked, \"Amount exceeds locked balance.\");\n        require(amount > 0, \"Amount must be greater than zero.\");\n\n        // Initialize the unlock time if it's the first unlock attempt\n        if (validator.unlockTime == 0) {\n            if (validator.locked < lockAmount) {\n                validatorContract.removeValidator(msg.sender);\n            }\n            validator.unlockTime = block.timestamp + unlockPeriod; // unlocking period\n\n            // Update multisig validator\n            totalLocked -= amount;\n\n            emit UnlockInitiated(msg.sender, validator.unlockTime); // Optional: emit an event\n        } else {\n            // On subsequent attempts, check if the unlock period has elapsed\n            require(\n                block.timestamp >= validator.unlockTime,\n                \"Tokens are still locked.\"\n            );\n\n            validator.locked -= amount;\n            transferFrom(address(this), msg.sender, amount); // Mint tokens back to the validator's address\n\n            emit TokensUnlocked(msg.sender, amount); // Optional: emit an event when tokens are unlocked\n        }\n    }\n\n    function createValidator(\n        bytes32 _publicKeyHash,\n        uint256 _lockAmount\n    ) external {\n        require(\n            balanceOf(msg.sender) >= _lockAmount && _lockAmount >= lockAmount,\n            \"Insufficient token balance.\"\n        );\n        require(\n            validatorIdByAddress[msg.sender] == 0,\n            \"Validator already created with this account!\"\n        );\n\n        validators[validatorCounter] = Validator({\n            _address: msg.sender,\n            locked: 0,\n            unlockTime: 0,\n            publicKeyHash: _publicKeyHash\n        });\n\n        validatorIdByAddress[msg.sender] = validatorCounter;\n        _lockTokens(msg.sender, lockAmount);\n\n        validatorCounter++;\n    }\n\n    function isLocked(address validatorAddress) external view returns (bool) {\n        uint256 id = validatorIdByAddress[validatorAddress];\n        return validators[id].locked >= lockAmount;\n    }\n\n    function getActiveValidatorCount() external view returns (uint256) {\n        return validatorContract.getNumValidators();\n    }\n\n    function getValidatorInfo(\n        uint256 _validatorId\n    ) external view returns (bool, bytes32, address) {\n        require(_validatorId < validatorCounter, \"Invalid ID.\");\n        Validator memory _validator = validators[_validatorId];\n        bool isActive = validatorContract.isActiveValidator(\n            _validator._address\n        );\n        return (isActive, _validator.publicKeyHash, _validator._address);\n    }\n}\n",
  "sourcePath": "contracts/SmartnodesCore.sol",
  "type": "contract"
}