{
  "abi": [
    {
      "anonymous": false,
      "inputs": [
        {
          "indexed": true,
          "internalType": "address",
          "name": "sender",
          "type": "address"
        },
        {
          "indexed": false,
          "internalType": "uint256",
          "name": "amount",
          "type": "uint256"
        }
      ],
      "name": "Deposit",
      "type": "event"
    },
    {
      "anonymous": false,
      "inputs": [
        {
          "indexed": false,
          "internalType": "uint256",
          "name": "proposalId",
          "type": "uint256"
        },
        {
          "indexed": false,
          "internalType": "bytes32",
          "name": "proposalHash",
          "type": "bytes32"
        }
      ],
      "name": "ProposalExecuted",
      "type": "event"
    },
    {
      "anonymous": false,
      "inputs": [
        {
          "indexed": false,
          "internalType": "uint256",
          "name": "proposalId",
          "type": "uint256"
        }
      ],
      "name": "ProposalExpired",
      "type": "event"
    },
    {
      "anonymous": false,
      "inputs": [
        {
          "indexed": false,
          "internalType": "address",
          "name": "validator",
          "type": "address"
        }
      ],
      "name": "ValidatorAdded",
      "type": "event"
    },
    {
      "anonymous": false,
      "inputs": [
        {
          "indexed": false,
          "internalType": "address",
          "name": "validator",
          "type": "address"
        }
      ],
      "name": "ValidatorRemoved",
      "type": "event"
    },
    {
      "inputs": [
        {
          "internalType": "address",
          "name": "validator",
          "type": "address"
        }
      ],
      "name": "addValidator",
      "outputs": [],
      "stateMutability": "nonpayable",
      "type": "function"
    },
    {
      "inputs": [
        {
          "internalType": "uint8",
          "name": "proposalNum",
          "type": "uint8"
        }
      ],
      "name": "approveTransaction",
      "outputs": [],
      "stateMutability": "nonpayable",
      "type": "function"
    },
    {
      "inputs": [
        {
          "internalType": "bytes32",
          "name": "proposalHash",
          "type": "bytes32"
        }
      ],
      "name": "createProposal",
      "outputs": [],
      "stateMutability": "nonpayable",
      "type": "function"
    },
    {
      "inputs": [
        {
          "internalType": "uint256",
          "name": "",
          "type": "uint256"
        }
      ],
      "name": "currentProposals",
      "outputs": [
        {
          "internalType": "bytes32",
          "name": "",
          "type": "bytes32"
        }
      ],
      "stateMutability": "view",
      "type": "function"
    },
    {
      "inputs": [
        {
          "internalType": "uint256",
          "name": "",
          "type": "uint256"
        }
      ],
      "name": "currentRoundValidators",
      "outputs": [
        {
          "internalType": "address",
          "name": "",
          "type": "address"
        }
      ],
      "stateMutability": "view",
      "type": "function"
    },
    {
      "inputs": [],
      "name": "doublePeriod",
      "outputs": [],
      "stateMutability": "nonpayable",
      "type": "function"
    },
    {
      "inputs": [
        {
          "internalType": "address[]",
          "name": "validatorsToRemove",
          "type": "address[]"
        },
        {
          "internalType": "bytes32[]",
          "name": "jobHashes",
          "type": "bytes32[]"
        },
        {
          "internalType": "uint256[]",
          "name": "jobCapacities",
          "type": "uint256[]"
        },
        {
          "internalType": "address[]",
          "name": "workers",
          "type": "address[]"
        },
        {
          "internalType": "uint256",
          "name": "totalCapacity",
          "type": "uint256"
        }
      ],
      "name": "executeProposal",
      "outputs": [],
      "stateMutability": "nonpayable",
      "type": "function"
    },
    {
      "inputs": [
        {
          "internalType": "uint256",
          "name": "numValidators",
          "type": "uint256"
        }
      ],
      "name": "generateValidators",
      "outputs": [
        {
          "internalType": "address[]",
          "name": "",
          "type": "address[]"
        }
      ],
      "stateMutability": "view",
      "type": "function"
    },
    {
      "inputs": [],
      "name": "getNumValidators",
      "outputs": [
        {
          "internalType": "uint256",
          "name": "",
          "type": "uint256"
        }
      ],
      "stateMutability": "view",
      "type": "function"
    },
    {
      "inputs": [],
      "name": "getState",
      "outputs": [
        {
          "internalType": "uint256",
          "name": "",
          "type": "uint256"
        },
        {
          "internalType": "address[]",
          "name": "",
          "type": "address[]"
        }
      ],
      "stateMutability": "view",
      "type": "function"
    },
    {
      "inputs": [],
      "name": "halvePeriod",
      "outputs": [],
      "stateMutability": "nonpayable",
      "type": "function"
    },
    {
      "inputs": [
        {
          "internalType": "address",
          "name": "",
          "type": "address"
        }
      ],
      "name": "hasSubmittedProposal",
      "outputs": [
        {
          "internalType": "uint8",
          "name": "",
          "type": "uint8"
        }
      ],
      "stateMutability": "view",
      "type": "function"
    },
    {
      "inputs": [
        {
          "internalType": "address",
          "name": "",
          "type": "address"
        }
      ],
      "name": "hasVoted",
      "outputs": [
        {
          "internalType": "uint8",
          "name": "",
          "type": "uint8"
        }
      ],
      "stateMutability": "view",
      "type": "function"
    },
    {
      "inputs": [
        {
          "internalType": "address[]",
          "name": "validatorsToRemove",
          "type": "address[]"
        },
        {
          "internalType": "bytes32[]",
          "name": "jobHashes",
          "type": "bytes32[]"
        },
        {
          "internalType": "uint256[]",
          "name": "jobCapacities",
          "type": "uint256[]"
        },
        {
          "internalType": "address[]",
          "name": "workers",
          "type": "address[]"
        },
        {
          "internalType": "uint256",
          "name": "totalCapacity",
          "type": "uint256"
        }
      ],
      "name": "hashProposalData",
      "outputs": [
        {
          "internalType": "bytes32",
          "name": "",
          "type": "bytes32"
        }
      ],
      "stateMutability": "pure",
      "type": "function"
    },
    {
      "inputs": [
        {
          "internalType": "address",
          "name": "target",
          "type": "address"
        }
      ],
      "name": "initialize",
      "outputs": [],
      "stateMutability": "nonpayable",
      "type": "function"
    },
    {
      "inputs": [
        {
          "internalType": "address",
          "name": "_validatorAddress",
          "type": "address"
        }
      ],
      "name": "isActiveValidator",
      "outputs": [
        {
          "internalType": "bool",
          "name": "",
          "type": "bool"
        }
      ],
      "stateMutability": "view",
      "type": "function"
    },
    {
      "inputs": [
        {
          "internalType": "uint256",
          "name": "proposalNumber",
          "type": "uint256"
        }
      ],
      "name": "isProposalReady",
      "outputs": [
        {
          "internalType": "bool",
          "name": "",
          "type": "bool"
        }
      ],
      "stateMutability": "view",
      "type": "function"
    },
    {
      "inputs": [],
      "name": "isRoundExpired",
      "outputs": [
        {
          "internalType": "bool",
          "name": "",
          "type": "bool"
        }
      ],
      "stateMutability": "view",
      "type": "function"
    },
    {
      "inputs": [
        {
          "internalType": "address",
          "name": "",
          "type": "address"
        }
      ],
      "name": "isValidator",
      "outputs": [
        {
          "internalType": "bool",
          "name": "",
          "type": "bool"
        }
      ],
      "stateMutability": "view",
      "type": "function"
    },
    {
      "inputs": [],
      "name": "lastProposalTime",
      "outputs": [
        {
          "internalType": "uint256",
          "name": "",
          "type": "uint256"
        }
      ],
      "stateMutability": "view",
      "type": "function"
    },
    {
      "inputs": [],
      "name": "nValidators",
      "outputs": [
        {
          "internalType": "uint8",
          "name": "",
          "type": "uint8"
        }
      ],
      "stateMutability": "view",
      "type": "function"
    },
    {
      "inputs": [],
      "name": "nextProposalId",
      "outputs": [
        {
          "internalType": "uint256",
          "name": "",
          "type": "uint256"
        }
      ],
      "stateMutability": "view",
      "type": "function"
    },
    {
      "inputs": [
        {
          "internalType": "uint8",
          "name": "",
          "type": "uint8"
        }
      ],
      "name": "proposalVotes",
      "outputs": [
        {
          "internalType": "uint256",
          "name": "",
          "type": "uint256"
        }
      ],
      "stateMutability": "view",
      "type": "function"
    },
    {
      "inputs": [
        {
          "internalType": "uint256",
          "name": "",
          "type": "uint256"
        }
      ],
      "name": "readyProposals",
      "outputs": [
        {
          "internalType": "uint8",
          "name": "",
          "type": "uint8"
        }
      ],
      "stateMutability": "view",
      "type": "function"
    },
    {
      "inputs": [
        {
          "internalType": "address",
          "name": "validator",
          "type": "address"
        }
      ],
      "name": "removeValidator",
      "outputs": [],
      "stateMutability": "nonpayable",
      "type": "function"
    },
    {
      "inputs": [],
      "name": "requiredApprovals",
      "outputs": [
        {
          "internalType": "uint256",
          "name": "",
          "type": "uint256"
        }
      ],
      "stateMutability": "view",
      "type": "function"
    },
    {
      "inputs": [],
      "name": "requiredApprovalsPercentage",
      "outputs": [
        {
          "internalType": "uint256",
          "name": "",
          "type": "uint256"
        }
      ],
      "stateMutability": "view",
      "type": "function"
    },
    {
      "inputs": [],
      "name": "roundExpirationTime",
      "outputs": [
        {
          "internalType": "uint256",
          "name": "",
          "type": "uint256"
        }
      ],
      "stateMutability": "view",
      "type": "function"
    },
    {
      "inputs": [
        {
          "internalType": "uint256",
          "name": "newExpirationTime",
          "type": "uint256"
        }
      ],
      "name": "setProposalExpirationTime",
      "outputs": [],
      "stateMutability": "nonpayable",
      "type": "function"
    },
    {
      "inputs": [],
      "name": "smartnodesContractAddress",
      "outputs": [
        {
          "internalType": "address",
          "name": "",
          "type": "address"
        }
      ],
      "stateMutability": "view",
      "type": "function"
    },
    {
      "inputs": [],
      "name": "updateTime",
      "outputs": [
        {
          "internalType": "uint256",
          "name": "",
          "type": "uint256"
        }
      ],
      "stateMutability": "view",
      "type": "function"
    },
    {
      "inputs": [
        {
          "internalType": "uint256",
          "name": "",
          "type": "uint256"
        }
      ],
      "name": "validators",
      "outputs": [
        {
          "internalType": "address",
          "name": "",
          "type": "address"
        }
      ],
      "stateMutability": "view",
      "type": "function"
    },
    {
      "stateMutability": "payable",
      "type": "receive"
    }
  ],
  "bytecode": "6080604052610708600155610e10600255348015601b57600080fd5b506124578061002b6000396000f3fe6080604052600436106101e75760003560e01c806399c1aadc11610102578063e2a8f6f211610095578063ec43277211610064578063ec432772146105c6578063f5bbd43a146105fb578063facd743b1461061b578063fef7626c1461064b57600080fd5b8063e2a8f6f214610579578063e6f3d3d8146105a6578063e71ce32e146105c6578063e8bb5946146105db57600080fd5b8063c4d66de8116100d1578063c4d66de814610517578063d088650a14610537578063dc5550901461054d578063ddaa54501461056357600080fd5b806399c1aadc146104915780639a171629146104a7578063a6f9ed81146104d7578063bd423184146104f757600080fd5b8063456104891161017a5780636d6a0352116101495780636d6a03521461040f578063857711841461043c57806391e2e2521461045c578063926b93041461047157600080fd5b8063456104891461039a5780634d238c8e146103ba57806354d9d614146103da5780636b6f3cd9146103fa57600080fd5b80632ab09d14116101b65780632ab09d14146102d557806335aa2e44146102f957806340550a1c1461033157806340a141ff1461037a57600080fd5b80630833c91a1461022857806309eef43e146102605780631865c57d146102905780632542bf06146102b357600080fd5b366102235760405134815233907fe1fffcc4923d04b559f4d29a8bfc6cda04eb5b0d3c460751c2402c5c5cc9109c9060200160405180910390a2005b600080fd5b34801561023457600080fd5b5060085461024990600160a01b900460ff1681565b60405160ff90911681526020015b60405180910390f35b34801561026c57600080fd5b5061024961027b366004611eb1565b600f6020526000908152604090205460ff1681565b34801561029c57600080fd5b506102a5610661565b604051610257929190611f18565b3480156102bf57600080fd5b506102d36102ce366004611f39565b6106ce565b005b3480156102e157600080fd5b506102eb60065481565b604051908152602001610257565b34801561030557600080fd5b50610319610314366004611f39565b6108be565b6040516001600160a01b039091168152602001610257565b34801561033d57600080fd5b5061036a61034c366004611eb1565b6001600160a01b03166000908152600d602052604090205460ff1690565b6040519015158152602001610257565b34801561038657600080fd5b506102d3610395366004611eb1565b6108e8565b3480156103a657600080fd5b506102d36103b5366004611f39565b61097b565b3480156103c657600080fd5b506102d36103d5366004611eb1565b610a2f565b3480156103e657600080fd5b506102d36103f5366004611f52565b610c34565b34801561040657600080fd5b5061036a610df8565b34801561041b57600080fd5b506102eb61042a366004611f52565b60106020526000908152604090205481565b34801561044857600080fd5b50610249610457366004611f39565b610e11565b34801561046857600080fd5b506009546102eb565b34801561047d57600080fd5b5061036a61048c366004611f39565b610e45565b34801561049d57600080fd5b506102eb60045481565b3480156104b357600080fd5b506102496104c2366004611eb1565b600e6020526000908152604090205460ff1681565b3480156104e357600080fd5b50600854610319906001600160a01b031681565b34801561050357600080fd5b506102eb610512366004611f39565b610ea6565b34801561052357600080fd5b506102d3610532366004611eb1565b610ec7565b34801561054357600080fd5b506102eb60055481565b34801561055957600080fd5b506102eb60015481565b34801561056f57600080fd5b506102eb60035481565b34801561058557600080fd5b50610599610594366004611f39565b610fd4565b6040516102579190611f75565b3480156105b257600080fd5b506102eb6105c13660046120c8565b61113e565b3480156105d257600080fd5b506102d36111da565b3480156105e757600080fd5b506103196105f6366004611f39565b611242565b34801561060757600080fd5b506102d36106163660046120c8565b611252565b34801561062757600080fd5b5061036a610636366004611eb1565b600d6020526000908152604090205460ff1681565b34801561065757600080fd5b506102eb60025481565b60006060600654600a808054806020026020016040519081016040528092919081815260200182805480156106bf57602002820191906000526020600020905b81546001600160a01b031681526001909101906020018083116106a1575b50505050509050915091509091565b60006106d93361168d565b905060006106e56116e3565b9050818061070a5750336000908152600d602052604090205460ff16801561070a5750805b61075b5760405162461bcd60e51b815260206004820181905260248201527f4e6f7420656c696769626c6520746f207375626d69742070726f706f73616c2e60448201526064015b60405180910390fd5b336000908152600e602052604090205460ff16156107da5760405162461bcd60e51b815260206004820152603660248201527f56616c696461746f722068617320616c7265616479207375626d6974746564206044820152753090383937b837b9b0b6103a3434b9903937bab7321760511b6064820152608401610752565b80156107e8576107e8611708565b60786001546107f791906121e7565b60055461080490426121e7565b10156108695760405162461bcd60e51b815260206004820152602e60248201527f4d75737420776169742075706461746554696d65202d20356d2061667465722060448201526d3630b9ba1032bc32b1baba34b7b760911b6064820152608401610752565b5050600b80546001810182557f0175b7a638427703f0dbe7bb9bbf987a2551717b34e79f33b5b1008d1fa01db9019190915554336000908152600e60205260409020805460ff191660ff909216919091179055565b600981815481106108ce57600080fd5b6000918252602090912001546001600160a01b0316905081565b336000908152600d602052604090205460ff166109175760405162461bcd60e51b815260040161075290612200565b336001600160a01b0382161461096f5760405162461bcd60e51b815260206004820181905260248201527f43616e6e6f742072656d6f766520616e6f746865722076616c696461746f72216044820152606401610752565b6109788161181b565b50565b6008546001600160a01b031633146109c95760405162461bcd60e51b8152602060048201526011602482015270139bdd0818dbdc994818dbdb9d1c9858dd607a1b6044820152606401610752565b600154811015610a2a5760405162461bcd60e51b815260206004820152602660248201527f45787069726174696f6e2074696d65206d757374206265203e3d207570646174604482015265652074696d6560d01b6064820152608401610752565b600255565b600754604051631293efbb60e21b81526001600160a01b03838116600483015290911690634a4fbeec90602401602060405180830381865afa158015610a79573d6000803e3d6000fd5b505050506040513d601f19601f82011682018060405250810190610a9d9190612229565b610b0f5760405162461bcd60e51b815260206004820152603a60248201527f56616c696461746f72206d757374206265207265676973746572656420616e6460448201527f206c6f636b6564206f6e20536d6172746e6f646573436f7265210000000000006064820152608401610752565b6001600160a01b0381166000908152600d602052604090205460ff1615610b895760405162461bcd60e51b815260206004820152602860248201527f56616c696461746f7220616c72656164792072656769737465726564206f6e206044820152674d756c747369672160c01b6064820152608401610752565b6009805460018082019092557f6e1540171b6c0c960b71a7020d9f60077f6af931a8bbf590da0223dacf75c7af0180546001600160a01b0319166001600160a01b0384169081179091556000908152600d60205260409020805460ff19169091179055610bf46119e1565b6040516001600160a01b03821681527fe366c1c0452ed8eec96861e9e54141ebff23c9ec89fe27b996b45f5ec3884987906020015b60405180910390a150565b336000908152600d602052604090205460ff16610c635760405162461bcd60e51b815260040161075290612200565b336000908152600f602052604090205460ff1615610cc35760405162461bcd60e51b815260206004820152601c60248201527f56616c696461746f722068617320616c726561647920766f74656421000000006044820152606401610752565b600b5460ff821611801590610cdb575060008160ff16115b610d275760405162461bcd60e51b815260206004820152601860248201527f496e76616c69642070726f706f73616c206e756d6265722100000000000000006044820152606401610752565b336000908152600d602052604081205460ff1615159003610d4b57610d4b33610a2f565b336000908152600f60209081526040808320805460ff191660ff8616908117909155835260109091528120805491610d828361224b565b909155505060045460ff82166000908152601060205260409020541061097857600c8054600181018255600091909152602081047fdf6966c971051c3d54ec59162606531493a51404a002842f56009d7e5cf4a8c701805460ff808516601f9094166101000a9384029302191691909117905550565b600060025460055442610e0b91906121e7565b11905090565b600c8181548110610e2157600080fd5b9060005260206000209060209182820401919006915054906101000a900460ff1681565b6000805b600c54811015610e9d5782600c8281548110610e6757610e67612264565b60009182526020918290209181049091015460ff601f9092166101000a90041603610e955750600192915050565b600101610e49565b50600092915050565b600b8181548110610eb657600080fd5b600091825260209091200154905081565b600054610100900460ff16610ee25760005460ff1615610ee6565b303b155b610f495760405162461bcd60e51b815260206004820152602e60248201527f496e697469616c697a61626c653a20636f6e747261637420697320616c72656160448201526d191e481a5b9a5d1a585b1a5e995960921b6064820152608401610752565b600054610100900460ff16158015610f6b576000805461ffff19166101011790555b60088054610708600155610e10600255600780546001600160a01b0319166001600160a01b0386169081179091556000600581905560426003556001600160a81b031990921617600160a01b179091556006558015610fd0576000805461ff00191690555b5050565b6009546060908211156110295760405162461bcd60e51b815260206004820152601d60248201527f4e6f7420656e6f756768206163746976652076616c696461746f7273210000006044820152606401610752565b60008267ffffffffffffffff81111561104457611044611f88565b60405190808252806020026020018201604052801561106d578160200160208202803683370190505b5090506000805b848110156111355760095460408051426020820152339181019190915260608101839052600091906080016040516020818303038152906040528051906020012060001c6110c29190612290565b9050600981815481106110d7576110d7612264565b9060005260206000200160009054906101000a90046001600160a01b031684838151811061110757611107612264565b6001600160a01b0390921660209283029190910190910152826111298161224b565b93505050600101611074565b50909392505050565b600083518351146111a05760405162461bcd60e51b815260206004820152602660248201527f576f726b65727320616e642063617061636974696573206c656e677468206d696044820152650e6dac2e8c6d60d31b6064820152608401610752565b85858585856040516020016111b99594939291906122d5565b60405160208183030381529060405280519060200120905095945050505050565b6008546001600160a01b031633146112285760405162461bcd60e51b8152602060048201526011602482015270139bdd0818dbdc994818dbdb9d1c9858dd607a1b6044820152606401610752565b60026001600082825461123b919061235c565b9091555050565b600a81815481106108ce57600080fd5b336000908152600d602052604090205460ff166112815760405162461bcd60e51b815260040161075290612200565b336000908152600e602052604090205460ff16806112e15760405162461bcd60e51b815260206004820152601b60248201527f4d75737420626520612070726f706f73616c2063726561746f722100000000006044820152606401610752565b60045460ff821660009081526010602052604090205410156113455760405162461bcd60e51b815260206004820152601a60248201527f4e6f7420656e6f7567682070726f706f73616c20766f746573210000000000006044820152606401610752565b6000600b611354600184612370565b60ff168154811061136757611367612264565b906000526020600020015490506000611383888888888861113e565b90508181146113e65760405162461bcd60e51b815260206004820152602960248201527f50726f706f73616c206461746120646f65736e2774206d6174636820696e697460448201526869616c20686173682160b81b6064820152608401610752565b8751156114255760005b88518110156114235761141b89828151811061140e5761140e612264565b602002602001015161181b565b6001016113f0565b505b8651600090156114e75760005b88518110156114e55760075489516000916001600160a01b03169063991e0139908c908590811061146557611465612264565b60200260200101516040518263ffffffff1660e01b815260040161148b91815260200190565b6020604051808303816000875af11580156114aa573d6000803e3d6000fd5b505050506040513d601f19601f820116820180604052508101906114ce9190612389565b90506114da81846123a2565b925050600101611432565b505b60ff841660009081526010602052604081205467ffffffffffffffff81111561151257611512611f88565b60405190808252806020026020018201604052801561153b578160200160208202803683370190505b50905060005b6009548110156115d15760006009828154811061156057611560612264565b60009182526020808320909101546001600160a01b0316808352600f90915260409091205490915060ff8089169116036115c857808383815181106115a7576115a7612264565b60200260200101906001600160a01b031690816001600160a01b0316815250505b50600101611541565b506007546040516306e2589960e51b81526001600160a01b039091169063dc4b13209061160a908a908c908b90879089906004016123b5565b600060405180830381600087803b15801561162457600080fd5b505af1158015611638573d6000803e3d6000fd5b505060065460408051918252602082018790527f56a007d3eea04bd347e571f3451382cb2a33ef5fd102b9a63846ff8d787f43cf935001905060405180910390a1611681611a11565b50505050505050505050565b6000805b600a54811015610e9d57826001600160a01b0316600a82815481106116b8576116b8612264565b6000918252602090912001546001600160a01b0316036116db5750600192915050565b600101611691565b6000600254600554426116f691906121e7565b11156117025750600190565b50600090565b60005b6009548110156117be576000600f60006009848154811061172e5761172e612264565b6000918252602080832091909101546001600160a01b031683528201929092526040018120805460ff191660ff939093169290921790915560098054600e9183918590811061177f5761177f612264565b6000918252602080832091909101546001600160a01b031683528201929092526040019020805460ff191660ff9290921691909117905560010161170b565b505b600b541561180d57600b805460ff81166000908152601060205260408120558154909190806117f1576117f16123f4565b60019003818190600052602060002001600090559055506117c0565b611819600c6000611e3d565b565b6001600160a01b0381166000908152600d602052604090205460ff166118835760405162461bcd60e51b815260206004820152601960248201527f56616c696461746f72206e6f74207265676973746572656421000000000000006044820152606401610752565b6001600160a01b0381166000908152600d60205260408120805460ff191690555b60095481101561199f57816001600160a01b0316600982815481106118cb576118cb612264565b6000918252602090912001546001600160a01b03160361199757600980546118f5906001906121e7565b8154811061190557611905612264565b600091825260209091200154600980546001600160a01b03909216918390811061193157611931612264565b9060005260206000200160006101000a8154816001600160a01b0302191690836001600160a01b031602179055506009805480611970576119706123f4565b600082815260209020810160001990810180546001600160a01b031916905501905561199f565b6001016118a4565b506119a86119e1565b6040516001600160a01b03821681527fe1434e25d6611e0db941968fdc97811c982ac1602e951637d206f5fdda9dd8f190602001610c29565b6003546009546064916119f39161240a565b6119fd919061235c565b600481905560011115611819576001600455565b611a19611ac4565b600b5415611a6157600b805460ff16600090815260106020526040812055805480611a4657611a466123f4565b60019003818190600052602060002001600090559055611a19565b600c5415611aa957600c805480611a7a57611a7a6123f4565b60019003818190600052602060002090602091828204019190066101000a81549060ff02191690559055611a61565b4260055560068054906000611abd8361224b565b9190505550565b60005b600a54811015611b29576000600e6000600a8481548110611aea57611aea612264565b6000918252602080832091909101546001600160a01b031683528201929092526040019020805460ff191660ff92909216919091179055600101611ac7565b5060005b600954811015611b8f576000600f600060098481548110611b5057611b50612264565b6000918252602080832091909101546001600160a01b031683528201929092526040019020805460ff191660ff92909216919091179055600101611b2d565b50600a54600003611c015760005b600954811015611bff576000600e600060098481548110611bc057611bc0612264565b6000918252602080832091909101546001600160a01b031683528201929092526040019020805460ff191660ff92909216919091179055600101611b9d565b505b611c0d600a6000611e62565b600854600954600160a01b90910460ff161115611c6c5760405162461bcd60e51b815260206004820152601d60248201527f4e6f7420656e6f756768206163746976652076616c696461746f7273210000006044820152606401610752565b600854600090600160a01b900460ff1667ffffffffffffffff811115611c9457611c94611f88565b604051908082528060200260200182016040528015611cbd578160200160208202803683370190505b5090506000805b600854600160a01b900460ff16821015611e385760095460408051426020820152339181019190915260608101849052608081018390526000919060a0016040516020818303038152906040528051906020012060001c611d259190612290565b9050600060098281548110611d3c57611d3c612264565b60009182526020822001546001600160a01b03169150805b85811015611d9f57826001600160a01b0316878281518110611d7857611d78612264565b60200260200101516001600160a01b031603611d975760019150611d9f565b600101611d54565b5080611e235781868681518110611db857611db8612264565b6001600160a01b039283166020918202929092010152600a80546001810182556000919091527fc65a7bb8d6351c1cf70c95a316cc6a92839c986682d98bc35f958f4883f9d2a80180546001600160a01b03191691841691909117905584611e1f8161224b565b9550505b83611e2d8161224b565b945050505050611cc4565b505050565b50805460008255601f0160209004906000526020600020908101906109789190611e7c565b508054600082559060005260206000209081019061097891905b5b80821115611e915760008155600101611e7d565b5090565b80356001600160a01b0381168114611eac57600080fd5b919050565b600060208284031215611ec357600080fd5b611ecc82611e95565b9392505050565b60008151808452602080850194506020840160005b83811015611f0d5781516001600160a01b031687529582019590820190600101611ee8565b509495945050505050565b828152604060208201526000611f316040830184611ed3565b949350505050565b600060208284031215611f4b57600080fd5b5035919050565b600060208284031215611f6457600080fd5b813560ff81168114611ecc57600080fd5b602081526000611ecc6020830184611ed3565b634e487b7160e01b600052604160045260246000fd5b604051601f8201601f1916810167ffffffffffffffff81118282101715611fc757611fc7611f88565b604052919050565b600067ffffffffffffffff821115611fe957611fe9611f88565b5060051b60200190565b600082601f83011261200457600080fd5b8135602061201961201483611fcf565b611f9e565b8083825260208201915060208460051b87010193508684111561203b57600080fd5b602086015b8481101561205e5761205181611e95565b8352918301918301612040565b509695505050505050565b600082601f83011261207a57600080fd5b8135602061208a61201483611fcf565b8083825260208201915060208460051b8701019350868411156120ac57600080fd5b602086015b8481101561205e57803583529183019183016120b1565b600080600080600060a086880312156120e057600080fd5b853567ffffffffffffffff808211156120f857600080fd5b61210489838a01611ff3565b965060209150818801358181111561211b57600080fd5b8801601f81018a1361212c57600080fd5b803561213a61201482611fcf565b81815260059190911b8201840190848101908c83111561215957600080fd5b928501925b828410156121775783358252928501929085019061215e565b9850505050604088013591508082111561219057600080fd5b61219c89838a01612069565b945060608801359150808211156121b257600080fd5b506121bf88828901611ff3565b95989497509295608001359392505050565b634e487b7160e01b600052601160045260246000fd5b818103818111156121fa576121fa6121d1565b92915050565b6020808252600f908201526e2737ba1030903b30b634b230ba37b960891b604082015260600190565b60006020828403121561223b57600080fd5b81518015158114611ecc57600080fd5b60006001820161225d5761225d6121d1565b5060010190565b634e487b7160e01b600052603260045260246000fd5b634e487b7160e01b600052601260045260246000fd5b60008261229f5761229f61227a565b500690565b60008151808452602080850194506020840160005b83811015611f0d578151875295820195908201906001016122b9565b60a0815260006122e860a0830188611ed3565b82810360208481019190915287518083528882019282019060005b8181101561231f57845183529383019391830191600101612303565b5050848103604086015261233381896122a4565b9250505082810360608401526123498186611ed3565b9150508260808301529695505050505050565b60008261236b5761236b61227a565b500490565b60ff82811682821603908111156121fa576121fa6121d1565b60006020828403121561239b57600080fd5b5051919050565b808201808211156121fa576121fa6121d1565b60a0815260006123c860a0830188611ed3565b82810360208401526123da81886122a4565b905085604084015282810360608401526123498186611ed3565b634e487b7160e01b600052603160045260246000fd5b80820281158282048414176121fa576121fa6121d156fea2646970667358221220155413f4a6eced03dfead901a36cae9cca69894e42c0f04705a804712890178564736f6c63430008190033",
  "bytecodeSha1": "476a7917dbeec656e1c8fdb92de10e252c93e7a8",
  "compiler": {
    "evm_version": "istanbul",
    "optimizer": {
      "enabled": true,
      "runs": 200
    },
    "version": "0.8.25+commit.b61c2a91"
  },
  "contractName": "SmartnodesMultiSig",
  "language": "Solidity",
  "natspec": {
    "details": "A multi-signature contract composed of Smartnodes validators responsible for managing the Core contract",
    "kind": "dev",
    "methods": {
      "addValidator(address)": {
        "notice": "Adds a new validator to the contract, must be staked on SmartnodesCore.",
        "params": {
          "validator": "The address of the new validator"
        }
      },
      "approveTransaction(uint8)": {
        "notice": "Casts a vote for a proposal and executes once required approvals are met. Add Validator to storage if it has just registered and is not stored on MultiSig. ",
        "params": {
          "proposalNum": "The ID of the current round proposal"
        }
      },
      "createProposal(bytes32)": {
        "notice": "Creates a new proposal, to update all the essential data structures given some aggregated off-chain state."
      },
      "executeProposal(address[],bytes32[],uint256[],address[],uint256)": {
        "notice": "Executes a proposal if it has enough approvals."
      },
      "initialize(address)": {
        "notice": "Initializes the contract",
        "params": {
          "target": "Address of the SmartNodes core contract"
        }
      },
      "isRoundExpired()": {
        "notice": "Checks if a round has expired"
      },
      "setProposalExpirationTime(uint256)": {
        "notice": "Allows updating the proposal expiration time"
      }
    },
    "title": "SmartnodesMultiSig",
    "version": 1
  },
  "opcodes": "PUSH1 0x80 PUSH1 0x40 MSTORE PUSH1 0x4 CALLDATASIZE LT PUSH2 0x1E7 JUMPI PUSH1 0x0 CALLDATALOAD PUSH1 0xE0 SHR DUP1 PUSH4 0x99C1AADC GT PUSH2 0x102 JUMPI DUP1 PUSH4 0xE2A8F6F2 GT PUSH2 0x95 JUMPI DUP1 PUSH4 0xEC432772 GT PUSH2 0x64 JUMPI DUP1 PUSH4 0xEC432772 EQ PUSH2 0x5C6 JUMPI DUP1 PUSH4 0xF5BBD43A EQ PUSH2 0x5FB JUMPI DUP1 PUSH4 0xFACD743B EQ PUSH2 0x61B JUMPI DUP1 PUSH4 0xFEF7626C EQ PUSH2 0x64B JUMPI PUSH1 0x0 DUP1 REVERT JUMPDEST DUP1 PUSH4 0xE2A8F6F2 EQ PUSH2 0x579 JUMPI DUP1 PUSH4 0xE6F3D3D8 EQ PUSH2 0x5A6 JUMPI DUP1 PUSH4 0xE71CE32E EQ PUSH2 0x5C6 JUMPI DUP1 PUSH4 0xE8BB5946 EQ PUSH2 0x5DB JUMPI PUSH1 0x0 DUP1 REVERT JUMPDEST DUP1 PUSH4 0xC4D66DE8 GT PUSH2 0xD1 JUMPI DUP1 PUSH4 0xC4D66DE8 EQ PUSH2 0x517 JUMPI DUP1 PUSH4 0xD088650A EQ PUSH2 0x537 JUMPI DUP1 PUSH4 0xDC555090 EQ PUSH2 0x54D JUMPI DUP1 PUSH4 0xDDAA5450 EQ PUSH2 0x563 JUMPI PUSH1 0x0 DUP1 REVERT JUMPDEST DUP1 PUSH4 0x99C1AADC EQ PUSH2 0x491 JUMPI DUP1 PUSH4 0x9A171629 EQ PUSH2 0x4A7 JUMPI DUP1 PUSH4 0xA6F9ED81 EQ PUSH2 0x4D7 JUMPI DUP1 PUSH4 0xBD423184 EQ PUSH2 0x4F7 JUMPI PUSH1 0x0 DUP1 REVERT JUMPDEST DUP1 PUSH4 0x45610489 GT PUSH2 0x17A JUMPI DUP1 PUSH4 0x6D6A0352 GT PUSH2 0x149 JUMPI DUP1 PUSH4 0x6D6A0352 EQ PUSH2 0x40F JUMPI DUP1 PUSH4 0x85771184 EQ PUSH2 0x43C JUMPI DUP1 PUSH4 0x91E2E252 EQ PUSH2 0x45C JUMPI DUP1 PUSH4 0x926B9304 EQ PUSH2 0x471 JUMPI PUSH1 0x0 DUP1 REVERT JUMPDEST DUP1 PUSH4 0x45610489 EQ PUSH2 0x39A JUMPI DUP1 PUSH4 0x4D238C8E EQ PUSH2 0x3BA JUMPI DUP1 PUSH4 0x54D9D614 EQ PUSH2 0x3DA JUMPI DUP1 PUSH4 0x6B6F3CD9 EQ PUSH2 0x3FA JUMPI PUSH1 0x0 DUP1 REVERT JUMPDEST DUP1 PUSH4 0x2AB09D14 GT PUSH2 0x1B6 JUMPI DUP1 PUSH4 0x2AB09D14 EQ PUSH2 0x2D5 JUMPI DUP1 PUSH4 0x35AA2E44 EQ PUSH2 0x2F9 JUMPI DUP1 PUSH4 0x40550A1C EQ PUSH2 0x331 JUMPI DUP1 PUSH4 0x40A141FF EQ PUSH2 0x37A JUMPI PUSH1 0x0 DUP1 REVERT JUMPDEST DUP1 PUSH4 0x833C91A EQ PUSH2 0x228 JUMPI DUP1 PUSH4 0x9EEF43E EQ PUSH2 0x260 JUMPI DUP1 PUSH4 0x1865C57D EQ PUSH2 0x290 JUMPI DUP1 PUSH4 0x2542BF06 EQ PUSH2 0x2B3 JUMPI PUSH1 0x0 DUP1 REVERT JUMPDEST CALLDATASIZE PUSH2 0x223 JUMPI PUSH1 0x40 MLOAD CALLVALUE DUP2 MSTORE CALLER SWAP1 PUSH32 0xE1FFFCC4923D04B559F4D29A8BFC6CDA04EB5B0D3C460751C2402C5C5CC9109C SWAP1 PUSH1 0x20 ADD PUSH1 0x40 MLOAD DUP1 SWAP2 SUB SWAP1 LOG2 STOP JUMPDEST PUSH1 0x0 DUP1 REVERT JUMPDEST CALLVALUE DUP1 ISZERO PUSH2 0x234 JUMPI PUSH1 0x0 DUP1 REVERT JUMPDEST POP PUSH1 0x8 SLOAD PUSH2 0x249 SWAP1 PUSH1 0x1 PUSH1 0xA0 SHL SWAP1 DIV PUSH1 0xFF AND DUP2 JUMP JUMPDEST PUSH1 0x40 MLOAD PUSH1 0xFF SWAP1 SWAP2 AND DUP2 MSTORE PUSH1 0x20 ADD JUMPDEST PUSH1 0x40 MLOAD DUP1 SWAP2 SUB SWAP1 RETURN JUMPDEST CALLVALUE DUP1 ISZERO PUSH2 0x26C JUMPI PUSH1 0x0 DUP1 REVERT JUMPDEST POP PUSH2 0x249 PUSH2 0x27B CALLDATASIZE PUSH1 0x4 PUSH2 0x1EB1 JUMP JUMPDEST PUSH1 0xF PUSH1 0x20 MSTORE PUSH1 0x0 SWAP1 DUP2 MSTORE PUSH1 0x40 SWAP1 KECCAK256 SLOAD PUSH1 0xFF AND DUP2 JUMP JUMPDEST CALLVALUE DUP1 ISZERO PUSH2 0x29C JUMPI PUSH1 0x0 DUP1 REVERT JUMPDEST POP PUSH2 0x2A5 PUSH2 0x661 JUMP JUMPDEST PUSH1 0x40 MLOAD PUSH2 0x257 SWAP3 SWAP2 SWAP1 PUSH2 0x1F18 JUMP JUMPDEST CALLVALUE DUP1 ISZERO PUSH2 0x2BF JUMPI PUSH1 0x0 DUP1 REVERT JUMPDEST POP PUSH2 0x2D3 PUSH2 0x2CE CALLDATASIZE PUSH1 0x4 PUSH2 0x1F39 JUMP JUMPDEST PUSH2 0x6CE JUMP JUMPDEST STOP JUMPDEST CALLVALUE DUP1 ISZERO PUSH2 0x2E1 JUMPI PUSH1 0x0 DUP1 REVERT JUMPDEST POP PUSH2 0x2EB PUSH1 0x6 SLOAD DUP2 JUMP JUMPDEST PUSH1 0x40 MLOAD SWAP1 DUP2 MSTORE PUSH1 0x20 ADD PUSH2 0x257 JUMP JUMPDEST CALLVALUE DUP1 ISZERO PUSH2 0x305 JUMPI PUSH1 0x0 DUP1 REVERT JUMPDEST POP PUSH2 0x319 PUSH2 0x314 CALLDATASIZE PUSH1 0x4 PUSH2 0x1F39 JUMP JUMPDEST PUSH2 0x8BE JUMP JUMPDEST PUSH1 0x40 MLOAD PUSH1 0x1 PUSH1 0x1 PUSH1 0xA0 SHL SUB SWAP1 SWAP2 AND DUP2 MSTORE PUSH1 0x20 ADD PUSH2 0x257 JUMP JUMPDEST CALLVALUE DUP1 ISZERO PUSH2 0x33D JUMPI PUSH1 0x0 DUP1 REVERT JUMPDEST POP PUSH2 0x36A PUSH2 0x34C CALLDATASIZE PUSH1 0x4 PUSH2 0x1EB1 JUMP JUMPDEST PUSH1 0x1 PUSH1 0x1 PUSH1 0xA0 SHL SUB AND PUSH1 0x0 SWAP1 DUP2 MSTORE PUSH1 0xD PUSH1 0x20 MSTORE PUSH1 0x40 SWAP1 KECCAK256 SLOAD PUSH1 0xFF AND SWAP1 JUMP JUMPDEST PUSH1 0x40 MLOAD SWAP1 ISZERO ISZERO DUP2 MSTORE PUSH1 0x20 ADD PUSH2 0x257 JUMP JUMPDEST CALLVALUE DUP1 ISZERO PUSH2 0x386 JUMPI PUSH1 0x0 DUP1 REVERT JUMPDEST POP PUSH2 0x2D3 PUSH2 0x395 CALLDATASIZE PUSH1 0x4 PUSH2 0x1EB1 JUMP JUMPDEST PUSH2 0x8E8 JUMP JUMPDEST CALLVALUE DUP1 ISZERO PUSH2 0x3A6 JUMPI PUSH1 0x0 DUP1 REVERT JUMPDEST POP PUSH2 0x2D3 PUSH2 0x3B5 CALLDATASIZE PUSH1 0x4 PUSH2 0x1F39 JUMP JUMPDEST PUSH2 0x97B JUMP JUMPDEST CALLVALUE DUP1 ISZERO PUSH2 0x3C6 JUMPI PUSH1 0x0 DUP1 REVERT JUMPDEST POP PUSH2 0x2D3 PUSH2 0x3D5 CALLDATASIZE PUSH1 0x4 PUSH2 0x1EB1 JUMP JUMPDEST PUSH2 0xA2F JUMP JUMPDEST CALLVALUE DUP1 ISZERO PUSH2 0x3E6 JUMPI PUSH1 0x0 DUP1 REVERT JUMPDEST POP PUSH2 0x2D3 PUSH2 0x3F5 CALLDATASIZE PUSH1 0x4 PUSH2 0x1F52 JUMP JUMPDEST PUSH2 0xC34 JUMP JUMPDEST CALLVALUE DUP1 ISZERO PUSH2 0x406 JUMPI PUSH1 0x0 DUP1 REVERT JUMPDEST POP PUSH2 0x36A PUSH2 0xDF8 JUMP JUMPDEST CALLVALUE DUP1 ISZERO PUSH2 0x41B JUMPI PUSH1 0x0 DUP1 REVERT JUMPDEST POP PUSH2 0x2EB PUSH2 0x42A CALLDATASIZE PUSH1 0x4 PUSH2 0x1F52 JUMP JUMPDEST PUSH1 0x10 PUSH1 0x20 MSTORE PUSH1 0x0 SWAP1 DUP2 MSTORE PUSH1 0x40 SWAP1 KECCAK256 SLOAD DUP2 JUMP JUMPDEST CALLVALUE DUP1 ISZERO PUSH2 0x448 JUMPI PUSH1 0x0 DUP1 REVERT JUMPDEST POP PUSH2 0x249 PUSH2 0x457 CALLDATASIZE PUSH1 0x4 PUSH2 0x1F39 JUMP JUMPDEST PUSH2 0xE11 JUMP JUMPDEST CALLVALUE DUP1 ISZERO PUSH2 0x468 JUMPI PUSH1 0x0 DUP1 REVERT JUMPDEST POP PUSH1 0x9 SLOAD PUSH2 0x2EB JUMP JUMPDEST CALLVALUE DUP1 ISZERO PUSH2 0x47D JUMPI PUSH1 0x0 DUP1 REVERT JUMPDEST POP PUSH2 0x36A PUSH2 0x48C CALLDATASIZE PUSH1 0x4 PUSH2 0x1F39 JUMP JUMPDEST PUSH2 0xE45 JUMP JUMPDEST CALLVALUE DUP1 ISZERO PUSH2 0x49D JUMPI PUSH1 0x0 DUP1 REVERT JUMPDEST POP PUSH2 0x2EB PUSH1 0x4 SLOAD DUP2 JUMP JUMPDEST CALLVALUE DUP1 ISZERO PUSH2 0x4B3 JUMPI PUSH1 0x0 DUP1 REVERT JUMPDEST POP PUSH2 0x249 PUSH2 0x4C2 CALLDATASIZE PUSH1 0x4 PUSH2 0x1EB1 JUMP JUMPDEST PUSH1 0xE PUSH1 0x20 MSTORE PUSH1 0x0 SWAP1 DUP2 MSTORE PUSH1 0x40 SWAP1 KECCAK256 SLOAD PUSH1 0xFF AND DUP2 JUMP JUMPDEST CALLVALUE DUP1 ISZERO PUSH2 0x4E3 JUMPI PUSH1 0x0 DUP1 REVERT JUMPDEST POP PUSH1 0x8 SLOAD PUSH2 0x319 SWAP1 PUSH1 0x1 PUSH1 0x1 PUSH1 0xA0 SHL SUB AND DUP2 JUMP JUMPDEST CALLVALUE DUP1 ISZERO PUSH2 0x503 JUMPI PUSH1 0x0 DUP1 REVERT JUMPDEST POP PUSH2 0x2EB PUSH2 0x512 CALLDATASIZE PUSH1 0x4 PUSH2 0x1F39 JUMP JUMPDEST PUSH2 0xEA6 JUMP JUMPDEST CALLVALUE DUP1 ISZERO PUSH2 0x523 JUMPI PUSH1 0x0 DUP1 REVERT JUMPDEST POP PUSH2 0x2D3 PUSH2 0x532 CALLDATASIZE PUSH1 0x4 PUSH2 0x1EB1 JUMP JUMPDEST PUSH2 0xEC7 JUMP JUMPDEST CALLVALUE DUP1 ISZERO PUSH2 0x543 JUMPI PUSH1 0x0 DUP1 REVERT JUMPDEST POP PUSH2 0x2EB PUSH1 0x5 SLOAD DUP2 JUMP JUMPDEST CALLVALUE DUP1 ISZERO PUSH2 0x559 JUMPI PUSH1 0x0 DUP1 REVERT JUMPDEST POP PUSH2 0x2EB PUSH1 0x1 SLOAD DUP2 JUMP JUMPDEST CALLVALUE DUP1 ISZERO PUSH2 0x56F JUMPI PUSH1 0x0 DUP1 REVERT JUMPDEST POP PUSH2 0x2EB PUSH1 0x3 SLOAD DUP2 JUMP JUMPDEST CALLVALUE DUP1 ISZERO PUSH2 0x585 JUMPI PUSH1 0x0 DUP1 REVERT JUMPDEST POP PUSH2 0x599 PUSH2 0x594 CALLDATASIZE PUSH1 0x4 PUSH2 0x1F39 JUMP JUMPDEST PUSH2 0xFD4 JUMP JUMPDEST PUSH1 0x40 MLOAD PUSH2 0x257 SWAP2 SWAP1 PUSH2 0x1F75 JUMP JUMPDEST CALLVALUE DUP1 ISZERO PUSH2 0x5B2 JUMPI PUSH1 0x0 DUP1 REVERT JUMPDEST POP PUSH2 0x2EB PUSH2 0x5C1 CALLDATASIZE PUSH1 0x4 PUSH2 0x20C8 JUMP JUMPDEST PUSH2 0x113E JUMP JUMPDEST CALLVALUE DUP1 ISZERO PUSH2 0x5D2 JUMPI PUSH1 0x0 DUP1 REVERT JUMPDEST POP PUSH2 0x2D3 PUSH2 0x11DA JUMP JUMPDEST CALLVALUE DUP1 ISZERO PUSH2 0x5E7 JUMPI PUSH1 0x0 DUP1 REVERT JUMPDEST POP PUSH2 0x319 PUSH2 0x5F6 CALLDATASIZE PUSH1 0x4 PUSH2 0x1F39 JUMP JUMPDEST PUSH2 0x1242 JUMP JUMPDEST CALLVALUE DUP1 ISZERO PUSH2 0x607 JUMPI PUSH1 0x0 DUP1 REVERT JUMPDEST POP PUSH2 0x2D3 PUSH2 0x616 CALLDATASIZE PUSH1 0x4 PUSH2 0x20C8 JUMP JUMPDEST PUSH2 0x1252 JUMP JUMPDEST CALLVALUE DUP1 ISZERO PUSH2 0x627 JUMPI PUSH1 0x0 DUP1 REVERT JUMPDEST POP PUSH2 0x36A PUSH2 0x636 CALLDATASIZE PUSH1 0x4 PUSH2 0x1EB1 JUMP JUMPDEST PUSH1 0xD PUSH1 0x20 MSTORE PUSH1 0x0 SWAP1 DUP2 MSTORE PUSH1 0x40 SWAP1 KECCAK256 SLOAD PUSH1 0xFF AND DUP2 JUMP JUMPDEST CALLVALUE DUP1 ISZERO PUSH2 0x657 JUMPI PUSH1 0x0 DUP1 REVERT JUMPDEST POP PUSH2 0x2EB PUSH1 0x2 SLOAD DUP2 JUMP JUMPDEST PUSH1 0x0 PUSH1 0x60 PUSH1 0x6 SLOAD PUSH1 0xA DUP1 DUP1 SLOAD DUP1 PUSH1 0x20 MUL PUSH1 0x20 ADD PUSH1 0x40 MLOAD SWAP1 DUP2 ADD PUSH1 0x40 MSTORE DUP1 SWAP3 SWAP2 SWAP1 DUP2 DUP2 MSTORE PUSH1 0x20 ADD DUP3 DUP1 SLOAD DUP1 ISZERO PUSH2 0x6BF JUMPI PUSH1 0x20 MUL DUP3 ADD SWAP2 SWAP1 PUSH1 0x0 MSTORE PUSH1 0x20 PUSH1 0x0 KECCAK256 SWAP1 JUMPDEST DUP2 SLOAD PUSH1 0x1 PUSH1 0x1 PUSH1 0xA0 SHL SUB AND DUP2 MSTORE PUSH1 0x1 SWAP1 SWAP2 ADD SWAP1 PUSH1 0x20 ADD DUP1 DUP4 GT PUSH2 0x6A1 JUMPI JUMPDEST POP POP POP POP POP SWAP1 POP SWAP2 POP SWAP2 POP SWAP1 SWAP2 JUMP JUMPDEST PUSH1 0x0 PUSH2 0x6D9 CALLER PUSH2 0x168D JUMP JUMPDEST SWAP1 POP PUSH1 0x0 PUSH2 0x6E5 PUSH2 0x16E3 JUMP JUMPDEST SWAP1 POP DUP2 DUP1 PUSH2 0x70A JUMPI POP CALLER PUSH1 0x0 SWAP1 DUP2 MSTORE PUSH1 0xD PUSH1 0x20 MSTORE PUSH1 0x40 SWAP1 KECCAK256 SLOAD PUSH1 0xFF AND DUP1 ISZERO PUSH2 0x70A JUMPI POP DUP1 JUMPDEST PUSH2 0x75B JUMPI PUSH1 0x40 MLOAD PUSH3 0x461BCD PUSH1 0xE5 SHL DUP2 MSTORE PUSH1 0x20 PUSH1 0x4 DUP3 ADD DUP2 SWAP1 MSTORE PUSH1 0x24 DUP3 ADD MSTORE PUSH32 0x4E6F7420656C696769626C6520746F207375626D69742070726F706F73616C2E PUSH1 0x44 DUP3 ADD MSTORE PUSH1 0x64 ADD JUMPDEST PUSH1 0x40 MLOAD DUP1 SWAP2 SUB SWAP1 REVERT JUMPDEST CALLER PUSH1 0x0 SWAP1 DUP2 MSTORE PUSH1 0xE PUSH1 0x20 MSTORE PUSH1 0x40 SWAP1 KECCAK256 SLOAD PUSH1 0xFF AND ISZERO PUSH2 0x7DA JUMPI PUSH1 0x40 MLOAD PUSH3 0x461BCD PUSH1 0xE5 SHL DUP2 MSTORE PUSH1 0x20 PUSH1 0x4 DUP3 ADD MSTORE PUSH1 0x36 PUSH1 0x24 DUP3 ADD MSTORE PUSH32 0x56616C696461746F722068617320616C7265616479207375626D697474656420 PUSH1 0x44 DUP3 ADD MSTORE PUSH22 0x3090383937B837B9B0B6103A3434B9903937BAB73217 PUSH1 0x51 SHL PUSH1 0x64 DUP3 ADD MSTORE PUSH1 0x84 ADD PUSH2 0x752 JUMP JUMPDEST DUP1 ISZERO PUSH2 0x7E8 JUMPI PUSH2 0x7E8 PUSH2 0x1708 JUMP JUMPDEST PUSH1 0x78 PUSH1 0x1 SLOAD PUSH2 0x7F7 SWAP2 SWAP1 PUSH2 0x21E7 JUMP JUMPDEST PUSH1 0x5 SLOAD PUSH2 0x804 SWAP1 TIMESTAMP PUSH2 0x21E7 JUMP JUMPDEST LT ISZERO PUSH2 0x869 JUMPI PUSH1 0x40 MLOAD PUSH3 0x461BCD PUSH1 0xE5 SHL DUP2 MSTORE PUSH1 0x20 PUSH1 0x4 DUP3 ADD MSTORE PUSH1 0x2E PUSH1 0x24 DUP3 ADD MSTORE PUSH32 0x4D75737420776169742075706461746554696D65202D20356D20616674657220 PUSH1 0x44 DUP3 ADD MSTORE PUSH14 0x3630B9BA1032BC32B1BABA34B7B7 PUSH1 0x91 SHL PUSH1 0x64 DUP3 ADD MSTORE PUSH1 0x84 ADD PUSH2 0x752 JUMP JUMPDEST POP POP PUSH1 0xB DUP1 SLOAD PUSH1 0x1 DUP2 ADD DUP3 SSTORE PUSH32 0x175B7A638427703F0DBE7BB9BBF987A2551717B34E79F33B5B1008D1FA01DB9 ADD SWAP2 SWAP1 SWAP2 SSTORE SLOAD CALLER PUSH1 0x0 SWAP1 DUP2 MSTORE PUSH1 0xE PUSH1 0x20 MSTORE PUSH1 0x40 SWAP1 KECCAK256 DUP1 SLOAD PUSH1 0xFF NOT AND PUSH1 0xFF SWAP1 SWAP3 AND SWAP2 SWAP1 SWAP2 OR SWAP1 SSTORE JUMP JUMPDEST PUSH1 0x9 DUP2 DUP2 SLOAD DUP2 LT PUSH2 0x8CE JUMPI PUSH1 0x0 DUP1 REVERT JUMPDEST PUSH1 0x0 SWAP2 DUP3 MSTORE PUSH1 0x20 SWAP1 SWAP2 KECCAK256 ADD SLOAD PUSH1 0x1 PUSH1 0x1 PUSH1 0xA0 SHL SUB AND SWAP1 POP DUP2 JUMP JUMPDEST CALLER PUSH1 0x0 SWAP1 DUP2 MSTORE PUSH1 0xD PUSH1 0x20 MSTORE PUSH1 0x40 SWAP1 KECCAK256 SLOAD PUSH1 0xFF AND PUSH2 0x917 JUMPI PUSH1 0x40 MLOAD PUSH3 0x461BCD PUSH1 0xE5 SHL DUP2 MSTORE PUSH1 0x4 ADD PUSH2 0x752 SWAP1 PUSH2 0x2200 JUMP JUMPDEST CALLER PUSH1 0x1 PUSH1 0x1 PUSH1 0xA0 SHL SUB DUP3 AND EQ PUSH2 0x96F JUMPI PUSH1 0x40 MLOAD PUSH3 0x461BCD PUSH1 0xE5 SHL DUP2 MSTORE PUSH1 0x20 PUSH1 0x4 DUP3 ADD DUP2 SWAP1 MSTORE PUSH1 0x24 DUP3 ADD MSTORE PUSH32 0x43616E6E6F742072656D6F766520616E6F746865722076616C696461746F7221 PUSH1 0x44 DUP3 ADD MSTORE PUSH1 0x64 ADD PUSH2 0x752 JUMP JUMPDEST PUSH2 0x978 DUP2 PUSH2 0x181B JUMP JUMPDEST POP JUMP JUMPDEST PUSH1 0x8 SLOAD PUSH1 0x1 PUSH1 0x1 PUSH1 0xA0 SHL SUB AND CALLER EQ PUSH2 0x9C9 JUMPI PUSH1 0x40 MLOAD PUSH3 0x461BCD PUSH1 0xE5 SHL DUP2 MSTORE PUSH1 0x20 PUSH1 0x4 DUP3 ADD MSTORE PUSH1 0x11 PUSH1 0x24 DUP3 ADD MSTORE PUSH17 0x139BDD0818DBDC994818DBDB9D1C9858DD PUSH1 0x7A SHL PUSH1 0x44 DUP3 ADD MSTORE PUSH1 0x64 ADD PUSH2 0x752 JUMP JUMPDEST PUSH1 0x1 SLOAD DUP2 LT ISZERO PUSH2 0xA2A JUMPI PUSH1 0x40 MLOAD PUSH3 0x461BCD PUSH1 0xE5 SHL DUP2 MSTORE PUSH1 0x20 PUSH1 0x4 DUP3 ADD MSTORE PUSH1 0x26 PUSH1 0x24 DUP3 ADD MSTORE PUSH32 0x45787069726174696F6E2074696D65206D757374206265203E3D207570646174 PUSH1 0x44 DUP3 ADD MSTORE PUSH6 0x652074696D65 PUSH1 0xD0 SHL PUSH1 0x64 DUP3 ADD MSTORE PUSH1 0x84 ADD PUSH2 0x752 JUMP JUMPDEST PUSH1 0x2 SSTORE JUMP JUMPDEST PUSH1 0x7 SLOAD PUSH1 0x40 MLOAD PUSH4 0x1293EFBB PUSH1 0xE2 SHL DUP2 MSTORE PUSH1 0x1 PUSH1 0x1 PUSH1 0xA0 SHL SUB DUP4 DUP2 AND PUSH1 0x4 DUP4 ADD MSTORE SWAP1 SWAP2 AND SWAP1 PUSH4 0x4A4FBEEC SWAP1 PUSH1 0x24 ADD PUSH1 0x20 PUSH1 0x40 MLOAD DUP1 DUP4 SUB DUP2 DUP7 GAS STATICCALL ISZERO DUP1 ISZERO PUSH2 0xA79 JUMPI RETURNDATASIZE PUSH1 0x0 DUP1 RETURNDATACOPY RETURNDATASIZE PUSH1 0x0 REVERT JUMPDEST POP POP POP POP PUSH1 0x40 MLOAD RETURNDATASIZE PUSH1 0x1F NOT PUSH1 0x1F DUP3 ADD AND DUP3 ADD DUP1 PUSH1 0x40 MSTORE POP DUP2 ADD SWAP1 PUSH2 0xA9D SWAP2 SWAP1 PUSH2 0x2229 JUMP JUMPDEST PUSH2 0xB0F JUMPI PUSH1 0x40 MLOAD PUSH3 0x461BCD PUSH1 0xE5 SHL DUP2 MSTORE PUSH1 0x20 PUSH1 0x4 DUP3 ADD MSTORE PUSH1 0x3A PUSH1 0x24 DUP3 ADD MSTORE PUSH32 0x56616C696461746F72206D757374206265207265676973746572656420616E64 PUSH1 0x44 DUP3 ADD MSTORE PUSH32 0x206C6F636B6564206F6E20536D6172746E6F646573436F726521000000000000 PUSH1 0x64 DUP3 ADD MSTORE PUSH1 0x84 ADD PUSH2 0x752 JUMP JUMPDEST PUSH1 0x1 PUSH1 0x1 PUSH1 0xA0 SHL SUB DUP2 AND PUSH1 0x0 SWAP1 DUP2 MSTORE PUSH1 0xD PUSH1 0x20 MSTORE PUSH1 0x40 SWAP1 KECCAK256 SLOAD PUSH1 0xFF AND ISZERO PUSH2 0xB89 JUMPI PUSH1 0x40 MLOAD PUSH3 0x461BCD PUSH1 0xE5 SHL DUP2 MSTORE PUSH1 0x20 PUSH1 0x4 DUP3 ADD MSTORE PUSH1 0x28 PUSH1 0x24 DUP3 ADD MSTORE PUSH32 0x56616C696461746F7220616C72656164792072656769737465726564206F6E20 PUSH1 0x44 DUP3 ADD MSTORE PUSH8 0x4D756C7473696721 PUSH1 0xC0 SHL PUSH1 0x64 DUP3 ADD MSTORE PUSH1 0x84 ADD PUSH2 0x752 JUMP JUMPDEST PUSH1 0x9 DUP1 SLOAD PUSH1 0x1 DUP1 DUP3 ADD SWAP1 SWAP3 SSTORE PUSH32 0x6E1540171B6C0C960B71A7020D9F60077F6AF931A8BBF590DA0223DACF75C7AF ADD DUP1 SLOAD PUSH1 0x1 PUSH1 0x1 PUSH1 0xA0 SHL SUB NOT AND PUSH1 0x1 PUSH1 0x1 PUSH1 0xA0 SHL SUB DUP5 AND SWAP1 DUP2 OR SWAP1 SWAP2 SSTORE PUSH1 0x0 SWAP1 DUP2 MSTORE PUSH1 0xD PUSH1 0x20 MSTORE PUSH1 0x40 SWAP1 KECCAK256 DUP1 SLOAD PUSH1 0xFF NOT AND SWAP1 SWAP2 OR SWAP1 SSTORE PUSH2 0xBF4 PUSH2 0x19E1 JUMP JUMPDEST PUSH1 0x40 MLOAD PUSH1 0x1 PUSH1 0x1 PUSH1 0xA0 SHL SUB DUP3 AND DUP2 MSTORE PUSH32 0xE366C1C0452ED8EEC96861E9E54141EBFF23C9EC89FE27B996B45F5EC3884987 SWAP1 PUSH1 0x20 ADD JUMPDEST PUSH1 0x40 MLOAD DUP1 SWAP2 SUB SWAP1 LOG1 POP JUMP JUMPDEST CALLER PUSH1 0x0 SWAP1 DUP2 MSTORE PUSH1 0xD PUSH1 0x20 MSTORE PUSH1 0x40 SWAP1 KECCAK256 SLOAD PUSH1 0xFF AND PUSH2 0xC63 JUMPI PUSH1 0x40 MLOAD PUSH3 0x461BCD PUSH1 0xE5 SHL DUP2 MSTORE PUSH1 0x4 ADD PUSH2 0x752 SWAP1 PUSH2 0x2200 JUMP JUMPDEST CALLER PUSH1 0x0 SWAP1 DUP2 MSTORE PUSH1 0xF PUSH1 0x20 MSTORE PUSH1 0x40 SWAP1 KECCAK256 SLOAD PUSH1 0xFF AND ISZERO PUSH2 0xCC3 JUMPI PUSH1 0x40 MLOAD PUSH3 0x461BCD PUSH1 0xE5 SHL DUP2 MSTORE PUSH1 0x20 PUSH1 0x4 DUP3 ADD MSTORE PUSH1 0x1C PUSH1 0x24 DUP3 ADD MSTORE PUSH32 0x56616C696461746F722068617320616C726561647920766F7465642100000000 PUSH1 0x44 DUP3 ADD MSTORE PUSH1 0x64 ADD PUSH2 0x752 JUMP JUMPDEST PUSH1 0xB SLOAD PUSH1 0xFF DUP3 AND GT DUP1 ISZERO SWAP1 PUSH2 0xCDB JUMPI POP PUSH1 0x0 DUP2 PUSH1 0xFF AND GT JUMPDEST PUSH2 0xD27 JUMPI PUSH1 0x40 MLOAD PUSH3 0x461BCD PUSH1 0xE5 SHL DUP2 MSTORE PUSH1 0x20 PUSH1 0x4 DUP3 ADD MSTORE PUSH1 0x18 PUSH1 0x24 DUP3 ADD MSTORE PUSH32 0x496E76616C69642070726F706F73616C206E756D626572210000000000000000 PUSH1 0x44 DUP3 ADD MSTORE PUSH1 0x64 ADD PUSH2 0x752 JUMP JUMPDEST CALLER PUSH1 0x0 SWAP1 DUP2 MSTORE PUSH1 0xD PUSH1 0x20 MSTORE PUSH1 0x40 DUP2 KECCAK256 SLOAD PUSH1 0xFF AND ISZERO ISZERO SWAP1 SUB PUSH2 0xD4B JUMPI PUSH2 0xD4B CALLER PUSH2 0xA2F JUMP JUMPDEST CALLER PUSH1 0x0 SWAP1 DUP2 MSTORE PUSH1 0xF PUSH1 0x20 SWAP1 DUP2 MSTORE PUSH1 0x40 DUP1 DUP4 KECCAK256 DUP1 SLOAD PUSH1 0xFF NOT AND PUSH1 0xFF DUP7 AND SWAP1 DUP2 OR SWAP1 SWAP2 SSTORE DUP4 MSTORE PUSH1 0x10 SWAP1 SWAP2 MSTORE DUP2 KECCAK256 DUP1 SLOAD SWAP2 PUSH2 0xD82 DUP4 PUSH2 0x224B JUMP JUMPDEST SWAP1 SWAP2 SSTORE POP POP PUSH1 0x4 SLOAD PUSH1 0xFF DUP3 AND PUSH1 0x0 SWAP1 DUP2 MSTORE PUSH1 0x10 PUSH1 0x20 MSTORE PUSH1 0x40 SWAP1 KECCAK256 SLOAD LT PUSH2 0x978 JUMPI PUSH1 0xC DUP1 SLOAD PUSH1 0x1 DUP2 ADD DUP3 SSTORE PUSH1 0x0 SWAP2 SWAP1 SWAP2 MSTORE PUSH1 0x20 DUP2 DIV PUSH32 0xDF6966C971051C3D54EC59162606531493A51404A002842F56009D7E5CF4A8C7 ADD DUP1 SLOAD PUSH1 0xFF DUP1 DUP6 AND PUSH1 0x1F SWAP1 SWAP5 AND PUSH2 0x100 EXP SWAP4 DUP5 MUL SWAP4 MUL NOT AND SWAP2 SWAP1 SWAP2 OR SWAP1 SSTORE POP JUMP JUMPDEST PUSH1 0x0 PUSH1 0x2 SLOAD PUSH1 0x5 SLOAD TIMESTAMP PUSH2 0xE0B SWAP2 SWAP1 PUSH2 0x21E7 JUMP JUMPDEST GT SWAP1 POP SWAP1 JUMP JUMPDEST PUSH1 0xC DUP2 DUP2 SLOAD DUP2 LT PUSH2 0xE21 JUMPI PUSH1 0x0 DUP1 REVERT JUMPDEST SWAP1 PUSH1 0x0 MSTORE PUSH1 0x20 PUSH1 0x0 KECCAK256 SWAP1 PUSH1 0x20 SWAP2 DUP3 DUP3 DIV ADD SWAP2 SWAP1 MOD SWAP2 POP SLOAD SWAP1 PUSH2 0x100 EXP SWAP1 DIV PUSH1 0xFF AND DUP2 JUMP JUMPDEST PUSH1 0x0 DUP1 JUMPDEST PUSH1 0xC SLOAD DUP2 LT ISZERO PUSH2 0xE9D JUMPI DUP3 PUSH1 0xC DUP3 DUP2 SLOAD DUP2 LT PUSH2 0xE67 JUMPI PUSH2 0xE67 PUSH2 0x2264 JUMP JUMPDEST PUSH1 0x0 SWAP2 DUP3 MSTORE PUSH1 0x20 SWAP2 DUP3 SWAP1 KECCAK256 SWAP2 DUP2 DIV SWAP1 SWAP2 ADD SLOAD PUSH1 0xFF PUSH1 0x1F SWAP1 SWAP3 AND PUSH2 0x100 EXP SWAP1 DIV AND SUB PUSH2 0xE95 JUMPI POP PUSH1 0x1 SWAP3 SWAP2 POP POP JUMP JUMPDEST PUSH1 0x1 ADD PUSH2 0xE49 JUMP JUMPDEST POP PUSH1 0x0 SWAP3 SWAP2 POP POP JUMP JUMPDEST PUSH1 0xB DUP2 DUP2 SLOAD DUP2 LT PUSH2 0xEB6 JUMPI PUSH1 0x0 DUP1 REVERT JUMPDEST PUSH1 0x0 SWAP2 DUP3 MSTORE PUSH1 0x20 SWAP1 SWAP2 KECCAK256 ADD SLOAD SWAP1 POP DUP2 JUMP JUMPDEST PUSH1 0x0 SLOAD PUSH2 0x100 SWAP1 DIV PUSH1 0xFF AND PUSH2 0xEE2 JUMPI PUSH1 0x0 SLOAD PUSH1 0xFF AND ISZERO PUSH2 0xEE6 JUMP JUMPDEST ADDRESS EXTCODESIZE ISZERO JUMPDEST PUSH2 0xF49 JUMPI PUSH1 0x40 MLOAD PUSH3 0x461BCD PUSH1 0xE5 SHL DUP2 MSTORE PUSH1 0x20 PUSH1 0x4 DUP3 ADD MSTORE PUSH1 0x2E PUSH1 0x24 DUP3 ADD MSTORE PUSH32 0x496E697469616C697A61626C653A20636F6E747261637420697320616C726561 PUSH1 0x44 DUP3 ADD MSTORE PUSH14 0x191E481A5B9A5D1A585B1A5E9959 PUSH1 0x92 SHL PUSH1 0x64 DUP3 ADD MSTORE PUSH1 0x84 ADD PUSH2 0x752 JUMP JUMPDEST PUSH1 0x0 SLOAD PUSH2 0x100 SWAP1 DIV PUSH1 0xFF AND ISZERO DUP1 ISZERO PUSH2 0xF6B JUMPI PUSH1 0x0 DUP1 SLOAD PUSH2 0xFFFF NOT AND PUSH2 0x101 OR SWAP1 SSTORE JUMPDEST PUSH1 0x8 DUP1 SLOAD PUSH2 0x708 PUSH1 0x1 SSTORE PUSH2 0xE10 PUSH1 0x2 SSTORE PUSH1 0x7 DUP1 SLOAD PUSH1 0x1 PUSH1 0x1 PUSH1 0xA0 SHL SUB NOT AND PUSH1 0x1 PUSH1 0x1 PUSH1 0xA0 SHL SUB DUP7 AND SWAP1 DUP2 OR SWAP1 SWAP2 SSTORE PUSH1 0x0 PUSH1 0x5 DUP2 SWAP1 SSTORE PUSH1 0x42 PUSH1 0x3 SSTORE PUSH1 0x1 PUSH1 0x1 PUSH1 0xA8 SHL SUB NOT SWAP1 SWAP3 AND OR PUSH1 0x1 PUSH1 0xA0 SHL OR SWAP1 SWAP2 SSTORE PUSH1 0x6 SSTORE DUP1 ISZERO PUSH2 0xFD0 JUMPI PUSH1 0x0 DUP1 SLOAD PUSH2 0xFF00 NOT AND SWAP1 SSTORE JUMPDEST POP POP JUMP JUMPDEST PUSH1 0x9 SLOAD PUSH1 0x60 SWAP1 DUP3 GT ISZERO PUSH2 0x1029 JUMPI PUSH1 0x40 MLOAD PUSH3 0x461BCD PUSH1 0xE5 SHL DUP2 MSTORE PUSH1 0x20 PUSH1 0x4 DUP3 ADD MSTORE PUSH1 0x1D PUSH1 0x24 DUP3 ADD MSTORE PUSH32 0x4E6F7420656E6F756768206163746976652076616C696461746F727321000000 PUSH1 0x44 DUP3 ADD MSTORE PUSH1 0x64 ADD PUSH2 0x752 JUMP JUMPDEST PUSH1 0x0 DUP3 PUSH8 0xFFFFFFFFFFFFFFFF DUP2 GT ISZERO PUSH2 0x1044 JUMPI PUSH2 0x1044 PUSH2 0x1F88 JUMP JUMPDEST PUSH1 0x40 MLOAD SWAP1 DUP1 DUP3 MSTORE DUP1 PUSH1 0x20 MUL PUSH1 0x20 ADD DUP3 ADD PUSH1 0x40 MSTORE DUP1 ISZERO PUSH2 0x106D JUMPI DUP2 PUSH1 0x20 ADD PUSH1 0x20 DUP3 MUL DUP1 CALLDATASIZE DUP4 CALLDATACOPY ADD SWAP1 POP JUMPDEST POP SWAP1 POP PUSH1 0x0 DUP1 JUMPDEST DUP5 DUP2 LT ISZERO PUSH2 0x1135 JUMPI PUSH1 0x9 SLOAD PUSH1 0x40 DUP1 MLOAD TIMESTAMP PUSH1 0x20 DUP3 ADD MSTORE CALLER SWAP2 DUP2 ADD SWAP2 SWAP1 SWAP2 MSTORE PUSH1 0x60 DUP2 ADD DUP4 SWAP1 MSTORE PUSH1 0x0 SWAP2 SWAP1 PUSH1 0x80 ADD PUSH1 0x40 MLOAD PUSH1 0x20 DUP2 DUP4 SUB SUB DUP2 MSTORE SWAP1 PUSH1 0x40 MSTORE DUP1 MLOAD SWAP1 PUSH1 0x20 ADD KECCAK256 PUSH1 0x0 SHR PUSH2 0x10C2 SWAP2 SWAP1 PUSH2 0x2290 JUMP JUMPDEST SWAP1 POP PUSH1 0x9 DUP2 DUP2 SLOAD DUP2 LT PUSH2 0x10D7 JUMPI PUSH2 0x10D7 PUSH2 0x2264 JUMP JUMPDEST SWAP1 PUSH1 0x0 MSTORE PUSH1 0x20 PUSH1 0x0 KECCAK256 ADD PUSH1 0x0 SWAP1 SLOAD SWAP1 PUSH2 0x100 EXP SWAP1 DIV PUSH1 0x1 PUSH1 0x1 PUSH1 0xA0 SHL SUB AND DUP5 DUP4 DUP2 MLOAD DUP2 LT PUSH2 0x1107 JUMPI PUSH2 0x1107 PUSH2 0x2264 JUMP JUMPDEST PUSH1 0x1 PUSH1 0x1 PUSH1 0xA0 SHL SUB SWAP1 SWAP3 AND PUSH1 0x20 SWAP3 DUP4 MUL SWAP2 SWAP1 SWAP2 ADD SWAP1 SWAP2 ADD MSTORE DUP3 PUSH2 0x1129 DUP2 PUSH2 0x224B JUMP JUMPDEST SWAP4 POP POP POP PUSH1 0x1 ADD PUSH2 0x1074 JUMP JUMPDEST POP SWAP1 SWAP4 SWAP3 POP POP POP JUMP JUMPDEST PUSH1 0x0 DUP4 MLOAD DUP4 MLOAD EQ PUSH2 0x11A0 JUMPI PUSH1 0x40 MLOAD PUSH3 0x461BCD PUSH1 0xE5 SHL DUP2 MSTORE PUSH1 0x20 PUSH1 0x4 DUP3 ADD MSTORE PUSH1 0x26 PUSH1 0x24 DUP3 ADD MSTORE PUSH32 0x576F726B65727320616E642063617061636974696573206C656E677468206D69 PUSH1 0x44 DUP3 ADD MSTORE PUSH6 0xE6DAC2E8C6D PUSH1 0xD3 SHL PUSH1 0x64 DUP3 ADD MSTORE PUSH1 0x84 ADD PUSH2 0x752 JUMP JUMPDEST DUP6 DUP6 DUP6 DUP6 DUP6 PUSH1 0x40 MLOAD PUSH1 0x20 ADD PUSH2 0x11B9 SWAP6 SWAP5 SWAP4 SWAP3 SWAP2 SWAP1 PUSH2 0x22D5 JUMP JUMPDEST PUSH1 0x40 MLOAD PUSH1 0x20 DUP2 DUP4 SUB SUB DUP2 MSTORE SWAP1 PUSH1 0x40 MSTORE DUP1 MLOAD SWAP1 PUSH1 0x20 ADD KECCAK256 SWAP1 POP SWAP6 SWAP5 POP POP POP POP POP JUMP JUMPDEST PUSH1 0x8 SLOAD PUSH1 0x1 PUSH1 0x1 PUSH1 0xA0 SHL SUB AND CALLER EQ PUSH2 0x1228 JUMPI PUSH1 0x40 MLOAD PUSH3 0x461BCD PUSH1 0xE5 SHL DUP2 MSTORE PUSH1 0x20 PUSH1 0x4 DUP3 ADD MSTORE PUSH1 0x11 PUSH1 0x24 DUP3 ADD MSTORE PUSH17 0x139BDD0818DBDC994818DBDB9D1C9858DD PUSH1 0x7A SHL PUSH1 0x44 DUP3 ADD MSTORE PUSH1 0x64 ADD PUSH2 0x752 JUMP JUMPDEST PUSH1 0x2 PUSH1 0x1 PUSH1 0x0 DUP3 DUP3 SLOAD PUSH2 0x123B SWAP2 SWAP1 PUSH2 0x235C JUMP JUMPDEST SWAP1 SWAP2 SSTORE POP POP JUMP JUMPDEST PUSH1 0xA DUP2 DUP2 SLOAD DUP2 LT PUSH2 0x8CE JUMPI PUSH1 0x0 DUP1 REVERT JUMPDEST CALLER PUSH1 0x0 SWAP1 DUP2 MSTORE PUSH1 0xD PUSH1 0x20 MSTORE PUSH1 0x40 SWAP1 KECCAK256 SLOAD PUSH1 0xFF AND PUSH2 0x1281 JUMPI PUSH1 0x40 MLOAD PUSH3 0x461BCD PUSH1 0xE5 SHL DUP2 MSTORE PUSH1 0x4 ADD PUSH2 0x752 SWAP1 PUSH2 0x2200 JUMP JUMPDEST CALLER PUSH1 0x0 SWAP1 DUP2 MSTORE PUSH1 0xE PUSH1 0x20 MSTORE PUSH1 0x40 SWAP1 KECCAK256 SLOAD PUSH1 0xFF AND DUP1 PUSH2 0x12E1 JUMPI PUSH1 0x40 MLOAD PUSH3 0x461BCD PUSH1 0xE5 SHL DUP2 MSTORE PUSH1 0x20 PUSH1 0x4 DUP3 ADD MSTORE PUSH1 0x1B PUSH1 0x24 DUP3 ADD MSTORE PUSH32 0x4D75737420626520612070726F706F73616C2063726561746F72210000000000 PUSH1 0x44 DUP3 ADD MSTORE PUSH1 0x64 ADD PUSH2 0x752 JUMP JUMPDEST PUSH1 0x4 SLOAD PUSH1 0xFF DUP3 AND PUSH1 0x0 SWAP1 DUP2 MSTORE PUSH1 0x10 PUSH1 0x20 MSTORE PUSH1 0x40 SWAP1 KECCAK256 SLOAD LT ISZERO PUSH2 0x1345 JUMPI PUSH1 0x40 MLOAD PUSH3 0x461BCD PUSH1 0xE5 SHL DUP2 MSTORE PUSH1 0x20 PUSH1 0x4 DUP3 ADD MSTORE PUSH1 0x1A PUSH1 0x24 DUP3 ADD MSTORE PUSH32 0x4E6F7420656E6F7567682070726F706F73616C20766F74657321000000000000 PUSH1 0x44 DUP3 ADD MSTORE PUSH1 0x64 ADD PUSH2 0x752 JUMP JUMPDEST PUSH1 0x0 PUSH1 0xB PUSH2 0x1354 PUSH1 0x1 DUP5 PUSH2 0x2370 JUMP JUMPDEST PUSH1 0xFF AND DUP2 SLOAD DUP2 LT PUSH2 0x1367 JUMPI PUSH2 0x1367 PUSH2 0x2264 JUMP JUMPDEST SWAP1 PUSH1 0x0 MSTORE PUSH1 0x20 PUSH1 0x0 KECCAK256 ADD SLOAD SWAP1 POP PUSH1 0x0 PUSH2 0x1383 DUP9 DUP9 DUP9 DUP9 DUP9 PUSH2 0x113E JUMP JUMPDEST SWAP1 POP DUP2 DUP2 EQ PUSH2 0x13E6 JUMPI PUSH1 0x40 MLOAD PUSH3 0x461BCD PUSH1 0xE5 SHL DUP2 MSTORE PUSH1 0x20 PUSH1 0x4 DUP3 ADD MSTORE PUSH1 0x29 PUSH1 0x24 DUP3 ADD MSTORE PUSH32 0x50726F706F73616C206461746120646F65736E2774206D6174636820696E6974 PUSH1 0x44 DUP3 ADD MSTORE PUSH9 0x69616C206861736821 PUSH1 0xB8 SHL PUSH1 0x64 DUP3 ADD MSTORE PUSH1 0x84 ADD PUSH2 0x752 JUMP JUMPDEST DUP8 MLOAD ISZERO PUSH2 0x1425 JUMPI PUSH1 0x0 JUMPDEST DUP9 MLOAD DUP2 LT ISZERO PUSH2 0x1423 JUMPI PUSH2 0x141B DUP10 DUP3 DUP2 MLOAD DUP2 LT PUSH2 0x140E JUMPI PUSH2 0x140E PUSH2 0x2264 JUMP JUMPDEST PUSH1 0x20 MUL PUSH1 0x20 ADD ADD MLOAD PUSH2 0x181B JUMP JUMPDEST PUSH1 0x1 ADD PUSH2 0x13F0 JUMP JUMPDEST POP JUMPDEST DUP7 MLOAD PUSH1 0x0 SWAP1 ISZERO PUSH2 0x14E7 JUMPI PUSH1 0x0 JUMPDEST DUP9 MLOAD DUP2 LT ISZERO PUSH2 0x14E5 JUMPI PUSH1 0x7 SLOAD DUP10 MLOAD PUSH1 0x0 SWAP2 PUSH1 0x1 PUSH1 0x1 PUSH1 0xA0 SHL SUB AND SWAP1 PUSH4 0x991E0139 SWAP1 DUP13 SWAP1 DUP6 SWAP1 DUP2 LT PUSH2 0x1465 JUMPI PUSH2 0x1465 PUSH2 0x2264 JUMP JUMPDEST PUSH1 0x20 MUL PUSH1 0x20 ADD ADD MLOAD PUSH1 0x40 MLOAD DUP3 PUSH4 0xFFFFFFFF AND PUSH1 0xE0 SHL DUP2 MSTORE PUSH1 0x4 ADD PUSH2 0x148B SWAP2 DUP2 MSTORE PUSH1 0x20 ADD SWAP1 JUMP JUMPDEST PUSH1 0x20 PUSH1 0x40 MLOAD DUP1 DUP4 SUB DUP2 PUSH1 0x0 DUP8 GAS CALL ISZERO DUP1 ISZERO PUSH2 0x14AA JUMPI RETURNDATASIZE PUSH1 0x0 DUP1 RETURNDATACOPY RETURNDATASIZE PUSH1 0x0 REVERT JUMPDEST POP POP POP POP PUSH1 0x40 MLOAD RETURNDATASIZE PUSH1 0x1F NOT PUSH1 0x1F DUP3 ADD AND DUP3 ADD DUP1 PUSH1 0x40 MSTORE POP DUP2 ADD SWAP1 PUSH2 0x14CE SWAP2 SWAP1 PUSH2 0x2389 JUMP JUMPDEST SWAP1 POP PUSH2 0x14DA DUP2 DUP5 PUSH2 0x23A2 JUMP JUMPDEST SWAP3 POP POP PUSH1 0x1 ADD PUSH2 0x1432 JUMP JUMPDEST POP JUMPDEST PUSH1 0xFF DUP5 AND PUSH1 0x0 SWAP1 DUP2 MSTORE PUSH1 0x10 PUSH1 0x20 MSTORE PUSH1 0x40 DUP2 KECCAK256 SLOAD PUSH8 0xFFFFFFFFFFFFFFFF DUP2 GT ISZERO PUSH2 0x1512 JUMPI PUSH2 0x1512 PUSH2 0x1F88 JUMP JUMPDEST PUSH1 0x40 MLOAD SWAP1 DUP1 DUP3 MSTORE DUP1 PUSH1 0x20 MUL PUSH1 0x20 ADD DUP3 ADD PUSH1 0x40 MSTORE DUP1 ISZERO PUSH2 0x153B JUMPI DUP2 PUSH1 0x20 ADD PUSH1 0x20 DUP3 MUL DUP1 CALLDATASIZE DUP4 CALLDATACOPY ADD SWAP1 POP JUMPDEST POP SWAP1 POP PUSH1 0x0 JUMPDEST PUSH1 0x9 SLOAD DUP2 LT ISZERO PUSH2 0x15D1 JUMPI PUSH1 0x0 PUSH1 0x9 DUP3 DUP2 SLOAD DUP2 LT PUSH2 0x1560 JUMPI PUSH2 0x1560 PUSH2 0x2264 JUMP JUMPDEST PUSH1 0x0 SWAP2 DUP3 MSTORE PUSH1 0x20 DUP1 DUP4 KECCAK256 SWAP1 SWAP2 ADD SLOAD PUSH1 0x1 PUSH1 0x1 PUSH1 0xA0 SHL SUB AND DUP1 DUP4 MSTORE PUSH1 0xF SWAP1 SWAP2 MSTORE PUSH1 0x40 SWAP1 SWAP2 KECCAK256 SLOAD SWAP1 SWAP2 POP PUSH1 0xFF DUP1 DUP10 AND SWAP2 AND SUB PUSH2 0x15C8 JUMPI DUP1 DUP4 DUP4 DUP2 MLOAD DUP2 LT PUSH2 0x15A7 JUMPI PUSH2 0x15A7 PUSH2 0x2264 JUMP JUMPDEST PUSH1 0x20 MUL PUSH1 0x20 ADD ADD SWAP1 PUSH1 0x1 PUSH1 0x1 PUSH1 0xA0 SHL SUB AND SWAP1 DUP2 PUSH1 0x1 PUSH1 0x1 PUSH1 0xA0 SHL SUB AND DUP2 MSTORE POP POP JUMPDEST POP PUSH1 0x1 ADD PUSH2 0x1541 JUMP JUMPDEST POP PUSH1 0x7 SLOAD PUSH1 0x40 MLOAD PUSH4 0x6E25899 PUSH1 0xE5 SHL DUP2 MSTORE PUSH1 0x1 PUSH1 0x1 PUSH1 0xA0 SHL SUB SWAP1 SWAP2 AND SWAP1 PUSH4 0xDC4B1320 SWAP1 PUSH2 0x160A SWAP1 DUP11 SWAP1 DUP13 SWAP1 DUP12 SWAP1 DUP8 SWAP1 DUP10 SWAP1 PUSH1 0x4 ADD PUSH2 0x23B5 JUMP JUMPDEST PUSH1 0x0 PUSH1 0x40 MLOAD DUP1 DUP4 SUB DUP2 PUSH1 0x0 DUP8 DUP1 EXTCODESIZE ISZERO DUP1 ISZERO PUSH2 0x1624 JUMPI PUSH1 0x0 DUP1 REVERT JUMPDEST POP GAS CALL ISZERO DUP1 ISZERO PUSH2 0x1638 JUMPI RETURNDATASIZE PUSH1 0x0 DUP1 RETURNDATACOPY RETURNDATASIZE PUSH1 0x0 REVERT JUMPDEST POP POP PUSH1 0x6 SLOAD PUSH1 0x40 DUP1 MLOAD SWAP2 DUP3 MSTORE PUSH1 0x20 DUP3 ADD DUP8 SWAP1 MSTORE PUSH32 0x56A007D3EEA04BD347E571F3451382CB2A33EF5FD102B9A63846FF8D787F43CF SWAP4 POP ADD SWAP1 POP PUSH1 0x40 MLOAD DUP1 SWAP2 SUB SWAP1 LOG1 PUSH2 0x1681 PUSH2 0x1A11 JUMP JUMPDEST POP POP POP POP POP POP POP POP POP POP JUMP JUMPDEST PUSH1 0x0 DUP1 JUMPDEST PUSH1 0xA SLOAD DUP2 LT ISZERO PUSH2 0xE9D JUMPI DUP3 PUSH1 0x1 PUSH1 0x1 PUSH1 0xA0 SHL SUB AND PUSH1 0xA DUP3 DUP2 SLOAD DUP2 LT PUSH2 0x16B8 JUMPI PUSH2 0x16B8 PUSH2 0x2264 JUMP JUMPDEST PUSH1 0x0 SWAP2 DUP3 MSTORE PUSH1 0x20 SWAP1 SWAP2 KECCAK256 ADD SLOAD PUSH1 0x1 PUSH1 0x1 PUSH1 0xA0 SHL SUB AND SUB PUSH2 0x16DB JUMPI POP PUSH1 0x1 SWAP3 SWAP2 POP POP JUMP JUMPDEST PUSH1 0x1 ADD PUSH2 0x1691 JUMP JUMPDEST PUSH1 0x0 PUSH1 0x2 SLOAD PUSH1 0x5 SLOAD TIMESTAMP PUSH2 0x16F6 SWAP2 SWAP1 PUSH2 0x21E7 JUMP JUMPDEST GT ISZERO PUSH2 0x1702 JUMPI POP PUSH1 0x1 SWAP1 JUMP JUMPDEST POP PUSH1 0x0 SWAP1 JUMP JUMPDEST PUSH1 0x0 JUMPDEST PUSH1 0x9 SLOAD DUP2 LT ISZERO PUSH2 0x17BE JUMPI PUSH1 0x0 PUSH1 0xF PUSH1 0x0 PUSH1 0x9 DUP5 DUP2 SLOAD DUP2 LT PUSH2 0x172E JUMPI PUSH2 0x172E PUSH2 0x2264 JUMP JUMPDEST PUSH1 0x0 SWAP2 DUP3 MSTORE PUSH1 0x20 DUP1 DUP4 KECCAK256 SWAP2 SWAP1 SWAP2 ADD SLOAD PUSH1 0x1 PUSH1 0x1 PUSH1 0xA0 SHL SUB AND DUP4 MSTORE DUP3 ADD SWAP3 SWAP1 SWAP3 MSTORE PUSH1 0x40 ADD DUP2 KECCAK256 DUP1 SLOAD PUSH1 0xFF NOT AND PUSH1 0xFF SWAP4 SWAP1 SWAP4 AND SWAP3 SWAP1 SWAP3 OR SWAP1 SWAP2 SSTORE PUSH1 0x9 DUP1 SLOAD PUSH1 0xE SWAP2 DUP4 SWAP2 DUP6 SWAP1 DUP2 LT PUSH2 0x177F JUMPI PUSH2 0x177F PUSH2 0x2264 JUMP JUMPDEST PUSH1 0x0 SWAP2 DUP3 MSTORE PUSH1 0x20 DUP1 DUP4 KECCAK256 SWAP2 SWAP1 SWAP2 ADD SLOAD PUSH1 0x1 PUSH1 0x1 PUSH1 0xA0 SHL SUB AND DUP4 MSTORE DUP3 ADD SWAP3 SWAP1 SWAP3 MSTORE PUSH1 0x40 ADD SWAP1 KECCAK256 DUP1 SLOAD PUSH1 0xFF NOT AND PUSH1 0xFF SWAP3 SWAP1 SWAP3 AND SWAP2 SWAP1 SWAP2 OR SWAP1 SSTORE PUSH1 0x1 ADD PUSH2 0x170B JUMP JUMPDEST POP JUMPDEST PUSH1 0xB SLOAD ISZERO PUSH2 0x180D JUMPI PUSH1 0xB DUP1 SLOAD PUSH1 0xFF DUP2 AND PUSH1 0x0 SWAP1 DUP2 MSTORE PUSH1 0x10 PUSH1 0x20 MSTORE PUSH1 0x40 DUP2 KECCAK256 SSTORE DUP2 SLOAD SWAP1 SWAP2 SWAP1 DUP1 PUSH2 0x17F1 JUMPI PUSH2 0x17F1 PUSH2 0x23F4 JUMP JUMPDEST PUSH1 0x1 SWAP1 SUB DUP2 DUP2 SWAP1 PUSH1 0x0 MSTORE PUSH1 0x20 PUSH1 0x0 KECCAK256 ADD PUSH1 0x0 SWAP1 SSTORE SWAP1 SSTORE POP PUSH2 0x17C0 JUMP JUMPDEST PUSH2 0x1819 PUSH1 0xC PUSH1 0x0 PUSH2 0x1E3D JUMP JUMPDEST JUMP JUMPDEST PUSH1 0x1 PUSH1 0x1 PUSH1 0xA0 SHL SUB DUP2 AND PUSH1 0x0 SWAP1 DUP2 MSTORE PUSH1 0xD PUSH1 0x20 MSTORE PUSH1 0x40 SWAP1 KECCAK256 SLOAD PUSH1 0xFF AND PUSH2 0x1883 JUMPI PUSH1 0x40 MLOAD PUSH3 0x461BCD PUSH1 0xE5 SHL DUP2 MSTORE PUSH1 0x20 PUSH1 0x4 DUP3 ADD MSTORE PUSH1 0x19 PUSH1 0x24 DUP3 ADD MSTORE PUSH32 0x56616C696461746F72206E6F7420726567697374657265642100000000000000 PUSH1 0x44 DUP3 ADD MSTORE PUSH1 0x64 ADD PUSH2 0x752 JUMP JUMPDEST PUSH1 0x1 PUSH1 0x1 PUSH1 0xA0 SHL SUB DUP2 AND PUSH1 0x0 SWAP1 DUP2 MSTORE PUSH1 0xD PUSH1 0x20 MSTORE PUSH1 0x40 DUP2 KECCAK256 DUP1 SLOAD PUSH1 0xFF NOT AND SWAP1 SSTORE JUMPDEST PUSH1 0x9 SLOAD DUP2 LT ISZERO PUSH2 0x199F JUMPI DUP2 PUSH1 0x1 PUSH1 0x1 PUSH1 0xA0 SHL SUB AND PUSH1 0x9 DUP3 DUP2 SLOAD DUP2 LT PUSH2 0x18CB JUMPI PUSH2 0x18CB PUSH2 0x2264 JUMP JUMPDEST PUSH1 0x0 SWAP2 DUP3 MSTORE PUSH1 0x20 SWAP1 SWAP2 KECCAK256 ADD SLOAD PUSH1 0x1 PUSH1 0x1 PUSH1 0xA0 SHL SUB AND SUB PUSH2 0x1997 JUMPI PUSH1 0x9 DUP1 SLOAD PUSH2 0x18F5 SWAP1 PUSH1 0x1 SWAP1 PUSH2 0x21E7 JUMP JUMPDEST DUP2 SLOAD DUP2 LT PUSH2 0x1905 JUMPI PUSH2 0x1905 PUSH2 0x2264 JUMP JUMPDEST PUSH1 0x0 SWAP2 DUP3 MSTORE PUSH1 0x20 SWAP1 SWAP2 KECCAK256 ADD SLOAD PUSH1 0x9 DUP1 SLOAD PUSH1 0x1 PUSH1 0x1 PUSH1 0xA0 SHL SUB SWAP1 SWAP3 AND SWAP2 DUP4 SWAP1 DUP2 LT PUSH2 0x1931 JUMPI PUSH2 0x1931 PUSH2 0x2264 JUMP JUMPDEST SWAP1 PUSH1 0x0 MSTORE PUSH1 0x20 PUSH1 0x0 KECCAK256 ADD PUSH1 0x0 PUSH2 0x100 EXP DUP2 SLOAD DUP2 PUSH1 0x1 PUSH1 0x1 PUSH1 0xA0 SHL SUB MUL NOT AND SWAP1 DUP4 PUSH1 0x1 PUSH1 0x1 PUSH1 0xA0 SHL SUB AND MUL OR SWAP1 SSTORE POP PUSH1 0x9 DUP1 SLOAD DUP1 PUSH2 0x1970 JUMPI PUSH2 0x1970 PUSH2 0x23F4 JUMP JUMPDEST PUSH1 0x0 DUP3 DUP2 MSTORE PUSH1 0x20 SWAP1 KECCAK256 DUP2 ADD PUSH1 0x0 NOT SWAP1 DUP2 ADD DUP1 SLOAD PUSH1 0x1 PUSH1 0x1 PUSH1 0xA0 SHL SUB NOT AND SWAP1 SSTORE ADD SWAP1 SSTORE PUSH2 0x199F JUMP JUMPDEST PUSH1 0x1 ADD PUSH2 0x18A4 JUMP JUMPDEST POP PUSH2 0x19A8 PUSH2 0x19E1 JUMP JUMPDEST PUSH1 0x40 MLOAD PUSH1 0x1 PUSH1 0x1 PUSH1 0xA0 SHL SUB DUP3 AND DUP2 MSTORE PUSH32 0xE1434E25D6611E0DB941968FDC97811C982AC1602E951637D206F5FDDA9DD8F1 SWAP1 PUSH1 0x20 ADD PUSH2 0xC29 JUMP JUMPDEST PUSH1 0x3 SLOAD PUSH1 0x9 SLOAD PUSH1 0x64 SWAP2 PUSH2 0x19F3 SWAP2 PUSH2 0x240A JUMP JUMPDEST PUSH2 0x19FD SWAP2 SWAP1 PUSH2 0x235C JUMP JUMPDEST PUSH1 0x4 DUP2 SWAP1 SSTORE PUSH1 0x1 GT ISZERO PUSH2 0x1819 JUMPI PUSH1 0x1 PUSH1 0x4 SSTORE JUMP JUMPDEST PUSH2 0x1A19 PUSH2 0x1AC4 JUMP JUMPDEST PUSH1 0xB SLOAD ISZERO PUSH2 0x1A61 JUMPI PUSH1 0xB DUP1 SLOAD PUSH1 0xFF AND PUSH1 0x0 SWAP1 DUP2 MSTORE PUSH1 0x10 PUSH1 0x20 MSTORE PUSH1 0x40 DUP2 KECCAK256 SSTORE DUP1 SLOAD DUP1 PUSH2 0x1A46 JUMPI PUSH2 0x1A46 PUSH2 0x23F4 JUMP JUMPDEST PUSH1 0x1 SWAP1 SUB DUP2 DUP2 SWAP1 PUSH1 0x0 MSTORE PUSH1 0x20 PUSH1 0x0 KECCAK256 ADD PUSH1 0x0 SWAP1 SSTORE SWAP1 SSTORE PUSH2 0x1A19 JUMP JUMPDEST PUSH1 0xC SLOAD ISZERO PUSH2 0x1AA9 JUMPI PUSH1 0xC DUP1 SLOAD DUP1 PUSH2 0x1A7A JUMPI PUSH2 0x1A7A PUSH2 0x23F4 JUMP JUMPDEST PUSH1 0x1 SWAP1 SUB DUP2 DUP2 SWAP1 PUSH1 0x0 MSTORE PUSH1 0x20 PUSH1 0x0 KECCAK256 SWAP1 PUSH1 0x20 SWAP2 DUP3 DUP3 DIV ADD SWAP2 SWAP1 MOD PUSH2 0x100 EXP DUP2 SLOAD SWAP1 PUSH1 0xFF MUL NOT AND SWAP1 SSTORE SWAP1 SSTORE PUSH2 0x1A61 JUMP JUMPDEST TIMESTAMP PUSH1 0x5 SSTORE PUSH1 0x6 DUP1 SLOAD SWAP1 PUSH1 0x0 PUSH2 0x1ABD DUP4 PUSH2 0x224B JUMP JUMPDEST SWAP2 SWAP1 POP SSTORE POP JUMP JUMPDEST PUSH1 0x0 JUMPDEST PUSH1 0xA SLOAD DUP2 LT ISZERO PUSH2 0x1B29 JUMPI PUSH1 0x0 PUSH1 0xE PUSH1 0x0 PUSH1 0xA DUP5 DUP2 SLOAD DUP2 LT PUSH2 0x1AEA JUMPI PUSH2 0x1AEA PUSH2 0x2264 JUMP JUMPDEST PUSH1 0x0 SWAP2 DUP3 MSTORE PUSH1 0x20 DUP1 DUP4 KECCAK256 SWAP2 SWAP1 SWAP2 ADD SLOAD PUSH1 0x1 PUSH1 0x1 PUSH1 0xA0 SHL SUB AND DUP4 MSTORE DUP3 ADD SWAP3 SWAP1 SWAP3 MSTORE PUSH1 0x40 ADD SWAP1 KECCAK256 DUP1 SLOAD PUSH1 0xFF NOT AND PUSH1 0xFF SWAP3 SWAP1 SWAP3 AND SWAP2 SWAP1 SWAP2 OR SWAP1 SSTORE PUSH1 0x1 ADD PUSH2 0x1AC7 JUMP JUMPDEST POP PUSH1 0x0 JUMPDEST PUSH1 0x9 SLOAD DUP2 LT ISZERO PUSH2 0x1B8F JUMPI PUSH1 0x0 PUSH1 0xF PUSH1 0x0 PUSH1 0x9 DUP5 DUP2 SLOAD DUP2 LT PUSH2 0x1B50 JUMPI PUSH2 0x1B50 PUSH2 0x2264 JUMP JUMPDEST PUSH1 0x0 SWAP2 DUP3 MSTORE PUSH1 0x20 DUP1 DUP4 KECCAK256 SWAP2 SWAP1 SWAP2 ADD SLOAD PUSH1 0x1 PUSH1 0x1 PUSH1 0xA0 SHL SUB AND DUP4 MSTORE DUP3 ADD SWAP3 SWAP1 SWAP3 MSTORE PUSH1 0x40 ADD SWAP1 KECCAK256 DUP1 SLOAD PUSH1 0xFF NOT AND PUSH1 0xFF SWAP3 SWAP1 SWAP3 AND SWAP2 SWAP1 SWAP2 OR SWAP1 SSTORE PUSH1 0x1 ADD PUSH2 0x1B2D JUMP JUMPDEST POP PUSH1 0xA SLOAD PUSH1 0x0 SUB PUSH2 0x1C01 JUMPI PUSH1 0x0 JUMPDEST PUSH1 0x9 SLOAD DUP2 LT ISZERO PUSH2 0x1BFF JUMPI PUSH1 0x0 PUSH1 0xE PUSH1 0x0 PUSH1 0x9 DUP5 DUP2 SLOAD DUP2 LT PUSH2 0x1BC0 JUMPI PUSH2 0x1BC0 PUSH2 0x2264 JUMP JUMPDEST PUSH1 0x0 SWAP2 DUP3 MSTORE PUSH1 0x20 DUP1 DUP4 KECCAK256 SWAP2 SWAP1 SWAP2 ADD SLOAD PUSH1 0x1 PUSH1 0x1 PUSH1 0xA0 SHL SUB AND DUP4 MSTORE DUP3 ADD SWAP3 SWAP1 SWAP3 MSTORE PUSH1 0x40 ADD SWAP1 KECCAK256 DUP1 SLOAD PUSH1 0xFF NOT AND PUSH1 0xFF SWAP3 SWAP1 SWAP3 AND SWAP2 SWAP1 SWAP2 OR SWAP1 SSTORE PUSH1 0x1 ADD PUSH2 0x1B9D JUMP JUMPDEST POP JUMPDEST PUSH2 0x1C0D PUSH1 0xA PUSH1 0x0 PUSH2 0x1E62 JUMP JUMPDEST PUSH1 0x8 SLOAD PUSH1 0x9 SLOAD PUSH1 0x1 PUSH1 0xA0 SHL SWAP1 SWAP2 DIV PUSH1 0xFF AND GT ISZERO PUSH2 0x1C6C JUMPI PUSH1 0x40 MLOAD PUSH3 0x461BCD PUSH1 0xE5 SHL DUP2 MSTORE PUSH1 0x20 PUSH1 0x4 DUP3 ADD MSTORE PUSH1 0x1D PUSH1 0x24 DUP3 ADD MSTORE PUSH32 0x4E6F7420656E6F756768206163746976652076616C696461746F727321000000 PUSH1 0x44 DUP3 ADD MSTORE PUSH1 0x64 ADD PUSH2 0x752 JUMP JUMPDEST PUSH1 0x8 SLOAD PUSH1 0x0 SWAP1 PUSH1 0x1 PUSH1 0xA0 SHL SWAP1 DIV PUSH1 0xFF AND PUSH8 0xFFFFFFFFFFFFFFFF DUP2 GT ISZERO PUSH2 0x1C94 JUMPI PUSH2 0x1C94 PUSH2 0x1F88 JUMP JUMPDEST PUSH1 0x40 MLOAD SWAP1 DUP1 DUP3 MSTORE DUP1 PUSH1 0x20 MUL PUSH1 0x20 ADD DUP3 ADD PUSH1 0x40 MSTORE DUP1 ISZERO PUSH2 0x1CBD JUMPI DUP2 PUSH1 0x20 ADD PUSH1 0x20 DUP3 MUL DUP1 CALLDATASIZE DUP4 CALLDATACOPY ADD SWAP1 POP JUMPDEST POP SWAP1 POP PUSH1 0x0 DUP1 JUMPDEST PUSH1 0x8 SLOAD PUSH1 0x1 PUSH1 0xA0 SHL SWAP1 DIV PUSH1 0xFF AND DUP3 LT ISZERO PUSH2 0x1E38 JUMPI PUSH1 0x9 SLOAD PUSH1 0x40 DUP1 MLOAD TIMESTAMP PUSH1 0x20 DUP3 ADD MSTORE CALLER SWAP2 DUP2 ADD SWAP2 SWAP1 SWAP2 MSTORE PUSH1 0x60 DUP2 ADD DUP5 SWAP1 MSTORE PUSH1 0x80 DUP2 ADD DUP4 SWAP1 MSTORE PUSH1 0x0 SWAP2 SWAP1 PUSH1 0xA0 ADD PUSH1 0x40 MLOAD PUSH1 0x20 DUP2 DUP4 SUB SUB DUP2 MSTORE SWAP1 PUSH1 0x40 MSTORE DUP1 MLOAD SWAP1 PUSH1 0x20 ADD KECCAK256 PUSH1 0x0 SHR PUSH2 0x1D25 SWAP2 SWAP1 PUSH2 0x2290 JUMP JUMPDEST SWAP1 POP PUSH1 0x0 PUSH1 0x9 DUP3 DUP2 SLOAD DUP2 LT PUSH2 0x1D3C JUMPI PUSH2 0x1D3C PUSH2 0x2264 JUMP JUMPDEST PUSH1 0x0 SWAP2 DUP3 MSTORE PUSH1 0x20 DUP3 KECCAK256 ADD SLOAD PUSH1 0x1 PUSH1 0x1 PUSH1 0xA0 SHL SUB AND SWAP2 POP DUP1 JUMPDEST DUP6 DUP2 LT ISZERO PUSH2 0x1D9F JUMPI DUP3 PUSH1 0x1 PUSH1 0x1 PUSH1 0xA0 SHL SUB AND DUP8 DUP3 DUP2 MLOAD DUP2 LT PUSH2 0x1D78 JUMPI PUSH2 0x1D78 PUSH2 0x2264 JUMP JUMPDEST PUSH1 0x20 MUL PUSH1 0x20 ADD ADD MLOAD PUSH1 0x1 PUSH1 0x1 PUSH1 0xA0 SHL SUB AND SUB PUSH2 0x1D97 JUMPI PUSH1 0x1 SWAP2 POP PUSH2 0x1D9F JUMP JUMPDEST PUSH1 0x1 ADD PUSH2 0x1D54 JUMP JUMPDEST POP DUP1 PUSH2 0x1E23 JUMPI DUP2 DUP7 DUP7 DUP2 MLOAD DUP2 LT PUSH2 0x1DB8 JUMPI PUSH2 0x1DB8 PUSH2 0x2264 JUMP JUMPDEST PUSH1 0x1 PUSH1 0x1 PUSH1 0xA0 SHL SUB SWAP3 DUP4 AND PUSH1 0x20 SWAP2 DUP3 MUL SWAP3 SWAP1 SWAP3 ADD ADD MSTORE PUSH1 0xA DUP1 SLOAD PUSH1 0x1 DUP2 ADD DUP3 SSTORE PUSH1 0x0 SWAP2 SWAP1 SWAP2 MSTORE PUSH32 0xC65A7BB8D6351C1CF70C95A316CC6A92839C986682D98BC35F958F4883F9D2A8 ADD DUP1 SLOAD PUSH1 0x1 PUSH1 0x1 PUSH1 0xA0 SHL SUB NOT AND SWAP2 DUP5 AND SWAP2 SWAP1 SWAP2 OR SWAP1 SSTORE DUP5 PUSH2 0x1E1F DUP2 PUSH2 0x224B JUMP JUMPDEST SWAP6 POP POP JUMPDEST DUP4 PUSH2 0x1E2D DUP2 PUSH2 0x224B JUMP JUMPDEST SWAP5 POP POP POP POP POP PUSH2 0x1CC4 JUMP JUMPDEST POP POP POP JUMP JUMPDEST POP DUP1 SLOAD PUSH1 0x0 DUP3 SSTORE PUSH1 0x1F ADD PUSH1 0x20 SWAP1 DIV SWAP1 PUSH1 0x0 MSTORE PUSH1 0x20 PUSH1 0x0 KECCAK256 SWAP1 DUP2 ADD SWAP1 PUSH2 0x978 SWAP2 SWAP1 PUSH2 0x1E7C JUMP JUMPDEST POP DUP1 SLOAD PUSH1 0x0 DUP3 SSTORE SWAP1 PUSH1 0x0 MSTORE PUSH1 0x20 PUSH1 0x0 KECCAK256 SWAP1 DUP2 ADD SWAP1 PUSH2 0x978 SWAP2 SWAP1 JUMPDEST JUMPDEST DUP1 DUP3 GT ISZERO PUSH2 0x1E91 JUMPI PUSH1 0x0 DUP2 SSTORE PUSH1 0x1 ADD PUSH2 0x1E7D JUMP JUMPDEST POP SWAP1 JUMP JUMPDEST DUP1 CALLDATALOAD PUSH1 0x1 PUSH1 0x1 PUSH1 0xA0 SHL SUB DUP2 AND DUP2 EQ PUSH2 0x1EAC JUMPI PUSH1 0x0 DUP1 REVERT JUMPDEST SWAP2 SWAP1 POP JUMP JUMPDEST PUSH1 0x0 PUSH1 0x20 DUP3 DUP5 SUB SLT ISZERO PUSH2 0x1EC3 JUMPI PUSH1 0x0 DUP1 REVERT JUMPDEST PUSH2 0x1ECC DUP3 PUSH2 0x1E95 JUMP JUMPDEST SWAP4 SWAP3 POP POP POP JUMP JUMPDEST PUSH1 0x0 DUP2 MLOAD DUP1 DUP5 MSTORE PUSH1 0x20 DUP1 DUP6 ADD SWAP5 POP PUSH1 0x20 DUP5 ADD PUSH1 0x0 JUMPDEST DUP4 DUP2 LT ISZERO PUSH2 0x1F0D JUMPI DUP2 MLOAD PUSH1 0x1 PUSH1 0x1 PUSH1 0xA0 SHL SUB AND DUP8 MSTORE SWAP6 DUP3 ADD SWAP6 SWAP1 DUP3 ADD SWAP1 PUSH1 0x1 ADD PUSH2 0x1EE8 JUMP JUMPDEST POP SWAP5 SWAP6 SWAP5 POP POP POP POP POP JUMP JUMPDEST DUP3 DUP2 MSTORE PUSH1 0x40 PUSH1 0x20 DUP3 ADD MSTORE PUSH1 0x0 PUSH2 0x1F31 PUSH1 0x40 DUP4 ADD DUP5 PUSH2 0x1ED3 JUMP JUMPDEST SWAP5 SWAP4 POP POP POP POP JUMP JUMPDEST PUSH1 0x0 PUSH1 0x20 DUP3 DUP5 SUB SLT ISZERO PUSH2 0x1F4B JUMPI PUSH1 0x0 DUP1 REVERT JUMPDEST POP CALLDATALOAD SWAP2 SWAP1 POP JUMP JUMPDEST PUSH1 0x0 PUSH1 0x20 DUP3 DUP5 SUB SLT ISZERO PUSH2 0x1F64 JUMPI PUSH1 0x0 DUP1 REVERT JUMPDEST DUP2 CALLDATALOAD PUSH1 0xFF DUP2 AND DUP2 EQ PUSH2 0x1ECC JUMPI PUSH1 0x0 DUP1 REVERT JUMPDEST PUSH1 0x20 DUP2 MSTORE PUSH1 0x0 PUSH2 0x1ECC PUSH1 0x20 DUP4 ADD DUP5 PUSH2 0x1ED3 JUMP JUMPDEST PUSH4 0x4E487B71 PUSH1 0xE0 SHL PUSH1 0x0 MSTORE PUSH1 0x41 PUSH1 0x4 MSTORE PUSH1 0x24 PUSH1 0x0 REVERT JUMPDEST PUSH1 0x40 MLOAD PUSH1 0x1F DUP3 ADD PUSH1 0x1F NOT AND DUP2 ADD PUSH8 0xFFFFFFFFFFFFFFFF DUP2 GT DUP3 DUP3 LT OR ISZERO PUSH2 0x1FC7 JUMPI PUSH2 0x1FC7 PUSH2 0x1F88 JUMP JUMPDEST PUSH1 0x40 MSTORE SWAP2 SWAP1 POP JUMP JUMPDEST PUSH1 0x0 PUSH8 0xFFFFFFFFFFFFFFFF DUP3 GT ISZERO PUSH2 0x1FE9 JUMPI PUSH2 0x1FE9 PUSH2 0x1F88 JUMP JUMPDEST POP PUSH1 0x5 SHL PUSH1 0x20 ADD SWAP1 JUMP JUMPDEST PUSH1 0x0 DUP3 PUSH1 0x1F DUP4 ADD SLT PUSH2 0x2004 JUMPI PUSH1 0x0 DUP1 REVERT JUMPDEST DUP2 CALLDATALOAD PUSH1 0x20 PUSH2 0x2019 PUSH2 0x2014 DUP4 PUSH2 0x1FCF JUMP JUMPDEST PUSH2 0x1F9E JUMP JUMPDEST DUP1 DUP4 DUP3 MSTORE PUSH1 0x20 DUP3 ADD SWAP2 POP PUSH1 0x20 DUP5 PUSH1 0x5 SHL DUP8 ADD ADD SWAP4 POP DUP7 DUP5 GT ISZERO PUSH2 0x203B JUMPI PUSH1 0x0 DUP1 REVERT JUMPDEST PUSH1 0x20 DUP7 ADD JUMPDEST DUP5 DUP2 LT ISZERO PUSH2 0x205E JUMPI PUSH2 0x2051 DUP2 PUSH2 0x1E95 JUMP JUMPDEST DUP4 MSTORE SWAP2 DUP4 ADD SWAP2 DUP4 ADD PUSH2 0x2040 JUMP JUMPDEST POP SWAP7 SWAP6 POP POP POP POP POP POP JUMP JUMPDEST PUSH1 0x0 DUP3 PUSH1 0x1F DUP4 ADD SLT PUSH2 0x207A JUMPI PUSH1 0x0 DUP1 REVERT JUMPDEST DUP2 CALLDATALOAD PUSH1 0x20 PUSH2 0x208A PUSH2 0x2014 DUP4 PUSH2 0x1FCF JUMP JUMPDEST DUP1 DUP4 DUP3 MSTORE PUSH1 0x20 DUP3 ADD SWAP2 POP PUSH1 0x20 DUP5 PUSH1 0x5 SHL DUP8 ADD ADD SWAP4 POP DUP7 DUP5 GT ISZERO PUSH2 0x20AC JUMPI PUSH1 0x0 DUP1 REVERT JUMPDEST PUSH1 0x20 DUP7 ADD JUMPDEST DUP5 DUP2 LT ISZERO PUSH2 0x205E JUMPI DUP1 CALLDATALOAD DUP4 MSTORE SWAP2 DUP4 ADD SWAP2 DUP4 ADD PUSH2 0x20B1 JUMP JUMPDEST PUSH1 0x0 DUP1 PUSH1 0x0 DUP1 PUSH1 0x0 PUSH1 0xA0 DUP7 DUP9 SUB SLT ISZERO PUSH2 0x20E0 JUMPI PUSH1 0x0 DUP1 REVERT JUMPDEST DUP6 CALLDATALOAD PUSH8 0xFFFFFFFFFFFFFFFF DUP1 DUP3 GT ISZERO PUSH2 0x20F8 JUMPI PUSH1 0x0 DUP1 REVERT JUMPDEST PUSH2 0x2104 DUP10 DUP4 DUP11 ADD PUSH2 0x1FF3 JUMP JUMPDEST SWAP7 POP PUSH1 0x20 SWAP2 POP DUP2 DUP9 ADD CALLDATALOAD DUP2 DUP2 GT ISZERO PUSH2 0x211B JUMPI PUSH1 0x0 DUP1 REVERT JUMPDEST DUP9 ADD PUSH1 0x1F DUP2 ADD DUP11 SGT PUSH2 0x212C JUMPI PUSH1 0x0 DUP1 REVERT JUMPDEST DUP1 CALLDATALOAD PUSH2 0x213A PUSH2 0x2014 DUP3 PUSH2 0x1FCF JUMP JUMPDEST DUP2 DUP2 MSTORE PUSH1 0x5 SWAP2 SWAP1 SWAP2 SHL DUP3 ADD DUP5 ADD SWAP1 DUP5 DUP2 ADD SWAP1 DUP13 DUP4 GT ISZERO PUSH2 0x2159 JUMPI PUSH1 0x0 DUP1 REVERT JUMPDEST SWAP3 DUP6 ADD SWAP3 JUMPDEST DUP3 DUP5 LT ISZERO PUSH2 0x2177 JUMPI DUP4 CALLDATALOAD DUP3 MSTORE SWAP3 DUP6 ADD SWAP3 SWAP1 DUP6 ADD SWAP1 PUSH2 0x215E JUMP JUMPDEST SWAP9 POP POP POP POP PUSH1 0x40 DUP9 ADD CALLDATALOAD SWAP2 POP DUP1 DUP3 GT ISZERO PUSH2 0x2190 JUMPI PUSH1 0x0 DUP1 REVERT JUMPDEST PUSH2 0x219C DUP10 DUP4 DUP11 ADD PUSH2 0x2069 JUMP JUMPDEST SWAP5 POP PUSH1 0x60 DUP9 ADD CALLDATALOAD SWAP2 POP DUP1 DUP3 GT ISZERO PUSH2 0x21B2 JUMPI PUSH1 0x0 DUP1 REVERT JUMPDEST POP PUSH2 0x21BF DUP9 DUP3 DUP10 ADD PUSH2 0x1FF3 JUMP JUMPDEST SWAP6 SWAP9 SWAP5 SWAP8 POP SWAP3 SWAP6 PUSH1 0x80 ADD CALLDATALOAD SWAP4 SWAP3 POP POP POP JUMP JUMPDEST PUSH4 0x4E487B71 PUSH1 0xE0 SHL PUSH1 0x0 MSTORE PUSH1 0x11 PUSH1 0x4 MSTORE PUSH1 0x24 PUSH1 0x0 REVERT JUMPDEST DUP2 DUP2 SUB DUP2 DUP2 GT ISZERO PUSH2 0x21FA JUMPI PUSH2 0x21FA PUSH2 0x21D1 JUMP JUMPDEST SWAP3 SWAP2 POP POP JUMP JUMPDEST PUSH1 0x20 DUP1 DUP3 MSTORE PUSH1 0xF SWAP1 DUP3 ADD MSTORE PUSH15 0x2737BA1030903B30B634B230BA37B9 PUSH1 0x89 SHL PUSH1 0x40 DUP3 ADD MSTORE PUSH1 0x60 ADD SWAP1 JUMP JUMPDEST PUSH1 0x0 PUSH1 0x20 DUP3 DUP5 SUB SLT ISZERO PUSH2 0x223B JUMPI PUSH1 0x0 DUP1 REVERT JUMPDEST DUP2 MLOAD DUP1 ISZERO ISZERO DUP2 EQ PUSH2 0x1ECC JUMPI PUSH1 0x0 DUP1 REVERT JUMPDEST PUSH1 0x0 PUSH1 0x1 DUP3 ADD PUSH2 0x225D JUMPI PUSH2 0x225D PUSH2 0x21D1 JUMP JUMPDEST POP PUSH1 0x1 ADD SWAP1 JUMP JUMPDEST PUSH4 0x4E487B71 PUSH1 0xE0 SHL PUSH1 0x0 MSTORE PUSH1 0x32 PUSH1 0x4 MSTORE PUSH1 0x24 PUSH1 0x0 REVERT JUMPDEST PUSH4 0x4E487B71 PUSH1 0xE0 SHL PUSH1 0x0 MSTORE PUSH1 0x12 PUSH1 0x4 MSTORE PUSH1 0x24 PUSH1 0x0 REVERT JUMPDEST PUSH1 0x0 DUP3 PUSH2 0x229F JUMPI PUSH2 0x229F PUSH2 0x227A JUMP JUMPDEST POP MOD SWAP1 JUMP JUMPDEST PUSH1 0x0 DUP2 MLOAD DUP1 DUP5 MSTORE PUSH1 0x20 DUP1 DUP6 ADD SWAP5 POP PUSH1 0x20 DUP5 ADD PUSH1 0x0 JUMPDEST DUP4 DUP2 LT ISZERO PUSH2 0x1F0D JUMPI DUP2 MLOAD DUP8 MSTORE SWAP6 DUP3 ADD SWAP6 SWAP1 DUP3 ADD SWAP1 PUSH1 0x1 ADD PUSH2 0x22B9 JUMP JUMPDEST PUSH1 0xA0 DUP2 MSTORE PUSH1 0x0 PUSH2 0x22E8 PUSH1 0xA0 DUP4 ADD DUP9 PUSH2 0x1ED3 JUMP JUMPDEST DUP3 DUP2 SUB PUSH1 0x20 DUP5 DUP2 ADD SWAP2 SWAP1 SWAP2 MSTORE DUP8 MLOAD DUP1 DUP4 MSTORE DUP9 DUP3 ADD SWAP3 DUP3 ADD SWAP1 PUSH1 0x0 JUMPDEST DUP2 DUP2 LT ISZERO PUSH2 0x231F JUMPI DUP5 MLOAD DUP4 MSTORE SWAP4 DUP4 ADD SWAP4 SWAP2 DUP4 ADD SWAP2 PUSH1 0x1 ADD PUSH2 0x2303 JUMP JUMPDEST POP POP DUP5 DUP2 SUB PUSH1 0x40 DUP7 ADD MSTORE PUSH2 0x2333 DUP2 DUP10 PUSH2 0x22A4 JUMP JUMPDEST SWAP3 POP POP POP DUP3 DUP2 SUB PUSH1 0x60 DUP5 ADD MSTORE PUSH2 0x2349 DUP2 DUP7 PUSH2 0x1ED3 JUMP JUMPDEST SWAP2 POP POP DUP3 PUSH1 0x80 DUP4 ADD MSTORE SWAP7 SWAP6 POP POP POP POP POP POP JUMP JUMPDEST PUSH1 0x0 DUP3 PUSH2 0x236B JUMPI PUSH2 0x236B PUSH2 0x227A JUMP JUMPDEST POP DIV SWAP1 JUMP JUMPDEST PUSH1 0xFF DUP3 DUP2 AND DUP3 DUP3 AND SUB SWAP1 DUP2 GT ISZERO PUSH2 0x21FA JUMPI PUSH2 0x21FA PUSH2 0x21D1 JUMP JUMPDEST PUSH1 0x0 PUSH1 0x20 DUP3 DUP5 SUB SLT ISZERO PUSH2 0x239B JUMPI PUSH1 0x0 DUP1 REVERT JUMPDEST POP MLOAD SWAP2 SWAP1 POP JUMP JUMPDEST DUP1 DUP3 ADD DUP1 DUP3 GT ISZERO PUSH2 0x21FA JUMPI PUSH2 0x21FA PUSH2 0x21D1 JUMP JUMPDEST PUSH1 0xA0 DUP2 MSTORE PUSH1 0x0 PUSH2 0x23C8 PUSH1 0xA0 DUP4 ADD DUP9 PUSH2 0x1ED3 JUMP JUMPDEST DUP3 DUP2 SUB PUSH1 0x20 DUP5 ADD MSTORE PUSH2 0x23DA DUP2 DUP9 PUSH2 0x22A4 JUMP JUMPDEST SWAP1 POP DUP6 PUSH1 0x40 DUP5 ADD MSTORE DUP3 DUP2 SUB PUSH1 0x60 DUP5 ADD MSTORE PUSH2 0x2349 DUP2 DUP7 PUSH2 0x1ED3 JUMP JUMPDEST PUSH4 0x4E487B71 PUSH1 0xE0 SHL PUSH1 0x0 MSTORE PUSH1 0x31 PUSH1 0x4 MSTORE PUSH1 0x24 PUSH1 0x0 REVERT JUMPDEST DUP1 DUP3 MUL DUP2 ISZERO DUP3 DUP3 DIV DUP5 EQ OR PUSH2 0x21FA JUMPI PUSH2 0x21FA PUSH2 0x21D1 JUMP INVALID LOG2 PUSH5 0x6970667358 0x22 SLT KECCAK256 ISZERO SLOAD SGT DELEGATECALL 0xA6 0xEC 0xED SUB 0xDF 0xEA 0xD9 ADD LOG3 PUSH13 0xAE9CCA69894E42C0F04705A804 PUSH18 0x2890178564736F6C63430008190033000000 ",
  "sha1": "153cad410145e04475f2bc3b18423b9e00611826",
  "source": "// SPDX-License-Identifier: MIT\npragma solidity ^0.8.5;\n\nimport \"@openzeppelin-upgradeable/contracts/proxy/utils/Initializable.sol\";\nimport \"@openzeppelin-upgradeable/contracts/interfaces/IERC20Upgradeable.sol\";\nimport \"./interfaces/ISmartnodesCore.sol\";\n\n/** \n    * @title SmartnodesMultiSig\n    * @dev A multi-signature contract composed of Smartnodes validators responsible for\n     managing the Core contract\n*/\ncontract SmartnodesMultiSig is Initializable {\n    // State update constraints\n    uint256 public updateTime = 1800; // 30 minutes minimum required between state updates\n    uint256 public roundExpirationTime = 3600; // 1 hour until proposal expires\n    uint256 public requiredApprovalsPercentage;\n    uint256 public requiredApprovals;\n    uint256 public lastProposalTime; // time of last executed proposal\n    uint256 public nextProposalId;\n\n    // Metadata and bytecode for SmartNodes calls\n    ISmartnodesCore private _smartnodesContractInstance;\n    address public smartnodesContractAddress;\n\n    // Counters for storage indexing / IDs\n    uint8 public nValidators;\n    address[] public validators;\n    address[] public currentRoundValidators;\n    bytes32[] public currentProposals;\n    uint8[] public readyProposals;\n\n    // Added mapping to track proposal creation times\n    mapping(address => bool) public isValidator;\n    mapping(address => uint8) public hasSubmittedProposal;\n    mapping(address => uint8) public hasVoted;\n    mapping(uint8 => uint256) public proposalVotes;\n\n    event ProposalExecuted(uint256 proposalId, bytes32 proposalHash);\n    event ProposalExpired(uint256 proposalId);\n    event Deposit(address indexed sender, uint amount);\n    event ValidatorAdded(address validator);\n    event ValidatorRemoved(address validator);\n\n    /**\n     * @dev Ensures caller is a registered validator\n     */\n    modifier onlyValidator() {\n        require(isValidator[msg.sender], \"Not a validator\");\n        _;\n    }\n\n    /**\n     * @dev Ensures caller is the core contract\n     */\n    modifier onlySmartnodesCore() {\n        require(msg.sender == smartnodesContractAddress, \"Not core contract\");\n        _;\n    }\n\n    /**\n     * @dev Allows only current round validators, or any validator if round has expired.\n     */\n    modifier onlyEligibleValidator() {\n        bool isSelectedValidator = _isCurrentRoundValidator(msg.sender);\n        bool isRoundExpired = _isCurrentRoundExpired();\n\n        require(\n            isSelectedValidator || (isValidator[msg.sender] && isRoundExpired),\n            \"Not eligible to submit proposal.\"\n        );\n\n        require(\n            hasSubmittedProposal[msg.sender] == 0,\n            \"Validator has already submitted a proposal this round.\"\n        );\n\n        if (isRoundExpired) {\n            _cleanupExpiredRound();\n        }\n\n        _;\n    }\n\n    /**\n     * @notice Initializes the contract\n     * @param target Address of the SmartNodes core contract\n     */\n    function initialize(\n        address target // Address of the main contract (Smart Nodes)\n    )\n        public\n        // address _vrfCoordinator,\n        // uint64 _subscriptionId\n        initializer\n    {\n        smartnodesContractAddress = target;\n        updateTime = 1800;\n        roundExpirationTime = 3600; // 1 hour until proposal expires\n        _smartnodesContractInstance = ISmartnodesCore(target);\n\n        lastProposalTime = 0;\n        requiredApprovalsPercentage = 66;\n        nValidators = 1;\n        nextProposalId = 0;\n    }\n\n    receive() external payable {\n        emit Deposit(msg.sender, msg.value);\n    }\n\n    /**\n     * @notice Creates a new proposal, to update all the essential data structures given some aggregated off-chain state.\n     */\n    function createProposal(\n        bytes32 proposalHash\n    ) external onlyEligibleValidator {\n        // Only allow proposals starting 5m from update window\n        require(\n            block.timestamp - lastProposalTime >= updateTime - 120,\n            \"Must wait updateTime - 5m after last execution\"\n        );\n\n        currentProposals.push(proposalHash);\n        uint8 proposalNum = uint8(currentProposals.length);\n        hasSubmittedProposal[msg.sender] = proposalNum;\n    }\n\n    /**\n     * @notice Internal function to clean up expired round\n     */\n    function _cleanupExpiredRound() internal {\n        // Reset all validator states\n        for (uint256 i = 0; i < validators.length; i++) {\n            hasVoted[validators[i]] = 0;\n            hasSubmittedProposal[validators[i]] = 0;\n        }\n\n        // Clear all proposals and votes\n        while (currentProposals.length > 0) {\n            uint8 proposalNum = uint8(currentProposals.length);\n            proposalVotes[proposalNum] = 0;\n            currentProposals.pop();\n        }\n\n        // Clear ready proposals\n        delete readyProposals;\n    }\n\n    /**\n     * @notice Checks if a round has expired\n     */\n    function isRoundExpired() public view returns (bool) {\n        return block.timestamp - lastProposalTime > roundExpirationTime;\n    }\n\n    /**\n     * @notice Allows updating the proposal expiration time\n     */\n    function setProposalExpirationTime(\n        uint256 newExpirationTime\n    ) external onlySmartnodesCore {\n        require(\n            newExpirationTime >= updateTime,\n            \"Expiration time must be >= update time\"\n        );\n        roundExpirationTime = newExpirationTime;\n    }\n\n    /**\n     * @notice Casts a vote for a proposal and executes once required approvals are met. Add Validator to storage\n      if it has just registered and is not stored on MultiSig. \n     * @param proposalNum The ID of the current round proposal\n     */\n    function approveTransaction(uint8 proposalNum) external onlyValidator {\n        require(hasVoted[msg.sender] == 0, \"Validator has already voted!\");\n        require(\n            currentProposals.length >= proposalNum && proposalNum > 0,\n            \"Invalid proposal number!\"\n        );\n\n        if (isValidator[msg.sender] == false) {\n            addValidator(msg.sender);\n        }\n\n        hasVoted[msg.sender] = proposalNum;\n        proposalVotes[proposalNum]++;\n\n        if (proposalVotes[proposalNum] >= requiredApprovals) {\n            readyProposals.push(proposalNum);\n        }\n    }\n\n    /**\n     * @notice Executes a proposal if it has enough approvals.\n     */\n    function executeProposal(\n        address[] memory validatorsToRemove,\n        bytes32[] memory jobHashes,\n        uint256[] memory jobCapacities,\n        address[] memory workers,\n        uint256 totalCapacity\n    ) external onlyValidator {\n        uint8 proposalNum = hasSubmittedProposal[msg.sender];\n        require(proposalNum > 0, \"Must be a proposal creator!\");\n        require(\n            proposalVotes[proposalNum] >= requiredApprovals,\n            \"Not enough proposal votes!\"\n        );\n\n        bytes32 providedHash = currentProposals[proposalNum - 1];\n        bytes32 proposalHash = hashProposalData(\n            validatorsToRemove,\n            jobHashes,\n            jobCapacities,\n            workers,\n            totalCapacity\n        );\n        require(\n            proposalHash == providedHash,\n            \"Proposal data doesn't match initial hash!\"\n        );\n\n        if (validatorsToRemove.length > 0) {\n            for (uint i = 0; i < validatorsToRemove.length; i++) {\n                _removeValidator(validatorsToRemove[i]);\n            }\n        }\n\n        uint256 additionalReward = 0;\n\n        if (jobHashes.length > 0) {\n            for (uint i = 0; i < jobHashes.length; i++) {\n                uint256 reward = _smartnodesContractInstance.completeJob(\n                    jobHashes[i]\n                );\n                additionalReward += reward;\n            }\n        }\n\n        address[] memory _approvedValidators = new address[](\n            proposalVotes[proposalNum]\n        );\n\n        for (uint i = 0; i < validators.length; i++) {\n            address validator = validators[i];\n\n            if (hasVoted[validator] == proposalNum) {\n                _approvedValidators[i] = validator;\n            }\n        }\n\n        // Call mint function to generate rewards for workers and validators\n        _smartnodesContractInstance.recordRewards(\n            workers,\n            jobCapacities,\n            totalCapacity,\n            _approvedValidators,\n            additionalReward\n        );\n\n        emit ProposalExecuted(nextProposalId, proposalHash);\n        _updateRound();\n    }\n\n    function hashProposalData(\n        address[] memory validatorsToRemove,\n        bytes32[] memory jobHashes,\n        uint256[] memory jobCapacities,\n        address[] memory workers,\n        uint256 totalCapacity\n    ) public pure returns (bytes32) {\n        require(\n            workers.length == jobCapacities.length,\n            \"Workers and capacities length mismatch\"\n        );\n\n        return\n            keccak256(\n                abi.encode(\n                    validatorsToRemove,\n                    jobHashes,\n                    jobCapacities,\n                    workers,\n                    totalCapacity\n                )\n            );\n    }\n\n    /**\n     * @notice Adds a new validator to the contract, must be staked on SmartnodesCore.\n     * @param validator The address of the new validator\n     */\n    function addValidator(address validator) public {\n        require(\n            _smartnodesContractInstance.isLocked(validator),\n            \"Validator must be registered and locked on SmartnodesCore!\"\n        );\n        require(\n            !isValidator[validator],\n            \"Validator already registered on Multsig!\"\n        );\n\n        validators.push(validator);\n        isValidator[validator] = true;\n        _updateApprovalRequirements();\n\n        emit ValidatorAdded(validator);\n    }\n\n    function removeValidator(address validator) external onlyValidator {\n        require(msg.sender == validator, \"Cannot remove another validator!\");\n        _removeValidator(validator);\n    }\n\n    /**\n     * @dev Update the number of required approvals (66% of the active validators)\n     */\n    function _updateApprovalRequirements() internal {\n        requiredApprovals =\n            (validators.length * requiredApprovalsPercentage) /\n            100;\n\n        if (requiredApprovals < 1) {\n            requiredApprovals = 1; // Ensure at least 1 approval is required\n        }\n    }\n\n    function _removeValidator(address validator) private {\n        require(isValidator[validator], \"Validator not registered!\");\n        isValidator[validator] = false;\n\n        for (uint i = 0; i < validators.length; i++) {\n            if (validators[i] == validator) {\n                validators[i] = validators[validators.length - 1];\n                validators.pop();\n                break;\n            }\n        }\n\n        _updateApprovalRequirements();\n        emit ValidatorRemoved(validator);\n    }\n\n    /**\n     * @dev Checks if current round is expired\n     */\n    function _isCurrentRoundExpired() internal view returns (bool) {\n        if (block.timestamp - lastProposalTime > roundExpirationTime) {\n            return true;\n        }\n        return false;\n    }\n\n    /**\n     * @dev Checks if a validator is selected for current round\n     */\n    function _isCurrentRoundValidator(\n        address _validator\n    ) internal view returns (bool) {\n        for (uint i = 0; i < currentRoundValidators.length; i++) {\n            if (currentRoundValidators[i] == _validator) {\n                return true;\n            }\n        }\n        return false;\n    }\n\n    function _updateRound() internal {\n        _resetCurrentValidators();\n\n        while (currentProposals.length > 0) {\n            proposalVotes[uint8(currentProposals.length)] = 0;\n            currentProposals.pop();\n        }\n\n        while (readyProposals.length > 0) {\n            readyProposals.pop();\n        }\n\n        lastProposalTime = block.timestamp;\n        nextProposalId++;\n    }\n\n    function _resetCurrentValidators() internal {\n        // Clear submission status and other parameters\n        for (uint256 i = 0; i < currentRoundValidators.length; i++) {\n            hasSubmittedProposal[currentRoundValidators[i]] = 0;\n        }\n\n        for (uint256 i = 0; i < validators.length; i++) {\n            hasVoted[validators[i]] = 0;\n        }\n\n        // If it's the genesis proposal and no round validators exist\n        if (currentRoundValidators.length == 0) {\n            for (uint256 i = 0; i < validators.length; i++) {\n                hasSubmittedProposal[validators[i]] = 0;\n            }\n        }\n\n        delete currentRoundValidators;\n\n        require(\n            validators.length >= nValidators,\n            \"Not enough active validators!\"\n        );\n\n        // Create a temporary array to store selected validators\n        address[] memory selectedValidators = new address[](nValidators);\n        uint256 selectedCount = 0;\n        uint nonce = 0;\n\n        while (selectedCount < nValidators) {\n            uint256 randId = uint256(\n                keccak256(\n                    abi.encode(\n                        block.timestamp,\n                        msg.sender,\n                        selectedCount,\n                        nonce\n                    )\n                )\n            ) % validators.length;\n\n            address selectedValidator = validators[randId];\n\n            // Check if the validator is already selected\n            bool alreadySelected = false;\n            for (uint256 j = 0; j < selectedCount; j++) {\n                if (selectedValidators[j] == selectedValidator) {\n                    alreadySelected = true;\n                    break;\n                }\n            }\n\n            // If not selected, add to the current round and increment counter\n            if (!alreadySelected) {\n                selectedValidators[selectedCount] = selectedValidator;\n                currentRoundValidators.push(selectedValidator);\n                selectedCount++;\n            }\n\n            nonce++;\n        }\n    }\n\n    function generateValidators(\n        uint256 numValidators\n    ) external view returns (address[] memory) {\n        require(\n            validators.length >= numValidators,\n            \"Not enough active validators!\"\n        );\n\n        address[] memory selectedValidators = new address[](numValidators);\n        uint256 selectedCount = 0;\n\n        for (uint256 i = 0; i < numValidators; i++) {\n            uint256 randId = uint256(\n                keccak256(abi.encode(block.timestamp, msg.sender, i))\n            ) % validators.length;\n\n            selectedValidators[i] = validators[randId];\n            selectedCount++;\n        }\n\n        return selectedValidators;\n    }\n\n    function halvePeriod() external onlySmartnodesCore {\n        updateTime /= 2;\n    }\n\n    function doublePeriod() external onlySmartnodesCore {\n        updateTime /= 2;\n    }\n\n    function getNumValidators() external view returns (uint256) {\n        return validators.length;\n    }\n\n    function isActiveValidator(\n        address _validatorAddress\n    ) external view returns (bool) {\n        return isValidator[_validatorAddress];\n    }\n\n    // function getCurrentProposal(\n    //     uint8 proposalNum\n    // ) external view returns (RemoveValidator[] memory, CompleteJob[] memory) {\n    //     require(proposalNum < currentProposals.length, \"Proposal not found!\");\n    //     return (\n    //         currentProposals[proposalNum].validatorRemovals,\n    //         currentProposals[proposalNum].jobCompletions\n    //     );\n    // }\n\n    // Get basic info on the current state of the validator multisig\n    function getState() external view returns (uint256, address[] memory) {\n        return (nextProposalId, currentRoundValidators);\n    }\n\n    function isProposalReady(\n        uint256 proposalNumber\n    ) external view returns (bool) {\n        for (uint i = 0; i < readyProposals.length; i++) {\n            if (readyProposals[i] == proposalNumber) {\n                return true;\n            }\n        }\n\n        return false;\n    }\n}\n",
  "sourcePath": "contracts/SmartnodesMultiSig.sol",
  "type": "contract"
}