{"abi":[{"type":"constructor","inputs":[{"name":"_genesisNodes","type":"address[]","internalType":"address[]"}],"stateMutability":"nonpayable"},{"type":"receive","stateMutability":"payable"},{"type":"function","name":"CLOCK_MODE","inputs":[],"outputs":[{"name":"","type":"string","internalType":"string"}],"stateMutability":"view"},{"type":"function","name":"DOMAIN_SEPARATOR","inputs":[],"outputs":[{"name":"","type":"bytes32","internalType":"bytes32"}],"stateMutability":"view"},{"type":"function","name":"allowance","inputs":[{"name":"owner","type":"address","internalType":"address"},{"name":"spender","type":"address","internalType":"address"}],"outputs":[{"name":"","type":"uint256","internalType":"uint256"}],"stateMutability":"view"},{"type":"function","name":"approve","inputs":[{"name":"spender","type":"address","internalType":"address"},{"name":"value","type":"uint256","internalType":"uint256"}],"outputs":[{"name":"","type":"bool","internalType":"bool"}],"stateMutability":"nonpayable"},{"type":"function","name":"balanceOf","inputs":[{"name":"account","type":"address","internalType":"address"}],"outputs":[{"name":"","type":"uint256","internalType":"uint256"}],"stateMutability":"view"},{"type":"function","name":"batchClaimMerkleRewards","inputs":[{"name":"_distributionIds","type":"uint256[]","internalType":"uint256[]"},{"name":"_capacities","type":"uint256[]","internalType":"uint256[]"},{"name":"_merkleProofs","type":"bytes32[][]","internalType":"bytes32[][]"}],"outputs":[],"stateMutability":"nonpayable"},{"type":"function","name":"batchCleanupExpiredDistributions","inputs":[{"name":"_distributionIds","type":"uint256[]","internalType":"uint256[]"}],"outputs":[],"stateMutability":"nonpayable"},{"type":"function","name":"checkpoints","inputs":[{"name":"account","type":"address","internalType":"address"},{"name":"pos","type":"uint32","internalType":"uint32"}],"outputs":[{"name":"","type":"tuple","internalType":"struct Checkpoints.Checkpoint208","components":[{"name":"_key","type":"uint48","internalType":"uint48"},{"name":"_value","type":"uint208","internalType":"uint208"}]}],"stateMutability":"view"},{"type":"function","name":"claimMerkleRewards","inputs":[{"name":"_distributionId","type":"uint256","internalType":"uint256"},{"name":"_capacity","type":"uint256","internalType":"uint256"},{"name":"_merkleProof","type":"bytes32[]","internalType":"bytes32[]"}],"outputs":[],"stateMutability":"nonpayable"},{"type":"function","name":"cleanupExpiredDistribution","inputs":[{"name":"_distributionId","type":"uint256","internalType":"uint256"}],"outputs":[],"stateMutability":"nonpayable"},{"type":"function","name":"clock","inputs":[],"outputs":[{"name":"","type":"uint48","internalType":"uint48"}],"stateMutability":"view"},{"type":"function","name":"createMerkleDistribution","inputs":[{"name":"_merkleRoot","type":"bytes32","internalType":"bytes32"},{"name":"_totalCapacity","type":"uint256","internalType":"uint256"},{"name":"_approvedValidators","type":"address[]","internalType":"address[]"},{"name":"_payments","type":"tuple","internalType":"struct SmartnodesERC20.PaymentAmounts","components":[{"name":"sno","type":"uint128","internalType":"uint128"},{"name":"eth","type":"uint128","internalType":"uint128"}]},{"name":"_dustValidator","type":"address","internalType":"address"}],"outputs":[],"stateMutability":"nonpayable"},{"type":"function","name":"decimals","inputs":[],"outputs":[{"name":"","type":"uint8","internalType":"uint8"}],"stateMutability":"view"},{"type":"function","name":"delegate","inputs":[{"name":"delegatee","type":"address","internalType":"address"}],"outputs":[],"stateMutability":"nonpayable"},{"type":"function","name":"delegateBySig","inputs":[{"name":"delegatee","type":"address","internalType":"address"},{"name":"nonce","type":"uint256","internalType":"uint256"},{"name":"expiry","type":"uint256","internalType":"uint256"},{"name":"v","type":"uint8","internalType":"uint8"},{"name":"r","type":"bytes32","internalType":"bytes32"},{"name":"s","type":"bytes32","internalType":"bytes32"}],"outputs":[],"stateMutability":"nonpayable"},{"type":"function","name":"delegates","inputs":[{"name":"account","type":"address","internalType":"address"}],"outputs":[{"name":"","type":"address","internalType":"address"}],"stateMutability":"view"},{"type":"function","name":"doubleDistributionInterval","inputs":[],"outputs":[],"stateMutability":"nonpayable"},{"type":"function","name":"eip712Domain","inputs":[],"outputs":[{"name":"fields","type":"bytes1","internalType":"bytes1"},{"name":"name","type":"string","internalType":"string"},{"name":"version","type":"string","internalType":"string"},{"name":"chainId","type":"uint256","internalType":"uint256"},{"name":"verifyingContract","type":"address","internalType":"address"},{"name":"salt","type":"bytes32","internalType":"bytes32"},{"name":"extensions","type":"uint256[]","internalType":"uint256[]"}],"stateMutability":"view"},{"type":"function","name":"escrowEthPayment","inputs":[{"name":"_user","type":"address","internalType":"address"},{"name":"_payment","type":"uint256","internalType":"uint256"}],"outputs":[],"stateMutability":"payable"},{"type":"function","name":"escrowPayment","inputs":[{"name":"_user","type":"address","internalType":"address"},{"name":"_payment","type":"uint256","internalType":"uint256"}],"outputs":[],"stateMutability":"nonpayable"},{"type":"function","name":"getCurrentEra","inputs":[],"outputs":[{"name":"","type":"uint256","internalType":"uint256"}],"stateMutability":"view"},{"type":"function","name":"getEmissionRate","inputs":[],"outputs":[{"name":"","type":"uint256","internalType":"uint256"}],"stateMutability":"view"},{"type":"function","name":"getEscrowedPayments","inputs":[{"name":"_user","type":"address","internalType":"address"}],"outputs":[{"name":"","type":"tuple","internalType":"struct SmartnodesERC20.PaymentAmounts","components":[{"name":"sno","type":"uint128","internalType":"uint128"},{"name":"eth","type":"uint128","internalType":"uint128"}]}],"stateMutability":"view"},{"type":"function","name":"getEthBreakdown","inputs":[],"outputs":[{"name":"","type":"tuple","internalType":"struct SmartnodesERC20.EthBreakdown","components":[{"name":"totalContractEth","type":"uint256","internalType":"uint256"},{"name":"unclaimedEth","type":"uint256","internalType":"uint256"},{"name":"escrowedEth","type":"uint256","internalType":"uint256"},{"name":"availableEth","type":"uint256","internalType":"uint256"}]}],"stateMutability":"view"},{"type":"function","name":"getLockInfo","inputs":[{"name":"user","type":"address","internalType":"address"}],"outputs":[{"name":"locked","type":"bool","internalType":"bool"},{"name":"isValidator","type":"bool","internalType":"bool"},{"name":"timestamp","type":"uint256","internalType":"uint256"},{"name":"lockAmount","type":"uint256","internalType":"uint256"}],"stateMutability":"view"},{"type":"function","name":"getPastTotalSupply","inputs":[{"name":"timepoint","type":"uint256","internalType":"uint256"}],"outputs":[{"name":"","type":"uint256","internalType":"uint256"}],"stateMutability":"view"},{"type":"function","name":"getPastVotes","inputs":[{"name":"account","type":"address","internalType":"address"},{"name":"timepoint","type":"uint256","internalType":"uint256"}],"outputs":[{"name":"","type":"uint256","internalType":"uint256"}],"stateMutability":"view"},{"type":"function","name":"getSmartnodesCore","inputs":[],"outputs":[{"name":"","type":"address","internalType":"address"}],"stateMutability":"view"},{"type":"function","name":"getSupplyBreakdown","inputs":[],"outputs":[{"name":"_totalSupply","type":"uint256","internalType":"uint256"},{"name":"_circulating","type":"uint256","internalType":"uint256"},{"name":"_locked","type":"uint256","internalType":"uint256"},{"name":"_unclaimed","type":"uint256","internalType":"uint256"},{"name":"_escrowed","type":"uint256","internalType":"uint256"},{"name":"_stateTime","type":"uint256","internalType":"uint256"},{"name":"_stateReward","type":"uint256","internalType":"uint256"}],"stateMutability":"view"},{"type":"function","name":"getVotes","inputs":[{"name":"account","type":"address","internalType":"address"}],"outputs":[{"name":"","type":"uint256","internalType":"uint256"}],"stateMutability":"view"},{"type":"function","name":"halveDistributionInterval","inputs":[],"outputs":[],"stateMutability":"nonpayable"},{"type":"function","name":"isLocked","inputs":[{"name":"user","type":"address","internalType":"address"}],"outputs":[{"name":"","type":"bool","internalType":"bool"}],"stateMutability":"view"},{"type":"function","name":"lockTokens","inputs":[{"name":"_user","type":"address","internalType":"address"},{"name":"_isValidator","type":"bool","internalType":"bool"}],"outputs":[],"stateMutability":"nonpayable"},{"type":"function","name":"name","inputs":[],"outputs":[{"name":"","type":"string","internalType":"string"}],"stateMutability":"view"},{"type":"function","name":"nonces","inputs":[{"name":"owner","type":"address","internalType":"address"}],"outputs":[{"name":"","type":"uint256","internalType":"uint256"}],"stateMutability":"view"},{"type":"function","name":"numCheckpoints","inputs":[{"name":"account","type":"address","internalType":"address"}],"outputs":[{"name":"","type":"uint32","internalType":"uint32"}],"stateMutability":"view"},{"type":"function","name":"permit","inputs":[{"name":"owner","type":"address","internalType":"address"},{"name":"spender","type":"address","internalType":"address"},{"name":"value","type":"uint256","internalType":"uint256"},{"name":"deadline","type":"uint256","internalType":"uint256"},{"name":"v","type":"uint8","internalType":"uint8"},{"name":"r","type":"bytes32","internalType":"bytes32"},{"name":"s","type":"bytes32","internalType":"bytes32"}],"outputs":[],"stateMutability":"nonpayable"},{"type":"function","name":"releaseEscrowedEthPayment","inputs":[{"name":"_user","type":"address","internalType":"address"},{"name":"_amount","type":"uint256","internalType":"uint256"}],"outputs":[],"stateMutability":"nonpayable"},{"type":"function","name":"releaseEscrowedPayment","inputs":[{"name":"_user","type":"address","internalType":"address"},{"name":"_amount","type":"uint256","internalType":"uint256"}],"outputs":[],"stateMutability":"nonpayable"},{"type":"function","name":"s_claimed","inputs":[{"name":"","type":"uint256","internalType":"uint256"},{"name":"","type":"address","internalType":"address"}],"outputs":[{"name":"","type":"bool","internalType":"bool"}],"stateMutability":"view"},{"type":"function","name":"s_coreSet","inputs":[],"outputs":[{"name":"","type":"bool","internalType":"bool"}],"stateMutability":"view"},{"type":"function","name":"s_currentDistributionId","inputs":[],"outputs":[{"name":"","type":"uint256","internalType":"uint256"}],"stateMutability":"view"},{"type":"function","name":"s_dao","inputs":[],"outputs":[{"name":"","type":"address","internalType":"address"}],"stateMutability":"view"},{"type":"function","name":"s_daoSet","inputs":[],"outputs":[{"name":"","type":"bool","internalType":"bool"}],"stateMutability":"view"},{"type":"function","name":"s_distributionInterval","inputs":[],"outputs":[{"name":"","type":"uint256","internalType":"uint256"}],"stateMutability":"view"},{"type":"function","name":"s_distributions","inputs":[{"name":"","type":"uint256","internalType":"uint256"}],"outputs":[{"name":"merkleRoot","type":"bytes32","internalType":"bytes32"},{"name":"workerReward","type":"tuple","internalType":"struct SmartnodesERC20.PaymentAmounts","components":[{"name":"sno","type":"uint128","internalType":"uint128"},{"name":"eth","type":"uint128","internalType":"uint128"}]},{"name":"totalCapacity","type":"uint256","internalType":"uint256"},{"name":"active","type":"bool","internalType":"bool"},{"name":"timestamp","type":"uint256","internalType":"uint256"},{"name":"nonce","type":"uint256","internalType":"uint256"}],"stateMutability":"view"},{"type":"function","name":"s_escrowedPayments","inputs":[{"name":"","type":"address","internalType":"address"}],"outputs":[{"name":"sno","type":"uint128","internalType":"uint128"},{"name":"eth","type":"uint128","internalType":"uint128"}],"stateMutability":"view"},{"type":"function","name":"s_lastDistributionTime","inputs":[],"outputs":[{"name":"","type":"uint256","internalType":"uint256"}],"stateMutability":"view"},{"type":"function","name":"s_lockedTokens","inputs":[{"name":"","type":"address","internalType":"address"}],"outputs":[{"name":"locked","type":"bool","internalType":"bool"},{"name":"isValidator","type":"bool","internalType":"bool"},{"name":"unlockTime","type":"uint128","internalType":"uint128"},{"name":"lockedAmount","type":"uint256","internalType":"uint256"}],"stateMutability":"view"},{"type":"function","name":"s_smartnodesCoordinator","inputs":[],"outputs":[{"name":"","type":"address","internalType":"contract ISmartnodesCoordinator"}],"stateMutability":"view"},{"type":"function","name":"s_smartnodesCore","inputs":[],"outputs":[{"name":"","type":"address","internalType":"contract ISmartnodesCore"}],"stateMutability":"view"},{"type":"function","name":"s_totalETHDeposited","inputs":[],"outputs":[{"name":"","type":"uint256","internalType":"uint256"}],"stateMutability":"view"},{"type":"function","name":"s_totalETHWithdrawn","inputs":[],"outputs":[{"name":"","type":"uint256","internalType":"uint256"}],"stateMutability":"view"},{"type":"function","name":"s_totalEscrowed","inputs":[],"outputs":[{"name":"sno","type":"uint128","internalType":"uint128"},{"name":"eth","type":"uint128","internalType":"uint128"}],"stateMutability":"view"},{"type":"function","name":"s_totalLocked","inputs":[],"outputs":[{"name":"","type":"uint256","internalType":"uint256"}],"stateMutability":"view"},{"type":"function","name":"s_totalUnclaimed","inputs":[],"outputs":[{"name":"sno","type":"uint128","internalType":"uint128"},{"name":"eth","type":"uint128","internalType":"uint128"}],"stateMutability":"view"},{"type":"function","name":"s_userLockAmount","inputs":[],"outputs":[{"name":"","type":"uint256","internalType":"uint256"}],"stateMutability":"view"},{"type":"function","name":"s_validatorLockAmount","inputs":[],"outputs":[{"name":"","type":"uint256","internalType":"uint256"}],"stateMutability":"view"},{"type":"function","name":"setDAO","inputs":[{"name":"_dao","type":"address","internalType":"address"}],"outputs":[],"stateMutability":"nonpayable"},{"type":"function","name":"setSmartnodes","inputs":[{"name":"_smartnodesCore","type":"address","internalType":"address"},{"name":"_smartnodesCoordinator","type":"address","internalType":"address"}],"outputs":[],"stateMutability":"nonpayable"},{"type":"function","name":"setUserLockAmount","inputs":[{"name":"_newAmount","type":"uint256","internalType":"uint256"}],"outputs":[],"stateMutability":"nonpayable"},{"type":"function","name":"setValidatorLockAmount","inputs":[{"name":"_newAmount","type":"uint256","internalType":"uint256"}],"outputs":[],"stateMutability":"nonpayable"},{"type":"function","name":"slashAndUnlockValidator","inputs":[{"name":"_validator","type":"address","internalType":"address"},{"name":"_slashAmount","type":"uint256","internalType":"uint256"}],"outputs":[],"stateMutability":"nonpayable"},{"type":"function","name":"symbol","inputs":[],"outputs":[{"name":"","type":"string","internalType":"string"}],"stateMutability":"view"},{"type":"function","name":"totalSupply","inputs":[],"outputs":[{"name":"","type":"uint256","internalType":"uint256"}],"stateMutability":"view"},{"type":"function","name":"transfer","inputs":[{"name":"to","type":"address","internalType":"address"},{"name":"value","type":"uint256","internalType":"uint256"}],"outputs":[{"name":"","type":"bool","internalType":"bool"}],"stateMutability":"nonpayable"},{"type":"function","name":"transferFrom","inputs":[{"name":"from","type":"address","internalType":"address"},{"name":"to","type":"address","internalType":"address"},{"name":"value","type":"uint256","internalType":"uint256"}],"outputs":[{"name":"","type":"bool","internalType":"bool"}],"stateMutability":"nonpayable"},{"type":"function","name":"unlockTokens","inputs":[{"name":"_user","type":"address","internalType":"address"}],"outputs":[],"stateMutability":"nonpayable"},{"type":"event","name":"Approval","inputs":[{"name":"owner","type":"address","indexed":true,"internalType":"address"},{"name":"spender","type":"address","indexed":true,"internalType":"address"},{"name":"value","type":"uint256","indexed":false,"internalType":"uint256"}],"anonymous":false},{"type":"event","name":"DAORewardsDistributed","inputs":[{"name":"distributionId","type":"uint256","indexed":true,"internalType":"uint256"},{"name":"snoAmount","type":"uint256","indexed":false,"internalType":"uint256"},{"name":"ethAmount","type":"uint256","indexed":false,"internalType":"uint256"}],"anonymous":false},{"type":"event","name":"DAOSet","inputs":[{"name":"dao","type":"address","indexed":true,"internalType":"address"}],"anonymous":false},{"type":"event","name":"DelegateChanged","inputs":[{"name":"delegator","type":"address","indexed":true,"internalType":"address"},{"name":"fromDelegate","type":"address","indexed":true,"internalType":"address"},{"name":"toDelegate","type":"address","indexed":true,"internalType":"address"}],"anonymous":false},{"type":"event","name":"DelegateVotesChanged","inputs":[{"name":"delegate","type":"address","indexed":true,"internalType":"address"},{"name":"previousVotes","type":"uint256","indexed":false,"internalType":"uint256"},{"name":"newVotes","type":"uint256","indexed":false,"internalType":"uint256"}],"anonymous":false},{"type":"event","name":"DistributionCleaned","inputs":[{"name":"distributionId","type":"uint256","indexed":false,"internalType":"uint256"}],"anonymous":false},{"type":"event","name":"DistributionIntervalUpdated","inputs":[{"name":"oldInterval","type":"uint256","indexed":false,"internalType":"uint256"},{"name":"newInterval","type":"uint256","indexed":false,"internalType":"uint256"}],"anonymous":false},{"type":"event","name":"EIP712DomainChanged","inputs":[],"anonymous":false},{"type":"event","name":"ETHDeposited","inputs":[{"name":"from","type":"address","indexed":true,"internalType":"address"},{"name":"amount","type":"uint256","indexed":false,"internalType":"uint256"}],"anonymous":false},{"type":"event","name":"ETHWithdrawn","inputs":[{"name":"to","type":"address","indexed":true,"internalType":"address"},{"name":"amount","type":"uint256","indexed":false,"internalType":"uint256"}],"anonymous":false},{"type":"event","name":"EscrowReleased","inputs":[{"name":"user","type":"address","indexed":true,"internalType":"address"},{"name":"amount","type":"uint256","indexed":false,"internalType":"uint256"}],"anonymous":false},{"type":"event","name":"EthEscrowReleased","inputs":[{"name":"user","type":"address","indexed":true,"internalType":"address"},{"name":"amount","type":"uint256","indexed":false,"internalType":"uint256"}],"anonymous":false},{"type":"event","name":"EthPaymentEscrowed","inputs":[{"name":"user","type":"address","indexed":true,"internalType":"address"},{"name":"payment","type":"uint256","indexed":false,"internalType":"uint256"}],"anonymous":false},{"type":"event","name":"EthRewardsClaimed","inputs":[{"name":"user","type":"address","indexed":true,"internalType":"address"},{"name":"amount","type":"uint256","indexed":false,"internalType":"uint256"}],"anonymous":false},{"type":"event","name":"MerkleDistributionCreated","inputs":[{"name":"distributionId","type":"uint256","indexed":true,"internalType":"uint256"},{"name":"merkleRoot","type":"bytes32","indexed":false,"internalType":"bytes32"},{"name":"totalSnoRewards","type":"uint256","indexed":false,"internalType":"uint256"},{"name":"totalEthRewards","type":"uint256","indexed":false,"internalType":"uint256"},{"name":"timestamp","type":"uint256","indexed":false,"internalType":"uint256"}],"anonymous":false},{"type":"event","name":"PaymentEscrowed","inputs":[{"name":"user","type":"address","indexed":true,"internalType":"address"},{"name":"payment","type":"uint256","indexed":false,"internalType":"uint256"}],"anonymous":false},{"type":"event","name":"SlashedTokensBurned","inputs":[{"name":"amount","type":"uint256","indexed":false,"internalType":"uint256"}],"anonymous":false},{"type":"event","name":"SmartnodesSet","inputs":[{"name":"coreContract","type":"address","indexed":true,"internalType":"address"},{"name":"coordinatorContract","type":"address","indexed":true,"internalType":"address"}],"anonymous":false},{"type":"event","name":"TokenRewardsClaimed","inputs":[{"name":"user","type":"address","indexed":true,"internalType":"address"},{"name":"amount","type":"uint256","indexed":false,"internalType":"uint256"}],"anonymous":false},{"type":"event","name":"TokensLocked","inputs":[{"name":"user","type":"address","indexed":true,"internalType":"address"},{"name":"isValidator","type":"bool","indexed":false,"internalType":"bool"},{"name":"amount","type":"uint256","indexed":false,"internalType":"uint256"}],"anonymous":false},{"type":"event","name":"TokensUnlocked","inputs":[{"name":"user","type":"address","indexed":true,"internalType":"address"},{"name":"isValidator","type":"bool","indexed":false,"internalType":"bool"},{"name":"amount","type":"uint256","indexed":false,"internalType":"uint256"}],"anonymous":false},{"type":"event","name":"Transfer","inputs":[{"name":"from","type":"address","indexed":true,"internalType":"address"},{"name":"to","type":"address","indexed":true,"internalType":"address"},{"name":"value","type":"uint256","indexed":false,"internalType":"uint256"}],"anonymous":false},{"type":"event","name":"UnlockInitiated","inputs":[{"name":"user","type":"address","indexed":true,"internalType":"address"},{"name":"unlockTime","type":"uint256","indexed":false,"internalType":"uint256"}],"anonymous":false},{"type":"event","name":"UserLockAmountUpdated","inputs":[{"name":"oldAmount","type":"uint256","indexed":false,"internalType":"uint256"},{"name":"newAmount","type":"uint256","indexed":false,"internalType":"uint256"}],"anonymous":false},{"type":"event","name":"ValidatorLockAmountUpdated","inputs":[{"name":"oldAmount","type":"uint256","indexed":false,"internalType":"uint256"},{"name":"newAmount","type":"uint256","indexed":false,"internalType":"uint256"}],"anonymous":false},{"type":"event","name":"ValidatorRewardsDistributed","inputs":[{"name":"distributionId","type":"uint256","indexed":true,"internalType":"uint256"},{"name":"validators","type":"address[]","indexed":false,"internalType":"address[]"},{"name":"totalSno","type":"uint256","indexed":false,"internalType":"uint256"},{"name":"totalEth","type":"uint256","indexed":false,"internalType":"uint256"}],"anonymous":false},{"type":"event","name":"ValidatorSlashed","inputs":[{"name":"validator","type":"address","indexed":true,"internalType":"address"},{"name":"slashedAmount","type":"uint256","indexed":false,"internalType":"uint256"},{"name":"remainingAmount","type":"uint256","indexed":false,"internalType":"uint256"}],"anonymous":false},{"type":"error","name":"CheckpointUnorderedInsertion","inputs":[]},{"type":"error","name":"ECDSAInvalidSignature","inputs":[]},{"type":"error","name":"ECDSAInvalidSignatureLength","inputs":[{"name":"length","type":"uint256","internalType":"uint256"}]},{"type":"error","name":"ECDSAInvalidSignatureS","inputs":[{"name":"s","type":"bytes32","internalType":"bytes32"}]},{"type":"error","name":"ERC20ExceededSafeSupply","inputs":[{"name":"increasedSupply","type":"uint256","internalType":"uint256"},{"name":"cap","type":"uint256","internalType":"uint256"}]},{"type":"error","name":"ERC20InsufficientAllowance","inputs":[{"name":"spender","type":"address","internalType":"address"},{"name":"allowance","type":"uint256","internalType":"uint256"},{"name":"needed","type":"uint256","internalType":"uint256"}]},{"type":"error","name":"ERC20InsufficientBalance","inputs":[{"name":"sender","type":"address","internalType":"address"},{"name":"balance","type":"uint256","internalType":"uint256"},{"name":"needed","type":"uint256","internalType":"uint256"}]},{"type":"error","name":"ERC20InvalidApprover","inputs":[{"name":"approver","type":"address","internalType":"address"}]},{"type":"error","name":"ERC20InvalidReceiver","inputs":[{"name":"receiver","type":"address","internalType":"address"}]},{"type":"error","name":"ERC20InvalidSender","inputs":[{"name":"sender","type":"address","internalType":"address"}]},{"type":"error","name":"ERC20InvalidSpender","inputs":[{"name":"spender","type":"address","internalType":"address"}]},{"type":"error","name":"ERC2612ExpiredSignature","inputs":[{"name":"deadline","type":"uint256","internalType":"uint256"}]},{"type":"error","name":"ERC2612InvalidSigner","inputs":[{"name":"signer","type":"address","internalType":"address"},{"name":"owner","type":"address","internalType":"address"}]},{"type":"error","name":"ERC5805FutureLookup","inputs":[{"name":"timepoint","type":"uint256","internalType":"uint256"},{"name":"clock","type":"uint48","internalType":"uint48"}]},{"type":"error","name":"ERC6372InconsistentClock","inputs":[]},{"type":"error","name":"InvalidAccountNonce","inputs":[{"name":"account","type":"address","internalType":"address"},{"name":"currentNonce","type":"uint256","internalType":"uint256"}]},{"type":"error","name":"InvalidShortString","inputs":[]},{"type":"error","name":"ReentrancyGuardReentrantCall","inputs":[]},{"type":"error","name":"SafeCastOverflowedUintDowncast","inputs":[{"name":"bits","type":"uint8","internalType":"uint8"},{"name":"value","type":"uint256","internalType":"uint256"}]},{"type":"error","name":"StringTooLong","inputs":[{"name":"str","type":"string","internalType":"string"}]},{"type":"error","name":"Token__AlreadyLocked","inputs":[]},{"type":"error","name":"Token__CleanupNotAllowed","inputs":[]},{"type":"error","name":"Token__CoreAlreadySet","inputs":[]},{"type":"error","name":"Token__CoreNotSet","inputs":[]},{"type":"error","name":"Token__DAOAlreadySet","inputs":[]},{"type":"error","name":"Token__DAONotSet","inputs":[]},{"type":"error","name":"Token__DistributionExpired","inputs":[]},{"type":"error","name":"Token__DistributionNotActive","inputs":[]},{"type":"error","name":"Token__DistributionTooEarly","inputs":[]},{"type":"error","name":"Token__ETHTransferFailed","inputs":[]},{"type":"error","name":"Token__InsufficientBalance","inputs":[]},{"type":"error","name":"Token__InvalidAddress","inputs":[]},{"type":"error","name":"Token__InvalidArrayLength","inputs":[]},{"type":"error","name":"Token__InvalidInterval","inputs":[]},{"type":"error","name":"Token__InvalidMerkleProof","inputs":[]},{"type":"error","name":"Token__InvalidMerkleRoot","inputs":[]},{"type":"error","name":"Token__NotLocked","inputs":[]},{"type":"error","name":"Token__NotValidator","inputs":[]},{"type":"error","name":"Token__OnlyDAO","inputs":[]},{"type":"error","name":"Token__RewardsAlreadyClaimed","inputs":[]},{"type":"error","name":"Token__SlashAmountTooLarge","inputs":[]},{"type":"error","name":"Token__TransferFailed","inputs":[]},{"type":"error","name":"Token__UnlockPending","inputs":[]},{"type":"error","name":"VotesExpiredSignature","inputs":[{"name":"expiry","type":"uint256","internalType":"uint256"}]}],"bytecode":{"object":"0x6101806040523462000082576200001f62000019620000f1565b62000243565b6040516147a39081620011078239608051816133c8015260a05181613483015260c05181613392015260e051816134170152610100518161343d0152610120518161164b0152610140518161167401526101605181818161205001526127970152f35b5f80fd5b634e487b7160e01b5f52604160045260245ffd5b604081019081106001600160401b03821117620000b657604052565b62000086565b601f909101601f19168101906001600160401b03821190821017620000b657604052565b60405190620000ef826200009a565b565b620058ea8038038060405192620001098285620000bc565b833981016020908183820312620000825782516001600160401b039384821162000082570181601f8201121562000082578051938411620000b6578360051b90604051946200015b85840187620000bc565b8552838086019282010192831162000082578301905b82821062000180575050505090565b81516001600160a01b03811681036200008257815290830190830162000171565b60405190620001b0826200009a565b60018252565b60405190620001c5826200009a565b600f82526e29b6b0b93a3737b232b9aa37b5b2b760891b6020830152565b634e487b7160e01b5f52603260045260245ffd5b80518210156200020c5760209160051b010190565b620001e3565b634e487b7160e01b5f52601160045260245ffd5b908160021b91808304600414901517156200023d57565b62000212565b6200024d620001b6565b62000257620001b6565b906040519062000267826200009a565b60038252602062534e4f60e81b8184015262000282620001a1565b603160f81b828201908152855190959194916001600160401b038211620000b657620002bb82620002b56003546200048f565b620004ca565b8390601f831160011462000402579180620002f292620002fb95945f92620003f6575b50508160011b915f199060031b1c19161790565b6003556200061e565b6200030682620007cf565b610120526200031583620008d9565b61014052815191012060e052519020610100524660a05262000336620009e0565b6080523060c052620003486001600b55565b4261016052600d805460ff60a01b19169055600e805460ff60a01b191690556200037462038400601755565b6200038869d3c21bcecceda1000000600f55565b6200039b68056bc75e2d63100000601055565b8051905f5b828110620003ad57505050565b80620003ef620003d1620003c460019486620001f7565b516001600160a01b031690565b620003e8620003e2600f5462000226565b60011c90565b9062000707565b01620003a0565b015190505f80620002de565b60035f52601f19831691907fc2575a0e9e593c00f959f8c92f12db2869c3395a3b0502d05e2516446f71f85b925f5b8782821062000478575050916001939185620002fb979694106200045f575b505050811b016003556200061e565b01515f1960f88460031b161c191690555f808062000450565b600185968293968601518155019501930162000431565b90600182811c92168015620004bf575b6020831014620004ab57565b634e487b7160e01b5f52602260045260245ffd5b91607f16916200049f565b601f8111620004d7575050565b60035f5260205f20906020601f840160051c8301931062000514575b601f0160051c01905b81811062000508575050565b5f8155600101620004fc565b9091508190620004f3565b601f81116200052c575050565b60045f5260205f20906020601f840160051c8301931062000569575b601f0160051c01905b8181106200055d575050565b5f815560010162000551565b909150819062000548565b601f811162000581575050565b60055f5260205f20906020601f840160051c83019310620005be575b601f0160051c01905b818110620005b2575050565b5f8155600101620005a6565b90915081906200059d565b601f8111620005d6575050565b60065f5260205f20906020601f840160051c8301931062000613575b601f0160051c01905b81811062000607575050565b5f8155600101620005fb565b9091508190620005f2565b80519091906001600160401b038111620000b6576200064a81620006446004546200048f565b6200051f565b602080601f831160011462000682575081906200067d93945f92620003f65750508160011b915f199060031b1c19161790565b600455565b60045f52601f198316949091907f8a35acfbc15ff81a39ae7d344fd709f28e8600b4aa8c65c6b64bfe7fe36bd19b925f905b878210620006ee575050836001959610620006d5575b505050811b01600455565b01515f1960f88460031b161c191690555f8080620006ca565b80600185968294968601518155019501930190620006b4565b91906001600160a01b0383168015620007b7576002548281018091116200023d576002556001600160a01b0384165f90815260208181526040808320805486019055518481527fddf252ad1be2c89b69c2b068fc378daa952ba7f163c4a11628f55a4df523b3ef9190a3600254926001600160d01b0384116200079157620000ef92935062000aea565b604051630e58ae9360e11b8152600481018590526001600160d01b036024820152604490fd5b60405163ec442f0560e01b81525f6004820152602490fd5b90815160208082105f14620007ef57505090620007ec9062000a6f565b90565b6001600160401b038211620000b6576200081682620008106005546200048f565b62000574565b602090601f831160011462000851575081906200084993945f92620003f65750508160011b915f199060031b1c19161790565b60055560ff90565b60055f52601f198316949091907f036b6384b5eca791c62761152d0c79bb0604c104a5fb6f4eb0703f3154bb3db0925f905b878210620008c0575050836001959610620008a7575b505050811b0160055560ff90565b01515f1960f88460031b161c191690555f808062000899565b8060018596829496860151815501950193019062000883565b90815160208082105f14620008f657505090620007ec9062000a6f565b6001600160401b038211620000b6576200091d82620009176006546200048f565b620005c9565b602090601f831160011462000958575081906200095093945f92620003f65750508160011b915f199060031b1c19161790565b60065560ff90565b60065f52601f198316949091907ff652222313e28459528d920b65115c16c04f3efc82aaedc97be59f3f377c0d3f925f905b878210620009c7575050836001959610620009ae575b505050811b0160065560ff90565b01515f1960f88460031b161c191690555f8080620009a0565b806001859682949686015181550195019301906200098a565b60e051610100516040519060208201927f8b73c3c69bb8fe3d512ecc4cf759cc79239f7b179b0ffacaa9a75d522b39400f8452604083015260608201524660808201523060a082015260a0815260c0810181811060018060401b03821117620000b65760405251902090565b60208151910151906020811062000a61575090565b5f199060200360031b1b1690565b601f81511162000a8a5762000a848162000a4c565b90511790565b6040519063305a27a960e01b82528160208060048301528251908160248401525f935b82851062000ad0575050604492505f838284010152601f80199101168101030190fd5b848101820151868601604401529381019385935062000aad565b9062000af68162000bec565b9165ffffffffffff80431162000bcd57600a548062000b9c575062000b2e9062000b25620000ef955f620010d2565b90431662000f0e565b50506001600160a01b0390811690811562000b7f575b60086020527f5eff886ea0ce6ca488a3d6e336d6c0f75f46d19b42c06ce5ee98e42c96d256c7545f9283526040909220548116911662000ce1565b62000b9462000b8e8462000bec565b62000c20565b505062000b44565b905f199180838101116200023d57620000ef9562000b2e9362000b2592600a5f5260205f2001015460301c620010d2565b6040516306dfcc6560e41b815260306004820152436024820152604490fd5b6001600160d01b039081811162000c01571690565b604490604051906306dfcc6560e41b825260d060048301526024820152fd5b65ffffffffffff80431162000bcd57600a548062000c4d575062000b2562000c49925f620010ec565b9091565b5f199281848101116200023d57600a5f5292015f80516020620058aa833981519152015462000c499262000b259160301c620010ec565b65ffffffffffff9081431162000bcd5780548062000cb7575062000cad62000c49935f620010d2565b9143169062001007565b5f199381858101116200023d5762000c499462000cad92845f5260205f2001015460301c620010d2565b6001600160a01b0380831693929190811690818514158062000e40575b62000d0b575b5050505050565b8162000d85575b50508262000d23575b808062000d04565b6001600160a01b03165f9081526009602052604090205f80516020620058ca8339815191529162000d619162000d5a909162000bec565b9062000c84565b604080516001600160d01b039384168152919092166020820152a25f808062000d1b565b6001600160a01b03165f90815260096020526040902062000da68462000bec565b9065ffffffffffff9081431162000bcd5780548062000e0457509062000de19162000cad5f80516020620058ca833981519152945f620010ec565b604080516001600160d01b039384168152919092166020820152a25f8062000d12565b91905f199280848101116200023d575f80516020620058ca8339815191529462000de19462000cad92845f5260205f2001015460301c620010ec565b5083151562000cfe565b5f198101919082116200023d57565b600a549068010000000000000000821015620000b6576001820180600a558210156200020c57600a5f5280516020919091015160301b65ffffffffffff191665ffffffffffff91909116175f80516020620058aa83398151915290910155565b90815468010000000000000000811015620000b657600181018084558110156200020c575f9283526020928390208251929093015160301b65ffffffffffff191665ffffffffffff9290921691909117910155565b600a54919291801562000fd95762000f2a62000f419162000e4a565b600a5f525f80516020620058aa8339815191520190565b9081549165ffffffffffff9081841691831680831162000fc75786920362000f895762000f8292509065ffffffffffff82549181199060301b169116179055565b60301c9190565b505062000fc19062000fac62000f9e620000e0565b65ffffffffffff9092168252565b6001600160d01b038516602082015262000e59565b62000f82565b604051632520601d60e01b8152600490fd5b50620010029062000fed62000f9e620000e0565b6001600160d01b038416602082015262000e59565b5f9190565b80549293928015620010a857620010226200102d9162000e4a565b825f5260205f200190565b9182549265ffffffffffff9182851692811680841162000fc7578793036200106f575062000f8292509065ffffffffffff82549181199060301b169116179055565b91505062000fc1916200109362001085620000e0565b65ffffffffffff9093168352565b6001600160d01b038616602083015262000eb9565b50906200100291620010bd62001085620000e0565b6001600160d01b038516602083015262000eb9565b6001600160d01b03918216908216019081116200023d5790565b6001600160d01b03918216908216039081116200023d579056fe60806040526004361015610022575b3615610018575f80fd5b610020612e14565b005b5f3560e01c8063012775911461045757806306fdde0314610452578063095ea7b31461044d578063111809511461044857806312bc9f8c146104435780631342c7271461043e57806318160ddd146104395780631f7635311461043457806323b872dd1461042f578063243f72b31461042a5780632644439a146104255780632e54575d14610420578063313ce5671461041b5780633644e515146104165780633a46b1a8146104115780634a4fbeec1461040c5780634b667916146104075780634bf5d7e91461040257806353803211146103fd578063587cde1e146103f857806359bfafad146103f35780635c19a95c146103ee5780635dc437e3146103e9578063601c438d146103e45780636b451ba9146103d05780636fcfff45146103df57806370a08231146103da57806370e2709a146103d5578063714bd915146103d05780637238ccdb146103bc57806377bea8c5146103cb5780637855328f146103c65780637ecebe00146103c15780638109fff1146103bc5780638180c1c2146103b757806384b0196e146103b25780638b1297e0146103ad5780638e539e8c146103a8578063918a93d1146103a357806391ddadf41461039e57806395d89b411461039957806396169017146103945780639a3e13f01461038f5780639ab24eb01461038a5780639fb4041314610385578063a9059cbb14610380578063addfbd761461037b578063c0a77da914610376578063c2227ac714610371578063c3cda5201461036c578063cb67f94814610367578063d25074cf14610362578063d250b6cb1461035d578063d505accf14610358578063dc8bde8114610353578063dd62ed3e1461034e578063e21f2df814610349578063e73a914c14610344578063ec5188b51461033f578063f0c0189a1461033a578063f1127ed814610335578063f1a9e63114610330578063f63b77381461032b578063f6a8972714610326578063f721ed1214610321578063f76dfeac1461031c578063f91c67ed146103175763fd4f19ea0361000e576125e5565b61253c565b6124e3565b61248d565b612470565b61240e565b6123f1565b61233f565b61231a565b6122f2565b612264565b612247565b6121f0565b6121aa565b612077565b612037565b61201a565b611ec5565b611dfc565b611dbf565b611da5565b611d1a565b611bd2565b611ba1565b611b5a565b611a74565b6119c7565b611922565b6118f7565b6118d2565b61180b565b611729565b611633565b6115be565b6113d7565b611586565b61148d565b61143f565b6112f4565b6113ba565b611382565b61131c565b6111b4565b611197565b611175565b610fe1565b610fa8565b610e66565b610dd5565b610cba565b610c7d565b610ba4565b610b82565b610b67565b610b18565b610a5e565b6109dd565b610932565b61082b565b61080e565b6107f1565b61076a565b6106a6565b610675565b61053f565b61046a565b5f91031261046657565b5f80fd5b34610466575f36600319011261046657600254610485612786565b90601354918282038281116104e8576001600160801b038060115416908183039283116104e85760125416908183039283116104e85760e09560175493604051968752602087015260408601526060850152608084015260a083015260c0820152f35b61260d565b91908251928382525f5b848110610517575050825f602080949584010152601f8019910116010190565b6020818301810151848301820152016104f7565b90602061053c9281815201906104ed565b90565b34610466575f366003190112610466576040515f60035461055f8161263c565b808452906020906001908181169081156105f5575060011461059c575b6105988561058c81870382611cab565b6040519182918261052b565b0390f35b60035f90815293507fc2575a0e9e593c00f959f8c92f12db2869c3395a3b0502d05e2516446f71f85b5b8385106105e25750505050810160200161058c8261059861057c565b80548686018401529382019381016105c6565b8695506105989693506020925061058c94915060ff191682840152151560051b820101929361057c565b600435906001600160a01b038216820361046657565b602435906001600160a01b038216820361046657565b60a435906001600160a01b038216820361046657565b35906001600160a01b038216820361046657565b346104665760403660031901126104665761069b61069161061f565b6024359033613b14565b602060405160018152f35b3461046657602036600319011261046657600435805f526019602052600460405f2001548015908115610752575b506107405761073b817f90f00956cb6fbf63a1cbe072b35c356dcebdbc90f584ab8af687cd09017679e0925f5260196020525f6005604082208281558260018201558260028201558260038201558260048201550155604051918291829190602083019252565b0390a1005b60405163b3c0eed160e01b8152600490fd5b90506302d5190081018091116104e85742105f6106d4565b3461046657602036600319011261046657600e54600435906001600160a01b0316806107d3575b601080549083905560408051918252602082018490527fed5bb45b5ea80d4d6d134cc17453fb509c42ac4ac7da4a2a68036b6f41184c4c91908190810161073b565b33036107df575f610791565b60405163077d5fb960e01b8152600490fd5b34610466575f366003190112610466576020601654604051908152f35b34610466575f366003190112610466576020600254604051908152f35b34610466575f36600319011261046657600e546001600160a01b031680610926575b50610856612e52565b6017546170808111156109145761086f8160011c601755565b600d546001600160a01b03169060175491803b1561046657604051631b8ee6f960e11b815260048101939093525f908390602490829084905af191821561090f577f86ae1dce805c6398d216b494416bfb4e21b626edcde2225efe26154daebb9ff5926108f6575b5060175460408051928352602083019190915290a16100206001600b55565b8061090361090992611c0c565b8061045c565b5f6108d7565b6126ce565b604051632ceea16160e11b8152600490fd5b33036107df575f61084d565b346104665760603660031901126104665761094b61061f565b610953610635565b6001600160a01b0382165f9081526001602090815260408083203384529091529020604435919054925f19841061099b575b61098f9350612e75565b60405160018152602090f35b8284106109b7576109b28361098f95033383613bad565b610985565b604051637dc7a0d960e11b81523360048201526024810185905260448101849052606490fd5b34610466576020366003190112610466576001600160a01b036109fe61061f565b165f908152601c60209081526040918290205482516001600160801b038216815260809190911c91810191909152f35b9181601f84011215610466578235916001600160401b038311610466576020808501948460051b01011161046657565b3461046657602036600319011261046657600480356001600160401b03811161046657610a8f903690600401610a2e565b601e8111610b06575f5b818110610aa257005b610aad8183856126ed565b3590303b1561046657604051631118095160e01b81528581019283526001925f9082908190602001038183305af19081610af3575b50610aee575b01610a99565b610ae8565b80610903610b0092611c0c565b5f610ae2565b604051637025699960e11b8152600490fd5b34610466576060366003190112610466576044356001600160401b03811161046657610b4b610b60913690600401610a2e565b90610b54612e52565b6024356004353361306e565b6001600b55005b34610466575f36600319011261046657602060405160128152f35b34610466575f366003190112610466576020610b9c61338f565b604051908152f35b34610466576040366003190112610466576001600160a01b03610bc561061f565b165f52600960205260405f20610bdc6024356134a9565b8154905f829160058411610c2f575b610bf6935084613ea4565b9081610c1457505060205f5b6040516001600160d01b039091168152f35b610c1f602092612621565b905f52815f20015460301c610c02565b9192610c3a81613d13565b81039081116104e857610bf693855f5265ffffffffffff808360205f20015416908516105f14610c6b575091610beb565b929150610c7790612695565b90610beb565b34610466576020366003190112610466576001600160a01b03610c9e61061f565b165f52601b602052602060ff60405f2054166040519015158152f35b34610466576060366003190112610466576001600160401b0360043581811161046657610ceb903690600401610a2e565b919060243582811161046657610d05903690600401610a2e565b92909160443582811161046657610d20903690600401610a2e565b959091610d2b612e52565b858214801590610dcb575b610db9575f5b828110610d4d576100206001600b55565b610d588184846126ed565b3590610d658189896126ed565b359189821015610db457600582811b870135601e198836030181121561046657870190813591898311610466576020839101911b3603811361046657600194610dae933361306e565b01610d3c565b6126d9565b604051633682629560e11b8152600490fd5b5086821415610d36565b34610466575f36600319011261046657610dee43613ce1565b65ffffffffffff80610dff43613ce1565b16911603610e5457610598604051610e1681611c3f565b601d81527f6d6f64653d626c6f636b6e756d6265722666726f6d3d64656661756c7400000060208201526040519182916020835260208301906104ed565b6040516301bfc1c560e61b8152600490fd5b60408060031936011261046657610e7b61061f565b600c549091602435916001600160a01b039081168015610f97573303610f86578316928315610f865782158015610f7d575b610f6c5791610f6791610f59610f3e7f2e2b30c44aa6173c25ae27b0cd4614d3f9abaa2aa6da86969b0f6b25709edd4495610f33610f056001600160801b0387169260018060a01b03165f52601c60205260405f2090565b610f1383825460801c6126fd565b81546001600160801b031660809190911b6001600160801b031916179055565b60125460801c6126fd565b6001600160801b036012549181199060801b16911617601255565b519081529081906020820190565b0390a2005b815163e1c399a560e01b8152600490fd5b50823410610ead565b8151633682629560e11b8152600490fd5b825163bb4b979b60e01b8152600490fd5b346104665760203660031901126104665760206001600160a01b0380610fcc61061f565b165f526008825260405f205416604051908152f35b346104665760408060031936011261046657610ffb61061f565b600e5460243591906001600160a01b0390811680611158575b5061101d612e52565b8116918215611147576001600160a01b0382165f908152601b60205260409020805460ff811615908115611138575b5061112757600181019283548060011c8411611116576110cf927f83b04ecf7330997e742429a641e136d9f3698c3e9ac9cb9ce0cc2d6da36a244d969792611097866110b39461262f565b80976110ad6110a88960135461262f565b601355565b556134ea565b826110dc575b5191825260208201929092529081906040820190565b0390a26100206001600b55565b6110e68330613566565b80518381527fa14bbe699b05e82496d33230d156aed7aa953754b5bc6578d152aa3d577c6fdd90602090a16110b9565b86516372bf351360e11b8152600490fd5b8451636693c0b160e01b8152600490fd5b60ff915060081c16155f61104c565b8351633682629560e11b8152600490fd5b3303611164575f611014565b835163077d5fb960e01b8152600490fd5b346104665760203660031901126104665761002061119161061f565b3361366e565b34610466575f366003190112610466576020601554604051908152f35b3461046657604080600319360112610466576111ce61061f565b600c549091602435916001600160a01b039081168015610f97573303610f86578316928315610f8657821580156112b9575b610f6c5791610f6791610f5961129d7fe327b247066bdf32cf2493778e3fce4339b69c1e379a3b0dc780779bf67fe1559561128c6112586001600160801b0387169260018060a01b03165f52601c60205260405f2090565b6112728361126d83546001600160801b031690565b612718565b6001600160801b03166001600160801b0319825416179055565b6012546001600160801b0316612718565b6001600160801b03166001600160801b03196012541617601255565b50826112ee6001600160801b036112e08460018060a01b03165f52601c60205260405f2090565b54166001600160801b031690565b10611200565b34610466575f36600319011261046657600c546040516001600160a01b039091168152602090f35b34610466576020366003190112610466576001600160a01b0361133d61061f565b165f52600960205260405f205463ffffffff908181116113635760209160405191168152f35b604490604051906306dfcc6560e41b8252602060048301526024820152fd5b34610466576020366003190112610466576020610b9c6113a061061f565b6001600160a01b03165f9081526020819052604090205490565b34610466575f366003190112610466576020601854604051908152f35b34610466576020366003190112610466576001600160a01b036113f861061f565b165f52601b602052608060405f20600181549101546001600160801b036040519260ff81161515845260ff8160081c161515602085015260101c1660408301526060820152f35b3461046657604036600319011261046657602060ff61148161145f610635565b6004355f52601a845260405f209060018060a01b03165f5260205260405f2090565b54166040519015158152f35b3461046657604080600319360112610466576114a761061f565b600c549091602435916001600160a01b039081168015610f97573303610f86578316928315610f865782158015611565575b610f6c5791610f6791610f5961129d7fd00ba715ae3c46d053c474becf1eac7e6e95a328aa284790d807e1d8a0d9a54595611515853083612e75565b6001600160a01b03165f908152601c602052604090206001600160801b03851690611554906112728361154f83546001600160801b031690565b6126fd565b6012546001600160801b03166126fd565b506001600160a01b0381165f908152602081905260409020839054106114d9565b34610466576020366003190112610466576001600160a01b036115a761061f565b165f526007602052602060405f2054604051908152f35b3461046657602036600319011261046657600e54600435906001600160a01b031680611627575b600f80549083905560408051918252602082018490527f9c9b85b44c3f57e8968e60b806f2fdac5ccdb819a9eb784900cc23cbf804516791908190810161073b565b33036107df575f6115e5565b34610466575f366003190112610466576116cc61166f7f0000000000000000000000000000000000000000000000000000000000000000614053565b6116987f0000000000000000000000000000000000000000000000000000000000000000614151565b604051906116a582611c5a565b5f82526116da602091604051958695600f60f81b875260e0602088015260e08701906104ed565b9085820360408701526104ed565b4660608501523060808501525f60a085015283810360c0850152602080845192838152019301915f5b82811061171257505050500390f35b835185528695509381019392810192600101611703565b34610466576040806003193601126104665761174361061f565b600c549091602435916001600160a01b039081168015610f97573303610f86578316928315610f8657821580156117e7575b610f6c5791610f6791610f59610f3e7f3356fc2afc21a405a1995355aed4bcb93f799b0b103e3c32c6035e9158dc3488956117dc6117cd6001600160801b0387169260018060a01b03165f52601c60205260405f2090565b610f138361126d835460801c90565b60125460801c612718565b506001600160a01b0381165f908152601c6020526040902054839060801c10611775565b34610466576020366003190112610466576118276004356134a9565b600a54905f829160058411611879575b6118419350613e3e565b8061185257506040515f8152602090f35b61185d602091612621565b600a5f525f8051602061474e833981519152015460301c610c02565b919261188481613d13565b81039081116104e85761184193600a5f5265ffffffffffff80835f8051602061474e833981519152015416908516105f146118c0575091611837565b9291506118cc90612695565b90611837565b34610466575f36600319011261046657602060ff600e5460a01c166040519015158152f35b34610466575f36600319011261046657602061191243613ce1565b65ffffffffffff60405191168152f35b34610466575f366003190112610466576040515f6004546119428161263c565b808452906020906001908181169081156105f5575060011461196e576105988561058c81870382611cab565b60045f90815293507f8a35acfbc15ff81a39ae7d344fd709f28e8600b4aa8c65c6b64bfe7fe36bd19b5b8385106119b45750505050810160200161058c8261059861057c565b8054868601840152938201938101611998565b34610466575f366003190112610466575f60606040516119e681611c24565b828152826020820152826040820152015261059847611a0760115460801c90565b60125460801c611a2f6001600160801b0380931692611a26848661262f565b9216809261262f565b91611a38611ccc565b84815260208082019283526040808301948552606092830195865280519687529251908601529151908401529051908201529081906080820190565b3461046657604036600319011261046657611a8d61061f565b611a95610635565b600e5490916001600160a01b0391821680611b4e575b5060ff600d5460a01c16611b3c578116918215610db957826bffffffffffffffffffffffff60a01b600c541617600c551690611b038260018060a01b03166bffffffffffffffffffffffff60a01b600d541617600d55565b600d805460ff60a01b1916600160a01b1790557f83de200b1ed6a3409606cc977ec14552eb63af6b7323e3791825056342f2312e5f80a3005b60405163653ce49960e01b8152600490fd5b33036107df575f611aab565b34610466576020366003190112610466576001600160a01b03611b7b61061f565b165f526009602052602060018060d01b03611b9860405f20613733565b16604051908152f35b34610466575f36600319011261046657601154604080516001600160801b038316815260809290921c602083015290f35b346104665760403660031901126104665761069b611bee61061f565b6024359033612e75565b634e487b7160e01b5f52604160045260245ffd5b6001600160401b038111611c1f57604052565b611bf8565b608081019081106001600160401b03821117611c1f57604052565b604081019081106001600160401b03821117611c1f57604052565b602081019081106001600160401b03821117611c1f57604052565b60c081019081106001600160401b03821117611c1f57604052565b60a081019081106001600160401b03821117611c1f57604052565b90601f801991011681019081106001600160401b03821117611c1f57604052565b60405190611cd982611c24565b565b60405190611cd982611c3f565b60405190611cd982611c75565b90604051611d0281611c3f565b91546001600160801b038116835260801c6020830152565b34610466576020366003190112610466576004355f52601960205260e060405f20805490611d4a60018201611cf5565b90600281015460ff60038301541690611d8d60056004850154940154946040519687526020870190602090816001600160801b0391828151168552015116910152565b60608501521515608084015260a083015260c0820152f35b34610466575f366003190112610466576020610b9c612786565b34610466575f366003190112610466576020601454604051908152f35b6064359060ff8216820361046657565b6084359060ff8216820361046657565b346104665760c036600319011261046657611e1561061f565b60443590602435611e24611ddc565b834211611eac57611ea061002094611ea7926040519060208201927fe48329057bfd03d55e49b547132e39cffd9c1820ad7b9d4c5307691425d15adf845260018060a01b0388166040840152866060840152608083015260808252611e8882611c90565b611e9b60a43593608435935190206137cb565b6137f1565b9182613809565b61366e565b604051632341d78760e11b815260048101859052602490fd5b3461046657602036600319011261046657611ede61061f565b600c546001600160a01b039081168015612008573303610db9578116908115610db9576001600160a01b0381165f908152601b6020526040902090611f2b611f27835460ff1690565b1590565b15611ffe57815460101c6001600160801b03168015611fec57611f4d90612674565b4210611fda57611fbf82611fb560017f4923eb765bbfdcb92d06db224c77f6826606231d7bee79a6d0668c3c0988895c9501548094611f916110a88360135461262f565b6001600160a01b0381165f908152601b602052604081208181556001015530612e75565b5460081c60ff1690565b60408051911515825260208201929092529081908101610f67565b604051631441f76b60e31b8152600490fd5b6040516310818add60e31b8152600490fd5b61002092506134ea565b60405163bb4b979b60e01b8152600490fd5b34610466575f366003190112610466576020601754604051908152f35b34610466575f3660031901126104665760206301e133807f0000000000000000000000000000000000000000000000000000000000000000420304610b9c565b346104665760e03660031901126104665761209061061f565b612098610635565b604435906064356120a7611dec565b814211612191576001600160a01b038581165f8181526007602090815260409182902080546001810190915582517f6e71edae12b1b97f4d1f60370fef10105fa2faae0126114a169c64845d6126c99281019283529283019390935292861660608201526080810187905260a081019190915260c08082019490945292835261214a92909161213760e083611cab565b611e9b60c4359360a435935190206137cb565b6001600160a01b0384811690821603612167575061002092613b14565b6040516325c0072360e11b81526001600160a01b0391821660048201529084166024820152604490fd5b60405163313c898160e11b815260048101839052602490fd5b34610466576040366003190112610466576121c361061f565b602435801515810361046657600c546001600160a01b03168015612008573303610db957610020916127cb565b3461046657604036600319011261046657602061223e61220e61061f565b612216610635565b6001600160a01b039182165f9081526001855260408082209290931681526020919091522090565b54604051908152f35b34610466575f366003190112610466576020601354604051908152f35b346104665760203660031901126104665761227d61061f565b600e549060ff8260a01c166122e0576001600160a01b0316908115610db95760ff60a01b1982166001600160a81b031990911617600160a01b17600e557f8aad84fcad50e723fa3bcf0fb32c5bea4c71078b77b9aedfa638f146f3a3f7b95f80a2005b60405163271270ff60e01b8152600490fd5b34610466575f36600319011261046657600d546040516001600160a01b039091168152602090f35b34610466575f36600319011261046657602060ff600d5460a01c166040519015158152f35b346104665760403660031901126104665761235861061f565b6024359063ffffffff8216820361046657610598916123a7916123796128dd565b506123826128dd565b506001600160a01b03165f9081526009602052604090206123a16128dd565b5061433b565b50604051906123b582611c3f565b5465ffffffffffff811680835260309190911c60209283019081526040805192835290516001600160d01b031692820192909252918291820190565b34610466575f366003190112610466576020601054604051908152f35b346104665760203660031901126104665761242761061f565b61242f6128dd565b5060018060a01b03165f52601c602052604061244c815f20611cf5565b61246e82518092602090816001600160801b0391828151168552015116910152565bf35b34610466575f366003190112610466576020600f54604051908152f35b34610466575f36600319011261046657600e546001600160a01b0316806124d7575b506124b8612e52565b601754620e10008110156109145761086f6124d282612731565b601755565b33036107df575f6124af565b34610466575f36600319011261046657601254604080516001600160801b038316815260809290921c602083015290f35b6001600160401b038111611c1f5760051b60200190565b604090606319011261046657606490565b346104665760c0366003190112610466576044356001600160401b03811161046657366023820112156104665780600401359061257882612514565b906125866040519283611cab565b8282526020926024602084019160051b8301019136831161046657602401905b8282106125ce57610020846125ba3661252b565b6125c261064b565b916024356004356128f5565b8480916125da84610661565b8152019101906125a6565b34610466575f36600319011261046657600e546040516001600160a01b039091168152602090f35b634e487b7160e01b5f52601160045260245ffd5b5f198101919082116104e857565b919082039182116104e857565b90600182811c9216801561266a575b602083101461265657565b634e487b7160e01b5f52602260045260245ffd5b91607f169161264b565b9062278d0082018092116104e857565b906302d5190082018092116104e857565b90600182018092116104e857565b919082018092116104e857565b81156126ba570490565b634e487b7160e01b5f52601260045260245ffd5b6040513d5f823e3d90fd5b634e487b7160e01b5f52603260045260245ffd5b9190811015610db45760051b0190565b9190916001600160801b03808094169116019182116104e857565b6001600160801b0391821690821603919082116104e857565b908160011b91808304600214901517156104e857565b906005820291808304600514901517156104e857565b90600a820291808304600a14901517156104e857565b818102929181159184041417156104e857565b620384006127c76127be6301e133807f000000000000000000000000000000000000000000000000000000000000000042030461375b565b60175490612773565b0490565b6001600160a01b038116918215610db95780156128d457600f54905b6001600160a01b0383165f908152602081905260409020829054106128c2576001600160a01b0383165f908152601b6020526040902092612829845460ff1690565b6128b0578261289491816001876128687fd282563949681e6cfdb94fd670bbab7a4b30fafa6b5da45661f03e04685d75ab99600160ff19825416179055565b805461ff00191687151560081b61ff0016178155015561288d6110a8836013546126a3565b3090612e75565b604080519115158252602082019290925290819081015b0390a2565b6040516339ae9ed160e21b8152600490fd5b60405163e1c399a560e01b8152600490fd5b601054906127e7565b604051906128ea82611c3f565b5f6020838281520152565b600c5490949392906001600160a01b03168015612008573303610db95761291a612e52565b60ff612927825160ff1690565b1615610b0657612992612968602061296161294f612943612786565b61295b61294f8a612d5b565b6001600160801b031690565b906126a3565b9501612d5b565b612982612973611cdb565b6001600160801b039096168652565b6001600160801b03166020850152565b6001600160801b036129ae60208501516001600160801b031690565b168015159081612d51575b506128c257612b70947f0aaf6549779ef42fddc20bd28c3cd20c8e59d204a284de7da0eb6f80d00fa8946129826129f1601654612d6f565b809681946129fe83601655565b612a2761294f612a20612a1b61294f86516001600160801b031690565b612747565b6064900490565b91612a65612a4b61294f612a20612a1b61294f60208701516001600160801b031690565b612a53611cdb565b96879586906001600160801b03169052565b612a8761294f612a20612a8261294f85516001600160801b031690565b61275d565b98612ad5612aab61294f612a20612a8261294f60208801516001600160801b031690565b612ac5612ab6611cdb565b6001600160801b03909d168d52565b6001600160801b031660208c0152565b8981612b7a575b5050600e54612b2b94506001600160a01b03169250612af9915050565b82516001600160801b0316906001600160801b0380612b2260208701516001600160801b031690565b1692169061385e565b612b506020612b4183516001600160801b031690565b9201516001600160801b031690565b604080516001600160801b039384168152919092166020820152a26139cd565b611cd96001600b55565b612cc6612cec92612c8c612caa612c9987612c8c8a612c878e612c157ff352171dfced38c74ab597e5a5447272758c10820c878b8f9cb2bbd4385c45849f612bf06020612b41612cd19f612bf083612b4181612c068f612be4612bf691516001600160801b031690565b87516001600160801b03165b90612718565b8a516001600160801b0316612bf0565b9e01516001600160801b031690565b98612c30612c21611cdb565b6001600160801b039097168752565b612c47602087019a8b906001600160801b03169052565b60165490612c53611ce8565b9485528660208601526040850152612c6e6060850160019052565b42608085015260a08401525f52601960205260405f2090565b612d7d565b516001600160801b031690565b6011546001600160801b03166126fd565b6001600160801b03166001600160801b03196011541617601155565b60115460801c6126fd565b6001600160801b036011549181199060801b16911617601155565b612d43612d146020612d0584516001600160801b031690565b9301516001600160801b031690565b604080519485526001600160801b03938416602086015292169183019190915242606083015281906080820190565b0390a282815f808089612adc565b905047105f6129b9565b356001600160801b03811681036104665790565b5f1981146104e85760010190565b9060a060059180518455612de260018501602083015160206001600160801b0391612dc18382511685906001600160801b03166001600160801b0319825416179055565b015182546001600160801b0316911660801b6001600160801b031916179055565b60408101516002850155600384016060820151151560ff80198354169116179055608081015160048501550151910155565b6014543481018091116104e8576014556040513481527f6c703791f399558807424f489ccd811c72b4ff0b74af547264fad7c646776df060203392a2565b6002600b5414612e63576002600b55565b604051633ee5aeb560e01b8152600490fd5b6001600160a01b0380821694939291908515612f685782168015612f50576001600160a01b0382165f9081526020819052604090205495848710612f215784611cd9969703612ed38460018060a01b03165f525f60205260405f2090565b556001600160a01b0384165f908152602081815260409182902080548801905590518681527fddf252ad1be2c89b69c2b068fc378daa952ba7f163c4a11628f55a4df523b3ef9190a3614494565b60405163391434e360e21b81526001600160a01b03841660048201526024810188905260448101869052606490fd5b60405163ec442f0560e01b81525f6004820152602490fd5b604051634b637e8f60e11b81525f6004820152602490fd5b9060405160c081018181106001600160401b03821117611c1f5760405260a06005829480548452612fb360018201611cf5565b60208501526002810154604085015260ff60038201541615156060850152600481015460808501520154910152565b9291612fed82612514565b91612ffb6040519384611cab565b829481845260208094019160051b810192831161046657905b8282106130215750505050565b81358152908301908301613014565b3d15613069573d906001600160401b038211611c1f576040519161305e601f8201601f191660200184611cab565b82523d5f602084013e565b606090565b929093919361308d613088825f52601960205260405f2090565b612f80565b9161309e611f276060850151151590565b61337d576130d76130d0866130bb855f52601a60205260405f2090565b9060018060a01b03165f5260205260405f2090565b5460ff1690565b61336b576130e86080840151612684565b42116133595760a0830151604080516001600160a01b038816602082019081528183018a9052606080830194909452928152909561314993611f279390926131449190613136608082611cab565b519020928751923691612fe2565b613be5565b6133485761316084915f52601a60205260405f2090565b6001600160a01b039091165f90815260209190915260409020805460ff19166001179055818101519060200193818186516020016131a6906001600160801b0390511690565b6001600160801b0316906131b991612773565b906131c3916126b0565b6001600160801b03169451516001600160801b03166001600160801b0316906131eb91612773565b906131f5916126b0565b6001600160801b03166001600160801b038481169182151591828061333f575b61332e5761322c612cd18861126d60115460801c90565b613245612caa8361126d6011546001600160801b031690565b8116806132dc575b505061325a575b50505050565b5f80808361327361326e83966015546126a3565b601555565b865af161327e613030565b50156132cc57516001600160801b039290921682526001600160a01b0316907fd47529329a0e6a3a4d8321064e299cc377b5a846bf6c5a0e261f2b29f2cc1ecf90602090a25f808080613254565b51630414e46960e21b8152600490fd5b6132e69086613c36565b83516001600160801b039190911681526001600160a01b038516907ff717aae6ba7053fb1ceb6012f0b2d339fa867c054ad6823ce040d1860806d60390602090a25f8061324d565b845163e1c399a560e01b8152600490fd5b50834710613215565b825163676bf8dd60e01b8152600490fd5b6040516323772e2560e21b8152600490fd5b604051633b5bf5d560e01b8152600490fd5b604051633582183360e11b8152600490fd5b307f00000000000000000000000000000000000000000000000000000000000000006001600160a01b03161480613480575b156133ea577f000000000000000000000000000000000000000000000000000000000000000090565b60405160208101907f8b73c3c69bb8fe3d512ecc4cf759cc79239f7b179b0ffacaa9a75d522b39400f82527f000000000000000000000000000000000000000000000000000000000000000060408201527f000000000000000000000000000000000000000000000000000000000000000060608201524660808201523060a082015260a0815261347a81611c75565b51902090565b507f000000000000000000000000000000000000000000000000000000000000000046146133c1565b65ffffffffffff6134b943613ce1565b16808210156134cc575061053c90613ce1565b6044925060405191637669fc0f60e11b835260048301526024820152fd5b815471ffffffffffffffffffffffffffffffff00ff191642601090811b71ffffffffffffffffffffffffffffffff000016919091179283905560405192901c6001600160801b031682526001600160a01b0316907f77635f8f13ee1a01d11246347c649817c6ee9fa7620ce4c6adfa2452bfa162b290602090a2565b91906001600160a01b038084168015612f68576001600160a01b0385165f908152602081905260409020549483861061363d576135b984611cd99697039160018060a01b03165f525f60205260405f2090565b5582600254036002555f817fddf252ad1be2c89b69c2b068fc378daa952ba7f163c4a11628f55a4df523b3ef6020604051878152a36135ff6135fa84614350565b6143ea565b50505f908152600860205260408120549080527f5eff886ea0ce6ca488a3d6e336d6c0f75f46d19b42c06ce5ee98e42c96d256c75482169116613f03565b60405163391434e360e21b81526001600160a01b039190911660048201526024810186905260448101849052606490fd5b6001600160a01b038181165f81815260086020526040812080548685166001600160a01b031982168117909255611cd9969416946136e99390928691907f3134e8a2e6d97e929a7e54011ea5485d7d196dd5f0ba4d4ef95803e8e3fc257f9080a46001600160a01b03165f9081526020819052604090205490565b91613f03565b600a54806136fc57505f90565b805f198101116104e857600a5f527fc65a7bb8d6351c1cf70c95a316cc6a92839c986682d98bc35f958f4883f9d2a7015460301c90565b8054806137405750505f90565b5f199181838101116104e8575f5260205f2001015460301c90565b80156137bc57694c3ba39c5e4111000000905f905b80821061377c57505090565b909161012c908181029181830414901517156104e8576101f49004916905b12aefafa804000000808411156137b5575060010190613770565b9250505090565b50694c3ba39c5e411100000090565b6042906137d661338f565b906040519161190160f01b8352600283015260228201522090565b9161053c93916138009361420e565b909291926142ae565b6001600160a01b0381165f9081526007602052604090208054600181019091559091819003613836575050565b6040516301d4b62360e61b81526001600160a01b039092166004830152602482015260449150fd5b9082151590818061394d575b6128c257806138fb575b5061387d575050565b61388c61326e836015546126a3565b5f80808085855af161389c613030565b50156138e9576040516001600160801b039290921682526001600160a01b0316907fd47529329a0e6a3a4d8321064e299cc377b5a846bf6c5a0e261f2b29f2cc1ecf9080602081016128ab565b604051630414e46960e21b8152600490fd5b6139058184613c36565b6040516001600160801b039190911681526001600160a01b038316907ff717aae6ba7053fb1ceb6012f0b2d339fa867c054ad6823ce040d1860806d60390602090a25f613874565b5083471061386a565b8051821015610db45760209160051b010190565b9190939293606083019060608452805180925260808401916020809201915f5b8281106139b0575050505090604091946001600160801b03809216602085015216910152565b83516001600160a01b03168552938101939281019260010161398a565b9091926139db825160ff1690565b906139f061294f85516001600160801b031690565b9160ff613a0a61294f60208801516001600160801b031690565b911691613a1783856126b0565b93613a44613a39613a2886866126b0565b92613a338789612773565b9061262f565b93613a338684612773565b905f5b858110613aac5750505050505050907fb51a41382edfd0798f2ed160e2936e3327b0be1c4d536bb8bba6dc0e09bcdca5916128ab613aa06020613a9185516001600160801b031690565b9401516001600160801b031690565b6040519384938461396a565b613ac6613ab9828a613956565b516001600160a01b031690565b6001600160a01b038082169291908315610db957600193613af1928b9187938a1614613af75761385e565b01613a47565b915050613b04888b6126a3565b613b0e87876126a3565b9161385e565b6001600160a01b038082169291908315613b95578216938415613b7d5780613b737f8c5be1e5ebec7d5bd14f71427d1e84f3dd0314c0f7b2291e5b200ac8c7c3b925946130bb60209560018060a01b03165f52600160205260405f2090565b55604051908152a3565b604051634a1406b160e11b81525f6004820152602490fd5b60405163e602df0560e01b81525f6004820152602490fd5b906001600160a01b0380831615613b9557811615613b7d576130bb613be29260018060a01b03165f52600160205260405f2090565b55565b929091905f915b8451831015613c2e57613bff8386613956565b519081811015613c1d575f52602052600160405f205b920191613bec565b905f52602052600160405f20613c15565b915092501490565b91906001600160a01b0383168015612f50576002548281018091116104e8576002556001600160a01b0384165f90815260208181526040808320805486019055518481527fddf252ad1be2c89b69c2b068fc378daa952ba7f163c4a11628f55a4df523b3ef9190a3600254926001600160d01b038411613cbb57611cd992935061441c565b604051630e58ae9360e11b8152600481018590526001600160d01b036024820152604490fd5b65ffffffffffff90818111613cf4571690565b604490604051906306dfcc6560e41b8252603060048301526024820152fd5b600181111561053c57600181600160801b811015613e2c575b613dd4613dca613dc0613db6613dac613da2613de097600488600160401b613ddb9a1015613e1f575b640100000000811015613e12575b62010000811015613e05575b610100811015613df9575b6010811015613ded575b1015613de5575b60030260011c613d9b818b6126b0565b0160011c90565b613d9b818a6126b0565b613d9b81896126b0565b613d9b81886126b0565b613d9b81876126b0565b613d9b81866126b0565b80936126b0565b821190565b900390565b60011b613d8b565b811c9160021b91613d84565b60081c91811b91613d7a565b60101c9160081b91613d6f565b60201c9160101b91613d63565b60401c9160201b91613d55565b50600160401b9050608082901c613d2c565b905b828110613e4c57505090565b90918082169080831860011c82018092116104e857600a5f5265ffffffffffff80835f8051602061474e833981519152015416908516105f14613e925750915b90613e40565b929150613e9e90612695565b90613e8c565b91905b838210613eb45750505090565b9091928083169080841860011c82018092116104e857845f5265ffffffffffff808360205f20015416908416105f14613ef15750925b9190613ea7565b939250613efd90612695565b91613eea565b6001600160a01b0380831693929190811690818514158061404a575b613f2b575b5050505050565b81613faf575b505082613f40575b8080613f24565b6001600160a01b03165f9081526009602052604090207fdec2bacdd2f05b59de34da9b523dff8be42e5e38e818c82fdb0bae774387a72491613f8c91613f869091614350565b90614383565b604080516001600160d01b039384168152919092166020820152a25f8080613f39565b6001600160a01b03165f908152600960205260409020613fce84614350565b613fd743613ce1565b6001600160d01b03918280613feb86613733565b1691169003928284116104e8577fdec2bacdd2f05b59de34da9b523dff8be42e5e38e818c82fdb0bae774387a724936140409261402792614693565b6040805192851683529316602082015291829190820190565b0390a25f80613f31565b50831515613f1f565b60ff81146140915760ff811690601f821161407f576040519161407583611c3f565b8252602082015290565b604051632cd44ac360e21b8152600490fd5b50604051600554815f6140a38361263c565b8083529260209060019081811690811561412d57506001146140ce575b505061053c92500382611cab565b91509260055f527f036b6384b5eca791c62761152d0c79bb0604c104a5fb6f4eb0703f3154bb3db0935f925b828410614115575061053c9450505081016020015f806140c0565b855487850183015294850194869450928101926140fa565b9150506020925061053c94915060ff191682840152151560051b8201015f806140c0565b60ff81146141735760ff811690601f821161407f576040519161407583611c3f565b50604051600654815f6141858361263c565b8083529260209060019081811690811561412d57506001146141af57505061053c92500382611cab565b91509260065f527ff652222313e28459528d920b65115c16c04f3efc82aaedc97be59f3f377c0d3f935f925b8284106141f6575061053c9450505081016020015f806140c0565b855487850183015294850194869450928101926141db565b91907f7fffffffffffffffffffffffffffffff5d576e7357a4501ddfe92f46681b20a08411614285579160209360809260ff5f9560405194855216868401526040830152606082015282805260015afa1561090f575f516001600160a01b0381161561427b57905f905f90565b505f906001905f90565b5050505f9160039190565b6004111561429a57565b634e487b7160e01b5f52602160045260245ffd5b6142b781614290565b806142c0575050565b6142c981614290565b600181036142e35760405163f645eedf60e01b8152600490fd5b6142ec81614290565b6002810361430d5760405163fce698f760e01b815260048101839052602490fd5b80614319600392614290565b146143215750565b6040516335e2f38360e21b81526004810191909152602490fd5b8054821015610db4575f5260205f2001905f90565b6001600160d01b0390818111614364571690565b604490604051906306dfcc6560e41b825260d060048301526024820152fd5b9061438d43613ce1565b6001600160d01b039182806143a186613733565b169116019182116104e8576143b592614693565b9091565b6143c243613ce1565b906001600160d01b039081806143d66136ef565b169116019081116104e8576143b5916145ad565b6143f343613ce1565b906001600160d01b039081806144076136ef565b16911690039081116104e8576143b5916145ad565b90611cd99161443261442d83614350565b6143b9565b50506001600160a01b03908116908115614481575b60086020527f5eff886ea0ce6ca488a3d6e336d6c0f75f46d19b42c06ce5ee98e42c96d256c7545f92835260409092205481169116613f03565b61448d6135fa84614350565b5050614447565b611cd992916001600160a01b039182169190819083156144e8575b169182156144d5575b5f5260086020528060405f205416915f5260405f20541690613f03565b6144e16135fa85614350565b50506144b8565b6144f461442d86614350565b50506144af565b600a5490600160401b821015611c1f576001820180600a55821015610db457600a5f52805160209091015160301b65ffffffffffff191665ffffffffffff91909116175f8051602061474e83398151915290910155565b8054600160401b811015611c1f5761456f9160018201815561433b565b61459a57815160209092015160301b65ffffffffffff191665ffffffffffff92909216919091179055565b634e487b7160e01b5f525f60045260245ffd5b600a54919291801561466a576145c56145db91612621565b600a5f525f8051602061474e8339815191520190565b9081549165ffffffffffff90818416918316808311614658578692036146205761461992509065ffffffffffff82549181199060301b169116179055565b60301c9190565b50506146539061463f614631611cdb565b65ffffffffffff9092168252565b6001600160d01b03851660208201526144fb565b614619565b604051632520601d60e01b8152600490fd5b5061468e9061467a614631611cdb565b6001600160d01b03841660208201526144fb565b5f9190565b80549293928015614728576146aa6146b591612621565b825f5260205f200190565b9182549265ffffffffffff91828516928116808411614658578793036146f4575061461992509065ffffffffffff82549181199060301b169116179055565b91505061465391614714614706611cdb565b65ffffffffffff9093168352565b6001600160d01b0386166020830152614552565b509061468e91614739614706611cdb565b6001600160d01b038516602083015261455256fec65a7bb8d6351c1cf70c95a316cc6a92839c986682d98bc35f958f4883f9d2a8a264697066735822122049b01706d81a8b56ad1b1928ad2286ee1889c1cd028481a415541feef698b21264736f6c63430008160033c65a7bb8d6351c1cf70c95a316cc6a92839c986682d98bc35f958f4883f9d2a8dec2bacdd2f05b59de34da9b523dff8be42e5e38e818c82fdb0bae774387a724","linkReferences":{}},"methodIdentifiers":{"CLOCK_MODE()":"4bf5d7e9","DOMAIN_SEPARATOR()":"3644e515","allowance(address,address)":"dd62ed3e","approve(address,uint256)":"095ea7b3","balanceOf(address)":"70a08231","batchClaimMerkleRewards(uint256[],uint256[],bytes32[][])":"4b667916","batchCleanupExpiredDistributions(uint256[])":"2644439a","checkpoints(address,uint32)":"f1127ed8","claimMerkleRewards(uint256,uint256,bytes32[])":"2e54575d","cleanupExpiredDistribution(uint256)":"11180951","clock()":"91ddadf4","createMerkleDistribution(bytes32,uint256,address[],(uint128,uint128),address)":"f91c67ed","decimals()":"313ce567","delegate(address)":"5c19a95c","delegateBySig(address,uint256,uint256,uint8,bytes32,bytes32)":"c3cda520","delegates(address)":"587cde1e","doubleDistributionInterval()":"f721ed12","eip712Domain()":"84b0196e","escrowEthPayment(address,uint256)":"53803211","escrowPayment(address,uint256)":"7855328f","getCurrentEra()":"d250b6cb","getEmissionRate()":"c0a77da9","getEscrowedPayments(address)":"f63b7738","getEthBreakdown()":"96169017","getLockInfo(address)":"7238ccdb","getPastTotalSupply(uint256)":"8e539e8c","getPastVotes(address,uint256)":"3a46b1a8","getSmartnodesCore()":"714bd915","getSupplyBreakdown()":"01277591","getVotes(address)":"9ab24eb0","halveDistributionInterval()":"1f763531","isLocked(address)":"4a4fbeec","lockTokens(address,bool)":"dc8bde81","name()":"06fdde03","nonces(address)":"7ecebe00","numCheckpoints(address)":"6fcfff45","permit(address,address,uint256,uint256,uint8,bytes32,bytes32)":"d505accf","releaseEscrowedEthPayment(address,uint256)":"8b1297e0","releaseEscrowedPayment(address,uint256)":"601c438d","s_claimed(uint256,address)":"77bea8c5","s_coreSet()":"f0c0189a","s_currentDistributionId()":"1342c727","s_dao()":"fd4f19ea","s_daoSet()":"918a93d1","s_distributionInterval()":"d25074cf","s_distributions(uint256)":"addfbd76","s_escrowedPayments(address)":"243f72b3","s_lastDistributionTime()":"70e2709a","s_lockedTokens(address)":"8109fff1","s_smartnodesCoordinator()":"ec5188b5","s_smartnodesCore()":"6b451ba9","s_totalETHDeposited()":"c2227ac7","s_totalETHWithdrawn()":"5dc437e3","s_totalEscrowed()":"f76dfeac","s_totalLocked()":"e21f2df8","s_totalUnclaimed()":"9fb40413","s_userLockAmount()":"f1a9e631","s_validatorLockAmount()":"f6a89727","setDAO(address)":"e73a914c","setSmartnodes(address,address)":"9a3e13f0","setUserLockAmount(uint256)":"12bc9f8c","setValidatorLockAmount(uint256)":"8180c1c2","slashAndUnlockValidator(address,uint256)":"59bfafad","symbol()":"95d89b41","totalSupply()":"18160ddd","transfer(address,uint256)":"a9059cbb","transferFrom(address,address,uint256)":"23b872dd","unlockTokens(address)":"cb67f948"},"id":56}