{
  "abi": [
    {
      "anonymous": false,
      "inputs": [
        {
          "indexed": true,
          "internalType": "address",
          "name": "owner",
          "type": "address"
        },
        {
          "indexed": true,
          "internalType": "address",
          "name": "spender",
          "type": "address"
        },
        {
          "indexed": false,
          "internalType": "uint256",
          "name": "value",
          "type": "uint256"
        }
      ],
      "name": "Approval",
      "type": "event"
    },
    {
      "anonymous": false,
      "inputs": [
        {
          "indexed": true,
          "internalType": "uint256",
          "name": "jobId",
          "type": "uint256"
        },
        {
          "indexed": false,
          "internalType": "uint256",
          "name": "timestamp",
          "type": "uint256"
        }
      ],
      "name": "JobCompleted",
      "type": "event"
    },
    {
      "anonymous": false,
      "inputs": [
        {
          "indexed": true,
          "internalType": "uint256",
          "name": "jobId",
          "type": "uint256"
        },
        {
          "indexed": false,
          "internalType": "uint256",
          "name": "timestamp",
          "type": "uint256"
        }
      ],
      "name": "JobDisputed",
      "type": "event"
    },
    {
      "anonymous": false,
      "inputs": [
        {
          "indexed": true,
          "internalType": "uint256",
          "name": "jobId",
          "type": "uint256"
        },
        {
          "indexed": false,
          "internalType": "uint256",
          "name": "timestamp",
          "type": "uint256"
        },
        {
          "indexed": false,
          "internalType": "address[]",
          "name": "seedValidators",
          "type": "address[]"
        }
      ],
      "name": "JobRequested",
      "type": "event"
    },
    {
      "anonymous": false,
      "inputs": [
        {
          "indexed": true,
          "internalType": "address",
          "name": "validator",
          "type": "address"
        },
        {
          "indexed": false,
          "internalType": "uint256",
          "name": "amount",
          "type": "uint256"
        }
      ],
      "name": "TokensLocked",
      "type": "event"
    },
    {
      "anonymous": false,
      "inputs": [
        {
          "indexed": true,
          "internalType": "address",
          "name": "validator",
          "type": "address"
        },
        {
          "indexed": false,
          "internalType": "uint256",
          "name": "amount",
          "type": "uint256"
        }
      ],
      "name": "TokensUnlocked",
      "type": "event"
    },
    {
      "anonymous": false,
      "inputs": [
        {
          "indexed": true,
          "internalType": "address",
          "name": "from",
          "type": "address"
        },
        {
          "indexed": true,
          "internalType": "address",
          "name": "to",
          "type": "address"
        },
        {
          "indexed": false,
          "internalType": "uint256",
          "name": "value",
          "type": "uint256"
        }
      ],
      "name": "Transfer",
      "type": "event"
    },
    {
      "anonymous": false,
      "inputs": [
        {
          "indexed": true,
          "internalType": "address",
          "name": "validator",
          "type": "address"
        },
        {
          "indexed": false,
          "internalType": "uint256",
          "name": "unlockTime",
          "type": "uint256"
        }
      ],
      "name": "UnlockInitiated",
      "type": "event"
    },
    {
      "inputs": [],
      "name": "MAX_SUPPLY",
      "outputs": [
        {
          "internalType": "uint256",
          "name": "",
          "type": "uint256"
        }
      ],
      "stateMutability": "view",
      "type": "function"
    },
    {
      "inputs": [],
      "name": "activeValidators",
      "outputs": [
        {
          "internalType": "uint256",
          "name": "",
          "type": "uint256"
        }
      ],
      "stateMutability": "view",
      "type": "function"
    },
    {
      "inputs": [
        {
          "internalType": "address",
          "name": "owner",
          "type": "address"
        },
        {
          "internalType": "address",
          "name": "spender",
          "type": "address"
        }
      ],
      "name": "allowance",
      "outputs": [
        {
          "internalType": "uint256",
          "name": "",
          "type": "uint256"
        }
      ],
      "stateMutability": "view",
      "type": "function"
    },
    {
      "inputs": [
        {
          "internalType": "address",
          "name": "spender",
          "type": "address"
        },
        {
          "internalType": "uint256",
          "name": "amount",
          "type": "uint256"
        }
      ],
      "name": "approve",
      "outputs": [
        {
          "internalType": "bool",
          "name": "",
          "type": "bool"
        }
      ],
      "stateMutability": "nonpayable",
      "type": "function"
    },
    {
      "inputs": [
        {
          "internalType": "address",
          "name": "account",
          "type": "address"
        }
      ],
      "name": "balanceOf",
      "outputs": [
        {
          "internalType": "uint256",
          "name": "",
          "type": "uint256"
        }
      ],
      "stateMutability": "view",
      "type": "function"
    },
    {
      "inputs": [
        {
          "internalType": "uint256",
          "name": "jobId",
          "type": "uint256"
        },
        {
          "internalType": "address[]",
          "name": "_workers",
          "type": "address[]"
        }
      ],
      "name": "completeJob",
      "outputs": [
        {
          "internalType": "uint256[]",
          "name": "",
          "type": "uint256[]"
        }
      ],
      "stateMutability": "nonpayable",
      "type": "function"
    },
    {
      "inputs": [
        {
          "internalType": "bytes32",
          "name": "_publicKeyHash",
          "type": "bytes32"
        }
      ],
      "name": "createUser",
      "outputs": [],
      "stateMutability": "nonpayable",
      "type": "function"
    },
    {
      "inputs": [
        {
          "internalType": "bytes32",
          "name": "_publicKeyHash",
          "type": "bytes32"
        },
        {
          "internalType": "uint256",
          "name": "_lockAmount",
          "type": "uint256"
        }
      ],
      "name": "createValidator",
      "outputs": [],
      "stateMutability": "nonpayable",
      "type": "function"
    },
    {
      "inputs": [],
      "name": "decimals",
      "outputs": [
        {
          "internalType": "uint8",
          "name": "",
          "type": "uint8"
        }
      ],
      "stateMutability": "view",
      "type": "function"
    },
    {
      "inputs": [
        {
          "internalType": "address",
          "name": "spender",
          "type": "address"
        },
        {
          "internalType": "uint256",
          "name": "subtractedValue",
          "type": "uint256"
        }
      ],
      "name": "decreaseAllowance",
      "outputs": [
        {
          "internalType": "bool",
          "name": "",
          "type": "bool"
        }
      ],
      "stateMutability": "nonpayable",
      "type": "function"
    },
    {
      "inputs": [
        {
          "internalType": "uint256",
          "name": "jobId",
          "type": "uint256"
        }
      ],
      "name": "disputeJob",
      "outputs": [],
      "stateMutability": "nonpayable",
      "type": "function"
    },
    {
      "inputs": [],
      "name": "emissionRate",
      "outputs": [
        {
          "internalType": "uint256",
          "name": "",
          "type": "uint256"
        }
      ],
      "stateMutability": "view",
      "type": "function"
    },
    {
      "inputs": [],
      "name": "getActiveValidatorCount",
      "outputs": [
        {
          "internalType": "uint256",
          "name": "",
          "type": "uint256"
        }
      ],
      "stateMutability": "view",
      "type": "function"
    },
    {
      "inputs": [],
      "name": "getEmissionRate",
      "outputs": [
        {
          "internalType": "uint256",
          "name": "",
          "type": "uint256"
        }
      ],
      "stateMutability": "view",
      "type": "function"
    },
    {
      "inputs": [
        {
          "internalType": "uint256",
          "name": "jobId",
          "type": "uint256"
        }
      ],
      "name": "getJobValidators",
      "outputs": [
        {
          "internalType": "address[]",
          "name": "",
          "type": "address[]"
        }
      ],
      "stateMutability": "view",
      "type": "function"
    },
    {
      "inputs": [],
      "name": "getProposees",
      "outputs": [
        {
          "internalType": "address[]",
          "name": "",
          "type": "address[]"
        }
      ],
      "stateMutability": "view",
      "type": "function"
    },
    {
      "inputs": [],
      "name": "getSupply",
      "outputs": [
        {
          "internalType": "uint256",
          "name": "",
          "type": "uint256"
        }
      ],
      "stateMutability": "view",
      "type": "function"
    },
    {
      "inputs": [],
      "name": "getUserCount",
      "outputs": [
        {
          "internalType": "uint256",
          "name": "",
          "type": "uint256"
        }
      ],
      "stateMutability": "view",
      "type": "function"
    },
    {
      "inputs": [],
      "name": "getValidatorCount",
      "outputs": [
        {
          "internalType": "uint256",
          "name": "",
          "type": "uint256"
        }
      ],
      "stateMutability": "view",
      "type": "function"
    },
    {
      "inputs": [
        {
          "internalType": "uint256",
          "name": "_validatorId",
          "type": "uint256"
        }
      ],
      "name": "getValidatorInfo",
      "outputs": [
        {
          "internalType": "bool",
          "name": "",
          "type": "bool"
        },
        {
          "internalType": "bytes32",
          "name": "",
          "type": "bytes32"
        }
      ],
      "stateMutability": "view",
      "type": "function"
    },
    {
      "inputs": [],
      "name": "halving",
      "outputs": [
        {
          "internalType": "uint256",
          "name": "",
          "type": "uint256"
        }
      ],
      "stateMutability": "view",
      "type": "function"
    },
    {
      "inputs": [
        {
          "internalType": "address",
          "name": "spender",
          "type": "address"
        },
        {
          "internalType": "uint256",
          "name": "addedValue",
          "type": "uint256"
        }
      ],
      "name": "increaseAllowance",
      "outputs": [
        {
          "internalType": "bool",
          "name": "",
          "type": "bool"
        }
      ],
      "stateMutability": "nonpayable",
      "type": "function"
    },
    {
      "inputs": [
        {
          "internalType": "address[]",
          "name": "_leadDevelopers",
          "type": "address[]"
        },
        {
          "internalType": "address",
          "name": "_communityWallet",
          "type": "address"
        }
      ],
      "name": "initialize",
      "outputs": [],
      "stateMutability": "nonpayable",
      "type": "function"
    },
    {
      "inputs": [
        {
          "internalType": "address",
          "name": "validatorAddr",
          "type": "address"
        }
      ],
      "name": "isLocked",
      "outputs": [
        {
          "internalType": "bool",
          "name": "",
          "type": "bool"
        }
      ],
      "stateMutability": "view",
      "type": "function"
    },
    {
      "inputs": [],
      "name": "jobCounter",
      "outputs": [
        {
          "internalType": "uint256",
          "name": "",
          "type": "uint256"
        }
      ],
      "stateMutability": "view",
      "type": "function"
    },
    {
      "inputs": [
        {
          "internalType": "bytes32",
          "name": "",
          "type": "bytes32"
        }
      ],
      "name": "jobIdByUserIdHash",
      "outputs": [
        {
          "internalType": "uint256",
          "name": "",
          "type": "uint256"
        }
      ],
      "stateMutability": "view",
      "type": "function"
    },
    {
      "inputs": [
        {
          "internalType": "uint256",
          "name": "",
          "type": "uint256"
        }
      ],
      "name": "jobs",
      "outputs": [
        {
          "internalType": "uint256",
          "name": "id",
          "type": "uint256"
        },
        {
          "internalType": "address",
          "name": "author",
          "type": "address"
        },
        {
          "internalType": "bool",
          "name": "activity",
          "type": "bool"
        }
      ],
      "stateMutability": "view",
      "type": "function"
    },
    {
      "inputs": [],
      "name": "lockAmount",
      "outputs": [
        {
          "internalType": "uint256",
          "name": "",
          "type": "uint256"
        }
      ],
      "stateMutability": "view",
      "type": "function"
    },
    {
      "inputs": [
        {
          "internalType": "uint256",
          "name": "amount",
          "type": "uint256"
        }
      ],
      "name": "lockTokens",
      "outputs": [],
      "stateMutability": "nonpayable",
      "type": "function"
    },
    {
      "inputs": [],
      "name": "maxValidators",
      "outputs": [
        {
          "internalType": "uint256",
          "name": "",
          "type": "uint256"
        }
      ],
      "stateMutability": "view",
      "type": "function"
    },
    {
      "inputs": [],
      "name": "minValidators",
      "outputs": [
        {
          "internalType": "uint256",
          "name": "",
          "type": "uint256"
        }
      ],
      "stateMutability": "view",
      "type": "function"
    },
    {
      "inputs": [
        {
          "internalType": "address[]",
          "name": "_workers",
          "type": "address[]"
        },
        {
          "internalType": "uint256[]",
          "name": "_workerCapacities",
          "type": "uint256[]"
        },
        {
          "internalType": "uint256",
          "name": "_totalCapacity",
          "type": "uint256"
        },
        {
          "internalType": "address[]",
          "name": "_validatorsVoted",
          "type": "address[]"
        }
      ],
      "name": "mintTokens",
      "outputs": [],
      "stateMutability": "nonpayable",
      "type": "function"
    },
    {
      "inputs": [],
      "name": "name",
      "outputs": [
        {
          "internalType": "string",
          "name": "",
          "type": "string"
        }
      ],
      "stateMutability": "view",
      "type": "function"
    },
    {
      "inputs": [
        {
          "internalType": "uint256[]",
          "name": "_capacities",
          "type": "uint256[]"
        }
      ],
      "name": "requestJob",
      "outputs": [
        {
          "internalType": "uint256[]",
          "name": "validatorIds",
          "type": "uint256[]"
        }
      ],
      "stateMutability": "nonpayable",
      "type": "function"
    },
    {
      "inputs": [
        {
          "internalType": "address",
          "name": "validatorAddress",
          "type": "address"
        }
      ],
      "name": "setValidatorContract",
      "outputs": [],
      "stateMutability": "nonpayable",
      "type": "function"
    },
    {
      "inputs": [],
      "name": "symbol",
      "outputs": [
        {
          "internalType": "string",
          "name": "",
          "type": "string"
        }
      ],
      "stateMutability": "view",
      "type": "function"
    },
    {
      "inputs": [],
      "name": "timeSinceLastHalving",
      "outputs": [
        {
          "internalType": "uint256",
          "name": "",
          "type": "uint256"
        }
      ],
      "stateMutability": "view",
      "type": "function"
    },
    {
      "inputs": [],
      "name": "totalSupply",
      "outputs": [
        {
          "internalType": "uint256",
          "name": "",
          "type": "uint256"
        }
      ],
      "stateMutability": "view",
      "type": "function"
    },
    {
      "inputs": [
        {
          "internalType": "address",
          "name": "to",
          "type": "address"
        },
        {
          "internalType": "uint256",
          "name": "amount",
          "type": "uint256"
        }
      ],
      "name": "transfer",
      "outputs": [
        {
          "internalType": "bool",
          "name": "",
          "type": "bool"
        }
      ],
      "stateMutability": "nonpayable",
      "type": "function"
    },
    {
      "inputs": [
        {
          "internalType": "address",
          "name": "from",
          "type": "address"
        },
        {
          "internalType": "address",
          "name": "to",
          "type": "address"
        },
        {
          "internalType": "uint256",
          "name": "amount",
          "type": "uint256"
        }
      ],
      "name": "transferFrom",
      "outputs": [
        {
          "internalType": "bool",
          "name": "",
          "type": "bool"
        }
      ],
      "stateMutability": "nonpayable",
      "type": "function"
    },
    {
      "inputs": [],
      "name": "unlockPeriod",
      "outputs": [
        {
          "internalType": "uint256",
          "name": "",
          "type": "uint256"
        }
      ],
      "stateMutability": "view",
      "type": "function"
    },
    {
      "inputs": [
        {
          "internalType": "uint256",
          "name": "amount",
          "type": "uint256"
        }
      ],
      "name": "unlockTokens",
      "outputs": [],
      "stateMutability": "nonpayable",
      "type": "function"
    },
    {
      "inputs": [
        {
          "internalType": "address",
          "name": "",
          "type": "address"
        }
      ],
      "name": "userIdByAddress",
      "outputs": [
        {
          "internalType": "uint256",
          "name": "",
          "type": "uint256"
        }
      ],
      "stateMutability": "view",
      "type": "function"
    },
    {
      "inputs": [],
      "name": "userIdCounter",
      "outputs": [
        {
          "internalType": "uint256",
          "name": "",
          "type": "uint256"
        }
      ],
      "stateMutability": "view",
      "type": "function"
    },
    {
      "inputs": [
        {
          "internalType": "uint256",
          "name": "",
          "type": "uint256"
        }
      ],
      "name": "users",
      "outputs": [
        {
          "internalType": "uint256",
          "name": "id",
          "type": "uint256"
        },
        {
          "internalType": "address",
          "name": "userAddress",
          "type": "address"
        },
        {
          "internalType": "bytes32",
          "name": "publicKeyHash",
          "type": "bytes32"
        },
        {
          "internalType": "uint8",
          "name": "reputation",
          "type": "uint8"
        }
      ],
      "stateMutability": "view",
      "type": "function"
    },
    {
      "inputs": [],
      "name": "validatorContractAddress",
      "outputs": [
        {
          "internalType": "address",
          "name": "",
          "type": "address"
        }
      ],
      "stateMutability": "view",
      "type": "function"
    },
    {
      "inputs": [
        {
          "internalType": "address",
          "name": "",
          "type": "address"
        }
      ],
      "name": "validatorIdByAddress",
      "outputs": [
        {
          "internalType": "uint256",
          "name": "",
          "type": "uint256"
        }
      ],
      "stateMutability": "view",
      "type": "function"
    },
    {
      "inputs": [],
      "name": "validatorIdCounter",
      "outputs": [
        {
          "internalType": "uint256",
          "name": "",
          "type": "uint256"
        }
      ],
      "stateMutability": "view",
      "type": "function"
    },
    {
      "inputs": [
        {
          "internalType": "uint256",
          "name": "",
          "type": "uint256"
        }
      ],
      "name": "validators",
      "outputs": [
        {
          "internalType": "uint256",
          "name": "id",
          "type": "uint256"
        },
        {
          "internalType": "address",
          "name": "validatorAddress",
          "type": "address"
        },
        {
          "internalType": "bytes32",
          "name": "publicKeyHash",
          "type": "bytes32"
        },
        {
          "internalType": "uint256",
          "name": "locked",
          "type": "uint256"
        },
        {
          "internalType": "uint256",
          "name": "unlockTime",
          "type": "uint256"
        },
        {
          "internalType": "uint8",
          "name": "reputation",
          "type": "uint8"
        }
      ],
      "stateMutability": "view",
      "type": "function"
    }
  ],
  "bytecode": "6080604052610870606d55686f05b59d3b20000000606e55690a968163f0a57b400000606f5561c4e0607055348015603657600080fd5b50612b9c806100466000396000f3fe608060405234801561001057600080fd5b50600436106102bb5760003560e01c80637071688a11610182578063b5cb15f7116100e9578063cdf64a76116100a2578063d93d9beb1161007c578063d93d9beb1461072e578063dd62ed3e14610741578063f32595721461077a578063f79621bd1461078d57600080fd5b8063cdf64a7614610709578063d2d49c4b1461071c578063d8df5dc11461072557600080fd5b8063b5cb15f71461069d578063b7797537146106a5578063bc60bd48146106cf578063c0a77da9146106ef578063c5ab2241146106f7578063c8df245a1461070057600080fd5b806396afc4501161013b57806396afc4501461063f578063a3273d2214610648578063a457c2d71461065b578063a9059cbb1461066e578063abf7bfd814610681578063b115f50d1461069457600080fd5b80637071688a146105ca57806370a08231146105d25780637c405325146105fb5780638d12b2661461060e5780638f029d5e1461062e57806395d89b411461063757600080fd5b8063365b98b2116102265780634a4fbeec116101df5780634a4fbeec146105335780634b7590881461057357806350355d76146105935780636817dd5b1461059c5780636c9c2faf146105af5780636e27d889146105b757600080fd5b8063365b98b21461046e57806337deea70146104db57806339509351146104e3578063462d0b2e146104f65780634966d0861461050b578063497dfe631461052057600080fd5b806323b872dd1161027857806323b872dd14610389578063277645471461039c5780632faba6ae146103bc578063313ce567146103c557806332cb6b0c146103d457806335aa2e44146103e657600080fd5b806306fdde03146102c057806308ac5256146102de578063095ea7b3146102f5578063180aedf31461031857806318160ddd1461037857806320d3a0b414610380575b600080fd5b6102c86107b8565b6040516102d591906122df565b60405180910390f35b6102e7606c5481565b6040519081526020016102d5565b610308610303366004612343565b61084a565b60405190151581526020016102d5565b61035361032636600461236f565b60746020526000908152604090208054600182015460059092015490916001600160a01b03169060ff1683565b604080519384526001600160a01b0390921660208401521515908201526060016102d5565b6035546102e7565b6102e760705481565b610308610397366004612388565b610864565b6102e76103aa3660046123c9565b60766020526000908152604090205481565b6102e760685481565b604051601281526020016102d5565b6102e76a115eec47f6cf7e3500000081565b6104366103f436600461236f565b60736020526000908152604090208054600182015460028301546003840154600485015460059095015493946001600160a01b03909316939192909160ff1686565b604080519687526001600160a01b039095166020870152938501929092526060840152608083015260ff1660a082015260c0016102d5565b6104b061047c36600461236f565b607260205260009081526040902080546001820154600283015460039093015491926001600160a01b039091169160ff1684565b604080519485526001600160a01b0390931660208501529183015260ff1660608201526080016102d5565b6102e7610888565b6103086104f1366004612343565b6108fb565b6105096105043660046124d0565b61093a565b005b610513610b07565b6040516102d59190612567565b61050961052e36600461257a565b610b79565b6103086105413660046123c9565b6001600160a01b0316600090815260766020908152604080832054606f54908452607390925290912060030154101590565b6102e76105813660046123c9565b60756020526000908152604090205481565b6102e760695481565b6105136105aa36600461236f565b610d10565b6102e7610e13565b6105096105c536600461236f565b610e53565b6102e7610e60565b6102e76105e03660046123c9565b6001600160a01b031660009081526033602052604090205490565b61050961060936600461236f565b610e71565b61062161061c36600461259c565b6110e5565b6040516102d59190612611565b6102e760675481565b6102c86114d2565b6102e7606e5481565b610509610656366004612655565b6114e1565b610308610669366004612343565b6116c3565b61030861067c366004612343565b611755565b61050961068f36600461236f565b611763565b6102e760715481565b6102e761185d565b6106b86106b336600461236f565b61186e565b6040805192151583526020830191909152016102d5565b6102e76106dd36600461236f565b60776020526000908152604090205481565b606e546102e7565b6102e7606b5481565b6102e7606d5481565b6105096107173660046123c9565b611944565b6102e7606a5481565b6102e7606f5481565b61050961073c36600461236f565b6119c9565b6102e761074f36600461273b565b6001600160a01b03918216600090815260346020908152604080832093909416825291909152205490565b610621610788366004612769565b611a47565b6066546107a0906001600160a01b031681565b6040516001600160a01b0390911681526020016102d5565b6060603680546107c7906127b0565b80601f01602080910402602001604051908101604052809291908181526020018280546107f3906127b0565b80156108405780601f1061081557610100808354040283529160200191610840565b820191906000526020600020905b81548152906001019060200180831161082357829003601f168201915b5050505050905090565b600033610858818585611b71565b60019150505b92915050565b600033610872858285611c95565b61087d858585611d27565b506001949350505050565b606554604080516348f1712960e11b815290516000926001600160a01b0316916391e2e2529160048083019260209291908290030181865afa1580156108d2573d6000803e3d6000fd5b505050506040513d601f19601f820116820180604052508101906108f691906127ea565b905090565b3360008181526034602090815260408083206001600160a01b03871684529091528120549091906108589082908690610935908790612819565b611b71565b600054610100900460ff166109555760005460ff1615610959565b303b155b6109c15760405162461bcd60e51b815260206004820152602e60248201527f496e697469616c697a61626c653a20636f6e747261637420697320616c72656160448201526d191e481a5b9a5d1a585b1a5e995960921b60648201526084015b60405180910390fd5b600054610100900460ff161580156109e3576000805461ffff19166101011790555b610a2a6040518060400160405280600a815260200169536d6172746e6f64657360b01b81525060405180604001604052806003815260200162534e4f60e81b815250611ef5565b600160688190556069819055606755686f05b59d3b20000000606e55690a968163f0a57b400000606f55610870606d5561c4e060705560006071556a01efc90b09e6ebe28000006a01a784379d99db420000006a02e5276153cd3fb3800000610a938183612819565b915060005b8651811015610ad857610ad0878281518110610ab657610ab661282c565b6020026020010151885186610acb9190612842565b611f2a565b600101610a98565b50610ae38583611f2a565b50506001606b55506003606c558015610b02576000805461ff00191690555b505050565b6065546040805163fbcca27360e01b815290516060926001600160a01b03169163fbcca2739160048083019260009291908290030181865afa158015610b51573d6000803e3d6000fd5b505050506040513d6000823e601f3d908101601f191682016040526108f69190810190612864565b3360009081526076602052604090205415610bd65760405162461bcd60e51b815260206004820152601960248201527f56616c696461746f7220616c7265616479206578697374732e0000000000000060448201526064016109b8565b336000908152603360205260409020548111158015610bf75750606f548110155b610c435760405162461bcd60e51b815260206004820152601b60248201527f496e73756666696369656e7420746f6b656e2062616c616e63652e000000000060448201526064016109b8565b6040805160c08101825260678054808352336020808501828152858701898152606f805460608901908152600060808a01818152603260a08c01908152988252607387528b82209a518b55945160018b0180546001600160a01b0319166001600160a01b03909216919091179055925160028a01555160038901559151600488015593516005909601805460ff191660ff90971696909617909555925481835260769093529390205554610cf79190612009565b60678054906000610d07836128fe565b91905055505050565b60606069548210610d545760405162461bcd60e51b815260206004820152600e60248201526d125b9d985b1a59081a9bd888125160921b60448201526064016109b8565b600082815260746020526040902054829003610dda57600082815260746020908152604080832060020180548251818502810185019093528083529192909190830182828015610dcd57602002820191906000526020600020905b81546001600160a01b03168152600190910190602001808311610daf575b5093979650505050505050565b60405162461bcd60e51b815260206004820152600e60248201526d4a6f62206e6f7420666f756e642160901b60448201526064016109b8565b6000306001600160a01b03166318160ddd6040518163ffffffff1660e01b8152600401602060405180830381865afa1580156108d2573d6000803e3d6000fd5b610e5d3382612009565b50565b600060016067546108f69190612917565b3360009081526076602052604090205480610ece5760405162461bcd60e51b815260206004820152601b60248201527f4e6f74206120726567697374657265642076616c696461746f722e000000000060448201526064016109b8565b60008181526073602052604090206003810154831115610f305760405162461bcd60e51b815260206004820152601e60248201527f416d6f756e742065786365656473206c6f636b65642062616c616e63652e000060448201526064016109b8565b60008311610f505760405162461bcd60e51b81526004016109b89061292a565b806004015460000361103357607054610f699042612819565b60048201556003810154600090610f81908590612917565b606554606f5460405163b6ceecb760e01b8152336004820152602481018490529083101560448201529192506001600160a01b03169063b6ceecb790606401600060405180830381600087803b158015610fda57600080fd5b505af1158015610fee573d6000803e3d6000fd5b50505050600482015460405190815233907f77635f8f13ee1a01d11246347c649817c6ee9fa7620ce4c6adfa2452bfa162b2906020015b60405180910390a250505050565b80600401544210156110875760405162461bcd60e51b815260206004820152601860248201527f546f6b656e7320617265207374696c6c206c6f636b65642e000000000000000060448201526064016109b8565b8281600301600082825461109b9190612917565b909155506110ab90503384611f2a565b60405183815233907fe7b379c6c1fa169e9079c25e9143b127637eef8ec8c9d5c06ddb4ab3e11958889060200160405180910390a2505050565b3360009081526075602052604081205460609181900361113e5760405162461bcd60e51b81526020600482015260146024820152732ab9b2b9103737ba103932b3b4b9ba32b932b21760611b60448201526064016109b8565b6000848460008181106111535761115361282c565b90506020020135116111a75760405162461bcd60e51b815260206004820152601e60248201527f4361706163697479206d7573742062652067726561746572207a65726f2e000060448201526064016109b8565b6066546001600160a01b03166111ff5760405162461bcd60e51b815260206004820152601b60248201527f56616c696461746f7220636f6e7472616374206e6f742073657421000000000060448201526064016109b8565b60655460408051632909069b60e21b815290516000926001600160a01b03169163a4241a6c91600480830192869291908290030181865afa158015611248573d6000803e3d6000fd5b505050506040513d6000823e601f3d908101601f191682016040526112709190810190612864565b90506000815167ffffffffffffffff81111561128e5761128e6123ed565b6040519080825280602002602001820160405280156112b7578160200160208202803683370190505b50905060005b825181101561132a57607660008483815181106112dc576112dc61282c565b60200260200101516001600160a01b03166001600160a01b03168152602001908152602001600020548282815181106113175761131761282c565b60209081029190910101526001016112bd565b506040805160c0810182526069548152336020820152908101839052606081018667ffffffffffffffff811115611363576113636123ed565b60405190808252806020026020018201604052801561138c578160200160208202803683370190505b5081526020018787808060200260200160405190810160405280939291908181526020018383602002808284376000920182905250938552505060016020938401819052606954835260748452604092839020855181558585015191810180546001600160a01b0319166001600160a01b039093169290921790915591840151805192936114229360028601935091019061222a565b506060820151805161143e91600384019160209091019061222a565b506080820151805161145a91600484019160209091019061228f565b5060a091909101516005909101805460ff19169115159190911790556069546040517f1b59636c5deb9b679668ad7d3a3b892e3fc3b4a8ea6e10f8d31ce69c4278e8fc906114ab904290869061296b565b60405180910390a2606980549060006114c3836128fe565b90915550909695505050505050565b6060603780546107c7906127b0565b6066546001600160a01b0316331461150b5760405162461bcd60e51b81526004016109b89061298c565b6a115eec47f6cf7e35000000606e5461152360355490565b61152d9190612819565b111561157b5760405162461bcd60e51b815260206004820152601760248201527f4d6178696d756d20737570706c7920726561636865642100000000000000000060448201526064016109b8565b606d54607154106115b157670de0b6b3a7640000606e5411156115b1576002606e60008282546115ab9190612842565b90915550505b60006064606e5460286115c491906129d2565b6115ce9190612842565b905060006064606e54603c6115e391906129d2565b6115ed9190612842565b905060008351836115fe9190612842565b905060005b84518110156116375761162f8582815181106116215761162161282c565b602002602001015183611f2a565b600101611603565b5060005b87518110156116a4576000868489848151811061165a5761165a61282c565b602002602001015161166c91906129d2565b6116769190612842565b905061169b89838151811061168d5761168d61282c565b602002602001015182611f2a565b5060010161163b565b50607180549060006116b5836128fe565b919050555050505050505050565b3360008181526034602090815260408083206001600160a01b0387168452909152812054909190838110156117485760405162461bcd60e51b815260206004820152602560248201527f45524332303a2064656372656173656420616c6c6f77616e63652062656c6f77604482015264207a65726f60d81b60648201526084016109b8565b61087d8286868403611b71565b600033610858818585611d27565b33600090815260756020526040902054156117c05760405162461bcd60e51b815260206004820152601860248201527f5573657220616c726561647920726567697374657265642e000000000000000060448201526064016109b8565b60408051608081018252606880548083523360208085018281528587018881526032606088019081526000958652607284528886209751885591516001880180546001600160a01b0319166001600160a01b03909216919091179055516002870155516003909501805460ff191660ff90961695909517909455825490825260759093529283208290559091611855836128fe565b919050555050565b600060016068546108f69190612917565b60008060675483106118b05760405162461bcd60e51b815260206004820152600b60248201526a24b73b30b634b21024a21760a91b60448201526064016109b8565b60008381526073602052604080822060655460018201549251631015428760e21b81526001600160a01b03938416600482015291939216906340550a1c90602401602060405180830381865afa15801561190e573d6000803e3d6000fd5b505050506040513d601f19601f8201168201806040525081019061193291906129e9565b60029092015491959194509092505050565b6066546001600160a01b03161561199d5760405162461bcd60e51b815260206004820152601e60248201527f56616c696461746f72206164647265737320616c7265616479207365742e000060448201526064016109b8565b606580546001600160a01b039092166001600160a01b0319928316811790915560668054909216179055565b6066546001600160a01b031633146119f35760405162461bcd60e51b81526004016109b89061298c565b60008181526074602090815260409182902060058101805460ff19169055915142815283917f2f86696b420aa8d6e35f66f693ea69962e1a320f7f56220e777ec1db40903130910160405180910390a25050565b6066546060906001600160a01b03163314611a745760405162461bcd60e51b81526004016109b89061298c565b600083815260746020526040902060040154825114611a9257600080fd5b60008381526074602090815260409091208351611ab79260039092019185019061222a565b5060008381526074602052604090819020600501805460ff191690555183907f152d31e943f2d79d470375c901f5a6cfb7d465ee4969db651885948d3b6015b890611b059042815260200190565b60405180910390a260008381526074602090815260409182902060040180548351818402810184019094528084529091830182828015611b6457602002820191906000526020600020905b815481526020019060010190808311611b50575b5050505050905092915050565b6001600160a01b038316611bd35760405162461bcd60e51b8152602060048201526024808201527f45524332303a20617070726f76652066726f6d20746865207a65726f206164646044820152637265737360e01b60648201526084016109b8565b6001600160a01b038216611c345760405162461bcd60e51b815260206004820152602260248201527f45524332303a20617070726f766520746f20746865207a65726f206164647265604482015261737360f01b60648201526084016109b8565b6001600160a01b0383811660008181526034602090815260408083209487168084529482529182902085905590518481527f8c5be1e5ebec7d5bd14f71427d1e84f3dd0314c0f7b2291e5b200ac8c7c3b925910160405180910390a3505050565b6001600160a01b038381166000908152603460209081526040808320938616835292905220546000198114611d215781811015611d145760405162461bcd60e51b815260206004820152601d60248201527f45524332303a20696e73756666696369656e7420616c6c6f77616e636500000060448201526064016109b8565b611d218484848403611b71565b50505050565b6001600160a01b038316611d8b5760405162461bcd60e51b815260206004820152602560248201527f45524332303a207472616e736665722066726f6d20746865207a65726f206164604482015264647265737360d81b60648201526084016109b8565b6001600160a01b038216611ded5760405162461bcd60e51b815260206004820152602360248201527f45524332303a207472616e7366657220746f20746865207a65726f206164647260448201526265737360e81b60648201526084016109b8565b6001600160a01b03831660009081526033602052604090205481811015611e655760405162461bcd60e51b815260206004820152602660248201527f45524332303a207472616e7366657220616d6f756e7420657863656564732062604482015265616c616e636560d01b60648201526084016109b8565b6001600160a01b03808516600090815260336020526040808220858503905591851681529081208054849290611e9c908490612819565b92505081905550826001600160a01b0316846001600160a01b03167fddf252ad1be2c89b69c2b068fc378daa952ba7f163c4a11628f55a4df523b3ef84604051611ee891815260200190565b60405180910390a3611d21565b600054610100900460ff16611f1c5760405162461bcd60e51b81526004016109b890612a0b565b611f2682826121ea565b5050565b6001600160a01b038216611f805760405162461bcd60e51b815260206004820152601f60248201527f45524332303a206d696e7420746f20746865207a65726f20616464726573730060448201526064016109b8565b8060356000828254611f929190612819565b90915550506001600160a01b03821660009081526033602052604081208054839290611fbf908490612819565b90915550506040518181526001600160a01b038316906000907fddf252ad1be2c89b69c2b068fc378daa952ba7f163c4a11628f55a4df523b3ef9060200160405180910390a35050565b600081116120295760405162461bcd60e51b81526004016109b89061292a565b80612049836001600160a01b031660009081526033602052604090205490565b101561208f5760405162461bcd60e51b815260206004820152601560248201527424b739bab33334b1b4b2b73a103130b630b731b29760591b60448201526064016109b8565b6001600160a01b038216600090815260766020526040812054908190036120f85760405162461bcd60e51b815260206004820152601960248201527f56616c696461746f7220646f6573206e6f742065786973742e0000000000000060448201526064016109b8565b612103833084610864565b5060008181526073602052604081206003018054849290612125908490612819565b90915550506000818152607360205260409081902060030154606554606f54925163b6ceecb760e01b81526001600160a01b038781166004830152602482018490529383101560448201529192169063b6ceecb790606401600060405180830381600087803b15801561219757600080fd5b505af11580156121ab573d6000803e3d6000fd5b50505050836001600160a01b03167fac87f20a77d28ee8bbb58ec87ea8fa968b3393efae1a368fd50b767c2847391c8460405161102591815260200190565b600054610100900460ff166122115760405162461bcd60e51b81526004016109b890612a0b565b603661221d8382612aa6565b506037610b028282612aa6565b82805482825590600052602060002090810192821561227f579160200282015b8281111561227f57825182546001600160a01b0319166001600160a01b0390911617825560209092019160019091019061224a565b5061228b9291506122ca565b5090565b82805482825590600052602060002090810192821561227f579160200282015b8281111561227f5782518255916020019190600101906122af565b5b8082111561228b57600081556001016122cb565b60006020808352835180602085015260005b8181101561230d578581018301518582016040015282016122f1565b506000604082860101526040601f19601f8301168501019250505092915050565b6001600160a01b0381168114610e5d57600080fd5b6000806040838503121561235657600080fd5b82356123618161232e565b946020939093013593505050565b60006020828403121561238157600080fd5b5035919050565b60008060006060848603121561239d57600080fd5b83356123a88161232e565b925060208401356123b88161232e565b929592945050506040919091013590565b6000602082840312156123db57600080fd5b81356123e68161232e565b9392505050565b634e487b7160e01b600052604160045260246000fd5b604051601f8201601f1916810167ffffffffffffffff8111828210171561242c5761242c6123ed565b604052919050565b600067ffffffffffffffff82111561244e5761244e6123ed565b5060051b60200190565b600082601f83011261246957600080fd5b8135602061247e61247983612434565b612403565b8083825260208201915060208460051b8701019350868411156124a057600080fd5b602086015b848110156124c55780356124b88161232e565b83529183019183016124a5565b509695505050505050565b600080604083850312156124e357600080fd5b823567ffffffffffffffff8111156124fa57600080fd5b61250685828601612458565b92505060208301356125178161232e565b809150509250929050565b60008151808452602080850194506020840160005b8381101561255c5781516001600160a01b031687529582019590820190600101612537565b509495945050505050565b6020815260006123e66020830184612522565b6000806040838503121561258d57600080fd5b50508035926020909101359150565b600080602083850312156125af57600080fd5b823567ffffffffffffffff808211156125c757600080fd5b818501915085601f8301126125db57600080fd5b8135818111156125ea57600080fd5b8660208260051b85010111156125ff57600080fd5b60209290920196919550909350505050565b6020808252825182820181905260009190848201906040850190845b818110156126495783518352928401929184019160010161262d565b50909695505050505050565b6000806000806080858703121561266b57600080fd5b843567ffffffffffffffff8082111561268357600080fd5b61268f88838901612458565b95506020915081870135818111156126a657600080fd5b8701601f810189136126b757600080fd5b80356126c561247982612434565b81815260059190911b8201840190848101908b8311156126e457600080fd5b928501925b82841015612702578335825292850192908501906126e9565b975050505060408701359350606087013591508082111561272257600080fd5b5061272f87828801612458565b91505092959194509250565b6000806040838503121561274e57600080fd5b82356127598161232e565b915060208301356125178161232e565b6000806040838503121561277c57600080fd5b82359150602083013567ffffffffffffffff81111561279a57600080fd5b6127a685828601612458565b9150509250929050565b600181811c908216806127c457607f821691505b6020821081036127e457634e487b7160e01b600052602260045260246000fd5b50919050565b6000602082840312156127fc57600080fd5b5051919050565b634e487b7160e01b600052601160045260246000fd5b8082018082111561085e5761085e612803565b634e487b7160e01b600052603260045260246000fd5b60008261285f57634e487b7160e01b600052601260045260246000fd5b500490565b6000602080838503121561287757600080fd5b825167ffffffffffffffff81111561288e57600080fd5b8301601f8101851361289f57600080fd5b80516128ad61247982612434565b81815260059190911b820183019083810190878311156128cc57600080fd5b928401925b828410156128f35783516128e48161232e565b825292840192908401906128d1565b979650505050505050565b60006001820161291057612910612803565b5060010190565b8181038181111561085e5761085e612803565b60208082526021908201527f416d6f756e74206d7573742062652067726561746572207468616e207a65726f6040820152601760f91b606082015260800190565b8281526040602082015260006129846040830184612522565b949350505050565b60208082526026908201527f43616c6c6572206d7573742062652074686520536d6172746e6f6465734d756c6040820152653a34a9b4b39760d11b606082015260800190565b808202811582820484141761085e5761085e612803565b6000602082840312156129fb57600080fd5b815180151581146123e657600080fd5b6020808252602b908201527f496e697469616c697a61626c653a20636f6e7472616374206973206e6f74206960408201526a6e697469616c697a696e6760a81b606082015260800190565b601f821115610b02576000816000526020600020601f850160051c81016020861015612a7f5750805b601f850160051c820191505b81811015612a9e57828155600101612a8b565b505050505050565b815167ffffffffffffffff811115612ac057612ac06123ed565b612ad481612ace84546127b0565b84612a56565b602080601f831160018114612b095760008415612af15750858301515b600019600386901b1c1916600185901b178555612a9e565b600085815260208120601f198616915b82811015612b3857888601518255948401946001909101908401612b19565b5085821015612b565787850151600019600388901b60f8161c191681555b5050505050600190811b0190555056fea26469706673582212207bd1e2785c7523d73d7402307b2b5ecaad8e09aa5d240b2bde8937532d8003d864736f6c63430008190033",
  "bytecodeSha1": "d389d83366eec1ed1342f3055c2bb1c6381c43bf",
  "compiler": {
    "evm_version": "istanbul",
    "optimizer": {
      "enabled": true,
      "runs": 200
    },
    "version": "0.8.25+commit.b61c2a91"
  },
  "contractName": "SmartnodesCore",
  "language": "Solidity",
  "natspec": {
    "details": "An ERC20 contract for managing off-chain networks",
    "kind": "dev",
    "methods": {
      "allowance(address,address)": {
        "details": "See {IERC20-allowance}."
      },
      "approve(address,uint256)": {
        "details": "See {IERC20-approve}. NOTE: If `amount` is the maximum `uint256`, the allowance is not updated on `transferFrom`. This is semantically equivalent to an infinite approval. Requirements: - `spender` cannot be the zero address."
      },
      "balanceOf(address)": {
        "details": "See {IERC20-balanceOf}."
      },
      "createUser(bytes32)": {
        "details": "Create a User, limit one per address & public key hash (RSA)"
      },
      "createValidator(bytes32,uint256)": {
        "details": "Create a Validator, limit one per address & public key hash (RSA), requires locking up sno"
      },
      "decimals()": {
        "details": "Returns the number of decimals used to get its user representation. For example, if `decimals` equals `2`, a balance of `505` tokens should be displayed to a user as `5.05` (`505 / 10 ** 2`). Tokens usually opt for a value of 18, imitating the relationship between Ether and Wei. This is the value {ERC20} uses, unless this function is overridden; NOTE: This information is only used for _display_ purposes: it in no way affects any of the arithmetic of the contract, including {IERC20-balanceOf} and {IERC20-transfer}."
      },
      "decreaseAllowance(address,uint256)": {
        "details": "Atomically decreases the allowance granted to `spender` by the caller. This is an alternative to {approve} that can be used as a mitigation for problems described in {IERC20-approve}. Emits an {Approval} event indicating the updated allowance. Requirements: - `spender` cannot be the zero address. - `spender` must have allowance for the caller of at least `subtractedValue`."
      },
      "increaseAllowance(address,uint256)": {
        "details": "Atomically increases the allowance granted to `spender` by the caller. This is an alternative to {approve} that can be used as a mitigation for problems described in {IERC20-approve}. Emits an {Approval} event indicating the updated allowance. Requirements: - `spender` cannot be the zero address."
      },
      "lockTokens(uint256)": {
        "details": "Validator token unlocking, 30 day withdrawal period."
      },
      "mintTokens(address[],uint256[],uint256,address[])": {
        "details": "Mint tokens for updating state rewards, distribute 40/60 among validators and workers Updates the emission rate and halving accordingly"
      },
      "name()": {
        "details": "Returns the name of the token."
      },
      "symbol()": {
        "details": "Returns the symbol of the token, usually a shorter version of the name."
      },
      "totalSupply()": {
        "details": "See {IERC20-totalSupply}."
      },
      "transfer(address,uint256)": {
        "details": "See {IERC20-transfer}. Requirements: - `to` cannot be the zero address. - the caller must have a balance of at least `amount`."
      },
      "transferFrom(address,address,uint256)": {
        "details": "See {IERC20-transferFrom}. Emits an {Approval} event indicating the updated allowance. This is not required by the EIP. See the note at the beginning of {ERC20}. NOTE: Does not update the allowance if the current allowance is the maximum `uint256`. Requirements: - `from` and `to` cannot be the zero address. - `from` must have a balance of at least `amount`. - the caller must have allowance for ``from``'s tokens of at least `amount`."
      }
    },
    "title": "SmartNodes",
    "version": 1
  },
  "opcodes": "PUSH1 0x80 PUSH1 0x40 MSTORE CALLVALUE DUP1 ISZERO PUSH2 0x10 JUMPI PUSH1 0x0 DUP1 REVERT JUMPDEST POP PUSH1 0x4 CALLDATASIZE LT PUSH2 0x2BB JUMPI PUSH1 0x0 CALLDATALOAD PUSH1 0xE0 SHR DUP1 PUSH4 0x7071688A GT PUSH2 0x182 JUMPI DUP1 PUSH4 0xB5CB15F7 GT PUSH2 0xE9 JUMPI DUP1 PUSH4 0xCDF64A76 GT PUSH2 0xA2 JUMPI DUP1 PUSH4 0xD93D9BEB GT PUSH2 0x7C JUMPI DUP1 PUSH4 0xD93D9BEB EQ PUSH2 0x72E JUMPI DUP1 PUSH4 0xDD62ED3E EQ PUSH2 0x741 JUMPI DUP1 PUSH4 0xF3259572 EQ PUSH2 0x77A JUMPI DUP1 PUSH4 0xF79621BD EQ PUSH2 0x78D JUMPI PUSH1 0x0 DUP1 REVERT JUMPDEST DUP1 PUSH4 0xCDF64A76 EQ PUSH2 0x709 JUMPI DUP1 PUSH4 0xD2D49C4B EQ PUSH2 0x71C JUMPI DUP1 PUSH4 0xD8DF5DC1 EQ PUSH2 0x725 JUMPI PUSH1 0x0 DUP1 REVERT JUMPDEST DUP1 PUSH4 0xB5CB15F7 EQ PUSH2 0x69D JUMPI DUP1 PUSH4 0xB7797537 EQ PUSH2 0x6A5 JUMPI DUP1 PUSH4 0xBC60BD48 EQ PUSH2 0x6CF JUMPI DUP1 PUSH4 0xC0A77DA9 EQ PUSH2 0x6EF JUMPI DUP1 PUSH4 0xC5AB2241 EQ PUSH2 0x6F7 JUMPI DUP1 PUSH4 0xC8DF245A EQ PUSH2 0x700 JUMPI PUSH1 0x0 DUP1 REVERT JUMPDEST DUP1 PUSH4 0x96AFC450 GT PUSH2 0x13B JUMPI DUP1 PUSH4 0x96AFC450 EQ PUSH2 0x63F JUMPI DUP1 PUSH4 0xA3273D22 EQ PUSH2 0x648 JUMPI DUP1 PUSH4 0xA457C2D7 EQ PUSH2 0x65B JUMPI DUP1 PUSH4 0xA9059CBB EQ PUSH2 0x66E JUMPI DUP1 PUSH4 0xABF7BFD8 EQ PUSH2 0x681 JUMPI DUP1 PUSH4 0xB115F50D EQ PUSH2 0x694 JUMPI PUSH1 0x0 DUP1 REVERT JUMPDEST DUP1 PUSH4 0x7071688A EQ PUSH2 0x5CA JUMPI DUP1 PUSH4 0x70A08231 EQ PUSH2 0x5D2 JUMPI DUP1 PUSH4 0x7C405325 EQ PUSH2 0x5FB JUMPI DUP1 PUSH4 0x8D12B266 EQ PUSH2 0x60E JUMPI DUP1 PUSH4 0x8F029D5E EQ PUSH2 0x62E JUMPI DUP1 PUSH4 0x95D89B41 EQ PUSH2 0x637 JUMPI PUSH1 0x0 DUP1 REVERT JUMPDEST DUP1 PUSH4 0x365B98B2 GT PUSH2 0x226 JUMPI DUP1 PUSH4 0x4A4FBEEC GT PUSH2 0x1DF JUMPI DUP1 PUSH4 0x4A4FBEEC EQ PUSH2 0x533 JUMPI DUP1 PUSH4 0x4B759088 EQ PUSH2 0x573 JUMPI DUP1 PUSH4 0x50355D76 EQ PUSH2 0x593 JUMPI DUP1 PUSH4 0x6817DD5B EQ PUSH2 0x59C JUMPI DUP1 PUSH4 0x6C9C2FAF EQ PUSH2 0x5AF JUMPI DUP1 PUSH4 0x6E27D889 EQ PUSH2 0x5B7 JUMPI PUSH1 0x0 DUP1 REVERT JUMPDEST DUP1 PUSH4 0x365B98B2 EQ PUSH2 0x46E JUMPI DUP1 PUSH4 0x37DEEA70 EQ PUSH2 0x4DB JUMPI DUP1 PUSH4 0x39509351 EQ PUSH2 0x4E3 JUMPI DUP1 PUSH4 0x462D0B2E EQ PUSH2 0x4F6 JUMPI DUP1 PUSH4 0x4966D086 EQ PUSH2 0x50B JUMPI DUP1 PUSH4 0x497DFE63 EQ PUSH2 0x520 JUMPI PUSH1 0x0 DUP1 REVERT JUMPDEST DUP1 PUSH4 0x23B872DD GT PUSH2 0x278 JUMPI DUP1 PUSH4 0x23B872DD EQ PUSH2 0x389 JUMPI DUP1 PUSH4 0x27764547 EQ PUSH2 0x39C JUMPI DUP1 PUSH4 0x2FABA6AE EQ PUSH2 0x3BC JUMPI DUP1 PUSH4 0x313CE567 EQ PUSH2 0x3C5 JUMPI DUP1 PUSH4 0x32CB6B0C EQ PUSH2 0x3D4 JUMPI DUP1 PUSH4 0x35AA2E44 EQ PUSH2 0x3E6 JUMPI PUSH1 0x0 DUP1 REVERT JUMPDEST DUP1 PUSH4 0x6FDDE03 EQ PUSH2 0x2C0 JUMPI DUP1 PUSH4 0x8AC5256 EQ PUSH2 0x2DE JUMPI DUP1 PUSH4 0x95EA7B3 EQ PUSH2 0x2F5 JUMPI DUP1 PUSH4 0x180AEDF3 EQ PUSH2 0x318 JUMPI DUP1 PUSH4 0x18160DDD EQ PUSH2 0x378 JUMPI DUP1 PUSH4 0x20D3A0B4 EQ PUSH2 0x380 JUMPI JUMPDEST PUSH1 0x0 DUP1 REVERT JUMPDEST PUSH2 0x2C8 PUSH2 0x7B8 JUMP JUMPDEST PUSH1 0x40 MLOAD PUSH2 0x2D5 SWAP2 SWAP1 PUSH2 0x22DF JUMP JUMPDEST PUSH1 0x40 MLOAD DUP1 SWAP2 SUB SWAP1 RETURN JUMPDEST PUSH2 0x2E7 PUSH1 0x6C SLOAD DUP2 JUMP JUMPDEST PUSH1 0x40 MLOAD SWAP1 DUP2 MSTORE PUSH1 0x20 ADD PUSH2 0x2D5 JUMP JUMPDEST PUSH2 0x308 PUSH2 0x303 CALLDATASIZE PUSH1 0x4 PUSH2 0x2343 JUMP JUMPDEST PUSH2 0x84A JUMP JUMPDEST PUSH1 0x40 MLOAD SWAP1 ISZERO ISZERO DUP2 MSTORE PUSH1 0x20 ADD PUSH2 0x2D5 JUMP JUMPDEST PUSH2 0x353 PUSH2 0x326 CALLDATASIZE PUSH1 0x4 PUSH2 0x236F JUMP JUMPDEST PUSH1 0x74 PUSH1 0x20 MSTORE PUSH1 0x0 SWAP1 DUP2 MSTORE PUSH1 0x40 SWAP1 KECCAK256 DUP1 SLOAD PUSH1 0x1 DUP3 ADD SLOAD PUSH1 0x5 SWAP1 SWAP3 ADD SLOAD SWAP1 SWAP2 PUSH1 0x1 PUSH1 0x1 PUSH1 0xA0 SHL SUB AND SWAP1 PUSH1 0xFF AND DUP4 JUMP JUMPDEST PUSH1 0x40 DUP1 MLOAD SWAP4 DUP5 MSTORE PUSH1 0x1 PUSH1 0x1 PUSH1 0xA0 SHL SUB SWAP1 SWAP3 AND PUSH1 0x20 DUP5 ADD MSTORE ISZERO ISZERO SWAP1 DUP3 ADD MSTORE PUSH1 0x60 ADD PUSH2 0x2D5 JUMP JUMPDEST PUSH1 0x35 SLOAD PUSH2 0x2E7 JUMP JUMPDEST PUSH2 0x2E7 PUSH1 0x70 SLOAD DUP2 JUMP JUMPDEST PUSH2 0x308 PUSH2 0x397 CALLDATASIZE PUSH1 0x4 PUSH2 0x2388 JUMP JUMPDEST PUSH2 0x864 JUMP JUMPDEST PUSH2 0x2E7 PUSH2 0x3AA CALLDATASIZE PUSH1 0x4 PUSH2 0x23C9 JUMP JUMPDEST PUSH1 0x76 PUSH1 0x20 MSTORE PUSH1 0x0 SWAP1 DUP2 MSTORE PUSH1 0x40 SWAP1 KECCAK256 SLOAD DUP2 JUMP JUMPDEST PUSH2 0x2E7 PUSH1 0x68 SLOAD DUP2 JUMP JUMPDEST PUSH1 0x40 MLOAD PUSH1 0x12 DUP2 MSTORE PUSH1 0x20 ADD PUSH2 0x2D5 JUMP JUMPDEST PUSH2 0x2E7 PUSH11 0x115EEC47F6CF7E35000000 DUP2 JUMP JUMPDEST PUSH2 0x436 PUSH2 0x3F4 CALLDATASIZE PUSH1 0x4 PUSH2 0x236F JUMP JUMPDEST PUSH1 0x73 PUSH1 0x20 MSTORE PUSH1 0x0 SWAP1 DUP2 MSTORE PUSH1 0x40 SWAP1 KECCAK256 DUP1 SLOAD PUSH1 0x1 DUP3 ADD SLOAD PUSH1 0x2 DUP4 ADD SLOAD PUSH1 0x3 DUP5 ADD SLOAD PUSH1 0x4 DUP6 ADD SLOAD PUSH1 0x5 SWAP1 SWAP6 ADD SLOAD SWAP4 SWAP5 PUSH1 0x1 PUSH1 0x1 PUSH1 0xA0 SHL SUB SWAP1 SWAP4 AND SWAP4 SWAP2 SWAP3 SWAP1 SWAP2 PUSH1 0xFF AND DUP7 JUMP JUMPDEST PUSH1 0x40 DUP1 MLOAD SWAP7 DUP8 MSTORE PUSH1 0x1 PUSH1 0x1 PUSH1 0xA0 SHL SUB SWAP1 SWAP6 AND PUSH1 0x20 DUP8 ADD MSTORE SWAP4 DUP6 ADD SWAP3 SWAP1 SWAP3 MSTORE PUSH1 0x60 DUP5 ADD MSTORE PUSH1 0x80 DUP4 ADD MSTORE PUSH1 0xFF AND PUSH1 0xA0 DUP3 ADD MSTORE PUSH1 0xC0 ADD PUSH2 0x2D5 JUMP JUMPDEST PUSH2 0x4B0 PUSH2 0x47C CALLDATASIZE PUSH1 0x4 PUSH2 0x236F JUMP JUMPDEST PUSH1 0x72 PUSH1 0x20 MSTORE PUSH1 0x0 SWAP1 DUP2 MSTORE PUSH1 0x40 SWAP1 KECCAK256 DUP1 SLOAD PUSH1 0x1 DUP3 ADD SLOAD PUSH1 0x2 DUP4 ADD SLOAD PUSH1 0x3 SWAP1 SWAP4 ADD SLOAD SWAP2 SWAP3 PUSH1 0x1 PUSH1 0x1 PUSH1 0xA0 SHL SUB SWAP1 SWAP2 AND SWAP2 PUSH1 0xFF AND DUP5 JUMP JUMPDEST PUSH1 0x40 DUP1 MLOAD SWAP5 DUP6 MSTORE PUSH1 0x1 PUSH1 0x1 PUSH1 0xA0 SHL SUB SWAP1 SWAP4 AND PUSH1 0x20 DUP6 ADD MSTORE SWAP2 DUP4 ADD MSTORE PUSH1 0xFF AND PUSH1 0x60 DUP3 ADD MSTORE PUSH1 0x80 ADD PUSH2 0x2D5 JUMP JUMPDEST PUSH2 0x2E7 PUSH2 0x888 JUMP JUMPDEST PUSH2 0x308 PUSH2 0x4F1 CALLDATASIZE PUSH1 0x4 PUSH2 0x2343 JUMP JUMPDEST PUSH2 0x8FB JUMP JUMPDEST PUSH2 0x509 PUSH2 0x504 CALLDATASIZE PUSH1 0x4 PUSH2 0x24D0 JUMP JUMPDEST PUSH2 0x93A JUMP JUMPDEST STOP JUMPDEST PUSH2 0x513 PUSH2 0xB07 JUMP JUMPDEST PUSH1 0x40 MLOAD PUSH2 0x2D5 SWAP2 SWAP1 PUSH2 0x2567 JUMP JUMPDEST PUSH2 0x509 PUSH2 0x52E CALLDATASIZE PUSH1 0x4 PUSH2 0x257A JUMP JUMPDEST PUSH2 0xB79 JUMP JUMPDEST PUSH2 0x308 PUSH2 0x541 CALLDATASIZE PUSH1 0x4 PUSH2 0x23C9 JUMP JUMPDEST PUSH1 0x1 PUSH1 0x1 PUSH1 0xA0 SHL SUB AND PUSH1 0x0 SWAP1 DUP2 MSTORE PUSH1 0x76 PUSH1 0x20 SWAP1 DUP2 MSTORE PUSH1 0x40 DUP1 DUP4 KECCAK256 SLOAD PUSH1 0x6F SLOAD SWAP1 DUP5 MSTORE PUSH1 0x73 SWAP1 SWAP3 MSTORE SWAP1 SWAP2 KECCAK256 PUSH1 0x3 ADD SLOAD LT ISZERO SWAP1 JUMP JUMPDEST PUSH2 0x2E7 PUSH2 0x581 CALLDATASIZE PUSH1 0x4 PUSH2 0x23C9 JUMP JUMPDEST PUSH1 0x75 PUSH1 0x20 MSTORE PUSH1 0x0 SWAP1 DUP2 MSTORE PUSH1 0x40 SWAP1 KECCAK256 SLOAD DUP2 JUMP JUMPDEST PUSH2 0x2E7 PUSH1 0x69 SLOAD DUP2 JUMP JUMPDEST PUSH2 0x513 PUSH2 0x5AA CALLDATASIZE PUSH1 0x4 PUSH2 0x236F JUMP JUMPDEST PUSH2 0xD10 JUMP JUMPDEST PUSH2 0x2E7 PUSH2 0xE13 JUMP JUMPDEST PUSH2 0x509 PUSH2 0x5C5 CALLDATASIZE PUSH1 0x4 PUSH2 0x236F JUMP JUMPDEST PUSH2 0xE53 JUMP JUMPDEST PUSH2 0x2E7 PUSH2 0xE60 JUMP JUMPDEST PUSH2 0x2E7 PUSH2 0x5E0 CALLDATASIZE PUSH1 0x4 PUSH2 0x23C9 JUMP JUMPDEST PUSH1 0x1 PUSH1 0x1 PUSH1 0xA0 SHL SUB AND PUSH1 0x0 SWAP1 DUP2 MSTORE PUSH1 0x33 PUSH1 0x20 MSTORE PUSH1 0x40 SWAP1 KECCAK256 SLOAD SWAP1 JUMP JUMPDEST PUSH2 0x509 PUSH2 0x609 CALLDATASIZE PUSH1 0x4 PUSH2 0x236F JUMP JUMPDEST PUSH2 0xE71 JUMP JUMPDEST PUSH2 0x621 PUSH2 0x61C CALLDATASIZE PUSH1 0x4 PUSH2 0x259C JUMP JUMPDEST PUSH2 0x10E5 JUMP JUMPDEST PUSH1 0x40 MLOAD PUSH2 0x2D5 SWAP2 SWAP1 PUSH2 0x2611 JUMP JUMPDEST PUSH2 0x2E7 PUSH1 0x67 SLOAD DUP2 JUMP JUMPDEST PUSH2 0x2C8 PUSH2 0x14D2 JUMP JUMPDEST PUSH2 0x2E7 PUSH1 0x6E SLOAD DUP2 JUMP JUMPDEST PUSH2 0x509 PUSH2 0x656 CALLDATASIZE PUSH1 0x4 PUSH2 0x2655 JUMP JUMPDEST PUSH2 0x14E1 JUMP JUMPDEST PUSH2 0x308 PUSH2 0x669 CALLDATASIZE PUSH1 0x4 PUSH2 0x2343 JUMP JUMPDEST PUSH2 0x16C3 JUMP JUMPDEST PUSH2 0x308 PUSH2 0x67C CALLDATASIZE PUSH1 0x4 PUSH2 0x2343 JUMP JUMPDEST PUSH2 0x1755 JUMP JUMPDEST PUSH2 0x509 PUSH2 0x68F CALLDATASIZE PUSH1 0x4 PUSH2 0x236F JUMP JUMPDEST PUSH2 0x1763 JUMP JUMPDEST PUSH2 0x2E7 PUSH1 0x71 SLOAD DUP2 JUMP JUMPDEST PUSH2 0x2E7 PUSH2 0x185D JUMP JUMPDEST PUSH2 0x6B8 PUSH2 0x6B3 CALLDATASIZE PUSH1 0x4 PUSH2 0x236F JUMP JUMPDEST PUSH2 0x186E JUMP JUMPDEST PUSH1 0x40 DUP1 MLOAD SWAP3 ISZERO ISZERO DUP4 MSTORE PUSH1 0x20 DUP4 ADD SWAP2 SWAP1 SWAP2 MSTORE ADD PUSH2 0x2D5 JUMP JUMPDEST PUSH2 0x2E7 PUSH2 0x6DD CALLDATASIZE PUSH1 0x4 PUSH2 0x236F JUMP JUMPDEST PUSH1 0x77 PUSH1 0x20 MSTORE PUSH1 0x0 SWAP1 DUP2 MSTORE PUSH1 0x40 SWAP1 KECCAK256 SLOAD DUP2 JUMP JUMPDEST PUSH1 0x6E SLOAD PUSH2 0x2E7 JUMP JUMPDEST PUSH2 0x2E7 PUSH1 0x6B SLOAD DUP2 JUMP JUMPDEST PUSH2 0x2E7 PUSH1 0x6D SLOAD DUP2 JUMP JUMPDEST PUSH2 0x509 PUSH2 0x717 CALLDATASIZE PUSH1 0x4 PUSH2 0x23C9 JUMP JUMPDEST PUSH2 0x1944 JUMP JUMPDEST PUSH2 0x2E7 PUSH1 0x6A SLOAD DUP2 JUMP JUMPDEST PUSH2 0x2E7 PUSH1 0x6F SLOAD DUP2 JUMP JUMPDEST PUSH2 0x509 PUSH2 0x73C CALLDATASIZE PUSH1 0x4 PUSH2 0x236F JUMP JUMPDEST PUSH2 0x19C9 JUMP JUMPDEST PUSH2 0x2E7 PUSH2 0x74F CALLDATASIZE PUSH1 0x4 PUSH2 0x273B JUMP JUMPDEST PUSH1 0x1 PUSH1 0x1 PUSH1 0xA0 SHL SUB SWAP2 DUP3 AND PUSH1 0x0 SWAP1 DUP2 MSTORE PUSH1 0x34 PUSH1 0x20 SWAP1 DUP2 MSTORE PUSH1 0x40 DUP1 DUP4 KECCAK256 SWAP4 SWAP1 SWAP5 AND DUP3 MSTORE SWAP2 SWAP1 SWAP2 MSTORE KECCAK256 SLOAD SWAP1 JUMP JUMPDEST PUSH2 0x621 PUSH2 0x788 CALLDATASIZE PUSH1 0x4 PUSH2 0x2769 JUMP JUMPDEST PUSH2 0x1A47 JUMP JUMPDEST PUSH1 0x66 SLOAD PUSH2 0x7A0 SWAP1 PUSH1 0x1 PUSH1 0x1 PUSH1 0xA0 SHL SUB AND DUP2 JUMP JUMPDEST PUSH1 0x40 MLOAD PUSH1 0x1 PUSH1 0x1 PUSH1 0xA0 SHL SUB SWAP1 SWAP2 AND DUP2 MSTORE PUSH1 0x20 ADD PUSH2 0x2D5 JUMP JUMPDEST PUSH1 0x60 PUSH1 0x36 DUP1 SLOAD PUSH2 0x7C7 SWAP1 PUSH2 0x27B0 JUMP JUMPDEST DUP1 PUSH1 0x1F ADD PUSH1 0x20 DUP1 SWAP2 DIV MUL PUSH1 0x20 ADD PUSH1 0x40 MLOAD SWAP1 DUP2 ADD PUSH1 0x40 MSTORE DUP1 SWAP3 SWAP2 SWAP1 DUP2 DUP2 MSTORE PUSH1 0x20 ADD DUP3 DUP1 SLOAD PUSH2 0x7F3 SWAP1 PUSH2 0x27B0 JUMP JUMPDEST DUP1 ISZERO PUSH2 0x840 JUMPI DUP1 PUSH1 0x1F LT PUSH2 0x815 JUMPI PUSH2 0x100 DUP1 DUP4 SLOAD DIV MUL DUP4 MSTORE SWAP2 PUSH1 0x20 ADD SWAP2 PUSH2 0x840 JUMP JUMPDEST DUP3 ADD SWAP2 SWAP1 PUSH1 0x0 MSTORE PUSH1 0x20 PUSH1 0x0 KECCAK256 SWAP1 JUMPDEST DUP2 SLOAD DUP2 MSTORE SWAP1 PUSH1 0x1 ADD SWAP1 PUSH1 0x20 ADD DUP1 DUP4 GT PUSH2 0x823 JUMPI DUP3 SWAP1 SUB PUSH1 0x1F AND DUP3 ADD SWAP2 JUMPDEST POP POP POP POP POP SWAP1 POP SWAP1 JUMP JUMPDEST PUSH1 0x0 CALLER PUSH2 0x858 DUP2 DUP6 DUP6 PUSH2 0x1B71 JUMP JUMPDEST PUSH1 0x1 SWAP2 POP POP JUMPDEST SWAP3 SWAP2 POP POP JUMP JUMPDEST PUSH1 0x0 CALLER PUSH2 0x872 DUP6 DUP3 DUP6 PUSH2 0x1C95 JUMP JUMPDEST PUSH2 0x87D DUP6 DUP6 DUP6 PUSH2 0x1D27 JUMP JUMPDEST POP PUSH1 0x1 SWAP5 SWAP4 POP POP POP POP JUMP JUMPDEST PUSH1 0x65 SLOAD PUSH1 0x40 DUP1 MLOAD PUSH4 0x48F17129 PUSH1 0xE1 SHL DUP2 MSTORE SWAP1 MLOAD PUSH1 0x0 SWAP3 PUSH1 0x1 PUSH1 0x1 PUSH1 0xA0 SHL SUB AND SWAP2 PUSH4 0x91E2E252 SWAP2 PUSH1 0x4 DUP1 DUP4 ADD SWAP3 PUSH1 0x20 SWAP3 SWAP2 SWAP1 DUP3 SWAP1 SUB ADD DUP2 DUP7 GAS STATICCALL ISZERO DUP1 ISZERO PUSH2 0x8D2 JUMPI RETURNDATASIZE PUSH1 0x0 DUP1 RETURNDATACOPY RETURNDATASIZE PUSH1 0x0 REVERT JUMPDEST POP POP POP POP PUSH1 0x40 MLOAD RETURNDATASIZE PUSH1 0x1F NOT PUSH1 0x1F DUP3 ADD AND DUP3 ADD DUP1 PUSH1 0x40 MSTORE POP DUP2 ADD SWAP1 PUSH2 0x8F6 SWAP2 SWAP1 PUSH2 0x27EA JUMP JUMPDEST SWAP1 POP SWAP1 JUMP JUMPDEST CALLER PUSH1 0x0 DUP2 DUP2 MSTORE PUSH1 0x34 PUSH1 0x20 SWAP1 DUP2 MSTORE PUSH1 0x40 DUP1 DUP4 KECCAK256 PUSH1 0x1 PUSH1 0x1 PUSH1 0xA0 SHL SUB DUP8 AND DUP5 MSTORE SWAP1 SWAP2 MSTORE DUP2 KECCAK256 SLOAD SWAP1 SWAP2 SWAP1 PUSH2 0x858 SWAP1 DUP3 SWAP1 DUP7 SWAP1 PUSH2 0x935 SWAP1 DUP8 SWAP1 PUSH2 0x2819 JUMP JUMPDEST PUSH2 0x1B71 JUMP JUMPDEST PUSH1 0x0 SLOAD PUSH2 0x100 SWAP1 DIV PUSH1 0xFF AND PUSH2 0x955 JUMPI PUSH1 0x0 SLOAD PUSH1 0xFF AND ISZERO PUSH2 0x959 JUMP JUMPDEST ADDRESS EXTCODESIZE ISZERO JUMPDEST PUSH2 0x9C1 JUMPI PUSH1 0x40 MLOAD PUSH3 0x461BCD PUSH1 0xE5 SHL DUP2 MSTORE PUSH1 0x20 PUSH1 0x4 DUP3 ADD MSTORE PUSH1 0x2E PUSH1 0x24 DUP3 ADD MSTORE PUSH32 0x496E697469616C697A61626C653A20636F6E747261637420697320616C726561 PUSH1 0x44 DUP3 ADD MSTORE PUSH14 0x191E481A5B9A5D1A585B1A5E9959 PUSH1 0x92 SHL PUSH1 0x64 DUP3 ADD MSTORE PUSH1 0x84 ADD JUMPDEST PUSH1 0x40 MLOAD DUP1 SWAP2 SUB SWAP1 REVERT JUMPDEST PUSH1 0x0 SLOAD PUSH2 0x100 SWAP1 DIV PUSH1 0xFF AND ISZERO DUP1 ISZERO PUSH2 0x9E3 JUMPI PUSH1 0x0 DUP1 SLOAD PUSH2 0xFFFF NOT AND PUSH2 0x101 OR SWAP1 SSTORE JUMPDEST PUSH2 0xA2A PUSH1 0x40 MLOAD DUP1 PUSH1 0x40 ADD PUSH1 0x40 MSTORE DUP1 PUSH1 0xA DUP2 MSTORE PUSH1 0x20 ADD PUSH10 0x536D6172746E6F646573 PUSH1 0xB0 SHL DUP2 MSTORE POP PUSH1 0x40 MLOAD DUP1 PUSH1 0x40 ADD PUSH1 0x40 MSTORE DUP1 PUSH1 0x3 DUP2 MSTORE PUSH1 0x20 ADD PUSH3 0x534E4F PUSH1 0xE8 SHL DUP2 MSTORE POP PUSH2 0x1EF5 JUMP JUMPDEST PUSH1 0x1 PUSH1 0x68 DUP2 SWAP1 SSTORE PUSH1 0x69 DUP2 SWAP1 SSTORE PUSH1 0x67 SSTORE PUSH9 0x6F05B59D3B20000000 PUSH1 0x6E SSTORE PUSH10 0xA968163F0A57B400000 PUSH1 0x6F SSTORE PUSH2 0x870 PUSH1 0x6D SSTORE PUSH2 0xC4E0 PUSH1 0x70 SSTORE PUSH1 0x0 PUSH1 0x71 SSTORE PUSH11 0x1EFC90B09E6EBE2800000 PUSH11 0x1A784379D99DB42000000 PUSH11 0x2E5276153CD3FB3800000 PUSH2 0xA93 DUP2 DUP4 PUSH2 0x2819 JUMP JUMPDEST SWAP2 POP PUSH1 0x0 JUMPDEST DUP7 MLOAD DUP2 LT ISZERO PUSH2 0xAD8 JUMPI PUSH2 0xAD0 DUP8 DUP3 DUP2 MLOAD DUP2 LT PUSH2 0xAB6 JUMPI PUSH2 0xAB6 PUSH2 0x282C JUMP JUMPDEST PUSH1 0x20 MUL PUSH1 0x20 ADD ADD MLOAD DUP9 MLOAD DUP7 PUSH2 0xACB SWAP2 SWAP1 PUSH2 0x2842 JUMP JUMPDEST PUSH2 0x1F2A JUMP JUMPDEST PUSH1 0x1 ADD PUSH2 0xA98 JUMP JUMPDEST POP PUSH2 0xAE3 DUP6 DUP4 PUSH2 0x1F2A JUMP JUMPDEST POP POP PUSH1 0x1 PUSH1 0x6B SSTORE POP PUSH1 0x3 PUSH1 0x6C SSTORE DUP1 ISZERO PUSH2 0xB02 JUMPI PUSH1 0x0 DUP1 SLOAD PUSH2 0xFF00 NOT AND SWAP1 SSTORE JUMPDEST POP POP POP JUMP JUMPDEST PUSH1 0x65 SLOAD PUSH1 0x40 DUP1 MLOAD PUSH4 0xFBCCA273 PUSH1 0xE0 SHL DUP2 MSTORE SWAP1 MLOAD PUSH1 0x60 SWAP3 PUSH1 0x1 PUSH1 0x1 PUSH1 0xA0 SHL SUB AND SWAP2 PUSH4 0xFBCCA273 SWAP2 PUSH1 0x4 DUP1 DUP4 ADD SWAP3 PUSH1 0x0 SWAP3 SWAP2 SWAP1 DUP3 SWAP1 SUB ADD DUP2 DUP7 GAS STATICCALL ISZERO DUP1 ISZERO PUSH2 0xB51 JUMPI RETURNDATASIZE PUSH1 0x0 DUP1 RETURNDATACOPY RETURNDATASIZE PUSH1 0x0 REVERT JUMPDEST POP POP POP POP PUSH1 0x40 MLOAD RETURNDATASIZE PUSH1 0x0 DUP3 RETURNDATACOPY PUSH1 0x1F RETURNDATASIZE SWAP1 DUP2 ADD PUSH1 0x1F NOT AND DUP3 ADD PUSH1 0x40 MSTORE PUSH2 0x8F6 SWAP2 SWAP1 DUP2 ADD SWAP1 PUSH2 0x2864 JUMP JUMPDEST CALLER PUSH1 0x0 SWAP1 DUP2 MSTORE PUSH1 0x76 PUSH1 0x20 MSTORE PUSH1 0x40 SWAP1 KECCAK256 SLOAD ISZERO PUSH2 0xBD6 JUMPI PUSH1 0x40 MLOAD PUSH3 0x461BCD PUSH1 0xE5 SHL DUP2 MSTORE PUSH1 0x20 PUSH1 0x4 DUP3 ADD MSTORE PUSH1 0x19 PUSH1 0x24 DUP3 ADD MSTORE PUSH32 0x56616C696461746F7220616C7265616479206578697374732E00000000000000 PUSH1 0x44 DUP3 ADD MSTORE PUSH1 0x64 ADD PUSH2 0x9B8 JUMP JUMPDEST CALLER PUSH1 0x0 SWAP1 DUP2 MSTORE PUSH1 0x33 PUSH1 0x20 MSTORE PUSH1 0x40 SWAP1 KECCAK256 SLOAD DUP2 GT ISZERO DUP1 ISZERO PUSH2 0xBF7 JUMPI POP PUSH1 0x6F SLOAD DUP2 LT ISZERO JUMPDEST PUSH2 0xC43 JUMPI PUSH1 0x40 MLOAD PUSH3 0x461BCD PUSH1 0xE5 SHL DUP2 MSTORE PUSH1 0x20 PUSH1 0x4 DUP3 ADD MSTORE PUSH1 0x1B PUSH1 0x24 DUP3 ADD MSTORE PUSH32 0x496E73756666696369656E7420746F6B656E2062616C616E63652E0000000000 PUSH1 0x44 DUP3 ADD MSTORE PUSH1 0x64 ADD PUSH2 0x9B8 JUMP JUMPDEST PUSH1 0x40 DUP1 MLOAD PUSH1 0xC0 DUP2 ADD DUP3 MSTORE PUSH1 0x67 DUP1 SLOAD DUP1 DUP4 MSTORE CALLER PUSH1 0x20 DUP1 DUP6 ADD DUP3 DUP2 MSTORE DUP6 DUP8 ADD DUP10 DUP2 MSTORE PUSH1 0x6F DUP1 SLOAD PUSH1 0x60 DUP10 ADD SWAP1 DUP2 MSTORE PUSH1 0x0 PUSH1 0x80 DUP11 ADD DUP2 DUP2 MSTORE PUSH1 0x32 PUSH1 0xA0 DUP13 ADD SWAP1 DUP2 MSTORE SWAP9 DUP3 MSTORE PUSH1 0x73 DUP8 MSTORE DUP12 DUP3 KECCAK256 SWAP11 MLOAD DUP12 SSTORE SWAP5 MLOAD PUSH1 0x1 DUP12 ADD DUP1 SLOAD PUSH1 0x1 PUSH1 0x1 PUSH1 0xA0 SHL SUB NOT AND PUSH1 0x1 PUSH1 0x1 PUSH1 0xA0 SHL SUB SWAP1 SWAP3 AND SWAP2 SWAP1 SWAP2 OR SWAP1 SSTORE SWAP3 MLOAD PUSH1 0x2 DUP11 ADD SSTORE MLOAD PUSH1 0x3 DUP10 ADD SSTORE SWAP2 MLOAD PUSH1 0x4 DUP9 ADD SSTORE SWAP4 MLOAD PUSH1 0x5 SWAP1 SWAP7 ADD DUP1 SLOAD PUSH1 0xFF NOT AND PUSH1 0xFF SWAP1 SWAP8 AND SWAP7 SWAP1 SWAP7 OR SWAP1 SWAP6 SSTORE SWAP3 SLOAD DUP2 DUP4 MSTORE PUSH1 0x76 SWAP1 SWAP4 MSTORE SWAP4 SWAP1 KECCAK256 SSTORE SLOAD PUSH2 0xCF7 SWAP2 SWAP1 PUSH2 0x2009 JUMP JUMPDEST PUSH1 0x67 DUP1 SLOAD SWAP1 PUSH1 0x0 PUSH2 0xD07 DUP4 PUSH2 0x28FE JUMP JUMPDEST SWAP2 SWAP1 POP SSTORE POP POP POP JUMP JUMPDEST PUSH1 0x60 PUSH1 0x69 SLOAD DUP3 LT PUSH2 0xD54 JUMPI PUSH1 0x40 MLOAD PUSH3 0x461BCD PUSH1 0xE5 SHL DUP2 MSTORE PUSH1 0x20 PUSH1 0x4 DUP3 ADD MSTORE PUSH1 0xE PUSH1 0x24 DUP3 ADD MSTORE PUSH14 0x125B9D985B1A59081A9BD8881251 PUSH1 0x92 SHL PUSH1 0x44 DUP3 ADD MSTORE PUSH1 0x64 ADD PUSH2 0x9B8 JUMP JUMPDEST PUSH1 0x0 DUP3 DUP2 MSTORE PUSH1 0x74 PUSH1 0x20 MSTORE PUSH1 0x40 SWAP1 KECCAK256 SLOAD DUP3 SWAP1 SUB PUSH2 0xDDA JUMPI PUSH1 0x0 DUP3 DUP2 MSTORE PUSH1 0x74 PUSH1 0x20 SWAP1 DUP2 MSTORE PUSH1 0x40 DUP1 DUP4 KECCAK256 PUSH1 0x2 ADD DUP1 SLOAD DUP3 MLOAD DUP2 DUP6 MUL DUP2 ADD DUP6 ADD SWAP1 SWAP4 MSTORE DUP1 DUP4 MSTORE SWAP2 SWAP3 SWAP1 SWAP2 SWAP1 DUP4 ADD DUP3 DUP3 DUP1 ISZERO PUSH2 0xDCD JUMPI PUSH1 0x20 MUL DUP3 ADD SWAP2 SWAP1 PUSH1 0x0 MSTORE PUSH1 0x20 PUSH1 0x0 KECCAK256 SWAP1 JUMPDEST DUP2 SLOAD PUSH1 0x1 PUSH1 0x1 PUSH1 0xA0 SHL SUB AND DUP2 MSTORE PUSH1 0x1 SWAP1 SWAP2 ADD SWAP1 PUSH1 0x20 ADD DUP1 DUP4 GT PUSH2 0xDAF JUMPI JUMPDEST POP SWAP4 SWAP8 SWAP7 POP POP POP POP POP POP POP JUMP JUMPDEST PUSH1 0x40 MLOAD PUSH3 0x461BCD PUSH1 0xE5 SHL DUP2 MSTORE PUSH1 0x20 PUSH1 0x4 DUP3 ADD MSTORE PUSH1 0xE PUSH1 0x24 DUP3 ADD MSTORE PUSH14 0x4A6F62206E6F7420666F756E6421 PUSH1 0x90 SHL PUSH1 0x44 DUP3 ADD MSTORE PUSH1 0x64 ADD PUSH2 0x9B8 JUMP JUMPDEST PUSH1 0x0 ADDRESS PUSH1 0x1 PUSH1 0x1 PUSH1 0xA0 SHL SUB AND PUSH4 0x18160DDD PUSH1 0x40 MLOAD DUP2 PUSH4 0xFFFFFFFF AND PUSH1 0xE0 SHL DUP2 MSTORE PUSH1 0x4 ADD PUSH1 0x20 PUSH1 0x40 MLOAD DUP1 DUP4 SUB DUP2 DUP7 GAS STATICCALL ISZERO DUP1 ISZERO PUSH2 0x8D2 JUMPI RETURNDATASIZE PUSH1 0x0 DUP1 RETURNDATACOPY RETURNDATASIZE PUSH1 0x0 REVERT JUMPDEST PUSH2 0xE5D CALLER DUP3 PUSH2 0x2009 JUMP JUMPDEST POP JUMP JUMPDEST PUSH1 0x0 PUSH1 0x1 PUSH1 0x67 SLOAD PUSH2 0x8F6 SWAP2 SWAP1 PUSH2 0x2917 JUMP JUMPDEST CALLER PUSH1 0x0 SWAP1 DUP2 MSTORE PUSH1 0x76 PUSH1 0x20 MSTORE PUSH1 0x40 SWAP1 KECCAK256 SLOAD DUP1 PUSH2 0xECE JUMPI PUSH1 0x40 MLOAD PUSH3 0x461BCD PUSH1 0xE5 SHL DUP2 MSTORE PUSH1 0x20 PUSH1 0x4 DUP3 ADD MSTORE PUSH1 0x1B PUSH1 0x24 DUP3 ADD MSTORE PUSH32 0x4E6F74206120726567697374657265642076616C696461746F722E0000000000 PUSH1 0x44 DUP3 ADD MSTORE PUSH1 0x64 ADD PUSH2 0x9B8 JUMP JUMPDEST PUSH1 0x0 DUP2 DUP2 MSTORE PUSH1 0x73 PUSH1 0x20 MSTORE PUSH1 0x40 SWAP1 KECCAK256 PUSH1 0x3 DUP2 ADD SLOAD DUP4 GT ISZERO PUSH2 0xF30 JUMPI PUSH1 0x40 MLOAD PUSH3 0x461BCD PUSH1 0xE5 SHL DUP2 MSTORE PUSH1 0x20 PUSH1 0x4 DUP3 ADD MSTORE PUSH1 0x1E PUSH1 0x24 DUP3 ADD MSTORE PUSH32 0x416D6F756E742065786365656473206C6F636B65642062616C616E63652E0000 PUSH1 0x44 DUP3 ADD MSTORE PUSH1 0x64 ADD PUSH2 0x9B8 JUMP JUMPDEST PUSH1 0x0 DUP4 GT PUSH2 0xF50 JUMPI PUSH1 0x40 MLOAD PUSH3 0x461BCD PUSH1 0xE5 SHL DUP2 MSTORE PUSH1 0x4 ADD PUSH2 0x9B8 SWAP1 PUSH2 0x292A JUMP JUMPDEST DUP1 PUSH1 0x4 ADD SLOAD PUSH1 0x0 SUB PUSH2 0x1033 JUMPI PUSH1 0x70 SLOAD PUSH2 0xF69 SWAP1 TIMESTAMP PUSH2 0x2819 JUMP JUMPDEST PUSH1 0x4 DUP3 ADD SSTORE PUSH1 0x3 DUP2 ADD SLOAD PUSH1 0x0 SWAP1 PUSH2 0xF81 SWAP1 DUP6 SWAP1 PUSH2 0x2917 JUMP JUMPDEST PUSH1 0x65 SLOAD PUSH1 0x6F SLOAD PUSH1 0x40 MLOAD PUSH4 0xB6CEECB7 PUSH1 0xE0 SHL DUP2 MSTORE CALLER PUSH1 0x4 DUP3 ADD MSTORE PUSH1 0x24 DUP2 ADD DUP5 SWAP1 MSTORE SWAP1 DUP4 LT ISZERO PUSH1 0x44 DUP3 ADD MSTORE SWAP2 SWAP3 POP PUSH1 0x1 PUSH1 0x1 PUSH1 0xA0 SHL SUB AND SWAP1 PUSH4 0xB6CEECB7 SWAP1 PUSH1 0x64 ADD PUSH1 0x0 PUSH1 0x40 MLOAD DUP1 DUP4 SUB DUP2 PUSH1 0x0 DUP8 DUP1 EXTCODESIZE ISZERO DUP1 ISZERO PUSH2 0xFDA JUMPI PUSH1 0x0 DUP1 REVERT JUMPDEST POP GAS CALL ISZERO DUP1 ISZERO PUSH2 0xFEE JUMPI RETURNDATASIZE PUSH1 0x0 DUP1 RETURNDATACOPY RETURNDATASIZE PUSH1 0x0 REVERT JUMPDEST POP POP POP POP PUSH1 0x4 DUP3 ADD SLOAD PUSH1 0x40 MLOAD SWAP1 DUP2 MSTORE CALLER SWAP1 PUSH32 0x77635F8F13EE1A01D11246347C649817C6EE9FA7620CE4C6ADFA2452BFA162B2 SWAP1 PUSH1 0x20 ADD JUMPDEST PUSH1 0x40 MLOAD DUP1 SWAP2 SUB SWAP1 LOG2 POP POP POP POP JUMP JUMPDEST DUP1 PUSH1 0x4 ADD SLOAD TIMESTAMP LT ISZERO PUSH2 0x1087 JUMPI PUSH1 0x40 MLOAD PUSH3 0x461BCD PUSH1 0xE5 SHL DUP2 MSTORE PUSH1 0x20 PUSH1 0x4 DUP3 ADD MSTORE PUSH1 0x18 PUSH1 0x24 DUP3 ADD MSTORE PUSH32 0x546F6B656E7320617265207374696C6C206C6F636B65642E0000000000000000 PUSH1 0x44 DUP3 ADD MSTORE PUSH1 0x64 ADD PUSH2 0x9B8 JUMP JUMPDEST DUP3 DUP2 PUSH1 0x3 ADD PUSH1 0x0 DUP3 DUP3 SLOAD PUSH2 0x109B SWAP2 SWAP1 PUSH2 0x2917 JUMP JUMPDEST SWAP1 SWAP2 SSTORE POP PUSH2 0x10AB SWAP1 POP CALLER DUP5 PUSH2 0x1F2A JUMP JUMPDEST PUSH1 0x40 MLOAD DUP4 DUP2 MSTORE CALLER SWAP1 PUSH32 0xE7B379C6C1FA169E9079C25E9143B127637EEF8EC8C9D5C06DDB4AB3E1195888 SWAP1 PUSH1 0x20 ADD PUSH1 0x40 MLOAD DUP1 SWAP2 SUB SWAP1 LOG2 POP POP POP JUMP JUMPDEST CALLER PUSH1 0x0 SWAP1 DUP2 MSTORE PUSH1 0x75 PUSH1 0x20 MSTORE PUSH1 0x40 DUP2 KECCAK256 SLOAD PUSH1 0x60 SWAP2 DUP2 SWAP1 SUB PUSH2 0x113E JUMPI PUSH1 0x40 MLOAD PUSH3 0x461BCD PUSH1 0xE5 SHL DUP2 MSTORE PUSH1 0x20 PUSH1 0x4 DUP3 ADD MSTORE PUSH1 0x14 PUSH1 0x24 DUP3 ADD MSTORE PUSH20 0x2AB9B2B9103737BA103932B3B4B9BA32B932B217 PUSH1 0x61 SHL PUSH1 0x44 DUP3 ADD MSTORE PUSH1 0x64 ADD PUSH2 0x9B8 JUMP JUMPDEST PUSH1 0x0 DUP5 DUP5 PUSH1 0x0 DUP2 DUP2 LT PUSH2 0x1153 JUMPI PUSH2 0x1153 PUSH2 0x282C JUMP JUMPDEST SWAP1 POP PUSH1 0x20 MUL ADD CALLDATALOAD GT PUSH2 0x11A7 JUMPI PUSH1 0x40 MLOAD PUSH3 0x461BCD PUSH1 0xE5 SHL DUP2 MSTORE PUSH1 0x20 PUSH1 0x4 DUP3 ADD MSTORE PUSH1 0x1E PUSH1 0x24 DUP3 ADD MSTORE PUSH32 0x4361706163697479206D7573742062652067726561746572207A65726F2E0000 PUSH1 0x44 DUP3 ADD MSTORE PUSH1 0x64 ADD PUSH2 0x9B8 JUMP JUMPDEST PUSH1 0x66 SLOAD PUSH1 0x1 PUSH1 0x1 PUSH1 0xA0 SHL SUB AND PUSH2 0x11FF JUMPI PUSH1 0x40 MLOAD PUSH3 0x461BCD PUSH1 0xE5 SHL DUP2 MSTORE PUSH1 0x20 PUSH1 0x4 DUP3 ADD MSTORE PUSH1 0x1B PUSH1 0x24 DUP3 ADD MSTORE PUSH32 0x56616C696461746F7220636F6E7472616374206E6F7420736574210000000000 PUSH1 0x44 DUP3 ADD MSTORE PUSH1 0x64 ADD PUSH2 0x9B8 JUMP JUMPDEST PUSH1 0x65 SLOAD PUSH1 0x40 DUP1 MLOAD PUSH4 0x2909069B PUSH1 0xE2 SHL DUP2 MSTORE SWAP1 MLOAD PUSH1 0x0 SWAP3 PUSH1 0x1 PUSH1 0x1 PUSH1 0xA0 SHL SUB AND SWAP2 PUSH4 0xA4241A6C SWAP2 PUSH1 0x4 DUP1 DUP4 ADD SWAP3 DUP7 SWAP3 SWAP2 SWAP1 DUP3 SWAP1 SUB ADD DUP2 DUP7 GAS STATICCALL ISZERO DUP1 ISZERO PUSH2 0x1248 JUMPI RETURNDATASIZE PUSH1 0x0 DUP1 RETURNDATACOPY RETURNDATASIZE PUSH1 0x0 REVERT JUMPDEST POP POP POP POP PUSH1 0x40 MLOAD RETURNDATASIZE PUSH1 0x0 DUP3 RETURNDATACOPY PUSH1 0x1F RETURNDATASIZE SWAP1 DUP2 ADD PUSH1 0x1F NOT AND DUP3 ADD PUSH1 0x40 MSTORE PUSH2 0x1270 SWAP2 SWAP1 DUP2 ADD SWAP1 PUSH2 0x2864 JUMP JUMPDEST SWAP1 POP PUSH1 0x0 DUP2 MLOAD PUSH8 0xFFFFFFFFFFFFFFFF DUP2 GT ISZERO PUSH2 0x128E JUMPI PUSH2 0x128E PUSH2 0x23ED JUMP JUMPDEST PUSH1 0x40 MLOAD SWAP1 DUP1 DUP3 MSTORE DUP1 PUSH1 0x20 MUL PUSH1 0x20 ADD DUP3 ADD PUSH1 0x40 MSTORE DUP1 ISZERO PUSH2 0x12B7 JUMPI DUP2 PUSH1 0x20 ADD PUSH1 0x20 DUP3 MUL DUP1 CALLDATASIZE DUP4 CALLDATACOPY ADD SWAP1 POP JUMPDEST POP SWAP1 POP PUSH1 0x0 JUMPDEST DUP3 MLOAD DUP2 LT ISZERO PUSH2 0x132A JUMPI PUSH1 0x76 PUSH1 0x0 DUP5 DUP4 DUP2 MLOAD DUP2 LT PUSH2 0x12DC JUMPI PUSH2 0x12DC PUSH2 0x282C JUMP JUMPDEST PUSH1 0x20 MUL PUSH1 0x20 ADD ADD MLOAD PUSH1 0x1 PUSH1 0x1 PUSH1 0xA0 SHL SUB AND PUSH1 0x1 PUSH1 0x1 PUSH1 0xA0 SHL SUB AND DUP2 MSTORE PUSH1 0x20 ADD SWAP1 DUP2 MSTORE PUSH1 0x20 ADD PUSH1 0x0 KECCAK256 SLOAD DUP3 DUP3 DUP2 MLOAD DUP2 LT PUSH2 0x1317 JUMPI PUSH2 0x1317 PUSH2 0x282C JUMP JUMPDEST PUSH1 0x20 SWAP1 DUP2 MUL SWAP2 SWAP1 SWAP2 ADD ADD MSTORE PUSH1 0x1 ADD PUSH2 0x12BD JUMP JUMPDEST POP PUSH1 0x40 DUP1 MLOAD PUSH1 0xC0 DUP2 ADD DUP3 MSTORE PUSH1 0x69 SLOAD DUP2 MSTORE CALLER PUSH1 0x20 DUP3 ADD MSTORE SWAP1 DUP2 ADD DUP4 SWAP1 MSTORE PUSH1 0x60 DUP2 ADD DUP7 PUSH8 0xFFFFFFFFFFFFFFFF DUP2 GT ISZERO PUSH2 0x1363 JUMPI PUSH2 0x1363 PUSH2 0x23ED JUMP JUMPDEST PUSH1 0x40 MLOAD SWAP1 DUP1 DUP3 MSTORE DUP1 PUSH1 0x20 MUL PUSH1 0x20 ADD DUP3 ADD PUSH1 0x40 MSTORE DUP1 ISZERO PUSH2 0x138C JUMPI DUP2 PUSH1 0x20 ADD PUSH1 0x20 DUP3 MUL DUP1 CALLDATASIZE DUP4 CALLDATACOPY ADD SWAP1 POP JUMPDEST POP DUP2 MSTORE PUSH1 0x20 ADD DUP8 DUP8 DUP1 DUP1 PUSH1 0x20 MUL PUSH1 0x20 ADD PUSH1 0x40 MLOAD SWAP1 DUP2 ADD PUSH1 0x40 MSTORE DUP1 SWAP4 SWAP3 SWAP2 SWAP1 DUP2 DUP2 MSTORE PUSH1 0x20 ADD DUP4 DUP4 PUSH1 0x20 MUL DUP1 DUP3 DUP5 CALLDATACOPY PUSH1 0x0 SWAP3 ADD DUP3 SWAP1 MSTORE POP SWAP4 DUP6 MSTORE POP POP PUSH1 0x1 PUSH1 0x20 SWAP4 DUP5 ADD DUP2 SWAP1 MSTORE PUSH1 0x69 SLOAD DUP4 MSTORE PUSH1 0x74 DUP5 MSTORE PUSH1 0x40 SWAP3 DUP4 SWAP1 KECCAK256 DUP6 MLOAD DUP2 SSTORE DUP6 DUP6 ADD MLOAD SWAP2 DUP2 ADD DUP1 SLOAD PUSH1 0x1 PUSH1 0x1 PUSH1 0xA0 SHL SUB NOT AND PUSH1 0x1 PUSH1 0x1 PUSH1 0xA0 SHL SUB SWAP1 SWAP4 AND SWAP3 SWAP1 SWAP3 OR SWAP1 SWAP2 SSTORE SWAP2 DUP5 ADD MLOAD DUP1 MLOAD SWAP3 SWAP4 PUSH2 0x1422 SWAP4 PUSH1 0x2 DUP7 ADD SWAP4 POP SWAP2 ADD SWAP1 PUSH2 0x222A JUMP JUMPDEST POP PUSH1 0x60 DUP3 ADD MLOAD DUP1 MLOAD PUSH2 0x143E SWAP2 PUSH1 0x3 DUP5 ADD SWAP2 PUSH1 0x20 SWAP1 SWAP2 ADD SWAP1 PUSH2 0x222A JUMP JUMPDEST POP PUSH1 0x80 DUP3 ADD MLOAD DUP1 MLOAD PUSH2 0x145A SWAP2 PUSH1 0x4 DUP5 ADD SWAP2 PUSH1 0x20 SWAP1 SWAP2 ADD SWAP1 PUSH2 0x228F JUMP JUMPDEST POP PUSH1 0xA0 SWAP2 SWAP1 SWAP2 ADD MLOAD PUSH1 0x5 SWAP1 SWAP2 ADD DUP1 SLOAD PUSH1 0xFF NOT AND SWAP2 ISZERO ISZERO SWAP2 SWAP1 SWAP2 OR SWAP1 SSTORE PUSH1 0x69 SLOAD PUSH1 0x40 MLOAD PUSH32 0x1B59636C5DEB9B679668AD7D3A3B892E3FC3B4A8EA6E10F8D31CE69C4278E8FC SWAP1 PUSH2 0x14AB SWAP1 TIMESTAMP SWAP1 DUP7 SWAP1 PUSH2 0x296B JUMP JUMPDEST PUSH1 0x40 MLOAD DUP1 SWAP2 SUB SWAP1 LOG2 PUSH1 0x69 DUP1 SLOAD SWAP1 PUSH1 0x0 PUSH2 0x14C3 DUP4 PUSH2 0x28FE JUMP JUMPDEST SWAP1 SWAP2 SSTORE POP SWAP1 SWAP7 SWAP6 POP POP POP POP POP POP JUMP JUMPDEST PUSH1 0x60 PUSH1 0x37 DUP1 SLOAD PUSH2 0x7C7 SWAP1 PUSH2 0x27B0 JUMP JUMPDEST PUSH1 0x66 SLOAD PUSH1 0x1 PUSH1 0x1 PUSH1 0xA0 SHL SUB AND CALLER EQ PUSH2 0x150B JUMPI PUSH1 0x40 MLOAD PUSH3 0x461BCD PUSH1 0xE5 SHL DUP2 MSTORE PUSH1 0x4 ADD PUSH2 0x9B8 SWAP1 PUSH2 0x298C JUMP JUMPDEST PUSH11 0x115EEC47F6CF7E35000000 PUSH1 0x6E SLOAD PUSH2 0x1523 PUSH1 0x35 SLOAD SWAP1 JUMP JUMPDEST PUSH2 0x152D SWAP2 SWAP1 PUSH2 0x2819 JUMP JUMPDEST GT ISZERO PUSH2 0x157B JUMPI PUSH1 0x40 MLOAD PUSH3 0x461BCD PUSH1 0xE5 SHL DUP2 MSTORE PUSH1 0x20 PUSH1 0x4 DUP3 ADD MSTORE PUSH1 0x17 PUSH1 0x24 DUP3 ADD MSTORE PUSH32 0x4D6178696D756D20737570706C79207265616368656421000000000000000000 PUSH1 0x44 DUP3 ADD MSTORE PUSH1 0x64 ADD PUSH2 0x9B8 JUMP JUMPDEST PUSH1 0x6D SLOAD PUSH1 0x71 SLOAD LT PUSH2 0x15B1 JUMPI PUSH8 0xDE0B6B3A7640000 PUSH1 0x6E SLOAD GT ISZERO PUSH2 0x15B1 JUMPI PUSH1 0x2 PUSH1 0x6E PUSH1 0x0 DUP3 DUP3 SLOAD PUSH2 0x15AB SWAP2 SWAP1 PUSH2 0x2842 JUMP JUMPDEST SWAP1 SWAP2 SSTORE POP POP JUMPDEST PUSH1 0x0 PUSH1 0x64 PUSH1 0x6E SLOAD PUSH1 0x28 PUSH2 0x15C4 SWAP2 SWAP1 PUSH2 0x29D2 JUMP JUMPDEST PUSH2 0x15CE SWAP2 SWAP1 PUSH2 0x2842 JUMP JUMPDEST SWAP1 POP PUSH1 0x0 PUSH1 0x64 PUSH1 0x6E SLOAD PUSH1 0x3C PUSH2 0x15E3 SWAP2 SWAP1 PUSH2 0x29D2 JUMP JUMPDEST PUSH2 0x15ED SWAP2 SWAP1 PUSH2 0x2842 JUMP JUMPDEST SWAP1 POP PUSH1 0x0 DUP4 MLOAD DUP4 PUSH2 0x15FE SWAP2 SWAP1 PUSH2 0x2842 JUMP JUMPDEST SWAP1 POP PUSH1 0x0 JUMPDEST DUP5 MLOAD DUP2 LT ISZERO PUSH2 0x1637 JUMPI PUSH2 0x162F DUP6 DUP3 DUP2 MLOAD DUP2 LT PUSH2 0x1621 JUMPI PUSH2 0x1621 PUSH2 0x282C JUMP JUMPDEST PUSH1 0x20 MUL PUSH1 0x20 ADD ADD MLOAD DUP4 PUSH2 0x1F2A JUMP JUMPDEST PUSH1 0x1 ADD PUSH2 0x1603 JUMP JUMPDEST POP PUSH1 0x0 JUMPDEST DUP8 MLOAD DUP2 LT ISZERO PUSH2 0x16A4 JUMPI PUSH1 0x0 DUP7 DUP5 DUP10 DUP5 DUP2 MLOAD DUP2 LT PUSH2 0x165A JUMPI PUSH2 0x165A PUSH2 0x282C JUMP JUMPDEST PUSH1 0x20 MUL PUSH1 0x20 ADD ADD MLOAD PUSH2 0x166C SWAP2 SWAP1 PUSH2 0x29D2 JUMP JUMPDEST PUSH2 0x1676 SWAP2 SWAP1 PUSH2 0x2842 JUMP JUMPDEST SWAP1 POP PUSH2 0x169B DUP10 DUP4 DUP2 MLOAD DUP2 LT PUSH2 0x168D JUMPI PUSH2 0x168D PUSH2 0x282C JUMP JUMPDEST PUSH1 0x20 MUL PUSH1 0x20 ADD ADD MLOAD DUP3 PUSH2 0x1F2A JUMP JUMPDEST POP PUSH1 0x1 ADD PUSH2 0x163B JUMP JUMPDEST POP PUSH1 0x71 DUP1 SLOAD SWAP1 PUSH1 0x0 PUSH2 0x16B5 DUP4 PUSH2 0x28FE JUMP JUMPDEST SWAP2 SWAP1 POP SSTORE POP POP POP POP POP POP POP POP JUMP JUMPDEST CALLER PUSH1 0x0 DUP2 DUP2 MSTORE PUSH1 0x34 PUSH1 0x20 SWAP1 DUP2 MSTORE PUSH1 0x40 DUP1 DUP4 KECCAK256 PUSH1 0x1 PUSH1 0x1 PUSH1 0xA0 SHL SUB DUP8 AND DUP5 MSTORE SWAP1 SWAP2 MSTORE DUP2 KECCAK256 SLOAD SWAP1 SWAP2 SWAP1 DUP4 DUP2 LT ISZERO PUSH2 0x1748 JUMPI PUSH1 0x40 MLOAD PUSH3 0x461BCD PUSH1 0xE5 SHL DUP2 MSTORE PUSH1 0x20 PUSH1 0x4 DUP3 ADD MSTORE PUSH1 0x25 PUSH1 0x24 DUP3 ADD MSTORE PUSH32 0x45524332303A2064656372656173656420616C6C6F77616E63652062656C6F77 PUSH1 0x44 DUP3 ADD MSTORE PUSH5 0x207A65726F PUSH1 0xD8 SHL PUSH1 0x64 DUP3 ADD MSTORE PUSH1 0x84 ADD PUSH2 0x9B8 JUMP JUMPDEST PUSH2 0x87D DUP3 DUP7 DUP7 DUP5 SUB PUSH2 0x1B71 JUMP JUMPDEST PUSH1 0x0 CALLER PUSH2 0x858 DUP2 DUP6 DUP6 PUSH2 0x1D27 JUMP JUMPDEST CALLER PUSH1 0x0 SWAP1 DUP2 MSTORE PUSH1 0x75 PUSH1 0x20 MSTORE PUSH1 0x40 SWAP1 KECCAK256 SLOAD ISZERO PUSH2 0x17C0 JUMPI PUSH1 0x40 MLOAD PUSH3 0x461BCD PUSH1 0xE5 SHL DUP2 MSTORE PUSH1 0x20 PUSH1 0x4 DUP3 ADD MSTORE PUSH1 0x18 PUSH1 0x24 DUP3 ADD MSTORE PUSH32 0x5573657220616C726561647920726567697374657265642E0000000000000000 PUSH1 0x44 DUP3 ADD MSTORE PUSH1 0x64 ADD PUSH2 0x9B8 JUMP JUMPDEST PUSH1 0x40 DUP1 MLOAD PUSH1 0x80 DUP2 ADD DUP3 MSTORE PUSH1 0x68 DUP1 SLOAD DUP1 DUP4 MSTORE CALLER PUSH1 0x20 DUP1 DUP6 ADD DUP3 DUP2 MSTORE DUP6 DUP8 ADD DUP9 DUP2 MSTORE PUSH1 0x32 PUSH1 0x60 DUP9 ADD SWAP1 DUP2 MSTORE PUSH1 0x0 SWAP6 DUP7 MSTORE PUSH1 0x72 DUP5 MSTORE DUP9 DUP7 KECCAK256 SWAP8 MLOAD DUP9 SSTORE SWAP2 MLOAD PUSH1 0x1 DUP9 ADD DUP1 SLOAD PUSH1 0x1 PUSH1 0x1 PUSH1 0xA0 SHL SUB NOT AND PUSH1 0x1 PUSH1 0x1 PUSH1 0xA0 SHL SUB SWAP1 SWAP3 AND SWAP2 SWAP1 SWAP2 OR SWAP1 SSTORE MLOAD PUSH1 0x2 DUP8 ADD SSTORE MLOAD PUSH1 0x3 SWAP1 SWAP6 ADD DUP1 SLOAD PUSH1 0xFF NOT AND PUSH1 0xFF SWAP1 SWAP7 AND SWAP6 SWAP1 SWAP6 OR SWAP1 SWAP5 SSTORE DUP3 SLOAD SWAP1 DUP3 MSTORE PUSH1 0x75 SWAP1 SWAP4 MSTORE SWAP3 DUP4 KECCAK256 DUP3 SWAP1 SSTORE SWAP1 SWAP2 PUSH2 0x1855 DUP4 PUSH2 0x28FE JUMP JUMPDEST SWAP2 SWAP1 POP SSTORE POP POP JUMP JUMPDEST PUSH1 0x0 PUSH1 0x1 PUSH1 0x68 SLOAD PUSH2 0x8F6 SWAP2 SWAP1 PUSH2 0x2917 JUMP JUMPDEST PUSH1 0x0 DUP1 PUSH1 0x67 SLOAD DUP4 LT PUSH2 0x18B0 JUMPI PUSH1 0x40 MLOAD PUSH3 0x461BCD PUSH1 0xE5 SHL DUP2 MSTORE PUSH1 0x20 PUSH1 0x4 DUP3 ADD MSTORE PUSH1 0xB PUSH1 0x24 DUP3 ADD MSTORE PUSH11 0x24B73B30B634B21024A217 PUSH1 0xA9 SHL PUSH1 0x44 DUP3 ADD MSTORE PUSH1 0x64 ADD PUSH2 0x9B8 JUMP JUMPDEST PUSH1 0x0 DUP4 DUP2 MSTORE PUSH1 0x73 PUSH1 0x20 MSTORE PUSH1 0x40 DUP1 DUP3 KECCAK256 PUSH1 0x65 SLOAD PUSH1 0x1 DUP3 ADD SLOAD SWAP3 MLOAD PUSH4 0x10154287 PUSH1 0xE2 SHL DUP2 MSTORE PUSH1 0x1 PUSH1 0x1 PUSH1 0xA0 SHL SUB SWAP4 DUP5 AND PUSH1 0x4 DUP3 ADD MSTORE SWAP2 SWAP4 SWAP3 AND SWAP1 PUSH4 0x40550A1C SWAP1 PUSH1 0x24 ADD PUSH1 0x20 PUSH1 0x40 MLOAD DUP1 DUP4 SUB DUP2 DUP7 GAS STATICCALL ISZERO DUP1 ISZERO PUSH2 0x190E JUMPI RETURNDATASIZE PUSH1 0x0 DUP1 RETURNDATACOPY RETURNDATASIZE PUSH1 0x0 REVERT JUMPDEST POP POP POP POP PUSH1 0x40 MLOAD RETURNDATASIZE PUSH1 0x1F NOT PUSH1 0x1F DUP3 ADD AND DUP3 ADD DUP1 PUSH1 0x40 MSTORE POP DUP2 ADD SWAP1 PUSH2 0x1932 SWAP2 SWAP1 PUSH2 0x29E9 JUMP JUMPDEST PUSH1 0x2 SWAP1 SWAP3 ADD SLOAD SWAP2 SWAP6 SWAP2 SWAP5 POP SWAP1 SWAP3 POP POP POP JUMP JUMPDEST PUSH1 0x66 SLOAD PUSH1 0x1 PUSH1 0x1 PUSH1 0xA0 SHL SUB AND ISZERO PUSH2 0x199D JUMPI PUSH1 0x40 MLOAD PUSH3 0x461BCD PUSH1 0xE5 SHL DUP2 MSTORE PUSH1 0x20 PUSH1 0x4 DUP3 ADD MSTORE PUSH1 0x1E PUSH1 0x24 DUP3 ADD MSTORE PUSH32 0x56616C696461746F72206164647265737320616C7265616479207365742E0000 PUSH1 0x44 DUP3 ADD MSTORE PUSH1 0x64 ADD PUSH2 0x9B8 JUMP JUMPDEST PUSH1 0x65 DUP1 SLOAD PUSH1 0x1 PUSH1 0x1 PUSH1 0xA0 SHL SUB SWAP1 SWAP3 AND PUSH1 0x1 PUSH1 0x1 PUSH1 0xA0 SHL SUB NOT SWAP3 DUP4 AND DUP2 OR SWAP1 SWAP2 SSTORE PUSH1 0x66 DUP1 SLOAD SWAP1 SWAP3 AND OR SWAP1 SSTORE JUMP JUMPDEST PUSH1 0x66 SLOAD PUSH1 0x1 PUSH1 0x1 PUSH1 0xA0 SHL SUB AND CALLER EQ PUSH2 0x19F3 JUMPI PUSH1 0x40 MLOAD PUSH3 0x461BCD PUSH1 0xE5 SHL DUP2 MSTORE PUSH1 0x4 ADD PUSH2 0x9B8 SWAP1 PUSH2 0x298C JUMP JUMPDEST PUSH1 0x0 DUP2 DUP2 MSTORE PUSH1 0x74 PUSH1 0x20 SWAP1 DUP2 MSTORE PUSH1 0x40 SWAP2 DUP3 SWAP1 KECCAK256 PUSH1 0x5 DUP2 ADD DUP1 SLOAD PUSH1 0xFF NOT AND SWAP1 SSTORE SWAP2 MLOAD TIMESTAMP DUP2 MSTORE DUP4 SWAP2 PUSH32 0x2F86696B420AA8D6E35F66F693EA69962E1A320F7F56220E777EC1DB40903130 SWAP2 ADD PUSH1 0x40 MLOAD DUP1 SWAP2 SUB SWAP1 LOG2 POP POP JUMP JUMPDEST PUSH1 0x66 SLOAD PUSH1 0x60 SWAP1 PUSH1 0x1 PUSH1 0x1 PUSH1 0xA0 SHL SUB AND CALLER EQ PUSH2 0x1A74 JUMPI PUSH1 0x40 MLOAD PUSH3 0x461BCD PUSH1 0xE5 SHL DUP2 MSTORE PUSH1 0x4 ADD PUSH2 0x9B8 SWAP1 PUSH2 0x298C JUMP JUMPDEST PUSH1 0x0 DUP4 DUP2 MSTORE PUSH1 0x74 PUSH1 0x20 MSTORE PUSH1 0x40 SWAP1 KECCAK256 PUSH1 0x4 ADD SLOAD DUP3 MLOAD EQ PUSH2 0x1A92 JUMPI PUSH1 0x0 DUP1 REVERT JUMPDEST PUSH1 0x0 DUP4 DUP2 MSTORE PUSH1 0x74 PUSH1 0x20 SWAP1 DUP2 MSTORE PUSH1 0x40 SWAP1 SWAP2 KECCAK256 DUP4 MLOAD PUSH2 0x1AB7 SWAP3 PUSH1 0x3 SWAP1 SWAP3 ADD SWAP2 DUP6 ADD SWAP1 PUSH2 0x222A JUMP JUMPDEST POP PUSH1 0x0 DUP4 DUP2 MSTORE PUSH1 0x74 PUSH1 0x20 MSTORE PUSH1 0x40 SWAP1 DUP2 SWAP1 KECCAK256 PUSH1 0x5 ADD DUP1 SLOAD PUSH1 0xFF NOT AND SWAP1 SSTORE MLOAD DUP4 SWAP1 PUSH32 0x152D31E943F2D79D470375C901F5A6CFB7D465EE4969DB651885948D3B6015B8 SWAP1 PUSH2 0x1B05 SWAP1 TIMESTAMP DUP2 MSTORE PUSH1 0x20 ADD SWAP1 JUMP JUMPDEST PUSH1 0x40 MLOAD DUP1 SWAP2 SUB SWAP1 LOG2 PUSH1 0x0 DUP4 DUP2 MSTORE PUSH1 0x74 PUSH1 0x20 SWAP1 DUP2 MSTORE PUSH1 0x40 SWAP2 DUP3 SWAP1 KECCAK256 PUSH1 0x4 ADD DUP1 SLOAD DUP4 MLOAD DUP2 DUP5 MUL DUP2 ADD DUP5 ADD SWAP1 SWAP5 MSTORE DUP1 DUP5 MSTORE SWAP1 SWAP2 DUP4 ADD DUP3 DUP3 DUP1 ISZERO PUSH2 0x1B64 JUMPI PUSH1 0x20 MUL DUP3 ADD SWAP2 SWAP1 PUSH1 0x0 MSTORE PUSH1 0x20 PUSH1 0x0 KECCAK256 SWAP1 JUMPDEST DUP2 SLOAD DUP2 MSTORE PUSH1 0x20 ADD SWAP1 PUSH1 0x1 ADD SWAP1 DUP1 DUP4 GT PUSH2 0x1B50 JUMPI JUMPDEST POP POP POP POP POP SWAP1 POP SWAP3 SWAP2 POP POP JUMP JUMPDEST PUSH1 0x1 PUSH1 0x1 PUSH1 0xA0 SHL SUB DUP4 AND PUSH2 0x1BD3 JUMPI PUSH1 0x40 MLOAD PUSH3 0x461BCD PUSH1 0xE5 SHL DUP2 MSTORE PUSH1 0x20 PUSH1 0x4 DUP3 ADD MSTORE PUSH1 0x24 DUP1 DUP3 ADD MSTORE PUSH32 0x45524332303A20617070726F76652066726F6D20746865207A65726F20616464 PUSH1 0x44 DUP3 ADD MSTORE PUSH4 0x72657373 PUSH1 0xE0 SHL PUSH1 0x64 DUP3 ADD MSTORE PUSH1 0x84 ADD PUSH2 0x9B8 JUMP JUMPDEST PUSH1 0x1 PUSH1 0x1 PUSH1 0xA0 SHL SUB DUP3 AND PUSH2 0x1C34 JUMPI PUSH1 0x40 MLOAD PUSH3 0x461BCD PUSH1 0xE5 SHL DUP2 MSTORE PUSH1 0x20 PUSH1 0x4 DUP3 ADD MSTORE PUSH1 0x22 PUSH1 0x24 DUP3 ADD MSTORE PUSH32 0x45524332303A20617070726F766520746F20746865207A65726F206164647265 PUSH1 0x44 DUP3 ADD MSTORE PUSH2 0x7373 PUSH1 0xF0 SHL PUSH1 0x64 DUP3 ADD MSTORE PUSH1 0x84 ADD PUSH2 0x9B8 JUMP JUMPDEST PUSH1 0x1 PUSH1 0x1 PUSH1 0xA0 SHL SUB DUP4 DUP2 AND PUSH1 0x0 DUP2 DUP2 MSTORE PUSH1 0x34 PUSH1 0x20 SWAP1 DUP2 MSTORE PUSH1 0x40 DUP1 DUP4 KECCAK256 SWAP5 DUP8 AND DUP1 DUP5 MSTORE SWAP5 DUP3 MSTORE SWAP2 DUP3 SWAP1 KECCAK256 DUP6 SWAP1 SSTORE SWAP1 MLOAD DUP5 DUP2 MSTORE PUSH32 0x8C5BE1E5EBEC7D5BD14F71427D1E84F3DD0314C0F7B2291E5B200AC8C7C3B925 SWAP2 ADD PUSH1 0x40 MLOAD DUP1 SWAP2 SUB SWAP1 LOG3 POP POP POP JUMP JUMPDEST PUSH1 0x1 PUSH1 0x1 PUSH1 0xA0 SHL SUB DUP4 DUP2 AND PUSH1 0x0 SWAP1 DUP2 MSTORE PUSH1 0x34 PUSH1 0x20 SWAP1 DUP2 MSTORE PUSH1 0x40 DUP1 DUP4 KECCAK256 SWAP4 DUP7 AND DUP4 MSTORE SWAP3 SWAP1 MSTORE KECCAK256 SLOAD PUSH1 0x0 NOT DUP2 EQ PUSH2 0x1D21 JUMPI DUP2 DUP2 LT ISZERO PUSH2 0x1D14 JUMPI PUSH1 0x40 MLOAD PUSH3 0x461BCD PUSH1 0xE5 SHL DUP2 MSTORE PUSH1 0x20 PUSH1 0x4 DUP3 ADD MSTORE PUSH1 0x1D PUSH1 0x24 DUP3 ADD MSTORE PUSH32 0x45524332303A20696E73756666696369656E7420616C6C6F77616E6365000000 PUSH1 0x44 DUP3 ADD MSTORE PUSH1 0x64 ADD PUSH2 0x9B8 JUMP JUMPDEST PUSH2 0x1D21 DUP5 DUP5 DUP5 DUP5 SUB PUSH2 0x1B71 JUMP JUMPDEST POP POP POP POP JUMP JUMPDEST PUSH1 0x1 PUSH1 0x1 PUSH1 0xA0 SHL SUB DUP4 AND PUSH2 0x1D8B JUMPI PUSH1 0x40 MLOAD PUSH3 0x461BCD PUSH1 0xE5 SHL DUP2 MSTORE PUSH1 0x20 PUSH1 0x4 DUP3 ADD MSTORE PUSH1 0x25 PUSH1 0x24 DUP3 ADD MSTORE PUSH32 0x45524332303A207472616E736665722066726F6D20746865207A65726F206164 PUSH1 0x44 DUP3 ADD MSTORE PUSH5 0x6472657373 PUSH1 0xD8 SHL PUSH1 0x64 DUP3 ADD MSTORE PUSH1 0x84 ADD PUSH2 0x9B8 JUMP JUMPDEST PUSH1 0x1 PUSH1 0x1 PUSH1 0xA0 SHL SUB DUP3 AND PUSH2 0x1DED JUMPI PUSH1 0x40 MLOAD PUSH3 0x461BCD PUSH1 0xE5 SHL DUP2 MSTORE PUSH1 0x20 PUSH1 0x4 DUP3 ADD MSTORE PUSH1 0x23 PUSH1 0x24 DUP3 ADD MSTORE PUSH32 0x45524332303A207472616E7366657220746F20746865207A65726F2061646472 PUSH1 0x44 DUP3 ADD MSTORE PUSH3 0x657373 PUSH1 0xE8 SHL PUSH1 0x64 DUP3 ADD MSTORE PUSH1 0x84 ADD PUSH2 0x9B8 JUMP JUMPDEST PUSH1 0x1 PUSH1 0x1 PUSH1 0xA0 SHL SUB DUP4 AND PUSH1 0x0 SWAP1 DUP2 MSTORE PUSH1 0x33 PUSH1 0x20 MSTORE PUSH1 0x40 SWAP1 KECCAK256 SLOAD DUP2 DUP2 LT ISZERO PUSH2 0x1E65 JUMPI PUSH1 0x40 MLOAD PUSH3 0x461BCD PUSH1 0xE5 SHL DUP2 MSTORE PUSH1 0x20 PUSH1 0x4 DUP3 ADD MSTORE PUSH1 0x26 PUSH1 0x24 DUP3 ADD MSTORE PUSH32 0x45524332303A207472616E7366657220616D6F756E7420657863656564732062 PUSH1 0x44 DUP3 ADD MSTORE PUSH6 0x616C616E6365 PUSH1 0xD0 SHL PUSH1 0x64 DUP3 ADD MSTORE PUSH1 0x84 ADD PUSH2 0x9B8 JUMP JUMPDEST PUSH1 0x1 PUSH1 0x1 PUSH1 0xA0 SHL SUB DUP1 DUP6 AND PUSH1 0x0 SWAP1 DUP2 MSTORE PUSH1 0x33 PUSH1 0x20 MSTORE PUSH1 0x40 DUP1 DUP3 KECCAK256 DUP6 DUP6 SUB SWAP1 SSTORE SWAP2 DUP6 AND DUP2 MSTORE SWAP1 DUP2 KECCAK256 DUP1 SLOAD DUP5 SWAP3 SWAP1 PUSH2 0x1E9C SWAP1 DUP5 SWAP1 PUSH2 0x2819 JUMP JUMPDEST SWAP3 POP POP DUP2 SWAP1 SSTORE POP DUP3 PUSH1 0x1 PUSH1 0x1 PUSH1 0xA0 SHL SUB AND DUP5 PUSH1 0x1 PUSH1 0x1 PUSH1 0xA0 SHL SUB AND PUSH32 0xDDF252AD1BE2C89B69C2B068FC378DAA952BA7F163C4A11628F55A4DF523B3EF DUP5 PUSH1 0x40 MLOAD PUSH2 0x1EE8 SWAP2 DUP2 MSTORE PUSH1 0x20 ADD SWAP1 JUMP JUMPDEST PUSH1 0x40 MLOAD DUP1 SWAP2 SUB SWAP1 LOG3 PUSH2 0x1D21 JUMP JUMPDEST PUSH1 0x0 SLOAD PUSH2 0x100 SWAP1 DIV PUSH1 0xFF AND PUSH2 0x1F1C JUMPI PUSH1 0x40 MLOAD PUSH3 0x461BCD PUSH1 0xE5 SHL DUP2 MSTORE PUSH1 0x4 ADD PUSH2 0x9B8 SWAP1 PUSH2 0x2A0B JUMP JUMPDEST PUSH2 0x1F26 DUP3 DUP3 PUSH2 0x21EA JUMP JUMPDEST POP POP JUMP JUMPDEST PUSH1 0x1 PUSH1 0x1 PUSH1 0xA0 SHL SUB DUP3 AND PUSH2 0x1F80 JUMPI PUSH1 0x40 MLOAD PUSH3 0x461BCD PUSH1 0xE5 SHL DUP2 MSTORE PUSH1 0x20 PUSH1 0x4 DUP3 ADD MSTORE PUSH1 0x1F PUSH1 0x24 DUP3 ADD MSTORE PUSH32 0x45524332303A206D696E7420746F20746865207A65726F206164647265737300 PUSH1 0x44 DUP3 ADD MSTORE PUSH1 0x64 ADD PUSH2 0x9B8 JUMP JUMPDEST DUP1 PUSH1 0x35 PUSH1 0x0 DUP3 DUP3 SLOAD PUSH2 0x1F92 SWAP2 SWAP1 PUSH2 0x2819 JUMP JUMPDEST SWAP1 SWAP2 SSTORE POP POP PUSH1 0x1 PUSH1 0x1 PUSH1 0xA0 SHL SUB DUP3 AND PUSH1 0x0 SWAP1 DUP2 MSTORE PUSH1 0x33 PUSH1 0x20 MSTORE PUSH1 0x40 DUP2 KECCAK256 DUP1 SLOAD DUP4 SWAP3 SWAP1 PUSH2 0x1FBF SWAP1 DUP5 SWAP1 PUSH2 0x2819 JUMP JUMPDEST SWAP1 SWAP2 SSTORE POP POP PUSH1 0x40 MLOAD DUP2 DUP2 MSTORE PUSH1 0x1 PUSH1 0x1 PUSH1 0xA0 SHL SUB DUP4 AND SWAP1 PUSH1 0x0 SWAP1 PUSH32 0xDDF252AD1BE2C89B69C2B068FC378DAA952BA7F163C4A11628F55A4DF523B3EF SWAP1 PUSH1 0x20 ADD PUSH1 0x40 MLOAD DUP1 SWAP2 SUB SWAP1 LOG3 POP POP JUMP JUMPDEST PUSH1 0x0 DUP2 GT PUSH2 0x2029 JUMPI PUSH1 0x40 MLOAD PUSH3 0x461BCD PUSH1 0xE5 SHL DUP2 MSTORE PUSH1 0x4 ADD PUSH2 0x9B8 SWAP1 PUSH2 0x292A JUMP JUMPDEST DUP1 PUSH2 0x2049 DUP4 PUSH1 0x1 PUSH1 0x1 PUSH1 0xA0 SHL SUB AND PUSH1 0x0 SWAP1 DUP2 MSTORE PUSH1 0x33 PUSH1 0x20 MSTORE PUSH1 0x40 SWAP1 KECCAK256 SLOAD SWAP1 JUMP JUMPDEST LT ISZERO PUSH2 0x208F JUMPI PUSH1 0x40 MLOAD PUSH3 0x461BCD PUSH1 0xE5 SHL DUP2 MSTORE PUSH1 0x20 PUSH1 0x4 DUP3 ADD MSTORE PUSH1 0x15 PUSH1 0x24 DUP3 ADD MSTORE PUSH21 0x24B739BAB33334B1B4B2B73A103130B630B731B297 PUSH1 0x59 SHL PUSH1 0x44 DUP3 ADD MSTORE PUSH1 0x64 ADD PUSH2 0x9B8 JUMP JUMPDEST PUSH1 0x1 PUSH1 0x1 PUSH1 0xA0 SHL SUB DUP3 AND PUSH1 0x0 SWAP1 DUP2 MSTORE PUSH1 0x76 PUSH1 0x20 MSTORE PUSH1 0x40 DUP2 KECCAK256 SLOAD SWAP1 DUP2 SWAP1 SUB PUSH2 0x20F8 JUMPI PUSH1 0x40 MLOAD PUSH3 0x461BCD PUSH1 0xE5 SHL DUP2 MSTORE PUSH1 0x20 PUSH1 0x4 DUP3 ADD MSTORE PUSH1 0x19 PUSH1 0x24 DUP3 ADD MSTORE PUSH32 0x56616C696461746F7220646F6573206E6F742065786973742E00000000000000 PUSH1 0x44 DUP3 ADD MSTORE PUSH1 0x64 ADD PUSH2 0x9B8 JUMP JUMPDEST PUSH2 0x2103 DUP4 ADDRESS DUP5 PUSH2 0x864 JUMP JUMPDEST POP PUSH1 0x0 DUP2 DUP2 MSTORE PUSH1 0x73 PUSH1 0x20 MSTORE PUSH1 0x40 DUP2 KECCAK256 PUSH1 0x3 ADD DUP1 SLOAD DUP5 SWAP3 SWAP1 PUSH2 0x2125 SWAP1 DUP5 SWAP1 PUSH2 0x2819 JUMP JUMPDEST SWAP1 SWAP2 SSTORE POP POP PUSH1 0x0 DUP2 DUP2 MSTORE PUSH1 0x73 PUSH1 0x20 MSTORE PUSH1 0x40 SWAP1 DUP2 SWAP1 KECCAK256 PUSH1 0x3 ADD SLOAD PUSH1 0x65 SLOAD PUSH1 0x6F SLOAD SWAP3 MLOAD PUSH4 0xB6CEECB7 PUSH1 0xE0 SHL DUP2 MSTORE PUSH1 0x1 PUSH1 0x1 PUSH1 0xA0 SHL SUB DUP8 DUP2 AND PUSH1 0x4 DUP4 ADD MSTORE PUSH1 0x24 DUP3 ADD DUP5 SWAP1 MSTORE SWAP4 DUP4 LT ISZERO PUSH1 0x44 DUP3 ADD MSTORE SWAP2 SWAP3 AND SWAP1 PUSH4 0xB6CEECB7 SWAP1 PUSH1 0x64 ADD PUSH1 0x0 PUSH1 0x40 MLOAD DUP1 DUP4 SUB DUP2 PUSH1 0x0 DUP8 DUP1 EXTCODESIZE ISZERO DUP1 ISZERO PUSH2 0x2197 JUMPI PUSH1 0x0 DUP1 REVERT JUMPDEST POP GAS CALL ISZERO DUP1 ISZERO PUSH2 0x21AB JUMPI RETURNDATASIZE PUSH1 0x0 DUP1 RETURNDATACOPY RETURNDATASIZE PUSH1 0x0 REVERT JUMPDEST POP POP POP POP DUP4 PUSH1 0x1 PUSH1 0x1 PUSH1 0xA0 SHL SUB AND PUSH32 0xAC87F20A77D28EE8BBB58EC87EA8FA968B3393EFAE1A368FD50B767C2847391C DUP5 PUSH1 0x40 MLOAD PUSH2 0x1025 SWAP2 DUP2 MSTORE PUSH1 0x20 ADD SWAP1 JUMP JUMPDEST PUSH1 0x0 SLOAD PUSH2 0x100 SWAP1 DIV PUSH1 0xFF AND PUSH2 0x2211 JUMPI PUSH1 0x40 MLOAD PUSH3 0x461BCD PUSH1 0xE5 SHL DUP2 MSTORE PUSH1 0x4 ADD PUSH2 0x9B8 SWAP1 PUSH2 0x2A0B JUMP JUMPDEST PUSH1 0x36 PUSH2 0x221D DUP4 DUP3 PUSH2 0x2AA6 JUMP JUMPDEST POP PUSH1 0x37 PUSH2 0xB02 DUP3 DUP3 PUSH2 0x2AA6 JUMP JUMPDEST DUP3 DUP1 SLOAD DUP3 DUP3 SSTORE SWAP1 PUSH1 0x0 MSTORE PUSH1 0x20 PUSH1 0x0 KECCAK256 SWAP1 DUP2 ADD SWAP3 DUP3 ISZERO PUSH2 0x227F JUMPI SWAP2 PUSH1 0x20 MUL DUP3 ADD JUMPDEST DUP3 DUP2 GT ISZERO PUSH2 0x227F JUMPI DUP3 MLOAD DUP3 SLOAD PUSH1 0x1 PUSH1 0x1 PUSH1 0xA0 SHL SUB NOT AND PUSH1 0x1 PUSH1 0x1 PUSH1 0xA0 SHL SUB SWAP1 SWAP2 AND OR DUP3 SSTORE PUSH1 0x20 SWAP1 SWAP3 ADD SWAP2 PUSH1 0x1 SWAP1 SWAP2 ADD SWAP1 PUSH2 0x224A JUMP JUMPDEST POP PUSH2 0x228B SWAP3 SWAP2 POP PUSH2 0x22CA JUMP JUMPDEST POP SWAP1 JUMP JUMPDEST DUP3 DUP1 SLOAD DUP3 DUP3 SSTORE SWAP1 PUSH1 0x0 MSTORE PUSH1 0x20 PUSH1 0x0 KECCAK256 SWAP1 DUP2 ADD SWAP3 DUP3 ISZERO PUSH2 0x227F JUMPI SWAP2 PUSH1 0x20 MUL DUP3 ADD JUMPDEST DUP3 DUP2 GT ISZERO PUSH2 0x227F JUMPI DUP3 MLOAD DUP3 SSTORE SWAP2 PUSH1 0x20 ADD SWAP2 SWAP1 PUSH1 0x1 ADD SWAP1 PUSH2 0x22AF JUMP JUMPDEST JUMPDEST DUP1 DUP3 GT ISZERO PUSH2 0x228B JUMPI PUSH1 0x0 DUP2 SSTORE PUSH1 0x1 ADD PUSH2 0x22CB JUMP JUMPDEST PUSH1 0x0 PUSH1 0x20 DUP1 DUP4 MSTORE DUP4 MLOAD DUP1 PUSH1 0x20 DUP6 ADD MSTORE PUSH1 0x0 JUMPDEST DUP2 DUP2 LT ISZERO PUSH2 0x230D JUMPI DUP6 DUP2 ADD DUP4 ADD MLOAD DUP6 DUP3 ADD PUSH1 0x40 ADD MSTORE DUP3 ADD PUSH2 0x22F1 JUMP JUMPDEST POP PUSH1 0x0 PUSH1 0x40 DUP3 DUP7 ADD ADD MSTORE PUSH1 0x40 PUSH1 0x1F NOT PUSH1 0x1F DUP4 ADD AND DUP6 ADD ADD SWAP3 POP POP POP SWAP3 SWAP2 POP POP JUMP JUMPDEST PUSH1 0x1 PUSH1 0x1 PUSH1 0xA0 SHL SUB DUP2 AND DUP2 EQ PUSH2 0xE5D JUMPI PUSH1 0x0 DUP1 REVERT JUMPDEST PUSH1 0x0 DUP1 PUSH1 0x40 DUP4 DUP6 SUB SLT ISZERO PUSH2 0x2356 JUMPI PUSH1 0x0 DUP1 REVERT JUMPDEST DUP3 CALLDATALOAD PUSH2 0x2361 DUP2 PUSH2 0x232E JUMP JUMPDEST SWAP5 PUSH1 0x20 SWAP4 SWAP1 SWAP4 ADD CALLDATALOAD SWAP4 POP POP POP JUMP JUMPDEST PUSH1 0x0 PUSH1 0x20 DUP3 DUP5 SUB SLT ISZERO PUSH2 0x2381 JUMPI PUSH1 0x0 DUP1 REVERT JUMPDEST POP CALLDATALOAD SWAP2 SWAP1 POP JUMP JUMPDEST PUSH1 0x0 DUP1 PUSH1 0x0 PUSH1 0x60 DUP5 DUP7 SUB SLT ISZERO PUSH2 0x239D JUMPI PUSH1 0x0 DUP1 REVERT JUMPDEST DUP4 CALLDATALOAD PUSH2 0x23A8 DUP2 PUSH2 0x232E JUMP JUMPDEST SWAP3 POP PUSH1 0x20 DUP5 ADD CALLDATALOAD PUSH2 0x23B8 DUP2 PUSH2 0x232E JUMP JUMPDEST SWAP3 SWAP6 SWAP3 SWAP5 POP POP POP PUSH1 0x40 SWAP2 SWAP1 SWAP2 ADD CALLDATALOAD SWAP1 JUMP JUMPDEST PUSH1 0x0 PUSH1 0x20 DUP3 DUP5 SUB SLT ISZERO PUSH2 0x23DB JUMPI PUSH1 0x0 DUP1 REVERT JUMPDEST DUP2 CALLDATALOAD PUSH2 0x23E6 DUP2 PUSH2 0x232E JUMP JUMPDEST SWAP4 SWAP3 POP POP POP JUMP JUMPDEST PUSH4 0x4E487B71 PUSH1 0xE0 SHL PUSH1 0x0 MSTORE PUSH1 0x41 PUSH1 0x4 MSTORE PUSH1 0x24 PUSH1 0x0 REVERT JUMPDEST PUSH1 0x40 MLOAD PUSH1 0x1F DUP3 ADD PUSH1 0x1F NOT AND DUP2 ADD PUSH8 0xFFFFFFFFFFFFFFFF DUP2 GT DUP3 DUP3 LT OR ISZERO PUSH2 0x242C JUMPI PUSH2 0x242C PUSH2 0x23ED JUMP JUMPDEST PUSH1 0x40 MSTORE SWAP2 SWAP1 POP JUMP JUMPDEST PUSH1 0x0 PUSH8 0xFFFFFFFFFFFFFFFF DUP3 GT ISZERO PUSH2 0x244E JUMPI PUSH2 0x244E PUSH2 0x23ED JUMP JUMPDEST POP PUSH1 0x5 SHL PUSH1 0x20 ADD SWAP1 JUMP JUMPDEST PUSH1 0x0 DUP3 PUSH1 0x1F DUP4 ADD SLT PUSH2 0x2469 JUMPI PUSH1 0x0 DUP1 REVERT JUMPDEST DUP2 CALLDATALOAD PUSH1 0x20 PUSH2 0x247E PUSH2 0x2479 DUP4 PUSH2 0x2434 JUMP JUMPDEST PUSH2 0x2403 JUMP JUMPDEST DUP1 DUP4 DUP3 MSTORE PUSH1 0x20 DUP3 ADD SWAP2 POP PUSH1 0x20 DUP5 PUSH1 0x5 SHL DUP8 ADD ADD SWAP4 POP DUP7 DUP5 GT ISZERO PUSH2 0x24A0 JUMPI PUSH1 0x0 DUP1 REVERT JUMPDEST PUSH1 0x20 DUP7 ADD JUMPDEST DUP5 DUP2 LT ISZERO PUSH2 0x24C5 JUMPI DUP1 CALLDATALOAD PUSH2 0x24B8 DUP2 PUSH2 0x232E JUMP JUMPDEST DUP4 MSTORE SWAP2 DUP4 ADD SWAP2 DUP4 ADD PUSH2 0x24A5 JUMP JUMPDEST POP SWAP7 SWAP6 POP POP POP POP POP POP JUMP JUMPDEST PUSH1 0x0 DUP1 PUSH1 0x40 DUP4 DUP6 SUB SLT ISZERO PUSH2 0x24E3 JUMPI PUSH1 0x0 DUP1 REVERT JUMPDEST DUP3 CALLDATALOAD PUSH8 0xFFFFFFFFFFFFFFFF DUP2 GT ISZERO PUSH2 0x24FA JUMPI PUSH1 0x0 DUP1 REVERT JUMPDEST PUSH2 0x2506 DUP6 DUP3 DUP7 ADD PUSH2 0x2458 JUMP JUMPDEST SWAP3 POP POP PUSH1 0x20 DUP4 ADD CALLDATALOAD PUSH2 0x2517 DUP2 PUSH2 0x232E JUMP JUMPDEST DUP1 SWAP2 POP POP SWAP3 POP SWAP3 SWAP1 POP JUMP JUMPDEST PUSH1 0x0 DUP2 MLOAD DUP1 DUP5 MSTORE PUSH1 0x20 DUP1 DUP6 ADD SWAP5 POP PUSH1 0x20 DUP5 ADD PUSH1 0x0 JUMPDEST DUP4 DUP2 LT ISZERO PUSH2 0x255C JUMPI DUP2 MLOAD PUSH1 0x1 PUSH1 0x1 PUSH1 0xA0 SHL SUB AND DUP8 MSTORE SWAP6 DUP3 ADD SWAP6 SWAP1 DUP3 ADD SWAP1 PUSH1 0x1 ADD PUSH2 0x2537 JUMP JUMPDEST POP SWAP5 SWAP6 SWAP5 POP POP POP POP POP JUMP JUMPDEST PUSH1 0x20 DUP2 MSTORE PUSH1 0x0 PUSH2 0x23E6 PUSH1 0x20 DUP4 ADD DUP5 PUSH2 0x2522 JUMP JUMPDEST PUSH1 0x0 DUP1 PUSH1 0x40 DUP4 DUP6 SUB SLT ISZERO PUSH2 0x258D JUMPI PUSH1 0x0 DUP1 REVERT JUMPDEST POP POP DUP1 CALLDATALOAD SWAP3 PUSH1 0x20 SWAP1 SWAP2 ADD CALLDATALOAD SWAP2 POP JUMP JUMPDEST PUSH1 0x0 DUP1 PUSH1 0x20 DUP4 DUP6 SUB SLT ISZERO PUSH2 0x25AF JUMPI PUSH1 0x0 DUP1 REVERT JUMPDEST DUP3 CALLDATALOAD PUSH8 0xFFFFFFFFFFFFFFFF DUP1 DUP3 GT ISZERO PUSH2 0x25C7 JUMPI PUSH1 0x0 DUP1 REVERT JUMPDEST DUP2 DUP6 ADD SWAP2 POP DUP6 PUSH1 0x1F DUP4 ADD SLT PUSH2 0x25DB JUMPI PUSH1 0x0 DUP1 REVERT JUMPDEST DUP2 CALLDATALOAD DUP2 DUP2 GT ISZERO PUSH2 0x25EA JUMPI PUSH1 0x0 DUP1 REVERT JUMPDEST DUP7 PUSH1 0x20 DUP3 PUSH1 0x5 SHL DUP6 ADD ADD GT ISZERO PUSH2 0x25FF JUMPI PUSH1 0x0 DUP1 REVERT JUMPDEST PUSH1 0x20 SWAP3 SWAP1 SWAP3 ADD SWAP7 SWAP2 SWAP6 POP SWAP1 SWAP4 POP POP POP POP JUMP JUMPDEST PUSH1 0x20 DUP1 DUP3 MSTORE DUP3 MLOAD DUP3 DUP3 ADD DUP2 SWAP1 MSTORE PUSH1 0x0 SWAP2 SWAP1 DUP5 DUP3 ADD SWAP1 PUSH1 0x40 DUP6 ADD SWAP1 DUP5 JUMPDEST DUP2 DUP2 LT ISZERO PUSH2 0x2649 JUMPI DUP4 MLOAD DUP4 MSTORE SWAP3 DUP5 ADD SWAP3 SWAP2 DUP5 ADD SWAP2 PUSH1 0x1 ADD PUSH2 0x262D JUMP JUMPDEST POP SWAP1 SWAP7 SWAP6 POP POP POP POP POP POP JUMP JUMPDEST PUSH1 0x0 DUP1 PUSH1 0x0 DUP1 PUSH1 0x80 DUP6 DUP8 SUB SLT ISZERO PUSH2 0x266B JUMPI PUSH1 0x0 DUP1 REVERT JUMPDEST DUP5 CALLDATALOAD PUSH8 0xFFFFFFFFFFFFFFFF DUP1 DUP3 GT ISZERO PUSH2 0x2683 JUMPI PUSH1 0x0 DUP1 REVERT JUMPDEST PUSH2 0x268F DUP9 DUP4 DUP10 ADD PUSH2 0x2458 JUMP JUMPDEST SWAP6 POP PUSH1 0x20 SWAP2 POP DUP2 DUP8 ADD CALLDATALOAD DUP2 DUP2 GT ISZERO PUSH2 0x26A6 JUMPI PUSH1 0x0 DUP1 REVERT JUMPDEST DUP8 ADD PUSH1 0x1F DUP2 ADD DUP10 SGT PUSH2 0x26B7 JUMPI PUSH1 0x0 DUP1 REVERT JUMPDEST DUP1 CALLDATALOAD PUSH2 0x26C5 PUSH2 0x2479 DUP3 PUSH2 0x2434 JUMP JUMPDEST DUP2 DUP2 MSTORE PUSH1 0x5 SWAP2 SWAP1 SWAP2 SHL DUP3 ADD DUP5 ADD SWAP1 DUP5 DUP2 ADD SWAP1 DUP12 DUP4 GT ISZERO PUSH2 0x26E4 JUMPI PUSH1 0x0 DUP1 REVERT JUMPDEST SWAP3 DUP6 ADD SWAP3 JUMPDEST DUP3 DUP5 LT ISZERO PUSH2 0x2702 JUMPI DUP4 CALLDATALOAD DUP3 MSTORE SWAP3 DUP6 ADD SWAP3 SWAP1 DUP6 ADD SWAP1 PUSH2 0x26E9 JUMP JUMPDEST SWAP8 POP POP POP POP PUSH1 0x40 DUP8 ADD CALLDATALOAD SWAP4 POP PUSH1 0x60 DUP8 ADD CALLDATALOAD SWAP2 POP DUP1 DUP3 GT ISZERO PUSH2 0x2722 JUMPI PUSH1 0x0 DUP1 REVERT JUMPDEST POP PUSH2 0x272F DUP8 DUP3 DUP9 ADD PUSH2 0x2458 JUMP JUMPDEST SWAP2 POP POP SWAP3 SWAP6 SWAP2 SWAP5 POP SWAP3 POP JUMP JUMPDEST PUSH1 0x0 DUP1 PUSH1 0x40 DUP4 DUP6 SUB SLT ISZERO PUSH2 0x274E JUMPI PUSH1 0x0 DUP1 REVERT JUMPDEST DUP3 CALLDATALOAD PUSH2 0x2759 DUP2 PUSH2 0x232E JUMP JUMPDEST SWAP2 POP PUSH1 0x20 DUP4 ADD CALLDATALOAD PUSH2 0x2517 DUP2 PUSH2 0x232E JUMP JUMPDEST PUSH1 0x0 DUP1 PUSH1 0x40 DUP4 DUP6 SUB SLT ISZERO PUSH2 0x277C JUMPI PUSH1 0x0 DUP1 REVERT JUMPDEST DUP3 CALLDATALOAD SWAP2 POP PUSH1 0x20 DUP4 ADD CALLDATALOAD PUSH8 0xFFFFFFFFFFFFFFFF DUP2 GT ISZERO PUSH2 0x279A JUMPI PUSH1 0x0 DUP1 REVERT JUMPDEST PUSH2 0x27A6 DUP6 DUP3 DUP7 ADD PUSH2 0x2458 JUMP JUMPDEST SWAP2 POP POP SWAP3 POP SWAP3 SWAP1 POP JUMP JUMPDEST PUSH1 0x1 DUP2 DUP2 SHR SWAP1 DUP3 AND DUP1 PUSH2 0x27C4 JUMPI PUSH1 0x7F DUP3 AND SWAP2 POP JUMPDEST PUSH1 0x20 DUP3 LT DUP2 SUB PUSH2 0x27E4 JUMPI PUSH4 0x4E487B71 PUSH1 0xE0 SHL PUSH1 0x0 MSTORE PUSH1 0x22 PUSH1 0x4 MSTORE PUSH1 0x24 PUSH1 0x0 REVERT JUMPDEST POP SWAP2 SWAP1 POP JUMP JUMPDEST PUSH1 0x0 PUSH1 0x20 DUP3 DUP5 SUB SLT ISZERO PUSH2 0x27FC JUMPI PUSH1 0x0 DUP1 REVERT JUMPDEST POP MLOAD SWAP2 SWAP1 POP JUMP JUMPDEST PUSH4 0x4E487B71 PUSH1 0xE0 SHL PUSH1 0x0 MSTORE PUSH1 0x11 PUSH1 0x4 MSTORE PUSH1 0x24 PUSH1 0x0 REVERT JUMPDEST DUP1 DUP3 ADD DUP1 DUP3 GT ISZERO PUSH2 0x85E JUMPI PUSH2 0x85E PUSH2 0x2803 JUMP JUMPDEST PUSH4 0x4E487B71 PUSH1 0xE0 SHL PUSH1 0x0 MSTORE PUSH1 0x32 PUSH1 0x4 MSTORE PUSH1 0x24 PUSH1 0x0 REVERT JUMPDEST PUSH1 0x0 DUP3 PUSH2 0x285F JUMPI PUSH4 0x4E487B71 PUSH1 0xE0 SHL PUSH1 0x0 MSTORE PUSH1 0x12 PUSH1 0x4 MSTORE PUSH1 0x24 PUSH1 0x0 REVERT JUMPDEST POP DIV SWAP1 JUMP JUMPDEST PUSH1 0x0 PUSH1 0x20 DUP1 DUP4 DUP6 SUB SLT ISZERO PUSH2 0x2877 JUMPI PUSH1 0x0 DUP1 REVERT JUMPDEST DUP3 MLOAD PUSH8 0xFFFFFFFFFFFFFFFF DUP2 GT ISZERO PUSH2 0x288E JUMPI PUSH1 0x0 DUP1 REVERT JUMPDEST DUP4 ADD PUSH1 0x1F DUP2 ADD DUP6 SGT PUSH2 0x289F JUMPI PUSH1 0x0 DUP1 REVERT JUMPDEST DUP1 MLOAD PUSH2 0x28AD PUSH2 0x2479 DUP3 PUSH2 0x2434 JUMP JUMPDEST DUP2 DUP2 MSTORE PUSH1 0x5 SWAP2 SWAP1 SWAP2 SHL DUP3 ADD DUP4 ADD SWAP1 DUP4 DUP2 ADD SWAP1 DUP8 DUP4 GT ISZERO PUSH2 0x28CC JUMPI PUSH1 0x0 DUP1 REVERT JUMPDEST SWAP3 DUP5 ADD SWAP3 JUMPDEST DUP3 DUP5 LT ISZERO PUSH2 0x28F3 JUMPI DUP4 MLOAD PUSH2 0x28E4 DUP2 PUSH2 0x232E JUMP JUMPDEST DUP3 MSTORE SWAP3 DUP5 ADD SWAP3 SWAP1 DUP5 ADD SWAP1 PUSH2 0x28D1 JUMP JUMPDEST SWAP8 SWAP7 POP POP POP POP POP POP POP JUMP JUMPDEST PUSH1 0x0 PUSH1 0x1 DUP3 ADD PUSH2 0x2910 JUMPI PUSH2 0x2910 PUSH2 0x2803 JUMP JUMPDEST POP PUSH1 0x1 ADD SWAP1 JUMP JUMPDEST DUP2 DUP2 SUB DUP2 DUP2 GT ISZERO PUSH2 0x85E JUMPI PUSH2 0x85E PUSH2 0x2803 JUMP JUMPDEST PUSH1 0x20 DUP1 DUP3 MSTORE PUSH1 0x21 SWAP1 DUP3 ADD MSTORE PUSH32 0x416D6F756E74206D7573742062652067726561746572207468616E207A65726F PUSH1 0x40 DUP3 ADD MSTORE PUSH1 0x17 PUSH1 0xF9 SHL PUSH1 0x60 DUP3 ADD MSTORE PUSH1 0x80 ADD SWAP1 JUMP JUMPDEST DUP3 DUP2 MSTORE PUSH1 0x40 PUSH1 0x20 DUP3 ADD MSTORE PUSH1 0x0 PUSH2 0x2984 PUSH1 0x40 DUP4 ADD DUP5 PUSH2 0x2522 JUMP JUMPDEST SWAP5 SWAP4 POP POP POP POP JUMP JUMPDEST PUSH1 0x20 DUP1 DUP3 MSTORE PUSH1 0x26 SWAP1 DUP3 ADD MSTORE PUSH32 0x43616C6C6572206D7573742062652074686520536D6172746E6F6465734D756C PUSH1 0x40 DUP3 ADD MSTORE PUSH6 0x3A34A9B4B397 PUSH1 0xD1 SHL PUSH1 0x60 DUP3 ADD MSTORE PUSH1 0x80 ADD SWAP1 JUMP JUMPDEST DUP1 DUP3 MUL DUP2 ISZERO DUP3 DUP3 DIV DUP5 EQ OR PUSH2 0x85E JUMPI PUSH2 0x85E PUSH2 0x2803 JUMP JUMPDEST PUSH1 0x0 PUSH1 0x20 DUP3 DUP5 SUB SLT ISZERO PUSH2 0x29FB JUMPI PUSH1 0x0 DUP1 REVERT JUMPDEST DUP2 MLOAD DUP1 ISZERO ISZERO DUP2 EQ PUSH2 0x23E6 JUMPI PUSH1 0x0 DUP1 REVERT JUMPDEST PUSH1 0x20 DUP1 DUP3 MSTORE PUSH1 0x2B SWAP1 DUP3 ADD MSTORE PUSH32 0x496E697469616C697A61626C653A20636F6E7472616374206973206E6F742069 PUSH1 0x40 DUP3 ADD MSTORE PUSH11 0x6E697469616C697A696E67 PUSH1 0xA8 SHL PUSH1 0x60 DUP3 ADD MSTORE PUSH1 0x80 ADD SWAP1 JUMP JUMPDEST PUSH1 0x1F DUP3 GT ISZERO PUSH2 0xB02 JUMPI PUSH1 0x0 DUP2 PUSH1 0x0 MSTORE PUSH1 0x20 PUSH1 0x0 KECCAK256 PUSH1 0x1F DUP6 ADD PUSH1 0x5 SHR DUP2 ADD PUSH1 0x20 DUP7 LT ISZERO PUSH2 0x2A7F JUMPI POP DUP1 JUMPDEST PUSH1 0x1F DUP6 ADD PUSH1 0x5 SHR DUP3 ADD SWAP2 POP JUMPDEST DUP2 DUP2 LT ISZERO PUSH2 0x2A9E JUMPI DUP3 DUP2 SSTORE PUSH1 0x1 ADD PUSH2 0x2A8B JUMP JUMPDEST POP POP POP POP POP POP JUMP JUMPDEST DUP2 MLOAD PUSH8 0xFFFFFFFFFFFFFFFF DUP2 GT ISZERO PUSH2 0x2AC0 JUMPI PUSH2 0x2AC0 PUSH2 0x23ED JUMP JUMPDEST PUSH2 0x2AD4 DUP2 PUSH2 0x2ACE DUP5 SLOAD PUSH2 0x27B0 JUMP JUMPDEST DUP5 PUSH2 0x2A56 JUMP JUMPDEST PUSH1 0x20 DUP1 PUSH1 0x1F DUP4 GT PUSH1 0x1 DUP2 EQ PUSH2 0x2B09 JUMPI PUSH1 0x0 DUP5 ISZERO PUSH2 0x2AF1 JUMPI POP DUP6 DUP4 ADD MLOAD JUMPDEST PUSH1 0x0 NOT PUSH1 0x3 DUP7 SWAP1 SHL SHR NOT AND PUSH1 0x1 DUP6 SWAP1 SHL OR DUP6 SSTORE PUSH2 0x2A9E JUMP JUMPDEST PUSH1 0x0 DUP6 DUP2 MSTORE PUSH1 0x20 DUP2 KECCAK256 PUSH1 0x1F NOT DUP7 AND SWAP2 JUMPDEST DUP3 DUP2 LT ISZERO PUSH2 0x2B38 JUMPI DUP9 DUP7 ADD MLOAD DUP3 SSTORE SWAP5 DUP5 ADD SWAP5 PUSH1 0x1 SWAP1 SWAP2 ADD SWAP1 DUP5 ADD PUSH2 0x2B19 JUMP JUMPDEST POP DUP6 DUP3 LT ISZERO PUSH2 0x2B56 JUMPI DUP8 DUP6 ADD MLOAD PUSH1 0x0 NOT PUSH1 0x3 DUP9 SWAP1 SHL PUSH1 0xF8 AND SHR NOT AND DUP2 SSTORE JUMPDEST POP POP POP POP POP PUSH1 0x1 SWAP1 DUP2 SHL ADD SWAP1 SSTORE POP JUMP INVALID LOG2 PUSH5 0x6970667358 0x22 SLT KECCAK256 PUSH28 0xD1E2785C7523D73D7402307B2B5ECAAD8E09AA5D240B2BDE8937532D DUP1 SUB 0xD8 PUSH5 0x736F6C6343 STOP ADDMOD NOT STOP CALLER ",
  "sha1": "5f844d55bab4248dbe5ec59c1abbe002692a3eb7",
  "source": "// SPDX-License-Identifier: MIT\npragma solidity ^0.8.5;\n\nimport \"@openzeppelin-upgradeable/contracts/token/ERC20/ERC20Upgradeable.sol\";\nimport \"./interfaces/ISmartnodesMultiSig.sol\";\n\n/**\n * @title SmartNodes\n * @dev An ERC20 contract for managing off-chain networks\n */\ncontract SmartnodesCore is ERC20Upgradeable {\n    // Validator multi-sig address\n    ISmartnodesMultiSig private _validatorContractInstance;\n    address public validatorContractAddress;\n\n    // Counters for storage indexing / IDs\n    uint256 public validatorIdCounter;\n    uint256 public userIdCounter;\n    uint256 public jobCounter;\n    uint256 public activeValidators;\n    uint256 public minValidators;\n    uint256 public maxValidators;\n\n    // Events\n    event TokensLocked(address indexed validator, uint256 amount);\n    event UnlockInitiated(address indexed validator, uint256 unlockTime);\n    event TokensUnlocked(address indexed validator, uint256 amount);\n    event JobRequested(\n        uint256 indexed jobId,\n        uint256 timestamp,\n        address[] seedValidators\n    );\n    event JobCompleted(uint256 indexed jobId, uint256 timestamp);\n    event JobDisputed(uint256 indexed jobId, uint256 timestamp);\n\n    // User data with key information (address, RSA key hash, reputation)\n    struct User {\n        uint256 id;\n        address userAddress;\n        bytes32 publicKeyHash;\n        uint8 reputation;\n    }\n\n    // Validator data with key information (address, RSA key hash, locked value, reputation, activity)\n    struct Validator {\n        uint256 id;\n        address validatorAddress;\n        bytes32 publicKeyHash;\n        uint256 locked;\n        uint256 unlockTime;\n        uint8 reputation;\n    }\n\n    // Information for  a generic off-chain job (job hash [key for kademlia lookup], seed validators, participants, author, etc)\n    struct Job {\n        uint256 id;\n        address author;\n        address[] seedValidators;\n        address[] workers;\n        uint256[] capacities;\n        bool activity;\n    }\n\n    // ERC20 token supply metrics\n    uint256 public constant MAX_SUPPLY = 21_000_000e18;\n    uint256 constant tailEmission = 1e18;\n\n    uint256 public halving = 2160; // number of state updates until next halving (~3 months)\n    uint256 public emissionRate = 2048e18; // amount of tokens to be emitted per state update\n    uint256 public lockAmount = 50_000e18; // minimum validator locked tokens required\n    uint256 public unlockPeriod = 50400;\n    uint256 public timeSinceLastHalving;\n\n    // Main datastructure mappings via id lookup\n    mapping(uint256 => User) public users;\n    mapping(uint256 => Validator) public validators;\n    mapping(uint256 => Job) public jobs;\n\n    // Helpful mappings\n    mapping(address => uint256) public userIdByAddress;\n    mapping(address => uint256) public validatorIdByAddress;\n    mapping(bytes32 => uint256) public jobIdByUserIdHash; // temporary for validator job creation?\n\n    modifier onlyValidatorMultiSig() {\n        require(\n            msg.sender == validatorContractAddress,\n            \"Caller must be the SmartnodesMultiSig.\"\n        );\n        _;\n    }\n\n    function initialize(\n        address[] memory _leadDevelopers,\n        address _communityWallet\n    ) public initializer {\n        __ERC20_init(\"Smartnodes\", \"SNO\");\n\n        // Set all counters to 1 (when looking up values, 0 = Not found)\n        userIdCounter = 1;\n        jobCounter = 1;\n        validatorIdCounter = 1;\n\n        // Set ERC20 token parameters\n        emissionRate = 2048e18; // amount of tokens to be emitted per state update\n        lockAmount = 50_000e18; // minimum validator locked tokens required\n        halving = 2160;\n        unlockPeriod = 50400; // (seconds)\n        timeSinceLastHalving = 0;\n\n        uint256 devWallets = 2_341_280e18;\n        uint256 communityFunding = 2_000_000e18;\n        uint256 idoAmount = 3_500_000e18;\n        communityFunding += idoAmount; // We are sending the ido amount to the community wallet while we await an initial token sale\n\n        for (uint i = 0; i < _leadDevelopers.length; i++) {\n            _mint(_leadDevelopers[i], devWallets / _leadDevelopers.length);\n        }\n\n        _mint(_communityWallet, communityFunding);\n\n        // Other parameters\n        minValidators = 1;\n        maxValidators = 3;\n    }\n\n    function setValidatorContract(address validatorAddress) external {\n        require(\n            validatorContractAddress == address(0),\n            \"Validator address already set.\"\n        );\n        _validatorContractInstance = ISmartnodesMultiSig(validatorAddress);\n        validatorContractAddress = validatorAddress;\n    }\n\n    /**\n     * @dev Create a User, limit one per address & public key hash (RSA)\n     */\n    function createUser(bytes32 _publicKeyHash) external {\n        // Only one address & public key hash per user.\n        require(userIdByAddress[msg.sender] == 0, \"User already registered.\");\n\n        users[userIdCounter] = User({\n            id: userIdCounter,\n            userAddress: msg.sender,\n            publicKeyHash: _publicKeyHash,\n            reputation: 50\n        });\n\n        userIdByAddress[msg.sender] = userIdCounter;\n        userIdCounter++;\n    }\n\n    /**\n     * @dev Create a Validator, limit one per address & public key hash (RSA), requires locking up sno\n     */\n    function createValidator(\n        bytes32 _publicKeyHash,\n        uint256 _lockAmount\n    ) external {\n        require(\n            validatorIdByAddress[msg.sender] == 0,\n            \"Validator already exists.\"\n        );\n\n        require(\n            balanceOf(msg.sender) >= _lockAmount && _lockAmount >= lockAmount,\n            \"Insufficient token balance.\"\n        );\n\n        // Create validator on SmartnodesCore\n        validators[validatorIdCounter] = Validator({\n            id: validatorIdCounter,\n            validatorAddress: msg.sender,\n            publicKeyHash: _publicKeyHash,\n            locked: lockAmount,\n            unlockTime: 0,\n            reputation: 50\n        });\n\n        validatorIdByAddress[msg.sender] = validatorIdCounter;\n\n        // Lock token in contract\n        _lockTokens(msg.sender, lockAmount);\n\n        validatorIdCounter++;\n    }\n\n    // User Job Requesting Via Chainlink VRF TODO\n    function requestJob(\n        uint256[] calldata _capacities\n    ) external returns (uint256[] memory validatorIds) {\n        uint256 uid = userIdByAddress[msg.sender];\n\n        require(uid != 0, \"User not registered.\");\n        require(_capacities[0] > 0, \"Capacity must be greater zero.\");\n        require(\n            validatorContractAddress != address(0),\n            \"Validator contract not set!\"\n        );\n\n        address[] memory _seedValidators = _validatorContractInstance\n            .generateValidatorCandidates();\n        uint256[] memory _validatorIds = new uint256[](_seedValidators.length);\n\n        for (uint256 i = 0; i < _seedValidators.length; i++) {\n            _validatorIds[i] = validatorIdByAddress[_seedValidators[i]];\n        }\n\n        // Store the job in the jobs mapping\n        jobs[jobCounter] = Job({\n            id: jobCounter,\n            author: msg.sender,\n            seedValidators: _seedValidators,\n            workers: new address[](_capacities.length),\n            capacities: _capacities,\n            activity: true\n        });\n\n        emit JobRequested(jobCounter, block.timestamp, _seedValidators);\n        jobCounter++;\n\n        return _validatorIds;\n    }\n\n    function completeJob(\n        uint256 jobId,\n        address[] memory _workers\n    ) external onlyValidatorMultiSig returns (uint256[] memory) {\n        require(_workers.length == jobs[jobId].capacities.length);\n\n        jobs[jobId].workers = _workers;\n        jobs[jobId].activity = false;\n        // jobIdByUserIdHash[userIdHash] = 0;\n\n        emit JobCompleted(jobId, block.timestamp);\n\n        return jobs[jobId].capacities;\n    }\n\n    function disputeJob(uint256 jobId) external onlyValidatorMultiSig {\n        Job storage job = jobs[jobId];\n        job.activity = false;\n        emit JobDisputed(jobId, block.timestamp);\n    }\n\n    /**\n     * @dev Internal function to lock tokens, callable from other functions\n     */\n    function _lockTokens(address sender, uint256 amount) internal {\n        require(amount > 0, \"Amount must be greater than zero.\");\n        require(balanceOf(sender) >= amount, \"Insufficient balance.\");\n\n        uint256 validatorId = validatorIdByAddress[sender];\n        require(validatorId != 0, \"Validator does not exist.\");\n\n        transferFrom(sender, address(this), amount);\n        validators[validatorId].locked += amount;\n        uint256 totalLocked = validators[validatorId].locked;\n\n        _validatorContractInstance.updateLockedTokens(\n            sender,\n            totalLocked,\n            totalLocked >= lockAmount\n        );\n\n        emit TokensLocked(sender, amount);\n    }\n\n    /**\n     * @dev Validator token unlocking, 30 day withdrawal period.\n     */\n    function lockTokens(uint256 amount) external {\n        _lockTokens(msg.sender, amount);\n    }\n\n    function unlockTokens(uint256 amount) external {\n        uint256 validatorId = validatorIdByAddress[msg.sender];\n        require(validatorId > 0, \"Not a registered validator.\");\n\n        Validator storage validator = validators[validatorId];\n\n        require(amount <= validator.locked, \"Amount exceeds locked balance.\");\n        require(amount > 0, \"Amount must be greater than zero.\");\n\n        // Initialize the unlock time if it's the first unlock attempt\n        if (validator.unlockTime == 0) {\n            validator.unlockTime = block.timestamp + unlockPeriod; // unlocking period\n\n            // Update multisig validator\n            uint256 totalLocked = validator.locked - amount;\n            _validatorContractInstance.updateLockedTokens(\n                msg.sender,\n                totalLocked,\n                totalLocked >= lockAmount\n            );\n\n            emit UnlockInitiated(msg.sender, validator.unlockTime); // Optional: emit an event\n        } else {\n            // On subsequent attempts, check if the unlock period has elapsed\n            require(\n                block.timestamp >= validator.unlockTime,\n                \"Tokens are still locked.\"\n            );\n\n            validator.locked -= amount;\n            _mint(msg.sender, amount); // Mint tokens back to the validator's address\n\n            emit TokensUnlocked(msg.sender, amount); // Optional: emit an event when tokens are unlocked\n        }\n    }\n\n    /**\n     * @dev Mint tokens for updating state rewards, distribute 40/60 among validators and workers\n     * Updates the emission rate and halving accordingly\n     */\n    function mintTokens(\n        address[] memory _workers,\n        uint256[] memory _workerCapacities,\n        uint256 _totalCapacity,\n        address[] memory _validatorsVoted\n    ) external onlyValidatorMultiSig {\n        require(\n            totalSupply() + emissionRate <= MAX_SUPPLY,\n            \"Maximum supply reached!\"\n        );\n\n        if (timeSinceLastHalving >= halving) {\n            if (emissionRate > 1e18) {\n                emissionRate /= 2;\n            }\n        }\n\n        uint256 validatorRewardTotal = (emissionRate * 40) / 100;\n        uint256 workerRewardTotal = (emissionRate * 60) / 100;\n\n        // Distribute rewards for validators equally\n        uint256 validatorReward = validatorRewardTotal /\n            _validatorsVoted.length;\n        for (uint256 v = 0; v < _validatorsVoted.length; v++) {\n            _mint(_validatorsVoted[v], validatorReward);\n        }\n\n        // Distribute rewards for workers\n        for (uint256 w = 0; w < _workers.length; w++) {\n            uint256 reward = ((_workerCapacities[w] * workerRewardTotal) /\n                _totalCapacity);\n            _mint(_workers[w], reward);\n        }\n\n        timeSinceLastHalving++;\n    }\n\n    // Returns a list of all the selected validators for a job request\n    function getJobValidators(\n        uint256 jobId\n    ) external view returns (address[] memory) {\n        require(jobId < jobCounter, \"Invalid job ID\");\n        if (jobs[jobId].id == jobId) {\n            address[] memory jobValidators = jobs[jobId].seedValidators;\n            return jobValidators;\n        } else {\n            revert(\"Job not found!\");\n        }\n    }\n\n    function getValidatorInfo(\n        uint256 _validatorId\n    ) external view returns (bool, bytes32) {\n        require(_validatorId < validatorIdCounter, \"Invalid ID.\");\n        Validator storage _validator = validators[_validatorId];\n        bool isActive = _validatorContractInstance.isActiveValidator(\n            _validator.validatorAddress\n        );\n        return (isActive, _validator.publicKeyHash);\n    }\n\n    function getUserCount() external view returns (uint256) {\n        return userIdCounter - 1;\n    }\n\n    function getValidatorCount() external view returns (uint256) {\n        return validatorIdCounter - 1;\n    }\n\n    function getActiveValidatorCount() external view returns (uint256) {\n        return _validatorContractInstance.getNumValidators();\n    }\n\n    function getEmissionRate() external view returns (uint256) {\n        return emissionRate;\n    }\n\n    function getSupply() external view returns (uint256) {\n        return this.totalSupply();\n    }\n\n    function isLocked(address validatorAddr) external view returns (bool) {\n        uint256 _id = validatorIdByAddress[validatorAddr];\n        return validators[_id].locked >= lockAmount;\n    }\n\n    function getProposees() external view returns (address[] memory) {\n        return _validatorContractInstance.getSelectedValidators();\n    }\n}\n",
  "sourcePath": "contracts/SmartnodesCore.sol",
  "type": "contract"
}