{
  "abi": [
    {
      "anonymous": false,
      "inputs": [
        {
          "indexed": true,
          "internalType": "address",
          "name": "sender",
          "type": "address"
        },
        {
          "indexed": false,
          "internalType": "uint256",
          "name": "amount",
          "type": "uint256"
        }
      ],
      "name": "Deposit",
      "type": "event"
    },
    {
      "anonymous": false,
      "inputs": [
        {
          "indexed": false,
          "internalType": "uint256",
          "name": "proposalId",
          "type": "uint256"
        },
        {
          "indexed": false,
          "internalType": "uint8",
          "name": "proposalNum",
          "type": "uint8"
        },
        {
          "indexed": false,
          "internalType": "bytes32",
          "name": "validatorId",
          "type": "bytes32"
        }
      ],
      "name": "ProposalCreated",
      "type": "event"
    },
    {
      "anonymous": false,
      "inputs": [
        {
          "indexed": false,
          "internalType": "uint256",
          "name": "proposalId",
          "type": "uint256"
        }
      ],
      "name": "ProposalExecuted",
      "type": "event"
    },
    {
      "anonymous": false,
      "inputs": [
        {
          "indexed": false,
          "internalType": "address",
          "name": "reciever",
          "type": "address"
        },
        {
          "indexed": false,
          "internalType": "uint256",
          "name": "amount",
          "type": "uint256"
        }
      ],
      "name": "RewardDistributed",
      "type": "event"
    },
    {
      "anonymous": false,
      "inputs": [
        {
          "indexed": false,
          "internalType": "address",
          "name": "validator",
          "type": "address"
        }
      ],
      "name": "ValidatorAdded",
      "type": "event"
    },
    {
      "anonymous": false,
      "inputs": [
        {
          "indexed": false,
          "internalType": "address",
          "name": "validator",
          "type": "address"
        }
      ],
      "name": "ValidatorRemoved",
      "type": "event"
    },
    {
      "anonymous": false,
      "inputs": [
        {
          "indexed": false,
          "internalType": "uint256",
          "name": "proposalId",
          "type": "uint256"
        },
        {
          "indexed": false,
          "internalType": "address",
          "name": "validator",
          "type": "address"
        }
      ],
      "name": "Voted",
      "type": "event"
    },
    {
      "inputs": [],
      "name": "UPDATE_TIME",
      "outputs": [
        {
          "internalType": "uint256",
          "name": "",
          "type": "uint256"
        }
      ],
      "stateMutability": "view",
      "type": "function"
    },
    {
      "inputs": [
        {
          "internalType": "address",
          "name": "validator",
          "type": "address"
        }
      ],
      "name": "addValidator",
      "outputs": [],
      "stateMutability": "nonpayable",
      "type": "function"
    },
    {
      "inputs": [
        {
          "internalType": "uint8",
          "name": "",
          "type": "uint8"
        },
        {
          "internalType": "address",
          "name": "",
          "type": "address"
        }
      ],
      "name": "approvals",
      "outputs": [
        {
          "internalType": "bool",
          "name": "",
          "type": "bool"
        }
      ],
      "stateMutability": "view",
      "type": "function"
    },
    {
      "inputs": [
        {
          "internalType": "uint8",
          "name": "proposalNum",
          "type": "uint8"
        }
      ],
      "name": "approveTransaction",
      "outputs": [],
      "stateMutability": "nonpayable",
      "type": "function"
    },
    {
      "inputs": [
        {
          "internalType": "enum SmartnodesMultiSig.FunctionType[]",
          "name": "_functionTypes",
          "type": "uint8[]"
        },
        {
          "internalType": "bytes[]",
          "name": "_data",
          "type": "bytes[]"
        }
      ],
      "name": "createProposal",
      "outputs": [],
      "stateMutability": "nonpayable",
      "type": "function"
    },
    {
      "inputs": [
        {
          "internalType": "uint256",
          "name": "",
          "type": "uint256"
        }
      ],
      "name": "currentProposals",
      "outputs": [
        {
          "internalType": "uint256",
          "name": "id",
          "type": "uint256"
        },
        {
          "internalType": "bool",
          "name": "executed",
          "type": "bool"
        },
        {
          "internalType": "uint256",
          "name": "_approvals",
          "type": "uint256"
        }
      ],
      "stateMutability": "view",
      "type": "function"
    },
    {
      "inputs": [
        {
          "internalType": "uint256",
          "name": "",
          "type": "uint256"
        }
      ],
      "name": "currentRoundValidators",
      "outputs": [
        {
          "internalType": "address",
          "name": "",
          "type": "address"
        }
      ],
      "stateMutability": "view",
      "type": "function"
    },
    {
      "inputs": [
        {
          "internalType": "uint256",
          "name": "numValidators",
          "type": "uint256"
        }
      ],
      "name": "generateValidators",
      "outputs": [
        {
          "internalType": "address[]",
          "name": "",
          "type": "address[]"
        }
      ],
      "stateMutability": "view",
      "type": "function"
    },
    {
      "inputs": [],
      "name": "getNumValidators",
      "outputs": [
        {
          "internalType": "uint256",
          "name": "",
          "type": "uint256"
        }
      ],
      "stateMutability": "view",
      "type": "function"
    },
    {
      "inputs": [
        {
          "internalType": "uint256",
          "name": "_proposalId",
          "type": "uint256"
        }
      ],
      "name": "getProposalData",
      "outputs": [
        {
          "components": [
            {
              "internalType": "uint256",
              "name": "id",
              "type": "uint256"
            },
            {
              "internalType": "enum SmartnodesMultiSig.FunctionType[]",
              "name": "functionTypes",
              "type": "uint8[]"
            },
            {
              "internalType": "bytes[]",
              "name": "data",
              "type": "bytes[]"
            },
            {
              "internalType": "bool",
              "name": "executed",
              "type": "bool"
            },
            {
              "internalType": "uint256",
              "name": "_approvals",
              "type": "uint256"
            }
          ],
          "internalType": "struct SmartnodesMultiSig.Proposal",
          "name": "",
          "type": "tuple"
        }
      ],
      "stateMutability": "view",
      "type": "function"
    },
    {
      "inputs": [],
      "name": "getSelectedValidators",
      "outputs": [
        {
          "internalType": "address[]",
          "name": "",
          "type": "address[]"
        }
      ],
      "stateMutability": "view",
      "type": "function"
    },
    {
      "inputs": [],
      "name": "getState",
      "outputs": [
        {
          "internalType": "uint256",
          "name": "",
          "type": "uint256"
        },
        {
          "internalType": "uint256",
          "name": "",
          "type": "uint256"
        },
        {
          "internalType": "uint256",
          "name": "",
          "type": "uint256"
        },
        {
          "internalType": "address[]",
          "name": "",
          "type": "address[]"
        }
      ],
      "stateMutability": "view",
      "type": "function"
    },
    {
      "inputs": [
        {
          "internalType": "address",
          "name": "",
          "type": "address"
        }
      ],
      "name": "hasSubmittedProposal",
      "outputs": [
        {
          "internalType": "bool",
          "name": "",
          "type": "bool"
        }
      ],
      "stateMutability": "view",
      "type": "function"
    },
    {
      "inputs": [
        {
          "internalType": "address",
          "name": "target",
          "type": "address"
        }
      ],
      "name": "initialize",
      "outputs": [],
      "stateMutability": "nonpayable",
      "type": "function"
    },
    {
      "inputs": [
        {
          "internalType": "address",
          "name": "_validatorAddress",
          "type": "address"
        }
      ],
      "name": "isActiveValidator",
      "outputs": [
        {
          "internalType": "bool",
          "name": "",
          "type": "bool"
        }
      ],
      "stateMutability": "view",
      "type": "function"
    },
    {
      "inputs": [
        {
          "internalType": "address",
          "name": "",
          "type": "address"
        }
      ],
      "name": "isValidator",
      "outputs": [
        {
          "internalType": "bool",
          "name": "",
          "type": "bool"
        }
      ],
      "stateMutability": "view",
      "type": "function"
    },
    {
      "inputs": [],
      "name": "lastProposalTime",
      "outputs": [
        {
          "internalType": "uint256",
          "name": "",
          "type": "uint256"
        }
      ],
      "stateMutability": "view",
      "type": "function"
    },
    {
      "inputs": [
        {
          "internalType": "address",
          "name": "",
          "type": "address"
        }
      ],
      "name": "lockedTokens",
      "outputs": [
        {
          "internalType": "uint256",
          "name": "locked",
          "type": "uint256"
        },
        {
          "internalType": "bool",
          "name": "enough",
          "type": "bool"
        }
      ],
      "stateMutability": "view",
      "type": "function"
    },
    {
      "inputs": [],
      "name": "maxStateUpdates",
      "outputs": [
        {
          "internalType": "uint256",
          "name": "",
          "type": "uint256"
        }
      ],
      "stateMutability": "view",
      "type": "function"
    },
    {
      "inputs": [],
      "name": "nValidators",
      "outputs": [
        {
          "internalType": "uint8",
          "name": "",
          "type": "uint8"
        }
      ],
      "stateMutability": "view",
      "type": "function"
    },
    {
      "inputs": [],
      "name": "nextProposalId",
      "outputs": [
        {
          "internalType": "uint256",
          "name": "",
          "type": "uint256"
        }
      ],
      "stateMutability": "view",
      "type": "function"
    },
    {
      "inputs": [
        {
          "internalType": "uint256",
          "name": "",
          "type": "uint256"
        }
      ],
      "name": "proposals",
      "outputs": [
        {
          "internalType": "uint256",
          "name": "id",
          "type": "uint256"
        },
        {
          "internalType": "bool",
          "name": "executed",
          "type": "bool"
        },
        {
          "internalType": "uint256",
          "name": "_approvals",
          "type": "uint256"
        }
      ],
      "stateMutability": "view",
      "type": "function"
    },
    {
      "inputs": [],
      "name": "randomRequestId",
      "outputs": [
        {
          "internalType": "uint256",
          "name": "",
          "type": "uint256"
        }
      ],
      "stateMutability": "view",
      "type": "function"
    },
    {
      "inputs": [
        {
          "internalType": "address",
          "name": "validator",
          "type": "address"
        }
      ],
      "name": "removeValidator",
      "outputs": [],
      "stateMutability": "nonpayable",
      "type": "function"
    },
    {
      "inputs": [],
      "name": "requiredApprovals",
      "outputs": [
        {
          "internalType": "uint256",
          "name": "",
          "type": "uint256"
        }
      ],
      "stateMutability": "view",
      "type": "function"
    },
    {
      "inputs": [],
      "name": "requiredApprovalsPercentage",
      "outputs": [
        {
          "internalType": "uint256",
          "name": "",
          "type": "uint256"
        }
      ],
      "stateMutability": "view",
      "type": "function"
    },
    {
      "inputs": [],
      "name": "smartnodesContractAddress",
      "outputs": [
        {
          "internalType": "address",
          "name": "",
          "type": "address"
        }
      ],
      "stateMutability": "view",
      "type": "function"
    },
    {
      "inputs": [
        {
          "internalType": "address",
          "name": "_validator",
          "type": "address"
        },
        {
          "internalType": "uint256",
          "name": "locked",
          "type": "uint256"
        },
        {
          "internalType": "bool",
          "name": "enough",
          "type": "bool"
        }
      ],
      "name": "updateLockedTokens",
      "outputs": [],
      "stateMutability": "nonpayable",
      "type": "function"
    },
    {
      "inputs": [
        {
          "internalType": "uint256",
          "name": "",
          "type": "uint256"
        }
      ],
      "name": "validators",
      "outputs": [
        {
          "internalType": "address",
          "name": "",
          "type": "address"
        }
      ],
      "stateMutability": "view",
      "type": "function"
    },
    {
      "stateMutability": "payable",
      "type": "receive"
    }
  ],
  "bytecode": "6080604052348015600f57600080fd5b50612f1f8061001f6000396000f3fe6080604052600436106101c65760003560e01c806391e2e252116100f7578063d088650a11610095578063f082e37911610064578063f082e379146105cc578063f3869039146105ec578063facd743b14610627578063fbcca2731461065757600080fd5b8063d088650a14610553578063ddaa545014610569578063e2a8f6f21461057f578063e8bb5946146105ac57600080fd5b8063a6f9ed81116100d1578063a6f9ed81146104d3578063b6ceecb7146104f3578063bd42318414610513578063c4d66de81461053357600080fd5b806391e2e2521461047857806399c1aadc1461048d5780639a171629146104a357600080fd5b806340a141ff1161016457806354d9d6141161013e57806354d9d614146103c95780635eb7413a146103e95780636e768530146104355780638d323a8b1461046257600080fd5b806340a141ff14610371578063473967c9146103935780634d238c8e146103a957600080fd5b80632ab09d14116101a05780632ab09d14146102b757806335aa2e44146102db578063368515bc1461031357806340550a1c1461032857600080fd5b8063013cf08b146102075780630833c91a146102665780631865c57d1461029257600080fd5b366102025760405134815233907fe1fffcc4923d04b559f4d29a8bfc6cda04eb5b0d3c460751c2402c5c5cc9109c9060200160405180910390a2005b600080fd5b34801561021357600080fd5b506102466102223660046124f9565b600f60205260009081526040902080546003820154600490920154909160ff169083565b604080519384529115156020840152908201526060015b60405180910390f35b34801561027257600080fd5b506009546102809060ff1681565b60405160ff909116815260200161025d565b34801561029e57600080fd5b506102a761066c565b60405161025d9493929190612557565b3480156102c357600080fd5b506102cd60085481565b60405190815260200161025d565b3480156102e757600080fd5b506102fb6102f63660046124f9565b6106eb565b6040516001600160a01b03909116815260200161025d565b34801561031f57600080fd5b506102cd600081565b34801561033457600080fd5b5061036161034336600461259b565b6001600160a01b03166000908152600d602052604090205460ff1690565b604051901515815260200161025d565b34801561037d57600080fd5b5061039161038c36600461259b565b610715565b005b34801561039f57600080fd5b506102cd60035481565b3480156103b557600080fd5b506103916103c436600461259b565b6107b1565b3480156103d557600080fd5b506103916103e43660046125d5565b610967565b3480156103f557600080fd5b5061042061040436600461259b565b600e602052600090815260409020805460019091015460ff1682565b6040805192835290151560208301520161025d565b34801561044157600080fd5b506104556104503660046124f9565b610ac8565b60405161025d919061268e565b34801561046e57600080fd5b506102cd60075481565b34801561048457600080fd5b50600a546102cd565b34801561049957600080fd5b506102cd60025481565b3480156104af57600080fd5b506103616104be36600461259b565b60106020526000908152604090205460ff1681565b3480156104df57600080fd5b506006546102fb906001600160a01b031681565b3480156104ff57600080fd5b5061039161050e366004612741565b610c9a565b34801561051f57600080fd5b5061024661052e3660046124f9565b610d34565b34801561053f57600080fd5b5061039161054e36600461259b565b610d6d565b34801561055f57600080fd5b506102cd60045481565b34801561057557600080fd5b506102cd60015481565b34801561058b57600080fd5b5061059f61059a3660046124f9565b610e60565b60405161025d9190612788565b3480156105b857600080fd5b506102fb6105c73660046124f9565b61104c565b3480156105d857600080fd5b506103916105e73660046128f0565b61105c565b3480156105f857600080fd5b506103616106073660046129b7565b601160209081526000928352604080842090915290825290205460ff1681565b34801561063357600080fd5b5061036161064236600461259b565b600d6020526000908152604090205460ff1681565b34801561066357600080fd5b5061059f611409565b60008060006060600454600854600a80549050600b808054806020026020016040519081016040528092919081815260200182805480156106d657602002820191906000526020600020905b81546001600160a01b031681526001909101906020018083116106b8575b50505050509050935093509350935090919293565b600a81815481106106fb57600080fd5b6000918252602090912001546001600160a01b0316905081565b336000908152600d602052604090205460ff1661074d5760405162461bcd60e51b8152600401610744906129ee565b60405180910390fd5b336001600160a01b038216146107a55760405162461bcd60e51b815260206004820181905260248201527f43616e6e6f742072656d6f766520616e6f746865722076616c696461746f72216044820152606401610744565b6107ae8161146b565b50565b6001600160a01b0381166000908152600e602052604090206001015460ff166108425760405162461bcd60e51b815260206004820152603a60248201527f56616c696461746f72206d757374206265207265676973746572656420616e6460448201527f206c6f636b6564206f6e20536d6172746e6f646573436f7265210000000000006064820152608401610744565b6001600160a01b0381166000908152600d602052604090205460ff16156108bc5760405162461bcd60e51b815260206004820152602860248201527f56616c696461746f7220616c72656164792072656769737465726564206f6e206044820152674d756c747369672160c01b6064820152608401610744565b600a805460018082019092557fc65a7bb8d6351c1cf70c95a316cc6a92839c986682d98bc35f958f4883f9d2a80180546001600160a01b0319166001600160a01b0384169081179091556000908152600d60205260409020805460ff19169091179055610927611631565b6040516001600160a01b03821681527fe366c1c0452ed8eec96861e9e54141ebff23c9ec89fe27b996b45f5ec3884987906020015b60405180910390a150565b60ff808216600090815260116020908152604080832033845290915290205416156109e95760405162461bcd60e51b815260206004820152602c60248201527f56616c696461746f7220616c726561647920766f746564206f6e20746869732060448201526b7472616e73616374696f6e2160a01b6064820152608401610744565b336000908152600d602052604081205460ff1615159003610a0d57610a0d336107b1565b6000600c8260ff1681548110610a2557610a25612a34565b6000918252602080832060ff86168452601182526040808520338652909252908320805460ff19166001179055600460059092020190810180549193509091610a6d83612a60565b90915550506040805160ff841681523360208201527f030b0f8dcd86a031eddb071f91882edeac8173663ba775713b677b42b51be44b910160405180910390a1600254816004015410610ac457610ac4818361166c565b5050565b610afc6040518060a00160405280600081526020016060815260200160608152602001600015158152602001600081525090565b6000828152600f6020908152604091829020825160a0810184528154815260018201805485518186028101860190965280865291949293858101939290830182828015610b9857602002820191906000526020600020906000905b82829054906101000a900460ff166002811115610b7657610b766125f0565b815260206001928301818104948501949093039092029101808411610b575790505b5050505050815260200160028201805480602002602001604051908101604052809291908181526020016000905b82821015610c72578382906000526020600020018054610be590612a79565b80601f0160208091040260200160405190810160405280929190818152602001828054610c1190612a79565b8015610c5e5780601f10610c3357610100808354040283529160200191610c5e565b820191906000526020600020905b815481529060010190602001808311610c4157829003601f168201915b505050505081526020019060010190610bc6565b50505090825250600382015460ff161515602082015260049091015460409091015292915050565b6006546001600160a01b03163314610d035760405162461bcd60e51b815260206004820152602660248201527f43616c6c6572206d7573742062652074686520536d6172746e6f6465734d756c6044820152653a34a9b4b39760d11b6064820152608401610744565b6001600160a01b03929092166000908152600e60205260409020908155600101805460ff1916911515919091179055565b600c8181548110610d4457600080fd5b600091825260209091206005909102018054600382015460049092015490925060ff9091169083565b600054610100900460ff16610d885760005460ff1615610d8c565b303b155b610def5760405162461bcd60e51b815260206004820152602e60248201527f496e697469616c697a61626c653a20636f6e747261637420697320616c72656160448201526d191e481a5b9a5d1a585b1a5e995960921b6064820152608401610744565b600054610100900460ff16158015610e11576000805461ffff19166101011790555b600680546001600160a01b0384166001600160a01b031991821681179092556014600355600580549091169091179055600060045560416001558015610ac4576000805461ff00191690555050565b600a546060908210610eb45760405162461bcd60e51b815260206004820152601d60248201527f4e6f7420656e6f756768206163746976652076616c696461746f7273210000006044820152606401610744565b600a548210610f375760405162461bcd60e51b815260206004820152604360248201527f546f6f206d616e792076616c696461746f72732c206d757374206265206c657360448201527f73207468616e206e756d626572206f66206163746976652076616c696461746f60648201526272732160e81b608482015260a401610744565b60008267ffffffffffffffff811115610f5257610f5261279b565b604051908082528060200260200182016040528015610f7b578160200160208202803683370190505b5090506000805b8481101561104357600a5460408051426020820152339181019190915260608101839052600091906080016040516020818303038152906040528051906020012060001c610fd09190612ac9565b9050600a8181548110610fe557610fe5612a34565b9060005260206000200160009054906101000a90046001600160a01b031684838151811061101557611015612a34565b6001600160a01b03909216602092830291909101909101528261103781612a60565b93505050600101610f82565b50909392505050565b600b81815481106106fb57600080fd5b6110653361205b565b806110705750600b54155b6110d75760405162461bcd60e51b815260206004820152603260248201527f43616c6c6572206973206e6f7420612073656c65637465642076616c696461746044820152716f7220666f72207468697320726f756e642160701b6064820152608401610744565b3360009081526010602052604090205460ff16156111565760405162461bcd60e51b815260206004820152603660248201527f56616c696461746f722068617320616c7265616479207375626d697474656420604482015275612070726f706f73616c207468697320726f756e642160501b6064820152608401610744565b6000600454426111669190612add565b10156111ee5760405162461bcd60e51b815260206004820152604b60248201527f50726f706f73616c73206d757374206265207375626d6974746564206166746560448201527f72205550444154455f54494d452073696e6365206c61737420617070726f766560648201526a642070726f706f73616c2160a81b608482015260a401610744565b80518251146112525760405162461bcd60e51b815260206004820152602a60248201527f46756e6374696f6e20747970657320616e642064617461206c656e677468206d604482015269757374206d617463682160b01b6064820152608401610744565b6040805160a0810182526008548152602080820185815292820184905260006060830181905260808301819052600c8054600181018255915282517fdf6966c971051c3d54ec59162606531493a51404a002842f56009d7e5cf4a8c76005909202918201908155935180519394859490936112f1937fdf6966c971051c3d54ec59162606531493a51404a002842f56009d7e5cf4a8c80192019061232a565b506040820151805161130d9160028401916020909101906123de565b50606082015160038201805491151560ff1992831617905560809092015160049182015533600081815260106020526040808220805490951660011790945560055493516318bec03f60e21b815292830191909152916001600160a01b0316906362fb00fc90602401602060405180830381865afa158015611393573d6000803e3d6000fd5b505050506040513d601f19601f820116820180604052508101906113b79190612af6565b600854600c546040805192835260ff909116602083015281018290529091507f2e2aa07026498b94dd9dd36aad3f981a808e2230fef0dedd41b77374c71196a69060600160405180910390a150505050565b6060600b80548060200260200160405190810160405280929190818152602001828054801561146157602002820191906000526020600020905b81546001600160a01b03168152600190910190602001808311611443575b5050505050905090565b6001600160a01b0381166000908152600d602052604090205460ff166114d35760405162461bcd60e51b815260206004820152601960248201527f56616c696461746f72206e6f74207265676973746572656421000000000000006044820152606401610744565b6001600160a01b0381166000908152600d60205260408120805460ff191690555b600a548110156115ef57816001600160a01b0316600a828154811061151b5761151b612a34565b6000918252602090912001546001600160a01b0316036115e757600a805461154590600190612add565b8154811061155557611555612a34565b600091825260209091200154600a80546001600160a01b03909216918390811061158157611581612a34565b9060005260206000200160006101000a8154816001600160a01b0302191690836001600160a01b03160217905550600a8054806115c0576115c0612b0f565b600082815260209020810160001990810180546001600160a01b03191690550190556115ef565b6001016114f4565b506115f8611631565b6040516001600160a01b03821681527fe1434e25d6611e0db941968fdc97811c982ac1602e951637d206f5fdda9dd8f19060200161095c565b600154600a5460649161164391612b25565b61164e906050612b3c565b6116589190612b4f565b600281905560000361166a5760016002555b565b336000908152600d602052604090205460ff1661169b5760405162461bcd60e51b8152600401610744906129ee565b600382015460ff16156116f05760405162461bcd60e51b815260206004820152601a60248201527f50726f706f73616c20616c72656164792065786563757465642e0000000000006044820152606401610744565b600354600183015411156117515760405162461bcd60e51b815260206004820152602260248201527f4d757374206e6f7420657863656564206d617820737461746520757064617465604482015261732160f01b6064820152608401610744565b6000805b600184015481101561188a57600284600101828154811061177857611778612a34565b90600052602060002090602091828204019190069054906101000a900460ff1660028111156117a9576117a96125f0565b03611882576000808560020183815481106117c6576117c6612a34565b9060005260206000200180546117db90612a79565b80601f016020809104026020016040519081016040528092919081815260200182805461180790612a79565b80156118545780601f1061182957610100808354040283529160200191611854565b820191906000526020600020905b81548152906001019060200180831161183757829003601f168201915b505050505080602001905181019061186c9190612bd6565b9150915080518461187d9190612b3c565b935050505b600101611755565b5060008167ffffffffffffffff8111156118a6576118a661279b565b6040519080825280602002602001820160405280156118cf578160200160208202803683370190505b50905060008267ffffffffffffffff8111156118ed576118ed61279b565b604051908082528060200260200182016040528015611916578160200160208202803683370190505b50905060008060005b6001880154811015611e3d57600088600101828154811061194257611942612a34565b90600052602060002090602091828204019190069054906101000a900460ff166002811115611973576119736125f0565b03611a4657600088600201828154811061198f5761198f612a34565b9060005260206000200180546119a490612a79565b80601f01602080910402602001604051908101604052809291908181526020018280546119d090612a79565b8015611a1d5780601f106119f257610100808354040283529160200191611a1d565b820191906000526020600020905b815481529060010190602001808311611a0057829003601f168201915b5050505050806020019051810190611a359190612c13565b9050611a408161146b565b50611e35565b6001886001018281548110611a5d57611a5d612a34565b90600052602060002090602091828204019190069054906101000a900460ff166002811115611a8e57611a8e6125f0565b03611bdd5760008060008a6002018481548110611aad57611aad612a34565b906000526020600020018054611ac290612a79565b80601f0160208091040260200160405190810160405280929190818152602001828054611aee90612a79565b8015611b3b5780601f10611b1057610100808354040283529160200191611b3b565b820191906000526020600020905b815481529060010190602001808311611b1e57829003601f168201915b5050505050806020019051810190611b539190612c8f565b600554604051631d4e779360e01b815293965091945092506001600160a01b031690631d4e779390611b8d90869086908690600401612d10565b6000604051808303816000875af1158015611bac573d6000803e3d6000fd5b505050506040513d6000823e601f3d908101601f19168201604052611bd49190810190612d38565b50505050611e35565b6002886001018281548110611bf457611bf4612a34565b90600052602060002090602091828204019190069054906101000a900460ff166002811115611c2557611c256125f0565b03611e3557600080896002018381548110611c4257611c42612a34565b906000526020600020018054611c5790612a79565b80601f0160208091040260200160405190810160405280929190818152602001828054611c8390612a79565b8015611cd05780601f10611ca557610100808354040283529160200191611cd0565b820191906000526020600020905b815481529060010190602001808311611cb357829003601f168201915b5050505050806020019051810190611ce89190612bd6565b6005546040516310ea364560e21b81529294509092506000916001600160a01b03909116906343a8d91490611d239086908690600401612d75565b6000604051808303816000875af1158015611d42573d6000803e3d6000fd5b505050506040513d6000823e601f3d908101601f19168201604052611d6a9190810190612d38565b905060005b8151811015611e3057818181518110611d8a57611d8a612a34565b602002602001015187611d9d9190612b3c565b9650818181518110611db157611db1612a34565b6020026020010151898781518110611dcb57611dcb612a34565b602002602001018181525050828181518110611de957611de9612a34565b6020026020010151888781518110611e0357611e03612a34565b6001600160a01b039092166020928302919091019091015285611e2581612a60565b965050600101611d6f565b505050505b60010161191f565b506000876004015467ffffffffffffffff811115611e5d57611e5d61279b565b604051908082528060200260200182016040528015611e86578160200160208202803683370190505b50905060005b600a54811015611f26576000600a8281548110611eab57611eab612a34565b600091825260208083209091015460ff808d1684526011835260408085206001600160a01b039093168086529290935291909220549192501615611f1d5780838381518110611efc57611efc612a34565b60200260200101906001600160a01b031690816001600160a01b0316815250505b50600101611e8c565b506005546040516351939e9160e11b81526001600160a01b039091169063a3273d2290611f5d908790899088908790600401612d8e565b600060405180830381600087803b158015611f7757600080fd5b505af1158015611f8b573d6000803e3d6000fd5b505050506103e86008541115611ff657600f60006103e8600854611faf9190612add565b81526020810191909152604001600090812081815590611fd26001830182612430565b611fe0600283016000612455565b5060038101805460ff1916905560006004909101555b611ffe6120ba565b6120066122a3565b60038801805460ff1916600117905587546040517f712ae1383f79ac853f8d882153778e0260ef8f03b504e2866e0593e04d2b291f916120499190815260200190565b60405180910390a15050505050505050565b6000805b600b548110156120b157826001600160a01b0316600b828154811061208657612086612a34565b6000918252602090912001546001600160a01b0316036120a95750600192915050565b60010161205f565b50600092915050565b60005b600b5481101561211c57600060106000600b84815481106120e0576120e0612a34565b6000918252602080832091909101546001600160a01b031683528201929092526040019020805460ff19169115159190911790556001016120bd565b50600b5460000361218b5760005b600a5481101561218957600060106000600a848154811061214d5761214d612a34565b6000918252602080832091909101546001600160a01b031683528201929092526040019020805460ff191691151591909117905560010161212a565b505b612197600b6000612473565b600954600a5460ff909116106121ef5760405162461bcd60e51b815260206004820152601d60248201527f4e6f7420656e6f756768206163746976652076616c696461746f7273210000006044820152606401610744565b60005b60095460ff168110156107ae57600a5460408051426020820152339181019190915260608101839052600091906080016040516020818303038152906040528051906020012060001c6122459190612ac9565b9050600b600a828154811061225c5761225c612a34565b6000918252602080832090910154835460018181018655948452919092200180546001600160a01b0319166001600160a01b039092169190911790559190910190506121f2565b60005b600c5481101561230e57600c81815481106122c3576122c3612a34565b600091825260208220600590910201818155906122e36001830182612430565b6122f1600283016000612455565b5060038101805460ff1916905560006004909101556001016122a6565b50426004556008805490600061232383612a60565b9190505550565b82805482825590600052602060002090601f016020900481019282156123ce5791602002820160005b8382111561239f57835183826101000a81548160ff0219169083600281111561237e5761237e6125f0565b02179055509260200192600101602081600001049283019260010302612353565b80156123cc5782816101000a81549060ff021916905560010160208160000104928301926001030261239f565b505b506123da92915061248d565b5090565b828054828255906000526020600020908101928215612424579160200282015b8281111561242457825182906124149082612e29565b50916020019190600101906123fe565b506123da9291506124a2565b50805460008255601f0160209004906000526020600020908101906107ae919061248d565b50805460008255906000526020600020908101906107ae91906124a2565b50805460008255906000526020600020908101906107ae91905b5b808211156123da576000815560010161248e565b808211156123da5760006124b682826124bf565b506001016124a2565b5080546124cb90612a79565b6000825580601f106124db575050565b601f0160209004906000526020600020908101906107ae919061248d565b60006020828403121561250b57600080fd5b5035919050565b60008151808452602080850194506020840160005b8381101561254c5781516001600160a01b031687529582019590820190600101612527565b509495945050505050565b84815283602082015282604082015260806060820152600061257c6080830184612512565b9695505050505050565b6001600160a01b03811681146107ae57600080fd5b6000602082840312156125ad57600080fd5b81356125b881612586565b9392505050565b803560ff811681146125d057600080fd5b919050565b6000602082840312156125e757600080fd5b6125b8826125bf565b634e487b7160e01b600052602160045260246000fd5b600082825180855260208086019550808260051b8401018186016000805b8581101561268057601f1980888603018b5283518051808752845b8181101561265a578281018901518882018a0152880161263f565b5086810188018590529b87019b601f019091169094018501935091840191600101612624565b509198975050505050505050565b60208082528251828201528281015160a06040840152805160c0840181905260009291820190839060e0860190825b818110156126f5578451600381106126e357634e487b7160e01b85526021600452602485fd5b835293850193918501916001016126bd565b50506040870151868203601f1901606088015293506127148185612606565b9350505050606084015161272c608085018215159052565b50608084015160a08401528091505092915050565b60008060006060848603121561275657600080fd5b833561276181612586565b9250602084013591506040840135801515811461277d57600080fd5b809150509250925092565b6020815260006125b86020830184612512565b634e487b7160e01b600052604160045260246000fd5b604051601f8201601f1916810167ffffffffffffffff811182821017156127da576127da61279b565b604052919050565b600067ffffffffffffffff8211156127fc576127fc61279b565b5060051b60200190565b6000601f83601f84011261281957600080fd5b8235602061282e612829836127e2565b6127b1565b82815260059290921b8501810191818101908784111561284d57600080fd5b8287015b848110156128e457803567ffffffffffffffff808211156128725760008081fd5b818a0191508a603f8301126128875760008081fd5b8582013560408282111561289d5761289d61279b565b6128ae828b01601f191689016127b1565b92508183528c818386010111156128c55760008081fd5b8181850189850137506000908201870152845250918301918301612851565b50979650505050505050565b6000806040838503121561290357600080fd5b823567ffffffffffffffff8082111561291b57600080fd5b818501915085601f83011261292f57600080fd5b8135602061293f612829836127e2565b82815260059290921b8401810191818101908984111561295e57600080fd5b948201945b8386101561298a5785356003811061297b5760008081fd5b82529482019490820190612963565b965050860135925050808211156129a057600080fd5b506129ad85828601612806565b9150509250929050565b600080604083850312156129ca57600080fd5b6129d3836125bf565b915060208301356129e381612586565b809150509250929050565b60208082526026908201527f43616c6c6572206973206e6f74206120536d617274204e6f6465732056616c696040820152656461746f722160d01b606082015260800190565b634e487b7160e01b600052603260045260246000fd5b634e487b7160e01b600052601160045260246000fd5b600060018201612a7257612a72612a4a565b5060010190565b600181811c90821680612a8d57607f821691505b602082108103612aad57634e487b7160e01b600052602260045260246000fd5b50919050565b634e487b7160e01b600052601260045260246000fd5b600082612ad857612ad8612ab3565b500690565b81810381811115612af057612af0612a4a565b92915050565b600060208284031215612b0857600080fd5b5051919050565b634e487b7160e01b600052603160045260246000fd5b8082028115828204841417612af057612af0612a4a565b80820180821115612af057612af0612a4a565b600082612b5e57612b5e612ab3565b500490565b600082601f830112612b7457600080fd5b81516020612b84612829836127e2565b8083825260208201915060208460051b870101935086841115612ba657600080fd5b602086015b84811015612bcb578051612bbe81612586565b8352918301918301612bab565b509695505050505050565b60008060408385031215612be957600080fd5b82519150602083015167ffffffffffffffff811115612c0757600080fd5b6129ad85828601612b63565b600060208284031215612c2557600080fd5b81516125b881612586565b600082601f830112612c4157600080fd5b81516020612c51612829836127e2565b8083825260208201915060208460051b870101935086841115612c7357600080fd5b602086015b84811015612bcb5780518352918301918301612c78565b600080600060608486031215612ca457600080fd5b8351925060208401519150604084015167ffffffffffffffff811115612cc957600080fd5b612cd586828701612c30565b9150509250925092565b60008151808452602080850194506020840160005b8381101561254c57815187529582019590820190600101612cf4565b838152826020820152606060408201526000612d2f6060830184612cdf565b95945050505050565b600060208284031215612d4a57600080fd5b815167ffffffffffffffff811115612d6157600080fd5b612d6d84828501612c30565b949350505050565b828152604060208201526000612d6d6040830184612512565b608081526000612da16080830187612512565b8281036020840152612db38187612cdf565b90508460408401528281036060840152612dcd8185612512565b979650505050505050565b601f821115612e24576000816000526020600020601f850160051c81016020861015612e015750805b601f850160051c820191505b81811015612e2057828155600101612e0d565b5050505b505050565b815167ffffffffffffffff811115612e4357612e4361279b565b612e5781612e518454612a79565b84612dd8565b602080601f831160018114612e8c5760008415612e745750858301515b600019600386901b1c1916600185901b178555612e20565b600085815260208120601f198616915b82811015612ebb57888601518255948401946001909101908401612e9c565b5085821015612ed95787850151600019600388901b60f8161c191681555b5050505050600190811b0190555056fea26469706673582212202ea00cac3de865607033637d27d88541570b582ff5707f27b6a6506c78bd052064736f6c63430008190033",
  "bytecodeSha1": "18b4e31a2cf4eaa0cfbf38a3aeb49c7d1ace21f4",
  "compiler": {
    "evm_version": "istanbul",
    "optimizer": {
      "enabled": true,
      "runs": 200
    },
    "version": "0.8.25+commit.b61c2a91"
  },
  "contractName": "SmartnodesMultiSig",
  "language": "Solidity",
  "natspec": {
    "details": "A multi-signature contract composed of Smartnodes validators responsible for managing the Core contract",
    "kind": "dev",
    "methods": {
      "addValidator(address)": {
        "notice": "Adds a new validator to the contract",
        "params": {
          "validator": "The address of the new validator"
        }
      },
      "approveTransaction(uint8)": {
        "notice": "Casts a vote for a proposal and executes once required approvals are met. Add Validator to storage if it has just registered and is not stored on MultiSig. ",
        "params": {
          "proposalNum": "The ID of the current round proposal"
        }
      },
      "createProposal(uint8[],bytes[])": {
        "notice": "Creates a new proposal, to update all the essential data structures given some aggregated off-chain state.",
        "params": {
          "_data": "The call data for the proposal",
          "_functionTypes": "The types of functions to be called in the proposal"
        }
      }
    },
    "title": "SmartnodesMultiSig",
    "version": 1
  },
  "opcodes": "PUSH1 0x80 PUSH1 0x40 MSTORE PUSH1 0x4 CALLDATASIZE LT PUSH2 0x1C6 JUMPI PUSH1 0x0 CALLDATALOAD PUSH1 0xE0 SHR DUP1 PUSH4 0x91E2E252 GT PUSH2 0xF7 JUMPI DUP1 PUSH4 0xD088650A GT PUSH2 0x95 JUMPI DUP1 PUSH4 0xF082E379 GT PUSH2 0x64 JUMPI DUP1 PUSH4 0xF082E379 EQ PUSH2 0x5CC JUMPI DUP1 PUSH4 0xF3869039 EQ PUSH2 0x5EC JUMPI DUP1 PUSH4 0xFACD743B EQ PUSH2 0x627 JUMPI DUP1 PUSH4 0xFBCCA273 EQ PUSH2 0x657 JUMPI PUSH1 0x0 DUP1 REVERT JUMPDEST DUP1 PUSH4 0xD088650A EQ PUSH2 0x553 JUMPI DUP1 PUSH4 0xDDAA5450 EQ PUSH2 0x569 JUMPI DUP1 PUSH4 0xE2A8F6F2 EQ PUSH2 0x57F JUMPI DUP1 PUSH4 0xE8BB5946 EQ PUSH2 0x5AC JUMPI PUSH1 0x0 DUP1 REVERT JUMPDEST DUP1 PUSH4 0xA6F9ED81 GT PUSH2 0xD1 JUMPI DUP1 PUSH4 0xA6F9ED81 EQ PUSH2 0x4D3 JUMPI DUP1 PUSH4 0xB6CEECB7 EQ PUSH2 0x4F3 JUMPI DUP1 PUSH4 0xBD423184 EQ PUSH2 0x513 JUMPI DUP1 PUSH4 0xC4D66DE8 EQ PUSH2 0x533 JUMPI PUSH1 0x0 DUP1 REVERT JUMPDEST DUP1 PUSH4 0x91E2E252 EQ PUSH2 0x478 JUMPI DUP1 PUSH4 0x99C1AADC EQ PUSH2 0x48D JUMPI DUP1 PUSH4 0x9A171629 EQ PUSH2 0x4A3 JUMPI PUSH1 0x0 DUP1 REVERT JUMPDEST DUP1 PUSH4 0x40A141FF GT PUSH2 0x164 JUMPI DUP1 PUSH4 0x54D9D614 GT PUSH2 0x13E JUMPI DUP1 PUSH4 0x54D9D614 EQ PUSH2 0x3C9 JUMPI DUP1 PUSH4 0x5EB7413A EQ PUSH2 0x3E9 JUMPI DUP1 PUSH4 0x6E768530 EQ PUSH2 0x435 JUMPI DUP1 PUSH4 0x8D323A8B EQ PUSH2 0x462 JUMPI PUSH1 0x0 DUP1 REVERT JUMPDEST DUP1 PUSH4 0x40A141FF EQ PUSH2 0x371 JUMPI DUP1 PUSH4 0x473967C9 EQ PUSH2 0x393 JUMPI DUP1 PUSH4 0x4D238C8E EQ PUSH2 0x3A9 JUMPI PUSH1 0x0 DUP1 REVERT JUMPDEST DUP1 PUSH4 0x2AB09D14 GT PUSH2 0x1A0 JUMPI DUP1 PUSH4 0x2AB09D14 EQ PUSH2 0x2B7 JUMPI DUP1 PUSH4 0x35AA2E44 EQ PUSH2 0x2DB JUMPI DUP1 PUSH4 0x368515BC EQ PUSH2 0x313 JUMPI DUP1 PUSH4 0x40550A1C EQ PUSH2 0x328 JUMPI PUSH1 0x0 DUP1 REVERT JUMPDEST DUP1 PUSH4 0x13CF08B EQ PUSH2 0x207 JUMPI DUP1 PUSH4 0x833C91A EQ PUSH2 0x266 JUMPI DUP1 PUSH4 0x1865C57D EQ PUSH2 0x292 JUMPI PUSH1 0x0 DUP1 REVERT JUMPDEST CALLDATASIZE PUSH2 0x202 JUMPI PUSH1 0x40 MLOAD CALLVALUE DUP2 MSTORE CALLER SWAP1 PUSH32 0xE1FFFCC4923D04B559F4D29A8BFC6CDA04EB5B0D3C460751C2402C5C5CC9109C SWAP1 PUSH1 0x20 ADD PUSH1 0x40 MLOAD DUP1 SWAP2 SUB SWAP1 LOG2 STOP JUMPDEST PUSH1 0x0 DUP1 REVERT JUMPDEST CALLVALUE DUP1 ISZERO PUSH2 0x213 JUMPI PUSH1 0x0 DUP1 REVERT JUMPDEST POP PUSH2 0x246 PUSH2 0x222 CALLDATASIZE PUSH1 0x4 PUSH2 0x24F9 JUMP JUMPDEST PUSH1 0xF PUSH1 0x20 MSTORE PUSH1 0x0 SWAP1 DUP2 MSTORE PUSH1 0x40 SWAP1 KECCAK256 DUP1 SLOAD PUSH1 0x3 DUP3 ADD SLOAD PUSH1 0x4 SWAP1 SWAP3 ADD SLOAD SWAP1 SWAP2 PUSH1 0xFF AND SWAP1 DUP4 JUMP JUMPDEST PUSH1 0x40 DUP1 MLOAD SWAP4 DUP5 MSTORE SWAP2 ISZERO ISZERO PUSH1 0x20 DUP5 ADD MSTORE SWAP1 DUP3 ADD MSTORE PUSH1 0x60 ADD JUMPDEST PUSH1 0x40 MLOAD DUP1 SWAP2 SUB SWAP1 RETURN JUMPDEST CALLVALUE DUP1 ISZERO PUSH2 0x272 JUMPI PUSH1 0x0 DUP1 REVERT JUMPDEST POP PUSH1 0x9 SLOAD PUSH2 0x280 SWAP1 PUSH1 0xFF AND DUP2 JUMP JUMPDEST PUSH1 0x40 MLOAD PUSH1 0xFF SWAP1 SWAP2 AND DUP2 MSTORE PUSH1 0x20 ADD PUSH2 0x25D JUMP JUMPDEST CALLVALUE DUP1 ISZERO PUSH2 0x29E JUMPI PUSH1 0x0 DUP1 REVERT JUMPDEST POP PUSH2 0x2A7 PUSH2 0x66C JUMP JUMPDEST PUSH1 0x40 MLOAD PUSH2 0x25D SWAP5 SWAP4 SWAP3 SWAP2 SWAP1 PUSH2 0x2557 JUMP JUMPDEST CALLVALUE DUP1 ISZERO PUSH2 0x2C3 JUMPI PUSH1 0x0 DUP1 REVERT JUMPDEST POP PUSH2 0x2CD PUSH1 0x8 SLOAD DUP2 JUMP JUMPDEST PUSH1 0x40 MLOAD SWAP1 DUP2 MSTORE PUSH1 0x20 ADD PUSH2 0x25D JUMP JUMPDEST CALLVALUE DUP1 ISZERO PUSH2 0x2E7 JUMPI PUSH1 0x0 DUP1 REVERT JUMPDEST POP PUSH2 0x2FB PUSH2 0x2F6 CALLDATASIZE PUSH1 0x4 PUSH2 0x24F9 JUMP JUMPDEST PUSH2 0x6EB JUMP JUMPDEST PUSH1 0x40 MLOAD PUSH1 0x1 PUSH1 0x1 PUSH1 0xA0 SHL SUB SWAP1 SWAP2 AND DUP2 MSTORE PUSH1 0x20 ADD PUSH2 0x25D JUMP JUMPDEST CALLVALUE DUP1 ISZERO PUSH2 0x31F JUMPI PUSH1 0x0 DUP1 REVERT JUMPDEST POP PUSH2 0x2CD PUSH1 0x0 DUP2 JUMP JUMPDEST CALLVALUE DUP1 ISZERO PUSH2 0x334 JUMPI PUSH1 0x0 DUP1 REVERT JUMPDEST POP PUSH2 0x361 PUSH2 0x343 CALLDATASIZE PUSH1 0x4 PUSH2 0x259B JUMP JUMPDEST PUSH1 0x1 PUSH1 0x1 PUSH1 0xA0 SHL SUB AND PUSH1 0x0 SWAP1 DUP2 MSTORE PUSH1 0xD PUSH1 0x20 MSTORE PUSH1 0x40 SWAP1 KECCAK256 SLOAD PUSH1 0xFF AND SWAP1 JUMP JUMPDEST PUSH1 0x40 MLOAD SWAP1 ISZERO ISZERO DUP2 MSTORE PUSH1 0x20 ADD PUSH2 0x25D JUMP JUMPDEST CALLVALUE DUP1 ISZERO PUSH2 0x37D JUMPI PUSH1 0x0 DUP1 REVERT JUMPDEST POP PUSH2 0x391 PUSH2 0x38C CALLDATASIZE PUSH1 0x4 PUSH2 0x259B JUMP JUMPDEST PUSH2 0x715 JUMP JUMPDEST STOP JUMPDEST CALLVALUE DUP1 ISZERO PUSH2 0x39F JUMPI PUSH1 0x0 DUP1 REVERT JUMPDEST POP PUSH2 0x2CD PUSH1 0x3 SLOAD DUP2 JUMP JUMPDEST CALLVALUE DUP1 ISZERO PUSH2 0x3B5 JUMPI PUSH1 0x0 DUP1 REVERT JUMPDEST POP PUSH2 0x391 PUSH2 0x3C4 CALLDATASIZE PUSH1 0x4 PUSH2 0x259B JUMP JUMPDEST PUSH2 0x7B1 JUMP JUMPDEST CALLVALUE DUP1 ISZERO PUSH2 0x3D5 JUMPI PUSH1 0x0 DUP1 REVERT JUMPDEST POP PUSH2 0x391 PUSH2 0x3E4 CALLDATASIZE PUSH1 0x4 PUSH2 0x25D5 JUMP JUMPDEST PUSH2 0x967 JUMP JUMPDEST CALLVALUE DUP1 ISZERO PUSH2 0x3F5 JUMPI PUSH1 0x0 DUP1 REVERT JUMPDEST POP PUSH2 0x420 PUSH2 0x404 CALLDATASIZE PUSH1 0x4 PUSH2 0x259B JUMP JUMPDEST PUSH1 0xE PUSH1 0x20 MSTORE PUSH1 0x0 SWAP1 DUP2 MSTORE PUSH1 0x40 SWAP1 KECCAK256 DUP1 SLOAD PUSH1 0x1 SWAP1 SWAP2 ADD SLOAD PUSH1 0xFF AND DUP3 JUMP JUMPDEST PUSH1 0x40 DUP1 MLOAD SWAP3 DUP4 MSTORE SWAP1 ISZERO ISZERO PUSH1 0x20 DUP4 ADD MSTORE ADD PUSH2 0x25D JUMP JUMPDEST CALLVALUE DUP1 ISZERO PUSH2 0x441 JUMPI PUSH1 0x0 DUP1 REVERT JUMPDEST POP PUSH2 0x455 PUSH2 0x450 CALLDATASIZE PUSH1 0x4 PUSH2 0x24F9 JUMP JUMPDEST PUSH2 0xAC8 JUMP JUMPDEST PUSH1 0x40 MLOAD PUSH2 0x25D SWAP2 SWAP1 PUSH2 0x268E JUMP JUMPDEST CALLVALUE DUP1 ISZERO PUSH2 0x46E JUMPI PUSH1 0x0 DUP1 REVERT JUMPDEST POP PUSH2 0x2CD PUSH1 0x7 SLOAD DUP2 JUMP JUMPDEST CALLVALUE DUP1 ISZERO PUSH2 0x484 JUMPI PUSH1 0x0 DUP1 REVERT JUMPDEST POP PUSH1 0xA SLOAD PUSH2 0x2CD JUMP JUMPDEST CALLVALUE DUP1 ISZERO PUSH2 0x499 JUMPI PUSH1 0x0 DUP1 REVERT JUMPDEST POP PUSH2 0x2CD PUSH1 0x2 SLOAD DUP2 JUMP JUMPDEST CALLVALUE DUP1 ISZERO PUSH2 0x4AF JUMPI PUSH1 0x0 DUP1 REVERT JUMPDEST POP PUSH2 0x361 PUSH2 0x4BE CALLDATASIZE PUSH1 0x4 PUSH2 0x259B JUMP JUMPDEST PUSH1 0x10 PUSH1 0x20 MSTORE PUSH1 0x0 SWAP1 DUP2 MSTORE PUSH1 0x40 SWAP1 KECCAK256 SLOAD PUSH1 0xFF AND DUP2 JUMP JUMPDEST CALLVALUE DUP1 ISZERO PUSH2 0x4DF JUMPI PUSH1 0x0 DUP1 REVERT JUMPDEST POP PUSH1 0x6 SLOAD PUSH2 0x2FB SWAP1 PUSH1 0x1 PUSH1 0x1 PUSH1 0xA0 SHL SUB AND DUP2 JUMP JUMPDEST CALLVALUE DUP1 ISZERO PUSH2 0x4FF JUMPI PUSH1 0x0 DUP1 REVERT JUMPDEST POP PUSH2 0x391 PUSH2 0x50E CALLDATASIZE PUSH1 0x4 PUSH2 0x2741 JUMP JUMPDEST PUSH2 0xC9A JUMP JUMPDEST CALLVALUE DUP1 ISZERO PUSH2 0x51F JUMPI PUSH1 0x0 DUP1 REVERT JUMPDEST POP PUSH2 0x246 PUSH2 0x52E CALLDATASIZE PUSH1 0x4 PUSH2 0x24F9 JUMP JUMPDEST PUSH2 0xD34 JUMP JUMPDEST CALLVALUE DUP1 ISZERO PUSH2 0x53F JUMPI PUSH1 0x0 DUP1 REVERT JUMPDEST POP PUSH2 0x391 PUSH2 0x54E CALLDATASIZE PUSH1 0x4 PUSH2 0x259B JUMP JUMPDEST PUSH2 0xD6D JUMP JUMPDEST CALLVALUE DUP1 ISZERO PUSH2 0x55F JUMPI PUSH1 0x0 DUP1 REVERT JUMPDEST POP PUSH2 0x2CD PUSH1 0x4 SLOAD DUP2 JUMP JUMPDEST CALLVALUE DUP1 ISZERO PUSH2 0x575 JUMPI PUSH1 0x0 DUP1 REVERT JUMPDEST POP PUSH2 0x2CD PUSH1 0x1 SLOAD DUP2 JUMP JUMPDEST CALLVALUE DUP1 ISZERO PUSH2 0x58B JUMPI PUSH1 0x0 DUP1 REVERT JUMPDEST POP PUSH2 0x59F PUSH2 0x59A CALLDATASIZE PUSH1 0x4 PUSH2 0x24F9 JUMP JUMPDEST PUSH2 0xE60 JUMP JUMPDEST PUSH1 0x40 MLOAD PUSH2 0x25D SWAP2 SWAP1 PUSH2 0x2788 JUMP JUMPDEST CALLVALUE DUP1 ISZERO PUSH2 0x5B8 JUMPI PUSH1 0x0 DUP1 REVERT JUMPDEST POP PUSH2 0x2FB PUSH2 0x5C7 CALLDATASIZE PUSH1 0x4 PUSH2 0x24F9 JUMP JUMPDEST PUSH2 0x104C JUMP JUMPDEST CALLVALUE DUP1 ISZERO PUSH2 0x5D8 JUMPI PUSH1 0x0 DUP1 REVERT JUMPDEST POP PUSH2 0x391 PUSH2 0x5E7 CALLDATASIZE PUSH1 0x4 PUSH2 0x28F0 JUMP JUMPDEST PUSH2 0x105C JUMP JUMPDEST CALLVALUE DUP1 ISZERO PUSH2 0x5F8 JUMPI PUSH1 0x0 DUP1 REVERT JUMPDEST POP PUSH2 0x361 PUSH2 0x607 CALLDATASIZE PUSH1 0x4 PUSH2 0x29B7 JUMP JUMPDEST PUSH1 0x11 PUSH1 0x20 SWAP1 DUP2 MSTORE PUSH1 0x0 SWAP3 DUP4 MSTORE PUSH1 0x40 DUP1 DUP5 KECCAK256 SWAP1 SWAP2 MSTORE SWAP1 DUP3 MSTORE SWAP1 KECCAK256 SLOAD PUSH1 0xFF AND DUP2 JUMP JUMPDEST CALLVALUE DUP1 ISZERO PUSH2 0x633 JUMPI PUSH1 0x0 DUP1 REVERT JUMPDEST POP PUSH2 0x361 PUSH2 0x642 CALLDATASIZE PUSH1 0x4 PUSH2 0x259B JUMP JUMPDEST PUSH1 0xD PUSH1 0x20 MSTORE PUSH1 0x0 SWAP1 DUP2 MSTORE PUSH1 0x40 SWAP1 KECCAK256 SLOAD PUSH1 0xFF AND DUP2 JUMP JUMPDEST CALLVALUE DUP1 ISZERO PUSH2 0x663 JUMPI PUSH1 0x0 DUP1 REVERT JUMPDEST POP PUSH2 0x59F PUSH2 0x1409 JUMP JUMPDEST PUSH1 0x0 DUP1 PUSH1 0x0 PUSH1 0x60 PUSH1 0x4 SLOAD PUSH1 0x8 SLOAD PUSH1 0xA DUP1 SLOAD SWAP1 POP PUSH1 0xB DUP1 DUP1 SLOAD DUP1 PUSH1 0x20 MUL PUSH1 0x20 ADD PUSH1 0x40 MLOAD SWAP1 DUP2 ADD PUSH1 0x40 MSTORE DUP1 SWAP3 SWAP2 SWAP1 DUP2 DUP2 MSTORE PUSH1 0x20 ADD DUP3 DUP1 SLOAD DUP1 ISZERO PUSH2 0x6D6 JUMPI PUSH1 0x20 MUL DUP3 ADD SWAP2 SWAP1 PUSH1 0x0 MSTORE PUSH1 0x20 PUSH1 0x0 KECCAK256 SWAP1 JUMPDEST DUP2 SLOAD PUSH1 0x1 PUSH1 0x1 PUSH1 0xA0 SHL SUB AND DUP2 MSTORE PUSH1 0x1 SWAP1 SWAP2 ADD SWAP1 PUSH1 0x20 ADD DUP1 DUP4 GT PUSH2 0x6B8 JUMPI JUMPDEST POP POP POP POP POP SWAP1 POP SWAP4 POP SWAP4 POP SWAP4 POP SWAP4 POP SWAP1 SWAP2 SWAP3 SWAP4 JUMP JUMPDEST PUSH1 0xA DUP2 DUP2 SLOAD DUP2 LT PUSH2 0x6FB JUMPI PUSH1 0x0 DUP1 REVERT JUMPDEST PUSH1 0x0 SWAP2 DUP3 MSTORE PUSH1 0x20 SWAP1 SWAP2 KECCAK256 ADD SLOAD PUSH1 0x1 PUSH1 0x1 PUSH1 0xA0 SHL SUB AND SWAP1 POP DUP2 JUMP JUMPDEST CALLER PUSH1 0x0 SWAP1 DUP2 MSTORE PUSH1 0xD PUSH1 0x20 MSTORE PUSH1 0x40 SWAP1 KECCAK256 SLOAD PUSH1 0xFF AND PUSH2 0x74D JUMPI PUSH1 0x40 MLOAD PUSH3 0x461BCD PUSH1 0xE5 SHL DUP2 MSTORE PUSH1 0x4 ADD PUSH2 0x744 SWAP1 PUSH2 0x29EE JUMP JUMPDEST PUSH1 0x40 MLOAD DUP1 SWAP2 SUB SWAP1 REVERT JUMPDEST CALLER PUSH1 0x1 PUSH1 0x1 PUSH1 0xA0 SHL SUB DUP3 AND EQ PUSH2 0x7A5 JUMPI PUSH1 0x40 MLOAD PUSH3 0x461BCD PUSH1 0xE5 SHL DUP2 MSTORE PUSH1 0x20 PUSH1 0x4 DUP3 ADD DUP2 SWAP1 MSTORE PUSH1 0x24 DUP3 ADD MSTORE PUSH32 0x43616E6E6F742072656D6F766520616E6F746865722076616C696461746F7221 PUSH1 0x44 DUP3 ADD MSTORE PUSH1 0x64 ADD PUSH2 0x744 JUMP JUMPDEST PUSH2 0x7AE DUP2 PUSH2 0x146B JUMP JUMPDEST POP JUMP JUMPDEST PUSH1 0x1 PUSH1 0x1 PUSH1 0xA0 SHL SUB DUP2 AND PUSH1 0x0 SWAP1 DUP2 MSTORE PUSH1 0xE PUSH1 0x20 MSTORE PUSH1 0x40 SWAP1 KECCAK256 PUSH1 0x1 ADD SLOAD PUSH1 0xFF AND PUSH2 0x842 JUMPI PUSH1 0x40 MLOAD PUSH3 0x461BCD PUSH1 0xE5 SHL DUP2 MSTORE PUSH1 0x20 PUSH1 0x4 DUP3 ADD MSTORE PUSH1 0x3A PUSH1 0x24 DUP3 ADD MSTORE PUSH32 0x56616C696461746F72206D757374206265207265676973746572656420616E64 PUSH1 0x44 DUP3 ADD MSTORE PUSH32 0x206C6F636B6564206F6E20536D6172746E6F646573436F726521000000000000 PUSH1 0x64 DUP3 ADD MSTORE PUSH1 0x84 ADD PUSH2 0x744 JUMP JUMPDEST PUSH1 0x1 PUSH1 0x1 PUSH1 0xA0 SHL SUB DUP2 AND PUSH1 0x0 SWAP1 DUP2 MSTORE PUSH1 0xD PUSH1 0x20 MSTORE PUSH1 0x40 SWAP1 KECCAK256 SLOAD PUSH1 0xFF AND ISZERO PUSH2 0x8BC JUMPI PUSH1 0x40 MLOAD PUSH3 0x461BCD PUSH1 0xE5 SHL DUP2 MSTORE PUSH1 0x20 PUSH1 0x4 DUP3 ADD MSTORE PUSH1 0x28 PUSH1 0x24 DUP3 ADD MSTORE PUSH32 0x56616C696461746F7220616C72656164792072656769737465726564206F6E20 PUSH1 0x44 DUP3 ADD MSTORE PUSH8 0x4D756C7473696721 PUSH1 0xC0 SHL PUSH1 0x64 DUP3 ADD MSTORE PUSH1 0x84 ADD PUSH2 0x744 JUMP JUMPDEST PUSH1 0xA DUP1 SLOAD PUSH1 0x1 DUP1 DUP3 ADD SWAP1 SWAP3 SSTORE PUSH32 0xC65A7BB8D6351C1CF70C95A316CC6A92839C986682D98BC35F958F4883F9D2A8 ADD DUP1 SLOAD PUSH1 0x1 PUSH1 0x1 PUSH1 0xA0 SHL SUB NOT AND PUSH1 0x1 PUSH1 0x1 PUSH1 0xA0 SHL SUB DUP5 AND SWAP1 DUP2 OR SWAP1 SWAP2 SSTORE PUSH1 0x0 SWAP1 DUP2 MSTORE PUSH1 0xD PUSH1 0x20 MSTORE PUSH1 0x40 SWAP1 KECCAK256 DUP1 SLOAD PUSH1 0xFF NOT AND SWAP1 SWAP2 OR SWAP1 SSTORE PUSH2 0x927 PUSH2 0x1631 JUMP JUMPDEST PUSH1 0x40 MLOAD PUSH1 0x1 PUSH1 0x1 PUSH1 0xA0 SHL SUB DUP3 AND DUP2 MSTORE PUSH32 0xE366C1C0452ED8EEC96861E9E54141EBFF23C9EC89FE27B996B45F5EC3884987 SWAP1 PUSH1 0x20 ADD JUMPDEST PUSH1 0x40 MLOAD DUP1 SWAP2 SUB SWAP1 LOG1 POP JUMP JUMPDEST PUSH1 0xFF DUP1 DUP3 AND PUSH1 0x0 SWAP1 DUP2 MSTORE PUSH1 0x11 PUSH1 0x20 SWAP1 DUP2 MSTORE PUSH1 0x40 DUP1 DUP4 KECCAK256 CALLER DUP5 MSTORE SWAP1 SWAP2 MSTORE SWAP1 KECCAK256 SLOAD AND ISZERO PUSH2 0x9E9 JUMPI PUSH1 0x40 MLOAD PUSH3 0x461BCD PUSH1 0xE5 SHL DUP2 MSTORE PUSH1 0x20 PUSH1 0x4 DUP3 ADD MSTORE PUSH1 0x2C PUSH1 0x24 DUP3 ADD MSTORE PUSH32 0x56616C696461746F7220616C726561647920766F746564206F6E207468697320 PUSH1 0x44 DUP3 ADD MSTORE PUSH12 0x7472616E73616374696F6E21 PUSH1 0xA0 SHL PUSH1 0x64 DUP3 ADD MSTORE PUSH1 0x84 ADD PUSH2 0x744 JUMP JUMPDEST CALLER PUSH1 0x0 SWAP1 DUP2 MSTORE PUSH1 0xD PUSH1 0x20 MSTORE PUSH1 0x40 DUP2 KECCAK256 SLOAD PUSH1 0xFF AND ISZERO ISZERO SWAP1 SUB PUSH2 0xA0D JUMPI PUSH2 0xA0D CALLER PUSH2 0x7B1 JUMP JUMPDEST PUSH1 0x0 PUSH1 0xC DUP3 PUSH1 0xFF AND DUP2 SLOAD DUP2 LT PUSH2 0xA25 JUMPI PUSH2 0xA25 PUSH2 0x2A34 JUMP JUMPDEST PUSH1 0x0 SWAP2 DUP3 MSTORE PUSH1 0x20 DUP1 DUP4 KECCAK256 PUSH1 0xFF DUP7 AND DUP5 MSTORE PUSH1 0x11 DUP3 MSTORE PUSH1 0x40 DUP1 DUP6 KECCAK256 CALLER DUP7 MSTORE SWAP1 SWAP3 MSTORE SWAP1 DUP4 KECCAK256 DUP1 SLOAD PUSH1 0xFF NOT AND PUSH1 0x1 OR SWAP1 SSTORE PUSH1 0x4 PUSH1 0x5 SWAP1 SWAP3 MUL ADD SWAP1 DUP2 ADD DUP1 SLOAD SWAP2 SWAP4 POP SWAP1 SWAP2 PUSH2 0xA6D DUP4 PUSH2 0x2A60 JUMP JUMPDEST SWAP1 SWAP2 SSTORE POP POP PUSH1 0x40 DUP1 MLOAD PUSH1 0xFF DUP5 AND DUP2 MSTORE CALLER PUSH1 0x20 DUP3 ADD MSTORE PUSH32 0x30B0F8DCD86A031EDDB071F91882EDEAC8173663BA775713B677B42B51BE44B SWAP2 ADD PUSH1 0x40 MLOAD DUP1 SWAP2 SUB SWAP1 LOG1 PUSH1 0x2 SLOAD DUP2 PUSH1 0x4 ADD SLOAD LT PUSH2 0xAC4 JUMPI PUSH2 0xAC4 DUP2 DUP4 PUSH2 0x166C JUMP JUMPDEST POP POP JUMP JUMPDEST PUSH2 0xAFC PUSH1 0x40 MLOAD DUP1 PUSH1 0xA0 ADD PUSH1 0x40 MSTORE DUP1 PUSH1 0x0 DUP2 MSTORE PUSH1 0x20 ADD PUSH1 0x60 DUP2 MSTORE PUSH1 0x20 ADD PUSH1 0x60 DUP2 MSTORE PUSH1 0x20 ADD PUSH1 0x0 ISZERO ISZERO DUP2 MSTORE PUSH1 0x20 ADD PUSH1 0x0 DUP2 MSTORE POP SWAP1 JUMP JUMPDEST PUSH1 0x0 DUP3 DUP2 MSTORE PUSH1 0xF PUSH1 0x20 SWAP1 DUP2 MSTORE PUSH1 0x40 SWAP2 DUP3 SWAP1 KECCAK256 DUP3 MLOAD PUSH1 0xA0 DUP2 ADD DUP5 MSTORE DUP2 SLOAD DUP2 MSTORE PUSH1 0x1 DUP3 ADD DUP1 SLOAD DUP6 MLOAD DUP2 DUP7 MUL DUP2 ADD DUP7 ADD SWAP1 SWAP7 MSTORE DUP1 DUP7 MSTORE SWAP2 SWAP5 SWAP3 SWAP4 DUP6 DUP2 ADD SWAP4 SWAP3 SWAP1 DUP4 ADD DUP3 DUP3 DUP1 ISZERO PUSH2 0xB98 JUMPI PUSH1 0x20 MUL DUP3 ADD SWAP2 SWAP1 PUSH1 0x0 MSTORE PUSH1 0x20 PUSH1 0x0 KECCAK256 SWAP1 PUSH1 0x0 SWAP1 JUMPDEST DUP3 DUP3 SWAP1 SLOAD SWAP1 PUSH2 0x100 EXP SWAP1 DIV PUSH1 0xFF AND PUSH1 0x2 DUP2 GT ISZERO PUSH2 0xB76 JUMPI PUSH2 0xB76 PUSH2 0x25F0 JUMP JUMPDEST DUP2 MSTORE PUSH1 0x20 PUSH1 0x1 SWAP3 DUP4 ADD DUP2 DUP2 DIV SWAP5 DUP6 ADD SWAP5 SWAP1 SWAP4 SUB SWAP1 SWAP3 MUL SWAP2 ADD DUP1 DUP5 GT PUSH2 0xB57 JUMPI SWAP1 POP JUMPDEST POP POP POP POP POP DUP2 MSTORE PUSH1 0x20 ADD PUSH1 0x2 DUP3 ADD DUP1 SLOAD DUP1 PUSH1 0x20 MUL PUSH1 0x20 ADD PUSH1 0x40 MLOAD SWAP1 DUP2 ADD PUSH1 0x40 MSTORE DUP1 SWAP3 SWAP2 SWAP1 DUP2 DUP2 MSTORE PUSH1 0x20 ADD PUSH1 0x0 SWAP1 JUMPDEST DUP3 DUP3 LT ISZERO PUSH2 0xC72 JUMPI DUP4 DUP3 SWAP1 PUSH1 0x0 MSTORE PUSH1 0x20 PUSH1 0x0 KECCAK256 ADD DUP1 SLOAD PUSH2 0xBE5 SWAP1 PUSH2 0x2A79 JUMP JUMPDEST DUP1 PUSH1 0x1F ADD PUSH1 0x20 DUP1 SWAP2 DIV MUL PUSH1 0x20 ADD PUSH1 0x40 MLOAD SWAP1 DUP2 ADD PUSH1 0x40 MSTORE DUP1 SWAP3 SWAP2 SWAP1 DUP2 DUP2 MSTORE PUSH1 0x20 ADD DUP3 DUP1 SLOAD PUSH2 0xC11 SWAP1 PUSH2 0x2A79 JUMP JUMPDEST DUP1 ISZERO PUSH2 0xC5E JUMPI DUP1 PUSH1 0x1F LT PUSH2 0xC33 JUMPI PUSH2 0x100 DUP1 DUP4 SLOAD DIV MUL DUP4 MSTORE SWAP2 PUSH1 0x20 ADD SWAP2 PUSH2 0xC5E JUMP JUMPDEST DUP3 ADD SWAP2 SWAP1 PUSH1 0x0 MSTORE PUSH1 0x20 PUSH1 0x0 KECCAK256 SWAP1 JUMPDEST DUP2 SLOAD DUP2 MSTORE SWAP1 PUSH1 0x1 ADD SWAP1 PUSH1 0x20 ADD DUP1 DUP4 GT PUSH2 0xC41 JUMPI DUP3 SWAP1 SUB PUSH1 0x1F AND DUP3 ADD SWAP2 JUMPDEST POP POP POP POP POP DUP2 MSTORE PUSH1 0x20 ADD SWAP1 PUSH1 0x1 ADD SWAP1 PUSH2 0xBC6 JUMP JUMPDEST POP POP POP SWAP1 DUP3 MSTORE POP PUSH1 0x3 DUP3 ADD SLOAD PUSH1 0xFF AND ISZERO ISZERO PUSH1 0x20 DUP3 ADD MSTORE PUSH1 0x4 SWAP1 SWAP2 ADD SLOAD PUSH1 0x40 SWAP1 SWAP2 ADD MSTORE SWAP3 SWAP2 POP POP JUMP JUMPDEST PUSH1 0x6 SLOAD PUSH1 0x1 PUSH1 0x1 PUSH1 0xA0 SHL SUB AND CALLER EQ PUSH2 0xD03 JUMPI PUSH1 0x40 MLOAD PUSH3 0x461BCD PUSH1 0xE5 SHL DUP2 MSTORE PUSH1 0x20 PUSH1 0x4 DUP3 ADD MSTORE PUSH1 0x26 PUSH1 0x24 DUP3 ADD MSTORE PUSH32 0x43616C6C6572206D7573742062652074686520536D6172746E6F6465734D756C PUSH1 0x44 DUP3 ADD MSTORE PUSH6 0x3A34A9B4B397 PUSH1 0xD1 SHL PUSH1 0x64 DUP3 ADD MSTORE PUSH1 0x84 ADD PUSH2 0x744 JUMP JUMPDEST PUSH1 0x1 PUSH1 0x1 PUSH1 0xA0 SHL SUB SWAP3 SWAP1 SWAP3 AND PUSH1 0x0 SWAP1 DUP2 MSTORE PUSH1 0xE PUSH1 0x20 MSTORE PUSH1 0x40 SWAP1 KECCAK256 SWAP1 DUP2 SSTORE PUSH1 0x1 ADD DUP1 SLOAD PUSH1 0xFF NOT AND SWAP2 ISZERO ISZERO SWAP2 SWAP1 SWAP2 OR SWAP1 SSTORE JUMP JUMPDEST PUSH1 0xC DUP2 DUP2 SLOAD DUP2 LT PUSH2 0xD44 JUMPI PUSH1 0x0 DUP1 REVERT JUMPDEST PUSH1 0x0 SWAP2 DUP3 MSTORE PUSH1 0x20 SWAP1 SWAP2 KECCAK256 PUSH1 0x5 SWAP1 SWAP2 MUL ADD DUP1 SLOAD PUSH1 0x3 DUP3 ADD SLOAD PUSH1 0x4 SWAP1 SWAP3 ADD SLOAD SWAP1 SWAP3 POP PUSH1 0xFF SWAP1 SWAP2 AND SWAP1 DUP4 JUMP JUMPDEST PUSH1 0x0 SLOAD PUSH2 0x100 SWAP1 DIV PUSH1 0xFF AND PUSH2 0xD88 JUMPI PUSH1 0x0 SLOAD PUSH1 0xFF AND ISZERO PUSH2 0xD8C JUMP JUMPDEST ADDRESS EXTCODESIZE ISZERO JUMPDEST PUSH2 0xDEF JUMPI PUSH1 0x40 MLOAD PUSH3 0x461BCD PUSH1 0xE5 SHL DUP2 MSTORE PUSH1 0x20 PUSH1 0x4 DUP3 ADD MSTORE PUSH1 0x2E PUSH1 0x24 DUP3 ADD MSTORE PUSH32 0x496E697469616C697A61626C653A20636F6E747261637420697320616C726561 PUSH1 0x44 DUP3 ADD MSTORE PUSH14 0x191E481A5B9A5D1A585B1A5E9959 PUSH1 0x92 SHL PUSH1 0x64 DUP3 ADD MSTORE PUSH1 0x84 ADD PUSH2 0x744 JUMP JUMPDEST PUSH1 0x0 SLOAD PUSH2 0x100 SWAP1 DIV PUSH1 0xFF AND ISZERO DUP1 ISZERO PUSH2 0xE11 JUMPI PUSH1 0x0 DUP1 SLOAD PUSH2 0xFFFF NOT AND PUSH2 0x101 OR SWAP1 SSTORE JUMPDEST PUSH1 0x6 DUP1 SLOAD PUSH1 0x1 PUSH1 0x1 PUSH1 0xA0 SHL SUB DUP5 AND PUSH1 0x1 PUSH1 0x1 PUSH1 0xA0 SHL SUB NOT SWAP2 DUP3 AND DUP2 OR SWAP1 SWAP3 SSTORE PUSH1 0x14 PUSH1 0x3 SSTORE PUSH1 0x5 DUP1 SLOAD SWAP1 SWAP2 AND SWAP1 SWAP2 OR SWAP1 SSTORE PUSH1 0x0 PUSH1 0x4 SSTORE PUSH1 0x41 PUSH1 0x1 SSTORE DUP1 ISZERO PUSH2 0xAC4 JUMPI PUSH1 0x0 DUP1 SLOAD PUSH2 0xFF00 NOT AND SWAP1 SSTORE POP POP JUMP JUMPDEST PUSH1 0xA SLOAD PUSH1 0x60 SWAP1 DUP3 LT PUSH2 0xEB4 JUMPI PUSH1 0x40 MLOAD PUSH3 0x461BCD PUSH1 0xE5 SHL DUP2 MSTORE PUSH1 0x20 PUSH1 0x4 DUP3 ADD MSTORE PUSH1 0x1D PUSH1 0x24 DUP3 ADD MSTORE PUSH32 0x4E6F7420656E6F756768206163746976652076616C696461746F727321000000 PUSH1 0x44 DUP3 ADD MSTORE PUSH1 0x64 ADD PUSH2 0x744 JUMP JUMPDEST PUSH1 0xA SLOAD DUP3 LT PUSH2 0xF37 JUMPI PUSH1 0x40 MLOAD PUSH3 0x461BCD PUSH1 0xE5 SHL DUP2 MSTORE PUSH1 0x20 PUSH1 0x4 DUP3 ADD MSTORE PUSH1 0x43 PUSH1 0x24 DUP3 ADD MSTORE PUSH32 0x546F6F206D616E792076616C696461746F72732C206D757374206265206C6573 PUSH1 0x44 DUP3 ADD MSTORE PUSH32 0x73207468616E206E756D626572206F66206163746976652076616C696461746F PUSH1 0x64 DUP3 ADD MSTORE PUSH3 0x727321 PUSH1 0xE8 SHL PUSH1 0x84 DUP3 ADD MSTORE PUSH1 0xA4 ADD PUSH2 0x744 JUMP JUMPDEST PUSH1 0x0 DUP3 PUSH8 0xFFFFFFFFFFFFFFFF DUP2 GT ISZERO PUSH2 0xF52 JUMPI PUSH2 0xF52 PUSH2 0x279B JUMP JUMPDEST PUSH1 0x40 MLOAD SWAP1 DUP1 DUP3 MSTORE DUP1 PUSH1 0x20 MUL PUSH1 0x20 ADD DUP3 ADD PUSH1 0x40 MSTORE DUP1 ISZERO PUSH2 0xF7B JUMPI DUP2 PUSH1 0x20 ADD PUSH1 0x20 DUP3 MUL DUP1 CALLDATASIZE DUP4 CALLDATACOPY ADD SWAP1 POP JUMPDEST POP SWAP1 POP PUSH1 0x0 DUP1 JUMPDEST DUP5 DUP2 LT ISZERO PUSH2 0x1043 JUMPI PUSH1 0xA SLOAD PUSH1 0x40 DUP1 MLOAD TIMESTAMP PUSH1 0x20 DUP3 ADD MSTORE CALLER SWAP2 DUP2 ADD SWAP2 SWAP1 SWAP2 MSTORE PUSH1 0x60 DUP2 ADD DUP4 SWAP1 MSTORE PUSH1 0x0 SWAP2 SWAP1 PUSH1 0x80 ADD PUSH1 0x40 MLOAD PUSH1 0x20 DUP2 DUP4 SUB SUB DUP2 MSTORE SWAP1 PUSH1 0x40 MSTORE DUP1 MLOAD SWAP1 PUSH1 0x20 ADD KECCAK256 PUSH1 0x0 SHR PUSH2 0xFD0 SWAP2 SWAP1 PUSH2 0x2AC9 JUMP JUMPDEST SWAP1 POP PUSH1 0xA DUP2 DUP2 SLOAD DUP2 LT PUSH2 0xFE5 JUMPI PUSH2 0xFE5 PUSH2 0x2A34 JUMP JUMPDEST SWAP1 PUSH1 0x0 MSTORE PUSH1 0x20 PUSH1 0x0 KECCAK256 ADD PUSH1 0x0 SWAP1 SLOAD SWAP1 PUSH2 0x100 EXP SWAP1 DIV PUSH1 0x1 PUSH1 0x1 PUSH1 0xA0 SHL SUB AND DUP5 DUP4 DUP2 MLOAD DUP2 LT PUSH2 0x1015 JUMPI PUSH2 0x1015 PUSH2 0x2A34 JUMP JUMPDEST PUSH1 0x1 PUSH1 0x1 PUSH1 0xA0 SHL SUB SWAP1 SWAP3 AND PUSH1 0x20 SWAP3 DUP4 MUL SWAP2 SWAP1 SWAP2 ADD SWAP1 SWAP2 ADD MSTORE DUP3 PUSH2 0x1037 DUP2 PUSH2 0x2A60 JUMP JUMPDEST SWAP4 POP POP POP PUSH1 0x1 ADD PUSH2 0xF82 JUMP JUMPDEST POP SWAP1 SWAP4 SWAP3 POP POP POP JUMP JUMPDEST PUSH1 0xB DUP2 DUP2 SLOAD DUP2 LT PUSH2 0x6FB JUMPI PUSH1 0x0 DUP1 REVERT JUMPDEST PUSH2 0x1065 CALLER PUSH2 0x205B JUMP JUMPDEST DUP1 PUSH2 0x1070 JUMPI POP PUSH1 0xB SLOAD ISZERO JUMPDEST PUSH2 0x10D7 JUMPI PUSH1 0x40 MLOAD PUSH3 0x461BCD PUSH1 0xE5 SHL DUP2 MSTORE PUSH1 0x20 PUSH1 0x4 DUP3 ADD MSTORE PUSH1 0x32 PUSH1 0x24 DUP3 ADD MSTORE PUSH32 0x43616C6C6572206973206E6F7420612073656C65637465642076616C69646174 PUSH1 0x44 DUP3 ADD MSTORE PUSH18 0x6F7220666F72207468697320726F756E6421 PUSH1 0x70 SHL PUSH1 0x64 DUP3 ADD MSTORE PUSH1 0x84 ADD PUSH2 0x744 JUMP JUMPDEST CALLER PUSH1 0x0 SWAP1 DUP2 MSTORE PUSH1 0x10 PUSH1 0x20 MSTORE PUSH1 0x40 SWAP1 KECCAK256 SLOAD PUSH1 0xFF AND ISZERO PUSH2 0x1156 JUMPI PUSH1 0x40 MLOAD PUSH3 0x461BCD PUSH1 0xE5 SHL DUP2 MSTORE PUSH1 0x20 PUSH1 0x4 DUP3 ADD MSTORE PUSH1 0x36 PUSH1 0x24 DUP3 ADD MSTORE PUSH32 0x56616C696461746F722068617320616C7265616479207375626D697474656420 PUSH1 0x44 DUP3 ADD MSTORE PUSH22 0x612070726F706F73616C207468697320726F756E6421 PUSH1 0x50 SHL PUSH1 0x64 DUP3 ADD MSTORE PUSH1 0x84 ADD PUSH2 0x744 JUMP JUMPDEST PUSH1 0x0 PUSH1 0x4 SLOAD TIMESTAMP PUSH2 0x1166 SWAP2 SWAP1 PUSH2 0x2ADD JUMP JUMPDEST LT ISZERO PUSH2 0x11EE JUMPI PUSH1 0x40 MLOAD PUSH3 0x461BCD PUSH1 0xE5 SHL DUP2 MSTORE PUSH1 0x20 PUSH1 0x4 DUP3 ADD MSTORE PUSH1 0x4B PUSH1 0x24 DUP3 ADD MSTORE PUSH32 0x50726F706F73616C73206D757374206265207375626D69747465642061667465 PUSH1 0x44 DUP3 ADD MSTORE PUSH32 0x72205550444154455F54494D452073696E6365206C61737420617070726F7665 PUSH1 0x64 DUP3 ADD MSTORE PUSH11 0x642070726F706F73616C21 PUSH1 0xA8 SHL PUSH1 0x84 DUP3 ADD MSTORE PUSH1 0xA4 ADD PUSH2 0x744 JUMP JUMPDEST DUP1 MLOAD DUP3 MLOAD EQ PUSH2 0x1252 JUMPI PUSH1 0x40 MLOAD PUSH3 0x461BCD PUSH1 0xE5 SHL DUP2 MSTORE PUSH1 0x20 PUSH1 0x4 DUP3 ADD MSTORE PUSH1 0x2A PUSH1 0x24 DUP3 ADD MSTORE PUSH32 0x46756E6374696F6E20747970657320616E642064617461206C656E677468206D PUSH1 0x44 DUP3 ADD MSTORE PUSH10 0x757374206D6174636821 PUSH1 0xB0 SHL PUSH1 0x64 DUP3 ADD MSTORE PUSH1 0x84 ADD PUSH2 0x744 JUMP JUMPDEST PUSH1 0x40 DUP1 MLOAD PUSH1 0xA0 DUP2 ADD DUP3 MSTORE PUSH1 0x8 SLOAD DUP2 MSTORE PUSH1 0x20 DUP1 DUP3 ADD DUP6 DUP2 MSTORE SWAP3 DUP3 ADD DUP5 SWAP1 MSTORE PUSH1 0x0 PUSH1 0x60 DUP4 ADD DUP2 SWAP1 MSTORE PUSH1 0x80 DUP4 ADD DUP2 SWAP1 MSTORE PUSH1 0xC DUP1 SLOAD PUSH1 0x1 DUP2 ADD DUP3 SSTORE SWAP2 MSTORE DUP3 MLOAD PUSH32 0xDF6966C971051C3D54EC59162606531493A51404A002842F56009D7E5CF4A8C7 PUSH1 0x5 SWAP1 SWAP3 MUL SWAP2 DUP3 ADD SWAP1 DUP2 SSTORE SWAP4 MLOAD DUP1 MLOAD SWAP4 SWAP5 DUP6 SWAP5 SWAP1 SWAP4 PUSH2 0x12F1 SWAP4 PUSH32 0xDF6966C971051C3D54EC59162606531493A51404A002842F56009D7E5CF4A8C8 ADD SWAP3 ADD SWAP1 PUSH2 0x232A JUMP JUMPDEST POP PUSH1 0x40 DUP3 ADD MLOAD DUP1 MLOAD PUSH2 0x130D SWAP2 PUSH1 0x2 DUP5 ADD SWAP2 PUSH1 0x20 SWAP1 SWAP2 ADD SWAP1 PUSH2 0x23DE JUMP JUMPDEST POP PUSH1 0x60 DUP3 ADD MLOAD PUSH1 0x3 DUP3 ADD DUP1 SLOAD SWAP2 ISZERO ISZERO PUSH1 0xFF NOT SWAP3 DUP4 AND OR SWAP1 SSTORE PUSH1 0x80 SWAP1 SWAP3 ADD MLOAD PUSH1 0x4 SWAP2 DUP3 ADD SSTORE CALLER PUSH1 0x0 DUP2 DUP2 MSTORE PUSH1 0x10 PUSH1 0x20 MSTORE PUSH1 0x40 DUP1 DUP3 KECCAK256 DUP1 SLOAD SWAP1 SWAP6 AND PUSH1 0x1 OR SWAP1 SWAP5 SSTORE PUSH1 0x5 SLOAD SWAP4 MLOAD PUSH4 0x18BEC03F PUSH1 0xE2 SHL DUP2 MSTORE SWAP3 DUP4 ADD SWAP2 SWAP1 SWAP2 MSTORE SWAP2 PUSH1 0x1 PUSH1 0x1 PUSH1 0xA0 SHL SUB AND SWAP1 PUSH4 0x62FB00FC SWAP1 PUSH1 0x24 ADD PUSH1 0x20 PUSH1 0x40 MLOAD DUP1 DUP4 SUB DUP2 DUP7 GAS STATICCALL ISZERO DUP1 ISZERO PUSH2 0x1393 JUMPI RETURNDATASIZE PUSH1 0x0 DUP1 RETURNDATACOPY RETURNDATASIZE PUSH1 0x0 REVERT JUMPDEST POP POP POP POP PUSH1 0x40 MLOAD RETURNDATASIZE PUSH1 0x1F NOT PUSH1 0x1F DUP3 ADD AND DUP3 ADD DUP1 PUSH1 0x40 MSTORE POP DUP2 ADD SWAP1 PUSH2 0x13B7 SWAP2 SWAP1 PUSH2 0x2AF6 JUMP JUMPDEST PUSH1 0x8 SLOAD PUSH1 0xC SLOAD PUSH1 0x40 DUP1 MLOAD SWAP3 DUP4 MSTORE PUSH1 0xFF SWAP1 SWAP2 AND PUSH1 0x20 DUP4 ADD MSTORE DUP2 ADD DUP3 SWAP1 MSTORE SWAP1 SWAP2 POP PUSH32 0x2E2AA07026498B94DD9DD36AAD3F981A808E2230FEF0DEDD41B77374C71196A6 SWAP1 PUSH1 0x60 ADD PUSH1 0x40 MLOAD DUP1 SWAP2 SUB SWAP1 LOG1 POP POP POP POP JUMP JUMPDEST PUSH1 0x60 PUSH1 0xB DUP1 SLOAD DUP1 PUSH1 0x20 MUL PUSH1 0x20 ADD PUSH1 0x40 MLOAD SWAP1 DUP2 ADD PUSH1 0x40 MSTORE DUP1 SWAP3 SWAP2 SWAP1 DUP2 DUP2 MSTORE PUSH1 0x20 ADD DUP3 DUP1 SLOAD DUP1 ISZERO PUSH2 0x1461 JUMPI PUSH1 0x20 MUL DUP3 ADD SWAP2 SWAP1 PUSH1 0x0 MSTORE PUSH1 0x20 PUSH1 0x0 KECCAK256 SWAP1 JUMPDEST DUP2 SLOAD PUSH1 0x1 PUSH1 0x1 PUSH1 0xA0 SHL SUB AND DUP2 MSTORE PUSH1 0x1 SWAP1 SWAP2 ADD SWAP1 PUSH1 0x20 ADD DUP1 DUP4 GT PUSH2 0x1443 JUMPI JUMPDEST POP POP POP POP POP SWAP1 POP SWAP1 JUMP JUMPDEST PUSH1 0x1 PUSH1 0x1 PUSH1 0xA0 SHL SUB DUP2 AND PUSH1 0x0 SWAP1 DUP2 MSTORE PUSH1 0xD PUSH1 0x20 MSTORE PUSH1 0x40 SWAP1 KECCAK256 SLOAD PUSH1 0xFF AND PUSH2 0x14D3 JUMPI PUSH1 0x40 MLOAD PUSH3 0x461BCD PUSH1 0xE5 SHL DUP2 MSTORE PUSH1 0x20 PUSH1 0x4 DUP3 ADD MSTORE PUSH1 0x19 PUSH1 0x24 DUP3 ADD MSTORE PUSH32 0x56616C696461746F72206E6F7420726567697374657265642100000000000000 PUSH1 0x44 DUP3 ADD MSTORE PUSH1 0x64 ADD PUSH2 0x744 JUMP JUMPDEST PUSH1 0x1 PUSH1 0x1 PUSH1 0xA0 SHL SUB DUP2 AND PUSH1 0x0 SWAP1 DUP2 MSTORE PUSH1 0xD PUSH1 0x20 MSTORE PUSH1 0x40 DUP2 KECCAK256 DUP1 SLOAD PUSH1 0xFF NOT AND SWAP1 SSTORE JUMPDEST PUSH1 0xA SLOAD DUP2 LT ISZERO PUSH2 0x15EF JUMPI DUP2 PUSH1 0x1 PUSH1 0x1 PUSH1 0xA0 SHL SUB AND PUSH1 0xA DUP3 DUP2 SLOAD DUP2 LT PUSH2 0x151B JUMPI PUSH2 0x151B PUSH2 0x2A34 JUMP JUMPDEST PUSH1 0x0 SWAP2 DUP3 MSTORE PUSH1 0x20 SWAP1 SWAP2 KECCAK256 ADD SLOAD PUSH1 0x1 PUSH1 0x1 PUSH1 0xA0 SHL SUB AND SUB PUSH2 0x15E7 JUMPI PUSH1 0xA DUP1 SLOAD PUSH2 0x1545 SWAP1 PUSH1 0x1 SWAP1 PUSH2 0x2ADD JUMP JUMPDEST DUP2 SLOAD DUP2 LT PUSH2 0x1555 JUMPI PUSH2 0x1555 PUSH2 0x2A34 JUMP JUMPDEST PUSH1 0x0 SWAP2 DUP3 MSTORE PUSH1 0x20 SWAP1 SWAP2 KECCAK256 ADD SLOAD PUSH1 0xA DUP1 SLOAD PUSH1 0x1 PUSH1 0x1 PUSH1 0xA0 SHL SUB SWAP1 SWAP3 AND SWAP2 DUP4 SWAP1 DUP2 LT PUSH2 0x1581 JUMPI PUSH2 0x1581 PUSH2 0x2A34 JUMP JUMPDEST SWAP1 PUSH1 0x0 MSTORE PUSH1 0x20 PUSH1 0x0 KECCAK256 ADD PUSH1 0x0 PUSH2 0x100 EXP DUP2 SLOAD DUP2 PUSH1 0x1 PUSH1 0x1 PUSH1 0xA0 SHL SUB MUL NOT AND SWAP1 DUP4 PUSH1 0x1 PUSH1 0x1 PUSH1 0xA0 SHL SUB AND MUL OR SWAP1 SSTORE POP PUSH1 0xA DUP1 SLOAD DUP1 PUSH2 0x15C0 JUMPI PUSH2 0x15C0 PUSH2 0x2B0F JUMP JUMPDEST PUSH1 0x0 DUP3 DUP2 MSTORE PUSH1 0x20 SWAP1 KECCAK256 DUP2 ADD PUSH1 0x0 NOT SWAP1 DUP2 ADD DUP1 SLOAD PUSH1 0x1 PUSH1 0x1 PUSH1 0xA0 SHL SUB NOT AND SWAP1 SSTORE ADD SWAP1 SSTORE PUSH2 0x15EF JUMP JUMPDEST PUSH1 0x1 ADD PUSH2 0x14F4 JUMP JUMPDEST POP PUSH2 0x15F8 PUSH2 0x1631 JUMP JUMPDEST PUSH1 0x40 MLOAD PUSH1 0x1 PUSH1 0x1 PUSH1 0xA0 SHL SUB DUP3 AND DUP2 MSTORE PUSH32 0xE1434E25D6611E0DB941968FDC97811C982AC1602E951637D206F5FDDA9DD8F1 SWAP1 PUSH1 0x20 ADD PUSH2 0x95C JUMP JUMPDEST PUSH1 0x1 SLOAD PUSH1 0xA SLOAD PUSH1 0x64 SWAP2 PUSH2 0x1643 SWAP2 PUSH2 0x2B25 JUMP JUMPDEST PUSH2 0x164E SWAP1 PUSH1 0x50 PUSH2 0x2B3C JUMP JUMPDEST PUSH2 0x1658 SWAP2 SWAP1 PUSH2 0x2B4F JUMP JUMPDEST PUSH1 0x2 DUP2 SWAP1 SSTORE PUSH1 0x0 SUB PUSH2 0x166A JUMPI PUSH1 0x1 PUSH1 0x2 SSTORE JUMPDEST JUMP JUMPDEST CALLER PUSH1 0x0 SWAP1 DUP2 MSTORE PUSH1 0xD PUSH1 0x20 MSTORE PUSH1 0x40 SWAP1 KECCAK256 SLOAD PUSH1 0xFF AND PUSH2 0x169B JUMPI PUSH1 0x40 MLOAD PUSH3 0x461BCD PUSH1 0xE5 SHL DUP2 MSTORE PUSH1 0x4 ADD PUSH2 0x744 SWAP1 PUSH2 0x29EE JUMP JUMPDEST PUSH1 0x3 DUP3 ADD SLOAD PUSH1 0xFF AND ISZERO PUSH2 0x16F0 JUMPI PUSH1 0x40 MLOAD PUSH3 0x461BCD PUSH1 0xE5 SHL DUP2 MSTORE PUSH1 0x20 PUSH1 0x4 DUP3 ADD MSTORE PUSH1 0x1A PUSH1 0x24 DUP3 ADD MSTORE PUSH32 0x50726F706F73616C20616C72656164792065786563757465642E000000000000 PUSH1 0x44 DUP3 ADD MSTORE PUSH1 0x64 ADD PUSH2 0x744 JUMP JUMPDEST PUSH1 0x3 SLOAD PUSH1 0x1 DUP4 ADD SLOAD GT ISZERO PUSH2 0x1751 JUMPI PUSH1 0x40 MLOAD PUSH3 0x461BCD PUSH1 0xE5 SHL DUP2 MSTORE PUSH1 0x20 PUSH1 0x4 DUP3 ADD MSTORE PUSH1 0x22 PUSH1 0x24 DUP3 ADD MSTORE PUSH32 0x4D757374206E6F7420657863656564206D617820737461746520757064617465 PUSH1 0x44 DUP3 ADD MSTORE PUSH2 0x7321 PUSH1 0xF0 SHL PUSH1 0x64 DUP3 ADD MSTORE PUSH1 0x84 ADD PUSH2 0x744 JUMP JUMPDEST PUSH1 0x0 DUP1 JUMPDEST PUSH1 0x1 DUP5 ADD SLOAD DUP2 LT ISZERO PUSH2 0x188A JUMPI PUSH1 0x2 DUP5 PUSH1 0x1 ADD DUP3 DUP2 SLOAD DUP2 LT PUSH2 0x1778 JUMPI PUSH2 0x1778 PUSH2 0x2A34 JUMP JUMPDEST SWAP1 PUSH1 0x0 MSTORE PUSH1 0x20 PUSH1 0x0 KECCAK256 SWAP1 PUSH1 0x20 SWAP2 DUP3 DUP3 DIV ADD SWAP2 SWAP1 MOD SWAP1 SLOAD SWAP1 PUSH2 0x100 EXP SWAP1 DIV PUSH1 0xFF AND PUSH1 0x2 DUP2 GT ISZERO PUSH2 0x17A9 JUMPI PUSH2 0x17A9 PUSH2 0x25F0 JUMP JUMPDEST SUB PUSH2 0x1882 JUMPI PUSH1 0x0 DUP1 DUP6 PUSH1 0x2 ADD DUP4 DUP2 SLOAD DUP2 LT PUSH2 0x17C6 JUMPI PUSH2 0x17C6 PUSH2 0x2A34 JUMP JUMPDEST SWAP1 PUSH1 0x0 MSTORE PUSH1 0x20 PUSH1 0x0 KECCAK256 ADD DUP1 SLOAD PUSH2 0x17DB SWAP1 PUSH2 0x2A79 JUMP JUMPDEST DUP1 PUSH1 0x1F ADD PUSH1 0x20 DUP1 SWAP2 DIV MUL PUSH1 0x20 ADD PUSH1 0x40 MLOAD SWAP1 DUP2 ADD PUSH1 0x40 MSTORE DUP1 SWAP3 SWAP2 SWAP1 DUP2 DUP2 MSTORE PUSH1 0x20 ADD DUP3 DUP1 SLOAD PUSH2 0x1807 SWAP1 PUSH2 0x2A79 JUMP JUMPDEST DUP1 ISZERO PUSH2 0x1854 JUMPI DUP1 PUSH1 0x1F LT PUSH2 0x1829 JUMPI PUSH2 0x100 DUP1 DUP4 SLOAD DIV MUL DUP4 MSTORE SWAP2 PUSH1 0x20 ADD SWAP2 PUSH2 0x1854 JUMP JUMPDEST DUP3 ADD SWAP2 SWAP1 PUSH1 0x0 MSTORE PUSH1 0x20 PUSH1 0x0 KECCAK256 SWAP1 JUMPDEST DUP2 SLOAD DUP2 MSTORE SWAP1 PUSH1 0x1 ADD SWAP1 PUSH1 0x20 ADD DUP1 DUP4 GT PUSH2 0x1837 JUMPI DUP3 SWAP1 SUB PUSH1 0x1F AND DUP3 ADD SWAP2 JUMPDEST POP POP POP POP POP DUP1 PUSH1 0x20 ADD SWAP1 MLOAD DUP2 ADD SWAP1 PUSH2 0x186C SWAP2 SWAP1 PUSH2 0x2BD6 JUMP JUMPDEST SWAP2 POP SWAP2 POP DUP1 MLOAD DUP5 PUSH2 0x187D SWAP2 SWAP1 PUSH2 0x2B3C JUMP JUMPDEST SWAP4 POP POP POP JUMPDEST PUSH1 0x1 ADD PUSH2 0x1755 JUMP JUMPDEST POP PUSH1 0x0 DUP2 PUSH8 0xFFFFFFFFFFFFFFFF DUP2 GT ISZERO PUSH2 0x18A6 JUMPI PUSH2 0x18A6 PUSH2 0x279B JUMP JUMPDEST PUSH1 0x40 MLOAD SWAP1 DUP1 DUP3 MSTORE DUP1 PUSH1 0x20 MUL PUSH1 0x20 ADD DUP3 ADD PUSH1 0x40 MSTORE DUP1 ISZERO PUSH2 0x18CF JUMPI DUP2 PUSH1 0x20 ADD PUSH1 0x20 DUP3 MUL DUP1 CALLDATASIZE DUP4 CALLDATACOPY ADD SWAP1 POP JUMPDEST POP SWAP1 POP PUSH1 0x0 DUP3 PUSH8 0xFFFFFFFFFFFFFFFF DUP2 GT ISZERO PUSH2 0x18ED JUMPI PUSH2 0x18ED PUSH2 0x279B JUMP JUMPDEST PUSH1 0x40 MLOAD SWAP1 DUP1 DUP3 MSTORE DUP1 PUSH1 0x20 MUL PUSH1 0x20 ADD DUP3 ADD PUSH1 0x40 MSTORE DUP1 ISZERO PUSH2 0x1916 JUMPI DUP2 PUSH1 0x20 ADD PUSH1 0x20 DUP3 MUL DUP1 CALLDATASIZE DUP4 CALLDATACOPY ADD SWAP1 POP JUMPDEST POP SWAP1 POP PUSH1 0x0 DUP1 PUSH1 0x0 JUMPDEST PUSH1 0x1 DUP9 ADD SLOAD DUP2 LT ISZERO PUSH2 0x1E3D JUMPI PUSH1 0x0 DUP9 PUSH1 0x1 ADD DUP3 DUP2 SLOAD DUP2 LT PUSH2 0x1942 JUMPI PUSH2 0x1942 PUSH2 0x2A34 JUMP JUMPDEST SWAP1 PUSH1 0x0 MSTORE PUSH1 0x20 PUSH1 0x0 KECCAK256 SWAP1 PUSH1 0x20 SWAP2 DUP3 DUP3 DIV ADD SWAP2 SWAP1 MOD SWAP1 SLOAD SWAP1 PUSH2 0x100 EXP SWAP1 DIV PUSH1 0xFF AND PUSH1 0x2 DUP2 GT ISZERO PUSH2 0x1973 JUMPI PUSH2 0x1973 PUSH2 0x25F0 JUMP JUMPDEST SUB PUSH2 0x1A46 JUMPI PUSH1 0x0 DUP9 PUSH1 0x2 ADD DUP3 DUP2 SLOAD DUP2 LT PUSH2 0x198F JUMPI PUSH2 0x198F PUSH2 0x2A34 JUMP JUMPDEST SWAP1 PUSH1 0x0 MSTORE PUSH1 0x20 PUSH1 0x0 KECCAK256 ADD DUP1 SLOAD PUSH2 0x19A4 SWAP1 PUSH2 0x2A79 JUMP JUMPDEST DUP1 PUSH1 0x1F ADD PUSH1 0x20 DUP1 SWAP2 DIV MUL PUSH1 0x20 ADD PUSH1 0x40 MLOAD SWAP1 DUP2 ADD PUSH1 0x40 MSTORE DUP1 SWAP3 SWAP2 SWAP1 DUP2 DUP2 MSTORE PUSH1 0x20 ADD DUP3 DUP1 SLOAD PUSH2 0x19D0 SWAP1 PUSH2 0x2A79 JUMP JUMPDEST DUP1 ISZERO PUSH2 0x1A1D JUMPI DUP1 PUSH1 0x1F LT PUSH2 0x19F2 JUMPI PUSH2 0x100 DUP1 DUP4 SLOAD DIV MUL DUP4 MSTORE SWAP2 PUSH1 0x20 ADD SWAP2 PUSH2 0x1A1D JUMP JUMPDEST DUP3 ADD SWAP2 SWAP1 PUSH1 0x0 MSTORE PUSH1 0x20 PUSH1 0x0 KECCAK256 SWAP1 JUMPDEST DUP2 SLOAD DUP2 MSTORE SWAP1 PUSH1 0x1 ADD SWAP1 PUSH1 0x20 ADD DUP1 DUP4 GT PUSH2 0x1A00 JUMPI DUP3 SWAP1 SUB PUSH1 0x1F AND DUP3 ADD SWAP2 JUMPDEST POP POP POP POP POP DUP1 PUSH1 0x20 ADD SWAP1 MLOAD DUP2 ADD SWAP1 PUSH2 0x1A35 SWAP2 SWAP1 PUSH2 0x2C13 JUMP JUMPDEST SWAP1 POP PUSH2 0x1A40 DUP2 PUSH2 0x146B JUMP JUMPDEST POP PUSH2 0x1E35 JUMP JUMPDEST PUSH1 0x1 DUP9 PUSH1 0x1 ADD DUP3 DUP2 SLOAD DUP2 LT PUSH2 0x1A5D JUMPI PUSH2 0x1A5D PUSH2 0x2A34 JUMP JUMPDEST SWAP1 PUSH1 0x0 MSTORE PUSH1 0x20 PUSH1 0x0 KECCAK256 SWAP1 PUSH1 0x20 SWAP2 DUP3 DUP3 DIV ADD SWAP2 SWAP1 MOD SWAP1 SLOAD SWAP1 PUSH2 0x100 EXP SWAP1 DIV PUSH1 0xFF AND PUSH1 0x2 DUP2 GT ISZERO PUSH2 0x1A8E JUMPI PUSH2 0x1A8E PUSH2 0x25F0 JUMP JUMPDEST SUB PUSH2 0x1BDD JUMPI PUSH1 0x0 DUP1 PUSH1 0x0 DUP11 PUSH1 0x2 ADD DUP5 DUP2 SLOAD DUP2 LT PUSH2 0x1AAD JUMPI PUSH2 0x1AAD PUSH2 0x2A34 JUMP JUMPDEST SWAP1 PUSH1 0x0 MSTORE PUSH1 0x20 PUSH1 0x0 KECCAK256 ADD DUP1 SLOAD PUSH2 0x1AC2 SWAP1 PUSH2 0x2A79 JUMP JUMPDEST DUP1 PUSH1 0x1F ADD PUSH1 0x20 DUP1 SWAP2 DIV MUL PUSH1 0x20 ADD PUSH1 0x40 MLOAD SWAP1 DUP2 ADD PUSH1 0x40 MSTORE DUP1 SWAP3 SWAP2 SWAP1 DUP2 DUP2 MSTORE PUSH1 0x20 ADD DUP3 DUP1 SLOAD PUSH2 0x1AEE SWAP1 PUSH2 0x2A79 JUMP JUMPDEST DUP1 ISZERO PUSH2 0x1B3B JUMPI DUP1 PUSH1 0x1F LT PUSH2 0x1B10 JUMPI PUSH2 0x100 DUP1 DUP4 SLOAD DIV MUL DUP4 MSTORE SWAP2 PUSH1 0x20 ADD SWAP2 PUSH2 0x1B3B JUMP JUMPDEST DUP3 ADD SWAP2 SWAP1 PUSH1 0x0 MSTORE PUSH1 0x20 PUSH1 0x0 KECCAK256 SWAP1 JUMPDEST DUP2 SLOAD DUP2 MSTORE SWAP1 PUSH1 0x1 ADD SWAP1 PUSH1 0x20 ADD DUP1 DUP4 GT PUSH2 0x1B1E JUMPI DUP3 SWAP1 SUB PUSH1 0x1F AND DUP3 ADD SWAP2 JUMPDEST POP POP POP POP POP DUP1 PUSH1 0x20 ADD SWAP1 MLOAD DUP2 ADD SWAP1 PUSH2 0x1B53 SWAP2 SWAP1 PUSH2 0x2C8F JUMP JUMPDEST PUSH1 0x5 SLOAD PUSH1 0x40 MLOAD PUSH4 0x1D4E7793 PUSH1 0xE0 SHL DUP2 MSTORE SWAP4 SWAP7 POP SWAP2 SWAP5 POP SWAP3 POP PUSH1 0x1 PUSH1 0x1 PUSH1 0xA0 SHL SUB AND SWAP1 PUSH4 0x1D4E7793 SWAP1 PUSH2 0x1B8D SWAP1 DUP7 SWAP1 DUP7 SWAP1 DUP7 SWAP1 PUSH1 0x4 ADD PUSH2 0x2D10 JUMP JUMPDEST PUSH1 0x0 PUSH1 0x40 MLOAD DUP1 DUP4 SUB DUP2 PUSH1 0x0 DUP8 GAS CALL ISZERO DUP1 ISZERO PUSH2 0x1BAC JUMPI RETURNDATASIZE PUSH1 0x0 DUP1 RETURNDATACOPY RETURNDATASIZE PUSH1 0x0 REVERT JUMPDEST POP POP POP POP PUSH1 0x40 MLOAD RETURNDATASIZE PUSH1 0x0 DUP3 RETURNDATACOPY PUSH1 0x1F RETURNDATASIZE SWAP1 DUP2 ADD PUSH1 0x1F NOT AND DUP3 ADD PUSH1 0x40 MSTORE PUSH2 0x1BD4 SWAP2 SWAP1 DUP2 ADD SWAP1 PUSH2 0x2D38 JUMP JUMPDEST POP POP POP POP PUSH2 0x1E35 JUMP JUMPDEST PUSH1 0x2 DUP9 PUSH1 0x1 ADD DUP3 DUP2 SLOAD DUP2 LT PUSH2 0x1BF4 JUMPI PUSH2 0x1BF4 PUSH2 0x2A34 JUMP JUMPDEST SWAP1 PUSH1 0x0 MSTORE PUSH1 0x20 PUSH1 0x0 KECCAK256 SWAP1 PUSH1 0x20 SWAP2 DUP3 DUP3 DIV ADD SWAP2 SWAP1 MOD SWAP1 SLOAD SWAP1 PUSH2 0x100 EXP SWAP1 DIV PUSH1 0xFF AND PUSH1 0x2 DUP2 GT ISZERO PUSH2 0x1C25 JUMPI PUSH2 0x1C25 PUSH2 0x25F0 JUMP JUMPDEST SUB PUSH2 0x1E35 JUMPI PUSH1 0x0 DUP1 DUP10 PUSH1 0x2 ADD DUP4 DUP2 SLOAD DUP2 LT PUSH2 0x1C42 JUMPI PUSH2 0x1C42 PUSH2 0x2A34 JUMP JUMPDEST SWAP1 PUSH1 0x0 MSTORE PUSH1 0x20 PUSH1 0x0 KECCAK256 ADD DUP1 SLOAD PUSH2 0x1C57 SWAP1 PUSH2 0x2A79 JUMP JUMPDEST DUP1 PUSH1 0x1F ADD PUSH1 0x20 DUP1 SWAP2 DIV MUL PUSH1 0x20 ADD PUSH1 0x40 MLOAD SWAP1 DUP2 ADD PUSH1 0x40 MSTORE DUP1 SWAP3 SWAP2 SWAP1 DUP2 DUP2 MSTORE PUSH1 0x20 ADD DUP3 DUP1 SLOAD PUSH2 0x1C83 SWAP1 PUSH2 0x2A79 JUMP JUMPDEST DUP1 ISZERO PUSH2 0x1CD0 JUMPI DUP1 PUSH1 0x1F LT PUSH2 0x1CA5 JUMPI PUSH2 0x100 DUP1 DUP4 SLOAD DIV MUL DUP4 MSTORE SWAP2 PUSH1 0x20 ADD SWAP2 PUSH2 0x1CD0 JUMP JUMPDEST DUP3 ADD SWAP2 SWAP1 PUSH1 0x0 MSTORE PUSH1 0x20 PUSH1 0x0 KECCAK256 SWAP1 JUMPDEST DUP2 SLOAD DUP2 MSTORE SWAP1 PUSH1 0x1 ADD SWAP1 PUSH1 0x20 ADD DUP1 DUP4 GT PUSH2 0x1CB3 JUMPI DUP3 SWAP1 SUB PUSH1 0x1F AND DUP3 ADD SWAP2 JUMPDEST POP POP POP POP POP DUP1 PUSH1 0x20 ADD SWAP1 MLOAD DUP2 ADD SWAP1 PUSH2 0x1CE8 SWAP2 SWAP1 PUSH2 0x2BD6 JUMP JUMPDEST PUSH1 0x5 SLOAD PUSH1 0x40 MLOAD PUSH4 0x10EA3645 PUSH1 0xE2 SHL DUP2 MSTORE SWAP3 SWAP5 POP SWAP1 SWAP3 POP PUSH1 0x0 SWAP2 PUSH1 0x1 PUSH1 0x1 PUSH1 0xA0 SHL SUB SWAP1 SWAP2 AND SWAP1 PUSH4 0x43A8D914 SWAP1 PUSH2 0x1D23 SWAP1 DUP7 SWAP1 DUP7 SWAP1 PUSH1 0x4 ADD PUSH2 0x2D75 JUMP JUMPDEST PUSH1 0x0 PUSH1 0x40 MLOAD DUP1 DUP4 SUB DUP2 PUSH1 0x0 DUP8 GAS CALL ISZERO DUP1 ISZERO PUSH2 0x1D42 JUMPI RETURNDATASIZE PUSH1 0x0 DUP1 RETURNDATACOPY RETURNDATASIZE PUSH1 0x0 REVERT JUMPDEST POP POP POP POP PUSH1 0x40 MLOAD RETURNDATASIZE PUSH1 0x0 DUP3 RETURNDATACOPY PUSH1 0x1F RETURNDATASIZE SWAP1 DUP2 ADD PUSH1 0x1F NOT AND DUP3 ADD PUSH1 0x40 MSTORE PUSH2 0x1D6A SWAP2 SWAP1 DUP2 ADD SWAP1 PUSH2 0x2D38 JUMP JUMPDEST SWAP1 POP PUSH1 0x0 JUMPDEST DUP2 MLOAD DUP2 LT ISZERO PUSH2 0x1E30 JUMPI DUP2 DUP2 DUP2 MLOAD DUP2 LT PUSH2 0x1D8A JUMPI PUSH2 0x1D8A PUSH2 0x2A34 JUMP JUMPDEST PUSH1 0x20 MUL PUSH1 0x20 ADD ADD MLOAD DUP8 PUSH2 0x1D9D SWAP2 SWAP1 PUSH2 0x2B3C JUMP JUMPDEST SWAP7 POP DUP2 DUP2 DUP2 MLOAD DUP2 LT PUSH2 0x1DB1 JUMPI PUSH2 0x1DB1 PUSH2 0x2A34 JUMP JUMPDEST PUSH1 0x20 MUL PUSH1 0x20 ADD ADD MLOAD DUP10 DUP8 DUP2 MLOAD DUP2 LT PUSH2 0x1DCB JUMPI PUSH2 0x1DCB PUSH2 0x2A34 JUMP JUMPDEST PUSH1 0x20 MUL PUSH1 0x20 ADD ADD DUP2 DUP2 MSTORE POP POP DUP3 DUP2 DUP2 MLOAD DUP2 LT PUSH2 0x1DE9 JUMPI PUSH2 0x1DE9 PUSH2 0x2A34 JUMP JUMPDEST PUSH1 0x20 MUL PUSH1 0x20 ADD ADD MLOAD DUP9 DUP8 DUP2 MLOAD DUP2 LT PUSH2 0x1E03 JUMPI PUSH2 0x1E03 PUSH2 0x2A34 JUMP JUMPDEST PUSH1 0x1 PUSH1 0x1 PUSH1 0xA0 SHL SUB SWAP1 SWAP3 AND PUSH1 0x20 SWAP3 DUP4 MUL SWAP2 SWAP1 SWAP2 ADD SWAP1 SWAP2 ADD MSTORE DUP6 PUSH2 0x1E25 DUP2 PUSH2 0x2A60 JUMP JUMPDEST SWAP7 POP POP PUSH1 0x1 ADD PUSH2 0x1D6F JUMP JUMPDEST POP POP POP POP JUMPDEST PUSH1 0x1 ADD PUSH2 0x191F JUMP JUMPDEST POP PUSH1 0x0 DUP8 PUSH1 0x4 ADD SLOAD PUSH8 0xFFFFFFFFFFFFFFFF DUP2 GT ISZERO PUSH2 0x1E5D JUMPI PUSH2 0x1E5D PUSH2 0x279B JUMP JUMPDEST PUSH1 0x40 MLOAD SWAP1 DUP1 DUP3 MSTORE DUP1 PUSH1 0x20 MUL PUSH1 0x20 ADD DUP3 ADD PUSH1 0x40 MSTORE DUP1 ISZERO PUSH2 0x1E86 JUMPI DUP2 PUSH1 0x20 ADD PUSH1 0x20 DUP3 MUL DUP1 CALLDATASIZE DUP4 CALLDATACOPY ADD SWAP1 POP JUMPDEST POP SWAP1 POP PUSH1 0x0 JUMPDEST PUSH1 0xA SLOAD DUP2 LT ISZERO PUSH2 0x1F26 JUMPI PUSH1 0x0 PUSH1 0xA DUP3 DUP2 SLOAD DUP2 LT PUSH2 0x1EAB JUMPI PUSH2 0x1EAB PUSH2 0x2A34 JUMP JUMPDEST PUSH1 0x0 SWAP2 DUP3 MSTORE PUSH1 0x20 DUP1 DUP4 KECCAK256 SWAP1 SWAP2 ADD SLOAD PUSH1 0xFF DUP1 DUP14 AND DUP5 MSTORE PUSH1 0x11 DUP4 MSTORE PUSH1 0x40 DUP1 DUP6 KECCAK256 PUSH1 0x1 PUSH1 0x1 PUSH1 0xA0 SHL SUB SWAP1 SWAP4 AND DUP1 DUP7 MSTORE SWAP3 SWAP1 SWAP4 MSTORE SWAP2 SWAP1 SWAP3 KECCAK256 SLOAD SWAP2 SWAP3 POP AND ISZERO PUSH2 0x1F1D JUMPI DUP1 DUP4 DUP4 DUP2 MLOAD DUP2 LT PUSH2 0x1EFC JUMPI PUSH2 0x1EFC PUSH2 0x2A34 JUMP JUMPDEST PUSH1 0x20 MUL PUSH1 0x20 ADD ADD SWAP1 PUSH1 0x1 PUSH1 0x1 PUSH1 0xA0 SHL SUB AND SWAP1 DUP2 PUSH1 0x1 PUSH1 0x1 PUSH1 0xA0 SHL SUB AND DUP2 MSTORE POP POP JUMPDEST POP PUSH1 0x1 ADD PUSH2 0x1E8C JUMP JUMPDEST POP PUSH1 0x5 SLOAD PUSH1 0x40 MLOAD PUSH4 0x51939E91 PUSH1 0xE1 SHL DUP2 MSTORE PUSH1 0x1 PUSH1 0x1 PUSH1 0xA0 SHL SUB SWAP1 SWAP2 AND SWAP1 PUSH4 0xA3273D22 SWAP1 PUSH2 0x1F5D SWAP1 DUP8 SWAP1 DUP10 SWAP1 DUP9 SWAP1 DUP8 SWAP1 PUSH1 0x4 ADD PUSH2 0x2D8E JUMP JUMPDEST PUSH1 0x0 PUSH1 0x40 MLOAD DUP1 DUP4 SUB DUP2 PUSH1 0x0 DUP8 DUP1 EXTCODESIZE ISZERO DUP1 ISZERO PUSH2 0x1F77 JUMPI PUSH1 0x0 DUP1 REVERT JUMPDEST POP GAS CALL ISZERO DUP1 ISZERO PUSH2 0x1F8B JUMPI RETURNDATASIZE PUSH1 0x0 DUP1 RETURNDATACOPY RETURNDATASIZE PUSH1 0x0 REVERT JUMPDEST POP POP POP POP PUSH2 0x3E8 PUSH1 0x8 SLOAD GT ISZERO PUSH2 0x1FF6 JUMPI PUSH1 0xF PUSH1 0x0 PUSH2 0x3E8 PUSH1 0x8 SLOAD PUSH2 0x1FAF SWAP2 SWAP1 PUSH2 0x2ADD JUMP JUMPDEST DUP2 MSTORE PUSH1 0x20 DUP2 ADD SWAP2 SWAP1 SWAP2 MSTORE PUSH1 0x40 ADD PUSH1 0x0 SWAP1 DUP2 KECCAK256 DUP2 DUP2 SSTORE SWAP1 PUSH2 0x1FD2 PUSH1 0x1 DUP4 ADD DUP3 PUSH2 0x2430 JUMP JUMPDEST PUSH2 0x1FE0 PUSH1 0x2 DUP4 ADD PUSH1 0x0 PUSH2 0x2455 JUMP JUMPDEST POP PUSH1 0x3 DUP2 ADD DUP1 SLOAD PUSH1 0xFF NOT AND SWAP1 SSTORE PUSH1 0x0 PUSH1 0x4 SWAP1 SWAP2 ADD SSTORE JUMPDEST PUSH2 0x1FFE PUSH2 0x20BA JUMP JUMPDEST PUSH2 0x2006 PUSH2 0x22A3 JUMP JUMPDEST PUSH1 0x3 DUP9 ADD DUP1 SLOAD PUSH1 0xFF NOT AND PUSH1 0x1 OR SWAP1 SSTORE DUP8 SLOAD PUSH1 0x40 MLOAD PUSH32 0x712AE1383F79AC853F8D882153778E0260EF8F03B504E2866E0593E04D2B291F SWAP2 PUSH2 0x2049 SWAP2 SWAP1 DUP2 MSTORE PUSH1 0x20 ADD SWAP1 JUMP JUMPDEST PUSH1 0x40 MLOAD DUP1 SWAP2 SUB SWAP1 LOG1 POP POP POP POP POP POP POP POP JUMP JUMPDEST PUSH1 0x0 DUP1 JUMPDEST PUSH1 0xB SLOAD DUP2 LT ISZERO PUSH2 0x20B1 JUMPI DUP3 PUSH1 0x1 PUSH1 0x1 PUSH1 0xA0 SHL SUB AND PUSH1 0xB DUP3 DUP2 SLOAD DUP2 LT PUSH2 0x2086 JUMPI PUSH2 0x2086 PUSH2 0x2A34 JUMP JUMPDEST PUSH1 0x0 SWAP2 DUP3 MSTORE PUSH1 0x20 SWAP1 SWAP2 KECCAK256 ADD SLOAD PUSH1 0x1 PUSH1 0x1 PUSH1 0xA0 SHL SUB AND SUB PUSH2 0x20A9 JUMPI POP PUSH1 0x1 SWAP3 SWAP2 POP POP JUMP JUMPDEST PUSH1 0x1 ADD PUSH2 0x205F JUMP JUMPDEST POP PUSH1 0x0 SWAP3 SWAP2 POP POP JUMP JUMPDEST PUSH1 0x0 JUMPDEST PUSH1 0xB SLOAD DUP2 LT ISZERO PUSH2 0x211C JUMPI PUSH1 0x0 PUSH1 0x10 PUSH1 0x0 PUSH1 0xB DUP5 DUP2 SLOAD DUP2 LT PUSH2 0x20E0 JUMPI PUSH2 0x20E0 PUSH2 0x2A34 JUMP JUMPDEST PUSH1 0x0 SWAP2 DUP3 MSTORE PUSH1 0x20 DUP1 DUP4 KECCAK256 SWAP2 SWAP1 SWAP2 ADD SLOAD PUSH1 0x1 PUSH1 0x1 PUSH1 0xA0 SHL SUB AND DUP4 MSTORE DUP3 ADD SWAP3 SWAP1 SWAP3 MSTORE PUSH1 0x40 ADD SWAP1 KECCAK256 DUP1 SLOAD PUSH1 0xFF NOT AND SWAP2 ISZERO ISZERO SWAP2 SWAP1 SWAP2 OR SWAP1 SSTORE PUSH1 0x1 ADD PUSH2 0x20BD JUMP JUMPDEST POP PUSH1 0xB SLOAD PUSH1 0x0 SUB PUSH2 0x218B JUMPI PUSH1 0x0 JUMPDEST PUSH1 0xA SLOAD DUP2 LT ISZERO PUSH2 0x2189 JUMPI PUSH1 0x0 PUSH1 0x10 PUSH1 0x0 PUSH1 0xA DUP5 DUP2 SLOAD DUP2 LT PUSH2 0x214D JUMPI PUSH2 0x214D PUSH2 0x2A34 JUMP JUMPDEST PUSH1 0x0 SWAP2 DUP3 MSTORE PUSH1 0x20 DUP1 DUP4 KECCAK256 SWAP2 SWAP1 SWAP2 ADD SLOAD PUSH1 0x1 PUSH1 0x1 PUSH1 0xA0 SHL SUB AND DUP4 MSTORE DUP3 ADD SWAP3 SWAP1 SWAP3 MSTORE PUSH1 0x40 ADD SWAP1 KECCAK256 DUP1 SLOAD PUSH1 0xFF NOT AND SWAP2 ISZERO ISZERO SWAP2 SWAP1 SWAP2 OR SWAP1 SSTORE PUSH1 0x1 ADD PUSH2 0x212A JUMP JUMPDEST POP JUMPDEST PUSH2 0x2197 PUSH1 0xB PUSH1 0x0 PUSH2 0x2473 JUMP JUMPDEST PUSH1 0x9 SLOAD PUSH1 0xA SLOAD PUSH1 0xFF SWAP1 SWAP2 AND LT PUSH2 0x21EF JUMPI PUSH1 0x40 MLOAD PUSH3 0x461BCD PUSH1 0xE5 SHL DUP2 MSTORE PUSH1 0x20 PUSH1 0x4 DUP3 ADD MSTORE PUSH1 0x1D PUSH1 0x24 DUP3 ADD MSTORE PUSH32 0x4E6F7420656E6F756768206163746976652076616C696461746F727321000000 PUSH1 0x44 DUP3 ADD MSTORE PUSH1 0x64 ADD PUSH2 0x744 JUMP JUMPDEST PUSH1 0x0 JUMPDEST PUSH1 0x9 SLOAD PUSH1 0xFF AND DUP2 LT ISZERO PUSH2 0x7AE JUMPI PUSH1 0xA SLOAD PUSH1 0x40 DUP1 MLOAD TIMESTAMP PUSH1 0x20 DUP3 ADD MSTORE CALLER SWAP2 DUP2 ADD SWAP2 SWAP1 SWAP2 MSTORE PUSH1 0x60 DUP2 ADD DUP4 SWAP1 MSTORE PUSH1 0x0 SWAP2 SWAP1 PUSH1 0x80 ADD PUSH1 0x40 MLOAD PUSH1 0x20 DUP2 DUP4 SUB SUB DUP2 MSTORE SWAP1 PUSH1 0x40 MSTORE DUP1 MLOAD SWAP1 PUSH1 0x20 ADD KECCAK256 PUSH1 0x0 SHR PUSH2 0x2245 SWAP2 SWAP1 PUSH2 0x2AC9 JUMP JUMPDEST SWAP1 POP PUSH1 0xB PUSH1 0xA DUP3 DUP2 SLOAD DUP2 LT PUSH2 0x225C JUMPI PUSH2 0x225C PUSH2 0x2A34 JUMP JUMPDEST PUSH1 0x0 SWAP2 DUP3 MSTORE PUSH1 0x20 DUP1 DUP4 KECCAK256 SWAP1 SWAP2 ADD SLOAD DUP4 SLOAD PUSH1 0x1 DUP2 DUP2 ADD DUP7 SSTORE SWAP5 DUP5 MSTORE SWAP2 SWAP1 SWAP3 KECCAK256 ADD DUP1 SLOAD PUSH1 0x1 PUSH1 0x1 PUSH1 0xA0 SHL SUB NOT AND PUSH1 0x1 PUSH1 0x1 PUSH1 0xA0 SHL SUB SWAP1 SWAP3 AND SWAP2 SWAP1 SWAP2 OR SWAP1 SSTORE SWAP2 SWAP1 SWAP2 ADD SWAP1 POP PUSH2 0x21F2 JUMP JUMPDEST PUSH1 0x0 JUMPDEST PUSH1 0xC SLOAD DUP2 LT ISZERO PUSH2 0x230E JUMPI PUSH1 0xC DUP2 DUP2 SLOAD DUP2 LT PUSH2 0x22C3 JUMPI PUSH2 0x22C3 PUSH2 0x2A34 JUMP JUMPDEST PUSH1 0x0 SWAP2 DUP3 MSTORE PUSH1 0x20 DUP3 KECCAK256 PUSH1 0x5 SWAP1 SWAP2 MUL ADD DUP2 DUP2 SSTORE SWAP1 PUSH2 0x22E3 PUSH1 0x1 DUP4 ADD DUP3 PUSH2 0x2430 JUMP JUMPDEST PUSH2 0x22F1 PUSH1 0x2 DUP4 ADD PUSH1 0x0 PUSH2 0x2455 JUMP JUMPDEST POP PUSH1 0x3 DUP2 ADD DUP1 SLOAD PUSH1 0xFF NOT AND SWAP1 SSTORE PUSH1 0x0 PUSH1 0x4 SWAP1 SWAP2 ADD SSTORE PUSH1 0x1 ADD PUSH2 0x22A6 JUMP JUMPDEST POP TIMESTAMP PUSH1 0x4 SSTORE PUSH1 0x8 DUP1 SLOAD SWAP1 PUSH1 0x0 PUSH2 0x2323 DUP4 PUSH2 0x2A60 JUMP JUMPDEST SWAP2 SWAP1 POP SSTORE POP JUMP JUMPDEST DUP3 DUP1 SLOAD DUP3 DUP3 SSTORE SWAP1 PUSH1 0x0 MSTORE PUSH1 0x20 PUSH1 0x0 KECCAK256 SWAP1 PUSH1 0x1F ADD PUSH1 0x20 SWAP1 DIV DUP2 ADD SWAP3 DUP3 ISZERO PUSH2 0x23CE JUMPI SWAP2 PUSH1 0x20 MUL DUP3 ADD PUSH1 0x0 JUMPDEST DUP4 DUP3 GT ISZERO PUSH2 0x239F JUMPI DUP4 MLOAD DUP4 DUP3 PUSH2 0x100 EXP DUP2 SLOAD DUP2 PUSH1 0xFF MUL NOT AND SWAP1 DUP4 PUSH1 0x2 DUP2 GT ISZERO PUSH2 0x237E JUMPI PUSH2 0x237E PUSH2 0x25F0 JUMP JUMPDEST MUL OR SWAP1 SSTORE POP SWAP3 PUSH1 0x20 ADD SWAP3 PUSH1 0x1 ADD PUSH1 0x20 DUP2 PUSH1 0x0 ADD DIV SWAP3 DUP4 ADD SWAP3 PUSH1 0x1 SUB MUL PUSH2 0x2353 JUMP JUMPDEST DUP1 ISZERO PUSH2 0x23CC JUMPI DUP3 DUP2 PUSH2 0x100 EXP DUP2 SLOAD SWAP1 PUSH1 0xFF MUL NOT AND SWAP1 SSTORE PUSH1 0x1 ADD PUSH1 0x20 DUP2 PUSH1 0x0 ADD DIV SWAP3 DUP4 ADD SWAP3 PUSH1 0x1 SUB MUL PUSH2 0x239F JUMP JUMPDEST POP JUMPDEST POP PUSH2 0x23DA SWAP3 SWAP2 POP PUSH2 0x248D JUMP JUMPDEST POP SWAP1 JUMP JUMPDEST DUP3 DUP1 SLOAD DUP3 DUP3 SSTORE SWAP1 PUSH1 0x0 MSTORE PUSH1 0x20 PUSH1 0x0 KECCAK256 SWAP1 DUP2 ADD SWAP3 DUP3 ISZERO PUSH2 0x2424 JUMPI SWAP2 PUSH1 0x20 MUL DUP3 ADD JUMPDEST DUP3 DUP2 GT ISZERO PUSH2 0x2424 JUMPI DUP3 MLOAD DUP3 SWAP1 PUSH2 0x2414 SWAP1 DUP3 PUSH2 0x2E29 JUMP JUMPDEST POP SWAP2 PUSH1 0x20 ADD SWAP2 SWAP1 PUSH1 0x1 ADD SWAP1 PUSH2 0x23FE JUMP JUMPDEST POP PUSH2 0x23DA SWAP3 SWAP2 POP PUSH2 0x24A2 JUMP JUMPDEST POP DUP1 SLOAD PUSH1 0x0 DUP3 SSTORE PUSH1 0x1F ADD PUSH1 0x20 SWAP1 DIV SWAP1 PUSH1 0x0 MSTORE PUSH1 0x20 PUSH1 0x0 KECCAK256 SWAP1 DUP2 ADD SWAP1 PUSH2 0x7AE SWAP2 SWAP1 PUSH2 0x248D JUMP JUMPDEST POP DUP1 SLOAD PUSH1 0x0 DUP3 SSTORE SWAP1 PUSH1 0x0 MSTORE PUSH1 0x20 PUSH1 0x0 KECCAK256 SWAP1 DUP2 ADD SWAP1 PUSH2 0x7AE SWAP2 SWAP1 PUSH2 0x24A2 JUMP JUMPDEST POP DUP1 SLOAD PUSH1 0x0 DUP3 SSTORE SWAP1 PUSH1 0x0 MSTORE PUSH1 0x20 PUSH1 0x0 KECCAK256 SWAP1 DUP2 ADD SWAP1 PUSH2 0x7AE SWAP2 SWAP1 JUMPDEST JUMPDEST DUP1 DUP3 GT ISZERO PUSH2 0x23DA JUMPI PUSH1 0x0 DUP2 SSTORE PUSH1 0x1 ADD PUSH2 0x248E JUMP JUMPDEST DUP1 DUP3 GT ISZERO PUSH2 0x23DA JUMPI PUSH1 0x0 PUSH2 0x24B6 DUP3 DUP3 PUSH2 0x24BF JUMP JUMPDEST POP PUSH1 0x1 ADD PUSH2 0x24A2 JUMP JUMPDEST POP DUP1 SLOAD PUSH2 0x24CB SWAP1 PUSH2 0x2A79 JUMP JUMPDEST PUSH1 0x0 DUP3 SSTORE DUP1 PUSH1 0x1F LT PUSH2 0x24DB JUMPI POP POP JUMP JUMPDEST PUSH1 0x1F ADD PUSH1 0x20 SWAP1 DIV SWAP1 PUSH1 0x0 MSTORE PUSH1 0x20 PUSH1 0x0 KECCAK256 SWAP1 DUP2 ADD SWAP1 PUSH2 0x7AE SWAP2 SWAP1 PUSH2 0x248D JUMP JUMPDEST PUSH1 0x0 PUSH1 0x20 DUP3 DUP5 SUB SLT ISZERO PUSH2 0x250B JUMPI PUSH1 0x0 DUP1 REVERT JUMPDEST POP CALLDATALOAD SWAP2 SWAP1 POP JUMP JUMPDEST PUSH1 0x0 DUP2 MLOAD DUP1 DUP5 MSTORE PUSH1 0x20 DUP1 DUP6 ADD SWAP5 POP PUSH1 0x20 DUP5 ADD PUSH1 0x0 JUMPDEST DUP4 DUP2 LT ISZERO PUSH2 0x254C JUMPI DUP2 MLOAD PUSH1 0x1 PUSH1 0x1 PUSH1 0xA0 SHL SUB AND DUP8 MSTORE SWAP6 DUP3 ADD SWAP6 SWAP1 DUP3 ADD SWAP1 PUSH1 0x1 ADD PUSH2 0x2527 JUMP JUMPDEST POP SWAP5 SWAP6 SWAP5 POP POP POP POP POP JUMP JUMPDEST DUP5 DUP2 MSTORE DUP4 PUSH1 0x20 DUP3 ADD MSTORE DUP3 PUSH1 0x40 DUP3 ADD MSTORE PUSH1 0x80 PUSH1 0x60 DUP3 ADD MSTORE PUSH1 0x0 PUSH2 0x257C PUSH1 0x80 DUP4 ADD DUP5 PUSH2 0x2512 JUMP JUMPDEST SWAP7 SWAP6 POP POP POP POP POP POP JUMP JUMPDEST PUSH1 0x1 PUSH1 0x1 PUSH1 0xA0 SHL SUB DUP2 AND DUP2 EQ PUSH2 0x7AE JUMPI PUSH1 0x0 DUP1 REVERT JUMPDEST PUSH1 0x0 PUSH1 0x20 DUP3 DUP5 SUB SLT ISZERO PUSH2 0x25AD JUMPI PUSH1 0x0 DUP1 REVERT JUMPDEST DUP2 CALLDATALOAD PUSH2 0x25B8 DUP2 PUSH2 0x2586 JUMP JUMPDEST SWAP4 SWAP3 POP POP POP JUMP JUMPDEST DUP1 CALLDATALOAD PUSH1 0xFF DUP2 AND DUP2 EQ PUSH2 0x25D0 JUMPI PUSH1 0x0 DUP1 REVERT JUMPDEST SWAP2 SWAP1 POP JUMP JUMPDEST PUSH1 0x0 PUSH1 0x20 DUP3 DUP5 SUB SLT ISZERO PUSH2 0x25E7 JUMPI PUSH1 0x0 DUP1 REVERT JUMPDEST PUSH2 0x25B8 DUP3 PUSH2 0x25BF JUMP JUMPDEST PUSH4 0x4E487B71 PUSH1 0xE0 SHL PUSH1 0x0 MSTORE PUSH1 0x21 PUSH1 0x4 MSTORE PUSH1 0x24 PUSH1 0x0 REVERT JUMPDEST PUSH1 0x0 DUP3 DUP3 MLOAD DUP1 DUP6 MSTORE PUSH1 0x20 DUP1 DUP7 ADD SWAP6 POP DUP1 DUP3 PUSH1 0x5 SHL DUP5 ADD ADD DUP2 DUP7 ADD PUSH1 0x0 DUP1 JUMPDEST DUP6 DUP2 LT ISZERO PUSH2 0x2680 JUMPI PUSH1 0x1F NOT DUP1 DUP9 DUP7 SUB ADD DUP12 MSTORE DUP4 MLOAD DUP1 MLOAD DUP1 DUP8 MSTORE DUP5 JUMPDEST DUP2 DUP2 LT ISZERO PUSH2 0x265A JUMPI DUP3 DUP2 ADD DUP10 ADD MLOAD DUP9 DUP3 ADD DUP11 ADD MSTORE DUP9 ADD PUSH2 0x263F JUMP JUMPDEST POP DUP7 DUP2 ADD DUP9 ADD DUP6 SWAP1 MSTORE SWAP12 DUP8 ADD SWAP12 PUSH1 0x1F ADD SWAP1 SWAP2 AND SWAP1 SWAP5 ADD DUP6 ADD SWAP4 POP SWAP2 DUP5 ADD SWAP2 PUSH1 0x1 ADD PUSH2 0x2624 JUMP JUMPDEST POP SWAP2 SWAP9 SWAP8 POP POP POP POP POP POP POP POP JUMP JUMPDEST PUSH1 0x20 DUP1 DUP3 MSTORE DUP3 MLOAD DUP3 DUP3 ADD MSTORE DUP3 DUP2 ADD MLOAD PUSH1 0xA0 PUSH1 0x40 DUP5 ADD MSTORE DUP1 MLOAD PUSH1 0xC0 DUP5 ADD DUP2 SWAP1 MSTORE PUSH1 0x0 SWAP3 SWAP2 DUP3 ADD SWAP1 DUP4 SWAP1 PUSH1 0xE0 DUP7 ADD SWAP1 DUP3 JUMPDEST DUP2 DUP2 LT ISZERO PUSH2 0x26F5 JUMPI DUP5 MLOAD PUSH1 0x3 DUP2 LT PUSH2 0x26E3 JUMPI PUSH4 0x4E487B71 PUSH1 0xE0 SHL DUP6 MSTORE PUSH1 0x21 PUSH1 0x4 MSTORE PUSH1 0x24 DUP6 REVERT JUMPDEST DUP4 MSTORE SWAP4 DUP6 ADD SWAP4 SWAP2 DUP6 ADD SWAP2 PUSH1 0x1 ADD PUSH2 0x26BD JUMP JUMPDEST POP POP PUSH1 0x40 DUP8 ADD MLOAD DUP7 DUP3 SUB PUSH1 0x1F NOT ADD PUSH1 0x60 DUP9 ADD MSTORE SWAP4 POP PUSH2 0x2714 DUP2 DUP6 PUSH2 0x2606 JUMP JUMPDEST SWAP4 POP POP POP POP PUSH1 0x60 DUP5 ADD MLOAD PUSH2 0x272C PUSH1 0x80 DUP6 ADD DUP3 ISZERO ISZERO SWAP1 MSTORE JUMP JUMPDEST POP PUSH1 0x80 DUP5 ADD MLOAD PUSH1 0xA0 DUP5 ADD MSTORE DUP1 SWAP2 POP POP SWAP3 SWAP2 POP POP JUMP JUMPDEST PUSH1 0x0 DUP1 PUSH1 0x0 PUSH1 0x60 DUP5 DUP7 SUB SLT ISZERO PUSH2 0x2756 JUMPI PUSH1 0x0 DUP1 REVERT JUMPDEST DUP4 CALLDATALOAD PUSH2 0x2761 DUP2 PUSH2 0x2586 JUMP JUMPDEST SWAP3 POP PUSH1 0x20 DUP5 ADD CALLDATALOAD SWAP2 POP PUSH1 0x40 DUP5 ADD CALLDATALOAD DUP1 ISZERO ISZERO DUP2 EQ PUSH2 0x277D JUMPI PUSH1 0x0 DUP1 REVERT JUMPDEST DUP1 SWAP2 POP POP SWAP3 POP SWAP3 POP SWAP3 JUMP JUMPDEST PUSH1 0x20 DUP2 MSTORE PUSH1 0x0 PUSH2 0x25B8 PUSH1 0x20 DUP4 ADD DUP5 PUSH2 0x2512 JUMP JUMPDEST PUSH4 0x4E487B71 PUSH1 0xE0 SHL PUSH1 0x0 MSTORE PUSH1 0x41 PUSH1 0x4 MSTORE PUSH1 0x24 PUSH1 0x0 REVERT JUMPDEST PUSH1 0x40 MLOAD PUSH1 0x1F DUP3 ADD PUSH1 0x1F NOT AND DUP2 ADD PUSH8 0xFFFFFFFFFFFFFFFF DUP2 GT DUP3 DUP3 LT OR ISZERO PUSH2 0x27DA JUMPI PUSH2 0x27DA PUSH2 0x279B JUMP JUMPDEST PUSH1 0x40 MSTORE SWAP2 SWAP1 POP JUMP JUMPDEST PUSH1 0x0 PUSH8 0xFFFFFFFFFFFFFFFF DUP3 GT ISZERO PUSH2 0x27FC JUMPI PUSH2 0x27FC PUSH2 0x279B JUMP JUMPDEST POP PUSH1 0x5 SHL PUSH1 0x20 ADD SWAP1 JUMP JUMPDEST PUSH1 0x0 PUSH1 0x1F DUP4 PUSH1 0x1F DUP5 ADD SLT PUSH2 0x2819 JUMPI PUSH1 0x0 DUP1 REVERT JUMPDEST DUP3 CALLDATALOAD PUSH1 0x20 PUSH2 0x282E PUSH2 0x2829 DUP4 PUSH2 0x27E2 JUMP JUMPDEST PUSH2 0x27B1 JUMP JUMPDEST DUP3 DUP2 MSTORE PUSH1 0x5 SWAP3 SWAP1 SWAP3 SHL DUP6 ADD DUP2 ADD SWAP2 DUP2 DUP2 ADD SWAP1 DUP8 DUP5 GT ISZERO PUSH2 0x284D JUMPI PUSH1 0x0 DUP1 REVERT JUMPDEST DUP3 DUP8 ADD JUMPDEST DUP5 DUP2 LT ISZERO PUSH2 0x28E4 JUMPI DUP1 CALLDATALOAD PUSH8 0xFFFFFFFFFFFFFFFF DUP1 DUP3 GT ISZERO PUSH2 0x2872 JUMPI PUSH1 0x0 DUP1 DUP2 REVERT JUMPDEST DUP2 DUP11 ADD SWAP2 POP DUP11 PUSH1 0x3F DUP4 ADD SLT PUSH2 0x2887 JUMPI PUSH1 0x0 DUP1 DUP2 REVERT JUMPDEST DUP6 DUP3 ADD CALLDATALOAD PUSH1 0x40 DUP3 DUP3 GT ISZERO PUSH2 0x289D JUMPI PUSH2 0x289D PUSH2 0x279B JUMP JUMPDEST PUSH2 0x28AE DUP3 DUP12 ADD PUSH1 0x1F NOT AND DUP10 ADD PUSH2 0x27B1 JUMP JUMPDEST SWAP3 POP DUP2 DUP4 MSTORE DUP13 DUP2 DUP4 DUP7 ADD ADD GT ISZERO PUSH2 0x28C5 JUMPI PUSH1 0x0 DUP1 DUP2 REVERT JUMPDEST DUP2 DUP2 DUP6 ADD DUP10 DUP6 ADD CALLDATACOPY POP PUSH1 0x0 SWAP1 DUP3 ADD DUP8 ADD MSTORE DUP5 MSTORE POP SWAP2 DUP4 ADD SWAP2 DUP4 ADD PUSH2 0x2851 JUMP JUMPDEST POP SWAP8 SWAP7 POP POP POP POP POP POP POP JUMP JUMPDEST PUSH1 0x0 DUP1 PUSH1 0x40 DUP4 DUP6 SUB SLT ISZERO PUSH2 0x2903 JUMPI PUSH1 0x0 DUP1 REVERT JUMPDEST DUP3 CALLDATALOAD PUSH8 0xFFFFFFFFFFFFFFFF DUP1 DUP3 GT ISZERO PUSH2 0x291B JUMPI PUSH1 0x0 DUP1 REVERT JUMPDEST DUP2 DUP6 ADD SWAP2 POP DUP6 PUSH1 0x1F DUP4 ADD SLT PUSH2 0x292F JUMPI PUSH1 0x0 DUP1 REVERT JUMPDEST DUP2 CALLDATALOAD PUSH1 0x20 PUSH2 0x293F PUSH2 0x2829 DUP4 PUSH2 0x27E2 JUMP JUMPDEST DUP3 DUP2 MSTORE PUSH1 0x5 SWAP3 SWAP1 SWAP3 SHL DUP5 ADD DUP2 ADD SWAP2 DUP2 DUP2 ADD SWAP1 DUP10 DUP5 GT ISZERO PUSH2 0x295E JUMPI PUSH1 0x0 DUP1 REVERT JUMPDEST SWAP5 DUP3 ADD SWAP5 JUMPDEST DUP4 DUP7 LT ISZERO PUSH2 0x298A JUMPI DUP6 CALLDATALOAD PUSH1 0x3 DUP2 LT PUSH2 0x297B JUMPI PUSH1 0x0 DUP1 DUP2 REVERT JUMPDEST DUP3 MSTORE SWAP5 DUP3 ADD SWAP5 SWAP1 DUP3 ADD SWAP1 PUSH2 0x2963 JUMP JUMPDEST SWAP7 POP POP DUP7 ADD CALLDATALOAD SWAP3 POP POP DUP1 DUP3 GT ISZERO PUSH2 0x29A0 JUMPI PUSH1 0x0 DUP1 REVERT JUMPDEST POP PUSH2 0x29AD DUP6 DUP3 DUP7 ADD PUSH2 0x2806 JUMP JUMPDEST SWAP2 POP POP SWAP3 POP SWAP3 SWAP1 POP JUMP JUMPDEST PUSH1 0x0 DUP1 PUSH1 0x40 DUP4 DUP6 SUB SLT ISZERO PUSH2 0x29CA JUMPI PUSH1 0x0 DUP1 REVERT JUMPDEST PUSH2 0x29D3 DUP4 PUSH2 0x25BF JUMP JUMPDEST SWAP2 POP PUSH1 0x20 DUP4 ADD CALLDATALOAD PUSH2 0x29E3 DUP2 PUSH2 0x2586 JUMP JUMPDEST DUP1 SWAP2 POP POP SWAP3 POP SWAP3 SWAP1 POP JUMP JUMPDEST PUSH1 0x20 DUP1 DUP3 MSTORE PUSH1 0x26 SWAP1 DUP3 ADD MSTORE PUSH32 0x43616C6C6572206973206E6F74206120536D617274204E6F6465732056616C69 PUSH1 0x40 DUP3 ADD MSTORE PUSH6 0x6461746F7221 PUSH1 0xD0 SHL PUSH1 0x60 DUP3 ADD MSTORE PUSH1 0x80 ADD SWAP1 JUMP JUMPDEST PUSH4 0x4E487B71 PUSH1 0xE0 SHL PUSH1 0x0 MSTORE PUSH1 0x32 PUSH1 0x4 MSTORE PUSH1 0x24 PUSH1 0x0 REVERT JUMPDEST PUSH4 0x4E487B71 PUSH1 0xE0 SHL PUSH1 0x0 MSTORE PUSH1 0x11 PUSH1 0x4 MSTORE PUSH1 0x24 PUSH1 0x0 REVERT JUMPDEST PUSH1 0x0 PUSH1 0x1 DUP3 ADD PUSH2 0x2A72 JUMPI PUSH2 0x2A72 PUSH2 0x2A4A JUMP JUMPDEST POP PUSH1 0x1 ADD SWAP1 JUMP JUMPDEST PUSH1 0x1 DUP2 DUP2 SHR SWAP1 DUP3 AND DUP1 PUSH2 0x2A8D JUMPI PUSH1 0x7F DUP3 AND SWAP2 POP JUMPDEST PUSH1 0x20 DUP3 LT DUP2 SUB PUSH2 0x2AAD JUMPI PUSH4 0x4E487B71 PUSH1 0xE0 SHL PUSH1 0x0 MSTORE PUSH1 0x22 PUSH1 0x4 MSTORE PUSH1 0x24 PUSH1 0x0 REVERT JUMPDEST POP SWAP2 SWAP1 POP JUMP JUMPDEST PUSH4 0x4E487B71 PUSH1 0xE0 SHL PUSH1 0x0 MSTORE PUSH1 0x12 PUSH1 0x4 MSTORE PUSH1 0x24 PUSH1 0x0 REVERT JUMPDEST PUSH1 0x0 DUP3 PUSH2 0x2AD8 JUMPI PUSH2 0x2AD8 PUSH2 0x2AB3 JUMP JUMPDEST POP MOD SWAP1 JUMP JUMPDEST DUP2 DUP2 SUB DUP2 DUP2 GT ISZERO PUSH2 0x2AF0 JUMPI PUSH2 0x2AF0 PUSH2 0x2A4A JUMP JUMPDEST SWAP3 SWAP2 POP POP JUMP JUMPDEST PUSH1 0x0 PUSH1 0x20 DUP3 DUP5 SUB SLT ISZERO PUSH2 0x2B08 JUMPI PUSH1 0x0 DUP1 REVERT JUMPDEST POP MLOAD SWAP2 SWAP1 POP JUMP JUMPDEST PUSH4 0x4E487B71 PUSH1 0xE0 SHL PUSH1 0x0 MSTORE PUSH1 0x31 PUSH1 0x4 MSTORE PUSH1 0x24 PUSH1 0x0 REVERT JUMPDEST DUP1 DUP3 MUL DUP2 ISZERO DUP3 DUP3 DIV DUP5 EQ OR PUSH2 0x2AF0 JUMPI PUSH2 0x2AF0 PUSH2 0x2A4A JUMP JUMPDEST DUP1 DUP3 ADD DUP1 DUP3 GT ISZERO PUSH2 0x2AF0 JUMPI PUSH2 0x2AF0 PUSH2 0x2A4A JUMP JUMPDEST PUSH1 0x0 DUP3 PUSH2 0x2B5E JUMPI PUSH2 0x2B5E PUSH2 0x2AB3 JUMP JUMPDEST POP DIV SWAP1 JUMP JUMPDEST PUSH1 0x0 DUP3 PUSH1 0x1F DUP4 ADD SLT PUSH2 0x2B74 JUMPI PUSH1 0x0 DUP1 REVERT JUMPDEST DUP2 MLOAD PUSH1 0x20 PUSH2 0x2B84 PUSH2 0x2829 DUP4 PUSH2 0x27E2 JUMP JUMPDEST DUP1 DUP4 DUP3 MSTORE PUSH1 0x20 DUP3 ADD SWAP2 POP PUSH1 0x20 DUP5 PUSH1 0x5 SHL DUP8 ADD ADD SWAP4 POP DUP7 DUP5 GT ISZERO PUSH2 0x2BA6 JUMPI PUSH1 0x0 DUP1 REVERT JUMPDEST PUSH1 0x20 DUP7 ADD JUMPDEST DUP5 DUP2 LT ISZERO PUSH2 0x2BCB JUMPI DUP1 MLOAD PUSH2 0x2BBE DUP2 PUSH2 0x2586 JUMP JUMPDEST DUP4 MSTORE SWAP2 DUP4 ADD SWAP2 DUP4 ADD PUSH2 0x2BAB JUMP JUMPDEST POP SWAP7 SWAP6 POP POP POP POP POP POP JUMP JUMPDEST PUSH1 0x0 DUP1 PUSH1 0x40 DUP4 DUP6 SUB SLT ISZERO PUSH2 0x2BE9 JUMPI PUSH1 0x0 DUP1 REVERT JUMPDEST DUP3 MLOAD SWAP2 POP PUSH1 0x20 DUP4 ADD MLOAD PUSH8 0xFFFFFFFFFFFFFFFF DUP2 GT ISZERO PUSH2 0x2C07 JUMPI PUSH1 0x0 DUP1 REVERT JUMPDEST PUSH2 0x29AD DUP6 DUP3 DUP7 ADD PUSH2 0x2B63 JUMP JUMPDEST PUSH1 0x0 PUSH1 0x20 DUP3 DUP5 SUB SLT ISZERO PUSH2 0x2C25 JUMPI PUSH1 0x0 DUP1 REVERT JUMPDEST DUP2 MLOAD PUSH2 0x25B8 DUP2 PUSH2 0x2586 JUMP JUMPDEST PUSH1 0x0 DUP3 PUSH1 0x1F DUP4 ADD SLT PUSH2 0x2C41 JUMPI PUSH1 0x0 DUP1 REVERT JUMPDEST DUP2 MLOAD PUSH1 0x20 PUSH2 0x2C51 PUSH2 0x2829 DUP4 PUSH2 0x27E2 JUMP JUMPDEST DUP1 DUP4 DUP3 MSTORE PUSH1 0x20 DUP3 ADD SWAP2 POP PUSH1 0x20 DUP5 PUSH1 0x5 SHL DUP8 ADD ADD SWAP4 POP DUP7 DUP5 GT ISZERO PUSH2 0x2C73 JUMPI PUSH1 0x0 DUP1 REVERT JUMPDEST PUSH1 0x20 DUP7 ADD JUMPDEST DUP5 DUP2 LT ISZERO PUSH2 0x2BCB JUMPI DUP1 MLOAD DUP4 MSTORE SWAP2 DUP4 ADD SWAP2 DUP4 ADD PUSH2 0x2C78 JUMP JUMPDEST PUSH1 0x0 DUP1 PUSH1 0x0 PUSH1 0x60 DUP5 DUP7 SUB SLT ISZERO PUSH2 0x2CA4 JUMPI PUSH1 0x0 DUP1 REVERT JUMPDEST DUP4 MLOAD SWAP3 POP PUSH1 0x20 DUP5 ADD MLOAD SWAP2 POP PUSH1 0x40 DUP5 ADD MLOAD PUSH8 0xFFFFFFFFFFFFFFFF DUP2 GT ISZERO PUSH2 0x2CC9 JUMPI PUSH1 0x0 DUP1 REVERT JUMPDEST PUSH2 0x2CD5 DUP7 DUP3 DUP8 ADD PUSH2 0x2C30 JUMP JUMPDEST SWAP2 POP POP SWAP3 POP SWAP3 POP SWAP3 JUMP JUMPDEST PUSH1 0x0 DUP2 MLOAD DUP1 DUP5 MSTORE PUSH1 0x20 DUP1 DUP6 ADD SWAP5 POP PUSH1 0x20 DUP5 ADD PUSH1 0x0 JUMPDEST DUP4 DUP2 LT ISZERO PUSH2 0x254C JUMPI DUP2 MLOAD DUP8 MSTORE SWAP6 DUP3 ADD SWAP6 SWAP1 DUP3 ADD SWAP1 PUSH1 0x1 ADD PUSH2 0x2CF4 JUMP JUMPDEST DUP4 DUP2 MSTORE DUP3 PUSH1 0x20 DUP3 ADD MSTORE PUSH1 0x60 PUSH1 0x40 DUP3 ADD MSTORE PUSH1 0x0 PUSH2 0x2D2F PUSH1 0x60 DUP4 ADD DUP5 PUSH2 0x2CDF JUMP JUMPDEST SWAP6 SWAP5 POP POP POP POP POP JUMP JUMPDEST PUSH1 0x0 PUSH1 0x20 DUP3 DUP5 SUB SLT ISZERO PUSH2 0x2D4A JUMPI PUSH1 0x0 DUP1 REVERT JUMPDEST DUP2 MLOAD PUSH8 0xFFFFFFFFFFFFFFFF DUP2 GT ISZERO PUSH2 0x2D61 JUMPI PUSH1 0x0 DUP1 REVERT JUMPDEST PUSH2 0x2D6D DUP5 DUP3 DUP6 ADD PUSH2 0x2C30 JUMP JUMPDEST SWAP5 SWAP4 POP POP POP POP JUMP JUMPDEST DUP3 DUP2 MSTORE PUSH1 0x40 PUSH1 0x20 DUP3 ADD MSTORE PUSH1 0x0 PUSH2 0x2D6D PUSH1 0x40 DUP4 ADD DUP5 PUSH2 0x2512 JUMP JUMPDEST PUSH1 0x80 DUP2 MSTORE PUSH1 0x0 PUSH2 0x2DA1 PUSH1 0x80 DUP4 ADD DUP8 PUSH2 0x2512 JUMP JUMPDEST DUP3 DUP2 SUB PUSH1 0x20 DUP5 ADD MSTORE PUSH2 0x2DB3 DUP2 DUP8 PUSH2 0x2CDF JUMP JUMPDEST SWAP1 POP DUP5 PUSH1 0x40 DUP5 ADD MSTORE DUP3 DUP2 SUB PUSH1 0x60 DUP5 ADD MSTORE PUSH2 0x2DCD DUP2 DUP6 PUSH2 0x2512 JUMP JUMPDEST SWAP8 SWAP7 POP POP POP POP POP POP POP JUMP JUMPDEST PUSH1 0x1F DUP3 GT ISZERO PUSH2 0x2E24 JUMPI PUSH1 0x0 DUP2 PUSH1 0x0 MSTORE PUSH1 0x20 PUSH1 0x0 KECCAK256 PUSH1 0x1F DUP6 ADD PUSH1 0x5 SHR DUP2 ADD PUSH1 0x20 DUP7 LT ISZERO PUSH2 0x2E01 JUMPI POP DUP1 JUMPDEST PUSH1 0x1F DUP6 ADD PUSH1 0x5 SHR DUP3 ADD SWAP2 POP JUMPDEST DUP2 DUP2 LT ISZERO PUSH2 0x2E20 JUMPI DUP3 DUP2 SSTORE PUSH1 0x1 ADD PUSH2 0x2E0D JUMP JUMPDEST POP POP POP JUMPDEST POP POP POP JUMP JUMPDEST DUP2 MLOAD PUSH8 0xFFFFFFFFFFFFFFFF DUP2 GT ISZERO PUSH2 0x2E43 JUMPI PUSH2 0x2E43 PUSH2 0x279B JUMP JUMPDEST PUSH2 0x2E57 DUP2 PUSH2 0x2E51 DUP5 SLOAD PUSH2 0x2A79 JUMP JUMPDEST DUP5 PUSH2 0x2DD8 JUMP JUMPDEST PUSH1 0x20 DUP1 PUSH1 0x1F DUP4 GT PUSH1 0x1 DUP2 EQ PUSH2 0x2E8C JUMPI PUSH1 0x0 DUP5 ISZERO PUSH2 0x2E74 JUMPI POP DUP6 DUP4 ADD MLOAD JUMPDEST PUSH1 0x0 NOT PUSH1 0x3 DUP7 SWAP1 SHL SHR NOT AND PUSH1 0x1 DUP6 SWAP1 SHL OR DUP6 SSTORE PUSH2 0x2E20 JUMP JUMPDEST PUSH1 0x0 DUP6 DUP2 MSTORE PUSH1 0x20 DUP2 KECCAK256 PUSH1 0x1F NOT DUP7 AND SWAP2 JUMPDEST DUP3 DUP2 LT ISZERO PUSH2 0x2EBB JUMPI DUP9 DUP7 ADD MLOAD DUP3 SSTORE SWAP5 DUP5 ADD SWAP5 PUSH1 0x1 SWAP1 SWAP2 ADD SWAP1 DUP5 ADD PUSH2 0x2E9C JUMP JUMPDEST POP DUP6 DUP3 LT ISZERO PUSH2 0x2ED9 JUMPI DUP8 DUP6 ADD MLOAD PUSH1 0x0 NOT PUSH1 0x3 DUP9 SWAP1 SHL PUSH1 0xF8 AND SHR NOT AND DUP2 SSTORE JUMPDEST POP POP POP POP POP PUSH1 0x1 SWAP1 DUP2 SHL ADD SWAP1 SSTORE POP JUMP INVALID LOG2 PUSH5 0x6970667358 0x22 SLT KECCAK256 0x2E LOG0 0xC 0xAC RETURNDATASIZE 0xE8 PUSH6 0x607033637D27 0xD8 DUP6 COINBASE JUMPI SIGNEXTEND PC 0x2F CREATE2 PUSH17 0x7F27B6A6506C78BD052064736F6C634300 ADDMOD NOT STOP CALLER ",
  "sha1": "8b4ef28672a9d632dd484ba55bbc2258a28d1e1e",
  "source": "// SPDX-License-Identifier: MIT\npragma solidity ^0.8.5;\n\nimport \"@openzeppelin-upgradeable/contracts/proxy/utils/Initializable.sol\";\nimport \"@openzeppelin-upgradeable/contracts/interfaces/IERC20Upgradeable.sol\";\nimport \"./interfaces/ISmartnodesCore.sol\";\nimport \"@chainlink/contracts/src/v0.8/vrf/dev/VRFConsumerBaseV2Upgradeable.sol\";\nimport \"@chainlink/contracts/src/v0.8/interfaces/VRFCoordinatorV2Interface.sol\";\nimport {VRFV2PlusClient} from \"@chainlink/contracts/src/v0.8/vrf/dev/libraries/VRFV2PlusClient.sol\";\n\n/** \n    * @title SmartnodesMultiSig\n    * @dev A multi-signature contract composed of Smartnodes validators responsible for\n     managing the Core contract\n*/\ncontract SmartnodesMultiSig is Initializable {\n    enum FunctionType {\n        DeactivateValidator,\n        CreateJob,\n        CompleteJob\n        // DisputeJob\n    }\n\n    // Proposal for a Smartnodes Update\n    struct Proposal {\n        uint256 id;\n        FunctionType[] functionTypes;\n        bytes[] data;\n        bool executed;\n        uint256 _approvals;\n    }\n\n    struct ValidatorTokens {\n        uint256 locked;\n        bool enough;\n    }\n\n    // Chainlink VRF Parameters\n    // uint64 s_subscriptionId;\n    // address linkAddress = 0x779877A7B0D9E8603169DdbD7836e478b4624789;\n    // bytes32 s_keyHash =\n    //     0x787d74caea10b2b357790d5b5247c2f63d1d91572a9846f780606e4d953677ae;\n    // uint32 callbackGasLimit = 100000;\n    // uint16 requestConfirmations = 2;\n    // uint32 numWords = 1;\n    // address vrfCoordinator;\n    // VRFCoordinatorV2Interface COORDINATOR;\n\n    // State update constraints\n    uint256 public constant UPDATE_TIME = 0; // 600; seconds required between state updates\n    uint256 public requiredApprovalsPercentage;\n    uint256 public requiredApprovals;\n    uint256 public maxStateUpdates; // Maximum number of function calls per proposal\n    uint256 public lastProposalTime; // time of last proposal\n\n    // Metadata and bytecode for SmartNodes calls\n    ISmartnodesCore private _smartnodesContractInstance;\n    address public smartnodesContractAddress;\n\n    // Counters for storage indexing / IDs\n    uint256 public randomRequestId;\n    uint256 public nextProposalId;\n    uint8 public nValidators;\n\n    address[] public validators;\n    address[] public currentRoundValidators;\n    Proposal[] public currentProposals;\n\n    mapping(address => bool) public isValidator; // For quick validator checks\n    mapping(address => ValidatorTokens) public lockedTokens;\n    mapping(uint256 => Proposal) public proposals;\n    mapping(address => bool) public hasSubmittedProposal;\n    mapping(uint8 => mapping(address => bool)) public approvals;\n\n    event ProposalCreated(\n        uint256 proposalId,\n        uint8 proposalNum,\n        bytes32 validatorId\n    );\n    event Voted(uint256 proposalId, address validator);\n    event ProposalExecuted(uint256 proposalId);\n    event Deposit(address indexed sender, uint amount);\n    event ValidatorAdded(address validator);\n    event ValidatorRemoved(address validator);\n    event RewardDistributed(address reciever, uint256 amount);\n\n    modifier onlyValidator() {\n        require(\n            isValidator[msg.sender],\n            \"Caller is not a Smart Nodes Validator!\"\n        );\n        _;\n    }\n\n    modifier onlySmartnodesCore() {\n        require(\n            msg.sender == smartnodesContractAddress,\n            \"Caller must be the SmartnodesMultiSig.\"\n        );\n        _;\n    }\n\n    modifier onlySelectedValidator() {\n        require(\n            _isCurrentRoundValidator(msg.sender) ||\n                currentRoundValidators.length == 0,\n            \"Caller is not a selected validator for this round!\"\n        );\n        require(\n            !hasSubmittedProposal[msg.sender],\n            \"Validator has already submitted a proposal this round!\"\n        );\n        _;\n    }\n\n    function initialize(\n        address target // Address of the main contract (Smart Nodes)\n    )\n        public\n        // address _vrfCoordinator,\n        // uint64 _subscriptionId\n        initializer\n    {\n        // __VRFConsumerBaseV2_init(_vrfCoordinator);\n        // COORDINATOR = VRFCoordinatorV2Interface(_vrfCoordinator);\n\n        smartnodesContractAddress = target;\n        maxStateUpdates = 20;\n        _smartnodesContractInstance = ISmartnodesCore(target);\n        lastProposalTime = 0; // time of last proposal\n        requiredApprovalsPercentage = 65;\n        // s_subscriptionId = _subscriptionId;\n    }\n\n    receive() external payable {\n        emit Deposit(msg.sender, msg.value);\n    }\n\n    /**\n     * @notice Creates a new proposal, to update all the essential data structures given some aggregated off-chain state.\n     * @param _functionTypes The types of functions to be called in the proposal\n     * @param _data The call data for the proposal\n     */\n    function createProposal(\n        FunctionType[] memory _functionTypes,\n        bytes[] memory _data\n    ) external onlySelectedValidator {\n        require(\n            block.timestamp - lastProposalTime >= UPDATE_TIME,\n            \"Proposals must be submitted after UPDATE_TIME since last approved proposal!\"\n        );\n\n        require(\n            _functionTypes.length == _data.length,\n            \"Function types and data length must match!\"\n        );\n\n        Proposal memory proposal = Proposal({\n            id: nextProposalId,\n            functionTypes: _functionTypes,\n            data: _data,\n            executed: false,\n            _approvals: 0\n        });\n\n        currentProposals.push(proposal);\n        hasSubmittedProposal[msg.sender] = true;\n\n        bytes32 validatorId = _smartnodesContractInstance.getValidatorBytes(\n            msg.sender\n        );\n\n        emit ProposalCreated(\n            nextProposalId,\n            uint8(currentProposals.length),\n            validatorId\n        );\n    }\n\n    /**\n     * @notice Casts a vote for a proposal and executes once required approvals are met. Add Validator to storage\n      if it has just registered and is not stored on MultiSig. \n     * @param proposalNum The ID of the current round proposal\n     */\n    function approveTransaction(uint8 proposalNum) external {\n        require(\n            !approvals[proposalNum][msg.sender],\n            \"Validator already voted on this transaction!\"\n        );\n\n        if (isValidator[msg.sender] == false) {\n            addValidator(msg.sender);\n        }\n\n        Proposal storage proposal = currentProposals[proposalNum];\n        approvals[proposalNum][msg.sender] = true;\n        proposal._approvals++;\n\n        emit Voted(proposalNum, msg.sender);\n\n        if (proposal._approvals >= requiredApprovals) {\n            _executeTransaction(proposal, proposalNum);\n        }\n    }\n\n    /**\n     * @notice Executes a proposal if it has enough approvals. Only to be called by approveTransaction\n     * @param proposalNum The ID of the proposal to be executed\n     */\n    function _executeTransaction(\n        Proposal storage proposal,\n        uint8 proposalNum\n    ) internal onlyValidator {\n        // Load Proposal\n        require(!proposal.executed, \"Proposal already executed.\");\n        require(\n            proposal.functionTypes.length <= maxStateUpdates,\n            \"Must not exceed max state updates!\"\n        );\n\n        // Get total number of participant workers and their capacities\n        uint256 totalWorkers = 0;\n\n        for (uint i = 0; i < proposal.functionTypes.length; i++) {\n            if (proposal.functionTypes[i] == FunctionType.CompleteJob) {\n                (uint256 jobId, address[] memory workers) = abi.decode(\n                    proposal.data[i],\n                    (uint256, address[])\n                );\n                totalWorkers += workers.length;\n            }\n        }\n\n        // Vars for calculating proportional capacities for each worker\n        uint256[] memory allCapacities = new uint256[](totalWorkers);\n        address[] memory allWorkers = new address[](totalWorkers);\n        uint256 totalCapacity = 0;\n        uint256 allWorkerInd = 0;\n\n        // Handle each state update function call\n        for (uint i = 0; i < proposal.functionTypes.length; i++) {\n            // Update connected validator stats\n            if (proposal.functionTypes[i] == FunctionType.DeactivateValidator) {\n                address validator = abi.decode(proposal.data[i], (address));\n                _removeValidator(validator);\n\n                // Create new jobs\n            } else if (proposal.functionTypes[i] == FunctionType.CreateJob) {\n                (\n                    bytes32 userHash,\n                    bytes32 jobHash,\n                    uint256[] memory _capacities\n                ) = abi.decode(proposal.data[i], (bytes32, bytes32, uint256[]));\n                _smartnodesContractInstance.requestJob(\n                    userHash,\n                    jobHash,\n                    _capacities\n                );\n\n                // Update existing jobs\n            } else if (proposal.functionTypes[i] == FunctionType.CompleteJob) {\n                (bytes32 jobId, address[] memory workers) = abi.decode(\n                    proposal.data[i],\n                    (bytes32, address[])\n                );\n\n                uint256[] memory capacities = _smartnodesContractInstance\n                    .completeJob(jobId, workers);\n\n                for (uint256 j = 0; j < capacities.length; j++) {\n                    totalCapacity += capacities[j];\n                    allCapacities[allWorkerInd] = capacities[j];\n                    allWorkers[allWorkerInd] = workers[j];\n                    allWorkerInd++;\n                }\n            }\n            // } else if (proposal.functionTypes[i] == FunctionType.DisputeJob) {\n            //     uint256 jobId = abi.decode(proposal.data[i], (uint256));\n            //     _smartnodesContractInstance.disputeJob(jobId);\n        }\n\n        // Gather validators who voted on the transaction\n        address[] memory _approvedValidators = new address[](\n            proposal._approvals\n        );\n\n        for (uint i = 0; i < validators.length; i++) {\n            address validator = validators[i];\n\n            if (approvals[proposalNum][validator]) {\n                _approvedValidators[i] = validator;\n            }\n        }\n\n        // Call mint function to generate rewards for workers and validators\n        _smartnodesContractInstance.mintTokens(\n            allWorkers,\n            allCapacities,\n            totalCapacity,\n            _approvedValidators\n        );\n\n        // Clean up old proposals, 1000 length window allows 20 days for proposals to be disputed, delete unused proposals\n        if (nextProposalId > 1000) {\n            delete proposals[nextProposalId - 1000];\n        }\n\n        _resetCurrentValidators();\n        _updateRound();\n        proposal.executed = true;\n        emit ProposalExecuted(proposal.id);\n    }\n\n    /**\n     * @notice Adds a new validator to the contract\n     * @param validator The address of the new validator\n     */\n    function addValidator(address validator) public {\n        require(\n            lockedTokens[validator].enough,\n            \"Validator must be registered and locked on SmartnodesCore!\"\n        );\n        require(\n            !isValidator[validator],\n            \"Validator already registered on Multsig!\"\n        );\n\n        validators.push(validator);\n        isValidator[validator] = true;\n        _updateApprovalRequirements();\n\n        emit ValidatorAdded(validator);\n    }\n\n    function removeValidator(address validator) external onlyValidator {\n        require(msg.sender == validator, \"Cannot remove another validator!\");\n        _removeValidator(validator);\n    }\n\n    /**\n     * @notice Rewards validators who voted for the majority on a proposal\n     * @param _proposalId The ID of the proposal\n     */\n    function _rewardValidators(uint256 _proposalId) internal {}\n\n    /**\n     * @dev Update the number of required approvals (66% of the active validators)\n     */\n    function _updateApprovalRequirements() internal {\n        requiredApprovals =\n            (validators.length * requiredApprovalsPercentage + 80) /\n            100;\n\n        if (requiredApprovals == 0) {\n            requiredApprovals = 1; // Ensure at least 1 approval is required\n        }\n    }\n\n    function _removeValidator(address validator) private {\n        require(isValidator[validator], \"Validator not registered!\");\n        isValidator[validator] = false;\n\n        for (uint i = 0; i < validators.length; i++) {\n            if (validators[i] == validator) {\n                validators[i] = validators[validators.length - 1];\n                validators.pop();\n                break;\n            }\n        }\n\n        _updateApprovalRequirements();\n        emit ValidatorRemoved(validator);\n    }\n\n    function _isCurrentRoundValidator(\n        address _validator\n    ) internal view returns (bool) {\n        for (uint i = 0; i < currentRoundValidators.length; i++) {\n            if (currentRoundValidators[i] == _validator) {\n                return true;\n            }\n        }\n        return false;\n    }\n\n    // TODO: we can remove this and just query SmartnodesCore for locked tokens\n    function updateLockedTokens(\n        address _validator,\n        uint256 locked,\n        bool enough\n    ) external onlySmartnodesCore {\n        lockedTokens[_validator].locked = locked;\n        lockedTokens[_validator].enough = enough;\n    }\n\n    function _updateRound() internal {\n        for (uint256 i = 0; i < currentProposals.length; i++) {\n            delete currentProposals[i];\n        }\n\n        lastProposalTime = block.timestamp;\n        // randomRequestId = _requestRandomness();\n        nextProposalId++;\n    }\n\n    function _resetCurrentValidators() internal {\n        // Clear submission status and other parameters\n        for (uint256 i = 0; i < currentRoundValidators.length; i++) {\n            hasSubmittedProposal[currentRoundValidators[i]] = false;\n        }\n\n        // the genesis proposal has no round validators\n        if (currentRoundValidators.length == 0) {\n            for (uint256 i = 0; i < validators.length; i++) {\n                hasSubmittedProposal[validators[i]] = false;\n            }\n        }\n\n        delete currentRoundValidators;\n\n        require(\n            validators.length > nValidators,\n            \"Not enough active validators!\"\n        );\n\n        for (uint256 i = 0; i < nValidators; i++) {\n            uint256 randId = uint256(\n                keccak256(abi.encode(block.timestamp, msg.sender, i))\n            ) % validators.length;\n\n            currentRoundValidators.push(validators[randId]);\n        }\n    }\n\n    function generateValidators(\n        uint256 numValidators\n    ) external view returns (address[] memory) {\n        require(\n            validators.length > numValidators,\n            \"Not enough active validators!\"\n        );\n        require(\n            validators.length > numValidators,\n            \"Too many validators, must be less than number of active validators!\"\n        );\n\n        address[] memory selectedValidators = new address[](numValidators);\n        uint256 selectedCount = 0;\n\n        for (uint256 i = 0; i < numValidators; i++) {\n            uint256 randId = uint256(\n                keccak256(abi.encode(block.timestamp, msg.sender, i))\n            ) % validators.length;\n\n            selectedValidators[i] = validators[randId];\n            selectedCount++;\n        }\n\n        return selectedValidators;\n    }\n\n    // function _requestRandomness() internal returns (uint256 requestId) {\n    //     require(validators.length > 0, \"No validators available\");\n\n    //     // Request random words from Chainlink VRF\n    //     requestId = COORDINATOR.requestRandomWords(\n    //         s_keyHash,\n    //         s_subscriptionId,\n    //         requestConfirmations,\n    //         callbackGasLimit,\n    //         numWords\n    //     );\n\n    //     return requestId;\n    // }\n\n    // // Random selection of validators for next proposals once a random number is received\n    // function fulfillRandomWords(\n    //     uint256 requestId,\n    //     uint256[] memory randomWords\n    // ) internal override {\n    //     require(validators.length > 0, \"No validators available\");\n    //     require(\n    //         msg.sender == vrfCoordinator,\n    //         \"Only VRF coordinator can fulfil this request!\"\n    //     );\n    //     require(randomWords.length > 0, \"No random words provided\");\n    //     require(requestId == randomRequestId, \"Invalid request!\");\n\n    //     uint256 randomValue = randomWords[0];\n    //     uint8 nValidators = 3; // TODO dynamic or static gloabal nValidator parameter\n\n    //     address[] memory selectedValidators = new address[](nValidators);\n\n    //     for (uint8 i = 0; i < nValidators; i++) {\n    //         uint256 randomIndex = randomValue % validators.length;\n    //         selectedValidators[i] = validators[randomIndex];\n\n    //         // Re-select if already picked\n    //         randomValue = uint256(keccak256(abi.encodePacked(randomValue, i)));\n    //     }\n\n    //     currentRoundValidators = selectedValidators;\n    // }\n\n    function getProposalData(\n        uint256 _proposalId\n    ) external view returns (Proposal memory) {\n        return proposals[_proposalId];\n    }\n\n    function isActiveValidator(\n        address _validatorAddress\n    ) external view returns (bool) {\n        return isValidator[_validatorAddress];\n    }\n\n    function getNumValidators() external view returns (uint256) {\n        return validators.length;\n    }\n\n    function getSelectedValidators() external view returns (address[] memory) {\n        return currentRoundValidators;\n    }\n\n    // // Get detailed info on the current proposal\n    // function getCurrentProposal()\n    //     external\n    //     view\n    //     returns (uint256, uint256[] memory, bytes[] memory)\n    // {\n    //     getProposalData();\n    //     return ();\n    // }\n\n    // Get basic info on the current state of the validator multisig\n    function getState()\n        external\n        view\n        returns (uint256, uint256, uint256, address[] memory)\n    {\n        return (\n            lastProposalTime,\n            nextProposalId,\n            validators.length,\n            currentRoundValidators\n        );\n    }\n}\n",
  "sourcePath": "contracts/SmartnodesMultiSig.sol",
  "type": "contract"
}