{
  "abi": [
    {
      "anonymous": false,
      "inputs": [
        {
          "indexed": true,
          "internalType": "address",
          "name": "sender",
          "type": "address"
        },
        {
          "indexed": false,
          "internalType": "uint256",
          "name": "amount",
          "type": "uint256"
        }
      ],
      "name": "Deposit",
      "type": "event"
    },
    {
      "anonymous": false,
      "inputs": [
        {
          "indexed": false,
          "internalType": "bytes32",
          "name": "proposalHash",
          "type": "bytes32"
        },
        {
          "indexed": false,
          "internalType": "uint8",
          "name": "proposalNum",
          "type": "uint8"
        }
      ],
      "name": "ProposalCreated",
      "type": "event"
    },
    {
      "anonymous": false,
      "inputs": [
        {
          "indexed": false,
          "internalType": "uint256",
          "name": "proposalId",
          "type": "uint256"
        },
        {
          "indexed": false,
          "internalType": "bytes32",
          "name": "proposalHash",
          "type": "bytes32"
        }
      ],
      "name": "ProposalExecuted",
      "type": "event"
    },
    {
      "anonymous": false,
      "inputs": [
        {
          "indexed": false,
          "internalType": "uint256",
          "name": "proposalId",
          "type": "uint256"
        },
        {
          "indexed": false,
          "internalType": "uint8",
          "name": "proposalNum",
          "type": "uint8"
        }
      ],
      "name": "ProposalReady",
      "type": "event"
    },
    {
      "anonymous": false,
      "inputs": [
        {
          "indexed": false,
          "internalType": "address",
          "name": "validator",
          "type": "address"
        }
      ],
      "name": "ValidatorAdded",
      "type": "event"
    },
    {
      "anonymous": false,
      "inputs": [
        {
          "indexed": false,
          "internalType": "address",
          "name": "validator",
          "type": "address"
        }
      ],
      "name": "ValidatorRemoved",
      "type": "event"
    },
    {
      "inputs": [
        {
          "internalType": "address",
          "name": "validator",
          "type": "address"
        }
      ],
      "name": "addValidator",
      "outputs": [],
      "stateMutability": "nonpayable",
      "type": "function"
    },
    {
      "inputs": [
        {
          "internalType": "uint8",
          "name": "proposalNum",
          "type": "uint8"
        }
      ],
      "name": "approveTransaction",
      "outputs": [],
      "stateMutability": "nonpayable",
      "type": "function"
    },
    {
      "inputs": [
        {
          "internalType": "bytes32",
          "name": "proposalHash",
          "type": "bytes32"
        }
      ],
      "name": "createProposal",
      "outputs": [],
      "stateMutability": "nonpayable",
      "type": "function"
    },
    {
      "inputs": [
        {
          "internalType": "uint256",
          "name": "",
          "type": "uint256"
        }
      ],
      "name": "currentProposals",
      "outputs": [
        {
          "internalType": "bytes32",
          "name": "",
          "type": "bytes32"
        }
      ],
      "stateMutability": "view",
      "type": "function"
    },
    {
      "inputs": [
        {
          "internalType": "uint256",
          "name": "",
          "type": "uint256"
        }
      ],
      "name": "currentRoundValidators",
      "outputs": [
        {
          "internalType": "address",
          "name": "",
          "type": "address"
        }
      ],
      "stateMutability": "view",
      "type": "function"
    },
    {
      "inputs": [
        {
          "internalType": "address[]",
          "name": "validatorsToRemove",
          "type": "address[]"
        },
        {
          "internalType": "bytes32[]",
          "name": "jobHashes",
          "type": "bytes32[]"
        },
        {
          "internalType": "uint256[]",
          "name": "jobCapacities",
          "type": "uint256[]"
        },
        {
          "internalType": "address[]",
          "name": "workers",
          "type": "address[]"
        },
        {
          "internalType": "uint256",
          "name": "totalCapacity",
          "type": "uint256"
        }
      ],
      "name": "executeProposal",
      "outputs": [],
      "stateMutability": "nonpayable",
      "type": "function"
    },
    {
      "inputs": [
        {
          "internalType": "uint256",
          "name": "numValidators",
          "type": "uint256"
        }
      ],
      "name": "generateValidators",
      "outputs": [
        {
          "internalType": "address[]",
          "name": "",
          "type": "address[]"
        }
      ],
      "stateMutability": "view",
      "type": "function"
    },
    {
      "inputs": [],
      "name": "getNumValidators",
      "outputs": [
        {
          "internalType": "uint256",
          "name": "",
          "type": "uint256"
        }
      ],
      "stateMutability": "view",
      "type": "function"
    },
    {
      "inputs": [],
      "name": "getState",
      "outputs": [
        {
          "internalType": "uint256",
          "name": "",
          "type": "uint256"
        },
        {
          "internalType": "address[]",
          "name": "",
          "type": "address[]"
        }
      ],
      "stateMutability": "view",
      "type": "function"
    },
    {
      "inputs": [],
      "name": "halvePeriod",
      "outputs": [],
      "stateMutability": "nonpayable",
      "type": "function"
    },
    {
      "inputs": [
        {
          "internalType": "address",
          "name": "",
          "type": "address"
        }
      ],
      "name": "hasSubmittedProposal",
      "outputs": [
        {
          "internalType": "uint8",
          "name": "",
          "type": "uint8"
        }
      ],
      "stateMutability": "view",
      "type": "function"
    },
    {
      "inputs": [
        {
          "internalType": "address",
          "name": "",
          "type": "address"
        }
      ],
      "name": "hasVoted",
      "outputs": [
        {
          "internalType": "uint8",
          "name": "",
          "type": "uint8"
        }
      ],
      "stateMutability": "view",
      "type": "function"
    },
    {
      "inputs": [
        {
          "internalType": "address[]",
          "name": "validatorsToRemove",
          "type": "address[]"
        },
        {
          "internalType": "bytes32[]",
          "name": "jobHashes",
          "type": "bytes32[]"
        },
        {
          "internalType": "uint256[]",
          "name": "jobCapacities",
          "type": "uint256[]"
        },
        {
          "internalType": "address[]",
          "name": "workers",
          "type": "address[]"
        },
        {
          "internalType": "uint256",
          "name": "totalCapacity",
          "type": "uint256"
        }
      ],
      "name": "hashProposalData",
      "outputs": [
        {
          "internalType": "bytes32",
          "name": "",
          "type": "bytes32"
        }
      ],
      "stateMutability": "pure",
      "type": "function"
    },
    {
      "inputs": [
        {
          "internalType": "address",
          "name": "target",
          "type": "address"
        }
      ],
      "name": "initialize",
      "outputs": [],
      "stateMutability": "nonpayable",
      "type": "function"
    },
    {
      "inputs": [
        {
          "internalType": "address",
          "name": "_validatorAddress",
          "type": "address"
        }
      ],
      "name": "isActiveValidator",
      "outputs": [
        {
          "internalType": "bool",
          "name": "",
          "type": "bool"
        }
      ],
      "stateMutability": "view",
      "type": "function"
    },
    {
      "inputs": [
        {
          "internalType": "address",
          "name": "",
          "type": "address"
        }
      ],
      "name": "isValidator",
      "outputs": [
        {
          "internalType": "bool",
          "name": "",
          "type": "bool"
        }
      ],
      "stateMutability": "view",
      "type": "function"
    },
    {
      "inputs": [],
      "name": "lastProposalTime",
      "outputs": [
        {
          "internalType": "uint256",
          "name": "",
          "type": "uint256"
        }
      ],
      "stateMutability": "view",
      "type": "function"
    },
    {
      "inputs": [],
      "name": "maxStateUpdates",
      "outputs": [
        {
          "internalType": "uint256",
          "name": "",
          "type": "uint256"
        }
      ],
      "stateMutability": "view",
      "type": "function"
    },
    {
      "inputs": [],
      "name": "nValidators",
      "outputs": [
        {
          "internalType": "uint8",
          "name": "",
          "type": "uint8"
        }
      ],
      "stateMutability": "view",
      "type": "function"
    },
    {
      "inputs": [],
      "name": "nextProposalId",
      "outputs": [
        {
          "internalType": "uint256",
          "name": "",
          "type": "uint256"
        }
      ],
      "stateMutability": "view",
      "type": "function"
    },
    {
      "inputs": [
        {
          "internalType": "uint8",
          "name": "",
          "type": "uint8"
        }
      ],
      "name": "proposalVotes",
      "outputs": [
        {
          "internalType": "uint256",
          "name": "",
          "type": "uint256"
        }
      ],
      "stateMutability": "view",
      "type": "function"
    },
    {
      "inputs": [
        {
          "internalType": "address",
          "name": "validator",
          "type": "address"
        }
      ],
      "name": "removeValidator",
      "outputs": [],
      "stateMutability": "nonpayable",
      "type": "function"
    },
    {
      "inputs": [],
      "name": "requiredApprovals",
      "outputs": [
        {
          "internalType": "uint256",
          "name": "",
          "type": "uint256"
        }
      ],
      "stateMutability": "view",
      "type": "function"
    },
    {
      "inputs": [],
      "name": "requiredApprovalsPercentage",
      "outputs": [
        {
          "internalType": "uint256",
          "name": "",
          "type": "uint256"
        }
      ],
      "stateMutability": "view",
      "type": "function"
    },
    {
      "inputs": [],
      "name": "smartnodesContractAddress",
      "outputs": [
        {
          "internalType": "address",
          "name": "",
          "type": "address"
        }
      ],
      "stateMutability": "view",
      "type": "function"
    },
    {
      "inputs": [],
      "name": "updateTime",
      "outputs": [
        {
          "internalType": "uint256",
          "name": "",
          "type": "uint256"
        }
      ],
      "stateMutability": "view",
      "type": "function"
    },
    {
      "inputs": [
        {
          "internalType": "uint256",
          "name": "",
          "type": "uint256"
        }
      ],
      "name": "validators",
      "outputs": [
        {
          "internalType": "address",
          "name": "",
          "type": "address"
        }
      ],
      "stateMutability": "view",
      "type": "function"
    },
    {
      "stateMutability": "payable",
      "type": "receive"
    }
  ],
  "bytecode": "6080604052610e10600155348015601557600080fd5b506120e9806100256000396000f3fe6080604052600436106101a05760003560e01c806399c1aadc116100ec578063ddaa54501161008a578063e8bb594611610064578063e8bb594614610520578063ec43277214610540578063f5bbd43a14610555578063facd743b1461057557600080fd5b8063ddaa5450146104bd578063e2a8f6f2146104d3578063e6f3d3d81461050057600080fd5b8063bd423184116100c6578063bd42318414610451578063c4d66de814610471578063d088650a14610491578063dc555090146104a757600080fd5b806399c1aadc146103eb5780639a17162914610401578063a6f9ed811461043157600080fd5b806340550a1c116101595780634d238c8e116101335780634d238c8e1461036957806354d9d614146103895780636d6a0352146103a957806391e2e252146103d657600080fd5b806340550a1c146102ea57806340a141ff14610333578063473967c91461035357600080fd5b80630833c91a146101e157806309eef43e146102195780631865c57d146102495780632542bf061461026c5780632ab09d141461028e57806335aa2e44146102b257600080fd5b366101dc5760405134815233907fe1fffcc4923d04b559f4d29a8bfc6cda04eb5b0d3c460751c2402c5c5cc9109c9060200160405180910390a2005b600080fd5b3480156101ed57600080fd5b5060085461020290600160a01b900460ff1681565b60405160ff90911681526020015b60405180910390f35b34801561022557600080fd5b50610202610234366004611b27565b600e6020526000908152604090205460ff1681565b34801561025557600080fd5b5061025e6105a5565b604051610210929190611b8e565b34801561027857600080fd5b5061028c610287366004611baf565b610612565b005b34801561029a57600080fd5b506102a460065481565b604051908152602001610210565b3480156102be57600080fd5b506102d26102cd366004611baf565b610832565b6040516001600160a01b039091168152602001610210565b3480156102f657600080fd5b50610323610305366004611b27565b6001600160a01b03166000908152600c602052604090205460ff1690565b6040519015158152602001610210565b34801561033f57600080fd5b5061028c61034e366004611b27565b61085c565b34801561035f57600080fd5b506102a460045481565b34801561037557600080fd5b5061028c610384366004611b27565b6108ef565b34801561039557600080fd5b5061028c6103a4366004611bc8565b610af4565b3480156103b557600080fd5b506102a46103c4366004611bc8565b600f6020526000908152604090205481565b3480156103e257600080fd5b506009546102a4565b3480156103f757600080fd5b506102a460035481565b34801561040d57600080fd5b5061020261041c366004611b27565b600d6020526000908152604090205460ff1681565b34801561043d57600080fd5b506008546102d2906001600160a01b031681565b34801561045d57600080fd5b506102a461046c366004611baf565b610c9d565b34801561047d57600080fd5b5061028c61048c366004611b27565b610cbe565b34801561049d57600080fd5b506102a460055481565b3480156104b357600080fd5b506102a460015481565b3480156104c957600080fd5b506102a460025481565b3480156104df57600080fd5b506104f36104ee366004611baf565b610dcb565b6040516102109190611beb565b34801561050c57600080fd5b506102a461051b366004611d3e565b610f35565b34801561052c57600080fd5b506102d261053b366004611baf565b610fd1565b34801561054c57600080fd5b5061028c610fe1565b34801561056157600080fd5b5061028c610570366004611d3e565b611064565b34801561058157600080fd5b50610323610590366004611b27565b600c6020526000908152604090205460ff1681565b60006060600654600a8080548060200260200160405190810160405280929190818152602001828054801561060357602002820191906000526020600020905b81546001600160a01b031681526001909101906020018083116105e5575b50505050509050915091509091565b61061b3361149f565b806106265750600a54155b6106925760405162461bcd60e51b815260206004820152603260248201527f43616c6c6572206973206e6f7420612073656c65637465642076616c696461746044820152716f7220666f72207468697320726f756e642160701b60648201526084015b60405180910390fd5b336000908152600d602052604090205460ff16156107115760405162461bcd60e51b815260206004820152603660248201527f56616c696461746f722068617320616c7265616479207375626d697474656420604482015275612070726f706f73616c207468697320726f756e642160501b6064820152608401610689565b6001546005546107219042611e5d565b10156107a75760405162461bcd60e51b815260206004820152604960248201527f50726f706f73616c73206d757374206265207375626d697474656420302d313060448201527f206d696e732061667465722073696e6365206c6173742065786563757465642060648201526870726f706f73616c2160b81b608482015260a401610689565b600b80546001810182557f0175b7a638427703f0dbe7bb9bbf987a2551717b34e79f33b5b1008d1fa01db90182905554336000908152600d6020908152604091829020805460ff191660ff85169081179091558251858152918201527ff12f42d7b1ad6517121b689523ab8621a454c589bf568443b060a07539d527b2910160405180910390a15050565b6009818154811061084257600080fd5b6000918252602090912001546001600160a01b0316905081565b336000908152600c602052604090205460ff1661088b5760405162461bcd60e51b815260040161068990611e76565b336001600160a01b038216146108e35760405162461bcd60e51b815260206004820181905260248201527f43616e6e6f742072656d6f766520616e6f746865722076616c696461746f72216044820152606401610689565b6108ec816114fe565b50565b600754604051631293efbb60e21b81526001600160a01b03838116600483015290911690634a4fbeec90602401602060405180830381865afa158015610939573d6000803e3d6000fd5b505050506040513d601f19601f8201168201806040525081019061095d9190611ebb565b6109cf5760405162461bcd60e51b815260206004820152603a60248201527f56616c696461746f72206d757374206265207265676973746572656420616e6460448201527f206c6f636b6564206f6e20536d6172746e6f646573436f7265210000000000006064820152608401610689565b6001600160a01b0381166000908152600c602052604090205460ff1615610a495760405162461bcd60e51b815260206004820152602860248201527f56616c696461746f7220616c72656164792072656769737465726564206f6e206044820152674d756c747369672160c01b6064820152608401610689565b6009805460018082019092557f6e1540171b6c0c960b71a7020d9f60077f6af931a8bbf590da0223dacf75c7af0180546001600160a01b0319166001600160a01b0384169081179091556000908152600c60205260409020805460ff19169091179055610ab46116c4565b6040516001600160a01b03821681527fe366c1c0452ed8eec96861e9e54141ebff23c9ec89fe27b996b45f5ec3884987906020015b60405180910390a150565b336000908152600c602052604090205460ff16610b235760405162461bcd60e51b815260040161068990611e76565b336000908152600e602052604090205460ff1615610b835760405162461bcd60e51b815260206004820152601c60248201527f56616c696461746f722068617320616c726561647920766f74656421000000006044820152606401610689565b600b5460ff821611801590610b9b575060008160ff16115b610be75760405162461bcd60e51b815260206004820152601860248201527f496e76616c69642070726f706f73616c206e756d6265722100000000000000006044820152606401610689565b336000908152600c602052604081205460ff1615159003610c0b57610c0b336108ef565b336000908152600e60209081526040808320805460ff191660ff86169081179091558352600f9091528120805491610c4283611edd565b909155505060035460ff82166000908152600f6020526040902054106108ec576006546040805191825260ff831660208301527fac47567de0e8cbb941c127791c37545fd48c33fdd937525d655a06094096c3679101610ae9565b600b8181548110610cad57600080fd5b600091825260209091200154905081565b600054610100900460ff16610cd95760005460ff1615610cdd565b303b155b610d405760405162461bcd60e51b815260206004820152602e60248201527f496e697469616c697a61626c653a20636f6e747261637420697320616c72656160448201526d191e481a5b9a5d1a585b1a5e995960921b6064820152608401610689565b600054610100900460ff16158015610d62576000805461ffff19166101011790555b60088054601e60045560006001819055600780546001600160a01b0319166001600160a01b038716908117909155600582905560426002556001600160a81b0319909216909117600160a01b179091556006558015610dc7576000805461ff00191690555b5050565b600954606090821115610e205760405162461bcd60e51b815260206004820152601d60248201527f4e6f7420656e6f756768206163746976652076616c696461746f7273210000006044820152606401610689565b60008267ffffffffffffffff811115610e3b57610e3b611bfe565b604051908082528060200260200182016040528015610e64578160200160208202803683370190505b5090506000805b84811015610f2c5760095460408051426020820152339181019190915260608101839052600091906080016040516020818303038152906040528051906020012060001c610eb99190611f0c565b905060098181548110610ece57610ece611f20565b9060005260206000200160009054906101000a90046001600160a01b0316848381518110610efe57610efe611f20565b6001600160a01b039092166020928302919091019091015282610f2081611edd565b93505050600101610e6b565b50909392505050565b60008351835114610f975760405162461bcd60e51b815260206004820152602660248201527f576f726b65727320616e642063617061636974696573206c656e677468206d696044820152650e6dac2e8c6d60d31b6064820152608401610689565b8585858585604051602001610fb0959493929190611f67565b60405160208183030381529060405280519060200120905095945050505050565b600a818154811061084257600080fd5b6008546001600160a01b0316331461104a5760405162461bcd60e51b815260206004820152602660248201527f43616c6c6572206d7573742062652074686520536d6172746e6f6465734d756c6044820152653a34a9b4b39760d11b6064820152608401610689565b60026001600082825461105d9190611fee565b9091555050565b336000908152600c602052604090205460ff166110935760405162461bcd60e51b815260040161068990611e76565b336000908152600d602052604090205460ff16806110f35760405162461bcd60e51b815260206004820152601b60248201527f4d75737420626520612070726f706f73616c2063726561746f722100000000006044820152606401610689565b60035460ff82166000908152600f602052604090205410156111575760405162461bcd60e51b815260206004820152601a60248201527f4e6f7420656e6f7567682070726f706f73616c20766f746573210000000000006044820152606401610689565b6000600b611166600184612002565b60ff168154811061117957611179611f20565b9060005260206000200154905060006111958888888888610f35565b90508181146111f85760405162461bcd60e51b815260206004820152602960248201527f50726f706f73616c206461746120646f65736e2774206d6174636820696e697460448201526869616c20686173682160b81b6064820152608401610689565b8751156112375760005b88518110156112355761122d89828151811061122057611220611f20565b60200260200101516114fe565b600101611202565b505b8651600090156112f95760005b88518110156112f75760075489516000916001600160a01b03169063991e0139908c908590811061127757611277611f20565b60200260200101516040518263ffffffff1660e01b815260040161129d91815260200190565b6020604051808303816000875af11580156112bc573d6000803e3d6000fd5b505050506040513d601f19601f820116820180604052508101906112e0919061201b565b90506112ec8184612034565b925050600101611244565b505b60ff84166000908152600f602052604081205467ffffffffffffffff81111561132457611324611bfe565b60405190808252806020026020018201604052801561134d578160200160208202803683370190505b50905060005b6009548110156113e35760006009828154811061137257611372611f20565b60009182526020808320909101546001600160a01b0316808352600e90915260409091205490915060ff8089169116036113da57808383815181106113b9576113b9611f20565b60200260200101906001600160a01b031690816001600160a01b0316815250505b50600101611353565b50600754604051630dc2491160e31b81526001600160a01b0390911690636e1248889061141c908a908c908b9087908990600401612047565b600060405180830381600087803b15801561143657600080fd5b505af115801561144a573d6000803e3d6000fd5b505060065460408051918252602082018790527f56a007d3eea04bd347e571f3451382cb2a33ef5fd102b9a63846ff8d787f43cf935001905060405180910390a16114936116f5565b50505050505050505050565b6000805b600a548110156114f557826001600160a01b0316600a82815481106114ca576114ca611f20565b6000918252602090912001546001600160a01b0316036114ed5750600192915050565b6001016114a3565b50600092915050565b6001600160a01b0381166000908152600c602052604090205460ff166115665760405162461bcd60e51b815260206004820152601960248201527f56616c696461746f72206e6f74207265676973746572656421000000000000006044820152606401610689565b6001600160a01b0381166000908152600c60205260408120805460ff191690555b60095481101561168257816001600160a01b0316600982815481106115ae576115ae611f20565b6000918252602090912001546001600160a01b03160361167a57600980546115d890600190611e5d565b815481106115e8576115e8611f20565b600091825260209091200154600980546001600160a01b03909216918390811061161457611614611f20565b9060005260206000200160006101000a8154816001600160a01b0302191690836001600160a01b03160217905550600980548061165357611653612086565b600082815260209020810160001990810180546001600160a01b0319169055019055611682565b600101611587565b5061168b6116c4565b6040516001600160a01b03821681527fe1434e25d6611e0db941968fdc97811c982ac1602e951637d206f5fdda9dd8f190602001610ae9565b6002546009546064916116d69161209c565b6116e09190611fee565b6003819055600111156116f35760016003555b565b6116fd611760565b600b541561174557600b805460ff166000908152600f602052604081205580548061172a5761172a612086565b600190038181906000526020600020016000905590556116fd565b426005556006805490600061175983611edd565b9190505550565b60005b600a548110156117c5576000600d6000600a848154811061178657611786611f20565b6000918252602080832091909101546001600160a01b031683528201929092526040019020805460ff191660ff92909216919091179055600101611763565b5060005b60095481101561182b576000600e6000600984815481106117ec576117ec611f20565b6000918252602080832091909101546001600160a01b031683528201929092526040019020805460ff191660ff929092169190911790556001016117c9565b50600a5460000361189d5760005b60095481101561189b576000600d60006009848154811061185c5761185c611f20565b6000918252602080832091909101546001600160a01b031683528201929092526040019020805460ff191660ff92909216919091179055600101611839565b505b6118a9600a6000611ad9565b600854600954600160a01b90910460ff1611156119085760405162461bcd60e51b815260206004820152601d60248201527f4e6f7420656e6f756768206163746976652076616c696461746f7273210000006044820152606401610689565b600854600090600160a01b900460ff1667ffffffffffffffff81111561193057611930611bfe565b604051908082528060200260200182016040528015611959578160200160208202803683370190505b5090506000805b600854600160a01b900460ff16821015611ad45760095460408051426020820152339181019190915260608101849052608081018390526000919060a0016040516020818303038152906040528051906020012060001c6119c19190611f0c565b90506000600982815481106119d8576119d8611f20565b60009182526020822001546001600160a01b03169150805b85811015611a3b57826001600160a01b0316878281518110611a1457611a14611f20565b60200260200101516001600160a01b031603611a335760019150611a3b565b6001016119f0565b5080611abf5781868681518110611a5457611a54611f20565b6001600160a01b039283166020918202929092010152600a80546001810182556000919091527fc65a7bb8d6351c1cf70c95a316cc6a92839c986682d98bc35f958f4883f9d2a80180546001600160a01b03191691841691909117905584611abb81611edd565b9550505b83611ac981611edd565b945050505050611960565b505050565b50805460008255906000526020600020908101906108ec91905b80821115611b075760008155600101611af3565b5090565b80356001600160a01b0381168114611b2257600080fd5b919050565b600060208284031215611b3957600080fd5b611b4282611b0b565b9392505050565b60008151808452602080850194506020840160005b83811015611b835781516001600160a01b031687529582019590820190600101611b5e565b509495945050505050565b828152604060208201526000611ba76040830184611b49565b949350505050565b600060208284031215611bc157600080fd5b5035919050565b600060208284031215611bda57600080fd5b813560ff81168114611b4257600080fd5b602081526000611b426020830184611b49565b634e487b7160e01b600052604160045260246000fd5b604051601f8201601f1916810167ffffffffffffffff81118282101715611c3d57611c3d611bfe565b604052919050565b600067ffffffffffffffff821115611c5f57611c5f611bfe565b5060051b60200190565b600082601f830112611c7a57600080fd5b81356020611c8f611c8a83611c45565b611c14565b8083825260208201915060208460051b870101935086841115611cb157600080fd5b602086015b84811015611cd457611cc781611b0b565b8352918301918301611cb6565b509695505050505050565b600082601f830112611cf057600080fd5b81356020611d00611c8a83611c45565b8083825260208201915060208460051b870101935086841115611d2257600080fd5b602086015b84811015611cd45780358352918301918301611d27565b600080600080600060a08688031215611d5657600080fd5b853567ffffffffffffffff80821115611d6e57600080fd5b611d7a89838a01611c69565b9650602091508188013581811115611d9157600080fd5b8801601f81018a13611da257600080fd5b8035611db0611c8a82611c45565b81815260059190911b8201840190848101908c831115611dcf57600080fd5b928501925b82841015611ded57833582529285019290850190611dd4565b98505050506040880135915080821115611e0657600080fd5b611e1289838a01611cdf565b94506060880135915080821115611e2857600080fd5b50611e3588828901611c69565b95989497509295608001359392505050565b634e487b7160e01b600052601160045260246000fd5b81810381811115611e7057611e70611e47565b92915050565b60208082526025908201527f43616c6c6572206973206e6f74206120536d6172746e6f6465732056616c696460408201526461746f722160d81b606082015260800190565b600060208284031215611ecd57600080fd5b81518015158114611b4257600080fd5b600060018201611eef57611eef611e47565b5060010190565b634e487b7160e01b600052601260045260246000fd5b600082611f1b57611f1b611ef6565b500690565b634e487b7160e01b600052603260045260246000fd5b60008151808452602080850194506020840160005b83811015611b8357815187529582019590820190600101611f4b565b60a081526000611f7a60a0830188611b49565b82810360208481019190915287518083528882019282019060005b81811015611fb157845183529383019391830191600101611f95565b50508481036040860152611fc58189611f36565b925050508281036060840152611fdb8186611b49565b9150508260808301529695505050505050565b600082611ffd57611ffd611ef6565b500490565b60ff8281168282160390811115611e7057611e70611e47565b60006020828403121561202d57600080fd5b5051919050565b80820180821115611e7057611e70611e47565b60a08152600061205a60a0830188611b49565b828103602084015261206c8188611f36565b90508560408401528281036060840152611fdb8186611b49565b634e487b7160e01b600052603160045260246000fd5b8082028115828204841417611e7057611e70611e4756fea26469706673582212207fcb2581c06fa55f13d1dde83a88787482305d9dd4fb9ef1b6530507cca07df964736f6c63430008190033",
  "bytecodeSha1": "c92c6e3db4f08503359f7a514b1aa15671379ac7",
  "compiler": {
    "evm_version": "istanbul",
    "optimizer": {
      "enabled": true,
      "runs": 200
    },
    "version": "0.8.25+commit.b61c2a91"
  },
  "contractName": "SmartnodesMultiSig",
  "language": "Solidity",
  "natspec": {
    "details": "A multi-signature contract composed of Smartnodes validators responsible for managing the Core contract",
    "kind": "dev",
    "methods": {
      "addValidator(address)": {
        "notice": "Adds a new validator to the contract, must be staked on SmartnodesCore.",
        "params": {
          "validator": "The address of the new validator"
        }
      },
      "approveTransaction(uint8)": {
        "notice": "Casts a vote for a proposal and executes once required approvals are met. Add Validator to storage if it has just registered and is not stored on MultiSig. ",
        "params": {
          "proposalNum": "The ID of the current round proposal"
        }
      },
      "createProposal(bytes32)": {
        "notice": "Creates a new proposal, to update all the essential data structures given some aggregated off-chain state."
      },
      "executeProposal(address[],bytes32[],uint256[],address[],uint256)": {
        "notice": "Executes a proposal if it has enough approvals. Only to be called by approveTransaction"
      }
    },
    "title": "SmartnodesMultiSig",
    "version": 1
  },
  "opcodes": "PUSH1 0x80 PUSH1 0x40 MSTORE PUSH1 0x4 CALLDATASIZE LT PUSH2 0x1A0 JUMPI PUSH1 0x0 CALLDATALOAD PUSH1 0xE0 SHR DUP1 PUSH4 0x99C1AADC GT PUSH2 0xEC JUMPI DUP1 PUSH4 0xDDAA5450 GT PUSH2 0x8A JUMPI DUP1 PUSH4 0xE8BB5946 GT PUSH2 0x64 JUMPI DUP1 PUSH4 0xE8BB5946 EQ PUSH2 0x520 JUMPI DUP1 PUSH4 0xEC432772 EQ PUSH2 0x540 JUMPI DUP1 PUSH4 0xF5BBD43A EQ PUSH2 0x555 JUMPI DUP1 PUSH4 0xFACD743B EQ PUSH2 0x575 JUMPI PUSH1 0x0 DUP1 REVERT JUMPDEST DUP1 PUSH4 0xDDAA5450 EQ PUSH2 0x4BD JUMPI DUP1 PUSH4 0xE2A8F6F2 EQ PUSH2 0x4D3 JUMPI DUP1 PUSH4 0xE6F3D3D8 EQ PUSH2 0x500 JUMPI PUSH1 0x0 DUP1 REVERT JUMPDEST DUP1 PUSH4 0xBD423184 GT PUSH2 0xC6 JUMPI DUP1 PUSH4 0xBD423184 EQ PUSH2 0x451 JUMPI DUP1 PUSH4 0xC4D66DE8 EQ PUSH2 0x471 JUMPI DUP1 PUSH4 0xD088650A EQ PUSH2 0x491 JUMPI DUP1 PUSH4 0xDC555090 EQ PUSH2 0x4A7 JUMPI PUSH1 0x0 DUP1 REVERT JUMPDEST DUP1 PUSH4 0x99C1AADC EQ PUSH2 0x3EB JUMPI DUP1 PUSH4 0x9A171629 EQ PUSH2 0x401 JUMPI DUP1 PUSH4 0xA6F9ED81 EQ PUSH2 0x431 JUMPI PUSH1 0x0 DUP1 REVERT JUMPDEST DUP1 PUSH4 0x40550A1C GT PUSH2 0x159 JUMPI DUP1 PUSH4 0x4D238C8E GT PUSH2 0x133 JUMPI DUP1 PUSH4 0x4D238C8E EQ PUSH2 0x369 JUMPI DUP1 PUSH4 0x54D9D614 EQ PUSH2 0x389 JUMPI DUP1 PUSH4 0x6D6A0352 EQ PUSH2 0x3A9 JUMPI DUP1 PUSH4 0x91E2E252 EQ PUSH2 0x3D6 JUMPI PUSH1 0x0 DUP1 REVERT JUMPDEST DUP1 PUSH4 0x40550A1C EQ PUSH2 0x2EA JUMPI DUP1 PUSH4 0x40A141FF EQ PUSH2 0x333 JUMPI DUP1 PUSH4 0x473967C9 EQ PUSH2 0x353 JUMPI PUSH1 0x0 DUP1 REVERT JUMPDEST DUP1 PUSH4 0x833C91A EQ PUSH2 0x1E1 JUMPI DUP1 PUSH4 0x9EEF43E EQ PUSH2 0x219 JUMPI DUP1 PUSH4 0x1865C57D EQ PUSH2 0x249 JUMPI DUP1 PUSH4 0x2542BF06 EQ PUSH2 0x26C JUMPI DUP1 PUSH4 0x2AB09D14 EQ PUSH2 0x28E JUMPI DUP1 PUSH4 0x35AA2E44 EQ PUSH2 0x2B2 JUMPI PUSH1 0x0 DUP1 REVERT JUMPDEST CALLDATASIZE PUSH2 0x1DC JUMPI PUSH1 0x40 MLOAD CALLVALUE DUP2 MSTORE CALLER SWAP1 PUSH32 0xE1FFFCC4923D04B559F4D29A8BFC6CDA04EB5B0D3C460751C2402C5C5CC9109C SWAP1 PUSH1 0x20 ADD PUSH1 0x40 MLOAD DUP1 SWAP2 SUB SWAP1 LOG2 STOP JUMPDEST PUSH1 0x0 DUP1 REVERT JUMPDEST CALLVALUE DUP1 ISZERO PUSH2 0x1ED JUMPI PUSH1 0x0 DUP1 REVERT JUMPDEST POP PUSH1 0x8 SLOAD PUSH2 0x202 SWAP1 PUSH1 0x1 PUSH1 0xA0 SHL SWAP1 DIV PUSH1 0xFF AND DUP2 JUMP JUMPDEST PUSH1 0x40 MLOAD PUSH1 0xFF SWAP1 SWAP2 AND DUP2 MSTORE PUSH1 0x20 ADD JUMPDEST PUSH1 0x40 MLOAD DUP1 SWAP2 SUB SWAP1 RETURN JUMPDEST CALLVALUE DUP1 ISZERO PUSH2 0x225 JUMPI PUSH1 0x0 DUP1 REVERT JUMPDEST POP PUSH2 0x202 PUSH2 0x234 CALLDATASIZE PUSH1 0x4 PUSH2 0x1B27 JUMP JUMPDEST PUSH1 0xE PUSH1 0x20 MSTORE PUSH1 0x0 SWAP1 DUP2 MSTORE PUSH1 0x40 SWAP1 KECCAK256 SLOAD PUSH1 0xFF AND DUP2 JUMP JUMPDEST CALLVALUE DUP1 ISZERO PUSH2 0x255 JUMPI PUSH1 0x0 DUP1 REVERT JUMPDEST POP PUSH2 0x25E PUSH2 0x5A5 JUMP JUMPDEST PUSH1 0x40 MLOAD PUSH2 0x210 SWAP3 SWAP2 SWAP1 PUSH2 0x1B8E JUMP JUMPDEST CALLVALUE DUP1 ISZERO PUSH2 0x278 JUMPI PUSH1 0x0 DUP1 REVERT JUMPDEST POP PUSH2 0x28C PUSH2 0x287 CALLDATASIZE PUSH1 0x4 PUSH2 0x1BAF JUMP JUMPDEST PUSH2 0x612 JUMP JUMPDEST STOP JUMPDEST CALLVALUE DUP1 ISZERO PUSH2 0x29A JUMPI PUSH1 0x0 DUP1 REVERT JUMPDEST POP PUSH2 0x2A4 PUSH1 0x6 SLOAD DUP2 JUMP JUMPDEST PUSH1 0x40 MLOAD SWAP1 DUP2 MSTORE PUSH1 0x20 ADD PUSH2 0x210 JUMP JUMPDEST CALLVALUE DUP1 ISZERO PUSH2 0x2BE JUMPI PUSH1 0x0 DUP1 REVERT JUMPDEST POP PUSH2 0x2D2 PUSH2 0x2CD CALLDATASIZE PUSH1 0x4 PUSH2 0x1BAF JUMP JUMPDEST PUSH2 0x832 JUMP JUMPDEST PUSH1 0x40 MLOAD PUSH1 0x1 PUSH1 0x1 PUSH1 0xA0 SHL SUB SWAP1 SWAP2 AND DUP2 MSTORE PUSH1 0x20 ADD PUSH2 0x210 JUMP JUMPDEST CALLVALUE DUP1 ISZERO PUSH2 0x2F6 JUMPI PUSH1 0x0 DUP1 REVERT JUMPDEST POP PUSH2 0x323 PUSH2 0x305 CALLDATASIZE PUSH1 0x4 PUSH2 0x1B27 JUMP JUMPDEST PUSH1 0x1 PUSH1 0x1 PUSH1 0xA0 SHL SUB AND PUSH1 0x0 SWAP1 DUP2 MSTORE PUSH1 0xC PUSH1 0x20 MSTORE PUSH1 0x40 SWAP1 KECCAK256 SLOAD PUSH1 0xFF AND SWAP1 JUMP JUMPDEST PUSH1 0x40 MLOAD SWAP1 ISZERO ISZERO DUP2 MSTORE PUSH1 0x20 ADD PUSH2 0x210 JUMP JUMPDEST CALLVALUE DUP1 ISZERO PUSH2 0x33F JUMPI PUSH1 0x0 DUP1 REVERT JUMPDEST POP PUSH2 0x28C PUSH2 0x34E CALLDATASIZE PUSH1 0x4 PUSH2 0x1B27 JUMP JUMPDEST PUSH2 0x85C JUMP JUMPDEST CALLVALUE DUP1 ISZERO PUSH2 0x35F JUMPI PUSH1 0x0 DUP1 REVERT JUMPDEST POP PUSH2 0x2A4 PUSH1 0x4 SLOAD DUP2 JUMP JUMPDEST CALLVALUE DUP1 ISZERO PUSH2 0x375 JUMPI PUSH1 0x0 DUP1 REVERT JUMPDEST POP PUSH2 0x28C PUSH2 0x384 CALLDATASIZE PUSH1 0x4 PUSH2 0x1B27 JUMP JUMPDEST PUSH2 0x8EF JUMP JUMPDEST CALLVALUE DUP1 ISZERO PUSH2 0x395 JUMPI PUSH1 0x0 DUP1 REVERT JUMPDEST POP PUSH2 0x28C PUSH2 0x3A4 CALLDATASIZE PUSH1 0x4 PUSH2 0x1BC8 JUMP JUMPDEST PUSH2 0xAF4 JUMP JUMPDEST CALLVALUE DUP1 ISZERO PUSH2 0x3B5 JUMPI PUSH1 0x0 DUP1 REVERT JUMPDEST POP PUSH2 0x2A4 PUSH2 0x3C4 CALLDATASIZE PUSH1 0x4 PUSH2 0x1BC8 JUMP JUMPDEST PUSH1 0xF PUSH1 0x20 MSTORE PUSH1 0x0 SWAP1 DUP2 MSTORE PUSH1 0x40 SWAP1 KECCAK256 SLOAD DUP2 JUMP JUMPDEST CALLVALUE DUP1 ISZERO PUSH2 0x3E2 JUMPI PUSH1 0x0 DUP1 REVERT JUMPDEST POP PUSH1 0x9 SLOAD PUSH2 0x2A4 JUMP JUMPDEST CALLVALUE DUP1 ISZERO PUSH2 0x3F7 JUMPI PUSH1 0x0 DUP1 REVERT JUMPDEST POP PUSH2 0x2A4 PUSH1 0x3 SLOAD DUP2 JUMP JUMPDEST CALLVALUE DUP1 ISZERO PUSH2 0x40D JUMPI PUSH1 0x0 DUP1 REVERT JUMPDEST POP PUSH2 0x202 PUSH2 0x41C CALLDATASIZE PUSH1 0x4 PUSH2 0x1B27 JUMP JUMPDEST PUSH1 0xD PUSH1 0x20 MSTORE PUSH1 0x0 SWAP1 DUP2 MSTORE PUSH1 0x40 SWAP1 KECCAK256 SLOAD PUSH1 0xFF AND DUP2 JUMP JUMPDEST CALLVALUE DUP1 ISZERO PUSH2 0x43D JUMPI PUSH1 0x0 DUP1 REVERT JUMPDEST POP PUSH1 0x8 SLOAD PUSH2 0x2D2 SWAP1 PUSH1 0x1 PUSH1 0x1 PUSH1 0xA0 SHL SUB AND DUP2 JUMP JUMPDEST CALLVALUE DUP1 ISZERO PUSH2 0x45D JUMPI PUSH1 0x0 DUP1 REVERT JUMPDEST POP PUSH2 0x2A4 PUSH2 0x46C CALLDATASIZE PUSH1 0x4 PUSH2 0x1BAF JUMP JUMPDEST PUSH2 0xC9D JUMP JUMPDEST CALLVALUE DUP1 ISZERO PUSH2 0x47D JUMPI PUSH1 0x0 DUP1 REVERT JUMPDEST POP PUSH2 0x28C PUSH2 0x48C CALLDATASIZE PUSH1 0x4 PUSH2 0x1B27 JUMP JUMPDEST PUSH2 0xCBE JUMP JUMPDEST CALLVALUE DUP1 ISZERO PUSH2 0x49D JUMPI PUSH1 0x0 DUP1 REVERT JUMPDEST POP PUSH2 0x2A4 PUSH1 0x5 SLOAD DUP2 JUMP JUMPDEST CALLVALUE DUP1 ISZERO PUSH2 0x4B3 JUMPI PUSH1 0x0 DUP1 REVERT JUMPDEST POP PUSH2 0x2A4 PUSH1 0x1 SLOAD DUP2 JUMP JUMPDEST CALLVALUE DUP1 ISZERO PUSH2 0x4C9 JUMPI PUSH1 0x0 DUP1 REVERT JUMPDEST POP PUSH2 0x2A4 PUSH1 0x2 SLOAD DUP2 JUMP JUMPDEST CALLVALUE DUP1 ISZERO PUSH2 0x4DF JUMPI PUSH1 0x0 DUP1 REVERT JUMPDEST POP PUSH2 0x4F3 PUSH2 0x4EE CALLDATASIZE PUSH1 0x4 PUSH2 0x1BAF JUMP JUMPDEST PUSH2 0xDCB JUMP JUMPDEST PUSH1 0x40 MLOAD PUSH2 0x210 SWAP2 SWAP1 PUSH2 0x1BEB JUMP JUMPDEST CALLVALUE DUP1 ISZERO PUSH2 0x50C JUMPI PUSH1 0x0 DUP1 REVERT JUMPDEST POP PUSH2 0x2A4 PUSH2 0x51B CALLDATASIZE PUSH1 0x4 PUSH2 0x1D3E JUMP JUMPDEST PUSH2 0xF35 JUMP JUMPDEST CALLVALUE DUP1 ISZERO PUSH2 0x52C JUMPI PUSH1 0x0 DUP1 REVERT JUMPDEST POP PUSH2 0x2D2 PUSH2 0x53B CALLDATASIZE PUSH1 0x4 PUSH2 0x1BAF JUMP JUMPDEST PUSH2 0xFD1 JUMP JUMPDEST CALLVALUE DUP1 ISZERO PUSH2 0x54C JUMPI PUSH1 0x0 DUP1 REVERT JUMPDEST POP PUSH2 0x28C PUSH2 0xFE1 JUMP JUMPDEST CALLVALUE DUP1 ISZERO PUSH2 0x561 JUMPI PUSH1 0x0 DUP1 REVERT JUMPDEST POP PUSH2 0x28C PUSH2 0x570 CALLDATASIZE PUSH1 0x4 PUSH2 0x1D3E JUMP JUMPDEST PUSH2 0x1064 JUMP JUMPDEST CALLVALUE DUP1 ISZERO PUSH2 0x581 JUMPI PUSH1 0x0 DUP1 REVERT JUMPDEST POP PUSH2 0x323 PUSH2 0x590 CALLDATASIZE PUSH1 0x4 PUSH2 0x1B27 JUMP JUMPDEST PUSH1 0xC PUSH1 0x20 MSTORE PUSH1 0x0 SWAP1 DUP2 MSTORE PUSH1 0x40 SWAP1 KECCAK256 SLOAD PUSH1 0xFF AND DUP2 JUMP JUMPDEST PUSH1 0x0 PUSH1 0x60 PUSH1 0x6 SLOAD PUSH1 0xA DUP1 DUP1 SLOAD DUP1 PUSH1 0x20 MUL PUSH1 0x20 ADD PUSH1 0x40 MLOAD SWAP1 DUP2 ADD PUSH1 0x40 MSTORE DUP1 SWAP3 SWAP2 SWAP1 DUP2 DUP2 MSTORE PUSH1 0x20 ADD DUP3 DUP1 SLOAD DUP1 ISZERO PUSH2 0x603 JUMPI PUSH1 0x20 MUL DUP3 ADD SWAP2 SWAP1 PUSH1 0x0 MSTORE PUSH1 0x20 PUSH1 0x0 KECCAK256 SWAP1 JUMPDEST DUP2 SLOAD PUSH1 0x1 PUSH1 0x1 PUSH1 0xA0 SHL SUB AND DUP2 MSTORE PUSH1 0x1 SWAP1 SWAP2 ADD SWAP1 PUSH1 0x20 ADD DUP1 DUP4 GT PUSH2 0x5E5 JUMPI JUMPDEST POP POP POP POP POP SWAP1 POP SWAP2 POP SWAP2 POP SWAP1 SWAP2 JUMP JUMPDEST PUSH2 0x61B CALLER PUSH2 0x149F JUMP JUMPDEST DUP1 PUSH2 0x626 JUMPI POP PUSH1 0xA SLOAD ISZERO JUMPDEST PUSH2 0x692 JUMPI PUSH1 0x40 MLOAD PUSH3 0x461BCD PUSH1 0xE5 SHL DUP2 MSTORE PUSH1 0x20 PUSH1 0x4 DUP3 ADD MSTORE PUSH1 0x32 PUSH1 0x24 DUP3 ADD MSTORE PUSH32 0x43616C6C6572206973206E6F7420612073656C65637465642076616C69646174 PUSH1 0x44 DUP3 ADD MSTORE PUSH18 0x6F7220666F72207468697320726F756E6421 PUSH1 0x70 SHL PUSH1 0x64 DUP3 ADD MSTORE PUSH1 0x84 ADD JUMPDEST PUSH1 0x40 MLOAD DUP1 SWAP2 SUB SWAP1 REVERT JUMPDEST CALLER PUSH1 0x0 SWAP1 DUP2 MSTORE PUSH1 0xD PUSH1 0x20 MSTORE PUSH1 0x40 SWAP1 KECCAK256 SLOAD PUSH1 0xFF AND ISZERO PUSH2 0x711 JUMPI PUSH1 0x40 MLOAD PUSH3 0x461BCD PUSH1 0xE5 SHL DUP2 MSTORE PUSH1 0x20 PUSH1 0x4 DUP3 ADD MSTORE PUSH1 0x36 PUSH1 0x24 DUP3 ADD MSTORE PUSH32 0x56616C696461746F722068617320616C7265616479207375626D697474656420 PUSH1 0x44 DUP3 ADD MSTORE PUSH22 0x612070726F706F73616C207468697320726F756E6421 PUSH1 0x50 SHL PUSH1 0x64 DUP3 ADD MSTORE PUSH1 0x84 ADD PUSH2 0x689 JUMP JUMPDEST PUSH1 0x1 SLOAD PUSH1 0x5 SLOAD PUSH2 0x721 SWAP1 TIMESTAMP PUSH2 0x1E5D JUMP JUMPDEST LT ISZERO PUSH2 0x7A7 JUMPI PUSH1 0x40 MLOAD PUSH3 0x461BCD PUSH1 0xE5 SHL DUP2 MSTORE PUSH1 0x20 PUSH1 0x4 DUP3 ADD MSTORE PUSH1 0x49 PUSH1 0x24 DUP3 ADD MSTORE PUSH32 0x50726F706F73616C73206D757374206265207375626D697474656420302D3130 PUSH1 0x44 DUP3 ADD MSTORE PUSH32 0x206D696E732061667465722073696E6365206C61737420657865637574656420 PUSH1 0x64 DUP3 ADD MSTORE PUSH9 0x70726F706F73616C21 PUSH1 0xB8 SHL PUSH1 0x84 DUP3 ADD MSTORE PUSH1 0xA4 ADD PUSH2 0x689 JUMP JUMPDEST PUSH1 0xB DUP1 SLOAD PUSH1 0x1 DUP2 ADD DUP3 SSTORE PUSH32 0x175B7A638427703F0DBE7BB9BBF987A2551717B34E79F33B5B1008D1FA01DB9 ADD DUP3 SWAP1 SSTORE SLOAD CALLER PUSH1 0x0 SWAP1 DUP2 MSTORE PUSH1 0xD PUSH1 0x20 SWAP1 DUP2 MSTORE PUSH1 0x40 SWAP2 DUP3 SWAP1 KECCAK256 DUP1 SLOAD PUSH1 0xFF NOT AND PUSH1 0xFF DUP6 AND SWAP1 DUP2 OR SWAP1 SWAP2 SSTORE DUP3 MLOAD DUP6 DUP2 MSTORE SWAP2 DUP3 ADD MSTORE PUSH32 0xF12F42D7B1AD6517121B689523AB8621A454C589BF568443B060A07539D527B2 SWAP2 ADD PUSH1 0x40 MLOAD DUP1 SWAP2 SUB SWAP1 LOG1 POP POP JUMP JUMPDEST PUSH1 0x9 DUP2 DUP2 SLOAD DUP2 LT PUSH2 0x842 JUMPI PUSH1 0x0 DUP1 REVERT JUMPDEST PUSH1 0x0 SWAP2 DUP3 MSTORE PUSH1 0x20 SWAP1 SWAP2 KECCAK256 ADD SLOAD PUSH1 0x1 PUSH1 0x1 PUSH1 0xA0 SHL SUB AND SWAP1 POP DUP2 JUMP JUMPDEST CALLER PUSH1 0x0 SWAP1 DUP2 MSTORE PUSH1 0xC PUSH1 0x20 MSTORE PUSH1 0x40 SWAP1 KECCAK256 SLOAD PUSH1 0xFF AND PUSH2 0x88B JUMPI PUSH1 0x40 MLOAD PUSH3 0x461BCD PUSH1 0xE5 SHL DUP2 MSTORE PUSH1 0x4 ADD PUSH2 0x689 SWAP1 PUSH2 0x1E76 JUMP JUMPDEST CALLER PUSH1 0x1 PUSH1 0x1 PUSH1 0xA0 SHL SUB DUP3 AND EQ PUSH2 0x8E3 JUMPI PUSH1 0x40 MLOAD PUSH3 0x461BCD PUSH1 0xE5 SHL DUP2 MSTORE PUSH1 0x20 PUSH1 0x4 DUP3 ADD DUP2 SWAP1 MSTORE PUSH1 0x24 DUP3 ADD MSTORE PUSH32 0x43616E6E6F742072656D6F766520616E6F746865722076616C696461746F7221 PUSH1 0x44 DUP3 ADD MSTORE PUSH1 0x64 ADD PUSH2 0x689 JUMP JUMPDEST PUSH2 0x8EC DUP2 PUSH2 0x14FE JUMP JUMPDEST POP JUMP JUMPDEST PUSH1 0x7 SLOAD PUSH1 0x40 MLOAD PUSH4 0x1293EFBB PUSH1 0xE2 SHL DUP2 MSTORE PUSH1 0x1 PUSH1 0x1 PUSH1 0xA0 SHL SUB DUP4 DUP2 AND PUSH1 0x4 DUP4 ADD MSTORE SWAP1 SWAP2 AND SWAP1 PUSH4 0x4A4FBEEC SWAP1 PUSH1 0x24 ADD PUSH1 0x20 PUSH1 0x40 MLOAD DUP1 DUP4 SUB DUP2 DUP7 GAS STATICCALL ISZERO DUP1 ISZERO PUSH2 0x939 JUMPI RETURNDATASIZE PUSH1 0x0 DUP1 RETURNDATACOPY RETURNDATASIZE PUSH1 0x0 REVERT JUMPDEST POP POP POP POP PUSH1 0x40 MLOAD RETURNDATASIZE PUSH1 0x1F NOT PUSH1 0x1F DUP3 ADD AND DUP3 ADD DUP1 PUSH1 0x40 MSTORE POP DUP2 ADD SWAP1 PUSH2 0x95D SWAP2 SWAP1 PUSH2 0x1EBB JUMP JUMPDEST PUSH2 0x9CF JUMPI PUSH1 0x40 MLOAD PUSH3 0x461BCD PUSH1 0xE5 SHL DUP2 MSTORE PUSH1 0x20 PUSH1 0x4 DUP3 ADD MSTORE PUSH1 0x3A PUSH1 0x24 DUP3 ADD MSTORE PUSH32 0x56616C696461746F72206D757374206265207265676973746572656420616E64 PUSH1 0x44 DUP3 ADD MSTORE PUSH32 0x206C6F636B6564206F6E20536D6172746E6F646573436F726521000000000000 PUSH1 0x64 DUP3 ADD MSTORE PUSH1 0x84 ADD PUSH2 0x689 JUMP JUMPDEST PUSH1 0x1 PUSH1 0x1 PUSH1 0xA0 SHL SUB DUP2 AND PUSH1 0x0 SWAP1 DUP2 MSTORE PUSH1 0xC PUSH1 0x20 MSTORE PUSH1 0x40 SWAP1 KECCAK256 SLOAD PUSH1 0xFF AND ISZERO PUSH2 0xA49 JUMPI PUSH1 0x40 MLOAD PUSH3 0x461BCD PUSH1 0xE5 SHL DUP2 MSTORE PUSH1 0x20 PUSH1 0x4 DUP3 ADD MSTORE PUSH1 0x28 PUSH1 0x24 DUP3 ADD MSTORE PUSH32 0x56616C696461746F7220616C72656164792072656769737465726564206F6E20 PUSH1 0x44 DUP3 ADD MSTORE PUSH8 0x4D756C7473696721 PUSH1 0xC0 SHL PUSH1 0x64 DUP3 ADD MSTORE PUSH1 0x84 ADD PUSH2 0x689 JUMP JUMPDEST PUSH1 0x9 DUP1 SLOAD PUSH1 0x1 DUP1 DUP3 ADD SWAP1 SWAP3 SSTORE PUSH32 0x6E1540171B6C0C960B71A7020D9F60077F6AF931A8BBF590DA0223DACF75C7AF ADD DUP1 SLOAD PUSH1 0x1 PUSH1 0x1 PUSH1 0xA0 SHL SUB NOT AND PUSH1 0x1 PUSH1 0x1 PUSH1 0xA0 SHL SUB DUP5 AND SWAP1 DUP2 OR SWAP1 SWAP2 SSTORE PUSH1 0x0 SWAP1 DUP2 MSTORE PUSH1 0xC PUSH1 0x20 MSTORE PUSH1 0x40 SWAP1 KECCAK256 DUP1 SLOAD PUSH1 0xFF NOT AND SWAP1 SWAP2 OR SWAP1 SSTORE PUSH2 0xAB4 PUSH2 0x16C4 JUMP JUMPDEST PUSH1 0x40 MLOAD PUSH1 0x1 PUSH1 0x1 PUSH1 0xA0 SHL SUB DUP3 AND DUP2 MSTORE PUSH32 0xE366C1C0452ED8EEC96861E9E54141EBFF23C9EC89FE27B996B45F5EC3884987 SWAP1 PUSH1 0x20 ADD JUMPDEST PUSH1 0x40 MLOAD DUP1 SWAP2 SUB SWAP1 LOG1 POP JUMP JUMPDEST CALLER PUSH1 0x0 SWAP1 DUP2 MSTORE PUSH1 0xC PUSH1 0x20 MSTORE PUSH1 0x40 SWAP1 KECCAK256 SLOAD PUSH1 0xFF AND PUSH2 0xB23 JUMPI PUSH1 0x40 MLOAD PUSH3 0x461BCD PUSH1 0xE5 SHL DUP2 MSTORE PUSH1 0x4 ADD PUSH2 0x689 SWAP1 PUSH2 0x1E76 JUMP JUMPDEST CALLER PUSH1 0x0 SWAP1 DUP2 MSTORE PUSH1 0xE PUSH1 0x20 MSTORE PUSH1 0x40 SWAP1 KECCAK256 SLOAD PUSH1 0xFF AND ISZERO PUSH2 0xB83 JUMPI PUSH1 0x40 MLOAD PUSH3 0x461BCD PUSH1 0xE5 SHL DUP2 MSTORE PUSH1 0x20 PUSH1 0x4 DUP3 ADD MSTORE PUSH1 0x1C PUSH1 0x24 DUP3 ADD MSTORE PUSH32 0x56616C696461746F722068617320616C726561647920766F7465642100000000 PUSH1 0x44 DUP3 ADD MSTORE PUSH1 0x64 ADD PUSH2 0x689 JUMP JUMPDEST PUSH1 0xB SLOAD PUSH1 0xFF DUP3 AND GT DUP1 ISZERO SWAP1 PUSH2 0xB9B JUMPI POP PUSH1 0x0 DUP2 PUSH1 0xFF AND GT JUMPDEST PUSH2 0xBE7 JUMPI PUSH1 0x40 MLOAD PUSH3 0x461BCD PUSH1 0xE5 SHL DUP2 MSTORE PUSH1 0x20 PUSH1 0x4 DUP3 ADD MSTORE PUSH1 0x18 PUSH1 0x24 DUP3 ADD MSTORE PUSH32 0x496E76616C69642070726F706F73616C206E756D626572210000000000000000 PUSH1 0x44 DUP3 ADD MSTORE PUSH1 0x64 ADD PUSH2 0x689 JUMP JUMPDEST CALLER PUSH1 0x0 SWAP1 DUP2 MSTORE PUSH1 0xC PUSH1 0x20 MSTORE PUSH1 0x40 DUP2 KECCAK256 SLOAD PUSH1 0xFF AND ISZERO ISZERO SWAP1 SUB PUSH2 0xC0B JUMPI PUSH2 0xC0B CALLER PUSH2 0x8EF JUMP JUMPDEST CALLER PUSH1 0x0 SWAP1 DUP2 MSTORE PUSH1 0xE PUSH1 0x20 SWAP1 DUP2 MSTORE PUSH1 0x40 DUP1 DUP4 KECCAK256 DUP1 SLOAD PUSH1 0xFF NOT AND PUSH1 0xFF DUP7 AND SWAP1 DUP2 OR SWAP1 SWAP2 SSTORE DUP4 MSTORE PUSH1 0xF SWAP1 SWAP2 MSTORE DUP2 KECCAK256 DUP1 SLOAD SWAP2 PUSH2 0xC42 DUP4 PUSH2 0x1EDD JUMP JUMPDEST SWAP1 SWAP2 SSTORE POP POP PUSH1 0x3 SLOAD PUSH1 0xFF DUP3 AND PUSH1 0x0 SWAP1 DUP2 MSTORE PUSH1 0xF PUSH1 0x20 MSTORE PUSH1 0x40 SWAP1 KECCAK256 SLOAD LT PUSH2 0x8EC JUMPI PUSH1 0x6 SLOAD PUSH1 0x40 DUP1 MLOAD SWAP2 DUP3 MSTORE PUSH1 0xFF DUP4 AND PUSH1 0x20 DUP4 ADD MSTORE PUSH32 0xAC47567DE0E8CBB941C127791C37545FD48C33FDD937525D655A06094096C367 SWAP2 ADD PUSH2 0xAE9 JUMP JUMPDEST PUSH1 0xB DUP2 DUP2 SLOAD DUP2 LT PUSH2 0xCAD JUMPI PUSH1 0x0 DUP1 REVERT JUMPDEST PUSH1 0x0 SWAP2 DUP3 MSTORE PUSH1 0x20 SWAP1 SWAP2 KECCAK256 ADD SLOAD SWAP1 POP DUP2 JUMP JUMPDEST PUSH1 0x0 SLOAD PUSH2 0x100 SWAP1 DIV PUSH1 0xFF AND PUSH2 0xCD9 JUMPI PUSH1 0x0 SLOAD PUSH1 0xFF AND ISZERO PUSH2 0xCDD JUMP JUMPDEST ADDRESS EXTCODESIZE ISZERO JUMPDEST PUSH2 0xD40 JUMPI PUSH1 0x40 MLOAD PUSH3 0x461BCD PUSH1 0xE5 SHL DUP2 MSTORE PUSH1 0x20 PUSH1 0x4 DUP3 ADD MSTORE PUSH1 0x2E PUSH1 0x24 DUP3 ADD MSTORE PUSH32 0x496E697469616C697A61626C653A20636F6E747261637420697320616C726561 PUSH1 0x44 DUP3 ADD MSTORE PUSH14 0x191E481A5B9A5D1A585B1A5E9959 PUSH1 0x92 SHL PUSH1 0x64 DUP3 ADD MSTORE PUSH1 0x84 ADD PUSH2 0x689 JUMP JUMPDEST PUSH1 0x0 SLOAD PUSH2 0x100 SWAP1 DIV PUSH1 0xFF AND ISZERO DUP1 ISZERO PUSH2 0xD62 JUMPI PUSH1 0x0 DUP1 SLOAD PUSH2 0xFFFF NOT AND PUSH2 0x101 OR SWAP1 SSTORE JUMPDEST PUSH1 0x8 DUP1 SLOAD PUSH1 0x1E PUSH1 0x4 SSTORE PUSH1 0x0 PUSH1 0x1 DUP2 SWAP1 SSTORE PUSH1 0x7 DUP1 SLOAD PUSH1 0x1 PUSH1 0x1 PUSH1 0xA0 SHL SUB NOT AND PUSH1 0x1 PUSH1 0x1 PUSH1 0xA0 SHL SUB DUP8 AND SWAP1 DUP2 OR SWAP1 SWAP2 SSTORE PUSH1 0x5 DUP3 SWAP1 SSTORE PUSH1 0x42 PUSH1 0x2 SSTORE PUSH1 0x1 PUSH1 0x1 PUSH1 0xA8 SHL SUB NOT SWAP1 SWAP3 AND SWAP1 SWAP2 OR PUSH1 0x1 PUSH1 0xA0 SHL OR SWAP1 SWAP2 SSTORE PUSH1 0x6 SSTORE DUP1 ISZERO PUSH2 0xDC7 JUMPI PUSH1 0x0 DUP1 SLOAD PUSH2 0xFF00 NOT AND SWAP1 SSTORE JUMPDEST POP POP JUMP JUMPDEST PUSH1 0x9 SLOAD PUSH1 0x60 SWAP1 DUP3 GT ISZERO PUSH2 0xE20 JUMPI PUSH1 0x40 MLOAD PUSH3 0x461BCD PUSH1 0xE5 SHL DUP2 MSTORE PUSH1 0x20 PUSH1 0x4 DUP3 ADD MSTORE PUSH1 0x1D PUSH1 0x24 DUP3 ADD MSTORE PUSH32 0x4E6F7420656E6F756768206163746976652076616C696461746F727321000000 PUSH1 0x44 DUP3 ADD MSTORE PUSH1 0x64 ADD PUSH2 0x689 JUMP JUMPDEST PUSH1 0x0 DUP3 PUSH8 0xFFFFFFFFFFFFFFFF DUP2 GT ISZERO PUSH2 0xE3B JUMPI PUSH2 0xE3B PUSH2 0x1BFE JUMP JUMPDEST PUSH1 0x40 MLOAD SWAP1 DUP1 DUP3 MSTORE DUP1 PUSH1 0x20 MUL PUSH1 0x20 ADD DUP3 ADD PUSH1 0x40 MSTORE DUP1 ISZERO PUSH2 0xE64 JUMPI DUP2 PUSH1 0x20 ADD PUSH1 0x20 DUP3 MUL DUP1 CALLDATASIZE DUP4 CALLDATACOPY ADD SWAP1 POP JUMPDEST POP SWAP1 POP PUSH1 0x0 DUP1 JUMPDEST DUP5 DUP2 LT ISZERO PUSH2 0xF2C JUMPI PUSH1 0x9 SLOAD PUSH1 0x40 DUP1 MLOAD TIMESTAMP PUSH1 0x20 DUP3 ADD MSTORE CALLER SWAP2 DUP2 ADD SWAP2 SWAP1 SWAP2 MSTORE PUSH1 0x60 DUP2 ADD DUP4 SWAP1 MSTORE PUSH1 0x0 SWAP2 SWAP1 PUSH1 0x80 ADD PUSH1 0x40 MLOAD PUSH1 0x20 DUP2 DUP4 SUB SUB DUP2 MSTORE SWAP1 PUSH1 0x40 MSTORE DUP1 MLOAD SWAP1 PUSH1 0x20 ADD KECCAK256 PUSH1 0x0 SHR PUSH2 0xEB9 SWAP2 SWAP1 PUSH2 0x1F0C JUMP JUMPDEST SWAP1 POP PUSH1 0x9 DUP2 DUP2 SLOAD DUP2 LT PUSH2 0xECE JUMPI PUSH2 0xECE PUSH2 0x1F20 JUMP JUMPDEST SWAP1 PUSH1 0x0 MSTORE PUSH1 0x20 PUSH1 0x0 KECCAK256 ADD PUSH1 0x0 SWAP1 SLOAD SWAP1 PUSH2 0x100 EXP SWAP1 DIV PUSH1 0x1 PUSH1 0x1 PUSH1 0xA0 SHL SUB AND DUP5 DUP4 DUP2 MLOAD DUP2 LT PUSH2 0xEFE JUMPI PUSH2 0xEFE PUSH2 0x1F20 JUMP JUMPDEST PUSH1 0x1 PUSH1 0x1 PUSH1 0xA0 SHL SUB SWAP1 SWAP3 AND PUSH1 0x20 SWAP3 DUP4 MUL SWAP2 SWAP1 SWAP2 ADD SWAP1 SWAP2 ADD MSTORE DUP3 PUSH2 0xF20 DUP2 PUSH2 0x1EDD JUMP JUMPDEST SWAP4 POP POP POP PUSH1 0x1 ADD PUSH2 0xE6B JUMP JUMPDEST POP SWAP1 SWAP4 SWAP3 POP POP POP JUMP JUMPDEST PUSH1 0x0 DUP4 MLOAD DUP4 MLOAD EQ PUSH2 0xF97 JUMPI PUSH1 0x40 MLOAD PUSH3 0x461BCD PUSH1 0xE5 SHL DUP2 MSTORE PUSH1 0x20 PUSH1 0x4 DUP3 ADD MSTORE PUSH1 0x26 PUSH1 0x24 DUP3 ADD MSTORE PUSH32 0x576F726B65727320616E642063617061636974696573206C656E677468206D69 PUSH1 0x44 DUP3 ADD MSTORE PUSH6 0xE6DAC2E8C6D PUSH1 0xD3 SHL PUSH1 0x64 DUP3 ADD MSTORE PUSH1 0x84 ADD PUSH2 0x689 JUMP JUMPDEST DUP6 DUP6 DUP6 DUP6 DUP6 PUSH1 0x40 MLOAD PUSH1 0x20 ADD PUSH2 0xFB0 SWAP6 SWAP5 SWAP4 SWAP3 SWAP2 SWAP1 PUSH2 0x1F67 JUMP JUMPDEST PUSH1 0x40 MLOAD PUSH1 0x20 DUP2 DUP4 SUB SUB DUP2 MSTORE SWAP1 PUSH1 0x40 MSTORE DUP1 MLOAD SWAP1 PUSH1 0x20 ADD KECCAK256 SWAP1 POP SWAP6 SWAP5 POP POP POP POP POP JUMP JUMPDEST PUSH1 0xA DUP2 DUP2 SLOAD DUP2 LT PUSH2 0x842 JUMPI PUSH1 0x0 DUP1 REVERT JUMPDEST PUSH1 0x8 SLOAD PUSH1 0x1 PUSH1 0x1 PUSH1 0xA0 SHL SUB AND CALLER EQ PUSH2 0x104A JUMPI PUSH1 0x40 MLOAD PUSH3 0x461BCD PUSH1 0xE5 SHL DUP2 MSTORE PUSH1 0x20 PUSH1 0x4 DUP3 ADD MSTORE PUSH1 0x26 PUSH1 0x24 DUP3 ADD MSTORE PUSH32 0x43616C6C6572206D7573742062652074686520536D6172746E6F6465734D756C PUSH1 0x44 DUP3 ADD MSTORE PUSH6 0x3A34A9B4B397 PUSH1 0xD1 SHL PUSH1 0x64 DUP3 ADD MSTORE PUSH1 0x84 ADD PUSH2 0x689 JUMP JUMPDEST PUSH1 0x2 PUSH1 0x1 PUSH1 0x0 DUP3 DUP3 SLOAD PUSH2 0x105D SWAP2 SWAP1 PUSH2 0x1FEE JUMP JUMPDEST SWAP1 SWAP2 SSTORE POP POP JUMP JUMPDEST CALLER PUSH1 0x0 SWAP1 DUP2 MSTORE PUSH1 0xC PUSH1 0x20 MSTORE PUSH1 0x40 SWAP1 KECCAK256 SLOAD PUSH1 0xFF AND PUSH2 0x1093 JUMPI PUSH1 0x40 MLOAD PUSH3 0x461BCD PUSH1 0xE5 SHL DUP2 MSTORE PUSH1 0x4 ADD PUSH2 0x689 SWAP1 PUSH2 0x1E76 JUMP JUMPDEST CALLER PUSH1 0x0 SWAP1 DUP2 MSTORE PUSH1 0xD PUSH1 0x20 MSTORE PUSH1 0x40 SWAP1 KECCAK256 SLOAD PUSH1 0xFF AND DUP1 PUSH2 0x10F3 JUMPI PUSH1 0x40 MLOAD PUSH3 0x461BCD PUSH1 0xE5 SHL DUP2 MSTORE PUSH1 0x20 PUSH1 0x4 DUP3 ADD MSTORE PUSH1 0x1B PUSH1 0x24 DUP3 ADD MSTORE PUSH32 0x4D75737420626520612070726F706F73616C2063726561746F72210000000000 PUSH1 0x44 DUP3 ADD MSTORE PUSH1 0x64 ADD PUSH2 0x689 JUMP JUMPDEST PUSH1 0x3 SLOAD PUSH1 0xFF DUP3 AND PUSH1 0x0 SWAP1 DUP2 MSTORE PUSH1 0xF PUSH1 0x20 MSTORE PUSH1 0x40 SWAP1 KECCAK256 SLOAD LT ISZERO PUSH2 0x1157 JUMPI PUSH1 0x40 MLOAD PUSH3 0x461BCD PUSH1 0xE5 SHL DUP2 MSTORE PUSH1 0x20 PUSH1 0x4 DUP3 ADD MSTORE PUSH1 0x1A PUSH1 0x24 DUP3 ADD MSTORE PUSH32 0x4E6F7420656E6F7567682070726F706F73616C20766F74657321000000000000 PUSH1 0x44 DUP3 ADD MSTORE PUSH1 0x64 ADD PUSH2 0x689 JUMP JUMPDEST PUSH1 0x0 PUSH1 0xB PUSH2 0x1166 PUSH1 0x1 DUP5 PUSH2 0x2002 JUMP JUMPDEST PUSH1 0xFF AND DUP2 SLOAD DUP2 LT PUSH2 0x1179 JUMPI PUSH2 0x1179 PUSH2 0x1F20 JUMP JUMPDEST SWAP1 PUSH1 0x0 MSTORE PUSH1 0x20 PUSH1 0x0 KECCAK256 ADD SLOAD SWAP1 POP PUSH1 0x0 PUSH2 0x1195 DUP9 DUP9 DUP9 DUP9 DUP9 PUSH2 0xF35 JUMP JUMPDEST SWAP1 POP DUP2 DUP2 EQ PUSH2 0x11F8 JUMPI PUSH1 0x40 MLOAD PUSH3 0x461BCD PUSH1 0xE5 SHL DUP2 MSTORE PUSH1 0x20 PUSH1 0x4 DUP3 ADD MSTORE PUSH1 0x29 PUSH1 0x24 DUP3 ADD MSTORE PUSH32 0x50726F706F73616C206461746120646F65736E2774206D6174636820696E6974 PUSH1 0x44 DUP3 ADD MSTORE PUSH9 0x69616C206861736821 PUSH1 0xB8 SHL PUSH1 0x64 DUP3 ADD MSTORE PUSH1 0x84 ADD PUSH2 0x689 JUMP JUMPDEST DUP8 MLOAD ISZERO PUSH2 0x1237 JUMPI PUSH1 0x0 JUMPDEST DUP9 MLOAD DUP2 LT ISZERO PUSH2 0x1235 JUMPI PUSH2 0x122D DUP10 DUP3 DUP2 MLOAD DUP2 LT PUSH2 0x1220 JUMPI PUSH2 0x1220 PUSH2 0x1F20 JUMP JUMPDEST PUSH1 0x20 MUL PUSH1 0x20 ADD ADD MLOAD PUSH2 0x14FE JUMP JUMPDEST PUSH1 0x1 ADD PUSH2 0x1202 JUMP JUMPDEST POP JUMPDEST DUP7 MLOAD PUSH1 0x0 SWAP1 ISZERO PUSH2 0x12F9 JUMPI PUSH1 0x0 JUMPDEST DUP9 MLOAD DUP2 LT ISZERO PUSH2 0x12F7 JUMPI PUSH1 0x7 SLOAD DUP10 MLOAD PUSH1 0x0 SWAP2 PUSH1 0x1 PUSH1 0x1 PUSH1 0xA0 SHL SUB AND SWAP1 PUSH4 0x991E0139 SWAP1 DUP13 SWAP1 DUP6 SWAP1 DUP2 LT PUSH2 0x1277 JUMPI PUSH2 0x1277 PUSH2 0x1F20 JUMP JUMPDEST PUSH1 0x20 MUL PUSH1 0x20 ADD ADD MLOAD PUSH1 0x40 MLOAD DUP3 PUSH4 0xFFFFFFFF AND PUSH1 0xE0 SHL DUP2 MSTORE PUSH1 0x4 ADD PUSH2 0x129D SWAP2 DUP2 MSTORE PUSH1 0x20 ADD SWAP1 JUMP JUMPDEST PUSH1 0x20 PUSH1 0x40 MLOAD DUP1 DUP4 SUB DUP2 PUSH1 0x0 DUP8 GAS CALL ISZERO DUP1 ISZERO PUSH2 0x12BC JUMPI RETURNDATASIZE PUSH1 0x0 DUP1 RETURNDATACOPY RETURNDATASIZE PUSH1 0x0 REVERT JUMPDEST POP POP POP POP PUSH1 0x40 MLOAD RETURNDATASIZE PUSH1 0x1F NOT PUSH1 0x1F DUP3 ADD AND DUP3 ADD DUP1 PUSH1 0x40 MSTORE POP DUP2 ADD SWAP1 PUSH2 0x12E0 SWAP2 SWAP1 PUSH2 0x201B JUMP JUMPDEST SWAP1 POP PUSH2 0x12EC DUP2 DUP5 PUSH2 0x2034 JUMP JUMPDEST SWAP3 POP POP PUSH1 0x1 ADD PUSH2 0x1244 JUMP JUMPDEST POP JUMPDEST PUSH1 0xFF DUP5 AND PUSH1 0x0 SWAP1 DUP2 MSTORE PUSH1 0xF PUSH1 0x20 MSTORE PUSH1 0x40 DUP2 KECCAK256 SLOAD PUSH8 0xFFFFFFFFFFFFFFFF DUP2 GT ISZERO PUSH2 0x1324 JUMPI PUSH2 0x1324 PUSH2 0x1BFE JUMP JUMPDEST PUSH1 0x40 MLOAD SWAP1 DUP1 DUP3 MSTORE DUP1 PUSH1 0x20 MUL PUSH1 0x20 ADD DUP3 ADD PUSH1 0x40 MSTORE DUP1 ISZERO PUSH2 0x134D JUMPI DUP2 PUSH1 0x20 ADD PUSH1 0x20 DUP3 MUL DUP1 CALLDATASIZE DUP4 CALLDATACOPY ADD SWAP1 POP JUMPDEST POP SWAP1 POP PUSH1 0x0 JUMPDEST PUSH1 0x9 SLOAD DUP2 LT ISZERO PUSH2 0x13E3 JUMPI PUSH1 0x0 PUSH1 0x9 DUP3 DUP2 SLOAD DUP2 LT PUSH2 0x1372 JUMPI PUSH2 0x1372 PUSH2 0x1F20 JUMP JUMPDEST PUSH1 0x0 SWAP2 DUP3 MSTORE PUSH1 0x20 DUP1 DUP4 KECCAK256 SWAP1 SWAP2 ADD SLOAD PUSH1 0x1 PUSH1 0x1 PUSH1 0xA0 SHL SUB AND DUP1 DUP4 MSTORE PUSH1 0xE SWAP1 SWAP2 MSTORE PUSH1 0x40 SWAP1 SWAP2 KECCAK256 SLOAD SWAP1 SWAP2 POP PUSH1 0xFF DUP1 DUP10 AND SWAP2 AND SUB PUSH2 0x13DA JUMPI DUP1 DUP4 DUP4 DUP2 MLOAD DUP2 LT PUSH2 0x13B9 JUMPI PUSH2 0x13B9 PUSH2 0x1F20 JUMP JUMPDEST PUSH1 0x20 MUL PUSH1 0x20 ADD ADD SWAP1 PUSH1 0x1 PUSH1 0x1 PUSH1 0xA0 SHL SUB AND SWAP1 DUP2 PUSH1 0x1 PUSH1 0x1 PUSH1 0xA0 SHL SUB AND DUP2 MSTORE POP POP JUMPDEST POP PUSH1 0x1 ADD PUSH2 0x1353 JUMP JUMPDEST POP PUSH1 0x7 SLOAD PUSH1 0x40 MLOAD PUSH4 0xDC24911 PUSH1 0xE3 SHL DUP2 MSTORE PUSH1 0x1 PUSH1 0x1 PUSH1 0xA0 SHL SUB SWAP1 SWAP2 AND SWAP1 PUSH4 0x6E124888 SWAP1 PUSH2 0x141C SWAP1 DUP11 SWAP1 DUP13 SWAP1 DUP12 SWAP1 DUP8 SWAP1 DUP10 SWAP1 PUSH1 0x4 ADD PUSH2 0x2047 JUMP JUMPDEST PUSH1 0x0 PUSH1 0x40 MLOAD DUP1 DUP4 SUB DUP2 PUSH1 0x0 DUP8 DUP1 EXTCODESIZE ISZERO DUP1 ISZERO PUSH2 0x1436 JUMPI PUSH1 0x0 DUP1 REVERT JUMPDEST POP GAS CALL ISZERO DUP1 ISZERO PUSH2 0x144A JUMPI RETURNDATASIZE PUSH1 0x0 DUP1 RETURNDATACOPY RETURNDATASIZE PUSH1 0x0 REVERT JUMPDEST POP POP PUSH1 0x6 SLOAD PUSH1 0x40 DUP1 MLOAD SWAP2 DUP3 MSTORE PUSH1 0x20 DUP3 ADD DUP8 SWAP1 MSTORE PUSH32 0x56A007D3EEA04BD347E571F3451382CB2A33EF5FD102B9A63846FF8D787F43CF SWAP4 POP ADD SWAP1 POP PUSH1 0x40 MLOAD DUP1 SWAP2 SUB SWAP1 LOG1 PUSH2 0x1493 PUSH2 0x16F5 JUMP JUMPDEST POP POP POP POP POP POP POP POP POP POP JUMP JUMPDEST PUSH1 0x0 DUP1 JUMPDEST PUSH1 0xA SLOAD DUP2 LT ISZERO PUSH2 0x14F5 JUMPI DUP3 PUSH1 0x1 PUSH1 0x1 PUSH1 0xA0 SHL SUB AND PUSH1 0xA DUP3 DUP2 SLOAD DUP2 LT PUSH2 0x14CA JUMPI PUSH2 0x14CA PUSH2 0x1F20 JUMP JUMPDEST PUSH1 0x0 SWAP2 DUP3 MSTORE PUSH1 0x20 SWAP1 SWAP2 KECCAK256 ADD SLOAD PUSH1 0x1 PUSH1 0x1 PUSH1 0xA0 SHL SUB AND SUB PUSH2 0x14ED JUMPI POP PUSH1 0x1 SWAP3 SWAP2 POP POP JUMP JUMPDEST PUSH1 0x1 ADD PUSH2 0x14A3 JUMP JUMPDEST POP PUSH1 0x0 SWAP3 SWAP2 POP POP JUMP JUMPDEST PUSH1 0x1 PUSH1 0x1 PUSH1 0xA0 SHL SUB DUP2 AND PUSH1 0x0 SWAP1 DUP2 MSTORE PUSH1 0xC PUSH1 0x20 MSTORE PUSH1 0x40 SWAP1 KECCAK256 SLOAD PUSH1 0xFF AND PUSH2 0x1566 JUMPI PUSH1 0x40 MLOAD PUSH3 0x461BCD PUSH1 0xE5 SHL DUP2 MSTORE PUSH1 0x20 PUSH1 0x4 DUP3 ADD MSTORE PUSH1 0x19 PUSH1 0x24 DUP3 ADD MSTORE PUSH32 0x56616C696461746F72206E6F7420726567697374657265642100000000000000 PUSH1 0x44 DUP3 ADD MSTORE PUSH1 0x64 ADD PUSH2 0x689 JUMP JUMPDEST PUSH1 0x1 PUSH1 0x1 PUSH1 0xA0 SHL SUB DUP2 AND PUSH1 0x0 SWAP1 DUP2 MSTORE PUSH1 0xC PUSH1 0x20 MSTORE PUSH1 0x40 DUP2 KECCAK256 DUP1 SLOAD PUSH1 0xFF NOT AND SWAP1 SSTORE JUMPDEST PUSH1 0x9 SLOAD DUP2 LT ISZERO PUSH2 0x1682 JUMPI DUP2 PUSH1 0x1 PUSH1 0x1 PUSH1 0xA0 SHL SUB AND PUSH1 0x9 DUP3 DUP2 SLOAD DUP2 LT PUSH2 0x15AE JUMPI PUSH2 0x15AE PUSH2 0x1F20 JUMP JUMPDEST PUSH1 0x0 SWAP2 DUP3 MSTORE PUSH1 0x20 SWAP1 SWAP2 KECCAK256 ADD SLOAD PUSH1 0x1 PUSH1 0x1 PUSH1 0xA0 SHL SUB AND SUB PUSH2 0x167A JUMPI PUSH1 0x9 DUP1 SLOAD PUSH2 0x15D8 SWAP1 PUSH1 0x1 SWAP1 PUSH2 0x1E5D JUMP JUMPDEST DUP2 SLOAD DUP2 LT PUSH2 0x15E8 JUMPI PUSH2 0x15E8 PUSH2 0x1F20 JUMP JUMPDEST PUSH1 0x0 SWAP2 DUP3 MSTORE PUSH1 0x20 SWAP1 SWAP2 KECCAK256 ADD SLOAD PUSH1 0x9 DUP1 SLOAD PUSH1 0x1 PUSH1 0x1 PUSH1 0xA0 SHL SUB SWAP1 SWAP3 AND SWAP2 DUP4 SWAP1 DUP2 LT PUSH2 0x1614 JUMPI PUSH2 0x1614 PUSH2 0x1F20 JUMP JUMPDEST SWAP1 PUSH1 0x0 MSTORE PUSH1 0x20 PUSH1 0x0 KECCAK256 ADD PUSH1 0x0 PUSH2 0x100 EXP DUP2 SLOAD DUP2 PUSH1 0x1 PUSH1 0x1 PUSH1 0xA0 SHL SUB MUL NOT AND SWAP1 DUP4 PUSH1 0x1 PUSH1 0x1 PUSH1 0xA0 SHL SUB AND MUL OR SWAP1 SSTORE POP PUSH1 0x9 DUP1 SLOAD DUP1 PUSH2 0x1653 JUMPI PUSH2 0x1653 PUSH2 0x2086 JUMP JUMPDEST PUSH1 0x0 DUP3 DUP2 MSTORE PUSH1 0x20 SWAP1 KECCAK256 DUP2 ADD PUSH1 0x0 NOT SWAP1 DUP2 ADD DUP1 SLOAD PUSH1 0x1 PUSH1 0x1 PUSH1 0xA0 SHL SUB NOT AND SWAP1 SSTORE ADD SWAP1 SSTORE PUSH2 0x1682 JUMP JUMPDEST PUSH1 0x1 ADD PUSH2 0x1587 JUMP JUMPDEST POP PUSH2 0x168B PUSH2 0x16C4 JUMP JUMPDEST PUSH1 0x40 MLOAD PUSH1 0x1 PUSH1 0x1 PUSH1 0xA0 SHL SUB DUP3 AND DUP2 MSTORE PUSH32 0xE1434E25D6611E0DB941968FDC97811C982AC1602E951637D206F5FDDA9DD8F1 SWAP1 PUSH1 0x20 ADD PUSH2 0xAE9 JUMP JUMPDEST PUSH1 0x2 SLOAD PUSH1 0x9 SLOAD PUSH1 0x64 SWAP2 PUSH2 0x16D6 SWAP2 PUSH2 0x209C JUMP JUMPDEST PUSH2 0x16E0 SWAP2 SWAP1 PUSH2 0x1FEE JUMP JUMPDEST PUSH1 0x3 DUP2 SWAP1 SSTORE PUSH1 0x1 GT ISZERO PUSH2 0x16F3 JUMPI PUSH1 0x1 PUSH1 0x3 SSTORE JUMPDEST JUMP JUMPDEST PUSH2 0x16FD PUSH2 0x1760 JUMP JUMPDEST PUSH1 0xB SLOAD ISZERO PUSH2 0x1745 JUMPI PUSH1 0xB DUP1 SLOAD PUSH1 0xFF AND PUSH1 0x0 SWAP1 DUP2 MSTORE PUSH1 0xF PUSH1 0x20 MSTORE PUSH1 0x40 DUP2 KECCAK256 SSTORE DUP1 SLOAD DUP1 PUSH2 0x172A JUMPI PUSH2 0x172A PUSH2 0x2086 JUMP JUMPDEST PUSH1 0x1 SWAP1 SUB DUP2 DUP2 SWAP1 PUSH1 0x0 MSTORE PUSH1 0x20 PUSH1 0x0 KECCAK256 ADD PUSH1 0x0 SWAP1 SSTORE SWAP1 SSTORE PUSH2 0x16FD JUMP JUMPDEST TIMESTAMP PUSH1 0x5 SSTORE PUSH1 0x6 DUP1 SLOAD SWAP1 PUSH1 0x0 PUSH2 0x1759 DUP4 PUSH2 0x1EDD JUMP JUMPDEST SWAP2 SWAP1 POP SSTORE POP JUMP JUMPDEST PUSH1 0x0 JUMPDEST PUSH1 0xA SLOAD DUP2 LT ISZERO PUSH2 0x17C5 JUMPI PUSH1 0x0 PUSH1 0xD PUSH1 0x0 PUSH1 0xA DUP5 DUP2 SLOAD DUP2 LT PUSH2 0x1786 JUMPI PUSH2 0x1786 PUSH2 0x1F20 JUMP JUMPDEST PUSH1 0x0 SWAP2 DUP3 MSTORE PUSH1 0x20 DUP1 DUP4 KECCAK256 SWAP2 SWAP1 SWAP2 ADD SLOAD PUSH1 0x1 PUSH1 0x1 PUSH1 0xA0 SHL SUB AND DUP4 MSTORE DUP3 ADD SWAP3 SWAP1 SWAP3 MSTORE PUSH1 0x40 ADD SWAP1 KECCAK256 DUP1 SLOAD PUSH1 0xFF NOT AND PUSH1 0xFF SWAP3 SWAP1 SWAP3 AND SWAP2 SWAP1 SWAP2 OR SWAP1 SSTORE PUSH1 0x1 ADD PUSH2 0x1763 JUMP JUMPDEST POP PUSH1 0x0 JUMPDEST PUSH1 0x9 SLOAD DUP2 LT ISZERO PUSH2 0x182B JUMPI PUSH1 0x0 PUSH1 0xE PUSH1 0x0 PUSH1 0x9 DUP5 DUP2 SLOAD DUP2 LT PUSH2 0x17EC JUMPI PUSH2 0x17EC PUSH2 0x1F20 JUMP JUMPDEST PUSH1 0x0 SWAP2 DUP3 MSTORE PUSH1 0x20 DUP1 DUP4 KECCAK256 SWAP2 SWAP1 SWAP2 ADD SLOAD PUSH1 0x1 PUSH1 0x1 PUSH1 0xA0 SHL SUB AND DUP4 MSTORE DUP3 ADD SWAP3 SWAP1 SWAP3 MSTORE PUSH1 0x40 ADD SWAP1 KECCAK256 DUP1 SLOAD PUSH1 0xFF NOT AND PUSH1 0xFF SWAP3 SWAP1 SWAP3 AND SWAP2 SWAP1 SWAP2 OR SWAP1 SSTORE PUSH1 0x1 ADD PUSH2 0x17C9 JUMP JUMPDEST POP PUSH1 0xA SLOAD PUSH1 0x0 SUB PUSH2 0x189D JUMPI PUSH1 0x0 JUMPDEST PUSH1 0x9 SLOAD DUP2 LT ISZERO PUSH2 0x189B JUMPI PUSH1 0x0 PUSH1 0xD PUSH1 0x0 PUSH1 0x9 DUP5 DUP2 SLOAD DUP2 LT PUSH2 0x185C JUMPI PUSH2 0x185C PUSH2 0x1F20 JUMP JUMPDEST PUSH1 0x0 SWAP2 DUP3 MSTORE PUSH1 0x20 DUP1 DUP4 KECCAK256 SWAP2 SWAP1 SWAP2 ADD SLOAD PUSH1 0x1 PUSH1 0x1 PUSH1 0xA0 SHL SUB AND DUP4 MSTORE DUP3 ADD SWAP3 SWAP1 SWAP3 MSTORE PUSH1 0x40 ADD SWAP1 KECCAK256 DUP1 SLOAD PUSH1 0xFF NOT AND PUSH1 0xFF SWAP3 SWAP1 SWAP3 AND SWAP2 SWAP1 SWAP2 OR SWAP1 SSTORE PUSH1 0x1 ADD PUSH2 0x1839 JUMP JUMPDEST POP JUMPDEST PUSH2 0x18A9 PUSH1 0xA PUSH1 0x0 PUSH2 0x1AD9 JUMP JUMPDEST PUSH1 0x8 SLOAD PUSH1 0x9 SLOAD PUSH1 0x1 PUSH1 0xA0 SHL SWAP1 SWAP2 DIV PUSH1 0xFF AND GT ISZERO PUSH2 0x1908 JUMPI PUSH1 0x40 MLOAD PUSH3 0x461BCD PUSH1 0xE5 SHL DUP2 MSTORE PUSH1 0x20 PUSH1 0x4 DUP3 ADD MSTORE PUSH1 0x1D PUSH1 0x24 DUP3 ADD MSTORE PUSH32 0x4E6F7420656E6F756768206163746976652076616C696461746F727321000000 PUSH1 0x44 DUP3 ADD MSTORE PUSH1 0x64 ADD PUSH2 0x689 JUMP JUMPDEST PUSH1 0x8 SLOAD PUSH1 0x0 SWAP1 PUSH1 0x1 PUSH1 0xA0 SHL SWAP1 DIV PUSH1 0xFF AND PUSH8 0xFFFFFFFFFFFFFFFF DUP2 GT ISZERO PUSH2 0x1930 JUMPI PUSH2 0x1930 PUSH2 0x1BFE JUMP JUMPDEST PUSH1 0x40 MLOAD SWAP1 DUP1 DUP3 MSTORE DUP1 PUSH1 0x20 MUL PUSH1 0x20 ADD DUP3 ADD PUSH1 0x40 MSTORE DUP1 ISZERO PUSH2 0x1959 JUMPI DUP2 PUSH1 0x20 ADD PUSH1 0x20 DUP3 MUL DUP1 CALLDATASIZE DUP4 CALLDATACOPY ADD SWAP1 POP JUMPDEST POP SWAP1 POP PUSH1 0x0 DUP1 JUMPDEST PUSH1 0x8 SLOAD PUSH1 0x1 PUSH1 0xA0 SHL SWAP1 DIV PUSH1 0xFF AND DUP3 LT ISZERO PUSH2 0x1AD4 JUMPI PUSH1 0x9 SLOAD PUSH1 0x40 DUP1 MLOAD TIMESTAMP PUSH1 0x20 DUP3 ADD MSTORE CALLER SWAP2 DUP2 ADD SWAP2 SWAP1 SWAP2 MSTORE PUSH1 0x60 DUP2 ADD DUP5 SWAP1 MSTORE PUSH1 0x80 DUP2 ADD DUP4 SWAP1 MSTORE PUSH1 0x0 SWAP2 SWAP1 PUSH1 0xA0 ADD PUSH1 0x40 MLOAD PUSH1 0x20 DUP2 DUP4 SUB SUB DUP2 MSTORE SWAP1 PUSH1 0x40 MSTORE DUP1 MLOAD SWAP1 PUSH1 0x20 ADD KECCAK256 PUSH1 0x0 SHR PUSH2 0x19C1 SWAP2 SWAP1 PUSH2 0x1F0C JUMP JUMPDEST SWAP1 POP PUSH1 0x0 PUSH1 0x9 DUP3 DUP2 SLOAD DUP2 LT PUSH2 0x19D8 JUMPI PUSH2 0x19D8 PUSH2 0x1F20 JUMP JUMPDEST PUSH1 0x0 SWAP2 DUP3 MSTORE PUSH1 0x20 DUP3 KECCAK256 ADD SLOAD PUSH1 0x1 PUSH1 0x1 PUSH1 0xA0 SHL SUB AND SWAP2 POP DUP1 JUMPDEST DUP6 DUP2 LT ISZERO PUSH2 0x1A3B JUMPI DUP3 PUSH1 0x1 PUSH1 0x1 PUSH1 0xA0 SHL SUB AND DUP8 DUP3 DUP2 MLOAD DUP2 LT PUSH2 0x1A14 JUMPI PUSH2 0x1A14 PUSH2 0x1F20 JUMP JUMPDEST PUSH1 0x20 MUL PUSH1 0x20 ADD ADD MLOAD PUSH1 0x1 PUSH1 0x1 PUSH1 0xA0 SHL SUB AND SUB PUSH2 0x1A33 JUMPI PUSH1 0x1 SWAP2 POP PUSH2 0x1A3B JUMP JUMPDEST PUSH1 0x1 ADD PUSH2 0x19F0 JUMP JUMPDEST POP DUP1 PUSH2 0x1ABF JUMPI DUP2 DUP7 DUP7 DUP2 MLOAD DUP2 LT PUSH2 0x1A54 JUMPI PUSH2 0x1A54 PUSH2 0x1F20 JUMP JUMPDEST PUSH1 0x1 PUSH1 0x1 PUSH1 0xA0 SHL SUB SWAP3 DUP4 AND PUSH1 0x20 SWAP2 DUP3 MUL SWAP3 SWAP1 SWAP3 ADD ADD MSTORE PUSH1 0xA DUP1 SLOAD PUSH1 0x1 DUP2 ADD DUP3 SSTORE PUSH1 0x0 SWAP2 SWAP1 SWAP2 MSTORE PUSH32 0xC65A7BB8D6351C1CF70C95A316CC6A92839C986682D98BC35F958F4883F9D2A8 ADD DUP1 SLOAD PUSH1 0x1 PUSH1 0x1 PUSH1 0xA0 SHL SUB NOT AND SWAP2 DUP5 AND SWAP2 SWAP1 SWAP2 OR SWAP1 SSTORE DUP5 PUSH2 0x1ABB DUP2 PUSH2 0x1EDD JUMP JUMPDEST SWAP6 POP POP JUMPDEST DUP4 PUSH2 0x1AC9 DUP2 PUSH2 0x1EDD JUMP JUMPDEST SWAP5 POP POP POP POP POP PUSH2 0x1960 JUMP JUMPDEST POP POP POP JUMP JUMPDEST POP DUP1 SLOAD PUSH1 0x0 DUP3 SSTORE SWAP1 PUSH1 0x0 MSTORE PUSH1 0x20 PUSH1 0x0 KECCAK256 SWAP1 DUP2 ADD SWAP1 PUSH2 0x8EC SWAP2 SWAP1 JUMPDEST DUP1 DUP3 GT ISZERO PUSH2 0x1B07 JUMPI PUSH1 0x0 DUP2 SSTORE PUSH1 0x1 ADD PUSH2 0x1AF3 JUMP JUMPDEST POP SWAP1 JUMP JUMPDEST DUP1 CALLDATALOAD PUSH1 0x1 PUSH1 0x1 PUSH1 0xA0 SHL SUB DUP2 AND DUP2 EQ PUSH2 0x1B22 JUMPI PUSH1 0x0 DUP1 REVERT JUMPDEST SWAP2 SWAP1 POP JUMP JUMPDEST PUSH1 0x0 PUSH1 0x20 DUP3 DUP5 SUB SLT ISZERO PUSH2 0x1B39 JUMPI PUSH1 0x0 DUP1 REVERT JUMPDEST PUSH2 0x1B42 DUP3 PUSH2 0x1B0B JUMP JUMPDEST SWAP4 SWAP3 POP POP POP JUMP JUMPDEST PUSH1 0x0 DUP2 MLOAD DUP1 DUP5 MSTORE PUSH1 0x20 DUP1 DUP6 ADD SWAP5 POP PUSH1 0x20 DUP5 ADD PUSH1 0x0 JUMPDEST DUP4 DUP2 LT ISZERO PUSH2 0x1B83 JUMPI DUP2 MLOAD PUSH1 0x1 PUSH1 0x1 PUSH1 0xA0 SHL SUB AND DUP8 MSTORE SWAP6 DUP3 ADD SWAP6 SWAP1 DUP3 ADD SWAP1 PUSH1 0x1 ADD PUSH2 0x1B5E JUMP JUMPDEST POP SWAP5 SWAP6 SWAP5 POP POP POP POP POP JUMP JUMPDEST DUP3 DUP2 MSTORE PUSH1 0x40 PUSH1 0x20 DUP3 ADD MSTORE PUSH1 0x0 PUSH2 0x1BA7 PUSH1 0x40 DUP4 ADD DUP5 PUSH2 0x1B49 JUMP JUMPDEST SWAP5 SWAP4 POP POP POP POP JUMP JUMPDEST PUSH1 0x0 PUSH1 0x20 DUP3 DUP5 SUB SLT ISZERO PUSH2 0x1BC1 JUMPI PUSH1 0x0 DUP1 REVERT JUMPDEST POP CALLDATALOAD SWAP2 SWAP1 POP JUMP JUMPDEST PUSH1 0x0 PUSH1 0x20 DUP3 DUP5 SUB SLT ISZERO PUSH2 0x1BDA JUMPI PUSH1 0x0 DUP1 REVERT JUMPDEST DUP2 CALLDATALOAD PUSH1 0xFF DUP2 AND DUP2 EQ PUSH2 0x1B42 JUMPI PUSH1 0x0 DUP1 REVERT JUMPDEST PUSH1 0x20 DUP2 MSTORE PUSH1 0x0 PUSH2 0x1B42 PUSH1 0x20 DUP4 ADD DUP5 PUSH2 0x1B49 JUMP JUMPDEST PUSH4 0x4E487B71 PUSH1 0xE0 SHL PUSH1 0x0 MSTORE PUSH1 0x41 PUSH1 0x4 MSTORE PUSH1 0x24 PUSH1 0x0 REVERT JUMPDEST PUSH1 0x40 MLOAD PUSH1 0x1F DUP3 ADD PUSH1 0x1F NOT AND DUP2 ADD PUSH8 0xFFFFFFFFFFFFFFFF DUP2 GT DUP3 DUP3 LT OR ISZERO PUSH2 0x1C3D JUMPI PUSH2 0x1C3D PUSH2 0x1BFE JUMP JUMPDEST PUSH1 0x40 MSTORE SWAP2 SWAP1 POP JUMP JUMPDEST PUSH1 0x0 PUSH8 0xFFFFFFFFFFFFFFFF DUP3 GT ISZERO PUSH2 0x1C5F JUMPI PUSH2 0x1C5F PUSH2 0x1BFE JUMP JUMPDEST POP PUSH1 0x5 SHL PUSH1 0x20 ADD SWAP1 JUMP JUMPDEST PUSH1 0x0 DUP3 PUSH1 0x1F DUP4 ADD SLT PUSH2 0x1C7A JUMPI PUSH1 0x0 DUP1 REVERT JUMPDEST DUP2 CALLDATALOAD PUSH1 0x20 PUSH2 0x1C8F PUSH2 0x1C8A DUP4 PUSH2 0x1C45 JUMP JUMPDEST PUSH2 0x1C14 JUMP JUMPDEST DUP1 DUP4 DUP3 MSTORE PUSH1 0x20 DUP3 ADD SWAP2 POP PUSH1 0x20 DUP5 PUSH1 0x5 SHL DUP8 ADD ADD SWAP4 POP DUP7 DUP5 GT ISZERO PUSH2 0x1CB1 JUMPI PUSH1 0x0 DUP1 REVERT JUMPDEST PUSH1 0x20 DUP7 ADD JUMPDEST DUP5 DUP2 LT ISZERO PUSH2 0x1CD4 JUMPI PUSH2 0x1CC7 DUP2 PUSH2 0x1B0B JUMP JUMPDEST DUP4 MSTORE SWAP2 DUP4 ADD SWAP2 DUP4 ADD PUSH2 0x1CB6 JUMP JUMPDEST POP SWAP7 SWAP6 POP POP POP POP POP POP JUMP JUMPDEST PUSH1 0x0 DUP3 PUSH1 0x1F DUP4 ADD SLT PUSH2 0x1CF0 JUMPI PUSH1 0x0 DUP1 REVERT JUMPDEST DUP2 CALLDATALOAD PUSH1 0x20 PUSH2 0x1D00 PUSH2 0x1C8A DUP4 PUSH2 0x1C45 JUMP JUMPDEST DUP1 DUP4 DUP3 MSTORE PUSH1 0x20 DUP3 ADD SWAP2 POP PUSH1 0x20 DUP5 PUSH1 0x5 SHL DUP8 ADD ADD SWAP4 POP DUP7 DUP5 GT ISZERO PUSH2 0x1D22 JUMPI PUSH1 0x0 DUP1 REVERT JUMPDEST PUSH1 0x20 DUP7 ADD JUMPDEST DUP5 DUP2 LT ISZERO PUSH2 0x1CD4 JUMPI DUP1 CALLDATALOAD DUP4 MSTORE SWAP2 DUP4 ADD SWAP2 DUP4 ADD PUSH2 0x1D27 JUMP JUMPDEST PUSH1 0x0 DUP1 PUSH1 0x0 DUP1 PUSH1 0x0 PUSH1 0xA0 DUP7 DUP9 SUB SLT ISZERO PUSH2 0x1D56 JUMPI PUSH1 0x0 DUP1 REVERT JUMPDEST DUP6 CALLDATALOAD PUSH8 0xFFFFFFFFFFFFFFFF DUP1 DUP3 GT ISZERO PUSH2 0x1D6E JUMPI PUSH1 0x0 DUP1 REVERT JUMPDEST PUSH2 0x1D7A DUP10 DUP4 DUP11 ADD PUSH2 0x1C69 JUMP JUMPDEST SWAP7 POP PUSH1 0x20 SWAP2 POP DUP2 DUP9 ADD CALLDATALOAD DUP2 DUP2 GT ISZERO PUSH2 0x1D91 JUMPI PUSH1 0x0 DUP1 REVERT JUMPDEST DUP9 ADD PUSH1 0x1F DUP2 ADD DUP11 SGT PUSH2 0x1DA2 JUMPI PUSH1 0x0 DUP1 REVERT JUMPDEST DUP1 CALLDATALOAD PUSH2 0x1DB0 PUSH2 0x1C8A DUP3 PUSH2 0x1C45 JUMP JUMPDEST DUP2 DUP2 MSTORE PUSH1 0x5 SWAP2 SWAP1 SWAP2 SHL DUP3 ADD DUP5 ADD SWAP1 DUP5 DUP2 ADD SWAP1 DUP13 DUP4 GT ISZERO PUSH2 0x1DCF JUMPI PUSH1 0x0 DUP1 REVERT JUMPDEST SWAP3 DUP6 ADD SWAP3 JUMPDEST DUP3 DUP5 LT ISZERO PUSH2 0x1DED JUMPI DUP4 CALLDATALOAD DUP3 MSTORE SWAP3 DUP6 ADD SWAP3 SWAP1 DUP6 ADD SWAP1 PUSH2 0x1DD4 JUMP JUMPDEST SWAP9 POP POP POP POP PUSH1 0x40 DUP9 ADD CALLDATALOAD SWAP2 POP DUP1 DUP3 GT ISZERO PUSH2 0x1E06 JUMPI PUSH1 0x0 DUP1 REVERT JUMPDEST PUSH2 0x1E12 DUP10 DUP4 DUP11 ADD PUSH2 0x1CDF JUMP JUMPDEST SWAP5 POP PUSH1 0x60 DUP9 ADD CALLDATALOAD SWAP2 POP DUP1 DUP3 GT ISZERO PUSH2 0x1E28 JUMPI PUSH1 0x0 DUP1 REVERT JUMPDEST POP PUSH2 0x1E35 DUP9 DUP3 DUP10 ADD PUSH2 0x1C69 JUMP JUMPDEST SWAP6 SWAP9 SWAP5 SWAP8 POP SWAP3 SWAP6 PUSH1 0x80 ADD CALLDATALOAD SWAP4 SWAP3 POP POP POP JUMP JUMPDEST PUSH4 0x4E487B71 PUSH1 0xE0 SHL PUSH1 0x0 MSTORE PUSH1 0x11 PUSH1 0x4 MSTORE PUSH1 0x24 PUSH1 0x0 REVERT JUMPDEST DUP2 DUP2 SUB DUP2 DUP2 GT ISZERO PUSH2 0x1E70 JUMPI PUSH2 0x1E70 PUSH2 0x1E47 JUMP JUMPDEST SWAP3 SWAP2 POP POP JUMP JUMPDEST PUSH1 0x20 DUP1 DUP3 MSTORE PUSH1 0x25 SWAP1 DUP3 ADD MSTORE PUSH32 0x43616C6C6572206973206E6F74206120536D6172746E6F6465732056616C6964 PUSH1 0x40 DUP3 ADD MSTORE PUSH5 0x61746F7221 PUSH1 0xD8 SHL PUSH1 0x60 DUP3 ADD MSTORE PUSH1 0x80 ADD SWAP1 JUMP JUMPDEST PUSH1 0x0 PUSH1 0x20 DUP3 DUP5 SUB SLT ISZERO PUSH2 0x1ECD JUMPI PUSH1 0x0 DUP1 REVERT JUMPDEST DUP2 MLOAD DUP1 ISZERO ISZERO DUP2 EQ PUSH2 0x1B42 JUMPI PUSH1 0x0 DUP1 REVERT JUMPDEST PUSH1 0x0 PUSH1 0x1 DUP3 ADD PUSH2 0x1EEF JUMPI PUSH2 0x1EEF PUSH2 0x1E47 JUMP JUMPDEST POP PUSH1 0x1 ADD SWAP1 JUMP JUMPDEST PUSH4 0x4E487B71 PUSH1 0xE0 SHL PUSH1 0x0 MSTORE PUSH1 0x12 PUSH1 0x4 MSTORE PUSH1 0x24 PUSH1 0x0 REVERT JUMPDEST PUSH1 0x0 DUP3 PUSH2 0x1F1B JUMPI PUSH2 0x1F1B PUSH2 0x1EF6 JUMP JUMPDEST POP MOD SWAP1 JUMP JUMPDEST PUSH4 0x4E487B71 PUSH1 0xE0 SHL PUSH1 0x0 MSTORE PUSH1 0x32 PUSH1 0x4 MSTORE PUSH1 0x24 PUSH1 0x0 REVERT JUMPDEST PUSH1 0x0 DUP2 MLOAD DUP1 DUP5 MSTORE PUSH1 0x20 DUP1 DUP6 ADD SWAP5 POP PUSH1 0x20 DUP5 ADD PUSH1 0x0 JUMPDEST DUP4 DUP2 LT ISZERO PUSH2 0x1B83 JUMPI DUP2 MLOAD DUP8 MSTORE SWAP6 DUP3 ADD SWAP6 SWAP1 DUP3 ADD SWAP1 PUSH1 0x1 ADD PUSH2 0x1F4B JUMP JUMPDEST PUSH1 0xA0 DUP2 MSTORE PUSH1 0x0 PUSH2 0x1F7A PUSH1 0xA0 DUP4 ADD DUP9 PUSH2 0x1B49 JUMP JUMPDEST DUP3 DUP2 SUB PUSH1 0x20 DUP5 DUP2 ADD SWAP2 SWAP1 SWAP2 MSTORE DUP8 MLOAD DUP1 DUP4 MSTORE DUP9 DUP3 ADD SWAP3 DUP3 ADD SWAP1 PUSH1 0x0 JUMPDEST DUP2 DUP2 LT ISZERO PUSH2 0x1FB1 JUMPI DUP5 MLOAD DUP4 MSTORE SWAP4 DUP4 ADD SWAP4 SWAP2 DUP4 ADD SWAP2 PUSH1 0x1 ADD PUSH2 0x1F95 JUMP JUMPDEST POP POP DUP5 DUP2 SUB PUSH1 0x40 DUP7 ADD MSTORE PUSH2 0x1FC5 DUP2 DUP10 PUSH2 0x1F36 JUMP JUMPDEST SWAP3 POP POP POP DUP3 DUP2 SUB PUSH1 0x60 DUP5 ADD MSTORE PUSH2 0x1FDB DUP2 DUP7 PUSH2 0x1B49 JUMP JUMPDEST SWAP2 POP POP DUP3 PUSH1 0x80 DUP4 ADD MSTORE SWAP7 SWAP6 POP POP POP POP POP POP JUMP JUMPDEST PUSH1 0x0 DUP3 PUSH2 0x1FFD JUMPI PUSH2 0x1FFD PUSH2 0x1EF6 JUMP JUMPDEST POP DIV SWAP1 JUMP JUMPDEST PUSH1 0xFF DUP3 DUP2 AND DUP3 DUP3 AND SUB SWAP1 DUP2 GT ISZERO PUSH2 0x1E70 JUMPI PUSH2 0x1E70 PUSH2 0x1E47 JUMP JUMPDEST PUSH1 0x0 PUSH1 0x20 DUP3 DUP5 SUB SLT ISZERO PUSH2 0x202D JUMPI PUSH1 0x0 DUP1 REVERT JUMPDEST POP MLOAD SWAP2 SWAP1 POP JUMP JUMPDEST DUP1 DUP3 ADD DUP1 DUP3 GT ISZERO PUSH2 0x1E70 JUMPI PUSH2 0x1E70 PUSH2 0x1E47 JUMP JUMPDEST PUSH1 0xA0 DUP2 MSTORE PUSH1 0x0 PUSH2 0x205A PUSH1 0xA0 DUP4 ADD DUP9 PUSH2 0x1B49 JUMP JUMPDEST DUP3 DUP2 SUB PUSH1 0x20 DUP5 ADD MSTORE PUSH2 0x206C DUP2 DUP9 PUSH2 0x1F36 JUMP JUMPDEST SWAP1 POP DUP6 PUSH1 0x40 DUP5 ADD MSTORE DUP3 DUP2 SUB PUSH1 0x60 DUP5 ADD MSTORE PUSH2 0x1FDB DUP2 DUP7 PUSH2 0x1B49 JUMP JUMPDEST PUSH4 0x4E487B71 PUSH1 0xE0 SHL PUSH1 0x0 MSTORE PUSH1 0x31 PUSH1 0x4 MSTORE PUSH1 0x24 PUSH1 0x0 REVERT JUMPDEST DUP1 DUP3 MUL DUP2 ISZERO DUP3 DUP3 DIV DUP5 EQ OR PUSH2 0x1E70 JUMPI PUSH2 0x1E70 PUSH2 0x1E47 JUMP INVALID LOG2 PUSH5 0x6970667358 0x22 SLT KECCAK256 PUSH32 0xCB2581C06FA55F13D1DDE83A88787482305D9DD4FB9EF1B6530507CCA07DF964 PUSH20 0x6F6C634300081900330000000000000000000000 ",
  "sha1": "1fdebc0ae263c6c08bb6cb87703e9703d99b8e5f",
  "source": "// SPDX-License-Identifier: MIT\npragma solidity ^0.8.5;\n\nimport \"@openzeppelin-upgradeable/contracts/proxy/utils/Initializable.sol\";\nimport \"@openzeppelin-upgradeable/contracts/interfaces/IERC20Upgradeable.sol\";\nimport \"./interfaces/ISmartnodesCore.sol\";\n\n/** \n    * @title SmartnodesMultiSig\n    * @dev A multi-signature contract composed of Smartnodes validators responsible for\n     managing the Core contract\n*/\ncontract SmartnodesMultiSig is Initializable {\n    // State update constraints\n    uint256 public updateTime = 3600; // 60 minutes minimum required between state updates\n    uint256 public requiredApprovalsPercentage;\n    uint256 public requiredApprovals;\n    uint256 public maxStateUpdates; // Maximum number of function calls per proposal\n    uint256 public lastProposalTime; // time of last proposal\n    uint256 public nextProposalId;\n\n    // Metadata and bytecode for SmartNodes calls\n    ISmartnodesCore private _smartnodesContractInstance;\n    address public smartnodesContractAddress;\n\n    // Counters for storage indexing / IDs\n    uint8 public nValidators;\n    address[] public validators;\n    address[] public currentRoundValidators;\n    bytes32[] public currentProposals;\n\n    mapping(address => bool) public isValidator; // For quick validator checks\n    mapping(address => uint8) public hasSubmittedProposal;\n    mapping(address => uint8) public hasVoted;\n    mapping(uint8 => uint256) public proposalVotes;\n\n    event ProposalCreated(bytes32 proposalHash, uint8 proposalNum);\n    event ProposalReady(uint256 proposalId, uint8 proposalNum);\n    event ProposalExecuted(uint256 proposalId, bytes32 proposalHash);\n    event Deposit(address indexed sender, uint amount);\n    event ValidatorAdded(address validator);\n    event ValidatorRemoved(address validator);\n\n    modifier onlyValidator() {\n        require(\n            isValidator[msg.sender],\n            \"Caller is not a Smartnodes Validator!\"\n        );\n        _;\n    }\n\n    modifier onlySmartnodesCore() {\n        require(\n            msg.sender == smartnodesContractAddress,\n            \"Caller must be the SmartnodesMultiSig.\"\n        );\n        _;\n    }\n\n    modifier onlySelectedValidator() {\n        require(\n            _isCurrentRoundValidator(msg.sender) ||\n                currentRoundValidators.length == 0,\n            \"Caller is not a selected validator for this round!\"\n        );\n        require(\n            hasSubmittedProposal[msg.sender] == 0,\n            \"Validator has already submitted a proposal this round!\"\n        );\n        _;\n    }\n\n    function initialize(\n        address target // Address of the main contract (Smart Nodes)\n    )\n        public\n        // address _vrfCoordinator,\n        // uint64 _subscriptionId\n        initializer\n    {\n        smartnodesContractAddress = target;\n\n        maxStateUpdates = 30;\n        updateTime = 0;\n\n        _smartnodesContractInstance = ISmartnodesCore(target);\n\n        lastProposalTime = 0; // time of last proposal\n        requiredApprovalsPercentage = 66;\n        nValidators = 1;\n        nextProposalId = 0;\n    }\n\n    receive() external payable {\n        emit Deposit(msg.sender, msg.value);\n    }\n\n    /**\n     * @notice Creates a new proposal, to update all the essential data structures given some aggregated off-chain state.\n     */\n    function createProposal(\n        bytes32 proposalHash\n    ) external onlySelectedValidator {\n        require(\n            block.timestamp - lastProposalTime >= updateTime,\n            \"Proposals must be submitted 0-10 mins after since last executed proposal!\"\n        );\n\n        currentProposals.push(proposalHash);\n        uint8 proposalNum = uint8(currentProposals.length);\n        hasSubmittedProposal[msg.sender] = proposalNum;\n\n        emit ProposalCreated(proposalHash, proposalNum);\n    }\n\n    /**\n     * @notice Casts a vote for a proposal and executes once required approvals are met. Add Validator to storage\n      if it has just registered and is not stored on MultiSig. \n     * @param proposalNum The ID of the current round proposal\n     */\n    function approveTransaction(uint8 proposalNum) external onlyValidator {\n        require(hasVoted[msg.sender] == 0, \"Validator has already voted!\");\n        require(\n            currentProposals.length >= proposalNum && proposalNum > 0,\n            \"Invalid proposal number!\"\n        );\n\n        if (isValidator[msg.sender] == false) {\n            addValidator(msg.sender);\n        }\n\n        hasVoted[msg.sender] = proposalNum;\n        proposalVotes[proposalNum]++;\n\n        if (proposalVotes[proposalNum] >= requiredApprovals) {\n            emit ProposalReady(nextProposalId, proposalNum);\n        }\n    }\n\n    /**\n     * @notice Executes a proposal if it has enough approvals. Only to be called by approveTransaction\n     */\n    function executeProposal(\n        address[] memory validatorsToRemove,\n        bytes32[] memory jobHashes,\n        uint256[] memory jobCapacities,\n        address[] memory workers,\n        uint256 totalCapacity\n    ) external onlyValidator {\n        uint8 proposalNum = hasSubmittedProposal[msg.sender];\n        require(proposalNum > 0, \"Must be a proposal creator!\");\n        require(\n            proposalVotes[proposalNum] >= requiredApprovals,\n            \"Not enough proposal votes!\"\n        );\n\n        bytes32 providedHash = currentProposals[proposalNum - 1];\n        bytes32 proposalHash = hashProposalData(\n            validatorsToRemove,\n            jobHashes,\n            jobCapacities,\n            workers,\n            totalCapacity\n        );\n        require(\n            proposalHash == providedHash,\n            \"Proposal data doesn't match initial hash!\"\n        );\n\n        if (validatorsToRemove.length > 0) {\n            for (uint i = 0; i < validatorsToRemove.length; i++) {\n                _removeValidator(validatorsToRemove[i]);\n            }\n        }\n\n        uint256 additionalReward = 0;\n\n        if (jobHashes.length > 0) {\n            for (uint i = 0; i < jobHashes.length; i++) {\n                uint256 reward = _smartnodesContractInstance.completeJob(\n                    jobHashes[i]\n                );\n                additionalReward += reward;\n            }\n        }\n\n        address[] memory _approvedValidators = new address[](\n            proposalVotes[proposalNum]\n        );\n\n        for (uint i = 0; i < validators.length; i++) {\n            address validator = validators[i];\n\n            if (hasVoted[validator] == proposalNum) {\n                _approvedValidators[i] = validator;\n            }\n        }\n\n        // Call mint function to generate rewards for workers and validators\n        _smartnodesContractInstance.mintTokens(\n            workers,\n            jobCapacities,\n            totalCapacity,\n            _approvedValidators,\n            additionalReward\n        );\n\n        emit ProposalExecuted(nextProposalId, proposalHash);\n        _updateRound();\n    }\n\n    function hashProposalData(\n        address[] memory validatorsToRemove,\n        bytes32[] memory jobHashes,\n        uint256[] memory jobCapacities,\n        address[] memory workers,\n        uint256 totalCapacity\n    ) public pure returns (bytes32) {\n        require(\n            workers.length == jobCapacities.length,\n            \"Workers and capacities length mismatch\"\n        );\n\n        return\n            keccak256(\n                abi.encode(\n                    validatorsToRemove,\n                    jobHashes,\n                    jobCapacities,\n                    workers,\n                    totalCapacity\n                )\n            );\n    }\n\n    /**\n     * @notice Adds a new validator to the contract, must be staked on SmartnodesCore.\n     * @param validator The address of the new validator\n     */\n    function addValidator(address validator) public {\n        require(\n            _smartnodesContractInstance.isLocked(validator),\n            \"Validator must be registered and locked on SmartnodesCore!\"\n        );\n        require(\n            !isValidator[validator],\n            \"Validator already registered on Multsig!\"\n        );\n\n        validators.push(validator);\n        isValidator[validator] = true;\n        _updateApprovalRequirements();\n\n        emit ValidatorAdded(validator);\n    }\n\n    function removeValidator(address validator) external onlyValidator {\n        require(msg.sender == validator, \"Cannot remove another validator!\");\n        _removeValidator(validator);\n    }\n\n    /**\n     * @dev Update the number of required approvals (66% of the active validators)\n     */\n    function _updateApprovalRequirements() internal {\n        requiredApprovals =\n            (validators.length * requiredApprovalsPercentage) /\n            100;\n\n        if (requiredApprovals < 1) {\n            requiredApprovals = 1; // Ensure at least 1 approval is required\n        }\n    }\n\n    function _removeValidator(address validator) private {\n        require(isValidator[validator], \"Validator not registered!\");\n        isValidator[validator] = false;\n\n        for (uint i = 0; i < validators.length; i++) {\n            if (validators[i] == validator) {\n                validators[i] = validators[validators.length - 1];\n                validators.pop();\n                break;\n            }\n        }\n\n        _updateApprovalRequirements();\n        emit ValidatorRemoved(validator);\n    }\n\n    function _isCurrentRoundValidator(\n        address _validator\n    ) internal view returns (bool) {\n        for (uint i = 0; i < currentRoundValidators.length; i++) {\n            if (currentRoundValidators[i] == _validator) {\n                return true;\n            }\n        }\n        return false;\n    }\n\n    function _updateRound() internal {\n        _resetCurrentValidators();\n\n        while (currentProposals.length > 0) {\n            proposalVotes[uint8(currentProposals.length)] = 0;\n            currentProposals.pop();\n        }\n\n        lastProposalTime = block.timestamp;\n        nextProposalId++;\n    }\n\n    function _resetCurrentValidators() internal {\n        // Clear submission status and other parameters\n        for (uint256 i = 0; i < currentRoundValidators.length; i++) {\n            hasSubmittedProposal[currentRoundValidators[i]] = 0;\n        }\n\n        for (uint256 i = 0; i < validators.length; i++) {\n            hasVoted[validators[i]] = 0;\n        }\n\n        // If it's the genesis proposal and no round validators exist\n        if (currentRoundValidators.length == 0) {\n            for (uint256 i = 0; i < validators.length; i++) {\n                hasSubmittedProposal[validators[i]] = 0;\n            }\n        }\n\n        delete currentRoundValidators;\n\n        require(\n            validators.length >= nValidators,\n            \"Not enough active validators!\"\n        );\n\n        // Create a temporary array to store selected validators\n        address[] memory selectedValidators = new address[](nValidators);\n        uint256 selectedCount = 0;\n        uint nonce = 0;\n\n        while (selectedCount < nValidators) {\n            uint256 randId = uint256(\n                keccak256(\n                    abi.encode(\n                        block.timestamp,\n                        msg.sender,\n                        selectedCount,\n                        nonce\n                    )\n                )\n            ) % validators.length;\n\n            address selectedValidator = validators[randId];\n\n            // Check if the validator is already selected\n            bool alreadySelected = false;\n            for (uint256 j = 0; j < selectedCount; j++) {\n                if (selectedValidators[j] == selectedValidator) {\n                    alreadySelected = true;\n                    break;\n                }\n            }\n\n            // If not selected, add to the current round and increment counter\n            if (!alreadySelected) {\n                selectedValidators[selectedCount] = selectedValidator;\n                currentRoundValidators.push(selectedValidator);\n                selectedCount++;\n            }\n\n            nonce++;\n        }\n    }\n\n    function generateValidators(\n        uint256 numValidators\n    ) external view returns (address[] memory) {\n        require(\n            validators.length >= numValidators,\n            \"Not enough active validators!\"\n        );\n\n        address[] memory selectedValidators = new address[](numValidators);\n        uint256 selectedCount = 0;\n\n        for (uint256 i = 0; i < numValidators; i++) {\n            uint256 randId = uint256(\n                keccak256(abi.encode(block.timestamp, msg.sender, i))\n            ) % validators.length;\n\n            selectedValidators[i] = validators[randId];\n            selectedCount++;\n        }\n\n        return selectedValidators;\n    }\n\n    function halvePeriod() external onlySmartnodesCore {\n        updateTime /= 2;\n    }\n\n    function getNumValidators() external view returns (uint256) {\n        return validators.length;\n    }\n\n    function isActiveValidator(\n        address _validatorAddress\n    ) external view returns (bool) {\n        return isValidator[_validatorAddress];\n    }\n\n    // function getCurrentProposal(\n    //     uint8 proposalNum\n    // ) external view returns (RemoveValidator[] memory, CompleteJob[] memory) {\n    //     require(proposalNum < currentProposals.length, \"Proposal not found!\");\n    //     return (\n    //         currentProposals[proposalNum].validatorRemovals,\n    //         currentProposals[proposalNum].jobCompletions\n    //     );\n    // }\n\n    // Get basic info on the current state of the validator multisig\n    function getState() external view returns (uint256, address[] memory) {\n        return (nextProposalId, currentRoundValidators);\n    }\n}\n",
  "sourcePath": "contracts/SmartnodesMultiSig.sol",
  "type": "contract"
}