{
  "abi": [
    {
      "anonymous": false,
      "inputs": [
        {
          "indexed": true,
          "internalType": "address",
          "name": "owner",
          "type": "address"
        },
        {
          "indexed": true,
          "internalType": "address",
          "name": "spender",
          "type": "address"
        },
        {
          "indexed": false,
          "internalType": "uint256",
          "name": "value",
          "type": "uint256"
        }
      ],
      "name": "Approval",
      "type": "event"
    },
    {
      "anonymous": false,
      "inputs": [
        {
          "indexed": true,
          "internalType": "uint256",
          "name": "jobId",
          "type": "uint256"
        }
      ],
      "name": "JobCompleted",
      "type": "event"
    },
    {
      "anonymous": false,
      "inputs": [
        {
          "indexed": true,
          "internalType": "address",
          "name": "validator",
          "type": "address"
        },
        {
          "indexed": false,
          "internalType": "uint256",
          "name": "amount",
          "type": "uint256"
        }
      ],
      "name": "TokensLocked",
      "type": "event"
    },
    {
      "anonymous": false,
      "inputs": [
        {
          "indexed": true,
          "internalType": "address",
          "name": "validator",
          "type": "address"
        },
        {
          "indexed": false,
          "internalType": "uint256",
          "name": "amount",
          "type": "uint256"
        }
      ],
      "name": "TokensUnlocked",
      "type": "event"
    },
    {
      "anonymous": false,
      "inputs": [
        {
          "indexed": true,
          "internalType": "address",
          "name": "from",
          "type": "address"
        },
        {
          "indexed": true,
          "internalType": "address",
          "name": "to",
          "type": "address"
        },
        {
          "indexed": false,
          "internalType": "uint256",
          "name": "value",
          "type": "uint256"
        }
      ],
      "name": "Transfer",
      "type": "event"
    },
    {
      "anonymous": false,
      "inputs": [
        {
          "indexed": true,
          "internalType": "address",
          "name": "validator",
          "type": "address"
        },
        {
          "indexed": false,
          "internalType": "uint256",
          "name": "unlockTime",
          "type": "uint256"
        }
      ],
      "name": "UnlockInitiated",
      "type": "event"
    },
    {
      "anonymous": false,
      "inputs": [
        {
          "indexed": true,
          "internalType": "uint256",
          "name": "validatorId",
          "type": "uint256"
        }
      ],
      "name": "ValidatorActivated",
      "type": "event"
    },
    {
      "anonymous": false,
      "inputs": [
        {
          "indexed": true,
          "internalType": "uint256",
          "name": "id",
          "type": "uint256"
        },
        {
          "indexed": false,
          "internalType": "address",
          "name": "validatorAddress",
          "type": "address"
        }
      ],
      "name": "ValidatorCreated",
      "type": "event"
    },
    {
      "anonymous": false,
      "inputs": [
        {
          "indexed": true,
          "internalType": "uint256",
          "name": "validatorId",
          "type": "uint256"
        }
      ],
      "name": "ValidatorDeactivated",
      "type": "event"
    },
    {
      "inputs": [
        {
          "internalType": "address",
          "name": "owner",
          "type": "address"
        },
        {
          "internalType": "address",
          "name": "spender",
          "type": "address"
        }
      ],
      "name": "allowance",
      "outputs": [
        {
          "internalType": "uint256",
          "name": "",
          "type": "uint256"
        }
      ],
      "stateMutability": "view",
      "type": "function"
    },
    {
      "inputs": [
        {
          "internalType": "address",
          "name": "spender",
          "type": "address"
        },
        {
          "internalType": "uint256",
          "name": "amount",
          "type": "uint256"
        }
      ],
      "name": "approve",
      "outputs": [
        {
          "internalType": "bool",
          "name": "",
          "type": "bool"
        }
      ],
      "stateMutability": "nonpayable",
      "type": "function"
    },
    {
      "inputs": [
        {
          "internalType": "uint256",
          "name": "jobId",
          "type": "uint256"
        }
      ],
      "name": "approveJobCreation",
      "outputs": [],
      "stateMutability": "nonpayable",
      "type": "function"
    },
    {
      "inputs": [
        {
          "internalType": "address",
          "name": "account",
          "type": "address"
        }
      ],
      "name": "balanceOf",
      "outputs": [
        {
          "internalType": "uint256",
          "name": "",
          "type": "uint256"
        }
      ],
      "stateMutability": "view",
      "type": "function"
    },
    {
      "inputs": [
        {
          "internalType": "uint256",
          "name": "jobId",
          "type": "uint256"
        }
      ],
      "name": "completeJob",
      "outputs": [],
      "stateMutability": "nonpayable",
      "type": "function"
    },
    {
      "inputs": [
        {
          "internalType": "string",
          "name": "publicKeyHash",
          "type": "string"
        }
      ],
      "name": "createUser",
      "outputs": [],
      "stateMutability": "nonpayable",
      "type": "function"
    },
    {
      "inputs": [
        {
          "internalType": "string",
          "name": "publicKeyHash",
          "type": "string"
        }
      ],
      "name": "createValidator",
      "outputs": [],
      "stateMutability": "nonpayable",
      "type": "function"
    },
    {
      "inputs": [],
      "name": "decimals",
      "outputs": [
        {
          "internalType": "uint8",
          "name": "",
          "type": "uint8"
        }
      ],
      "stateMutability": "view",
      "type": "function"
    },
    {
      "inputs": [
        {
          "internalType": "address",
          "name": "spender",
          "type": "address"
        },
        {
          "internalType": "uint256",
          "name": "subtractedValue",
          "type": "uint256"
        }
      ],
      "name": "decreaseAllowance",
      "outputs": [
        {
          "internalType": "bool",
          "name": "",
          "type": "bool"
        }
      ],
      "stateMutability": "nonpayable",
      "type": "function"
    },
    {
      "inputs": [
        {
          "internalType": "uint256",
          "name": "reqId",
          "type": "uint256"
        }
      ],
      "name": "getJobRequestValidators",
      "outputs": [
        {
          "internalType": "address[]",
          "name": "",
          "type": "address[]"
        }
      ],
      "stateMutability": "view",
      "type": "function"
    },
    {
      "inputs": [
        {
          "internalType": "string",
          "name": "publicKeyHash",
          "type": "string"
        }
      ],
      "name": "getUserId",
      "outputs": [
        {
          "internalType": "uint256",
          "name": "",
          "type": "uint256"
        }
      ],
      "stateMutability": "view",
      "type": "function"
    },
    {
      "inputs": [],
      "name": "getUserIdCounter",
      "outputs": [
        {
          "internalType": "uint256",
          "name": "",
          "type": "uint256"
        }
      ],
      "stateMutability": "view",
      "type": "function"
    },
    {
      "inputs": [],
      "name": "getValidatorIdCounter",
      "outputs": [
        {
          "internalType": "uint256",
          "name": "",
          "type": "uint256"
        }
      ],
      "stateMutability": "view",
      "type": "function"
    },
    {
      "inputs": [
        {
          "internalType": "uint256",
          "name": "validatorId",
          "type": "uint256"
        }
      ],
      "name": "getValidatorState",
      "outputs": [
        {
          "internalType": "uint256",
          "name": "",
          "type": "uint256"
        }
      ],
      "stateMutability": "view",
      "type": "function"
    },
    {
      "inputs": [],
      "name": "getjobCounter",
      "outputs": [
        {
          "internalType": "uint256",
          "name": "",
          "type": "uint256"
        }
      ],
      "stateMutability": "view",
      "type": "function"
    },
    {
      "inputs": [
        {
          "internalType": "address",
          "name": "spender",
          "type": "address"
        },
        {
          "internalType": "uint256",
          "name": "addedValue",
          "type": "uint256"
        }
      ],
      "name": "increaseAllowance",
      "outputs": [
        {
          "internalType": "bool",
          "name": "",
          "type": "bool"
        }
      ],
      "stateMutability": "nonpayable",
      "type": "function"
    },
    {
      "inputs": [],
      "name": "initialize",
      "outputs": [],
      "stateMutability": "nonpayable",
      "type": "function"
    },
    {
      "inputs": [],
      "name": "jobCounter",
      "outputs": [
        {
          "internalType": "uint256",
          "name": "",
          "type": "uint256"
        }
      ],
      "stateMutability": "view",
      "type": "function"
    },
    {
      "inputs": [
        {
          "internalType": "uint256",
          "name": "",
          "type": "uint256"
        }
      ],
      "name": "jobRequests",
      "outputs": [
        {
          "internalType": "uint256",
          "name": "id",
          "type": "uint256"
        },
        {
          "internalType": "address",
          "name": "creator",
          "type": "address"
        },
        {
          "internalType": "uint256",
          "name": "capacity",
          "type": "uint256"
        }
      ],
      "stateMutability": "view",
      "type": "function"
    },
    {
      "inputs": [
        {
          "internalType": "uint256",
          "name": "",
          "type": "uint256"
        }
      ],
      "name": "jobs",
      "outputs": [
        {
          "internalType": "uint256",
          "name": "id",
          "type": "uint256"
        },
        {
          "internalType": "address",
          "name": "owner",
          "type": "address"
        },
        {
          "internalType": "uint256",
          "name": "capacity",
          "type": "uint256"
        },
        {
          "internalType": "bool",
          "name": "isCompleted",
          "type": "bool"
        },
        {
          "internalType": "uint8",
          "name": "completeCount",
          "type": "uint8"
        }
      ],
      "stateMutability": "view",
      "type": "function"
    },
    {
      "inputs": [
        {
          "internalType": "uint32",
          "name": "amount",
          "type": "uint32"
        }
      ],
      "name": "lockTokens",
      "outputs": [],
      "stateMutability": "nonpayable",
      "type": "function"
    },
    {
      "inputs": [],
      "name": "maxValidators",
      "outputs": [
        {
          "internalType": "uint8",
          "name": "",
          "type": "uint8"
        }
      ],
      "stateMutability": "view",
      "type": "function"
    },
    {
      "inputs": [],
      "name": "minValidators",
      "outputs": [
        {
          "internalType": "uint8",
          "name": "",
          "type": "uint8"
        }
      ],
      "stateMutability": "view",
      "type": "function"
    },
    {
      "inputs": [],
      "name": "name",
      "outputs": [
        {
          "internalType": "string",
          "name": "",
          "type": "string"
        }
      ],
      "stateMutability": "view",
      "type": "function"
    },
    {
      "inputs": [],
      "name": "random",
      "outputs": [
        {
          "internalType": "uint256",
          "name": "",
          "type": "uint256"
        }
      ],
      "stateMutability": "view",
      "type": "function"
    },
    {
      "inputs": [
        {
          "internalType": "uint8",
          "name": "nValidators",
          "type": "uint8"
        },
        {
          "internalType": "uint256",
          "name": "capacity",
          "type": "uint256"
        }
      ],
      "name": "requestJob",
      "outputs": [
        {
          "internalType": "uint256[]",
          "name": "",
          "type": "uint256[]"
        }
      ],
      "stateMutability": "nonpayable",
      "type": "function"
    },
    {
      "inputs": [],
      "name": "symbol",
      "outputs": [
        {
          "internalType": "string",
          "name": "",
          "type": "string"
        }
      ],
      "stateMutability": "view",
      "type": "function"
    },
    {
      "inputs": [],
      "name": "totalSupply",
      "outputs": [
        {
          "internalType": "uint256",
          "name": "",
          "type": "uint256"
        }
      ],
      "stateMutability": "view",
      "type": "function"
    },
    {
      "inputs": [
        {
          "internalType": "address",
          "name": "to",
          "type": "address"
        },
        {
          "internalType": "uint256",
          "name": "amount",
          "type": "uint256"
        }
      ],
      "name": "transfer",
      "outputs": [
        {
          "internalType": "bool",
          "name": "",
          "type": "bool"
        }
      ],
      "stateMutability": "nonpayable",
      "type": "function"
    },
    {
      "inputs": [
        {
          "internalType": "address",
          "name": "from",
          "type": "address"
        },
        {
          "internalType": "address",
          "name": "to",
          "type": "address"
        },
        {
          "internalType": "uint256",
          "name": "amount",
          "type": "uint256"
        }
      ],
      "name": "transferFrom",
      "outputs": [
        {
          "internalType": "bool",
          "name": "",
          "type": "bool"
        }
      ],
      "stateMutability": "nonpayable",
      "type": "function"
    },
    {
      "inputs": [
        {
          "internalType": "uint32",
          "name": "amount",
          "type": "uint32"
        }
      ],
      "name": "unlockTokens",
      "outputs": [],
      "stateMutability": "nonpayable",
      "type": "function"
    },
    {
      "inputs": [
        {
          "internalType": "address",
          "name": "",
          "type": "address"
        }
      ],
      "name": "userIdByAddress",
      "outputs": [
        {
          "internalType": "uint256",
          "name": "",
          "type": "uint256"
        }
      ],
      "stateMutability": "view",
      "type": "function"
    },
    {
      "inputs": [
        {
          "internalType": "string",
          "name": "",
          "type": "string"
        }
      ],
      "name": "userIdByHash",
      "outputs": [
        {
          "internalType": "uint256",
          "name": "",
          "type": "uint256"
        }
      ],
      "stateMutability": "view",
      "type": "function"
    },
    {
      "inputs": [],
      "name": "userIdCounter",
      "outputs": [
        {
          "internalType": "uint256",
          "name": "",
          "type": "uint256"
        }
      ],
      "stateMutability": "view",
      "type": "function"
    },
    {
      "inputs": [
        {
          "internalType": "uint256",
          "name": "",
          "type": "uint256"
        }
      ],
      "name": "users",
      "outputs": [
        {
          "internalType": "uint256",
          "name": "id",
          "type": "uint256"
        },
        {
          "internalType": "address",
          "name": "userAddress",
          "type": "address"
        },
        {
          "internalType": "string",
          "name": "publicKeyHash",
          "type": "string"
        },
        {
          "internalType": "uint8",
          "name": "reputation",
          "type": "uint8"
        }
      ],
      "stateMutability": "view",
      "type": "function"
    },
    {
      "inputs": [
        {
          "internalType": "uint256",
          "name": "",
          "type": "uint256"
        }
      ],
      "name": "validatorHashById",
      "outputs": [
        {
          "internalType": "string",
          "name": "",
          "type": "string"
        }
      ],
      "stateMutability": "view",
      "type": "function"
    },
    {
      "inputs": [
        {
          "internalType": "address",
          "name": "",
          "type": "address"
        }
      ],
      "name": "validatorIdByAddress",
      "outputs": [
        {
          "internalType": "uint256",
          "name": "",
          "type": "uint256"
        }
      ],
      "stateMutability": "view",
      "type": "function"
    },
    {
      "inputs": [
        {
          "internalType": "string",
          "name": "",
          "type": "string"
        }
      ],
      "name": "validatorIdByHash",
      "outputs": [
        {
          "internalType": "uint256",
          "name": "",
          "type": "uint256"
        }
      ],
      "stateMutability": "view",
      "type": "function"
    },
    {
      "inputs": [],
      "name": "validatorIdCounter",
      "outputs": [
        {
          "internalType": "uint256",
          "name": "",
          "type": "uint256"
        }
      ],
      "stateMutability": "view",
      "type": "function"
    },
    {
      "inputs": [
        {
          "internalType": "uint256",
          "name": "",
          "type": "uint256"
        }
      ],
      "name": "validatorStateById",
      "outputs": [
        {
          "internalType": "uint256",
          "name": "",
          "type": "uint256"
        }
      ],
      "stateMutability": "view",
      "type": "function"
    },
    {
      "inputs": [
        {
          "internalType": "uint256",
          "name": "",
          "type": "uint256"
        }
      ],
      "name": "validators",
      "outputs": [
        {
          "internalType": "uint256",
          "name": "id",
          "type": "uint256"
        },
        {
          "internalType": "address",
          "name": "validatorAddress",
          "type": "address"
        },
        {
          "internalType": "string",
          "name": "publicKeyHash",
          "type": "string"
        },
        {
          "internalType": "uint32",
          "name": "locked",
          "type": "uint32"
        },
        {
          "internalType": "uint256",
          "name": "unlockTime",
          "type": "uint256"
        },
        {
          "internalType": "uint8",
          "name": "reputation",
          "type": "uint8"
        },
        {
          "internalType": "bool",
          "name": "isActive",
          "type": "bool"
        }
      ],
      "stateMutability": "view",
      "type": "function"
    }
  ],
  "bytecode": "6080604052348015600f57600080fd5b50612af78061001f6000396000f3fe608060405234801561001057600080fd5b50600436106102535760003560e01c80635ec01e4d11610146578063a457c2d7116100c3578063d56c907d11610087578063d56c907d1461062a578063db1ef71f14610632578063dd62ed3e14610645578063e061fe021461067e578063ec81560f14610691578063f13ff544146106a457600080fd5b8063a457c2d714610589578063a9059cbb1461059c578063bb9642ed146105af578063c5ab22411461060a578063cf6acd471461061757600080fd5b80638129fc1c1161010a5780638129fc1c146105555780638f029d5e1461055d578063911ab4941461056657806395d89b411461056e578063a1c0d32f1461057657600080fd5b80635ec01e4d146104bf578063616d7173146104e657806362ac03e9146104f957806370a082311461050c578063751df8901461053557600080fd5b8063313ce567116101d45780633950935111610198578063395093511461045b57806344c6957b1461046e5780634b7590881461048357806350355d76146104a3578063507ffba5146104ac57600080fd5b8063313ce567146103d857806332412baf146103df57806332d40160146103e757806335aa2e4414610412578063365b98b21461043857600080fd5b806318160ddd1161021b57806318160ddd1461035f5780632130a16f1461037157806323b872dd1461039c57806327764547146103af5780632faba6ae146103cf57600080fd5b806306fdde031461025857806308ac525614610276578063095ea7b31461029a5780630c97cf81146102bd578063180aedf3146102dd575b600080fd5b6102606106c4565b60405161026d91906124ef565b60405180910390f35b60725461028890610100900460ff1681565b60405160ff909116815260200161026d565b6102ad6102a8366004612525565b610756565b604051901515815260200161026d565b6102d06102cb36600461254f565b610770565b60405161026d9190612573565b61032a6102eb3660046125b7565b606d602052600090815260409020805460018201546002830154600484015460069094015492936001600160a01b0390921692909160ff908116911685565b604080519586526001600160a01b039094166020860152928401919091521515606083015260ff16608082015260a00161026d565b6035545b60405190815260200161026d565b61036361037f3660046125e6565b805160208183018101805160678252928201919093012091525481565b6102ad6103aa366004612697565b610955565b6103636103bd3660046126d3565b60666020526000908152604090205481565b61036360705481565b6012610288565b607054610363565b6103636103f53660046125e6565b8051602081830181018051606c8252928201919093012091525481565b6104256104203660046125b7565b610979565b60405161026d97969594939291906126ee565b61044b6104463660046125b7565b610a55565b60405161026d9493929190612749565b6102ad610469366004612525565b610b13565b61048161047c366004612787565b610b52565b005b6103636104913660046126d3565b606b6020526000908152604090205481565b61036360715481565b6104816104ba3660046125e6565b610d2a565b60408051426020808301919091528251808303820181529183019092528051910120610363565b6103636104f43660046125b7565b610e5f565b6102606105073660046125b7565b610ec7565b61036361051a3660046126d3565b6001600160a01b031660009081526033602052604090205490565b6103636105433660046125b7565b60696020526000908152604090205481565b610481610f61565b610363606f5481565b607154610363565b61026061108c565b6104816105843660046125b7565b61109b565b6102ad610597366004612525565b611309565b6102ad6105aa366004612525565b61139b565b6105e76105bd3660046125b7565b606e6020526000908152604090208054600182015460029092015490916001600160a01b03169083565b604080519384526001600160a01b0390921660208401529082015260600161026d565b6072546102889060ff1681565b6104816106253660046125e6565b6113a9565b606f54610363565b6103636106403660046125e6565b611534565b6103636106533660046127ad565b6001600160a01b03918216600090815260346020908152604080832093909416825291909152205490565b61048161068c3660046125b7565b61155c565b61048161069f366004612787565b61171b565b6106b76106b23660046125b7565b6118f2565b60405161026d91906127e0565b6060603680546106d390612821565b80601f01602080910402602001604051908101604052809291908181526020018280546106ff90612821565b801561074c5780601f106107215761010080835404028352916020019161074c565b820191906000526020600020905b81548152906001019060200180831161072f57829003601f168201915b5050505050905090565b600033610764818585611a0b565b60019150505b92915050565b336000908152606b6020526040812054606091036107cc5760405162461bcd60e51b81526020600482015260146024820152732ab9b2b9103737ba103932b3b4b9ba32b932b21760611b60448201526064015b60405180910390fd5b6000821161081c5760405162461bcd60e51b815260206004820152601e60248201527f4361706163697479206d7573742062652067726561746572207a65726f2e000060448201526064016107c3565b6071546000818152606e602052604081209182556001820180546001600160a01b031916331790556002820184905561085485611b2f565b90506000815167ffffffffffffffff811115610872576108726125d0565b60405190808252806020026020018201604052801561089b578160200160208202803683370190505b50905060005b825181101561091f57606560008483815181106108c0576108c0612855565b6020026020010151815260200190815260200160002060010160009054906101000a90046001600160a01b03168282815181106108ff576108ff612855565b6001600160a01b03909216602092830291909101909101526001016108a1565b50805161093590600385019060208401906123cb565b506071805490600061094683612881565b90915550919695505050505050565b600033610963858285611df5565b61096e858585611e87565b506001949350505050565b60656020526000908152604090208054600182015460028301805492936001600160a01b03909216926109ab90612821565b80601f01602080910402602001604051908101604052809291908181526020018280546109d790612821565b8015610a245780601f106109f957610100808354040283529160200191610a24565b820191906000526020600020905b815481529060010190602001808311610a0757829003601f168201915b5050505060038301546004840154600590940154929363ffffffff9091169290915060ff8082169161010090041687565b606a6020526000908152604090208054600182015460028301805492936001600160a01b0390921692610a8790612821565b80601f0160208091040260200160405190810160405280929190818152602001828054610ab390612821565b8015610b005780601f10610ad557610100808354040283529160200191610b00565b820191906000526020600020905b815481529060010190602001808311610ae357829003601f168201915b5050506003909301549192505060ff1684565b3360008181526034602090815260408083206001600160a01b03871684529091528120549091906107649082908690610b4d90879061289a565b611a0b565b336000908152606660209081526040808320548084526065909252909120600381015463ffffffff9081169084161115610bce5760405162461bcd60e51b815260206004820152601e60248201527f416d6f756e742065786365656473206c6f636b65642062616c616e63652e000060448201526064016107c3565b60008363ffffffff1611610bf45760405162461bcd60e51b81526004016107c3906128ad565b8060040154600003610c4e57610c0c4261c4e061289a565b6004820181905560405190815233907f77635f8f13ee1a01d11246347c649817c6ee9fa7620ce4c6adfa2452bfa162b2906020015b60405180910390a2505050565b8060040154421015610ca25760405162461bcd60e51b815260206004820152601860248201527f546f6b656e7320617265207374696c6c206c6f636b65642e000000000000000060448201526064016107c3565b600381018054849190600090610cbf90849063ffffffff166128ee565b92506101000a81548163ffffffff021916908363ffffffff160217905550610ced338463ffffffff16612055565b60405163ffffffff8416815233907fe7b379c6c1fa169e9079c25e9143b127637eef8ec8c9d5c06ddb4ab3e119588890602001610c41565b505050565b336000908152606b602052604090205415610d875760405162461bcd60e51b815260206004820152601860248201527f5573657220616c726561647920726567697374657265642e000000000000000060448201526064016107c3565b60408051608081018252607054808252336020808401918252838501868152600060608601819052938452606a909152939091208251815590516001820180546001600160a01b0319166001600160a01b0390921691909117905591519091906002820190610df6908261295b565b50606091909101516003909101805460ff191660ff909216919091179055607054604051606c90610e28908490612a1b565b9081526040519081900360200190205560708054906000610e4883612881565b90915550336000908152606b602052604090205550565b60008082118015610e715750606f5482105b610eb45760405162461bcd60e51b8152602060048201526014602482015273496e76616c69642056616c696461746f7249642160601b60448201526064016107c3565b5060009081526069602052604090205490565b60686020526000908152604090208054610ee090612821565b80601f0160208091040260200160405190810160405280929190818152602001828054610f0c90612821565b8015610f595780601f10610f2e57610100808354040283529160200191610f59565b820191906000526020600020905b815481529060010190602001808311610f3c57829003601f168201915b505050505081565b600054610100900460ff16610f7c5760005460ff1615610f80565b303b155b610fe35760405162461bcd60e51b815260206004820152602e60248201527f496e697469616c697a61626c653a20636f6e747261637420697320616c72656160448201526d191e481a5b9a5d1a585b1a5e995960921b60648201526084016107c3565b600054610100900460ff16158015611005576000805461ffff19166101011790555b61104e6040518060400160405280600a81526020016954656e736f724c696e6b60b01b81525060405180604001604052806005815260200164544c494e4b60d81b815250612135565b611059336064612055565b6001606f81905560708190556071556072805461ffff1916610c021790558015611089576000805461ff00191690555b50565b6060603780546106d390612821565b6000818152606d60205260409020805482146110ef5760405162461bcd60e51b81526020600482015260136024820152722537b1103237b2b9903737ba1032bc34b9ba1760691b60448201526064016107c3565b600481015460ff16156111445760405162461bcd60e51b815260206004820152601960248201527f4a6f6220697320616c726561647920636f6d706c657465642e0000000000000060448201526064016107c3565b6000805b60038301548110156111955782600301818154811061116957611169612855565b6000918252602090912001546001600160a01b0316330361118d5760019150611195565b600101611148565b50806111fe5760405162461bcd60e51b815260206004820152603260248201527f4f6e6c792076616c696461746f7273206f662074686973206a6f62206d61792060448201527131b0b636103a3434b990333ab731ba34b7b760711b60648201526084016107c3565b3360009081526005830160205260409020805460ff1916905560405162461bcd60e51b81526004016107c3906020808252601c908201527f56616c696461746f7220616c726561647920636f6e6669726d65642e00000000604082015260600190565b60038301548110156112d8576000606560006066600087600301868154811061128c5761128c612855565b60009182526020808320909101546001600160a01b031683528281019390935260409182018120548452918301939093529101812080549092506112cf91612166565b50600101611261565b5060405183907f02244c8529cb95e213ee542e76e7776342b3dabd10203d01472bbf4441be892990600090a2505050565b3360008181526034602090815260408083206001600160a01b03871684529091528120549091908381101561138e5760405162461bcd60e51b815260206004820152602560248201527f45524332303a2064656372656173656420616c6c6f77616e63652062656c6f77604482015264207a65726f60d81b60648201526084016107c3565b61096e8286868403611a0b565b600033610764818585611e87565b6067816040516113b99190612a1b565b9081526020016040518091039020546000146114315760405162461bcd60e51b815260206004820152603160248201527f56616c696461746f7220776974682074686973207075626c69634b6579486173604482015270341030b63932b0b23c9032bc34b9ba399760791b60648201526084016107c3565b606f5460008181526065602052604090209081556001810180546001600160a01b0319163317905560028101611467838261295b565b5060058101805461ff001916610100179055606f5433600090815260666020526040908190208290555160679061149f908590612a1b565b908152604080516020928190038301902092909255606f5460009081526068909152206114cc838261295b565b50606f8054600090815260696020908152604091829020600190559154905133815290917fc278abaf901ee66c9c5ad86c559c69d95b3121ab80ffa1bb4a0097a9b9aee6a2910160405180910390a2606f805490600061152b83612881565b91905055505050565b6000606c826040516115469190612a1b565b9081526020016040518091039020549050919050565b3360009081526066602090815260408083205480845260659092529091206005810154610100900460ff166115ce5760405162461bcd60e51b81526020600482015260186024820152772b30b634b230ba37b91034b9903737ba1030b1ba34bb329760411b60448201526064016107c3565b6000838152606e602052604090205483146116375760405162461bcd60e51b8152602060048201526024808201527f4a6f62206372656174696f6e207265717565737420646f6573206e6f7420657860448201526334b9ba1760e11b60648201526084016107c3565b6000838152606e602090815260408083206003810154338552600482019093529220805460ff1916600117905560ff811661167183612315565b03611714576000858152606d6020526040902085815560018084015490820180546001600160a01b0319166001600160a01b0390921691909117905560028084015490820155600380840180546116cb9284019190612430565b5060068101805460ff191690556000868152606e602052604081208181556001810180546001600160a01b031916905560028101829055906117106003830182612470565b5050505b5050505050565b60008163ffffffff16116117415760405162461bcd60e51b81526004016107c3906128ad565b3360009081526033602052604090205463ffffffff8216111561179e5760405162461bcd60e51b815260206004820152601560248201527424b739bab33334b1b4b2b73a103130b630b731b29760591b60448201526064016107c3565b33600090815260666020526040812054908190036117fe5760405162461bcd60e51b815260206004820152601960248201527f56616c696461746f7220646f6573206e6f742065786973742e0000000000000060448201526064016107c3565b60008181526065602052604090206005810154610100900460ff166118605760405162461bcd60e51b81526020600482015260186024820152772b30b634b230ba37b91034b9903737ba1030b1ba34bb329760411b60448201526064016107c3565b61187133308563ffffffff16610955565b5060038101805484919060009061188f90849063ffffffff16612a37565b92506101000a81548163ffffffff021916908363ffffffff160217905550336001600160a01b03167fac87f20a77d28ee8bbb58ec87ea8fa968b3393efae1a368fd50b767c2847391c84604051610c41919063ffffffff91909116815260200190565b6060607154821061193d5760405162461bcd60e51b8152602060048201526015602482015274125b9d985b1a59081a9bd894995c5d595cdd081251605a1b60448201526064016107c3565b6000828152606e6020526040902080548390036119c5576000838152606e60209081526040808320600301805482518185028101850190935280835291929091908301828280156119b757602002820191906000526020600020905b81546001600160a01b03168152600190910190602001808311611999575b509398975050505050505050565b60405162461bcd60e51b81526020600482015260156024820152744a6f6252657175657374206e6f7420666f756e642160581b60448201526064016107c3565b50919050565b6001600160a01b038316611a6d5760405162461bcd60e51b8152602060048201526024808201527f45524332303a20617070726f76652066726f6d20746865207a65726f206164646044820152637265737360e01b60648201526084016107c3565b6001600160a01b038216611ace5760405162461bcd60e51b815260206004820152602260248201527f45524332303a20617070726f766520746f20746865207a65726f206164647265604482015261737360f01b60648201526084016107c3565b6001600160a01b0383811660008181526034602090815260408083209487168084529482529182902085905590518481527f8c5be1e5ebec7d5bd14f71427d1e84f3dd0314c0f7b2291e5b200ac8c7c3b925910160405180910390a3505050565b60725460609060ff90811690831610801590611b59575060725460ff610100909104811690831611155b611bcb5760405162461bcd60e51b815260206004820152603960248201527f6e56616c696461746f7273206d757374206265206265747765656e206d696e5660448201527f616c696461746f7220616e64206d617856616c696461746f720000000000000060648201526084016107c3565b60008260ff16118015611be35750606f548260ff1611155b611c57576040805162461bcd60e51b81526020600482015260248101919091527f4e6f7420656e6f75676820617661696c61626c652076616c696461746f72732060448201527f666f72206a6f622c20706c656173652074727920616761696e206c617465722e60648201526084016107c3565b60008260ff1667ffffffffffffffff811115611c7557611c756125d0565b604051908082528060200260200182016040528015611c9e578160200160208202803683370190505b5090506000805b8460ff16811015611dec5760005b818303611de3576000606f5442338480611ccc90612881565b9550604051602001611d039392919092835260609190911b6bffffffffffffffffffffffff19166020830152603482015260540190565b6040516020818303038152906040528051906020012060001c611d269190612a54565b600081815260696020526040902054909150600103611d7a57611d4a816001612166565b80858481518110611d5d57611d5d612855565b602090810291909101015283611d7281612881565b945050611ddd565b6032821015611d955781611d8d81612881565b925050611ddd565b60405162461bcd60e51b815260206004820152601e60248201527f4d61782076616c696461746f722072657175657374732072656163686564000060448201526064016107c3565b50611cb3565b50600101611ca5565b50909392505050565b6001600160a01b038381166000908152603460209081526040808320938616835292905220546000198114611e815781811015611e745760405162461bcd60e51b815260206004820152601d60248201527f45524332303a20696e73756666696369656e7420616c6c6f77616e636500000060448201526064016107c3565b611e818484848403611a0b565b50505050565b6001600160a01b038316611eeb5760405162461bcd60e51b815260206004820152602560248201527f45524332303a207472616e736665722066726f6d20746865207a65726f206164604482015264647265737360d81b60648201526084016107c3565b6001600160a01b038216611f4d5760405162461bcd60e51b815260206004820152602360248201527f45524332303a207472616e7366657220746f20746865207a65726f206164647260448201526265737360e81b60648201526084016107c3565b6001600160a01b03831660009081526033602052604090205481811015611fc55760405162461bcd60e51b815260206004820152602660248201527f45524332303a207472616e7366657220616d6f756e7420657863656564732062604482015265616c616e636560d01b60648201526084016107c3565b6001600160a01b03808516600090815260336020526040808220858503905591851681529081208054849290611ffc90849061289a565b92505081905550826001600160a01b0316846001600160a01b03167fddf252ad1be2c89b69c2b068fc378daa952ba7f163c4a11628f55a4df523b3ef8460405161204891815260200190565b60405180910390a3611e81565b6001600160a01b0382166120ab5760405162461bcd60e51b815260206004820152601f60248201527f45524332303a206d696e7420746f20746865207a65726f20616464726573730060448201526064016107c3565b80603560008282546120bd919061289a565b90915550506001600160a01b038216600090815260336020526040812080548392906120ea90849061289a565b90915550506040518181526001600160a01b038316906000907fddf252ad1be2c89b69c2b068fc378daa952ba7f163c4a11628f55a4df523b3ef9060200160405180910390a35b5050565b600054610100900460ff1661215c5760405162461bcd60e51b81526004016107c390612a76565b612131828261238b565b6000821180156121775750606f5482105b6121b95760405162461bcd60e51b8152602060048201526013602482015272125b9d985b1a590815985b1a59185d1bdc9259606a1b60448201526064016107c3565b6000828152606960205260409020546122145760405162461bcd60e51b815260206004820152601860248201527f56616c696461746f72206973206e6f74206f6e6c696e652e000000000000000060448201526064016107c3565b80156122a2576000828152606960205260409020546001036122455750600090815260696020526040902060029055565b60405162461bcd60e51b815260206004820152602c60248201527f56616c696461746f72206265696e672061637469766174656420697320616c7260448201526b65616479206163746976652160a01b60648201526084016107c3565b6000828152606960205260409020546002036122cd5750600090815260696020526040902060019055565b60405162461bcd60e51b815260206004820152601e60248201527f56616c696461746f7220697320616c726561647920696e61637469766521000060448201526064016107c3565b600080805b60038401548110156123845783600401600085600301838154811061234157612341612855565b60009182526020808320909101546001600160a01b0316835282019290925260400190205460ff161561237c578161237881612881565b9250505b60010161231a565b5092915050565b600054610100900460ff166123b25760405162461bcd60e51b81526004016107c390612a76565b60366123be838261295b565b506037610d25828261295b565b828054828255906000526020600020908101928215612420579160200282015b8281111561242057825182546001600160a01b0319166001600160a01b039091161782556020909201916001909101906123eb565b5061242c92915061248a565b5090565b8280548282559060005260206000209081019282156124205760005260206000209182015b82811115612420578254825591600101919060010190612455565b508054600082559060005260206000209081019061108991905b5b8082111561242c576000815560010161248b565b60005b838110156124ba5781810151838201526020016124a2565b50506000910152565b600081518084526124db81602086016020860161249f565b601f01601f19169290920160200192915050565b60208152600061250260208301846124c3565b9392505050565b80356001600160a01b038116811461252057600080fd5b919050565b6000806040838503121561253857600080fd5b61254183612509565b946020939093013593505050565b6000806040838503121561256257600080fd5b823560ff8116811461254157600080fd5b6020808252825182820181905260009190848201906040850190845b818110156125ab5783518352928401929184019160010161258f565b50909695505050505050565b6000602082840312156125c957600080fd5b5035919050565b634e487b7160e01b600052604160045260246000fd5b6000602082840312156125f857600080fd5b813567ffffffffffffffff8082111561261057600080fd5b818401915084601f83011261262457600080fd5b813581811115612636576126366125d0565b604051601f8201601f19908116603f0116810190838211818310171561265e5761265e6125d0565b8160405282815287602084870101111561267757600080fd5b826020860160208301376000928101602001929092525095945050505050565b6000806000606084860312156126ac57600080fd5b6126b584612509565b92506126c360208501612509565b9150604084013590509250925092565b6000602082840312156126e557600080fd5b61250282612509565b8781526001600160a01b038716602082015260e060408201819052600090612718908301886124c3565b905063ffffffff8616606083015284608083015260ff841660a083015282151560c083015298975050505050505050565b8481526001600160a01b0384166020820152608060408201819052600090612773908301856124c3565b905060ff8316606083015295945050505050565b60006020828403121561279957600080fd5b813563ffffffff8116811461250257600080fd5b600080604083850312156127c057600080fd5b6127c983612509565b91506127d760208401612509565b90509250929050565b6020808252825182820181905260009190848201906040850190845b818110156125ab5783516001600160a01b0316835292840192918401916001016127fc565b600181811c9082168061283557607f821691505b602082108103611a0557634e487b7160e01b600052602260045260246000fd5b634e487b7160e01b600052603260045260246000fd5b634e487b7160e01b600052601160045260246000fd5b6000600182016128935761289361286b565b5060010190565b8082018082111561076a5761076a61286b565b60208082526021908201527f416d6f756e74206d7573742062652067726561746572207468616e207a65726f6040820152601760f91b606082015260800190565b63ffffffff8281168282160390808211156123845761238461286b565b601f821115610d25576000816000526020600020601f850160051c810160208610156129345750805b601f850160051c820191505b8181101561295357828155600101612940565b505050505050565b815167ffffffffffffffff811115612975576129756125d0565b612989816129838454612821565b8461290b565b602080601f8311600181146129be57600084156129a65750858301515b600019600386901b1c1916600185901b178555612953565b600085815260208120601f198616915b828110156129ed578886015182559484019460019091019084016129ce565b5085821015612a0b5787850151600019600388901b60f8161c191681555b5050505050600190811b01905550565b60008251612a2d81846020870161249f565b9190910192915050565b63ffffffff8181168382160190808211156123845761238461286b565b600082612a7157634e487b7160e01b600052601260045260246000fd5b500690565b6020808252602b908201527f496e697469616c697a61626c653a20636f6e7472616374206973206e6f74206960408201526a6e697469616c697a696e6760a81b60608201526080019056fea26469706673582212208dd7dc38ba6d902facc3655c023b972105ce93ff4fbbfae52e29e4942c5bea4264736f6c63430008190033",
  "bytecodeSha1": "919bbebdb486d73c1dbddce0a886ed0b95116abe",
  "compiler": {
    "evm_version": "istanbul",
    "optimizer": {
      "enabled": true,
      "runs": 200
    },
    "version": "0.8.25+commit.b61c2a91"
  },
  "contractName": "SmartNodes",
  "language": "Solidity",
  "natspec": {
    "kind": "dev",
    "methods": {
      "allowance(address,address)": {
        "details": "See {IERC20-allowance}."
      },
      "approve(address,uint256)": {
        "details": "See {IERC20-approve}. NOTE: If `amount` is the maximum `uint256`, the allowance is not updated on `transferFrom`. This is semantically equivalent to an infinite approval. Requirements: - `spender` cannot be the zero address."
      },
      "balanceOf(address)": {
        "details": "See {IERC20-balanceOf}."
      },
      "decimals()": {
        "details": "Returns the number of decimals used to get its user representation. For example, if `decimals` equals `2`, a balance of `505` tokens should be displayed to a user as `5.05` (`505 / 10 ** 2`). Tokens usually opt for a value of 18, imitating the relationship between Ether and Wei. This is the value {ERC20} uses, unless this function is overridden; NOTE: This information is only used for _display_ purposes: it in no way affects any of the arithmetic of the contract, including {IERC20-balanceOf} and {IERC20-transfer}."
      },
      "decreaseAllowance(address,uint256)": {
        "details": "Atomically decreases the allowance granted to `spender` by the caller. This is an alternative to {approve} that can be used as a mitigation for problems described in {IERC20-approve}. Emits an {Approval} event indicating the updated allowance. Requirements: - `spender` cannot be the zero address. - `spender` must have allowance for the caller of at least `subtractedValue`."
      },
      "increaseAllowance(address,uint256)": {
        "details": "Atomically increases the allowance granted to `spender` by the caller. This is an alternative to {approve} that can be used as a mitigation for problems described in {IERC20-approve}. Emits an {Approval} event indicating the updated allowance. Requirements: - `spender` cannot be the zero address."
      },
      "lockTokens(uint32)": {
        "notice": "Validator Token Locking and Unlocking ///"
      },
      "name()": {
        "details": "Returns the name of the token."
      },
      "symbol()": {
        "details": "Returns the symbol of the token, usually a shorter version of the name."
      },
      "totalSupply()": {
        "details": "See {IERC20-totalSupply}."
      },
      "transfer(address,uint256)": {
        "details": "See {IERC20-transfer}. Requirements: - `to` cannot be the zero address. - the caller must have a balance of at least `amount`."
      },
      "transferFrom(address,address,uint256)": {
        "details": "See {IERC20-transferFrom}. Emits an {Approval} event indicating the updated allowance. This is not required by the EIP. See the note at the beginning of {ERC20}. NOTE: Does not update the allowance if the current allowance is the maximum `uint256`. Requirements: - `from` and `to` cannot be the zero address. - `from` must have a balance of at least `amount`. - the caller must have allowance for ``from``'s tokens of at least `amount`."
      }
    },
    "version": 1
  },
  "opcodes": "PUSH1 0x80 PUSH1 0x40 MSTORE CALLVALUE DUP1 ISZERO PUSH2 0x10 JUMPI PUSH1 0x0 DUP1 REVERT JUMPDEST POP PUSH1 0x4 CALLDATASIZE LT PUSH2 0x253 JUMPI PUSH1 0x0 CALLDATALOAD PUSH1 0xE0 SHR DUP1 PUSH4 0x5EC01E4D GT PUSH2 0x146 JUMPI DUP1 PUSH4 0xA457C2D7 GT PUSH2 0xC3 JUMPI DUP1 PUSH4 0xD56C907D GT PUSH2 0x87 JUMPI DUP1 PUSH4 0xD56C907D EQ PUSH2 0x62A JUMPI DUP1 PUSH4 0xDB1EF71F EQ PUSH2 0x632 JUMPI DUP1 PUSH4 0xDD62ED3E EQ PUSH2 0x645 JUMPI DUP1 PUSH4 0xE061FE02 EQ PUSH2 0x67E JUMPI DUP1 PUSH4 0xEC81560F EQ PUSH2 0x691 JUMPI DUP1 PUSH4 0xF13FF544 EQ PUSH2 0x6A4 JUMPI PUSH1 0x0 DUP1 REVERT JUMPDEST DUP1 PUSH4 0xA457C2D7 EQ PUSH2 0x589 JUMPI DUP1 PUSH4 0xA9059CBB EQ PUSH2 0x59C JUMPI DUP1 PUSH4 0xBB9642ED EQ PUSH2 0x5AF JUMPI DUP1 PUSH4 0xC5AB2241 EQ PUSH2 0x60A JUMPI DUP1 PUSH4 0xCF6ACD47 EQ PUSH2 0x617 JUMPI PUSH1 0x0 DUP1 REVERT JUMPDEST DUP1 PUSH4 0x8129FC1C GT PUSH2 0x10A JUMPI DUP1 PUSH4 0x8129FC1C EQ PUSH2 0x555 JUMPI DUP1 PUSH4 0x8F029D5E EQ PUSH2 0x55D JUMPI DUP1 PUSH4 0x911AB494 EQ PUSH2 0x566 JUMPI DUP1 PUSH4 0x95D89B41 EQ PUSH2 0x56E JUMPI DUP1 PUSH4 0xA1C0D32F EQ PUSH2 0x576 JUMPI PUSH1 0x0 DUP1 REVERT JUMPDEST DUP1 PUSH4 0x5EC01E4D EQ PUSH2 0x4BF JUMPI DUP1 PUSH4 0x616D7173 EQ PUSH2 0x4E6 JUMPI DUP1 PUSH4 0x62AC03E9 EQ PUSH2 0x4F9 JUMPI DUP1 PUSH4 0x70A08231 EQ PUSH2 0x50C JUMPI DUP1 PUSH4 0x751DF890 EQ PUSH2 0x535 JUMPI PUSH1 0x0 DUP1 REVERT JUMPDEST DUP1 PUSH4 0x313CE567 GT PUSH2 0x1D4 JUMPI DUP1 PUSH4 0x39509351 GT PUSH2 0x198 JUMPI DUP1 PUSH4 0x39509351 EQ PUSH2 0x45B JUMPI DUP1 PUSH4 0x44C6957B EQ PUSH2 0x46E JUMPI DUP1 PUSH4 0x4B759088 EQ PUSH2 0x483 JUMPI DUP1 PUSH4 0x50355D76 EQ PUSH2 0x4A3 JUMPI DUP1 PUSH4 0x507FFBA5 EQ PUSH2 0x4AC JUMPI PUSH1 0x0 DUP1 REVERT JUMPDEST DUP1 PUSH4 0x313CE567 EQ PUSH2 0x3D8 JUMPI DUP1 PUSH4 0x32412BAF EQ PUSH2 0x3DF JUMPI DUP1 PUSH4 0x32D40160 EQ PUSH2 0x3E7 JUMPI DUP1 PUSH4 0x35AA2E44 EQ PUSH2 0x412 JUMPI DUP1 PUSH4 0x365B98B2 EQ PUSH2 0x438 JUMPI PUSH1 0x0 DUP1 REVERT JUMPDEST DUP1 PUSH4 0x18160DDD GT PUSH2 0x21B JUMPI DUP1 PUSH4 0x18160DDD EQ PUSH2 0x35F JUMPI DUP1 PUSH4 0x2130A16F EQ PUSH2 0x371 JUMPI DUP1 PUSH4 0x23B872DD EQ PUSH2 0x39C JUMPI DUP1 PUSH4 0x27764547 EQ PUSH2 0x3AF JUMPI DUP1 PUSH4 0x2FABA6AE EQ PUSH2 0x3CF JUMPI PUSH1 0x0 DUP1 REVERT JUMPDEST DUP1 PUSH4 0x6FDDE03 EQ PUSH2 0x258 JUMPI DUP1 PUSH4 0x8AC5256 EQ PUSH2 0x276 JUMPI DUP1 PUSH4 0x95EA7B3 EQ PUSH2 0x29A JUMPI DUP1 PUSH4 0xC97CF81 EQ PUSH2 0x2BD JUMPI DUP1 PUSH4 0x180AEDF3 EQ PUSH2 0x2DD JUMPI JUMPDEST PUSH1 0x0 DUP1 REVERT JUMPDEST PUSH2 0x260 PUSH2 0x6C4 JUMP JUMPDEST PUSH1 0x40 MLOAD PUSH2 0x26D SWAP2 SWAP1 PUSH2 0x24EF JUMP JUMPDEST PUSH1 0x40 MLOAD DUP1 SWAP2 SUB SWAP1 RETURN JUMPDEST PUSH1 0x72 SLOAD PUSH2 0x288 SWAP1 PUSH2 0x100 SWAP1 DIV PUSH1 0xFF AND DUP2 JUMP JUMPDEST PUSH1 0x40 MLOAD PUSH1 0xFF SWAP1 SWAP2 AND DUP2 MSTORE PUSH1 0x20 ADD PUSH2 0x26D JUMP JUMPDEST PUSH2 0x2AD PUSH2 0x2A8 CALLDATASIZE PUSH1 0x4 PUSH2 0x2525 JUMP JUMPDEST PUSH2 0x756 JUMP JUMPDEST PUSH1 0x40 MLOAD SWAP1 ISZERO ISZERO DUP2 MSTORE PUSH1 0x20 ADD PUSH2 0x26D JUMP JUMPDEST PUSH2 0x2D0 PUSH2 0x2CB CALLDATASIZE PUSH1 0x4 PUSH2 0x254F JUMP JUMPDEST PUSH2 0x770 JUMP JUMPDEST PUSH1 0x40 MLOAD PUSH2 0x26D SWAP2 SWAP1 PUSH2 0x2573 JUMP JUMPDEST PUSH2 0x32A PUSH2 0x2EB CALLDATASIZE PUSH1 0x4 PUSH2 0x25B7 JUMP JUMPDEST PUSH1 0x6D PUSH1 0x20 MSTORE PUSH1 0x0 SWAP1 DUP2 MSTORE PUSH1 0x40 SWAP1 KECCAK256 DUP1 SLOAD PUSH1 0x1 DUP3 ADD SLOAD PUSH1 0x2 DUP4 ADD SLOAD PUSH1 0x4 DUP5 ADD SLOAD PUSH1 0x6 SWAP1 SWAP5 ADD SLOAD SWAP3 SWAP4 PUSH1 0x1 PUSH1 0x1 PUSH1 0xA0 SHL SUB SWAP1 SWAP3 AND SWAP3 SWAP1 SWAP2 PUSH1 0xFF SWAP1 DUP2 AND SWAP2 AND DUP6 JUMP JUMPDEST PUSH1 0x40 DUP1 MLOAD SWAP6 DUP7 MSTORE PUSH1 0x1 PUSH1 0x1 PUSH1 0xA0 SHL SUB SWAP1 SWAP5 AND PUSH1 0x20 DUP7 ADD MSTORE SWAP3 DUP5 ADD SWAP2 SWAP1 SWAP2 MSTORE ISZERO ISZERO PUSH1 0x60 DUP4 ADD MSTORE PUSH1 0xFF AND PUSH1 0x80 DUP3 ADD MSTORE PUSH1 0xA0 ADD PUSH2 0x26D JUMP JUMPDEST PUSH1 0x35 SLOAD JUMPDEST PUSH1 0x40 MLOAD SWAP1 DUP2 MSTORE PUSH1 0x20 ADD PUSH2 0x26D JUMP JUMPDEST PUSH2 0x363 PUSH2 0x37F CALLDATASIZE PUSH1 0x4 PUSH2 0x25E6 JUMP JUMPDEST DUP1 MLOAD PUSH1 0x20 DUP2 DUP4 ADD DUP2 ADD DUP1 MLOAD PUSH1 0x67 DUP3 MSTORE SWAP3 DUP3 ADD SWAP2 SWAP1 SWAP4 ADD KECCAK256 SWAP2 MSTORE SLOAD DUP2 JUMP JUMPDEST PUSH2 0x2AD PUSH2 0x3AA CALLDATASIZE PUSH1 0x4 PUSH2 0x2697 JUMP JUMPDEST PUSH2 0x955 JUMP JUMPDEST PUSH2 0x363 PUSH2 0x3BD CALLDATASIZE PUSH1 0x4 PUSH2 0x26D3 JUMP JUMPDEST PUSH1 0x66 PUSH1 0x20 MSTORE PUSH1 0x0 SWAP1 DUP2 MSTORE PUSH1 0x40 SWAP1 KECCAK256 SLOAD DUP2 JUMP JUMPDEST PUSH2 0x363 PUSH1 0x70 SLOAD DUP2 JUMP JUMPDEST PUSH1 0x12 PUSH2 0x288 JUMP JUMPDEST PUSH1 0x70 SLOAD PUSH2 0x363 JUMP JUMPDEST PUSH2 0x363 PUSH2 0x3F5 CALLDATASIZE PUSH1 0x4 PUSH2 0x25E6 JUMP JUMPDEST DUP1 MLOAD PUSH1 0x20 DUP2 DUP4 ADD DUP2 ADD DUP1 MLOAD PUSH1 0x6C DUP3 MSTORE SWAP3 DUP3 ADD SWAP2 SWAP1 SWAP4 ADD KECCAK256 SWAP2 MSTORE SLOAD DUP2 JUMP JUMPDEST PUSH2 0x425 PUSH2 0x420 CALLDATASIZE PUSH1 0x4 PUSH2 0x25B7 JUMP JUMPDEST PUSH2 0x979 JUMP JUMPDEST PUSH1 0x40 MLOAD PUSH2 0x26D SWAP8 SWAP7 SWAP6 SWAP5 SWAP4 SWAP3 SWAP2 SWAP1 PUSH2 0x26EE JUMP JUMPDEST PUSH2 0x44B PUSH2 0x446 CALLDATASIZE PUSH1 0x4 PUSH2 0x25B7 JUMP JUMPDEST PUSH2 0xA55 JUMP JUMPDEST PUSH1 0x40 MLOAD PUSH2 0x26D SWAP5 SWAP4 SWAP3 SWAP2 SWAP1 PUSH2 0x2749 JUMP JUMPDEST PUSH2 0x2AD PUSH2 0x469 CALLDATASIZE PUSH1 0x4 PUSH2 0x2525 JUMP JUMPDEST PUSH2 0xB13 JUMP JUMPDEST PUSH2 0x481 PUSH2 0x47C CALLDATASIZE PUSH1 0x4 PUSH2 0x2787 JUMP JUMPDEST PUSH2 0xB52 JUMP JUMPDEST STOP JUMPDEST PUSH2 0x363 PUSH2 0x491 CALLDATASIZE PUSH1 0x4 PUSH2 0x26D3 JUMP JUMPDEST PUSH1 0x6B PUSH1 0x20 MSTORE PUSH1 0x0 SWAP1 DUP2 MSTORE PUSH1 0x40 SWAP1 KECCAK256 SLOAD DUP2 JUMP JUMPDEST PUSH2 0x363 PUSH1 0x71 SLOAD DUP2 JUMP JUMPDEST PUSH2 0x481 PUSH2 0x4BA CALLDATASIZE PUSH1 0x4 PUSH2 0x25E6 JUMP JUMPDEST PUSH2 0xD2A JUMP JUMPDEST PUSH1 0x40 DUP1 MLOAD TIMESTAMP PUSH1 0x20 DUP1 DUP4 ADD SWAP2 SWAP1 SWAP2 MSTORE DUP3 MLOAD DUP1 DUP4 SUB DUP3 ADD DUP2 MSTORE SWAP2 DUP4 ADD SWAP1 SWAP3 MSTORE DUP1 MLOAD SWAP2 ADD KECCAK256 PUSH2 0x363 JUMP JUMPDEST PUSH2 0x363 PUSH2 0x4F4 CALLDATASIZE PUSH1 0x4 PUSH2 0x25B7 JUMP JUMPDEST PUSH2 0xE5F JUMP JUMPDEST PUSH2 0x260 PUSH2 0x507 CALLDATASIZE PUSH1 0x4 PUSH2 0x25B7 JUMP JUMPDEST PUSH2 0xEC7 JUMP JUMPDEST PUSH2 0x363 PUSH2 0x51A CALLDATASIZE PUSH1 0x4 PUSH2 0x26D3 JUMP JUMPDEST PUSH1 0x1 PUSH1 0x1 PUSH1 0xA0 SHL SUB AND PUSH1 0x0 SWAP1 DUP2 MSTORE PUSH1 0x33 PUSH1 0x20 MSTORE PUSH1 0x40 SWAP1 KECCAK256 SLOAD SWAP1 JUMP JUMPDEST PUSH2 0x363 PUSH2 0x543 CALLDATASIZE PUSH1 0x4 PUSH2 0x25B7 JUMP JUMPDEST PUSH1 0x69 PUSH1 0x20 MSTORE PUSH1 0x0 SWAP1 DUP2 MSTORE PUSH1 0x40 SWAP1 KECCAK256 SLOAD DUP2 JUMP JUMPDEST PUSH2 0x481 PUSH2 0xF61 JUMP JUMPDEST PUSH2 0x363 PUSH1 0x6F SLOAD DUP2 JUMP JUMPDEST PUSH1 0x71 SLOAD PUSH2 0x363 JUMP JUMPDEST PUSH2 0x260 PUSH2 0x108C JUMP JUMPDEST PUSH2 0x481 PUSH2 0x584 CALLDATASIZE PUSH1 0x4 PUSH2 0x25B7 JUMP JUMPDEST PUSH2 0x109B JUMP JUMPDEST PUSH2 0x2AD PUSH2 0x597 CALLDATASIZE PUSH1 0x4 PUSH2 0x2525 JUMP JUMPDEST PUSH2 0x1309 JUMP JUMPDEST PUSH2 0x2AD PUSH2 0x5AA CALLDATASIZE PUSH1 0x4 PUSH2 0x2525 JUMP JUMPDEST PUSH2 0x139B JUMP JUMPDEST PUSH2 0x5E7 PUSH2 0x5BD CALLDATASIZE PUSH1 0x4 PUSH2 0x25B7 JUMP JUMPDEST PUSH1 0x6E PUSH1 0x20 MSTORE PUSH1 0x0 SWAP1 DUP2 MSTORE PUSH1 0x40 SWAP1 KECCAK256 DUP1 SLOAD PUSH1 0x1 DUP3 ADD SLOAD PUSH1 0x2 SWAP1 SWAP3 ADD SLOAD SWAP1 SWAP2 PUSH1 0x1 PUSH1 0x1 PUSH1 0xA0 SHL SUB AND SWAP1 DUP4 JUMP JUMPDEST PUSH1 0x40 DUP1 MLOAD SWAP4 DUP5 MSTORE PUSH1 0x1 PUSH1 0x1 PUSH1 0xA0 SHL SUB SWAP1 SWAP3 AND PUSH1 0x20 DUP5 ADD MSTORE SWAP1 DUP3 ADD MSTORE PUSH1 0x60 ADD PUSH2 0x26D JUMP JUMPDEST PUSH1 0x72 SLOAD PUSH2 0x288 SWAP1 PUSH1 0xFF AND DUP2 JUMP JUMPDEST PUSH2 0x481 PUSH2 0x625 CALLDATASIZE PUSH1 0x4 PUSH2 0x25E6 JUMP JUMPDEST PUSH2 0x13A9 JUMP JUMPDEST PUSH1 0x6F SLOAD PUSH2 0x363 JUMP JUMPDEST PUSH2 0x363 PUSH2 0x640 CALLDATASIZE PUSH1 0x4 PUSH2 0x25E6 JUMP JUMPDEST PUSH2 0x1534 JUMP JUMPDEST PUSH2 0x363 PUSH2 0x653 CALLDATASIZE PUSH1 0x4 PUSH2 0x27AD JUMP JUMPDEST PUSH1 0x1 PUSH1 0x1 PUSH1 0xA0 SHL SUB SWAP2 DUP3 AND PUSH1 0x0 SWAP1 DUP2 MSTORE PUSH1 0x34 PUSH1 0x20 SWAP1 DUP2 MSTORE PUSH1 0x40 DUP1 DUP4 KECCAK256 SWAP4 SWAP1 SWAP5 AND DUP3 MSTORE SWAP2 SWAP1 SWAP2 MSTORE KECCAK256 SLOAD SWAP1 JUMP JUMPDEST PUSH2 0x481 PUSH2 0x68C CALLDATASIZE PUSH1 0x4 PUSH2 0x25B7 JUMP JUMPDEST PUSH2 0x155C JUMP JUMPDEST PUSH2 0x481 PUSH2 0x69F CALLDATASIZE PUSH1 0x4 PUSH2 0x2787 JUMP JUMPDEST PUSH2 0x171B JUMP JUMPDEST PUSH2 0x6B7 PUSH2 0x6B2 CALLDATASIZE PUSH1 0x4 PUSH2 0x25B7 JUMP JUMPDEST PUSH2 0x18F2 JUMP JUMPDEST PUSH1 0x40 MLOAD PUSH2 0x26D SWAP2 SWAP1 PUSH2 0x27E0 JUMP JUMPDEST PUSH1 0x60 PUSH1 0x36 DUP1 SLOAD PUSH2 0x6D3 SWAP1 PUSH2 0x2821 JUMP JUMPDEST DUP1 PUSH1 0x1F ADD PUSH1 0x20 DUP1 SWAP2 DIV MUL PUSH1 0x20 ADD PUSH1 0x40 MLOAD SWAP1 DUP2 ADD PUSH1 0x40 MSTORE DUP1 SWAP3 SWAP2 SWAP1 DUP2 DUP2 MSTORE PUSH1 0x20 ADD DUP3 DUP1 SLOAD PUSH2 0x6FF SWAP1 PUSH2 0x2821 JUMP JUMPDEST DUP1 ISZERO PUSH2 0x74C JUMPI DUP1 PUSH1 0x1F LT PUSH2 0x721 JUMPI PUSH2 0x100 DUP1 DUP4 SLOAD DIV MUL DUP4 MSTORE SWAP2 PUSH1 0x20 ADD SWAP2 PUSH2 0x74C JUMP JUMPDEST DUP3 ADD SWAP2 SWAP1 PUSH1 0x0 MSTORE PUSH1 0x20 PUSH1 0x0 KECCAK256 SWAP1 JUMPDEST DUP2 SLOAD DUP2 MSTORE SWAP1 PUSH1 0x1 ADD SWAP1 PUSH1 0x20 ADD DUP1 DUP4 GT PUSH2 0x72F JUMPI DUP3 SWAP1 SUB PUSH1 0x1F AND DUP3 ADD SWAP2 JUMPDEST POP POP POP POP POP SWAP1 POP SWAP1 JUMP JUMPDEST PUSH1 0x0 CALLER PUSH2 0x764 DUP2 DUP6 DUP6 PUSH2 0x1A0B JUMP JUMPDEST PUSH1 0x1 SWAP2 POP POP JUMPDEST SWAP3 SWAP2 POP POP JUMP JUMPDEST CALLER PUSH1 0x0 SWAP1 DUP2 MSTORE PUSH1 0x6B PUSH1 0x20 MSTORE PUSH1 0x40 DUP2 KECCAK256 SLOAD PUSH1 0x60 SWAP2 SUB PUSH2 0x7CC JUMPI PUSH1 0x40 MLOAD PUSH3 0x461BCD PUSH1 0xE5 SHL DUP2 MSTORE PUSH1 0x20 PUSH1 0x4 DUP3 ADD MSTORE PUSH1 0x14 PUSH1 0x24 DUP3 ADD MSTORE PUSH20 0x2AB9B2B9103737BA103932B3B4B9BA32B932B217 PUSH1 0x61 SHL PUSH1 0x44 DUP3 ADD MSTORE PUSH1 0x64 ADD JUMPDEST PUSH1 0x40 MLOAD DUP1 SWAP2 SUB SWAP1 REVERT JUMPDEST PUSH1 0x0 DUP3 GT PUSH2 0x81C JUMPI PUSH1 0x40 MLOAD PUSH3 0x461BCD PUSH1 0xE5 SHL DUP2 MSTORE PUSH1 0x20 PUSH1 0x4 DUP3 ADD MSTORE PUSH1 0x1E PUSH1 0x24 DUP3 ADD MSTORE PUSH32 0x4361706163697479206D7573742062652067726561746572207A65726F2E0000 PUSH1 0x44 DUP3 ADD MSTORE PUSH1 0x64 ADD PUSH2 0x7C3 JUMP JUMPDEST PUSH1 0x71 SLOAD PUSH1 0x0 DUP2 DUP2 MSTORE PUSH1 0x6E PUSH1 0x20 MSTORE PUSH1 0x40 DUP2 KECCAK256 SWAP2 DUP3 SSTORE PUSH1 0x1 DUP3 ADD DUP1 SLOAD PUSH1 0x1 PUSH1 0x1 PUSH1 0xA0 SHL SUB NOT AND CALLER OR SWAP1 SSTORE PUSH1 0x2 DUP3 ADD DUP5 SWAP1 SSTORE PUSH2 0x854 DUP6 PUSH2 0x1B2F JUMP JUMPDEST SWAP1 POP PUSH1 0x0 DUP2 MLOAD PUSH8 0xFFFFFFFFFFFFFFFF DUP2 GT ISZERO PUSH2 0x872 JUMPI PUSH2 0x872 PUSH2 0x25D0 JUMP JUMPDEST PUSH1 0x40 MLOAD SWAP1 DUP1 DUP3 MSTORE DUP1 PUSH1 0x20 MUL PUSH1 0x20 ADD DUP3 ADD PUSH1 0x40 MSTORE DUP1 ISZERO PUSH2 0x89B JUMPI DUP2 PUSH1 0x20 ADD PUSH1 0x20 DUP3 MUL DUP1 CALLDATASIZE DUP4 CALLDATACOPY ADD SWAP1 POP JUMPDEST POP SWAP1 POP PUSH1 0x0 JUMPDEST DUP3 MLOAD DUP2 LT ISZERO PUSH2 0x91F JUMPI PUSH1 0x65 PUSH1 0x0 DUP5 DUP4 DUP2 MLOAD DUP2 LT PUSH2 0x8C0 JUMPI PUSH2 0x8C0 PUSH2 0x2855 JUMP JUMPDEST PUSH1 0x20 MUL PUSH1 0x20 ADD ADD MLOAD DUP2 MSTORE PUSH1 0x20 ADD SWAP1 DUP2 MSTORE PUSH1 0x20 ADD PUSH1 0x0 KECCAK256 PUSH1 0x1 ADD PUSH1 0x0 SWAP1 SLOAD SWAP1 PUSH2 0x100 EXP SWAP1 DIV PUSH1 0x1 PUSH1 0x1 PUSH1 0xA0 SHL SUB AND DUP3 DUP3 DUP2 MLOAD DUP2 LT PUSH2 0x8FF JUMPI PUSH2 0x8FF PUSH2 0x2855 JUMP JUMPDEST PUSH1 0x1 PUSH1 0x1 PUSH1 0xA0 SHL SUB SWAP1 SWAP3 AND PUSH1 0x20 SWAP3 DUP4 MUL SWAP2 SWAP1 SWAP2 ADD SWAP1 SWAP2 ADD MSTORE PUSH1 0x1 ADD PUSH2 0x8A1 JUMP JUMPDEST POP DUP1 MLOAD PUSH2 0x935 SWAP1 PUSH1 0x3 DUP6 ADD SWAP1 PUSH1 0x20 DUP5 ADD SWAP1 PUSH2 0x23CB JUMP JUMPDEST POP PUSH1 0x71 DUP1 SLOAD SWAP1 PUSH1 0x0 PUSH2 0x946 DUP4 PUSH2 0x2881 JUMP JUMPDEST SWAP1 SWAP2 SSTORE POP SWAP2 SWAP7 SWAP6 POP POP POP POP POP POP JUMP JUMPDEST PUSH1 0x0 CALLER PUSH2 0x963 DUP6 DUP3 DUP6 PUSH2 0x1DF5 JUMP JUMPDEST PUSH2 0x96E DUP6 DUP6 DUP6 PUSH2 0x1E87 JUMP JUMPDEST POP PUSH1 0x1 SWAP5 SWAP4 POP POP POP POP JUMP JUMPDEST PUSH1 0x65 PUSH1 0x20 MSTORE PUSH1 0x0 SWAP1 DUP2 MSTORE PUSH1 0x40 SWAP1 KECCAK256 DUP1 SLOAD PUSH1 0x1 DUP3 ADD SLOAD PUSH1 0x2 DUP4 ADD DUP1 SLOAD SWAP3 SWAP4 PUSH1 0x1 PUSH1 0x1 PUSH1 0xA0 SHL SUB SWAP1 SWAP3 AND SWAP3 PUSH2 0x9AB SWAP1 PUSH2 0x2821 JUMP JUMPDEST DUP1 PUSH1 0x1F ADD PUSH1 0x20 DUP1 SWAP2 DIV MUL PUSH1 0x20 ADD PUSH1 0x40 MLOAD SWAP1 DUP2 ADD PUSH1 0x40 MSTORE DUP1 SWAP3 SWAP2 SWAP1 DUP2 DUP2 MSTORE PUSH1 0x20 ADD DUP3 DUP1 SLOAD PUSH2 0x9D7 SWAP1 PUSH2 0x2821 JUMP JUMPDEST DUP1 ISZERO PUSH2 0xA24 JUMPI DUP1 PUSH1 0x1F LT PUSH2 0x9F9 JUMPI PUSH2 0x100 DUP1 DUP4 SLOAD DIV MUL DUP4 MSTORE SWAP2 PUSH1 0x20 ADD SWAP2 PUSH2 0xA24 JUMP JUMPDEST DUP3 ADD SWAP2 SWAP1 PUSH1 0x0 MSTORE PUSH1 0x20 PUSH1 0x0 KECCAK256 SWAP1 JUMPDEST DUP2 SLOAD DUP2 MSTORE SWAP1 PUSH1 0x1 ADD SWAP1 PUSH1 0x20 ADD DUP1 DUP4 GT PUSH2 0xA07 JUMPI DUP3 SWAP1 SUB PUSH1 0x1F AND DUP3 ADD SWAP2 JUMPDEST POP POP POP POP PUSH1 0x3 DUP4 ADD SLOAD PUSH1 0x4 DUP5 ADD SLOAD PUSH1 0x5 SWAP1 SWAP5 ADD SLOAD SWAP3 SWAP4 PUSH4 0xFFFFFFFF SWAP1 SWAP2 AND SWAP3 SWAP1 SWAP2 POP PUSH1 0xFF DUP1 DUP3 AND SWAP2 PUSH2 0x100 SWAP1 DIV AND DUP8 JUMP JUMPDEST PUSH1 0x6A PUSH1 0x20 MSTORE PUSH1 0x0 SWAP1 DUP2 MSTORE PUSH1 0x40 SWAP1 KECCAK256 DUP1 SLOAD PUSH1 0x1 DUP3 ADD SLOAD PUSH1 0x2 DUP4 ADD DUP1 SLOAD SWAP3 SWAP4 PUSH1 0x1 PUSH1 0x1 PUSH1 0xA0 SHL SUB SWAP1 SWAP3 AND SWAP3 PUSH2 0xA87 SWAP1 PUSH2 0x2821 JUMP JUMPDEST DUP1 PUSH1 0x1F ADD PUSH1 0x20 DUP1 SWAP2 DIV MUL PUSH1 0x20 ADD PUSH1 0x40 MLOAD SWAP1 DUP2 ADD PUSH1 0x40 MSTORE DUP1 SWAP3 SWAP2 SWAP1 DUP2 DUP2 MSTORE PUSH1 0x20 ADD DUP3 DUP1 SLOAD PUSH2 0xAB3 SWAP1 PUSH2 0x2821 JUMP JUMPDEST DUP1 ISZERO PUSH2 0xB00 JUMPI DUP1 PUSH1 0x1F LT PUSH2 0xAD5 JUMPI PUSH2 0x100 DUP1 DUP4 SLOAD DIV MUL DUP4 MSTORE SWAP2 PUSH1 0x20 ADD SWAP2 PUSH2 0xB00 JUMP JUMPDEST DUP3 ADD SWAP2 SWAP1 PUSH1 0x0 MSTORE PUSH1 0x20 PUSH1 0x0 KECCAK256 SWAP1 JUMPDEST DUP2 SLOAD DUP2 MSTORE SWAP1 PUSH1 0x1 ADD SWAP1 PUSH1 0x20 ADD DUP1 DUP4 GT PUSH2 0xAE3 JUMPI DUP3 SWAP1 SUB PUSH1 0x1F AND DUP3 ADD SWAP2 JUMPDEST POP POP POP PUSH1 0x3 SWAP1 SWAP4 ADD SLOAD SWAP2 SWAP3 POP POP PUSH1 0xFF AND DUP5 JUMP JUMPDEST CALLER PUSH1 0x0 DUP2 DUP2 MSTORE PUSH1 0x34 PUSH1 0x20 SWAP1 DUP2 MSTORE PUSH1 0x40 DUP1 DUP4 KECCAK256 PUSH1 0x1 PUSH1 0x1 PUSH1 0xA0 SHL SUB DUP8 AND DUP5 MSTORE SWAP1 SWAP2 MSTORE DUP2 KECCAK256 SLOAD SWAP1 SWAP2 SWAP1 PUSH2 0x764 SWAP1 DUP3 SWAP1 DUP7 SWAP1 PUSH2 0xB4D SWAP1 DUP8 SWAP1 PUSH2 0x289A JUMP JUMPDEST PUSH2 0x1A0B JUMP JUMPDEST CALLER PUSH1 0x0 SWAP1 DUP2 MSTORE PUSH1 0x66 PUSH1 0x20 SWAP1 DUP2 MSTORE PUSH1 0x40 DUP1 DUP4 KECCAK256 SLOAD DUP1 DUP5 MSTORE PUSH1 0x65 SWAP1 SWAP3 MSTORE SWAP1 SWAP2 KECCAK256 PUSH1 0x3 DUP2 ADD SLOAD PUSH4 0xFFFFFFFF SWAP1 DUP2 AND SWAP1 DUP5 AND GT ISZERO PUSH2 0xBCE JUMPI PUSH1 0x40 MLOAD PUSH3 0x461BCD PUSH1 0xE5 SHL DUP2 MSTORE PUSH1 0x20 PUSH1 0x4 DUP3 ADD MSTORE PUSH1 0x1E PUSH1 0x24 DUP3 ADD MSTORE PUSH32 0x416D6F756E742065786365656473206C6F636B65642062616C616E63652E0000 PUSH1 0x44 DUP3 ADD MSTORE PUSH1 0x64 ADD PUSH2 0x7C3 JUMP JUMPDEST PUSH1 0x0 DUP4 PUSH4 0xFFFFFFFF AND GT PUSH2 0xBF4 JUMPI PUSH1 0x40 MLOAD PUSH3 0x461BCD PUSH1 0xE5 SHL DUP2 MSTORE PUSH1 0x4 ADD PUSH2 0x7C3 SWAP1 PUSH2 0x28AD JUMP JUMPDEST DUP1 PUSH1 0x4 ADD SLOAD PUSH1 0x0 SUB PUSH2 0xC4E JUMPI PUSH2 0xC0C TIMESTAMP PUSH2 0xC4E0 PUSH2 0x289A JUMP JUMPDEST PUSH1 0x4 DUP3 ADD DUP2 SWAP1 SSTORE PUSH1 0x40 MLOAD SWAP1 DUP2 MSTORE CALLER SWAP1 PUSH32 0x77635F8F13EE1A01D11246347C649817C6EE9FA7620CE4C6ADFA2452BFA162B2 SWAP1 PUSH1 0x20 ADD JUMPDEST PUSH1 0x40 MLOAD DUP1 SWAP2 SUB SWAP1 LOG2 POP POP POP JUMP JUMPDEST DUP1 PUSH1 0x4 ADD SLOAD TIMESTAMP LT ISZERO PUSH2 0xCA2 JUMPI PUSH1 0x40 MLOAD PUSH3 0x461BCD PUSH1 0xE5 SHL DUP2 MSTORE PUSH1 0x20 PUSH1 0x4 DUP3 ADD MSTORE PUSH1 0x18 PUSH1 0x24 DUP3 ADD MSTORE PUSH32 0x546F6B656E7320617265207374696C6C206C6F636B65642E0000000000000000 PUSH1 0x44 DUP3 ADD MSTORE PUSH1 0x64 ADD PUSH2 0x7C3 JUMP JUMPDEST PUSH1 0x3 DUP2 ADD DUP1 SLOAD DUP5 SWAP2 SWAP1 PUSH1 0x0 SWAP1 PUSH2 0xCBF SWAP1 DUP5 SWAP1 PUSH4 0xFFFFFFFF AND PUSH2 0x28EE JUMP JUMPDEST SWAP3 POP PUSH2 0x100 EXP DUP2 SLOAD DUP2 PUSH4 0xFFFFFFFF MUL NOT AND SWAP1 DUP4 PUSH4 0xFFFFFFFF AND MUL OR SWAP1 SSTORE POP PUSH2 0xCED CALLER DUP5 PUSH4 0xFFFFFFFF AND PUSH2 0x2055 JUMP JUMPDEST PUSH1 0x40 MLOAD PUSH4 0xFFFFFFFF DUP5 AND DUP2 MSTORE CALLER SWAP1 PUSH32 0xE7B379C6C1FA169E9079C25E9143B127637EEF8EC8C9D5C06DDB4AB3E1195888 SWAP1 PUSH1 0x20 ADD PUSH2 0xC41 JUMP JUMPDEST POP POP POP JUMP JUMPDEST CALLER PUSH1 0x0 SWAP1 DUP2 MSTORE PUSH1 0x6B PUSH1 0x20 MSTORE PUSH1 0x40 SWAP1 KECCAK256 SLOAD ISZERO PUSH2 0xD87 JUMPI PUSH1 0x40 MLOAD PUSH3 0x461BCD PUSH1 0xE5 SHL DUP2 MSTORE PUSH1 0x20 PUSH1 0x4 DUP3 ADD MSTORE PUSH1 0x18 PUSH1 0x24 DUP3 ADD MSTORE PUSH32 0x5573657220616C726561647920726567697374657265642E0000000000000000 PUSH1 0x44 DUP3 ADD MSTORE PUSH1 0x64 ADD PUSH2 0x7C3 JUMP JUMPDEST PUSH1 0x40 DUP1 MLOAD PUSH1 0x80 DUP2 ADD DUP3 MSTORE PUSH1 0x70 SLOAD DUP1 DUP3 MSTORE CALLER PUSH1 0x20 DUP1 DUP5 ADD SWAP2 DUP3 MSTORE DUP4 DUP6 ADD DUP7 DUP2 MSTORE PUSH1 0x0 PUSH1 0x60 DUP7 ADD DUP2 SWAP1 MSTORE SWAP4 DUP5 MSTORE PUSH1 0x6A SWAP1 SWAP2 MSTORE SWAP4 SWAP1 SWAP2 KECCAK256 DUP3 MLOAD DUP2 SSTORE SWAP1 MLOAD PUSH1 0x1 DUP3 ADD DUP1 SLOAD PUSH1 0x1 PUSH1 0x1 PUSH1 0xA0 SHL SUB NOT AND PUSH1 0x1 PUSH1 0x1 PUSH1 0xA0 SHL SUB SWAP1 SWAP3 AND SWAP2 SWAP1 SWAP2 OR SWAP1 SSTORE SWAP2 MLOAD SWAP1 SWAP2 SWAP1 PUSH1 0x2 DUP3 ADD SWAP1 PUSH2 0xDF6 SWAP1 DUP3 PUSH2 0x295B JUMP JUMPDEST POP PUSH1 0x60 SWAP2 SWAP1 SWAP2 ADD MLOAD PUSH1 0x3 SWAP1 SWAP2 ADD DUP1 SLOAD PUSH1 0xFF NOT AND PUSH1 0xFF SWAP1 SWAP3 AND SWAP2 SWAP1 SWAP2 OR SWAP1 SSTORE PUSH1 0x70 SLOAD PUSH1 0x40 MLOAD PUSH1 0x6C SWAP1 PUSH2 0xE28 SWAP1 DUP5 SWAP1 PUSH2 0x2A1B JUMP JUMPDEST SWAP1 DUP2 MSTORE PUSH1 0x40 MLOAD SWAP1 DUP2 SWAP1 SUB PUSH1 0x20 ADD SWAP1 KECCAK256 SSTORE PUSH1 0x70 DUP1 SLOAD SWAP1 PUSH1 0x0 PUSH2 0xE48 DUP4 PUSH2 0x2881 JUMP JUMPDEST SWAP1 SWAP2 SSTORE POP CALLER PUSH1 0x0 SWAP1 DUP2 MSTORE PUSH1 0x6B PUSH1 0x20 MSTORE PUSH1 0x40 SWAP1 KECCAK256 SSTORE POP JUMP JUMPDEST PUSH1 0x0 DUP1 DUP3 GT DUP1 ISZERO PUSH2 0xE71 JUMPI POP PUSH1 0x6F SLOAD DUP3 LT JUMPDEST PUSH2 0xEB4 JUMPI PUSH1 0x40 MLOAD PUSH3 0x461BCD PUSH1 0xE5 SHL DUP2 MSTORE PUSH1 0x20 PUSH1 0x4 DUP3 ADD MSTORE PUSH1 0x14 PUSH1 0x24 DUP3 ADD MSTORE PUSH20 0x496E76616C69642056616C696461746F72496421 PUSH1 0x60 SHL PUSH1 0x44 DUP3 ADD MSTORE PUSH1 0x64 ADD PUSH2 0x7C3 JUMP JUMPDEST POP PUSH1 0x0 SWAP1 DUP2 MSTORE PUSH1 0x69 PUSH1 0x20 MSTORE PUSH1 0x40 SWAP1 KECCAK256 SLOAD SWAP1 JUMP JUMPDEST PUSH1 0x68 PUSH1 0x20 MSTORE PUSH1 0x0 SWAP1 DUP2 MSTORE PUSH1 0x40 SWAP1 KECCAK256 DUP1 SLOAD PUSH2 0xEE0 SWAP1 PUSH2 0x2821 JUMP JUMPDEST DUP1 PUSH1 0x1F ADD PUSH1 0x20 DUP1 SWAP2 DIV MUL PUSH1 0x20 ADD PUSH1 0x40 MLOAD SWAP1 DUP2 ADD PUSH1 0x40 MSTORE DUP1 SWAP3 SWAP2 SWAP1 DUP2 DUP2 MSTORE PUSH1 0x20 ADD DUP3 DUP1 SLOAD PUSH2 0xF0C SWAP1 PUSH2 0x2821 JUMP JUMPDEST DUP1 ISZERO PUSH2 0xF59 JUMPI DUP1 PUSH1 0x1F LT PUSH2 0xF2E JUMPI PUSH2 0x100 DUP1 DUP4 SLOAD DIV MUL DUP4 MSTORE SWAP2 PUSH1 0x20 ADD SWAP2 PUSH2 0xF59 JUMP JUMPDEST DUP3 ADD SWAP2 SWAP1 PUSH1 0x0 MSTORE PUSH1 0x20 PUSH1 0x0 KECCAK256 SWAP1 JUMPDEST DUP2 SLOAD DUP2 MSTORE SWAP1 PUSH1 0x1 ADD SWAP1 PUSH1 0x20 ADD DUP1 DUP4 GT PUSH2 0xF3C JUMPI DUP3 SWAP1 SUB PUSH1 0x1F AND DUP3 ADD SWAP2 JUMPDEST POP POP POP POP POP DUP2 JUMP JUMPDEST PUSH1 0x0 SLOAD PUSH2 0x100 SWAP1 DIV PUSH1 0xFF AND PUSH2 0xF7C JUMPI PUSH1 0x0 SLOAD PUSH1 0xFF AND ISZERO PUSH2 0xF80 JUMP JUMPDEST ADDRESS EXTCODESIZE ISZERO JUMPDEST PUSH2 0xFE3 JUMPI PUSH1 0x40 MLOAD PUSH3 0x461BCD PUSH1 0xE5 SHL DUP2 MSTORE PUSH1 0x20 PUSH1 0x4 DUP3 ADD MSTORE PUSH1 0x2E PUSH1 0x24 DUP3 ADD MSTORE PUSH32 0x496E697469616C697A61626C653A20636F6E747261637420697320616C726561 PUSH1 0x44 DUP3 ADD MSTORE PUSH14 0x191E481A5B9A5D1A585B1A5E9959 PUSH1 0x92 SHL PUSH1 0x64 DUP3 ADD MSTORE PUSH1 0x84 ADD PUSH2 0x7C3 JUMP JUMPDEST PUSH1 0x0 SLOAD PUSH2 0x100 SWAP1 DIV PUSH1 0xFF AND ISZERO DUP1 ISZERO PUSH2 0x1005 JUMPI PUSH1 0x0 DUP1 SLOAD PUSH2 0xFFFF NOT AND PUSH2 0x101 OR SWAP1 SSTORE JUMPDEST PUSH2 0x104E PUSH1 0x40 MLOAD DUP1 PUSH1 0x40 ADD PUSH1 0x40 MSTORE DUP1 PUSH1 0xA DUP2 MSTORE PUSH1 0x20 ADD PUSH10 0x54656E736F724C696E6B PUSH1 0xB0 SHL DUP2 MSTORE POP PUSH1 0x40 MLOAD DUP1 PUSH1 0x40 ADD PUSH1 0x40 MSTORE DUP1 PUSH1 0x5 DUP2 MSTORE PUSH1 0x20 ADD PUSH5 0x544C494E4B PUSH1 0xD8 SHL DUP2 MSTORE POP PUSH2 0x2135 JUMP JUMPDEST PUSH2 0x1059 CALLER PUSH1 0x64 PUSH2 0x2055 JUMP JUMPDEST PUSH1 0x1 PUSH1 0x6F DUP2 SWAP1 SSTORE PUSH1 0x70 DUP2 SWAP1 SSTORE PUSH1 0x71 SSTORE PUSH1 0x72 DUP1 SLOAD PUSH2 0xFFFF NOT AND PUSH2 0xC02 OR SWAP1 SSTORE DUP1 ISZERO PUSH2 0x1089 JUMPI PUSH1 0x0 DUP1 SLOAD PUSH2 0xFF00 NOT AND SWAP1 SSTORE JUMPDEST POP JUMP JUMPDEST PUSH1 0x60 PUSH1 0x37 DUP1 SLOAD PUSH2 0x6D3 SWAP1 PUSH2 0x2821 JUMP JUMPDEST PUSH1 0x0 DUP2 DUP2 MSTORE PUSH1 0x6D PUSH1 0x20 MSTORE PUSH1 0x40 SWAP1 KECCAK256 DUP1 SLOAD DUP3 EQ PUSH2 0x10EF JUMPI PUSH1 0x40 MLOAD PUSH3 0x461BCD PUSH1 0xE5 SHL DUP2 MSTORE PUSH1 0x20 PUSH1 0x4 DUP3 ADD MSTORE PUSH1 0x13 PUSH1 0x24 DUP3 ADD MSTORE PUSH19 0x2537B1103237B2B9903737BA1032BC34B9BA17 PUSH1 0x69 SHL PUSH1 0x44 DUP3 ADD MSTORE PUSH1 0x64 ADD PUSH2 0x7C3 JUMP JUMPDEST PUSH1 0x4 DUP2 ADD SLOAD PUSH1 0xFF AND ISZERO PUSH2 0x1144 JUMPI PUSH1 0x40 MLOAD PUSH3 0x461BCD PUSH1 0xE5 SHL DUP2 MSTORE PUSH1 0x20 PUSH1 0x4 DUP3 ADD MSTORE PUSH1 0x19 PUSH1 0x24 DUP3 ADD MSTORE PUSH32 0x4A6F6220697320616C726561647920636F6D706C657465642E00000000000000 PUSH1 0x44 DUP3 ADD MSTORE PUSH1 0x64 ADD PUSH2 0x7C3 JUMP JUMPDEST PUSH1 0x0 DUP1 JUMPDEST PUSH1 0x3 DUP4 ADD SLOAD DUP2 LT ISZERO PUSH2 0x1195 JUMPI DUP3 PUSH1 0x3 ADD DUP2 DUP2 SLOAD DUP2 LT PUSH2 0x1169 JUMPI PUSH2 0x1169 PUSH2 0x2855 JUMP JUMPDEST PUSH1 0x0 SWAP2 DUP3 MSTORE PUSH1 0x20 SWAP1 SWAP2 KECCAK256 ADD SLOAD PUSH1 0x1 PUSH1 0x1 PUSH1 0xA0 SHL SUB AND CALLER SUB PUSH2 0x118D JUMPI PUSH1 0x1 SWAP2 POP PUSH2 0x1195 JUMP JUMPDEST PUSH1 0x1 ADD PUSH2 0x1148 JUMP JUMPDEST POP DUP1 PUSH2 0x11FE JUMPI PUSH1 0x40 MLOAD PUSH3 0x461BCD PUSH1 0xE5 SHL DUP2 MSTORE PUSH1 0x20 PUSH1 0x4 DUP3 ADD MSTORE PUSH1 0x32 PUSH1 0x24 DUP3 ADD MSTORE PUSH32 0x4F6E6C792076616C696461746F7273206F662074686973206A6F62206D617920 PUSH1 0x44 DUP3 ADD MSTORE PUSH18 0x31B0B636103A3434B990333AB731BA34B7B7 PUSH1 0x71 SHL PUSH1 0x64 DUP3 ADD MSTORE PUSH1 0x84 ADD PUSH2 0x7C3 JUMP JUMPDEST CALLER PUSH1 0x0 SWAP1 DUP2 MSTORE PUSH1 0x5 DUP4 ADD PUSH1 0x20 MSTORE PUSH1 0x40 SWAP1 KECCAK256 DUP1 SLOAD PUSH1 0xFF NOT AND SWAP1 SSTORE PUSH1 0x40 MLOAD PUSH3 0x461BCD PUSH1 0xE5 SHL DUP2 MSTORE PUSH1 0x4 ADD PUSH2 0x7C3 SWAP1 PUSH1 0x20 DUP1 DUP3 MSTORE PUSH1 0x1C SWAP1 DUP3 ADD MSTORE PUSH32 0x56616C696461746F7220616C726561647920636F6E6669726D65642E00000000 PUSH1 0x40 DUP3 ADD MSTORE PUSH1 0x60 ADD SWAP1 JUMP JUMPDEST PUSH1 0x3 DUP4 ADD SLOAD DUP2 LT ISZERO PUSH2 0x12D8 JUMPI PUSH1 0x0 PUSH1 0x65 PUSH1 0x0 PUSH1 0x66 PUSH1 0x0 DUP8 PUSH1 0x3 ADD DUP7 DUP2 SLOAD DUP2 LT PUSH2 0x128C JUMPI PUSH2 0x128C PUSH2 0x2855 JUMP JUMPDEST PUSH1 0x0 SWAP2 DUP3 MSTORE PUSH1 0x20 DUP1 DUP4 KECCAK256 SWAP1 SWAP2 ADD SLOAD PUSH1 0x1 PUSH1 0x1 PUSH1 0xA0 SHL SUB AND DUP4 MSTORE DUP3 DUP2 ADD SWAP4 SWAP1 SWAP4 MSTORE PUSH1 0x40 SWAP2 DUP3 ADD DUP2 KECCAK256 SLOAD DUP5 MSTORE SWAP2 DUP4 ADD SWAP4 SWAP1 SWAP4 MSTORE SWAP2 ADD DUP2 KECCAK256 DUP1 SLOAD SWAP1 SWAP3 POP PUSH2 0x12CF SWAP2 PUSH2 0x2166 JUMP JUMPDEST POP PUSH1 0x1 ADD PUSH2 0x1261 JUMP JUMPDEST POP PUSH1 0x40 MLOAD DUP4 SWAP1 PUSH32 0x2244C8529CB95E213EE542E76E7776342B3DABD10203D01472BBF4441BE8929 SWAP1 PUSH1 0x0 SWAP1 LOG2 POP POP POP JUMP JUMPDEST CALLER PUSH1 0x0 DUP2 DUP2 MSTORE PUSH1 0x34 PUSH1 0x20 SWAP1 DUP2 MSTORE PUSH1 0x40 DUP1 DUP4 KECCAK256 PUSH1 0x1 PUSH1 0x1 PUSH1 0xA0 SHL SUB DUP8 AND DUP5 MSTORE SWAP1 SWAP2 MSTORE DUP2 KECCAK256 SLOAD SWAP1 SWAP2 SWAP1 DUP4 DUP2 LT ISZERO PUSH2 0x138E JUMPI PUSH1 0x40 MLOAD PUSH3 0x461BCD PUSH1 0xE5 SHL DUP2 MSTORE PUSH1 0x20 PUSH1 0x4 DUP3 ADD MSTORE PUSH1 0x25 PUSH1 0x24 DUP3 ADD MSTORE PUSH32 0x45524332303A2064656372656173656420616C6C6F77616E63652062656C6F77 PUSH1 0x44 DUP3 ADD MSTORE PUSH5 0x207A65726F PUSH1 0xD8 SHL PUSH1 0x64 DUP3 ADD MSTORE PUSH1 0x84 ADD PUSH2 0x7C3 JUMP JUMPDEST PUSH2 0x96E DUP3 DUP7 DUP7 DUP5 SUB PUSH2 0x1A0B JUMP JUMPDEST PUSH1 0x0 CALLER PUSH2 0x764 DUP2 DUP6 DUP6 PUSH2 0x1E87 JUMP JUMPDEST PUSH1 0x67 DUP2 PUSH1 0x40 MLOAD PUSH2 0x13B9 SWAP2 SWAP1 PUSH2 0x2A1B JUMP JUMPDEST SWAP1 DUP2 MSTORE PUSH1 0x20 ADD PUSH1 0x40 MLOAD DUP1 SWAP2 SUB SWAP1 KECCAK256 SLOAD PUSH1 0x0 EQ PUSH2 0x1431 JUMPI PUSH1 0x40 MLOAD PUSH3 0x461BCD PUSH1 0xE5 SHL DUP2 MSTORE PUSH1 0x20 PUSH1 0x4 DUP3 ADD MSTORE PUSH1 0x31 PUSH1 0x24 DUP3 ADD MSTORE PUSH32 0x56616C696461746F7220776974682074686973207075626C69634B6579486173 PUSH1 0x44 DUP3 ADD MSTORE PUSH17 0x341030B63932B0B23C9032BC34B9BA3997 PUSH1 0x79 SHL PUSH1 0x64 DUP3 ADD MSTORE PUSH1 0x84 ADD PUSH2 0x7C3 JUMP JUMPDEST PUSH1 0x6F SLOAD PUSH1 0x0 DUP2 DUP2 MSTORE PUSH1 0x65 PUSH1 0x20 MSTORE PUSH1 0x40 SWAP1 KECCAK256 SWAP1 DUP2 SSTORE PUSH1 0x1 DUP2 ADD DUP1 SLOAD PUSH1 0x1 PUSH1 0x1 PUSH1 0xA0 SHL SUB NOT AND CALLER OR SWAP1 SSTORE PUSH1 0x2 DUP2 ADD PUSH2 0x1467 DUP4 DUP3 PUSH2 0x295B JUMP JUMPDEST POP PUSH1 0x5 DUP2 ADD DUP1 SLOAD PUSH2 0xFF00 NOT AND PUSH2 0x100 OR SWAP1 SSTORE PUSH1 0x6F SLOAD CALLER PUSH1 0x0 SWAP1 DUP2 MSTORE PUSH1 0x66 PUSH1 0x20 MSTORE PUSH1 0x40 SWAP1 DUP2 SWAP1 KECCAK256 DUP3 SWAP1 SSTORE MLOAD PUSH1 0x67 SWAP1 PUSH2 0x149F SWAP1 DUP6 SWAP1 PUSH2 0x2A1B JUMP JUMPDEST SWAP1 DUP2 MSTORE PUSH1 0x40 DUP1 MLOAD PUSH1 0x20 SWAP3 DUP2 SWAP1 SUB DUP4 ADD SWAP1 KECCAK256 SWAP3 SWAP1 SWAP3 SSTORE PUSH1 0x6F SLOAD PUSH1 0x0 SWAP1 DUP2 MSTORE PUSH1 0x68 SWAP1 SWAP2 MSTORE KECCAK256 PUSH2 0x14CC DUP4 DUP3 PUSH2 0x295B JUMP JUMPDEST POP PUSH1 0x6F DUP1 SLOAD PUSH1 0x0 SWAP1 DUP2 MSTORE PUSH1 0x69 PUSH1 0x20 SWAP1 DUP2 MSTORE PUSH1 0x40 SWAP2 DUP3 SWAP1 KECCAK256 PUSH1 0x1 SWAP1 SSTORE SWAP2 SLOAD SWAP1 MLOAD CALLER DUP2 MSTORE SWAP1 SWAP2 PUSH32 0xC278ABAF901EE66C9C5AD86C559C69D95B3121AB80FFA1BB4A0097A9B9AEE6A2 SWAP2 ADD PUSH1 0x40 MLOAD DUP1 SWAP2 SUB SWAP1 LOG2 PUSH1 0x6F DUP1 SLOAD SWAP1 PUSH1 0x0 PUSH2 0x152B DUP4 PUSH2 0x2881 JUMP JUMPDEST SWAP2 SWAP1 POP SSTORE POP POP POP JUMP JUMPDEST PUSH1 0x0 PUSH1 0x6C DUP3 PUSH1 0x40 MLOAD PUSH2 0x1546 SWAP2 SWAP1 PUSH2 0x2A1B JUMP JUMPDEST SWAP1 DUP2 MSTORE PUSH1 0x20 ADD PUSH1 0x40 MLOAD DUP1 SWAP2 SUB SWAP1 KECCAK256 SLOAD SWAP1 POP SWAP2 SWAP1 POP JUMP JUMPDEST CALLER PUSH1 0x0 SWAP1 DUP2 MSTORE PUSH1 0x66 PUSH1 0x20 SWAP1 DUP2 MSTORE PUSH1 0x40 DUP1 DUP4 KECCAK256 SLOAD DUP1 DUP5 MSTORE PUSH1 0x65 SWAP1 SWAP3 MSTORE SWAP1 SWAP2 KECCAK256 PUSH1 0x5 DUP2 ADD SLOAD PUSH2 0x100 SWAP1 DIV PUSH1 0xFF AND PUSH2 0x15CE JUMPI PUSH1 0x40 MLOAD PUSH3 0x461BCD PUSH1 0xE5 SHL DUP2 MSTORE PUSH1 0x20 PUSH1 0x4 DUP3 ADD MSTORE PUSH1 0x18 PUSH1 0x24 DUP3 ADD MSTORE PUSH24 0x2B30B634B230BA37B91034B9903737BA1030B1BA34BB3297 PUSH1 0x41 SHL PUSH1 0x44 DUP3 ADD MSTORE PUSH1 0x64 ADD PUSH2 0x7C3 JUMP JUMPDEST PUSH1 0x0 DUP4 DUP2 MSTORE PUSH1 0x6E PUSH1 0x20 MSTORE PUSH1 0x40 SWAP1 KECCAK256 SLOAD DUP4 EQ PUSH2 0x1637 JUMPI PUSH1 0x40 MLOAD PUSH3 0x461BCD PUSH1 0xE5 SHL DUP2 MSTORE PUSH1 0x20 PUSH1 0x4 DUP3 ADD MSTORE PUSH1 0x24 DUP1 DUP3 ADD MSTORE PUSH32 0x4A6F62206372656174696F6E207265717565737420646F6573206E6F74206578 PUSH1 0x44 DUP3 ADD MSTORE PUSH4 0x34B9BA17 PUSH1 0xE1 SHL PUSH1 0x64 DUP3 ADD MSTORE PUSH1 0x84 ADD PUSH2 0x7C3 JUMP JUMPDEST PUSH1 0x0 DUP4 DUP2 MSTORE PUSH1 0x6E PUSH1 0x20 SWAP1 DUP2 MSTORE PUSH1 0x40 DUP1 DUP4 KECCAK256 PUSH1 0x3 DUP2 ADD SLOAD CALLER DUP6 MSTORE PUSH1 0x4 DUP3 ADD SWAP1 SWAP4 MSTORE SWAP3 KECCAK256 DUP1 SLOAD PUSH1 0xFF NOT AND PUSH1 0x1 OR SWAP1 SSTORE PUSH1 0xFF DUP2 AND PUSH2 0x1671 DUP4 PUSH2 0x2315 JUMP JUMPDEST SUB PUSH2 0x1714 JUMPI PUSH1 0x0 DUP6 DUP2 MSTORE PUSH1 0x6D PUSH1 0x20 MSTORE PUSH1 0x40 SWAP1 KECCAK256 DUP6 DUP2 SSTORE PUSH1 0x1 DUP1 DUP5 ADD SLOAD SWAP1 DUP3 ADD DUP1 SLOAD PUSH1 0x1 PUSH1 0x1 PUSH1 0xA0 SHL SUB NOT AND PUSH1 0x1 PUSH1 0x1 PUSH1 0xA0 SHL SUB SWAP1 SWAP3 AND SWAP2 SWAP1 SWAP2 OR SWAP1 SSTORE PUSH1 0x2 DUP1 DUP5 ADD SLOAD SWAP1 DUP3 ADD SSTORE PUSH1 0x3 DUP1 DUP5 ADD DUP1 SLOAD PUSH2 0x16CB SWAP3 DUP5 ADD SWAP2 SWAP1 PUSH2 0x2430 JUMP JUMPDEST POP PUSH1 0x6 DUP2 ADD DUP1 SLOAD PUSH1 0xFF NOT AND SWAP1 SSTORE PUSH1 0x0 DUP7 DUP2 MSTORE PUSH1 0x6E PUSH1 0x20 MSTORE PUSH1 0x40 DUP2 KECCAK256 DUP2 DUP2 SSTORE PUSH1 0x1 DUP2 ADD DUP1 SLOAD PUSH1 0x1 PUSH1 0x1 PUSH1 0xA0 SHL SUB NOT AND SWAP1 SSTORE PUSH1 0x2 DUP2 ADD DUP3 SWAP1 SSTORE SWAP1 PUSH2 0x1710 PUSH1 0x3 DUP4 ADD DUP3 PUSH2 0x2470 JUMP JUMPDEST POP POP POP JUMPDEST POP POP POP POP POP JUMP JUMPDEST PUSH1 0x0 DUP2 PUSH4 0xFFFFFFFF AND GT PUSH2 0x1741 JUMPI PUSH1 0x40 MLOAD PUSH3 0x461BCD PUSH1 0xE5 SHL DUP2 MSTORE PUSH1 0x4 ADD PUSH2 0x7C3 SWAP1 PUSH2 0x28AD JUMP JUMPDEST CALLER PUSH1 0x0 SWAP1 DUP2 MSTORE PUSH1 0x33 PUSH1 0x20 MSTORE PUSH1 0x40 SWAP1 KECCAK256 SLOAD PUSH4 0xFFFFFFFF DUP3 AND GT ISZERO PUSH2 0x179E JUMPI PUSH1 0x40 MLOAD PUSH3 0x461BCD PUSH1 0xE5 SHL DUP2 MSTORE PUSH1 0x20 PUSH1 0x4 DUP3 ADD MSTORE PUSH1 0x15 PUSH1 0x24 DUP3 ADD MSTORE PUSH21 0x24B739BAB33334B1B4B2B73A103130B630B731B297 PUSH1 0x59 SHL PUSH1 0x44 DUP3 ADD MSTORE PUSH1 0x64 ADD PUSH2 0x7C3 JUMP JUMPDEST CALLER PUSH1 0x0 SWAP1 DUP2 MSTORE PUSH1 0x66 PUSH1 0x20 MSTORE PUSH1 0x40 DUP2 KECCAK256 SLOAD SWAP1 DUP2 SWAP1 SUB PUSH2 0x17FE JUMPI PUSH1 0x40 MLOAD PUSH3 0x461BCD PUSH1 0xE5 SHL DUP2 MSTORE PUSH1 0x20 PUSH1 0x4 DUP3 ADD MSTORE PUSH1 0x19 PUSH1 0x24 DUP3 ADD MSTORE PUSH32 0x56616C696461746F7220646F6573206E6F742065786973742E00000000000000 PUSH1 0x44 DUP3 ADD MSTORE PUSH1 0x64 ADD PUSH2 0x7C3 JUMP JUMPDEST PUSH1 0x0 DUP2 DUP2 MSTORE PUSH1 0x65 PUSH1 0x20 MSTORE PUSH1 0x40 SWAP1 KECCAK256 PUSH1 0x5 DUP2 ADD SLOAD PUSH2 0x100 SWAP1 DIV PUSH1 0xFF AND PUSH2 0x1860 JUMPI PUSH1 0x40 MLOAD PUSH3 0x461BCD PUSH1 0xE5 SHL DUP2 MSTORE PUSH1 0x20 PUSH1 0x4 DUP3 ADD MSTORE PUSH1 0x18 PUSH1 0x24 DUP3 ADD MSTORE PUSH24 0x2B30B634B230BA37B91034B9903737BA1030B1BA34BB3297 PUSH1 0x41 SHL PUSH1 0x44 DUP3 ADD MSTORE PUSH1 0x64 ADD PUSH2 0x7C3 JUMP JUMPDEST PUSH2 0x1871 CALLER ADDRESS DUP6 PUSH4 0xFFFFFFFF AND PUSH2 0x955 JUMP JUMPDEST POP PUSH1 0x3 DUP2 ADD DUP1 SLOAD DUP5 SWAP2 SWAP1 PUSH1 0x0 SWAP1 PUSH2 0x188F SWAP1 DUP5 SWAP1 PUSH4 0xFFFFFFFF AND PUSH2 0x2A37 JUMP JUMPDEST SWAP3 POP PUSH2 0x100 EXP DUP2 SLOAD DUP2 PUSH4 0xFFFFFFFF MUL NOT AND SWAP1 DUP4 PUSH4 0xFFFFFFFF AND MUL OR SWAP1 SSTORE POP CALLER PUSH1 0x1 PUSH1 0x1 PUSH1 0xA0 SHL SUB AND PUSH32 0xAC87F20A77D28EE8BBB58EC87EA8FA968B3393EFAE1A368FD50B767C2847391C DUP5 PUSH1 0x40 MLOAD PUSH2 0xC41 SWAP2 SWAP1 PUSH4 0xFFFFFFFF SWAP2 SWAP1 SWAP2 AND DUP2 MSTORE PUSH1 0x20 ADD SWAP1 JUMP JUMPDEST PUSH1 0x60 PUSH1 0x71 SLOAD DUP3 LT PUSH2 0x193D JUMPI PUSH1 0x40 MLOAD PUSH3 0x461BCD PUSH1 0xE5 SHL DUP2 MSTORE PUSH1 0x20 PUSH1 0x4 DUP3 ADD MSTORE PUSH1 0x15 PUSH1 0x24 DUP3 ADD MSTORE PUSH21 0x125B9D985B1A59081A9BD894995C5D595CDD081251 PUSH1 0x5A SHL PUSH1 0x44 DUP3 ADD MSTORE PUSH1 0x64 ADD PUSH2 0x7C3 JUMP JUMPDEST PUSH1 0x0 DUP3 DUP2 MSTORE PUSH1 0x6E PUSH1 0x20 MSTORE PUSH1 0x40 SWAP1 KECCAK256 DUP1 SLOAD DUP4 SWAP1 SUB PUSH2 0x19C5 JUMPI PUSH1 0x0 DUP4 DUP2 MSTORE PUSH1 0x6E PUSH1 0x20 SWAP1 DUP2 MSTORE PUSH1 0x40 DUP1 DUP4 KECCAK256 PUSH1 0x3 ADD DUP1 SLOAD DUP3 MLOAD DUP2 DUP6 MUL DUP2 ADD DUP6 ADD SWAP1 SWAP4 MSTORE DUP1 DUP4 MSTORE SWAP2 SWAP3 SWAP1 SWAP2 SWAP1 DUP4 ADD DUP3 DUP3 DUP1 ISZERO PUSH2 0x19B7 JUMPI PUSH1 0x20 MUL DUP3 ADD SWAP2 SWAP1 PUSH1 0x0 MSTORE PUSH1 0x20 PUSH1 0x0 KECCAK256 SWAP1 JUMPDEST DUP2 SLOAD PUSH1 0x1 PUSH1 0x1 PUSH1 0xA0 SHL SUB AND DUP2 MSTORE PUSH1 0x1 SWAP1 SWAP2 ADD SWAP1 PUSH1 0x20 ADD DUP1 DUP4 GT PUSH2 0x1999 JUMPI JUMPDEST POP SWAP4 SWAP9 SWAP8 POP POP POP POP POP POP POP POP JUMP JUMPDEST PUSH1 0x40 MLOAD PUSH3 0x461BCD PUSH1 0xE5 SHL DUP2 MSTORE PUSH1 0x20 PUSH1 0x4 DUP3 ADD MSTORE PUSH1 0x15 PUSH1 0x24 DUP3 ADD MSTORE PUSH21 0x4A6F6252657175657374206E6F7420666F756E6421 PUSH1 0x58 SHL PUSH1 0x44 DUP3 ADD MSTORE PUSH1 0x64 ADD PUSH2 0x7C3 JUMP JUMPDEST POP SWAP2 SWAP1 POP JUMP JUMPDEST PUSH1 0x1 PUSH1 0x1 PUSH1 0xA0 SHL SUB DUP4 AND PUSH2 0x1A6D JUMPI PUSH1 0x40 MLOAD PUSH3 0x461BCD PUSH1 0xE5 SHL DUP2 MSTORE PUSH1 0x20 PUSH1 0x4 DUP3 ADD MSTORE PUSH1 0x24 DUP1 DUP3 ADD MSTORE PUSH32 0x45524332303A20617070726F76652066726F6D20746865207A65726F20616464 PUSH1 0x44 DUP3 ADD MSTORE PUSH4 0x72657373 PUSH1 0xE0 SHL PUSH1 0x64 DUP3 ADD MSTORE PUSH1 0x84 ADD PUSH2 0x7C3 JUMP JUMPDEST PUSH1 0x1 PUSH1 0x1 PUSH1 0xA0 SHL SUB DUP3 AND PUSH2 0x1ACE JUMPI PUSH1 0x40 MLOAD PUSH3 0x461BCD PUSH1 0xE5 SHL DUP2 MSTORE PUSH1 0x20 PUSH1 0x4 DUP3 ADD MSTORE PUSH1 0x22 PUSH1 0x24 DUP3 ADD MSTORE PUSH32 0x45524332303A20617070726F766520746F20746865207A65726F206164647265 PUSH1 0x44 DUP3 ADD MSTORE PUSH2 0x7373 PUSH1 0xF0 SHL PUSH1 0x64 DUP3 ADD MSTORE PUSH1 0x84 ADD PUSH2 0x7C3 JUMP JUMPDEST PUSH1 0x1 PUSH1 0x1 PUSH1 0xA0 SHL SUB DUP4 DUP2 AND PUSH1 0x0 DUP2 DUP2 MSTORE PUSH1 0x34 PUSH1 0x20 SWAP1 DUP2 MSTORE PUSH1 0x40 DUP1 DUP4 KECCAK256 SWAP5 DUP8 AND DUP1 DUP5 MSTORE SWAP5 DUP3 MSTORE SWAP2 DUP3 SWAP1 KECCAK256 DUP6 SWAP1 SSTORE SWAP1 MLOAD DUP5 DUP2 MSTORE PUSH32 0x8C5BE1E5EBEC7D5BD14F71427D1E84F3DD0314C0F7B2291E5B200AC8C7C3B925 SWAP2 ADD PUSH1 0x40 MLOAD DUP1 SWAP2 SUB SWAP1 LOG3 POP POP POP JUMP JUMPDEST PUSH1 0x72 SLOAD PUSH1 0x60 SWAP1 PUSH1 0xFF SWAP1 DUP2 AND SWAP1 DUP4 AND LT DUP1 ISZERO SWAP1 PUSH2 0x1B59 JUMPI POP PUSH1 0x72 SLOAD PUSH1 0xFF PUSH2 0x100 SWAP1 SWAP2 DIV DUP2 AND SWAP1 DUP4 AND GT ISZERO JUMPDEST PUSH2 0x1BCB JUMPI PUSH1 0x40 MLOAD PUSH3 0x461BCD PUSH1 0xE5 SHL DUP2 MSTORE PUSH1 0x20 PUSH1 0x4 DUP3 ADD MSTORE PUSH1 0x39 PUSH1 0x24 DUP3 ADD MSTORE PUSH32 0x6E56616C696461746F7273206D757374206265206265747765656E206D696E56 PUSH1 0x44 DUP3 ADD MSTORE PUSH32 0x616C696461746F7220616E64206D617856616C696461746F7200000000000000 PUSH1 0x64 DUP3 ADD MSTORE PUSH1 0x84 ADD PUSH2 0x7C3 JUMP JUMPDEST PUSH1 0x0 DUP3 PUSH1 0xFF AND GT DUP1 ISZERO PUSH2 0x1BE3 JUMPI POP PUSH1 0x6F SLOAD DUP3 PUSH1 0xFF AND GT ISZERO JUMPDEST PUSH2 0x1C57 JUMPI PUSH1 0x40 DUP1 MLOAD PUSH3 0x461BCD PUSH1 0xE5 SHL DUP2 MSTORE PUSH1 0x20 PUSH1 0x4 DUP3 ADD MSTORE PUSH1 0x24 DUP2 ADD SWAP2 SWAP1 SWAP2 MSTORE PUSH32 0x4E6F7420656E6F75676820617661696C61626C652076616C696461746F727320 PUSH1 0x44 DUP3 ADD MSTORE PUSH32 0x666F72206A6F622C20706C656173652074727920616761696E206C617465722E PUSH1 0x64 DUP3 ADD MSTORE PUSH1 0x84 ADD PUSH2 0x7C3 JUMP JUMPDEST PUSH1 0x0 DUP3 PUSH1 0xFF AND PUSH8 0xFFFFFFFFFFFFFFFF DUP2 GT ISZERO PUSH2 0x1C75 JUMPI PUSH2 0x1C75 PUSH2 0x25D0 JUMP JUMPDEST PUSH1 0x40 MLOAD SWAP1 DUP1 DUP3 MSTORE DUP1 PUSH1 0x20 MUL PUSH1 0x20 ADD DUP3 ADD PUSH1 0x40 MSTORE DUP1 ISZERO PUSH2 0x1C9E JUMPI DUP2 PUSH1 0x20 ADD PUSH1 0x20 DUP3 MUL DUP1 CALLDATASIZE DUP4 CALLDATACOPY ADD SWAP1 POP JUMPDEST POP SWAP1 POP PUSH1 0x0 DUP1 JUMPDEST DUP5 PUSH1 0xFF AND DUP2 LT ISZERO PUSH2 0x1DEC JUMPI PUSH1 0x0 JUMPDEST DUP2 DUP4 SUB PUSH2 0x1DE3 JUMPI PUSH1 0x0 PUSH1 0x6F SLOAD TIMESTAMP CALLER DUP5 DUP1 PUSH2 0x1CCC SWAP1 PUSH2 0x2881 JUMP JUMPDEST SWAP6 POP PUSH1 0x40 MLOAD PUSH1 0x20 ADD PUSH2 0x1D03 SWAP4 SWAP3 SWAP2 SWAP1 SWAP3 DUP4 MSTORE PUSH1 0x60 SWAP2 SWAP1 SWAP2 SHL PUSH12 0xFFFFFFFFFFFFFFFFFFFFFFFF NOT AND PUSH1 0x20 DUP4 ADD MSTORE PUSH1 0x34 DUP3 ADD MSTORE PUSH1 0x54 ADD SWAP1 JUMP JUMPDEST PUSH1 0x40 MLOAD PUSH1 0x20 DUP2 DUP4 SUB SUB DUP2 MSTORE SWAP1 PUSH1 0x40 MSTORE DUP1 MLOAD SWAP1 PUSH1 0x20 ADD KECCAK256 PUSH1 0x0 SHR PUSH2 0x1D26 SWAP2 SWAP1 PUSH2 0x2A54 JUMP JUMPDEST PUSH1 0x0 DUP2 DUP2 MSTORE PUSH1 0x69 PUSH1 0x20 MSTORE PUSH1 0x40 SWAP1 KECCAK256 SLOAD SWAP1 SWAP2 POP PUSH1 0x1 SUB PUSH2 0x1D7A JUMPI PUSH2 0x1D4A DUP2 PUSH1 0x1 PUSH2 0x2166 JUMP JUMPDEST DUP1 DUP6 DUP5 DUP2 MLOAD DUP2 LT PUSH2 0x1D5D JUMPI PUSH2 0x1D5D PUSH2 0x2855 JUMP JUMPDEST PUSH1 0x20 SWAP1 DUP2 MUL SWAP2 SWAP1 SWAP2 ADD ADD MSTORE DUP4 PUSH2 0x1D72 DUP2 PUSH2 0x2881 JUMP JUMPDEST SWAP5 POP POP PUSH2 0x1DDD JUMP JUMPDEST PUSH1 0x32 DUP3 LT ISZERO PUSH2 0x1D95 JUMPI DUP2 PUSH2 0x1D8D DUP2 PUSH2 0x2881 JUMP JUMPDEST SWAP3 POP POP PUSH2 0x1DDD JUMP JUMPDEST PUSH1 0x40 MLOAD PUSH3 0x461BCD PUSH1 0xE5 SHL DUP2 MSTORE PUSH1 0x20 PUSH1 0x4 DUP3 ADD MSTORE PUSH1 0x1E PUSH1 0x24 DUP3 ADD MSTORE PUSH32 0x4D61782076616C696461746F7220726571756573747320726561636865640000 PUSH1 0x44 DUP3 ADD MSTORE PUSH1 0x64 ADD PUSH2 0x7C3 JUMP JUMPDEST POP PUSH2 0x1CB3 JUMP JUMPDEST POP PUSH1 0x1 ADD PUSH2 0x1CA5 JUMP JUMPDEST POP SWAP1 SWAP4 SWAP3 POP POP POP JUMP JUMPDEST PUSH1 0x1 PUSH1 0x1 PUSH1 0xA0 SHL SUB DUP4 DUP2 AND PUSH1 0x0 SWAP1 DUP2 MSTORE PUSH1 0x34 PUSH1 0x20 SWAP1 DUP2 MSTORE PUSH1 0x40 DUP1 DUP4 KECCAK256 SWAP4 DUP7 AND DUP4 MSTORE SWAP3 SWAP1 MSTORE KECCAK256 SLOAD PUSH1 0x0 NOT DUP2 EQ PUSH2 0x1E81 JUMPI DUP2 DUP2 LT ISZERO PUSH2 0x1E74 JUMPI PUSH1 0x40 MLOAD PUSH3 0x461BCD PUSH1 0xE5 SHL DUP2 MSTORE PUSH1 0x20 PUSH1 0x4 DUP3 ADD MSTORE PUSH1 0x1D PUSH1 0x24 DUP3 ADD MSTORE PUSH32 0x45524332303A20696E73756666696369656E7420616C6C6F77616E6365000000 PUSH1 0x44 DUP3 ADD MSTORE PUSH1 0x64 ADD PUSH2 0x7C3 JUMP JUMPDEST PUSH2 0x1E81 DUP5 DUP5 DUP5 DUP5 SUB PUSH2 0x1A0B JUMP JUMPDEST POP POP POP POP JUMP JUMPDEST PUSH1 0x1 PUSH1 0x1 PUSH1 0xA0 SHL SUB DUP4 AND PUSH2 0x1EEB JUMPI PUSH1 0x40 MLOAD PUSH3 0x461BCD PUSH1 0xE5 SHL DUP2 MSTORE PUSH1 0x20 PUSH1 0x4 DUP3 ADD MSTORE PUSH1 0x25 PUSH1 0x24 DUP3 ADD MSTORE PUSH32 0x45524332303A207472616E736665722066726F6D20746865207A65726F206164 PUSH1 0x44 DUP3 ADD MSTORE PUSH5 0x6472657373 PUSH1 0xD8 SHL PUSH1 0x64 DUP3 ADD MSTORE PUSH1 0x84 ADD PUSH2 0x7C3 JUMP JUMPDEST PUSH1 0x1 PUSH1 0x1 PUSH1 0xA0 SHL SUB DUP3 AND PUSH2 0x1F4D JUMPI PUSH1 0x40 MLOAD PUSH3 0x461BCD PUSH1 0xE5 SHL DUP2 MSTORE PUSH1 0x20 PUSH1 0x4 DUP3 ADD MSTORE PUSH1 0x23 PUSH1 0x24 DUP3 ADD MSTORE PUSH32 0x45524332303A207472616E7366657220746F20746865207A65726F2061646472 PUSH1 0x44 DUP3 ADD MSTORE PUSH3 0x657373 PUSH1 0xE8 SHL PUSH1 0x64 DUP3 ADD MSTORE PUSH1 0x84 ADD PUSH2 0x7C3 JUMP JUMPDEST PUSH1 0x1 PUSH1 0x1 PUSH1 0xA0 SHL SUB DUP4 AND PUSH1 0x0 SWAP1 DUP2 MSTORE PUSH1 0x33 PUSH1 0x20 MSTORE PUSH1 0x40 SWAP1 KECCAK256 SLOAD DUP2 DUP2 LT ISZERO PUSH2 0x1FC5 JUMPI PUSH1 0x40 MLOAD PUSH3 0x461BCD PUSH1 0xE5 SHL DUP2 MSTORE PUSH1 0x20 PUSH1 0x4 DUP3 ADD MSTORE PUSH1 0x26 PUSH1 0x24 DUP3 ADD MSTORE PUSH32 0x45524332303A207472616E7366657220616D6F756E7420657863656564732062 PUSH1 0x44 DUP3 ADD MSTORE PUSH6 0x616C616E6365 PUSH1 0xD0 SHL PUSH1 0x64 DUP3 ADD MSTORE PUSH1 0x84 ADD PUSH2 0x7C3 JUMP JUMPDEST PUSH1 0x1 PUSH1 0x1 PUSH1 0xA0 SHL SUB DUP1 DUP6 AND PUSH1 0x0 SWAP1 DUP2 MSTORE PUSH1 0x33 PUSH1 0x20 MSTORE PUSH1 0x40 DUP1 DUP3 KECCAK256 DUP6 DUP6 SUB SWAP1 SSTORE SWAP2 DUP6 AND DUP2 MSTORE SWAP1 DUP2 KECCAK256 DUP1 SLOAD DUP5 SWAP3 SWAP1 PUSH2 0x1FFC SWAP1 DUP5 SWAP1 PUSH2 0x289A JUMP JUMPDEST SWAP3 POP POP DUP2 SWAP1 SSTORE POP DUP3 PUSH1 0x1 PUSH1 0x1 PUSH1 0xA0 SHL SUB AND DUP5 PUSH1 0x1 PUSH1 0x1 PUSH1 0xA0 SHL SUB AND PUSH32 0xDDF252AD1BE2C89B69C2B068FC378DAA952BA7F163C4A11628F55A4DF523B3EF DUP5 PUSH1 0x40 MLOAD PUSH2 0x2048 SWAP2 DUP2 MSTORE PUSH1 0x20 ADD SWAP1 JUMP JUMPDEST PUSH1 0x40 MLOAD DUP1 SWAP2 SUB SWAP1 LOG3 PUSH2 0x1E81 JUMP JUMPDEST PUSH1 0x1 PUSH1 0x1 PUSH1 0xA0 SHL SUB DUP3 AND PUSH2 0x20AB JUMPI PUSH1 0x40 MLOAD PUSH3 0x461BCD PUSH1 0xE5 SHL DUP2 MSTORE PUSH1 0x20 PUSH1 0x4 DUP3 ADD MSTORE PUSH1 0x1F PUSH1 0x24 DUP3 ADD MSTORE PUSH32 0x45524332303A206D696E7420746F20746865207A65726F206164647265737300 PUSH1 0x44 DUP3 ADD MSTORE PUSH1 0x64 ADD PUSH2 0x7C3 JUMP JUMPDEST DUP1 PUSH1 0x35 PUSH1 0x0 DUP3 DUP3 SLOAD PUSH2 0x20BD SWAP2 SWAP1 PUSH2 0x289A JUMP JUMPDEST SWAP1 SWAP2 SSTORE POP POP PUSH1 0x1 PUSH1 0x1 PUSH1 0xA0 SHL SUB DUP3 AND PUSH1 0x0 SWAP1 DUP2 MSTORE PUSH1 0x33 PUSH1 0x20 MSTORE PUSH1 0x40 DUP2 KECCAK256 DUP1 SLOAD DUP4 SWAP3 SWAP1 PUSH2 0x20EA SWAP1 DUP5 SWAP1 PUSH2 0x289A JUMP JUMPDEST SWAP1 SWAP2 SSTORE POP POP PUSH1 0x40 MLOAD DUP2 DUP2 MSTORE PUSH1 0x1 PUSH1 0x1 PUSH1 0xA0 SHL SUB DUP4 AND SWAP1 PUSH1 0x0 SWAP1 PUSH32 0xDDF252AD1BE2C89B69C2B068FC378DAA952BA7F163C4A11628F55A4DF523B3EF SWAP1 PUSH1 0x20 ADD PUSH1 0x40 MLOAD DUP1 SWAP2 SUB SWAP1 LOG3 JUMPDEST POP POP JUMP JUMPDEST PUSH1 0x0 SLOAD PUSH2 0x100 SWAP1 DIV PUSH1 0xFF AND PUSH2 0x215C JUMPI PUSH1 0x40 MLOAD PUSH3 0x461BCD PUSH1 0xE5 SHL DUP2 MSTORE PUSH1 0x4 ADD PUSH2 0x7C3 SWAP1 PUSH2 0x2A76 JUMP JUMPDEST PUSH2 0x2131 DUP3 DUP3 PUSH2 0x238B JUMP JUMPDEST PUSH1 0x0 DUP3 GT DUP1 ISZERO PUSH2 0x2177 JUMPI POP PUSH1 0x6F SLOAD DUP3 LT JUMPDEST PUSH2 0x21B9 JUMPI PUSH1 0x40 MLOAD PUSH3 0x461BCD PUSH1 0xE5 SHL DUP2 MSTORE PUSH1 0x20 PUSH1 0x4 DUP3 ADD MSTORE PUSH1 0x13 PUSH1 0x24 DUP3 ADD MSTORE PUSH19 0x125B9D985B1A590815985B1A59185D1BDC9259 PUSH1 0x6A SHL PUSH1 0x44 DUP3 ADD MSTORE PUSH1 0x64 ADD PUSH2 0x7C3 JUMP JUMPDEST PUSH1 0x0 DUP3 DUP2 MSTORE PUSH1 0x69 PUSH1 0x20 MSTORE PUSH1 0x40 SWAP1 KECCAK256 SLOAD PUSH2 0x2214 JUMPI PUSH1 0x40 MLOAD PUSH3 0x461BCD PUSH1 0xE5 SHL DUP2 MSTORE PUSH1 0x20 PUSH1 0x4 DUP3 ADD MSTORE PUSH1 0x18 PUSH1 0x24 DUP3 ADD MSTORE PUSH32 0x56616C696461746F72206973206E6F74206F6E6C696E652E0000000000000000 PUSH1 0x44 DUP3 ADD MSTORE PUSH1 0x64 ADD PUSH2 0x7C3 JUMP JUMPDEST DUP1 ISZERO PUSH2 0x22A2 JUMPI PUSH1 0x0 DUP3 DUP2 MSTORE PUSH1 0x69 PUSH1 0x20 MSTORE PUSH1 0x40 SWAP1 KECCAK256 SLOAD PUSH1 0x1 SUB PUSH2 0x2245 JUMPI POP PUSH1 0x0 SWAP1 DUP2 MSTORE PUSH1 0x69 PUSH1 0x20 MSTORE PUSH1 0x40 SWAP1 KECCAK256 PUSH1 0x2 SWAP1 SSTORE JUMP JUMPDEST PUSH1 0x40 MLOAD PUSH3 0x461BCD PUSH1 0xE5 SHL DUP2 MSTORE PUSH1 0x20 PUSH1 0x4 DUP3 ADD MSTORE PUSH1 0x2C PUSH1 0x24 DUP3 ADD MSTORE PUSH32 0x56616C696461746F72206265696E672061637469766174656420697320616C72 PUSH1 0x44 DUP3 ADD MSTORE PUSH12 0x656164792061637469766521 PUSH1 0xA0 SHL PUSH1 0x64 DUP3 ADD MSTORE PUSH1 0x84 ADD PUSH2 0x7C3 JUMP JUMPDEST PUSH1 0x0 DUP3 DUP2 MSTORE PUSH1 0x69 PUSH1 0x20 MSTORE PUSH1 0x40 SWAP1 KECCAK256 SLOAD PUSH1 0x2 SUB PUSH2 0x22CD JUMPI POP PUSH1 0x0 SWAP1 DUP2 MSTORE PUSH1 0x69 PUSH1 0x20 MSTORE PUSH1 0x40 SWAP1 KECCAK256 PUSH1 0x1 SWAP1 SSTORE JUMP JUMPDEST PUSH1 0x40 MLOAD PUSH3 0x461BCD PUSH1 0xE5 SHL DUP2 MSTORE PUSH1 0x20 PUSH1 0x4 DUP3 ADD MSTORE PUSH1 0x1E PUSH1 0x24 DUP3 ADD MSTORE PUSH32 0x56616C696461746F7220697320616C726561647920696E616374697665210000 PUSH1 0x44 DUP3 ADD MSTORE PUSH1 0x64 ADD PUSH2 0x7C3 JUMP JUMPDEST PUSH1 0x0 DUP1 DUP1 JUMPDEST PUSH1 0x3 DUP5 ADD SLOAD DUP2 LT ISZERO PUSH2 0x2384 JUMPI DUP4 PUSH1 0x4 ADD PUSH1 0x0 DUP6 PUSH1 0x3 ADD DUP4 DUP2 SLOAD DUP2 LT PUSH2 0x2341 JUMPI PUSH2 0x2341 PUSH2 0x2855 JUMP JUMPDEST PUSH1 0x0 SWAP2 DUP3 MSTORE PUSH1 0x20 DUP1 DUP4 KECCAK256 SWAP1 SWAP2 ADD SLOAD PUSH1 0x1 PUSH1 0x1 PUSH1 0xA0 SHL SUB AND DUP4 MSTORE DUP3 ADD SWAP3 SWAP1 SWAP3 MSTORE PUSH1 0x40 ADD SWAP1 KECCAK256 SLOAD PUSH1 0xFF AND ISZERO PUSH2 0x237C JUMPI DUP2 PUSH2 0x2378 DUP2 PUSH2 0x2881 JUMP JUMPDEST SWAP3 POP POP JUMPDEST PUSH1 0x1 ADD PUSH2 0x231A JUMP JUMPDEST POP SWAP3 SWAP2 POP POP JUMP JUMPDEST PUSH1 0x0 SLOAD PUSH2 0x100 SWAP1 DIV PUSH1 0xFF AND PUSH2 0x23B2 JUMPI PUSH1 0x40 MLOAD PUSH3 0x461BCD PUSH1 0xE5 SHL DUP2 MSTORE PUSH1 0x4 ADD PUSH2 0x7C3 SWAP1 PUSH2 0x2A76 JUMP JUMPDEST PUSH1 0x36 PUSH2 0x23BE DUP4 DUP3 PUSH2 0x295B JUMP JUMPDEST POP PUSH1 0x37 PUSH2 0xD25 DUP3 DUP3 PUSH2 0x295B JUMP JUMPDEST DUP3 DUP1 SLOAD DUP3 DUP3 SSTORE SWAP1 PUSH1 0x0 MSTORE PUSH1 0x20 PUSH1 0x0 KECCAK256 SWAP1 DUP2 ADD SWAP3 DUP3 ISZERO PUSH2 0x2420 JUMPI SWAP2 PUSH1 0x20 MUL DUP3 ADD JUMPDEST DUP3 DUP2 GT ISZERO PUSH2 0x2420 JUMPI DUP3 MLOAD DUP3 SLOAD PUSH1 0x1 PUSH1 0x1 PUSH1 0xA0 SHL SUB NOT AND PUSH1 0x1 PUSH1 0x1 PUSH1 0xA0 SHL SUB SWAP1 SWAP2 AND OR DUP3 SSTORE PUSH1 0x20 SWAP1 SWAP3 ADD SWAP2 PUSH1 0x1 SWAP1 SWAP2 ADD SWAP1 PUSH2 0x23EB JUMP JUMPDEST POP PUSH2 0x242C SWAP3 SWAP2 POP PUSH2 0x248A JUMP JUMPDEST POP SWAP1 JUMP JUMPDEST DUP3 DUP1 SLOAD DUP3 DUP3 SSTORE SWAP1 PUSH1 0x0 MSTORE PUSH1 0x20 PUSH1 0x0 KECCAK256 SWAP1 DUP2 ADD SWAP3 DUP3 ISZERO PUSH2 0x2420 JUMPI PUSH1 0x0 MSTORE PUSH1 0x20 PUSH1 0x0 KECCAK256 SWAP2 DUP3 ADD JUMPDEST DUP3 DUP2 GT ISZERO PUSH2 0x2420 JUMPI DUP3 SLOAD DUP3 SSTORE SWAP2 PUSH1 0x1 ADD SWAP2 SWAP1 PUSH1 0x1 ADD SWAP1 PUSH2 0x2455 JUMP JUMPDEST POP DUP1 SLOAD PUSH1 0x0 DUP3 SSTORE SWAP1 PUSH1 0x0 MSTORE PUSH1 0x20 PUSH1 0x0 KECCAK256 SWAP1 DUP2 ADD SWAP1 PUSH2 0x1089 SWAP2 SWAP1 JUMPDEST JUMPDEST DUP1 DUP3 GT ISZERO PUSH2 0x242C JUMPI PUSH1 0x0 DUP2 SSTORE PUSH1 0x1 ADD PUSH2 0x248B JUMP JUMPDEST PUSH1 0x0 JUMPDEST DUP4 DUP2 LT ISZERO PUSH2 0x24BA JUMPI DUP2 DUP2 ADD MLOAD DUP4 DUP3 ADD MSTORE PUSH1 0x20 ADD PUSH2 0x24A2 JUMP JUMPDEST POP POP PUSH1 0x0 SWAP2 ADD MSTORE JUMP JUMPDEST PUSH1 0x0 DUP2 MLOAD DUP1 DUP5 MSTORE PUSH2 0x24DB DUP2 PUSH1 0x20 DUP7 ADD PUSH1 0x20 DUP7 ADD PUSH2 0x249F JUMP JUMPDEST PUSH1 0x1F ADD PUSH1 0x1F NOT AND SWAP3 SWAP1 SWAP3 ADD PUSH1 0x20 ADD SWAP3 SWAP2 POP POP JUMP JUMPDEST PUSH1 0x20 DUP2 MSTORE PUSH1 0x0 PUSH2 0x2502 PUSH1 0x20 DUP4 ADD DUP5 PUSH2 0x24C3 JUMP JUMPDEST SWAP4 SWAP3 POP POP POP JUMP JUMPDEST DUP1 CALLDATALOAD PUSH1 0x1 PUSH1 0x1 PUSH1 0xA0 SHL SUB DUP2 AND DUP2 EQ PUSH2 0x2520 JUMPI PUSH1 0x0 DUP1 REVERT JUMPDEST SWAP2 SWAP1 POP JUMP JUMPDEST PUSH1 0x0 DUP1 PUSH1 0x40 DUP4 DUP6 SUB SLT ISZERO PUSH2 0x2538 JUMPI PUSH1 0x0 DUP1 REVERT JUMPDEST PUSH2 0x2541 DUP4 PUSH2 0x2509 JUMP JUMPDEST SWAP5 PUSH1 0x20 SWAP4 SWAP1 SWAP4 ADD CALLDATALOAD SWAP4 POP POP POP JUMP JUMPDEST PUSH1 0x0 DUP1 PUSH1 0x40 DUP4 DUP6 SUB SLT ISZERO PUSH2 0x2562 JUMPI PUSH1 0x0 DUP1 REVERT JUMPDEST DUP3 CALLDATALOAD PUSH1 0xFF DUP2 AND DUP2 EQ PUSH2 0x2541 JUMPI PUSH1 0x0 DUP1 REVERT JUMPDEST PUSH1 0x20 DUP1 DUP3 MSTORE DUP3 MLOAD DUP3 DUP3 ADD DUP2 SWAP1 MSTORE PUSH1 0x0 SWAP2 SWAP1 DUP5 DUP3 ADD SWAP1 PUSH1 0x40 DUP6 ADD SWAP1 DUP5 JUMPDEST DUP2 DUP2 LT ISZERO PUSH2 0x25AB JUMPI DUP4 MLOAD DUP4 MSTORE SWAP3 DUP5 ADD SWAP3 SWAP2 DUP5 ADD SWAP2 PUSH1 0x1 ADD PUSH2 0x258F JUMP JUMPDEST POP SWAP1 SWAP7 SWAP6 POP POP POP POP POP POP JUMP JUMPDEST PUSH1 0x0 PUSH1 0x20 DUP3 DUP5 SUB SLT ISZERO PUSH2 0x25C9 JUMPI PUSH1 0x0 DUP1 REVERT JUMPDEST POP CALLDATALOAD SWAP2 SWAP1 POP JUMP JUMPDEST PUSH4 0x4E487B71 PUSH1 0xE0 SHL PUSH1 0x0 MSTORE PUSH1 0x41 PUSH1 0x4 MSTORE PUSH1 0x24 PUSH1 0x0 REVERT JUMPDEST PUSH1 0x0 PUSH1 0x20 DUP3 DUP5 SUB SLT ISZERO PUSH2 0x25F8 JUMPI PUSH1 0x0 DUP1 REVERT JUMPDEST DUP2 CALLDATALOAD PUSH8 0xFFFFFFFFFFFFFFFF DUP1 DUP3 GT ISZERO PUSH2 0x2610 JUMPI PUSH1 0x0 DUP1 REVERT JUMPDEST DUP2 DUP5 ADD SWAP2 POP DUP5 PUSH1 0x1F DUP4 ADD SLT PUSH2 0x2624 JUMPI PUSH1 0x0 DUP1 REVERT JUMPDEST DUP2 CALLDATALOAD DUP2 DUP2 GT ISZERO PUSH2 0x2636 JUMPI PUSH2 0x2636 PUSH2 0x25D0 JUMP JUMPDEST PUSH1 0x40 MLOAD PUSH1 0x1F DUP3 ADD PUSH1 0x1F NOT SWAP1 DUP2 AND PUSH1 0x3F ADD AND DUP2 ADD SWAP1 DUP4 DUP3 GT DUP2 DUP4 LT OR ISZERO PUSH2 0x265E JUMPI PUSH2 0x265E PUSH2 0x25D0 JUMP JUMPDEST DUP2 PUSH1 0x40 MSTORE DUP3 DUP2 MSTORE DUP8 PUSH1 0x20 DUP5 DUP8 ADD ADD GT ISZERO PUSH2 0x2677 JUMPI PUSH1 0x0 DUP1 REVERT JUMPDEST DUP3 PUSH1 0x20 DUP7 ADD PUSH1 0x20 DUP4 ADD CALLDATACOPY PUSH1 0x0 SWAP3 DUP2 ADD PUSH1 0x20 ADD SWAP3 SWAP1 SWAP3 MSTORE POP SWAP6 SWAP5 POP POP POP POP POP JUMP JUMPDEST PUSH1 0x0 DUP1 PUSH1 0x0 PUSH1 0x60 DUP5 DUP7 SUB SLT ISZERO PUSH2 0x26AC JUMPI PUSH1 0x0 DUP1 REVERT JUMPDEST PUSH2 0x26B5 DUP5 PUSH2 0x2509 JUMP JUMPDEST SWAP3 POP PUSH2 0x26C3 PUSH1 0x20 DUP6 ADD PUSH2 0x2509 JUMP JUMPDEST SWAP2 POP PUSH1 0x40 DUP5 ADD CALLDATALOAD SWAP1 POP SWAP3 POP SWAP3 POP SWAP3 JUMP JUMPDEST PUSH1 0x0 PUSH1 0x20 DUP3 DUP5 SUB SLT ISZERO PUSH2 0x26E5 JUMPI PUSH1 0x0 DUP1 REVERT JUMPDEST PUSH2 0x2502 DUP3 PUSH2 0x2509 JUMP JUMPDEST DUP8 DUP2 MSTORE PUSH1 0x1 PUSH1 0x1 PUSH1 0xA0 SHL SUB DUP8 AND PUSH1 0x20 DUP3 ADD MSTORE PUSH1 0xE0 PUSH1 0x40 DUP3 ADD DUP2 SWAP1 MSTORE PUSH1 0x0 SWAP1 PUSH2 0x2718 SWAP1 DUP4 ADD DUP9 PUSH2 0x24C3 JUMP JUMPDEST SWAP1 POP PUSH4 0xFFFFFFFF DUP7 AND PUSH1 0x60 DUP4 ADD MSTORE DUP5 PUSH1 0x80 DUP4 ADD MSTORE PUSH1 0xFF DUP5 AND PUSH1 0xA0 DUP4 ADD MSTORE DUP3 ISZERO ISZERO PUSH1 0xC0 DUP4 ADD MSTORE SWAP9 SWAP8 POP POP POP POP POP POP POP POP JUMP JUMPDEST DUP5 DUP2 MSTORE PUSH1 0x1 PUSH1 0x1 PUSH1 0xA0 SHL SUB DUP5 AND PUSH1 0x20 DUP3 ADD MSTORE PUSH1 0x80 PUSH1 0x40 DUP3 ADD DUP2 SWAP1 MSTORE PUSH1 0x0 SWAP1 PUSH2 0x2773 SWAP1 DUP4 ADD DUP6 PUSH2 0x24C3 JUMP JUMPDEST SWAP1 POP PUSH1 0xFF DUP4 AND PUSH1 0x60 DUP4 ADD MSTORE SWAP6 SWAP5 POP POP POP POP POP JUMP JUMPDEST PUSH1 0x0 PUSH1 0x20 DUP3 DUP5 SUB SLT ISZERO PUSH2 0x2799 JUMPI PUSH1 0x0 DUP1 REVERT JUMPDEST DUP2 CALLDATALOAD PUSH4 0xFFFFFFFF DUP2 AND DUP2 EQ PUSH2 0x2502 JUMPI PUSH1 0x0 DUP1 REVERT JUMPDEST PUSH1 0x0 DUP1 PUSH1 0x40 DUP4 DUP6 SUB SLT ISZERO PUSH2 0x27C0 JUMPI PUSH1 0x0 DUP1 REVERT JUMPDEST PUSH2 0x27C9 DUP4 PUSH2 0x2509 JUMP JUMPDEST SWAP2 POP PUSH2 0x27D7 PUSH1 0x20 DUP5 ADD PUSH2 0x2509 JUMP JUMPDEST SWAP1 POP SWAP3 POP SWAP3 SWAP1 POP JUMP JUMPDEST PUSH1 0x20 DUP1 DUP3 MSTORE DUP3 MLOAD DUP3 DUP3 ADD DUP2 SWAP1 MSTORE PUSH1 0x0 SWAP2 SWAP1 DUP5 DUP3 ADD SWAP1 PUSH1 0x40 DUP6 ADD SWAP1 DUP5 JUMPDEST DUP2 DUP2 LT ISZERO PUSH2 0x25AB JUMPI DUP4 MLOAD PUSH1 0x1 PUSH1 0x1 PUSH1 0xA0 SHL SUB AND DUP4 MSTORE SWAP3 DUP5 ADD SWAP3 SWAP2 DUP5 ADD SWAP2 PUSH1 0x1 ADD PUSH2 0x27FC JUMP JUMPDEST PUSH1 0x1 DUP2 DUP2 SHR SWAP1 DUP3 AND DUP1 PUSH2 0x2835 JUMPI PUSH1 0x7F DUP3 AND SWAP2 POP JUMPDEST PUSH1 0x20 DUP3 LT DUP2 SUB PUSH2 0x1A05 JUMPI PUSH4 0x4E487B71 PUSH1 0xE0 SHL PUSH1 0x0 MSTORE PUSH1 0x22 PUSH1 0x4 MSTORE PUSH1 0x24 PUSH1 0x0 REVERT JUMPDEST PUSH4 0x4E487B71 PUSH1 0xE0 SHL PUSH1 0x0 MSTORE PUSH1 0x32 PUSH1 0x4 MSTORE PUSH1 0x24 PUSH1 0x0 REVERT JUMPDEST PUSH4 0x4E487B71 PUSH1 0xE0 SHL PUSH1 0x0 MSTORE PUSH1 0x11 PUSH1 0x4 MSTORE PUSH1 0x24 PUSH1 0x0 REVERT JUMPDEST PUSH1 0x0 PUSH1 0x1 DUP3 ADD PUSH2 0x2893 JUMPI PUSH2 0x2893 PUSH2 0x286B JUMP JUMPDEST POP PUSH1 0x1 ADD SWAP1 JUMP JUMPDEST DUP1 DUP3 ADD DUP1 DUP3 GT ISZERO PUSH2 0x76A JUMPI PUSH2 0x76A PUSH2 0x286B JUMP JUMPDEST PUSH1 0x20 DUP1 DUP3 MSTORE PUSH1 0x21 SWAP1 DUP3 ADD MSTORE PUSH32 0x416D6F756E74206D7573742062652067726561746572207468616E207A65726F PUSH1 0x40 DUP3 ADD MSTORE PUSH1 0x17 PUSH1 0xF9 SHL PUSH1 0x60 DUP3 ADD MSTORE PUSH1 0x80 ADD SWAP1 JUMP JUMPDEST PUSH4 0xFFFFFFFF DUP3 DUP2 AND DUP3 DUP3 AND SUB SWAP1 DUP1 DUP3 GT ISZERO PUSH2 0x2384 JUMPI PUSH2 0x2384 PUSH2 0x286B JUMP JUMPDEST PUSH1 0x1F DUP3 GT ISZERO PUSH2 0xD25 JUMPI PUSH1 0x0 DUP2 PUSH1 0x0 MSTORE PUSH1 0x20 PUSH1 0x0 KECCAK256 PUSH1 0x1F DUP6 ADD PUSH1 0x5 SHR DUP2 ADD PUSH1 0x20 DUP7 LT ISZERO PUSH2 0x2934 JUMPI POP DUP1 JUMPDEST PUSH1 0x1F DUP6 ADD PUSH1 0x5 SHR DUP3 ADD SWAP2 POP JUMPDEST DUP2 DUP2 LT ISZERO PUSH2 0x2953 JUMPI DUP3 DUP2 SSTORE PUSH1 0x1 ADD PUSH2 0x2940 JUMP JUMPDEST POP POP POP POP POP POP JUMP JUMPDEST DUP2 MLOAD PUSH8 0xFFFFFFFFFFFFFFFF DUP2 GT ISZERO PUSH2 0x2975 JUMPI PUSH2 0x2975 PUSH2 0x25D0 JUMP JUMPDEST PUSH2 0x2989 DUP2 PUSH2 0x2983 DUP5 SLOAD PUSH2 0x2821 JUMP JUMPDEST DUP5 PUSH2 0x290B JUMP JUMPDEST PUSH1 0x20 DUP1 PUSH1 0x1F DUP4 GT PUSH1 0x1 DUP2 EQ PUSH2 0x29BE JUMPI PUSH1 0x0 DUP5 ISZERO PUSH2 0x29A6 JUMPI POP DUP6 DUP4 ADD MLOAD JUMPDEST PUSH1 0x0 NOT PUSH1 0x3 DUP7 SWAP1 SHL SHR NOT AND PUSH1 0x1 DUP6 SWAP1 SHL OR DUP6 SSTORE PUSH2 0x2953 JUMP JUMPDEST PUSH1 0x0 DUP6 DUP2 MSTORE PUSH1 0x20 DUP2 KECCAK256 PUSH1 0x1F NOT DUP7 AND SWAP2 JUMPDEST DUP3 DUP2 LT ISZERO PUSH2 0x29ED JUMPI DUP9 DUP7 ADD MLOAD DUP3 SSTORE SWAP5 DUP5 ADD SWAP5 PUSH1 0x1 SWAP1 SWAP2 ADD SWAP1 DUP5 ADD PUSH2 0x29CE JUMP JUMPDEST POP DUP6 DUP3 LT ISZERO PUSH2 0x2A0B JUMPI DUP8 DUP6 ADD MLOAD PUSH1 0x0 NOT PUSH1 0x3 DUP9 SWAP1 SHL PUSH1 0xF8 AND SHR NOT AND DUP2 SSTORE JUMPDEST POP POP POP POP POP PUSH1 0x1 SWAP1 DUP2 SHL ADD SWAP1 SSTORE POP JUMP JUMPDEST PUSH1 0x0 DUP3 MLOAD PUSH2 0x2A2D DUP2 DUP5 PUSH1 0x20 DUP8 ADD PUSH2 0x249F JUMP JUMPDEST SWAP2 SWAP1 SWAP2 ADD SWAP3 SWAP2 POP POP JUMP JUMPDEST PUSH4 0xFFFFFFFF DUP2 DUP2 AND DUP4 DUP3 AND ADD SWAP1 DUP1 DUP3 GT ISZERO PUSH2 0x2384 JUMPI PUSH2 0x2384 PUSH2 0x286B JUMP JUMPDEST PUSH1 0x0 DUP3 PUSH2 0x2A71 JUMPI PUSH4 0x4E487B71 PUSH1 0xE0 SHL PUSH1 0x0 MSTORE PUSH1 0x12 PUSH1 0x4 MSTORE PUSH1 0x24 PUSH1 0x0 REVERT JUMPDEST POP MOD SWAP1 JUMP JUMPDEST PUSH1 0x20 DUP1 DUP3 MSTORE PUSH1 0x2B SWAP1 DUP3 ADD MSTORE PUSH32 0x496E697469616C697A61626C653A20636F6E7472616374206973206E6F742069 PUSH1 0x40 DUP3 ADD MSTORE PUSH11 0x6E697469616C697A696E67 PUSH1 0xA8 SHL PUSH1 0x60 DUP3 ADD MSTORE PUSH1 0x80 ADD SWAP1 JUMP INVALID LOG2 PUSH5 0x6970667358 0x22 SLT KECCAK256 DUP14 0xD7 0xDC CODESIZE 0xBA PUSH14 0x902FACC3655C023B972105CE93FF 0x4F 0xBB STATICCALL 0xE5 0x2E 0x29 0xE4 SWAP5 0x2C JUMPDEST 0xEA TIMESTAMP PUSH5 0x736F6C6343 STOP ADDMOD NOT STOP CALLER ",
  "sha1": "bb7db93e44926325a5735fe6bebafc5fb3b844e6",
  "source": "// SPDX-License-Identifier: GPL-3.0\npragma solidity ^0.8.0;\n\nimport \"@openzeppelin-upgradeable/contracts/token/ERC20/ERC20Upgradeable.sol\";\nimport \"@openzeppelin-upgradeable/contracts/proxy/utils/Initializable.sol\";\n\ncontract SmartNodes is Initializable, ERC20Upgradeable {\n    // // Modifier to require multisignature validation\n    // modifier onlyMultiSig() {\n    //     // Check if the function invocation is authorized by a specified number of validators\n    //     require(\n    //         countSignatures(msg.sender) >= requiredSignatures,\n    //         \"Multisignature validation required\"\n    //     );\n    //     _;\n    // }\n\n    struct Validator {\n        uint256 id;\n        address validatorAddress;\n        string publicKeyHash;\n        uint32 locked;\n        uint256 unlockTime;\n        uint8 reputation;\n        bool isActive;\n    }\n\n    struct User {\n        uint256 id;\n        address userAddress;\n        string publicKeyHash;\n        uint8 reputation;\n    }\n\n    struct Job {\n        uint256 id;\n        address owner;\n        uint256 capacity;\n        address[] validatorAddresses;\n        bool isCompleted;\n        mapping(address => bool) completeConfirmations;\n        uint8 completeCount;\n    }\n\n    struct JobRequest {\n        uint256 id;\n        address creator;\n        uint256 capacity;\n        address[] validatorAddresses;\n        mapping(address => bool) signatures;\n    }\n\n    // Validator mappings\n    mapping(uint256 => Validator) public validators;\n    mapping(address => uint256) public validatorIdByAddress;\n    mapping(string => uint256) public validatorIdByHash;\n    mapping(uint256 => string) public validatorHashById;\n    mapping(uint256 => uint256) public validatorStateById;\n\n    // User mappings\n    mapping(uint256 => User) public users;\n    mapping(address => uint256) public userIdByAddress;\n    mapping(string => uint256) public userIdByHash;\n\n    // Job mappings\n    mapping(uint256 => Job) public jobs;\n    mapping(uint256 => JobRequest) public jobRequests;\n\n    // Counters for users\n    uint256 public validatorIdCounter;\n    uint256 public userIdCounter;\n    uint256 public jobCounter;\n\n    // Minimum and maximum required signatures for any job\n    uint8 public minValidators;\n    uint8 public maxValidators;\n\n    // Events\n    event ValidatorCreated(uint256 indexed id, address validatorAddress);\n    event TokensLocked(address indexed validator, uint256 amount);\n    event UnlockInitiated(address indexed validator, uint256 unlockTime);\n    event TokensUnlocked(address indexed validator, uint256 amount);\n    event ValidatorActivated(uint256 indexed validatorId);\n    event ValidatorDeactivated(uint256 indexed validatorId);\n    event JobCompleted(uint256 indexed jobId);\n\n    function initialize() public initializer {\n        __ERC20_init(\"TensorLink\", \"TLINK\");\n        _mint(msg.sender, 100);\n        validatorIdCounter = 1;\n        userIdCounter = 1;\n        jobCounter = 1;\n        minValidators = 2;\n        maxValidators = 12;\n    }\n\n    // Role creation methods (User & Validator)\n    function createUser(string memory publicKeyHash) external {\n        require(userIdByAddress[msg.sender] == 0, \"User already registered.\");\n        users[userIdCounter] = User({\n            id: userIdCounter,\n            userAddress: msg.sender,\n            reputation: 0,\n            publicKeyHash: publicKeyHash\n        });\n\n        userIdByHash[publicKeyHash] = userIdCounter;\n        userIdByAddress[msg.sender] = userIdCounter++;\n    }\n\n    function createValidator(string memory publicKeyHash) external {\n        require(\n            validatorIdByHash[publicKeyHash] == 0,\n            \"Validator with this publicKeyHash already exists.\"\n        );\n\n        Validator storage validator = validators[validatorIdCounter];\n        validator.id = validatorIdCounter;\n        validator.validatorAddress = msg.sender;\n        validator.publicKeyHash = publicKeyHash;\n        validator.isActive = true;\n\n        validatorIdByAddress[msg.sender] = validatorIdCounter;\n        validatorIdByHash[publicKeyHash] = validatorIdCounter;\n        validatorHashById[validatorIdCounter] = publicKeyHash;\n        validatorStateById[validatorIdCounter] = 1;\n\n        emit ValidatorCreated(validatorIdCounter, msg.sender);\n\n        validatorIdCounter++;\n    }\n\n    /// Validator Token Locking and Unlocking ///\n    function lockTokens(uint32 amount) external {\n        require(amount > 0, \"Amount must be greater than zero.\");\n        require(balanceOf(msg.sender) >= amount, \"Insufficient balance.\");\n\n        uint256 validatorId = validatorIdByAddress[msg.sender];\n        require(validatorId != 0, \"Validator does not exist.\");\n        Validator storage validator = validators[validatorId];\n        require(validator.isActive, \"Validator is not active.\");\n\n        transferFrom(msg.sender, address(this), amount);\n        validator.locked += amount;\n\n        emit TokensLocked(msg.sender, amount);\n    }\n\n    function unlockTokens(uint32 amount) external {\n        uint256 validatorId = validatorIdByAddress[msg.sender];\n        Validator storage validator = validators[validatorId];\n\n        require(amount <= validator.locked, \"Amount exceeds locked balance.\");\n        require(amount > 0, \"Amount must be greater than zero.\");\n\n        // Initialize the unlock time if it's the first unlock attempt\n        if (validator.unlockTime == 0) {\n            validator.unlockTime = block.timestamp + 50400; // 14 day unlocking period\n            emit UnlockInitiated(msg.sender, validator.unlockTime); // Optional: emit an event\n        } else {\n            // On subsequent attempts, check if the unlock period has elapsed\n            require(\n                block.timestamp >= validator.unlockTime,\n                \"Tokens are still locked.\"\n            );\n\n            validator.locked -= amount;\n            _mint(msg.sender, amount); // Mint tokens back to the validator's address\n\n            emit TokensUnlocked(msg.sender, amount); // Optional: emit an event when tokens are unlocked\n        }\n    }\n\n    // User Job Requesting\n    function requestJob(\n        uint8 nValidators,\n        uint256 capacity\n    ) external returns (uint256[] memory) {\n        require(userIdByAddress[msg.sender] != 0, \"User not registered.\");\n        require(capacity > 0, \"Capacity must be greater zero.\");\n        // require(workerAddresses.length > 0)\n\n        JobRequest storage request = jobRequests[jobCounter];\n        request.id = jobCounter;\n        request.creator = msg.sender;\n        request.capacity = capacity;\n\n        // Select validators pseudorandomly\n        uint256[] memory selectedValidatorIds = _pseudorandomValidatorSelection(\n            nValidators\n        );\n\n        address[] memory selectedValidators = new address[](\n            selectedValidatorIds.length\n        );\n\n        // Change selected validators to the busy (active) state and grab their address\n        for (uint256 i = 0; i < selectedValidatorIds.length; i++) {\n            selectedValidators[i] = validators[selectedValidatorIds[i]]\n                .validatorAddress;\n        }\n\n        request.validatorAddresses = selectedValidators; // Store the selected validators\n        jobCounter++; // Increment jobCounter after storing the job request\n\n        return selectedValidatorIds;\n    }\n\n    // Validator job creation voting\n    function approveJobCreation(uint256 jobId) external {\n        uint256 validatorId = validatorIdByAddress[msg.sender];\n        Validator storage validator = validators[validatorId];\n        require(validator.isActive, \"Validator is not active.\");\n        require(\n            jobRequests[jobId].id == jobId,\n            \"Job creation request does not exist.\"\n        );\n\n        JobRequest storage request = jobRequests[jobId];\n        uint8 nValidators = uint8(request.validatorAddresses.length);\n        request.signatures[msg.sender] = true;\n\n        // Final signature triggers the deletion of the job request and the creation of the job\n        if (_countSignatures(request) == nValidators) {\n            Job storage job = jobs[jobId];\n            job.id = jobId;\n            job.owner = request.creator;\n            job.capacity = request.capacity;\n            job.validatorAddresses = request.validatorAddresses;\n            job.completeCount = 0;\n            delete jobRequests[jobId];\n        }\n    }\n\n    // Validator job completion voting\n    function completeJob(uint256 jobId) external {\n        Job storage job = jobs[jobId];\n        require(job.id == jobId, \"Job does not exist.\");\n        require(job.isCompleted == false, \"Job is already completed.\");\n\n        // Check if sender is one of the validators\n        bool isValidator = false;\n        for (uint i = 0; i < job.validatorAddresses.length; i++) {\n            if (msg.sender == job.validatorAddresses[i]) {\n                isValidator = true;\n                break;\n            }\n        }\n\n        require(\n            isValidator,\n            \"Only validators of this job may call this function\"\n        );\n        require(\n            job.completeConfirmations[msg.sender] = false,\n            \"Validator already confirmed.\"\n        );\n\n        job.completeConfirmations[msg.sender] = true;\n        job.completeCount++;\n\n        // If all validators have confirmed status, mark job as complete\n        if (job.completeCount == job.validatorAddresses.length) {\n            job.isCompleted = true;\n\n            // Move all validators to the inactive state\n            for (uint i = 0; i < job.validatorAddresses.length; i++) {\n                Validator storage validator = validators[\n                    validatorIdByAddress[job.validatorAddresses[i]]\n                ];\n                _updateValidatorState(validator.id, false);\n            }\n\n            emit JobCompleted(jobId);\n        }\n    }\n\n    function _countSignatures(\n        JobRequest storage request\n    ) internal view returns (uint256) {\n        uint256 count = 0;\n        for (uint256 i = 0; i < request.validatorAddresses.length; i++) {\n            if (request.signatures[request.validatorAddresses[i]]) {\n                count++;\n            }\n        }\n\n        return count;\n    }\n\n    // Pseudorandom selection of validators\n    function _pseudorandomValidatorSelection(\n        uint8 nValidators\n    ) internal returns (uint256[] memory) {\n        require(\n            nValidators >= minValidators && nValidators <= maxValidators,\n            \"nValidators must be between minValidator and maxValidator\"\n        );\n        require(\n            nValidators > 0 && nValidators <= validatorIdCounter,\n            \"Not enough available validators for job, please try again later.\"\n        );\n\n        uint256[] memory selectedValidators = new uint256[](nValidators);\n        uint256 selectedCount = 0;\n\n        for (uint256 i = 0; i < nValidators; i++) {\n            uint256 nonce = 0;\n            while (selectedCount == i) {\n                uint256 randId = uint256(\n                    keccak256(\n                        abi.encodePacked(block.timestamp, msg.sender, nonce++)\n                    )\n                ) % validatorIdCounter;\n\n                if (validatorStateById[randId] == 1) {\n                    // Mark selected validator as busy\n                    _updateValidatorState(randId, true);\n                    selectedValidators[i] = randId;\n                    selectedCount++;\n                } else if (nonce < 50) {\n                    nonce++;\n                } else {\n                    revert(\"Max validator requests reached\");\n                }\n            }\n        }\n\n        return selectedValidators;\n    }\n\n    function _updateValidatorState(\n        uint256 validatorId,\n        bool activate\n    ) internal {\n        require(\n            validatorId > 0 && validatorId < validatorIdCounter,\n            \"Invalid ValidatorId\"\n        );\n        require(\n            validatorStateById[validatorId] > 0,\n            \"Validator is not online.\"\n        );\n\n        if (activate) {\n            // Move validator to the active state if not already active\n            if (validatorStateById[validatorId] == 1) {\n                validatorStateById[validatorId] = 2;\n            } else {\n                revert(\"Validator being activated is already active!\");\n            }\n        } else {\n            // Move validator to the inactive state if not already inactive\n            if (validatorStateById[validatorId] == 2) {\n                validatorStateById[validatorId] = 1;\n            } else {\n                revert(\"Validator is already inactive!\");\n            }\n        }\n    }\n\n    function _activateValidator(uint256 validatorId) internal {\n        require(\n            0 < validatorId && validatorId < validatorIdCounter,\n            \"Validator ID must be valid.\"\n        );\n\n        Validator storage validator = validators[validatorId];\n        require(!validator.isActive, \"Validator already active!\");\n        validator.isActive = true;\n        validatorStateById[validatorId] = 1;\n        emit ValidatorActivated(validatorId);\n    }\n\n    function _deactivateValidator(uint256 validatorId) internal {\n        require(\n            0 < validatorId && validatorId < validatorIdCounter,\n            \"Validator ID must be valid.\"\n        );\n        Validator storage validator = validators[validatorId];\n\n        require(validator.isActive, \"Validator not active!\");\n        validator.isActive = false;\n\n        validatorStateById[validatorId] = 0;\n        emit ValidatorActivated(validatorId);\n    }\n\n    function random() external view returns (uint256) {\n        return uint256(keccak256(abi.encodePacked((block.timestamp))));\n    }\n\n    function getjobCounter() external view returns (uint256) {\n        return jobCounter;\n    }\n\n    function getValidatorIdCounter() external view returns (uint256) {\n        return validatorIdCounter;\n    }\n\n    function getUserIdCounter() external view returns (uint256) {\n        return userIdCounter;\n    }\n\n    function getUserId(\n        string memory publicKeyHash\n    ) external view returns (uint256) {\n        return userIdByHash[publicKeyHash];\n    }\n\n    function getValidatorState(\n        uint256 validatorId\n    ) external view returns (uint256) {\n        require(\n            validatorId > 0 && validatorId < validatorIdCounter,\n            \"Invalid ValidatorId!\"\n        );\n        return validatorStateById[validatorId];\n    }\n\n    // Returns a list of all the selected validators for a job request\n    function getJobRequestValidators(\n        uint256 reqId\n    ) external view returns (address[] memory) {\n        require(reqId < jobCounter, \"Invalid jobRequest ID\");\n        JobRequest storage jobReq = jobRequests[reqId];\n        if (jobReq.id == reqId) {\n            address[] memory jobReqAddresses = jobRequests[reqId]\n                .validatorAddresses;\n            return jobReqAddresses;\n        } else {\n            revert(\"JobRequest not found!\");\n        }\n    }\n}\n",
  "sourcePath": "contracts/SmartNodes.sol",
  "type": "contract"
}