{
  "abi": [
    {
      "anonymous": false,
      "inputs": [
        {
          "indexed": true,
          "internalType": "address",
          "name": "owner",
          "type": "address"
        },
        {
          "indexed": true,
          "internalType": "address",
          "name": "spender",
          "type": "address"
        },
        {
          "indexed": false,
          "internalType": "uint256",
          "name": "value",
          "type": "uint256"
        }
      ],
      "name": "Approval",
      "type": "event"
    },
    {
      "anonymous": false,
      "inputs": [
        {
          "indexed": true,
          "internalType": "uint256",
          "name": "jobId",
          "type": "uint256"
        }
      ],
      "name": "JobCompleted",
      "type": "event"
    },
    {
      "anonymous": false,
      "inputs": [
        {
          "indexed": true,
          "internalType": "address",
          "name": "validator",
          "type": "address"
        },
        {
          "indexed": false,
          "internalType": "uint256",
          "name": "amount",
          "type": "uint256"
        }
      ],
      "name": "TokensLocked",
      "type": "event"
    },
    {
      "anonymous": false,
      "inputs": [
        {
          "indexed": true,
          "internalType": "address",
          "name": "validator",
          "type": "address"
        },
        {
          "indexed": false,
          "internalType": "uint256",
          "name": "amount",
          "type": "uint256"
        }
      ],
      "name": "TokensUnlocked",
      "type": "event"
    },
    {
      "anonymous": false,
      "inputs": [
        {
          "indexed": true,
          "internalType": "address",
          "name": "from",
          "type": "address"
        },
        {
          "indexed": true,
          "internalType": "address",
          "name": "to",
          "type": "address"
        },
        {
          "indexed": false,
          "internalType": "uint256",
          "name": "value",
          "type": "uint256"
        }
      ],
      "name": "Transfer",
      "type": "event"
    },
    {
      "anonymous": false,
      "inputs": [
        {
          "indexed": true,
          "internalType": "address",
          "name": "validator",
          "type": "address"
        },
        {
          "indexed": false,
          "internalType": "uint256",
          "name": "unlockTime",
          "type": "uint256"
        }
      ],
      "name": "UnlockInitiated",
      "type": "event"
    },
    {
      "anonymous": false,
      "inputs": [
        {
          "indexed": true,
          "internalType": "uint256",
          "name": "validatorId",
          "type": "uint256"
        }
      ],
      "name": "ValidatorActivated",
      "type": "event"
    },
    {
      "anonymous": false,
      "inputs": [
        {
          "indexed": true,
          "internalType": "uint256",
          "name": "id",
          "type": "uint256"
        },
        {
          "indexed": false,
          "internalType": "address",
          "name": "validatorAddress",
          "type": "address"
        }
      ],
      "name": "ValidatorCreated",
      "type": "event"
    },
    {
      "anonymous": false,
      "inputs": [
        {
          "indexed": true,
          "internalType": "uint256",
          "name": "validatorId",
          "type": "uint256"
        }
      ],
      "name": "ValidatorDeactivated",
      "type": "event"
    },
    {
      "inputs": [
        {
          "internalType": "address",
          "name": "owner",
          "type": "address"
        },
        {
          "internalType": "address",
          "name": "spender",
          "type": "address"
        }
      ],
      "name": "allowance",
      "outputs": [
        {
          "internalType": "uint256",
          "name": "",
          "type": "uint256"
        }
      ],
      "stateMutability": "view",
      "type": "function"
    },
    {
      "inputs": [
        {
          "internalType": "address",
          "name": "spender",
          "type": "address"
        },
        {
          "internalType": "uint256",
          "name": "amount",
          "type": "uint256"
        }
      ],
      "name": "approve",
      "outputs": [
        {
          "internalType": "bool",
          "name": "",
          "type": "bool"
        }
      ],
      "stateMutability": "nonpayable",
      "type": "function"
    },
    {
      "inputs": [
        {
          "internalType": "address",
          "name": "account",
          "type": "address"
        }
      ],
      "name": "balanceOf",
      "outputs": [
        {
          "internalType": "uint256",
          "name": "",
          "type": "uint256"
        }
      ],
      "stateMutability": "view",
      "type": "function"
    },
    {
      "inputs": [
        {
          "internalType": "uint256",
          "name": "jobId",
          "type": "uint256"
        }
      ],
      "name": "completeJob",
      "outputs": [],
      "stateMutability": "nonpayable",
      "type": "function"
    },
    {
      "inputs": [
        {
          "internalType": "string",
          "name": "publicKeyHash",
          "type": "string"
        }
      ],
      "name": "createUser",
      "outputs": [],
      "stateMutability": "nonpayable",
      "type": "function"
    },
    {
      "inputs": [
        {
          "internalType": "string",
          "name": "publicKeyHash",
          "type": "string"
        }
      ],
      "name": "createValidator",
      "outputs": [],
      "stateMutability": "nonpayable",
      "type": "function"
    },
    {
      "inputs": [],
      "name": "decimals",
      "outputs": [
        {
          "internalType": "uint8",
          "name": "",
          "type": "uint8"
        }
      ],
      "stateMutability": "view",
      "type": "function"
    },
    {
      "inputs": [
        {
          "internalType": "address",
          "name": "spender",
          "type": "address"
        },
        {
          "internalType": "uint256",
          "name": "subtractedValue",
          "type": "uint256"
        }
      ],
      "name": "decreaseAllowance",
      "outputs": [
        {
          "internalType": "bool",
          "name": "",
          "type": "bool"
        }
      ],
      "stateMutability": "nonpayable",
      "type": "function"
    },
    {
      "inputs": [
        {
          "internalType": "uint256",
          "name": "reqId",
          "type": "uint256"
        }
      ],
      "name": "getJobAuthor",
      "outputs": [
        {
          "internalType": "address",
          "name": "",
          "type": "address"
        }
      ],
      "stateMutability": "view",
      "type": "function"
    },
    {
      "inputs": [],
      "name": "getJobCounter",
      "outputs": [
        {
          "internalType": "uint256",
          "name": "",
          "type": "uint256"
        }
      ],
      "stateMutability": "view",
      "type": "function"
    },
    {
      "inputs": [
        {
          "internalType": "uint256",
          "name": "reqId",
          "type": "uint256"
        }
      ],
      "name": "getJobValidators",
      "outputs": [
        {
          "internalType": "address[]",
          "name": "",
          "type": "address[]"
        }
      ],
      "stateMutability": "view",
      "type": "function"
    },
    {
      "inputs": [
        {
          "internalType": "string",
          "name": "publicKeyHash",
          "type": "string"
        }
      ],
      "name": "getUserId",
      "outputs": [
        {
          "internalType": "uint256",
          "name": "",
          "type": "uint256"
        }
      ],
      "stateMutability": "view",
      "type": "function"
    },
    {
      "inputs": [],
      "name": "getUserIdCounter",
      "outputs": [
        {
          "internalType": "uint256",
          "name": "",
          "type": "uint256"
        }
      ],
      "stateMutability": "view",
      "type": "function"
    },
    {
      "inputs": [],
      "name": "getValidatorIdCounter",
      "outputs": [
        {
          "internalType": "uint256",
          "name": "",
          "type": "uint256"
        }
      ],
      "stateMutability": "view",
      "type": "function"
    },
    {
      "inputs": [
        {
          "internalType": "uint256",
          "name": "validatorId",
          "type": "uint256"
        }
      ],
      "name": "getValidatorState",
      "outputs": [
        {
          "internalType": "uint256",
          "name": "",
          "type": "uint256"
        }
      ],
      "stateMutability": "view",
      "type": "function"
    },
    {
      "inputs": [
        {
          "internalType": "address",
          "name": "spender",
          "type": "address"
        },
        {
          "internalType": "uint256",
          "name": "addedValue",
          "type": "uint256"
        }
      ],
      "name": "increaseAllowance",
      "outputs": [
        {
          "internalType": "bool",
          "name": "",
          "type": "bool"
        }
      ],
      "stateMutability": "nonpayable",
      "type": "function"
    },
    {
      "inputs": [],
      "name": "initialize",
      "outputs": [],
      "stateMutability": "nonpayable",
      "type": "function"
    },
    {
      "inputs": [],
      "name": "jobCounter",
      "outputs": [
        {
          "internalType": "uint256",
          "name": "",
          "type": "uint256"
        }
      ],
      "stateMutability": "view",
      "type": "function"
    },
    {
      "inputs": [
        {
          "internalType": "uint256",
          "name": "",
          "type": "uint256"
        }
      ],
      "name": "jobIdByUser",
      "outputs": [
        {
          "internalType": "uint256",
          "name": "",
          "type": "uint256"
        }
      ],
      "stateMutability": "view",
      "type": "function"
    },
    {
      "inputs": [
        {
          "internalType": "uint256",
          "name": "",
          "type": "uint256"
        }
      ],
      "name": "jobs",
      "outputs": [
        {
          "internalType": "uint256",
          "name": "id",
          "type": "uint256"
        },
        {
          "internalType": "address",
          "name": "owner",
          "type": "address"
        },
        {
          "internalType": "uint256",
          "name": "capacity",
          "type": "uint256"
        },
        {
          "internalType": "bool",
          "name": "isCompleted",
          "type": "bool"
        },
        {
          "internalType": "uint8",
          "name": "completeCount",
          "type": "uint8"
        }
      ],
      "stateMutability": "view",
      "type": "function"
    },
    {
      "inputs": [
        {
          "internalType": "uint32",
          "name": "amount",
          "type": "uint32"
        }
      ],
      "name": "lockTokens",
      "outputs": [],
      "stateMutability": "nonpayable",
      "type": "function"
    },
    {
      "inputs": [],
      "name": "maxValidators",
      "outputs": [
        {
          "internalType": "uint8",
          "name": "",
          "type": "uint8"
        }
      ],
      "stateMutability": "view",
      "type": "function"
    },
    {
      "inputs": [],
      "name": "minValidators",
      "outputs": [
        {
          "internalType": "uint8",
          "name": "",
          "type": "uint8"
        }
      ],
      "stateMutability": "view",
      "type": "function"
    },
    {
      "inputs": [],
      "name": "name",
      "outputs": [
        {
          "internalType": "string",
          "name": "",
          "type": "string"
        }
      ],
      "stateMutability": "view",
      "type": "function"
    },
    {
      "inputs": [],
      "name": "random",
      "outputs": [
        {
          "internalType": "uint256",
          "name": "",
          "type": "uint256"
        }
      ],
      "stateMutability": "view",
      "type": "function"
    },
    {
      "inputs": [
        {
          "internalType": "uint8",
          "name": "nValidators",
          "type": "uint8"
        },
        {
          "internalType": "uint256",
          "name": "capacity",
          "type": "uint256"
        }
      ],
      "name": "requestJob",
      "outputs": [],
      "stateMutability": "nonpayable",
      "type": "function"
    },
    {
      "inputs": [],
      "name": "symbol",
      "outputs": [
        {
          "internalType": "string",
          "name": "",
          "type": "string"
        }
      ],
      "stateMutability": "view",
      "type": "function"
    },
    {
      "inputs": [],
      "name": "totalSupply",
      "outputs": [
        {
          "internalType": "uint256",
          "name": "",
          "type": "uint256"
        }
      ],
      "stateMutability": "view",
      "type": "function"
    },
    {
      "inputs": [
        {
          "internalType": "address",
          "name": "to",
          "type": "address"
        },
        {
          "internalType": "uint256",
          "name": "amount",
          "type": "uint256"
        }
      ],
      "name": "transfer",
      "outputs": [
        {
          "internalType": "bool",
          "name": "",
          "type": "bool"
        }
      ],
      "stateMutability": "nonpayable",
      "type": "function"
    },
    {
      "inputs": [
        {
          "internalType": "address",
          "name": "from",
          "type": "address"
        },
        {
          "internalType": "address",
          "name": "to",
          "type": "address"
        },
        {
          "internalType": "uint256",
          "name": "amount",
          "type": "uint256"
        }
      ],
      "name": "transferFrom",
      "outputs": [
        {
          "internalType": "bool",
          "name": "",
          "type": "bool"
        }
      ],
      "stateMutability": "nonpayable",
      "type": "function"
    },
    {
      "inputs": [
        {
          "internalType": "uint32",
          "name": "amount",
          "type": "uint32"
        }
      ],
      "name": "unlockTokens",
      "outputs": [],
      "stateMutability": "nonpayable",
      "type": "function"
    },
    {
      "inputs": [
        {
          "internalType": "address",
          "name": "",
          "type": "address"
        }
      ],
      "name": "userHashByAddress",
      "outputs": [
        {
          "internalType": "string",
          "name": "",
          "type": "string"
        }
      ],
      "stateMutability": "view",
      "type": "function"
    },
    {
      "inputs": [
        {
          "internalType": "address",
          "name": "",
          "type": "address"
        }
      ],
      "name": "userIdByAddress",
      "outputs": [
        {
          "internalType": "uint256",
          "name": "",
          "type": "uint256"
        }
      ],
      "stateMutability": "view",
      "type": "function"
    },
    {
      "inputs": [
        {
          "internalType": "string",
          "name": "",
          "type": "string"
        }
      ],
      "name": "userIdByHash",
      "outputs": [
        {
          "internalType": "uint256",
          "name": "",
          "type": "uint256"
        }
      ],
      "stateMutability": "view",
      "type": "function"
    },
    {
      "inputs": [],
      "name": "userIdCounter",
      "outputs": [
        {
          "internalType": "uint256",
          "name": "",
          "type": "uint256"
        }
      ],
      "stateMutability": "view",
      "type": "function"
    },
    {
      "inputs": [
        {
          "internalType": "uint256",
          "name": "",
          "type": "uint256"
        }
      ],
      "name": "userTraining",
      "outputs": [
        {
          "internalType": "bool",
          "name": "",
          "type": "bool"
        }
      ],
      "stateMutability": "view",
      "type": "function"
    },
    {
      "inputs": [
        {
          "internalType": "uint256",
          "name": "",
          "type": "uint256"
        }
      ],
      "name": "users",
      "outputs": [
        {
          "internalType": "uint256",
          "name": "id",
          "type": "uint256"
        },
        {
          "internalType": "address",
          "name": "userAddress",
          "type": "address"
        },
        {
          "internalType": "string",
          "name": "publicKeyHash",
          "type": "string"
        },
        {
          "internalType": "uint8",
          "name": "reputation",
          "type": "uint8"
        }
      ],
      "stateMutability": "view",
      "type": "function"
    },
    {
      "inputs": [
        {
          "internalType": "uint256",
          "name": "",
          "type": "uint256"
        }
      ],
      "name": "validatorHashById",
      "outputs": [
        {
          "internalType": "string",
          "name": "",
          "type": "string"
        }
      ],
      "stateMutability": "view",
      "type": "function"
    },
    {
      "inputs": [
        {
          "internalType": "address",
          "name": "",
          "type": "address"
        }
      ],
      "name": "validatorIdByAddress",
      "outputs": [
        {
          "internalType": "uint256",
          "name": "",
          "type": "uint256"
        }
      ],
      "stateMutability": "view",
      "type": "function"
    },
    {
      "inputs": [
        {
          "internalType": "string",
          "name": "",
          "type": "string"
        }
      ],
      "name": "validatorIdByHash",
      "outputs": [
        {
          "internalType": "uint256",
          "name": "",
          "type": "uint256"
        }
      ],
      "stateMutability": "view",
      "type": "function"
    },
    {
      "inputs": [],
      "name": "validatorIdCounter",
      "outputs": [
        {
          "internalType": "uint256",
          "name": "",
          "type": "uint256"
        }
      ],
      "stateMutability": "view",
      "type": "function"
    },
    {
      "inputs": [
        {
          "internalType": "uint256",
          "name": "",
          "type": "uint256"
        }
      ],
      "name": "validatorStateById",
      "outputs": [
        {
          "internalType": "uint256",
          "name": "",
          "type": "uint256"
        }
      ],
      "stateMutability": "view",
      "type": "function"
    },
    {
      "inputs": [
        {
          "internalType": "uint256",
          "name": "",
          "type": "uint256"
        }
      ],
      "name": "validators",
      "outputs": [
        {
          "internalType": "uint256",
          "name": "id",
          "type": "uint256"
        },
        {
          "internalType": "address",
          "name": "validatorAddress",
          "type": "address"
        },
        {
          "internalType": "string",
          "name": "publicKeyHash",
          "type": "string"
        },
        {
          "internalType": "uint32",
          "name": "locked",
          "type": "uint32"
        },
        {
          "internalType": "uint256",
          "name": "unlockTime",
          "type": "uint256"
        },
        {
          "internalType": "uint8",
          "name": "reputation",
          "type": "uint8"
        },
        {
          "internalType": "bool",
          "name": "isActive",
          "type": "bool"
        }
      ],
      "stateMutability": "view",
      "type": "function"
    }
  ],
  "bytecode": "6080604052348015600f57600080fd5b506129d28061001f6000396000f3fe608060405234801561001057600080fd5b50600436106102695760003560e01c8063507ffba511610151578063a457c2d7116100c3578063d057fc1911610087578063d057fc191461063b578063d56c907d1461064e578063db1ef71f14610656578063dd62ed3e14610669578063ec81560f146106a2578063f49d2a46146106b557600080fd5b8063a457c2d7146105d2578063a9059cbb146105e5578063c1b07bf9146105f8578063c5ab22411461061b578063cf6acd471461062857600080fd5b806370a082311161011557806370a082311461055d578063751df890146105865780638129fc1c146105a65780638f029d5e146105ae57806395d89b41146105b7578063a1c0d32f146105bf57600080fd5b8063507ffba5146104dd5780635ec01e4d146104f0578063616d71731461051757806362ac03e91461052a5780636817dd5b1461053d57600080fd5b806327764547116101ea57806335aa2e44116101ae57806335aa2e4414610445578063365b98b21461046b578063395093511461048e57806344c6957b146104a15780634b759088146104b457806350355d76146104d457600080fd5b806327764547146103e25780632faba6ae14610402578063313ce5671461040b57806332412baf1461041257806332d401601461041a57600080fd5b8063180aedf311610231578063180aedf31461031257806318160ddd146103945780632130a16f1461039c5780632257b8da146103c757806323b872dd146103cf57600080fd5b8063012dccdd1461026e57806306fdde03146102a157806308ac5256146102b6578063095ea7b3146102da5780630c97cf81146102fd575b600080fd5b61028e61027c3660046123ab565b60706020526000908152604090205481565b6040519081526020015b60405180910390f35b6102a96106e0565b6040516102989190612414565b6074546102c890610100900460ff1681565b60405160ff9091168152602001610298565b6102ed6102e836600461244a565b610772565b6040519015158152602001610298565b61031061030b366004612474565b61078c565b005b61035f6103203660046123ab565b606f602052600090815260409020805460018201546002830154600484015460069094015492936001600160a01b0390921692909160ff908116911685565b604080519586526001600160a01b039094166020860152928401919091521515606083015260ff16608082015260a001610298565b60355461028e565b61028e6103aa3660046124ae565b805160208183018101805160678252928201919093012091525481565b60735461028e565b6102ed6103dd36600461255f565b6109e2565b61028e6103f036600461259b565b60666020526000908152604090205481565b61028e60725481565b60126102c8565b60725461028e565b61028e6104283660046124ae565b8051602081830181018051606c8252928201919093012091525481565b6104586104533660046123ab565b610a06565b60405161029897969594939291906125b6565b61047e6104793660046123ab565b610ae2565b6040516102989493929190612611565b6102ed61049c36600461244a565b610ba0565b6103106104af36600461264f565b610bdf565b61028e6104c236600461259b565b606b6020526000908152604090205481565b61028e60735481565b6103106104eb3660046124ae565b610db7565b6040805142602080830191909152825180830382018152918301909252805191012061028e565b61028e6105253660046123ab565b610f02565b6102a96105383660046123ab565b610f6a565b61055061054b3660046123ab565b611004565b6040516102989190612675565b61028e61056b36600461259b565b6001600160a01b031660009081526033602052604090205490565b61028e6105943660046123ab565b60696020526000908152604090205481565b61031061111d565b61028e60715481565b6102a9611248565b6103106105cd3660046123ab565b611257565b6102ed6105e036600461244a565b6114f7565b6102ed6105f336600461244a565b611589565b6102ed6106063660046123ab565b606e6020526000908152604090205460ff1681565b6074546102c89060ff1681565b6103106106363660046124ae565b611597565b6102a961064936600461259b565b611722565b60715461028e565b61028e6106643660046124ae565b61173b565b61028e6106773660046126c2565b6001600160a01b03918216600090815260346020908152604080832093909416825291909152205490565b6103106106b036600461264f565b611763565b6106c86106c33660046123ab565b61193f565b6040516001600160a01b039091168152602001610298565b6060603680546106ef906126f5565b80601f016020809104026020016040519081016040528092919081815260200182805461071b906126f5565b80156107685780601f1061073d57610100808354040283529160200191610768565b820191906000526020600020905b81548152906001019060200180831161074b57829003601f168201915b5050505050905090565b6000336107808185856119e8565b60019150505b92915050565b336000908152606b6020526040812054908190036107e85760405162461bcd60e51b81526020600482015260146024820152732ab9b2b9103737ba103932b3b4b9ba32b932b21760611b60448201526064015b60405180910390fd5b600082116108385760405162461bcd60e51b815260206004820152601e60248201527f4361706163697479206d7573742062652067726561746572207a65726f2e000060448201526064016107df565b6000818152606e602052604090205460ff16156108975760405162461bcd60e51b815260206004820152601760248201527f557365722068617320616e20616374697665206a6f622e00000000000000000060448201526064016107df565b6073546000818152606f602052604081209182556001820180546001600160a01b03191633179055600282018490556108cf85611b0c565b825460008581526070602052604081209190915581519192509067ffffffffffffffff81111561090157610901612498565b60405190808252806020026020018201604052801561092a578160200160208202803683370190505b50905060005b82518110156109ae576065600084838151811061094f5761094f612729565b6020026020010151815260200190815260200160002060010160009054906101000a90046001600160a01b031682828151811061098e5761098e612729565b6001600160a01b0390921660209283029190910190910152600101610930565b5080516109c49060038501906020840190612331565b50607380549060006109d583612755565b9190505550505050505050565b6000336109f0858285611dd2565b6109fb858585611e64565b506001949350505050565b60656020526000908152604090208054600182015460028301805492936001600160a01b0390921692610a38906126f5565b80601f0160208091040260200160405190810160405280929190818152602001828054610a64906126f5565b8015610ab15780601f10610a8657610100808354040283529160200191610ab1565b820191906000526020600020905b815481529060010190602001808311610a9457829003601f168201915b5050505060038301546004840154600590940154929363ffffffff9091169290915060ff8082169161010090041687565b606a6020526000908152604090208054600182015460028301805492936001600160a01b0390921692610b14906126f5565b80601f0160208091040260200160405190810160405280929190818152602001828054610b40906126f5565b8015610b8d5780601f10610b6257610100808354040283529160200191610b8d565b820191906000526020600020905b815481529060010190602001808311610b7057829003601f168201915b5050506003909301549192505060ff1684565b3360008181526034602090815260408083206001600160a01b03871684529091528120549091906107809082908690610bda90879061276e565b6119e8565b336000908152606660209081526040808320548084526065909252909120600381015463ffffffff9081169084161115610c5b5760405162461bcd60e51b815260206004820152601e60248201527f416d6f756e742065786365656473206c6f636b65642062616c616e63652e000060448201526064016107df565b60008363ffffffff1611610c815760405162461bcd60e51b81526004016107df90612781565b8060040154600003610cdb57610c994261c4e061276e565b6004820181905560405190815233907f77635f8f13ee1a01d11246347c649817c6ee9fa7620ce4c6adfa2452bfa162b2906020015b60405180910390a2505050565b8060040154421015610d2f5760405162461bcd60e51b815260206004820152601860248201527f546f6b656e7320617265207374696c6c206c6f636b65642e000000000000000060448201526064016107df565b600381018054849190600090610d4c90849063ffffffff166127c2565b92506101000a81548163ffffffff021916908363ffffffff160217905550610d7a338463ffffffff16612032565b60405163ffffffff8416815233907fe7b379c6c1fa169e9079c25e9143b127637eef8ec8c9d5c06ddb4ab3e119588890602001610cce565b505050565b336000908152606b602052604090205415610e145760405162461bcd60e51b815260206004820152601860248201527f5573657220616c726561647920726567697374657265642e000000000000000060448201526064016107df565b60408051608081018252607254808252336020808401918252838501868152600060608601819052938452606a909152939091208251815590516001820180546001600160a01b0319166001600160a01b0390921691909117905591519091906002820190610e839082612836565b50606091909101516003909101805460ff191660ff909216919091179055607254604051606c90610eb59084906128f6565b9081526040519081900360200190205560728054906000610ed583612755565b90915550336000908152606b6020908152604080832093909355606d905220610efe8282612836565b5050565b60008082118015610f14575060715482105b610f575760405162461bcd60e51b8152602060048201526014602482015273496e76616c69642056616c696461746f7249642160601b60448201526064016107df565b5060009081526069602052604090205490565b60686020526000908152604090208054610f83906126f5565b80601f0160208091040260200160405190810160405280929190818152602001828054610faf906126f5565b8015610ffc5780601f10610fd157610100808354040283529160200191610ffc565b820191906000526020600020905b815481529060010190602001808311610fdf57829003601f168201915b505050505081565b6060607354821061104f5760405162461bcd60e51b8152602060048201526015602482015274125b9d985b1a59081a9bd894995c5d595cdd081251605a1b60448201526064016107df565b6000828152606f6020526040902080548390036110d7576000838152606f60209081526040808320600301805482518185028101850190935280835291929091908301828280156110c957602002820191906000526020600020905b81546001600160a01b031681526001909101906020018083116110ab575b509398975050505050505050565b60405162461bcd60e51b81526020600482015260156024820152744a6f6252657175657374206e6f7420666f756e642160581b60448201526064016107df565b50919050565b600054610100900460ff166111385760005460ff161561113c565b303b155b61119f5760405162461bcd60e51b815260206004820152602e60248201527f496e697469616c697a61626c653a20636f6e747261637420697320616c72656160448201526d191e481a5b9a5d1a585b1a5e995960921b60648201526084016107df565b600054610100900460ff161580156111c1576000805461ffff19166101011790555b61120a6040518060400160405280600a81526020016954656e736f724c696e6b60b01b81525060405180604001604052806005815260200164544c494e4b60d81b815250612111565b611215336064612032565b6001607181905560728190556073556074805461ffff19166103011790558015611245576000805461ff00191690555b50565b6060603780546106ef906126f5565b6000818152606f60205260409020805482146112ab5760405162461bcd60e51b81526020600482015260136024820152722537b1103237b2b9903737ba1032bc34b9ba1760691b60448201526064016107df565b600481015460ff16156113005760405162461bcd60e51b815260206004820152601960248201527f4a6f6220697320616c726561647920636f6d706c657465642e0000000000000060448201526064016107df565b6000805b60038301548110156113515782600301818154811061132557611325612729565b6000918252602090912001546001600160a01b031633036113495760019150611351565b600101611304565b50806113ba5760405162461bcd60e51b815260206004820152603260248201527f4f6e6c792076616c696461746f7273206f662074686973206a6f62206d61792060448201527131b0b636103a3434b990333ab731ba34b7b760711b60648201526084016107df565b3360009081526005830160205260409020805460ff1916905560405162461bcd60e51b81526004016107df906020808252601c908201527f56616c696461746f7220616c726561647920636f6e6669726d65642e00000000604082015260600190565b6003830154811015611494576000606560006066600087600301868154811061144857611448612729565b60009182526020808320909101546001600160a01b0316835282810193909352604091820181205484529183019390935291018120805490925061148b91612142565b5060010161141d565b5060018201546001600160a01b03166000908152606b6020908152604080832054808452606e909252808320805460ff1916905551909185917f02244c8529cb95e213ee542e76e7776342b3dabd10203d01472bbf4441be89299190a250505050565b3360008181526034602090815260408083206001600160a01b03871684529091528120549091908381101561157c5760405162461bcd60e51b815260206004820152602560248201527f45524332303a2064656372656173656420616c6c6f77616e63652062656c6f77604482015264207a65726f60d81b60648201526084016107df565b6109fb82868684036119e8565b600033610780818585611e64565b6067816040516115a791906128f6565b90815260200160405180910390205460001461161f5760405162461bcd60e51b815260206004820152603160248201527f56616c696461746f7220776974682074686973207075626c69634b6579486173604482015270341030b63932b0b23c9032bc34b9ba399760791b60648201526084016107df565b60715460008181526065602052604090209081556001810180546001600160a01b03191633179055600281016116558382612836565b5060058101805461ff00191661010017905560715433600090815260666020526040908190208290555160679061168d9085906128f6565b90815260408051602092819003830190209290925560715460009081526068909152206116ba8382612836565b5060718054600090815260696020908152604091829020600190559154905133815290917fc278abaf901ee66c9c5ad86c559c69d95b3121ab80ffa1bb4a0097a9b9aee6a2910160405180910390a26071805490600061171983612755565b91905055505050565b606d6020526000908152604090208054610f83906126f5565b6000606c8260405161174d91906128f6565b9081526020016040518091039020549050919050565b60008163ffffffff16116117895760405162461bcd60e51b81526004016107df90612781565b3360009081526033602052604090205463ffffffff821611156117e65760405162461bcd60e51b815260206004820152601560248201527424b739bab33334b1b4b2b73a103130b630b731b29760591b60448201526064016107df565b33600090815260666020526040812054908190036118465760405162461bcd60e51b815260206004820152601960248201527f56616c696461746f7220646f6573206e6f742065786973742e0000000000000060448201526064016107df565b60008181526065602052604090206005810154610100900460ff166118ad5760405162461bcd60e51b815260206004820152601860248201527f56616c696461746f72206973206e6f74206163746976652e000000000000000060448201526064016107df565b6118be33308563ffffffff166109e2565b506003810180548491906000906118dc90849063ffffffff16612912565b92506101000a81548163ffffffff021916908363ffffffff160217905550336001600160a01b03167fac87f20a77d28ee8bbb58ec87ea8fa968b3393efae1a368fd50b767c2847391c84604051610cce919063ffffffff91909116815260200190565b600060735482106119845760405162461bcd60e51b815260206004820152600f60248201526e496e76616c6964206a6f622049442160881b60448201526064016107df565b6000828152606f6020526040902080548390036119ae57600101546001600160a01b031692915050565b60405162461bcd60e51b815260206004820152600f60248201526e496e76616c6964206a6f622049442160881b60448201526064016107df565b6001600160a01b038316611a4a5760405162461bcd60e51b8152602060048201526024808201527f45524332303a20617070726f76652066726f6d20746865207a65726f206164646044820152637265737360e01b60648201526084016107df565b6001600160a01b038216611aab5760405162461bcd60e51b815260206004820152602260248201527f45524332303a20617070726f766520746f20746865207a65726f206164647265604482015261737360f01b60648201526084016107df565b6001600160a01b0383811660008181526034602090815260408083209487168084529482529182902085905590518481527f8c5be1e5ebec7d5bd14f71427d1e84f3dd0314c0f7b2291e5b200ac8c7c3b925910160405180910390a3505050565b60745460609060ff90811690831610801590611b36575060745460ff610100909104811690831611155b611ba85760405162461bcd60e51b815260206004820152603960248201527f6e56616c696461746f7273206d757374206265206265747765656e206d696e5660448201527f616c696461746f7220616e64206d617856616c696461746f720000000000000060648201526084016107df565b60008260ff16118015611bc057506071548260ff1611155b611c34576040805162461bcd60e51b81526020600482015260248101919091527f4e6f7420656e6f75676820617661696c61626c652076616c696461746f72732060448201527f666f72206a6f622c20706c656173652074727920616761696e206c617465722e60648201526084016107df565b60008260ff1667ffffffffffffffff811115611c5257611c52612498565b604051908082528060200260200182016040528015611c7b578160200160208202803683370190505b5090506000805b8460ff16811015611dc95760005b818303611dc057600060715442338480611ca990612755565b9550604051602001611ce09392919092835260609190911b6bffffffffffffffffffffffff19166020830152603482015260540190565b6040516020818303038152906040528051906020012060001c611d03919061292f565b600081815260696020526040902054909150600103611d5757611d27816001612142565b80858481518110611d3a57611d3a612729565b602090810291909101015283611d4f81612755565b945050611dba565b6032821015611d725781611d6a81612755565b925050611dba565b60405162461bcd60e51b815260206004820152601e60248201527f4d61782076616c696461746f722072657175657374732072656163686564000060448201526064016107df565b50611c90565b50600101611c82565b50909392505050565b6001600160a01b038381166000908152603460209081526040808320938616835292905220546000198114611e5e5781811015611e515760405162461bcd60e51b815260206004820152601d60248201527f45524332303a20696e73756666696369656e7420616c6c6f77616e636500000060448201526064016107df565b611e5e84848484036119e8565b50505050565b6001600160a01b038316611ec85760405162461bcd60e51b815260206004820152602560248201527f45524332303a207472616e736665722066726f6d20746865207a65726f206164604482015264647265737360d81b60648201526084016107df565b6001600160a01b038216611f2a5760405162461bcd60e51b815260206004820152602360248201527f45524332303a207472616e7366657220746f20746865207a65726f206164647260448201526265737360e81b60648201526084016107df565b6001600160a01b03831660009081526033602052604090205481811015611fa25760405162461bcd60e51b815260206004820152602660248201527f45524332303a207472616e7366657220616d6f756e7420657863656564732062604482015265616c616e636560d01b60648201526084016107df565b6001600160a01b03808516600090815260336020526040808220858503905591851681529081208054849290611fd990849061276e565b92505081905550826001600160a01b0316846001600160a01b03167fddf252ad1be2c89b69c2b068fc378daa952ba7f163c4a11628f55a4df523b3ef8460405161202591815260200190565b60405180910390a3611e5e565b6001600160a01b0382166120885760405162461bcd60e51b815260206004820152601f60248201527f45524332303a206d696e7420746f20746865207a65726f20616464726573730060448201526064016107df565b806035600082825461209a919061276e565b90915550506001600160a01b038216600090815260336020526040812080548392906120c790849061276e565b90915550506040518181526001600160a01b038316906000907fddf252ad1be2c89b69c2b068fc378daa952ba7f163c4a11628f55a4df523b3ef9060200160405180910390a35050565b600054610100900460ff166121385760405162461bcd60e51b81526004016107df90612951565b610efe82826122f1565b600082118015612153575060715482105b6121955760405162461bcd60e51b8152602060048201526013602482015272125b9d985b1a590815985b1a59185d1bdc9259606a1b60448201526064016107df565b6000828152606960205260409020546121f05760405162461bcd60e51b815260206004820152601860248201527f56616c696461746f72206973206e6f74206f6e6c696e652e000000000000000060448201526064016107df565b801561227e576000828152606960205260409020546001036122215750600090815260696020526040902060029055565b60405162461bcd60e51b815260206004820152602c60248201527f56616c696461746f72206265696e672061637469766174656420697320616c7260448201526b65616479206163746976652160a01b60648201526084016107df565b6000828152606960205260409020546002036122a95750600090815260696020526040902060019055565b60405162461bcd60e51b815260206004820152601e60248201527f56616c696461746f7220697320616c726561647920696e61637469766521000060448201526064016107df565b600054610100900460ff166123185760405162461bcd60e51b81526004016107df90612951565b60366123248382612836565b506037610db28282612836565b828054828255906000526020600020908101928215612386579160200282015b8281111561238657825182546001600160a01b0319166001600160a01b03909116178255602090920191600190910190612351565b50612392929150612396565b5090565b5b808211156123925760008155600101612397565b6000602082840312156123bd57600080fd5b5035919050565b60005b838110156123df5781810151838201526020016123c7565b50506000910152565b600081518084526124008160208601602086016123c4565b601f01601f19169290920160200192915050565b60208152600061242760208301846123e8565b9392505050565b80356001600160a01b038116811461244557600080fd5b919050565b6000806040838503121561245d57600080fd5b6124668361242e565b946020939093013593505050565b6000806040838503121561248757600080fd5b823560ff8116811461246657600080fd5b634e487b7160e01b600052604160045260246000fd5b6000602082840312156124c057600080fd5b813567ffffffffffffffff808211156124d857600080fd5b818401915084601f8301126124ec57600080fd5b8135818111156124fe576124fe612498565b604051601f8201601f19908116603f0116810190838211818310171561252657612526612498565b8160405282815287602084870101111561253f57600080fd5b826020860160208301376000928101602001929092525095945050505050565b60008060006060848603121561257457600080fd5b61257d8461242e565b925061258b6020850161242e565b9150604084013590509250925092565b6000602082840312156125ad57600080fd5b6124278261242e565b8781526001600160a01b038716602082015260e0604082018190526000906125e0908301886123e8565b905063ffffffff8616606083015284608083015260ff841660a083015282151560c083015298975050505050505050565b8481526001600160a01b038416602082015260806040820181905260009061263b908301856123e8565b905060ff8316606083015295945050505050565b60006020828403121561266157600080fd5b813563ffffffff8116811461242757600080fd5b6020808252825182820181905260009190848201906040850190845b818110156126b65783516001600160a01b031683529284019291840191600101612691565b50909695505050505050565b600080604083850312156126d557600080fd5b6126de8361242e565b91506126ec6020840161242e565b90509250929050565b600181811c9082168061270957607f821691505b60208210810361111757634e487b7160e01b600052602260045260246000fd5b634e487b7160e01b600052603260045260246000fd5b634e487b7160e01b600052601160045260246000fd5b6000600182016127675761276761273f565b5060010190565b808201808211156107865761078661273f565b60208082526021908201527f416d6f756e74206d7573742062652067726561746572207468616e207a65726f6040820152601760f91b606082015260800190565b63ffffffff8281168282160390808211156127df576127df61273f565b5092915050565b601f821115610db2576000816000526020600020601f850160051c8101602086101561280f5750805b601f850160051c820191505b8181101561282e5782815560010161281b565b505050505050565b815167ffffffffffffffff81111561285057612850612498565b6128648161285e84546126f5565b846127e6565b602080601f83116001811461289957600084156128815750858301515b600019600386901b1c1916600185901b17855561282e565b600085815260208120601f198616915b828110156128c8578886015182559484019460019091019084016128a9565b50858210156128e65787850151600019600388901b60f8161c191681555b5050505050600190811b01905550565b600082516129088184602087016123c4565b9190910192915050565b63ffffffff8181168382160190808211156127df576127df61273f565b60008261294c57634e487b7160e01b600052601260045260246000fd5b500690565b6020808252602b908201527f496e697469616c697a61626c653a20636f6e7472616374206973206e6f74206960408201526a6e697469616c697a696e6760a81b60608201526080019056fea2646970667358221220dc26b41bca313c2b6f5988cae7374b32a94141b900d7802c10c122780d60b3ce64736f6c63430008190033",
  "bytecodeSha1": "9eb47a729fd2e7bdead66c0f79274d4996104b65",
  "compiler": {
    "evm_version": "istanbul",
    "optimizer": {
      "enabled": true,
      "runs": 200
    },
    "version": "0.8.25+commit.b61c2a91"
  },
  "contractName": "SmartNodes",
  "language": "Solidity",
  "natspec": {
    "kind": "dev",
    "methods": {
      "allowance(address,address)": {
        "details": "See {IERC20-allowance}."
      },
      "approve(address,uint256)": {
        "details": "See {IERC20-approve}. NOTE: If `amount` is the maximum `uint256`, the allowance is not updated on `transferFrom`. This is semantically equivalent to an infinite approval. Requirements: - `spender` cannot be the zero address."
      },
      "balanceOf(address)": {
        "details": "See {IERC20-balanceOf}."
      },
      "decimals()": {
        "details": "Returns the number of decimals used to get its user representation. For example, if `decimals` equals `2`, a balance of `505` tokens should be displayed to a user as `5.05` (`505 / 10 ** 2`). Tokens usually opt for a value of 18, imitating the relationship between Ether and Wei. This is the value {ERC20} uses, unless this function is overridden; NOTE: This information is only used for _display_ purposes: it in no way affects any of the arithmetic of the contract, including {IERC20-balanceOf} and {IERC20-transfer}."
      },
      "decreaseAllowance(address,uint256)": {
        "details": "Atomically decreases the allowance granted to `spender` by the caller. This is an alternative to {approve} that can be used as a mitigation for problems described in {IERC20-approve}. Emits an {Approval} event indicating the updated allowance. Requirements: - `spender` cannot be the zero address. - `spender` must have allowance for the caller of at least `subtractedValue`."
      },
      "increaseAllowance(address,uint256)": {
        "details": "Atomically increases the allowance granted to `spender` by the caller. This is an alternative to {approve} that can be used as a mitigation for problems described in {IERC20-approve}. Emits an {Approval} event indicating the updated allowance. Requirements: - `spender` cannot be the zero address."
      },
      "lockTokens(uint32)": {
        "notice": "Validator Token Locking and Unlocking ///"
      },
      "name()": {
        "details": "Returns the name of the token."
      },
      "symbol()": {
        "details": "Returns the symbol of the token, usually a shorter version of the name."
      },
      "totalSupply()": {
        "details": "See {IERC20-totalSupply}."
      },
      "transfer(address,uint256)": {
        "details": "See {IERC20-transfer}. Requirements: - `to` cannot be the zero address. - the caller must have a balance of at least `amount`."
      },
      "transferFrom(address,address,uint256)": {
        "details": "See {IERC20-transferFrom}. Emits an {Approval} event indicating the updated allowance. This is not required by the EIP. See the note at the beginning of {ERC20}. NOTE: Does not update the allowance if the current allowance is the maximum `uint256`. Requirements: - `from` and `to` cannot be the zero address. - `from` must have a balance of at least `amount`. - the caller must have allowance for ``from``'s tokens of at least `amount`."
      }
    },
    "version": 1
  },
  "opcodes": "PUSH1 0x80 PUSH1 0x40 MSTORE CALLVALUE DUP1 ISZERO PUSH2 0x10 JUMPI PUSH1 0x0 DUP1 REVERT JUMPDEST POP PUSH1 0x4 CALLDATASIZE LT PUSH2 0x269 JUMPI PUSH1 0x0 CALLDATALOAD PUSH1 0xE0 SHR DUP1 PUSH4 0x507FFBA5 GT PUSH2 0x151 JUMPI DUP1 PUSH4 0xA457C2D7 GT PUSH2 0xC3 JUMPI DUP1 PUSH4 0xD057FC19 GT PUSH2 0x87 JUMPI DUP1 PUSH4 0xD057FC19 EQ PUSH2 0x63B JUMPI DUP1 PUSH4 0xD56C907D EQ PUSH2 0x64E JUMPI DUP1 PUSH4 0xDB1EF71F EQ PUSH2 0x656 JUMPI DUP1 PUSH4 0xDD62ED3E EQ PUSH2 0x669 JUMPI DUP1 PUSH4 0xEC81560F EQ PUSH2 0x6A2 JUMPI DUP1 PUSH4 0xF49D2A46 EQ PUSH2 0x6B5 JUMPI PUSH1 0x0 DUP1 REVERT JUMPDEST DUP1 PUSH4 0xA457C2D7 EQ PUSH2 0x5D2 JUMPI DUP1 PUSH4 0xA9059CBB EQ PUSH2 0x5E5 JUMPI DUP1 PUSH4 0xC1B07BF9 EQ PUSH2 0x5F8 JUMPI DUP1 PUSH4 0xC5AB2241 EQ PUSH2 0x61B JUMPI DUP1 PUSH4 0xCF6ACD47 EQ PUSH2 0x628 JUMPI PUSH1 0x0 DUP1 REVERT JUMPDEST DUP1 PUSH4 0x70A08231 GT PUSH2 0x115 JUMPI DUP1 PUSH4 0x70A08231 EQ PUSH2 0x55D JUMPI DUP1 PUSH4 0x751DF890 EQ PUSH2 0x586 JUMPI DUP1 PUSH4 0x8129FC1C EQ PUSH2 0x5A6 JUMPI DUP1 PUSH4 0x8F029D5E EQ PUSH2 0x5AE JUMPI DUP1 PUSH4 0x95D89B41 EQ PUSH2 0x5B7 JUMPI DUP1 PUSH4 0xA1C0D32F EQ PUSH2 0x5BF JUMPI PUSH1 0x0 DUP1 REVERT JUMPDEST DUP1 PUSH4 0x507FFBA5 EQ PUSH2 0x4DD JUMPI DUP1 PUSH4 0x5EC01E4D EQ PUSH2 0x4F0 JUMPI DUP1 PUSH4 0x616D7173 EQ PUSH2 0x517 JUMPI DUP1 PUSH4 0x62AC03E9 EQ PUSH2 0x52A JUMPI DUP1 PUSH4 0x6817DD5B EQ PUSH2 0x53D JUMPI PUSH1 0x0 DUP1 REVERT JUMPDEST DUP1 PUSH4 0x27764547 GT PUSH2 0x1EA JUMPI DUP1 PUSH4 0x35AA2E44 GT PUSH2 0x1AE JUMPI DUP1 PUSH4 0x35AA2E44 EQ PUSH2 0x445 JUMPI DUP1 PUSH4 0x365B98B2 EQ PUSH2 0x46B JUMPI DUP1 PUSH4 0x39509351 EQ PUSH2 0x48E JUMPI DUP1 PUSH4 0x44C6957B EQ PUSH2 0x4A1 JUMPI DUP1 PUSH4 0x4B759088 EQ PUSH2 0x4B4 JUMPI DUP1 PUSH4 0x50355D76 EQ PUSH2 0x4D4 JUMPI PUSH1 0x0 DUP1 REVERT JUMPDEST DUP1 PUSH4 0x27764547 EQ PUSH2 0x3E2 JUMPI DUP1 PUSH4 0x2FABA6AE EQ PUSH2 0x402 JUMPI DUP1 PUSH4 0x313CE567 EQ PUSH2 0x40B JUMPI DUP1 PUSH4 0x32412BAF EQ PUSH2 0x412 JUMPI DUP1 PUSH4 0x32D40160 EQ PUSH2 0x41A JUMPI PUSH1 0x0 DUP1 REVERT JUMPDEST DUP1 PUSH4 0x180AEDF3 GT PUSH2 0x231 JUMPI DUP1 PUSH4 0x180AEDF3 EQ PUSH2 0x312 JUMPI DUP1 PUSH4 0x18160DDD EQ PUSH2 0x394 JUMPI DUP1 PUSH4 0x2130A16F EQ PUSH2 0x39C JUMPI DUP1 PUSH4 0x2257B8DA EQ PUSH2 0x3C7 JUMPI DUP1 PUSH4 0x23B872DD EQ PUSH2 0x3CF JUMPI PUSH1 0x0 DUP1 REVERT JUMPDEST DUP1 PUSH4 0x12DCCDD EQ PUSH2 0x26E JUMPI DUP1 PUSH4 0x6FDDE03 EQ PUSH2 0x2A1 JUMPI DUP1 PUSH4 0x8AC5256 EQ PUSH2 0x2B6 JUMPI DUP1 PUSH4 0x95EA7B3 EQ PUSH2 0x2DA JUMPI DUP1 PUSH4 0xC97CF81 EQ PUSH2 0x2FD JUMPI JUMPDEST PUSH1 0x0 DUP1 REVERT JUMPDEST PUSH2 0x28E PUSH2 0x27C CALLDATASIZE PUSH1 0x4 PUSH2 0x23AB JUMP JUMPDEST PUSH1 0x70 PUSH1 0x20 MSTORE PUSH1 0x0 SWAP1 DUP2 MSTORE PUSH1 0x40 SWAP1 KECCAK256 SLOAD DUP2 JUMP JUMPDEST PUSH1 0x40 MLOAD SWAP1 DUP2 MSTORE PUSH1 0x20 ADD JUMPDEST PUSH1 0x40 MLOAD DUP1 SWAP2 SUB SWAP1 RETURN JUMPDEST PUSH2 0x2A9 PUSH2 0x6E0 JUMP JUMPDEST PUSH1 0x40 MLOAD PUSH2 0x298 SWAP2 SWAP1 PUSH2 0x2414 JUMP JUMPDEST PUSH1 0x74 SLOAD PUSH2 0x2C8 SWAP1 PUSH2 0x100 SWAP1 DIV PUSH1 0xFF AND DUP2 JUMP JUMPDEST PUSH1 0x40 MLOAD PUSH1 0xFF SWAP1 SWAP2 AND DUP2 MSTORE PUSH1 0x20 ADD PUSH2 0x298 JUMP JUMPDEST PUSH2 0x2ED PUSH2 0x2E8 CALLDATASIZE PUSH1 0x4 PUSH2 0x244A JUMP JUMPDEST PUSH2 0x772 JUMP JUMPDEST PUSH1 0x40 MLOAD SWAP1 ISZERO ISZERO DUP2 MSTORE PUSH1 0x20 ADD PUSH2 0x298 JUMP JUMPDEST PUSH2 0x310 PUSH2 0x30B CALLDATASIZE PUSH1 0x4 PUSH2 0x2474 JUMP JUMPDEST PUSH2 0x78C JUMP JUMPDEST STOP JUMPDEST PUSH2 0x35F PUSH2 0x320 CALLDATASIZE PUSH1 0x4 PUSH2 0x23AB JUMP JUMPDEST PUSH1 0x6F PUSH1 0x20 MSTORE PUSH1 0x0 SWAP1 DUP2 MSTORE PUSH1 0x40 SWAP1 KECCAK256 DUP1 SLOAD PUSH1 0x1 DUP3 ADD SLOAD PUSH1 0x2 DUP4 ADD SLOAD PUSH1 0x4 DUP5 ADD SLOAD PUSH1 0x6 SWAP1 SWAP5 ADD SLOAD SWAP3 SWAP4 PUSH1 0x1 PUSH1 0x1 PUSH1 0xA0 SHL SUB SWAP1 SWAP3 AND SWAP3 SWAP1 SWAP2 PUSH1 0xFF SWAP1 DUP2 AND SWAP2 AND DUP6 JUMP JUMPDEST PUSH1 0x40 DUP1 MLOAD SWAP6 DUP7 MSTORE PUSH1 0x1 PUSH1 0x1 PUSH1 0xA0 SHL SUB SWAP1 SWAP5 AND PUSH1 0x20 DUP7 ADD MSTORE SWAP3 DUP5 ADD SWAP2 SWAP1 SWAP2 MSTORE ISZERO ISZERO PUSH1 0x60 DUP4 ADD MSTORE PUSH1 0xFF AND PUSH1 0x80 DUP3 ADD MSTORE PUSH1 0xA0 ADD PUSH2 0x298 JUMP JUMPDEST PUSH1 0x35 SLOAD PUSH2 0x28E JUMP JUMPDEST PUSH2 0x28E PUSH2 0x3AA CALLDATASIZE PUSH1 0x4 PUSH2 0x24AE JUMP JUMPDEST DUP1 MLOAD PUSH1 0x20 DUP2 DUP4 ADD DUP2 ADD DUP1 MLOAD PUSH1 0x67 DUP3 MSTORE SWAP3 DUP3 ADD SWAP2 SWAP1 SWAP4 ADD KECCAK256 SWAP2 MSTORE SLOAD DUP2 JUMP JUMPDEST PUSH1 0x73 SLOAD PUSH2 0x28E JUMP JUMPDEST PUSH2 0x2ED PUSH2 0x3DD CALLDATASIZE PUSH1 0x4 PUSH2 0x255F JUMP JUMPDEST PUSH2 0x9E2 JUMP JUMPDEST PUSH2 0x28E PUSH2 0x3F0 CALLDATASIZE PUSH1 0x4 PUSH2 0x259B JUMP JUMPDEST PUSH1 0x66 PUSH1 0x20 MSTORE PUSH1 0x0 SWAP1 DUP2 MSTORE PUSH1 0x40 SWAP1 KECCAK256 SLOAD DUP2 JUMP JUMPDEST PUSH2 0x28E PUSH1 0x72 SLOAD DUP2 JUMP JUMPDEST PUSH1 0x12 PUSH2 0x2C8 JUMP JUMPDEST PUSH1 0x72 SLOAD PUSH2 0x28E JUMP JUMPDEST PUSH2 0x28E PUSH2 0x428 CALLDATASIZE PUSH1 0x4 PUSH2 0x24AE JUMP JUMPDEST DUP1 MLOAD PUSH1 0x20 DUP2 DUP4 ADD DUP2 ADD DUP1 MLOAD PUSH1 0x6C DUP3 MSTORE SWAP3 DUP3 ADD SWAP2 SWAP1 SWAP4 ADD KECCAK256 SWAP2 MSTORE SLOAD DUP2 JUMP JUMPDEST PUSH2 0x458 PUSH2 0x453 CALLDATASIZE PUSH1 0x4 PUSH2 0x23AB JUMP JUMPDEST PUSH2 0xA06 JUMP JUMPDEST PUSH1 0x40 MLOAD PUSH2 0x298 SWAP8 SWAP7 SWAP6 SWAP5 SWAP4 SWAP3 SWAP2 SWAP1 PUSH2 0x25B6 JUMP JUMPDEST PUSH2 0x47E PUSH2 0x479 CALLDATASIZE PUSH1 0x4 PUSH2 0x23AB JUMP JUMPDEST PUSH2 0xAE2 JUMP JUMPDEST PUSH1 0x40 MLOAD PUSH2 0x298 SWAP5 SWAP4 SWAP3 SWAP2 SWAP1 PUSH2 0x2611 JUMP JUMPDEST PUSH2 0x2ED PUSH2 0x49C CALLDATASIZE PUSH1 0x4 PUSH2 0x244A JUMP JUMPDEST PUSH2 0xBA0 JUMP JUMPDEST PUSH2 0x310 PUSH2 0x4AF CALLDATASIZE PUSH1 0x4 PUSH2 0x264F JUMP JUMPDEST PUSH2 0xBDF JUMP JUMPDEST PUSH2 0x28E PUSH2 0x4C2 CALLDATASIZE PUSH1 0x4 PUSH2 0x259B JUMP JUMPDEST PUSH1 0x6B PUSH1 0x20 MSTORE PUSH1 0x0 SWAP1 DUP2 MSTORE PUSH1 0x40 SWAP1 KECCAK256 SLOAD DUP2 JUMP JUMPDEST PUSH2 0x28E PUSH1 0x73 SLOAD DUP2 JUMP JUMPDEST PUSH2 0x310 PUSH2 0x4EB CALLDATASIZE PUSH1 0x4 PUSH2 0x24AE JUMP JUMPDEST PUSH2 0xDB7 JUMP JUMPDEST PUSH1 0x40 DUP1 MLOAD TIMESTAMP PUSH1 0x20 DUP1 DUP4 ADD SWAP2 SWAP1 SWAP2 MSTORE DUP3 MLOAD DUP1 DUP4 SUB DUP3 ADD DUP2 MSTORE SWAP2 DUP4 ADD SWAP1 SWAP3 MSTORE DUP1 MLOAD SWAP2 ADD KECCAK256 PUSH2 0x28E JUMP JUMPDEST PUSH2 0x28E PUSH2 0x525 CALLDATASIZE PUSH1 0x4 PUSH2 0x23AB JUMP JUMPDEST PUSH2 0xF02 JUMP JUMPDEST PUSH2 0x2A9 PUSH2 0x538 CALLDATASIZE PUSH1 0x4 PUSH2 0x23AB JUMP JUMPDEST PUSH2 0xF6A JUMP JUMPDEST PUSH2 0x550 PUSH2 0x54B CALLDATASIZE PUSH1 0x4 PUSH2 0x23AB JUMP JUMPDEST PUSH2 0x1004 JUMP JUMPDEST PUSH1 0x40 MLOAD PUSH2 0x298 SWAP2 SWAP1 PUSH2 0x2675 JUMP JUMPDEST PUSH2 0x28E PUSH2 0x56B CALLDATASIZE PUSH1 0x4 PUSH2 0x259B JUMP JUMPDEST PUSH1 0x1 PUSH1 0x1 PUSH1 0xA0 SHL SUB AND PUSH1 0x0 SWAP1 DUP2 MSTORE PUSH1 0x33 PUSH1 0x20 MSTORE PUSH1 0x40 SWAP1 KECCAK256 SLOAD SWAP1 JUMP JUMPDEST PUSH2 0x28E PUSH2 0x594 CALLDATASIZE PUSH1 0x4 PUSH2 0x23AB JUMP JUMPDEST PUSH1 0x69 PUSH1 0x20 MSTORE PUSH1 0x0 SWAP1 DUP2 MSTORE PUSH1 0x40 SWAP1 KECCAK256 SLOAD DUP2 JUMP JUMPDEST PUSH2 0x310 PUSH2 0x111D JUMP JUMPDEST PUSH2 0x28E PUSH1 0x71 SLOAD DUP2 JUMP JUMPDEST PUSH2 0x2A9 PUSH2 0x1248 JUMP JUMPDEST PUSH2 0x310 PUSH2 0x5CD CALLDATASIZE PUSH1 0x4 PUSH2 0x23AB JUMP JUMPDEST PUSH2 0x1257 JUMP JUMPDEST PUSH2 0x2ED PUSH2 0x5E0 CALLDATASIZE PUSH1 0x4 PUSH2 0x244A JUMP JUMPDEST PUSH2 0x14F7 JUMP JUMPDEST PUSH2 0x2ED PUSH2 0x5F3 CALLDATASIZE PUSH1 0x4 PUSH2 0x244A JUMP JUMPDEST PUSH2 0x1589 JUMP JUMPDEST PUSH2 0x2ED PUSH2 0x606 CALLDATASIZE PUSH1 0x4 PUSH2 0x23AB JUMP JUMPDEST PUSH1 0x6E PUSH1 0x20 MSTORE PUSH1 0x0 SWAP1 DUP2 MSTORE PUSH1 0x40 SWAP1 KECCAK256 SLOAD PUSH1 0xFF AND DUP2 JUMP JUMPDEST PUSH1 0x74 SLOAD PUSH2 0x2C8 SWAP1 PUSH1 0xFF AND DUP2 JUMP JUMPDEST PUSH2 0x310 PUSH2 0x636 CALLDATASIZE PUSH1 0x4 PUSH2 0x24AE JUMP JUMPDEST PUSH2 0x1597 JUMP JUMPDEST PUSH2 0x2A9 PUSH2 0x649 CALLDATASIZE PUSH1 0x4 PUSH2 0x259B JUMP JUMPDEST PUSH2 0x1722 JUMP JUMPDEST PUSH1 0x71 SLOAD PUSH2 0x28E JUMP JUMPDEST PUSH2 0x28E PUSH2 0x664 CALLDATASIZE PUSH1 0x4 PUSH2 0x24AE JUMP JUMPDEST PUSH2 0x173B JUMP JUMPDEST PUSH2 0x28E PUSH2 0x677 CALLDATASIZE PUSH1 0x4 PUSH2 0x26C2 JUMP JUMPDEST PUSH1 0x1 PUSH1 0x1 PUSH1 0xA0 SHL SUB SWAP2 DUP3 AND PUSH1 0x0 SWAP1 DUP2 MSTORE PUSH1 0x34 PUSH1 0x20 SWAP1 DUP2 MSTORE PUSH1 0x40 DUP1 DUP4 KECCAK256 SWAP4 SWAP1 SWAP5 AND DUP3 MSTORE SWAP2 SWAP1 SWAP2 MSTORE KECCAK256 SLOAD SWAP1 JUMP JUMPDEST PUSH2 0x310 PUSH2 0x6B0 CALLDATASIZE PUSH1 0x4 PUSH2 0x264F JUMP JUMPDEST PUSH2 0x1763 JUMP JUMPDEST PUSH2 0x6C8 PUSH2 0x6C3 CALLDATASIZE PUSH1 0x4 PUSH2 0x23AB JUMP JUMPDEST PUSH2 0x193F JUMP JUMPDEST PUSH1 0x40 MLOAD PUSH1 0x1 PUSH1 0x1 PUSH1 0xA0 SHL SUB SWAP1 SWAP2 AND DUP2 MSTORE PUSH1 0x20 ADD PUSH2 0x298 JUMP JUMPDEST PUSH1 0x60 PUSH1 0x36 DUP1 SLOAD PUSH2 0x6EF SWAP1 PUSH2 0x26F5 JUMP JUMPDEST DUP1 PUSH1 0x1F ADD PUSH1 0x20 DUP1 SWAP2 DIV MUL PUSH1 0x20 ADD PUSH1 0x40 MLOAD SWAP1 DUP2 ADD PUSH1 0x40 MSTORE DUP1 SWAP3 SWAP2 SWAP1 DUP2 DUP2 MSTORE PUSH1 0x20 ADD DUP3 DUP1 SLOAD PUSH2 0x71B SWAP1 PUSH2 0x26F5 JUMP JUMPDEST DUP1 ISZERO PUSH2 0x768 JUMPI DUP1 PUSH1 0x1F LT PUSH2 0x73D JUMPI PUSH2 0x100 DUP1 DUP4 SLOAD DIV MUL DUP4 MSTORE SWAP2 PUSH1 0x20 ADD SWAP2 PUSH2 0x768 JUMP JUMPDEST DUP3 ADD SWAP2 SWAP1 PUSH1 0x0 MSTORE PUSH1 0x20 PUSH1 0x0 KECCAK256 SWAP1 JUMPDEST DUP2 SLOAD DUP2 MSTORE SWAP1 PUSH1 0x1 ADD SWAP1 PUSH1 0x20 ADD DUP1 DUP4 GT PUSH2 0x74B JUMPI DUP3 SWAP1 SUB PUSH1 0x1F AND DUP3 ADD SWAP2 JUMPDEST POP POP POP POP POP SWAP1 POP SWAP1 JUMP JUMPDEST PUSH1 0x0 CALLER PUSH2 0x780 DUP2 DUP6 DUP6 PUSH2 0x19E8 JUMP JUMPDEST PUSH1 0x1 SWAP2 POP POP JUMPDEST SWAP3 SWAP2 POP POP JUMP JUMPDEST CALLER PUSH1 0x0 SWAP1 DUP2 MSTORE PUSH1 0x6B PUSH1 0x20 MSTORE PUSH1 0x40 DUP2 KECCAK256 SLOAD SWAP1 DUP2 SWAP1 SUB PUSH2 0x7E8 JUMPI PUSH1 0x40 MLOAD PUSH3 0x461BCD PUSH1 0xE5 SHL DUP2 MSTORE PUSH1 0x20 PUSH1 0x4 DUP3 ADD MSTORE PUSH1 0x14 PUSH1 0x24 DUP3 ADD MSTORE PUSH20 0x2AB9B2B9103737BA103932B3B4B9BA32B932B217 PUSH1 0x61 SHL PUSH1 0x44 DUP3 ADD MSTORE PUSH1 0x64 ADD JUMPDEST PUSH1 0x40 MLOAD DUP1 SWAP2 SUB SWAP1 REVERT JUMPDEST PUSH1 0x0 DUP3 GT PUSH2 0x838 JUMPI PUSH1 0x40 MLOAD PUSH3 0x461BCD PUSH1 0xE5 SHL DUP2 MSTORE PUSH1 0x20 PUSH1 0x4 DUP3 ADD MSTORE PUSH1 0x1E PUSH1 0x24 DUP3 ADD MSTORE PUSH32 0x4361706163697479206D7573742062652067726561746572207A65726F2E0000 PUSH1 0x44 DUP3 ADD MSTORE PUSH1 0x64 ADD PUSH2 0x7DF JUMP JUMPDEST PUSH1 0x0 DUP2 DUP2 MSTORE PUSH1 0x6E PUSH1 0x20 MSTORE PUSH1 0x40 SWAP1 KECCAK256 SLOAD PUSH1 0xFF AND ISZERO PUSH2 0x897 JUMPI PUSH1 0x40 MLOAD PUSH3 0x461BCD PUSH1 0xE5 SHL DUP2 MSTORE PUSH1 0x20 PUSH1 0x4 DUP3 ADD MSTORE PUSH1 0x17 PUSH1 0x24 DUP3 ADD MSTORE PUSH32 0x557365722068617320616E20616374697665206A6F622E000000000000000000 PUSH1 0x44 DUP3 ADD MSTORE PUSH1 0x64 ADD PUSH2 0x7DF JUMP JUMPDEST PUSH1 0x73 SLOAD PUSH1 0x0 DUP2 DUP2 MSTORE PUSH1 0x6F PUSH1 0x20 MSTORE PUSH1 0x40 DUP2 KECCAK256 SWAP2 DUP3 SSTORE PUSH1 0x1 DUP3 ADD DUP1 SLOAD PUSH1 0x1 PUSH1 0x1 PUSH1 0xA0 SHL SUB NOT AND CALLER OR SWAP1 SSTORE PUSH1 0x2 DUP3 ADD DUP5 SWAP1 SSTORE PUSH2 0x8CF DUP6 PUSH2 0x1B0C JUMP JUMPDEST DUP3 SLOAD PUSH1 0x0 DUP6 DUP2 MSTORE PUSH1 0x70 PUSH1 0x20 MSTORE PUSH1 0x40 DUP2 KECCAK256 SWAP2 SWAP1 SWAP2 SSTORE DUP2 MLOAD SWAP2 SWAP3 POP SWAP1 PUSH8 0xFFFFFFFFFFFFFFFF DUP2 GT ISZERO PUSH2 0x901 JUMPI PUSH2 0x901 PUSH2 0x2498 JUMP JUMPDEST PUSH1 0x40 MLOAD SWAP1 DUP1 DUP3 MSTORE DUP1 PUSH1 0x20 MUL PUSH1 0x20 ADD DUP3 ADD PUSH1 0x40 MSTORE DUP1 ISZERO PUSH2 0x92A JUMPI DUP2 PUSH1 0x20 ADD PUSH1 0x20 DUP3 MUL DUP1 CALLDATASIZE DUP4 CALLDATACOPY ADD SWAP1 POP JUMPDEST POP SWAP1 POP PUSH1 0x0 JUMPDEST DUP3 MLOAD DUP2 LT ISZERO PUSH2 0x9AE JUMPI PUSH1 0x65 PUSH1 0x0 DUP5 DUP4 DUP2 MLOAD DUP2 LT PUSH2 0x94F JUMPI PUSH2 0x94F PUSH2 0x2729 JUMP JUMPDEST PUSH1 0x20 MUL PUSH1 0x20 ADD ADD MLOAD DUP2 MSTORE PUSH1 0x20 ADD SWAP1 DUP2 MSTORE PUSH1 0x20 ADD PUSH1 0x0 KECCAK256 PUSH1 0x1 ADD PUSH1 0x0 SWAP1 SLOAD SWAP1 PUSH2 0x100 EXP SWAP1 DIV PUSH1 0x1 PUSH1 0x1 PUSH1 0xA0 SHL SUB AND DUP3 DUP3 DUP2 MLOAD DUP2 LT PUSH2 0x98E JUMPI PUSH2 0x98E PUSH2 0x2729 JUMP JUMPDEST PUSH1 0x1 PUSH1 0x1 PUSH1 0xA0 SHL SUB SWAP1 SWAP3 AND PUSH1 0x20 SWAP3 DUP4 MUL SWAP2 SWAP1 SWAP2 ADD SWAP1 SWAP2 ADD MSTORE PUSH1 0x1 ADD PUSH2 0x930 JUMP JUMPDEST POP DUP1 MLOAD PUSH2 0x9C4 SWAP1 PUSH1 0x3 DUP6 ADD SWAP1 PUSH1 0x20 DUP5 ADD SWAP1 PUSH2 0x2331 JUMP JUMPDEST POP PUSH1 0x73 DUP1 SLOAD SWAP1 PUSH1 0x0 PUSH2 0x9D5 DUP4 PUSH2 0x2755 JUMP JUMPDEST SWAP2 SWAP1 POP SSTORE POP POP POP POP POP POP POP JUMP JUMPDEST PUSH1 0x0 CALLER PUSH2 0x9F0 DUP6 DUP3 DUP6 PUSH2 0x1DD2 JUMP JUMPDEST PUSH2 0x9FB DUP6 DUP6 DUP6 PUSH2 0x1E64 JUMP JUMPDEST POP PUSH1 0x1 SWAP5 SWAP4 POP POP POP POP JUMP JUMPDEST PUSH1 0x65 PUSH1 0x20 MSTORE PUSH1 0x0 SWAP1 DUP2 MSTORE PUSH1 0x40 SWAP1 KECCAK256 DUP1 SLOAD PUSH1 0x1 DUP3 ADD SLOAD PUSH1 0x2 DUP4 ADD DUP1 SLOAD SWAP3 SWAP4 PUSH1 0x1 PUSH1 0x1 PUSH1 0xA0 SHL SUB SWAP1 SWAP3 AND SWAP3 PUSH2 0xA38 SWAP1 PUSH2 0x26F5 JUMP JUMPDEST DUP1 PUSH1 0x1F ADD PUSH1 0x20 DUP1 SWAP2 DIV MUL PUSH1 0x20 ADD PUSH1 0x40 MLOAD SWAP1 DUP2 ADD PUSH1 0x40 MSTORE DUP1 SWAP3 SWAP2 SWAP1 DUP2 DUP2 MSTORE PUSH1 0x20 ADD DUP3 DUP1 SLOAD PUSH2 0xA64 SWAP1 PUSH2 0x26F5 JUMP JUMPDEST DUP1 ISZERO PUSH2 0xAB1 JUMPI DUP1 PUSH1 0x1F LT PUSH2 0xA86 JUMPI PUSH2 0x100 DUP1 DUP4 SLOAD DIV MUL DUP4 MSTORE SWAP2 PUSH1 0x20 ADD SWAP2 PUSH2 0xAB1 JUMP JUMPDEST DUP3 ADD SWAP2 SWAP1 PUSH1 0x0 MSTORE PUSH1 0x20 PUSH1 0x0 KECCAK256 SWAP1 JUMPDEST DUP2 SLOAD DUP2 MSTORE SWAP1 PUSH1 0x1 ADD SWAP1 PUSH1 0x20 ADD DUP1 DUP4 GT PUSH2 0xA94 JUMPI DUP3 SWAP1 SUB PUSH1 0x1F AND DUP3 ADD SWAP2 JUMPDEST POP POP POP POP PUSH1 0x3 DUP4 ADD SLOAD PUSH1 0x4 DUP5 ADD SLOAD PUSH1 0x5 SWAP1 SWAP5 ADD SLOAD SWAP3 SWAP4 PUSH4 0xFFFFFFFF SWAP1 SWAP2 AND SWAP3 SWAP1 SWAP2 POP PUSH1 0xFF DUP1 DUP3 AND SWAP2 PUSH2 0x100 SWAP1 DIV AND DUP8 JUMP JUMPDEST PUSH1 0x6A PUSH1 0x20 MSTORE PUSH1 0x0 SWAP1 DUP2 MSTORE PUSH1 0x40 SWAP1 KECCAK256 DUP1 SLOAD PUSH1 0x1 DUP3 ADD SLOAD PUSH1 0x2 DUP4 ADD DUP1 SLOAD SWAP3 SWAP4 PUSH1 0x1 PUSH1 0x1 PUSH1 0xA0 SHL SUB SWAP1 SWAP3 AND SWAP3 PUSH2 0xB14 SWAP1 PUSH2 0x26F5 JUMP JUMPDEST DUP1 PUSH1 0x1F ADD PUSH1 0x20 DUP1 SWAP2 DIV MUL PUSH1 0x20 ADD PUSH1 0x40 MLOAD SWAP1 DUP2 ADD PUSH1 0x40 MSTORE DUP1 SWAP3 SWAP2 SWAP1 DUP2 DUP2 MSTORE PUSH1 0x20 ADD DUP3 DUP1 SLOAD PUSH2 0xB40 SWAP1 PUSH2 0x26F5 JUMP JUMPDEST DUP1 ISZERO PUSH2 0xB8D JUMPI DUP1 PUSH1 0x1F LT PUSH2 0xB62 JUMPI PUSH2 0x100 DUP1 DUP4 SLOAD DIV MUL DUP4 MSTORE SWAP2 PUSH1 0x20 ADD SWAP2 PUSH2 0xB8D JUMP JUMPDEST DUP3 ADD SWAP2 SWAP1 PUSH1 0x0 MSTORE PUSH1 0x20 PUSH1 0x0 KECCAK256 SWAP1 JUMPDEST DUP2 SLOAD DUP2 MSTORE SWAP1 PUSH1 0x1 ADD SWAP1 PUSH1 0x20 ADD DUP1 DUP4 GT PUSH2 0xB70 JUMPI DUP3 SWAP1 SUB PUSH1 0x1F AND DUP3 ADD SWAP2 JUMPDEST POP POP POP PUSH1 0x3 SWAP1 SWAP4 ADD SLOAD SWAP2 SWAP3 POP POP PUSH1 0xFF AND DUP5 JUMP JUMPDEST CALLER PUSH1 0x0 DUP2 DUP2 MSTORE PUSH1 0x34 PUSH1 0x20 SWAP1 DUP2 MSTORE PUSH1 0x40 DUP1 DUP4 KECCAK256 PUSH1 0x1 PUSH1 0x1 PUSH1 0xA0 SHL SUB DUP8 AND DUP5 MSTORE SWAP1 SWAP2 MSTORE DUP2 KECCAK256 SLOAD SWAP1 SWAP2 SWAP1 PUSH2 0x780 SWAP1 DUP3 SWAP1 DUP7 SWAP1 PUSH2 0xBDA SWAP1 DUP8 SWAP1 PUSH2 0x276E JUMP JUMPDEST PUSH2 0x19E8 JUMP JUMPDEST CALLER PUSH1 0x0 SWAP1 DUP2 MSTORE PUSH1 0x66 PUSH1 0x20 SWAP1 DUP2 MSTORE PUSH1 0x40 DUP1 DUP4 KECCAK256 SLOAD DUP1 DUP5 MSTORE PUSH1 0x65 SWAP1 SWAP3 MSTORE SWAP1 SWAP2 KECCAK256 PUSH1 0x3 DUP2 ADD SLOAD PUSH4 0xFFFFFFFF SWAP1 DUP2 AND SWAP1 DUP5 AND GT ISZERO PUSH2 0xC5B JUMPI PUSH1 0x40 MLOAD PUSH3 0x461BCD PUSH1 0xE5 SHL DUP2 MSTORE PUSH1 0x20 PUSH1 0x4 DUP3 ADD MSTORE PUSH1 0x1E PUSH1 0x24 DUP3 ADD MSTORE PUSH32 0x416D6F756E742065786365656473206C6F636B65642062616C616E63652E0000 PUSH1 0x44 DUP3 ADD MSTORE PUSH1 0x64 ADD PUSH2 0x7DF JUMP JUMPDEST PUSH1 0x0 DUP4 PUSH4 0xFFFFFFFF AND GT PUSH2 0xC81 JUMPI PUSH1 0x40 MLOAD PUSH3 0x461BCD PUSH1 0xE5 SHL DUP2 MSTORE PUSH1 0x4 ADD PUSH2 0x7DF SWAP1 PUSH2 0x2781 JUMP JUMPDEST DUP1 PUSH1 0x4 ADD SLOAD PUSH1 0x0 SUB PUSH2 0xCDB JUMPI PUSH2 0xC99 TIMESTAMP PUSH2 0xC4E0 PUSH2 0x276E JUMP JUMPDEST PUSH1 0x4 DUP3 ADD DUP2 SWAP1 SSTORE PUSH1 0x40 MLOAD SWAP1 DUP2 MSTORE CALLER SWAP1 PUSH32 0x77635F8F13EE1A01D11246347C649817C6EE9FA7620CE4C6ADFA2452BFA162B2 SWAP1 PUSH1 0x20 ADD JUMPDEST PUSH1 0x40 MLOAD DUP1 SWAP2 SUB SWAP1 LOG2 POP POP POP JUMP JUMPDEST DUP1 PUSH1 0x4 ADD SLOAD TIMESTAMP LT ISZERO PUSH2 0xD2F JUMPI PUSH1 0x40 MLOAD PUSH3 0x461BCD PUSH1 0xE5 SHL DUP2 MSTORE PUSH1 0x20 PUSH1 0x4 DUP3 ADD MSTORE PUSH1 0x18 PUSH1 0x24 DUP3 ADD MSTORE PUSH32 0x546F6B656E7320617265207374696C6C206C6F636B65642E0000000000000000 PUSH1 0x44 DUP3 ADD MSTORE PUSH1 0x64 ADD PUSH2 0x7DF JUMP JUMPDEST PUSH1 0x3 DUP2 ADD DUP1 SLOAD DUP5 SWAP2 SWAP1 PUSH1 0x0 SWAP1 PUSH2 0xD4C SWAP1 DUP5 SWAP1 PUSH4 0xFFFFFFFF AND PUSH2 0x27C2 JUMP JUMPDEST SWAP3 POP PUSH2 0x100 EXP DUP2 SLOAD DUP2 PUSH4 0xFFFFFFFF MUL NOT AND SWAP1 DUP4 PUSH4 0xFFFFFFFF AND MUL OR SWAP1 SSTORE POP PUSH2 0xD7A CALLER DUP5 PUSH4 0xFFFFFFFF AND PUSH2 0x2032 JUMP JUMPDEST PUSH1 0x40 MLOAD PUSH4 0xFFFFFFFF DUP5 AND DUP2 MSTORE CALLER SWAP1 PUSH32 0xE7B379C6C1FA169E9079C25E9143B127637EEF8EC8C9D5C06DDB4AB3E1195888 SWAP1 PUSH1 0x20 ADD PUSH2 0xCCE JUMP JUMPDEST POP POP POP JUMP JUMPDEST CALLER PUSH1 0x0 SWAP1 DUP2 MSTORE PUSH1 0x6B PUSH1 0x20 MSTORE PUSH1 0x40 SWAP1 KECCAK256 SLOAD ISZERO PUSH2 0xE14 JUMPI PUSH1 0x40 MLOAD PUSH3 0x461BCD PUSH1 0xE5 SHL DUP2 MSTORE PUSH1 0x20 PUSH1 0x4 DUP3 ADD MSTORE PUSH1 0x18 PUSH1 0x24 DUP3 ADD MSTORE PUSH32 0x5573657220616C726561647920726567697374657265642E0000000000000000 PUSH1 0x44 DUP3 ADD MSTORE PUSH1 0x64 ADD PUSH2 0x7DF JUMP JUMPDEST PUSH1 0x40 DUP1 MLOAD PUSH1 0x80 DUP2 ADD DUP3 MSTORE PUSH1 0x72 SLOAD DUP1 DUP3 MSTORE CALLER PUSH1 0x20 DUP1 DUP5 ADD SWAP2 DUP3 MSTORE DUP4 DUP6 ADD DUP7 DUP2 MSTORE PUSH1 0x0 PUSH1 0x60 DUP7 ADD DUP2 SWAP1 MSTORE SWAP4 DUP5 MSTORE PUSH1 0x6A SWAP1 SWAP2 MSTORE SWAP4 SWAP1 SWAP2 KECCAK256 DUP3 MLOAD DUP2 SSTORE SWAP1 MLOAD PUSH1 0x1 DUP3 ADD DUP1 SLOAD PUSH1 0x1 PUSH1 0x1 PUSH1 0xA0 SHL SUB NOT AND PUSH1 0x1 PUSH1 0x1 PUSH1 0xA0 SHL SUB SWAP1 SWAP3 AND SWAP2 SWAP1 SWAP2 OR SWAP1 SSTORE SWAP2 MLOAD SWAP1 SWAP2 SWAP1 PUSH1 0x2 DUP3 ADD SWAP1 PUSH2 0xE83 SWAP1 DUP3 PUSH2 0x2836 JUMP JUMPDEST POP PUSH1 0x60 SWAP2 SWAP1 SWAP2 ADD MLOAD PUSH1 0x3 SWAP1 SWAP2 ADD DUP1 SLOAD PUSH1 0xFF NOT AND PUSH1 0xFF SWAP1 SWAP3 AND SWAP2 SWAP1 SWAP2 OR SWAP1 SSTORE PUSH1 0x72 SLOAD PUSH1 0x40 MLOAD PUSH1 0x6C SWAP1 PUSH2 0xEB5 SWAP1 DUP5 SWAP1 PUSH2 0x28F6 JUMP JUMPDEST SWAP1 DUP2 MSTORE PUSH1 0x40 MLOAD SWAP1 DUP2 SWAP1 SUB PUSH1 0x20 ADD SWAP1 KECCAK256 SSTORE PUSH1 0x72 DUP1 SLOAD SWAP1 PUSH1 0x0 PUSH2 0xED5 DUP4 PUSH2 0x2755 JUMP JUMPDEST SWAP1 SWAP2 SSTORE POP CALLER PUSH1 0x0 SWAP1 DUP2 MSTORE PUSH1 0x6B PUSH1 0x20 SWAP1 DUP2 MSTORE PUSH1 0x40 DUP1 DUP4 KECCAK256 SWAP4 SWAP1 SWAP4 SSTORE PUSH1 0x6D SWAP1 MSTORE KECCAK256 PUSH2 0xEFE DUP3 DUP3 PUSH2 0x2836 JUMP JUMPDEST POP POP JUMP JUMPDEST PUSH1 0x0 DUP1 DUP3 GT DUP1 ISZERO PUSH2 0xF14 JUMPI POP PUSH1 0x71 SLOAD DUP3 LT JUMPDEST PUSH2 0xF57 JUMPI PUSH1 0x40 MLOAD PUSH3 0x461BCD PUSH1 0xE5 SHL DUP2 MSTORE PUSH1 0x20 PUSH1 0x4 DUP3 ADD MSTORE PUSH1 0x14 PUSH1 0x24 DUP3 ADD MSTORE PUSH20 0x496E76616C69642056616C696461746F72496421 PUSH1 0x60 SHL PUSH1 0x44 DUP3 ADD MSTORE PUSH1 0x64 ADD PUSH2 0x7DF JUMP JUMPDEST POP PUSH1 0x0 SWAP1 DUP2 MSTORE PUSH1 0x69 PUSH1 0x20 MSTORE PUSH1 0x40 SWAP1 KECCAK256 SLOAD SWAP1 JUMP JUMPDEST PUSH1 0x68 PUSH1 0x20 MSTORE PUSH1 0x0 SWAP1 DUP2 MSTORE PUSH1 0x40 SWAP1 KECCAK256 DUP1 SLOAD PUSH2 0xF83 SWAP1 PUSH2 0x26F5 JUMP JUMPDEST DUP1 PUSH1 0x1F ADD PUSH1 0x20 DUP1 SWAP2 DIV MUL PUSH1 0x20 ADD PUSH1 0x40 MLOAD SWAP1 DUP2 ADD PUSH1 0x40 MSTORE DUP1 SWAP3 SWAP2 SWAP1 DUP2 DUP2 MSTORE PUSH1 0x20 ADD DUP3 DUP1 SLOAD PUSH2 0xFAF SWAP1 PUSH2 0x26F5 JUMP JUMPDEST DUP1 ISZERO PUSH2 0xFFC JUMPI DUP1 PUSH1 0x1F LT PUSH2 0xFD1 JUMPI PUSH2 0x100 DUP1 DUP4 SLOAD DIV MUL DUP4 MSTORE SWAP2 PUSH1 0x20 ADD SWAP2 PUSH2 0xFFC JUMP JUMPDEST DUP3 ADD SWAP2 SWAP1 PUSH1 0x0 MSTORE PUSH1 0x20 PUSH1 0x0 KECCAK256 SWAP1 JUMPDEST DUP2 SLOAD DUP2 MSTORE SWAP1 PUSH1 0x1 ADD SWAP1 PUSH1 0x20 ADD DUP1 DUP4 GT PUSH2 0xFDF JUMPI DUP3 SWAP1 SUB PUSH1 0x1F AND DUP3 ADD SWAP2 JUMPDEST POP POP POP POP POP DUP2 JUMP JUMPDEST PUSH1 0x60 PUSH1 0x73 SLOAD DUP3 LT PUSH2 0x104F JUMPI PUSH1 0x40 MLOAD PUSH3 0x461BCD PUSH1 0xE5 SHL DUP2 MSTORE PUSH1 0x20 PUSH1 0x4 DUP3 ADD MSTORE PUSH1 0x15 PUSH1 0x24 DUP3 ADD MSTORE PUSH21 0x125B9D985B1A59081A9BD894995C5D595CDD081251 PUSH1 0x5A SHL PUSH1 0x44 DUP3 ADD MSTORE PUSH1 0x64 ADD PUSH2 0x7DF JUMP JUMPDEST PUSH1 0x0 DUP3 DUP2 MSTORE PUSH1 0x6F PUSH1 0x20 MSTORE PUSH1 0x40 SWAP1 KECCAK256 DUP1 SLOAD DUP4 SWAP1 SUB PUSH2 0x10D7 JUMPI PUSH1 0x0 DUP4 DUP2 MSTORE PUSH1 0x6F PUSH1 0x20 SWAP1 DUP2 MSTORE PUSH1 0x40 DUP1 DUP4 KECCAK256 PUSH1 0x3 ADD DUP1 SLOAD DUP3 MLOAD DUP2 DUP6 MUL DUP2 ADD DUP6 ADD SWAP1 SWAP4 MSTORE DUP1 DUP4 MSTORE SWAP2 SWAP3 SWAP1 SWAP2 SWAP1 DUP4 ADD DUP3 DUP3 DUP1 ISZERO PUSH2 0x10C9 JUMPI PUSH1 0x20 MUL DUP3 ADD SWAP2 SWAP1 PUSH1 0x0 MSTORE PUSH1 0x20 PUSH1 0x0 KECCAK256 SWAP1 JUMPDEST DUP2 SLOAD PUSH1 0x1 PUSH1 0x1 PUSH1 0xA0 SHL SUB AND DUP2 MSTORE PUSH1 0x1 SWAP1 SWAP2 ADD SWAP1 PUSH1 0x20 ADD DUP1 DUP4 GT PUSH2 0x10AB JUMPI JUMPDEST POP SWAP4 SWAP9 SWAP8 POP POP POP POP POP POP POP POP JUMP JUMPDEST PUSH1 0x40 MLOAD PUSH3 0x461BCD PUSH1 0xE5 SHL DUP2 MSTORE PUSH1 0x20 PUSH1 0x4 DUP3 ADD MSTORE PUSH1 0x15 PUSH1 0x24 DUP3 ADD MSTORE PUSH21 0x4A6F6252657175657374206E6F7420666F756E6421 PUSH1 0x58 SHL PUSH1 0x44 DUP3 ADD MSTORE PUSH1 0x64 ADD PUSH2 0x7DF JUMP JUMPDEST POP SWAP2 SWAP1 POP JUMP JUMPDEST PUSH1 0x0 SLOAD PUSH2 0x100 SWAP1 DIV PUSH1 0xFF AND PUSH2 0x1138 JUMPI PUSH1 0x0 SLOAD PUSH1 0xFF AND ISZERO PUSH2 0x113C JUMP JUMPDEST ADDRESS EXTCODESIZE ISZERO JUMPDEST PUSH2 0x119F JUMPI PUSH1 0x40 MLOAD PUSH3 0x461BCD PUSH1 0xE5 SHL DUP2 MSTORE PUSH1 0x20 PUSH1 0x4 DUP3 ADD MSTORE PUSH1 0x2E PUSH1 0x24 DUP3 ADD MSTORE PUSH32 0x496E697469616C697A61626C653A20636F6E747261637420697320616C726561 PUSH1 0x44 DUP3 ADD MSTORE PUSH14 0x191E481A5B9A5D1A585B1A5E9959 PUSH1 0x92 SHL PUSH1 0x64 DUP3 ADD MSTORE PUSH1 0x84 ADD PUSH2 0x7DF JUMP JUMPDEST PUSH1 0x0 SLOAD PUSH2 0x100 SWAP1 DIV PUSH1 0xFF AND ISZERO DUP1 ISZERO PUSH2 0x11C1 JUMPI PUSH1 0x0 DUP1 SLOAD PUSH2 0xFFFF NOT AND PUSH2 0x101 OR SWAP1 SSTORE JUMPDEST PUSH2 0x120A PUSH1 0x40 MLOAD DUP1 PUSH1 0x40 ADD PUSH1 0x40 MSTORE DUP1 PUSH1 0xA DUP2 MSTORE PUSH1 0x20 ADD PUSH10 0x54656E736F724C696E6B PUSH1 0xB0 SHL DUP2 MSTORE POP PUSH1 0x40 MLOAD DUP1 PUSH1 0x40 ADD PUSH1 0x40 MSTORE DUP1 PUSH1 0x5 DUP2 MSTORE PUSH1 0x20 ADD PUSH5 0x544C494E4B PUSH1 0xD8 SHL DUP2 MSTORE POP PUSH2 0x2111 JUMP JUMPDEST PUSH2 0x1215 CALLER PUSH1 0x64 PUSH2 0x2032 JUMP JUMPDEST PUSH1 0x1 PUSH1 0x71 DUP2 SWAP1 SSTORE PUSH1 0x72 DUP2 SWAP1 SSTORE PUSH1 0x73 SSTORE PUSH1 0x74 DUP1 SLOAD PUSH2 0xFFFF NOT AND PUSH2 0x301 OR SWAP1 SSTORE DUP1 ISZERO PUSH2 0x1245 JUMPI PUSH1 0x0 DUP1 SLOAD PUSH2 0xFF00 NOT AND SWAP1 SSTORE JUMPDEST POP JUMP JUMPDEST PUSH1 0x60 PUSH1 0x37 DUP1 SLOAD PUSH2 0x6EF SWAP1 PUSH2 0x26F5 JUMP JUMPDEST PUSH1 0x0 DUP2 DUP2 MSTORE PUSH1 0x6F PUSH1 0x20 MSTORE PUSH1 0x40 SWAP1 KECCAK256 DUP1 SLOAD DUP3 EQ PUSH2 0x12AB JUMPI PUSH1 0x40 MLOAD PUSH3 0x461BCD PUSH1 0xE5 SHL DUP2 MSTORE PUSH1 0x20 PUSH1 0x4 DUP3 ADD MSTORE PUSH1 0x13 PUSH1 0x24 DUP3 ADD MSTORE PUSH19 0x2537B1103237B2B9903737BA1032BC34B9BA17 PUSH1 0x69 SHL PUSH1 0x44 DUP3 ADD MSTORE PUSH1 0x64 ADD PUSH2 0x7DF JUMP JUMPDEST PUSH1 0x4 DUP2 ADD SLOAD PUSH1 0xFF AND ISZERO PUSH2 0x1300 JUMPI PUSH1 0x40 MLOAD PUSH3 0x461BCD PUSH1 0xE5 SHL DUP2 MSTORE PUSH1 0x20 PUSH1 0x4 DUP3 ADD MSTORE PUSH1 0x19 PUSH1 0x24 DUP3 ADD MSTORE PUSH32 0x4A6F6220697320616C726561647920636F6D706C657465642E00000000000000 PUSH1 0x44 DUP3 ADD MSTORE PUSH1 0x64 ADD PUSH2 0x7DF JUMP JUMPDEST PUSH1 0x0 DUP1 JUMPDEST PUSH1 0x3 DUP4 ADD SLOAD DUP2 LT ISZERO PUSH2 0x1351 JUMPI DUP3 PUSH1 0x3 ADD DUP2 DUP2 SLOAD DUP2 LT PUSH2 0x1325 JUMPI PUSH2 0x1325 PUSH2 0x2729 JUMP JUMPDEST PUSH1 0x0 SWAP2 DUP3 MSTORE PUSH1 0x20 SWAP1 SWAP2 KECCAK256 ADD SLOAD PUSH1 0x1 PUSH1 0x1 PUSH1 0xA0 SHL SUB AND CALLER SUB PUSH2 0x1349 JUMPI PUSH1 0x1 SWAP2 POP PUSH2 0x1351 JUMP JUMPDEST PUSH1 0x1 ADD PUSH2 0x1304 JUMP JUMPDEST POP DUP1 PUSH2 0x13BA JUMPI PUSH1 0x40 MLOAD PUSH3 0x461BCD PUSH1 0xE5 SHL DUP2 MSTORE PUSH1 0x20 PUSH1 0x4 DUP3 ADD MSTORE PUSH1 0x32 PUSH1 0x24 DUP3 ADD MSTORE PUSH32 0x4F6E6C792076616C696461746F7273206F662074686973206A6F62206D617920 PUSH1 0x44 DUP3 ADD MSTORE PUSH18 0x31B0B636103A3434B990333AB731BA34B7B7 PUSH1 0x71 SHL PUSH1 0x64 DUP3 ADD MSTORE PUSH1 0x84 ADD PUSH2 0x7DF JUMP JUMPDEST CALLER PUSH1 0x0 SWAP1 DUP2 MSTORE PUSH1 0x5 DUP4 ADD PUSH1 0x20 MSTORE PUSH1 0x40 SWAP1 KECCAK256 DUP1 SLOAD PUSH1 0xFF NOT AND SWAP1 SSTORE PUSH1 0x40 MLOAD PUSH3 0x461BCD PUSH1 0xE5 SHL DUP2 MSTORE PUSH1 0x4 ADD PUSH2 0x7DF SWAP1 PUSH1 0x20 DUP1 DUP3 MSTORE PUSH1 0x1C SWAP1 DUP3 ADD MSTORE PUSH32 0x56616C696461746F7220616C726561647920636F6E6669726D65642E00000000 PUSH1 0x40 DUP3 ADD MSTORE PUSH1 0x60 ADD SWAP1 JUMP JUMPDEST PUSH1 0x3 DUP4 ADD SLOAD DUP2 LT ISZERO PUSH2 0x1494 JUMPI PUSH1 0x0 PUSH1 0x65 PUSH1 0x0 PUSH1 0x66 PUSH1 0x0 DUP8 PUSH1 0x3 ADD DUP7 DUP2 SLOAD DUP2 LT PUSH2 0x1448 JUMPI PUSH2 0x1448 PUSH2 0x2729 JUMP JUMPDEST PUSH1 0x0 SWAP2 DUP3 MSTORE PUSH1 0x20 DUP1 DUP4 KECCAK256 SWAP1 SWAP2 ADD SLOAD PUSH1 0x1 PUSH1 0x1 PUSH1 0xA0 SHL SUB AND DUP4 MSTORE DUP3 DUP2 ADD SWAP4 SWAP1 SWAP4 MSTORE PUSH1 0x40 SWAP2 DUP3 ADD DUP2 KECCAK256 SLOAD DUP5 MSTORE SWAP2 DUP4 ADD SWAP4 SWAP1 SWAP4 MSTORE SWAP2 ADD DUP2 KECCAK256 DUP1 SLOAD SWAP1 SWAP3 POP PUSH2 0x148B SWAP2 PUSH2 0x2142 JUMP JUMPDEST POP PUSH1 0x1 ADD PUSH2 0x141D JUMP JUMPDEST POP PUSH1 0x1 DUP3 ADD SLOAD PUSH1 0x1 PUSH1 0x1 PUSH1 0xA0 SHL SUB AND PUSH1 0x0 SWAP1 DUP2 MSTORE PUSH1 0x6B PUSH1 0x20 SWAP1 DUP2 MSTORE PUSH1 0x40 DUP1 DUP4 KECCAK256 SLOAD DUP1 DUP5 MSTORE PUSH1 0x6E SWAP1 SWAP3 MSTORE DUP1 DUP4 KECCAK256 DUP1 SLOAD PUSH1 0xFF NOT AND SWAP1 SSTORE MLOAD SWAP1 SWAP2 DUP6 SWAP2 PUSH32 0x2244C8529CB95E213EE542E76E7776342B3DABD10203D01472BBF4441BE8929 SWAP2 SWAP1 LOG2 POP POP POP POP JUMP JUMPDEST CALLER PUSH1 0x0 DUP2 DUP2 MSTORE PUSH1 0x34 PUSH1 0x20 SWAP1 DUP2 MSTORE PUSH1 0x40 DUP1 DUP4 KECCAK256 PUSH1 0x1 PUSH1 0x1 PUSH1 0xA0 SHL SUB DUP8 AND DUP5 MSTORE SWAP1 SWAP2 MSTORE DUP2 KECCAK256 SLOAD SWAP1 SWAP2 SWAP1 DUP4 DUP2 LT ISZERO PUSH2 0x157C JUMPI PUSH1 0x40 MLOAD PUSH3 0x461BCD PUSH1 0xE5 SHL DUP2 MSTORE PUSH1 0x20 PUSH1 0x4 DUP3 ADD MSTORE PUSH1 0x25 PUSH1 0x24 DUP3 ADD MSTORE PUSH32 0x45524332303A2064656372656173656420616C6C6F77616E63652062656C6F77 PUSH1 0x44 DUP3 ADD MSTORE PUSH5 0x207A65726F PUSH1 0xD8 SHL PUSH1 0x64 DUP3 ADD MSTORE PUSH1 0x84 ADD PUSH2 0x7DF JUMP JUMPDEST PUSH2 0x9FB DUP3 DUP7 DUP7 DUP5 SUB PUSH2 0x19E8 JUMP JUMPDEST PUSH1 0x0 CALLER PUSH2 0x780 DUP2 DUP6 DUP6 PUSH2 0x1E64 JUMP JUMPDEST PUSH1 0x67 DUP2 PUSH1 0x40 MLOAD PUSH2 0x15A7 SWAP2 SWAP1 PUSH2 0x28F6 JUMP JUMPDEST SWAP1 DUP2 MSTORE PUSH1 0x20 ADD PUSH1 0x40 MLOAD DUP1 SWAP2 SUB SWAP1 KECCAK256 SLOAD PUSH1 0x0 EQ PUSH2 0x161F JUMPI PUSH1 0x40 MLOAD PUSH3 0x461BCD PUSH1 0xE5 SHL DUP2 MSTORE PUSH1 0x20 PUSH1 0x4 DUP3 ADD MSTORE PUSH1 0x31 PUSH1 0x24 DUP3 ADD MSTORE PUSH32 0x56616C696461746F7220776974682074686973207075626C69634B6579486173 PUSH1 0x44 DUP3 ADD MSTORE PUSH17 0x341030B63932B0B23C9032BC34B9BA3997 PUSH1 0x79 SHL PUSH1 0x64 DUP3 ADD MSTORE PUSH1 0x84 ADD PUSH2 0x7DF JUMP JUMPDEST PUSH1 0x71 SLOAD PUSH1 0x0 DUP2 DUP2 MSTORE PUSH1 0x65 PUSH1 0x20 MSTORE PUSH1 0x40 SWAP1 KECCAK256 SWAP1 DUP2 SSTORE PUSH1 0x1 DUP2 ADD DUP1 SLOAD PUSH1 0x1 PUSH1 0x1 PUSH1 0xA0 SHL SUB NOT AND CALLER OR SWAP1 SSTORE PUSH1 0x2 DUP2 ADD PUSH2 0x1655 DUP4 DUP3 PUSH2 0x2836 JUMP JUMPDEST POP PUSH1 0x5 DUP2 ADD DUP1 SLOAD PUSH2 0xFF00 NOT AND PUSH2 0x100 OR SWAP1 SSTORE PUSH1 0x71 SLOAD CALLER PUSH1 0x0 SWAP1 DUP2 MSTORE PUSH1 0x66 PUSH1 0x20 MSTORE PUSH1 0x40 SWAP1 DUP2 SWAP1 KECCAK256 DUP3 SWAP1 SSTORE MLOAD PUSH1 0x67 SWAP1 PUSH2 0x168D SWAP1 DUP6 SWAP1 PUSH2 0x28F6 JUMP JUMPDEST SWAP1 DUP2 MSTORE PUSH1 0x40 DUP1 MLOAD PUSH1 0x20 SWAP3 DUP2 SWAP1 SUB DUP4 ADD SWAP1 KECCAK256 SWAP3 SWAP1 SWAP3 SSTORE PUSH1 0x71 SLOAD PUSH1 0x0 SWAP1 DUP2 MSTORE PUSH1 0x68 SWAP1 SWAP2 MSTORE KECCAK256 PUSH2 0x16BA DUP4 DUP3 PUSH2 0x2836 JUMP JUMPDEST POP PUSH1 0x71 DUP1 SLOAD PUSH1 0x0 SWAP1 DUP2 MSTORE PUSH1 0x69 PUSH1 0x20 SWAP1 DUP2 MSTORE PUSH1 0x40 SWAP2 DUP3 SWAP1 KECCAK256 PUSH1 0x1 SWAP1 SSTORE SWAP2 SLOAD SWAP1 MLOAD CALLER DUP2 MSTORE SWAP1 SWAP2 PUSH32 0xC278ABAF901EE66C9C5AD86C559C69D95B3121AB80FFA1BB4A0097A9B9AEE6A2 SWAP2 ADD PUSH1 0x40 MLOAD DUP1 SWAP2 SUB SWAP1 LOG2 PUSH1 0x71 DUP1 SLOAD SWAP1 PUSH1 0x0 PUSH2 0x1719 DUP4 PUSH2 0x2755 JUMP JUMPDEST SWAP2 SWAP1 POP SSTORE POP POP POP JUMP JUMPDEST PUSH1 0x6D PUSH1 0x20 MSTORE PUSH1 0x0 SWAP1 DUP2 MSTORE PUSH1 0x40 SWAP1 KECCAK256 DUP1 SLOAD PUSH2 0xF83 SWAP1 PUSH2 0x26F5 JUMP JUMPDEST PUSH1 0x0 PUSH1 0x6C DUP3 PUSH1 0x40 MLOAD PUSH2 0x174D SWAP2 SWAP1 PUSH2 0x28F6 JUMP JUMPDEST SWAP1 DUP2 MSTORE PUSH1 0x20 ADD PUSH1 0x40 MLOAD DUP1 SWAP2 SUB SWAP1 KECCAK256 SLOAD SWAP1 POP SWAP2 SWAP1 POP JUMP JUMPDEST PUSH1 0x0 DUP2 PUSH4 0xFFFFFFFF AND GT PUSH2 0x1789 JUMPI PUSH1 0x40 MLOAD PUSH3 0x461BCD PUSH1 0xE5 SHL DUP2 MSTORE PUSH1 0x4 ADD PUSH2 0x7DF SWAP1 PUSH2 0x2781 JUMP JUMPDEST CALLER PUSH1 0x0 SWAP1 DUP2 MSTORE PUSH1 0x33 PUSH1 0x20 MSTORE PUSH1 0x40 SWAP1 KECCAK256 SLOAD PUSH4 0xFFFFFFFF DUP3 AND GT ISZERO PUSH2 0x17E6 JUMPI PUSH1 0x40 MLOAD PUSH3 0x461BCD PUSH1 0xE5 SHL DUP2 MSTORE PUSH1 0x20 PUSH1 0x4 DUP3 ADD MSTORE PUSH1 0x15 PUSH1 0x24 DUP3 ADD MSTORE PUSH21 0x24B739BAB33334B1B4B2B73A103130B630B731B297 PUSH1 0x59 SHL PUSH1 0x44 DUP3 ADD MSTORE PUSH1 0x64 ADD PUSH2 0x7DF JUMP JUMPDEST CALLER PUSH1 0x0 SWAP1 DUP2 MSTORE PUSH1 0x66 PUSH1 0x20 MSTORE PUSH1 0x40 DUP2 KECCAK256 SLOAD SWAP1 DUP2 SWAP1 SUB PUSH2 0x1846 JUMPI PUSH1 0x40 MLOAD PUSH3 0x461BCD PUSH1 0xE5 SHL DUP2 MSTORE PUSH1 0x20 PUSH1 0x4 DUP3 ADD MSTORE PUSH1 0x19 PUSH1 0x24 DUP3 ADD MSTORE PUSH32 0x56616C696461746F7220646F6573206E6F742065786973742E00000000000000 PUSH1 0x44 DUP3 ADD MSTORE PUSH1 0x64 ADD PUSH2 0x7DF JUMP JUMPDEST PUSH1 0x0 DUP2 DUP2 MSTORE PUSH1 0x65 PUSH1 0x20 MSTORE PUSH1 0x40 SWAP1 KECCAK256 PUSH1 0x5 DUP2 ADD SLOAD PUSH2 0x100 SWAP1 DIV PUSH1 0xFF AND PUSH2 0x18AD JUMPI PUSH1 0x40 MLOAD PUSH3 0x461BCD PUSH1 0xE5 SHL DUP2 MSTORE PUSH1 0x20 PUSH1 0x4 DUP3 ADD MSTORE PUSH1 0x18 PUSH1 0x24 DUP3 ADD MSTORE PUSH32 0x56616C696461746F72206973206E6F74206163746976652E0000000000000000 PUSH1 0x44 DUP3 ADD MSTORE PUSH1 0x64 ADD PUSH2 0x7DF JUMP JUMPDEST PUSH2 0x18BE CALLER ADDRESS DUP6 PUSH4 0xFFFFFFFF AND PUSH2 0x9E2 JUMP JUMPDEST POP PUSH1 0x3 DUP2 ADD DUP1 SLOAD DUP5 SWAP2 SWAP1 PUSH1 0x0 SWAP1 PUSH2 0x18DC SWAP1 DUP5 SWAP1 PUSH4 0xFFFFFFFF AND PUSH2 0x2912 JUMP JUMPDEST SWAP3 POP PUSH2 0x100 EXP DUP2 SLOAD DUP2 PUSH4 0xFFFFFFFF MUL NOT AND SWAP1 DUP4 PUSH4 0xFFFFFFFF AND MUL OR SWAP1 SSTORE POP CALLER PUSH1 0x1 PUSH1 0x1 PUSH1 0xA0 SHL SUB AND PUSH32 0xAC87F20A77D28EE8BBB58EC87EA8FA968B3393EFAE1A368FD50B767C2847391C DUP5 PUSH1 0x40 MLOAD PUSH2 0xCCE SWAP2 SWAP1 PUSH4 0xFFFFFFFF SWAP2 SWAP1 SWAP2 AND DUP2 MSTORE PUSH1 0x20 ADD SWAP1 JUMP JUMPDEST PUSH1 0x0 PUSH1 0x73 SLOAD DUP3 LT PUSH2 0x1984 JUMPI PUSH1 0x40 MLOAD PUSH3 0x461BCD PUSH1 0xE5 SHL DUP2 MSTORE PUSH1 0x20 PUSH1 0x4 DUP3 ADD MSTORE PUSH1 0xF PUSH1 0x24 DUP3 ADD MSTORE PUSH15 0x496E76616C6964206A6F6220494421 PUSH1 0x88 SHL PUSH1 0x44 DUP3 ADD MSTORE PUSH1 0x64 ADD PUSH2 0x7DF JUMP JUMPDEST PUSH1 0x0 DUP3 DUP2 MSTORE PUSH1 0x6F PUSH1 0x20 MSTORE PUSH1 0x40 SWAP1 KECCAK256 DUP1 SLOAD DUP4 SWAP1 SUB PUSH2 0x19AE JUMPI PUSH1 0x1 ADD SLOAD PUSH1 0x1 PUSH1 0x1 PUSH1 0xA0 SHL SUB AND SWAP3 SWAP2 POP POP JUMP JUMPDEST PUSH1 0x40 MLOAD PUSH3 0x461BCD PUSH1 0xE5 SHL DUP2 MSTORE PUSH1 0x20 PUSH1 0x4 DUP3 ADD MSTORE PUSH1 0xF PUSH1 0x24 DUP3 ADD MSTORE PUSH15 0x496E76616C6964206A6F6220494421 PUSH1 0x88 SHL PUSH1 0x44 DUP3 ADD MSTORE PUSH1 0x64 ADD PUSH2 0x7DF JUMP JUMPDEST PUSH1 0x1 PUSH1 0x1 PUSH1 0xA0 SHL SUB DUP4 AND PUSH2 0x1A4A JUMPI PUSH1 0x40 MLOAD PUSH3 0x461BCD PUSH1 0xE5 SHL DUP2 MSTORE PUSH1 0x20 PUSH1 0x4 DUP3 ADD MSTORE PUSH1 0x24 DUP1 DUP3 ADD MSTORE PUSH32 0x45524332303A20617070726F76652066726F6D20746865207A65726F20616464 PUSH1 0x44 DUP3 ADD MSTORE PUSH4 0x72657373 PUSH1 0xE0 SHL PUSH1 0x64 DUP3 ADD MSTORE PUSH1 0x84 ADD PUSH2 0x7DF JUMP JUMPDEST PUSH1 0x1 PUSH1 0x1 PUSH1 0xA0 SHL SUB DUP3 AND PUSH2 0x1AAB JUMPI PUSH1 0x40 MLOAD PUSH3 0x461BCD PUSH1 0xE5 SHL DUP2 MSTORE PUSH1 0x20 PUSH1 0x4 DUP3 ADD MSTORE PUSH1 0x22 PUSH1 0x24 DUP3 ADD MSTORE PUSH32 0x45524332303A20617070726F766520746F20746865207A65726F206164647265 PUSH1 0x44 DUP3 ADD MSTORE PUSH2 0x7373 PUSH1 0xF0 SHL PUSH1 0x64 DUP3 ADD MSTORE PUSH1 0x84 ADD PUSH2 0x7DF JUMP JUMPDEST PUSH1 0x1 PUSH1 0x1 PUSH1 0xA0 SHL SUB DUP4 DUP2 AND PUSH1 0x0 DUP2 DUP2 MSTORE PUSH1 0x34 PUSH1 0x20 SWAP1 DUP2 MSTORE PUSH1 0x40 DUP1 DUP4 KECCAK256 SWAP5 DUP8 AND DUP1 DUP5 MSTORE SWAP5 DUP3 MSTORE SWAP2 DUP3 SWAP1 KECCAK256 DUP6 SWAP1 SSTORE SWAP1 MLOAD DUP5 DUP2 MSTORE PUSH32 0x8C5BE1E5EBEC7D5BD14F71427D1E84F3DD0314C0F7B2291E5B200AC8C7C3B925 SWAP2 ADD PUSH1 0x40 MLOAD DUP1 SWAP2 SUB SWAP1 LOG3 POP POP POP JUMP JUMPDEST PUSH1 0x74 SLOAD PUSH1 0x60 SWAP1 PUSH1 0xFF SWAP1 DUP2 AND SWAP1 DUP4 AND LT DUP1 ISZERO SWAP1 PUSH2 0x1B36 JUMPI POP PUSH1 0x74 SLOAD PUSH1 0xFF PUSH2 0x100 SWAP1 SWAP2 DIV DUP2 AND SWAP1 DUP4 AND GT ISZERO JUMPDEST PUSH2 0x1BA8 JUMPI PUSH1 0x40 MLOAD PUSH3 0x461BCD PUSH1 0xE5 SHL DUP2 MSTORE PUSH1 0x20 PUSH1 0x4 DUP3 ADD MSTORE PUSH1 0x39 PUSH1 0x24 DUP3 ADD MSTORE PUSH32 0x6E56616C696461746F7273206D757374206265206265747765656E206D696E56 PUSH1 0x44 DUP3 ADD MSTORE PUSH32 0x616C696461746F7220616E64206D617856616C696461746F7200000000000000 PUSH1 0x64 DUP3 ADD MSTORE PUSH1 0x84 ADD PUSH2 0x7DF JUMP JUMPDEST PUSH1 0x0 DUP3 PUSH1 0xFF AND GT DUP1 ISZERO PUSH2 0x1BC0 JUMPI POP PUSH1 0x71 SLOAD DUP3 PUSH1 0xFF AND GT ISZERO JUMPDEST PUSH2 0x1C34 JUMPI PUSH1 0x40 DUP1 MLOAD PUSH3 0x461BCD PUSH1 0xE5 SHL DUP2 MSTORE PUSH1 0x20 PUSH1 0x4 DUP3 ADD MSTORE PUSH1 0x24 DUP2 ADD SWAP2 SWAP1 SWAP2 MSTORE PUSH32 0x4E6F7420656E6F75676820617661696C61626C652076616C696461746F727320 PUSH1 0x44 DUP3 ADD MSTORE PUSH32 0x666F72206A6F622C20706C656173652074727920616761696E206C617465722E PUSH1 0x64 DUP3 ADD MSTORE PUSH1 0x84 ADD PUSH2 0x7DF JUMP JUMPDEST PUSH1 0x0 DUP3 PUSH1 0xFF AND PUSH8 0xFFFFFFFFFFFFFFFF DUP2 GT ISZERO PUSH2 0x1C52 JUMPI PUSH2 0x1C52 PUSH2 0x2498 JUMP JUMPDEST PUSH1 0x40 MLOAD SWAP1 DUP1 DUP3 MSTORE DUP1 PUSH1 0x20 MUL PUSH1 0x20 ADD DUP3 ADD PUSH1 0x40 MSTORE DUP1 ISZERO PUSH2 0x1C7B JUMPI DUP2 PUSH1 0x20 ADD PUSH1 0x20 DUP3 MUL DUP1 CALLDATASIZE DUP4 CALLDATACOPY ADD SWAP1 POP JUMPDEST POP SWAP1 POP PUSH1 0x0 DUP1 JUMPDEST DUP5 PUSH1 0xFF AND DUP2 LT ISZERO PUSH2 0x1DC9 JUMPI PUSH1 0x0 JUMPDEST DUP2 DUP4 SUB PUSH2 0x1DC0 JUMPI PUSH1 0x0 PUSH1 0x71 SLOAD TIMESTAMP CALLER DUP5 DUP1 PUSH2 0x1CA9 SWAP1 PUSH2 0x2755 JUMP JUMPDEST SWAP6 POP PUSH1 0x40 MLOAD PUSH1 0x20 ADD PUSH2 0x1CE0 SWAP4 SWAP3 SWAP2 SWAP1 SWAP3 DUP4 MSTORE PUSH1 0x60 SWAP2 SWAP1 SWAP2 SHL PUSH12 0xFFFFFFFFFFFFFFFFFFFFFFFF NOT AND PUSH1 0x20 DUP4 ADD MSTORE PUSH1 0x34 DUP3 ADD MSTORE PUSH1 0x54 ADD SWAP1 JUMP JUMPDEST PUSH1 0x40 MLOAD PUSH1 0x20 DUP2 DUP4 SUB SUB DUP2 MSTORE SWAP1 PUSH1 0x40 MSTORE DUP1 MLOAD SWAP1 PUSH1 0x20 ADD KECCAK256 PUSH1 0x0 SHR PUSH2 0x1D03 SWAP2 SWAP1 PUSH2 0x292F JUMP JUMPDEST PUSH1 0x0 DUP2 DUP2 MSTORE PUSH1 0x69 PUSH1 0x20 MSTORE PUSH1 0x40 SWAP1 KECCAK256 SLOAD SWAP1 SWAP2 POP PUSH1 0x1 SUB PUSH2 0x1D57 JUMPI PUSH2 0x1D27 DUP2 PUSH1 0x1 PUSH2 0x2142 JUMP JUMPDEST DUP1 DUP6 DUP5 DUP2 MLOAD DUP2 LT PUSH2 0x1D3A JUMPI PUSH2 0x1D3A PUSH2 0x2729 JUMP JUMPDEST PUSH1 0x20 SWAP1 DUP2 MUL SWAP2 SWAP1 SWAP2 ADD ADD MSTORE DUP4 PUSH2 0x1D4F DUP2 PUSH2 0x2755 JUMP JUMPDEST SWAP5 POP POP PUSH2 0x1DBA JUMP JUMPDEST PUSH1 0x32 DUP3 LT ISZERO PUSH2 0x1D72 JUMPI DUP2 PUSH2 0x1D6A DUP2 PUSH2 0x2755 JUMP JUMPDEST SWAP3 POP POP PUSH2 0x1DBA JUMP JUMPDEST PUSH1 0x40 MLOAD PUSH3 0x461BCD PUSH1 0xE5 SHL DUP2 MSTORE PUSH1 0x20 PUSH1 0x4 DUP3 ADD MSTORE PUSH1 0x1E PUSH1 0x24 DUP3 ADD MSTORE PUSH32 0x4D61782076616C696461746F7220726571756573747320726561636865640000 PUSH1 0x44 DUP3 ADD MSTORE PUSH1 0x64 ADD PUSH2 0x7DF JUMP JUMPDEST POP PUSH2 0x1C90 JUMP JUMPDEST POP PUSH1 0x1 ADD PUSH2 0x1C82 JUMP JUMPDEST POP SWAP1 SWAP4 SWAP3 POP POP POP JUMP JUMPDEST PUSH1 0x1 PUSH1 0x1 PUSH1 0xA0 SHL SUB DUP4 DUP2 AND PUSH1 0x0 SWAP1 DUP2 MSTORE PUSH1 0x34 PUSH1 0x20 SWAP1 DUP2 MSTORE PUSH1 0x40 DUP1 DUP4 KECCAK256 SWAP4 DUP7 AND DUP4 MSTORE SWAP3 SWAP1 MSTORE KECCAK256 SLOAD PUSH1 0x0 NOT DUP2 EQ PUSH2 0x1E5E JUMPI DUP2 DUP2 LT ISZERO PUSH2 0x1E51 JUMPI PUSH1 0x40 MLOAD PUSH3 0x461BCD PUSH1 0xE5 SHL DUP2 MSTORE PUSH1 0x20 PUSH1 0x4 DUP3 ADD MSTORE PUSH1 0x1D PUSH1 0x24 DUP3 ADD MSTORE PUSH32 0x45524332303A20696E73756666696369656E7420616C6C6F77616E6365000000 PUSH1 0x44 DUP3 ADD MSTORE PUSH1 0x64 ADD PUSH2 0x7DF JUMP JUMPDEST PUSH2 0x1E5E DUP5 DUP5 DUP5 DUP5 SUB PUSH2 0x19E8 JUMP JUMPDEST POP POP POP POP JUMP JUMPDEST PUSH1 0x1 PUSH1 0x1 PUSH1 0xA0 SHL SUB DUP4 AND PUSH2 0x1EC8 JUMPI PUSH1 0x40 MLOAD PUSH3 0x461BCD PUSH1 0xE5 SHL DUP2 MSTORE PUSH1 0x20 PUSH1 0x4 DUP3 ADD MSTORE PUSH1 0x25 PUSH1 0x24 DUP3 ADD MSTORE PUSH32 0x45524332303A207472616E736665722066726F6D20746865207A65726F206164 PUSH1 0x44 DUP3 ADD MSTORE PUSH5 0x6472657373 PUSH1 0xD8 SHL PUSH1 0x64 DUP3 ADD MSTORE PUSH1 0x84 ADD PUSH2 0x7DF JUMP JUMPDEST PUSH1 0x1 PUSH1 0x1 PUSH1 0xA0 SHL SUB DUP3 AND PUSH2 0x1F2A JUMPI PUSH1 0x40 MLOAD PUSH3 0x461BCD PUSH1 0xE5 SHL DUP2 MSTORE PUSH1 0x20 PUSH1 0x4 DUP3 ADD MSTORE PUSH1 0x23 PUSH1 0x24 DUP3 ADD MSTORE PUSH32 0x45524332303A207472616E7366657220746F20746865207A65726F2061646472 PUSH1 0x44 DUP3 ADD MSTORE PUSH3 0x657373 PUSH1 0xE8 SHL PUSH1 0x64 DUP3 ADD MSTORE PUSH1 0x84 ADD PUSH2 0x7DF JUMP JUMPDEST PUSH1 0x1 PUSH1 0x1 PUSH1 0xA0 SHL SUB DUP4 AND PUSH1 0x0 SWAP1 DUP2 MSTORE PUSH1 0x33 PUSH1 0x20 MSTORE PUSH1 0x40 SWAP1 KECCAK256 SLOAD DUP2 DUP2 LT ISZERO PUSH2 0x1FA2 JUMPI PUSH1 0x40 MLOAD PUSH3 0x461BCD PUSH1 0xE5 SHL DUP2 MSTORE PUSH1 0x20 PUSH1 0x4 DUP3 ADD MSTORE PUSH1 0x26 PUSH1 0x24 DUP3 ADD MSTORE PUSH32 0x45524332303A207472616E7366657220616D6F756E7420657863656564732062 PUSH1 0x44 DUP3 ADD MSTORE PUSH6 0x616C616E6365 PUSH1 0xD0 SHL PUSH1 0x64 DUP3 ADD MSTORE PUSH1 0x84 ADD PUSH2 0x7DF JUMP JUMPDEST PUSH1 0x1 PUSH1 0x1 PUSH1 0xA0 SHL SUB DUP1 DUP6 AND PUSH1 0x0 SWAP1 DUP2 MSTORE PUSH1 0x33 PUSH1 0x20 MSTORE PUSH1 0x40 DUP1 DUP3 KECCAK256 DUP6 DUP6 SUB SWAP1 SSTORE SWAP2 DUP6 AND DUP2 MSTORE SWAP1 DUP2 KECCAK256 DUP1 SLOAD DUP5 SWAP3 SWAP1 PUSH2 0x1FD9 SWAP1 DUP5 SWAP1 PUSH2 0x276E JUMP JUMPDEST SWAP3 POP POP DUP2 SWAP1 SSTORE POP DUP3 PUSH1 0x1 PUSH1 0x1 PUSH1 0xA0 SHL SUB AND DUP5 PUSH1 0x1 PUSH1 0x1 PUSH1 0xA0 SHL SUB AND PUSH32 0xDDF252AD1BE2C89B69C2B068FC378DAA952BA7F163C4A11628F55A4DF523B3EF DUP5 PUSH1 0x40 MLOAD PUSH2 0x2025 SWAP2 DUP2 MSTORE PUSH1 0x20 ADD SWAP1 JUMP JUMPDEST PUSH1 0x40 MLOAD DUP1 SWAP2 SUB SWAP1 LOG3 PUSH2 0x1E5E JUMP JUMPDEST PUSH1 0x1 PUSH1 0x1 PUSH1 0xA0 SHL SUB DUP3 AND PUSH2 0x2088 JUMPI PUSH1 0x40 MLOAD PUSH3 0x461BCD PUSH1 0xE5 SHL DUP2 MSTORE PUSH1 0x20 PUSH1 0x4 DUP3 ADD MSTORE PUSH1 0x1F PUSH1 0x24 DUP3 ADD MSTORE PUSH32 0x45524332303A206D696E7420746F20746865207A65726F206164647265737300 PUSH1 0x44 DUP3 ADD MSTORE PUSH1 0x64 ADD PUSH2 0x7DF JUMP JUMPDEST DUP1 PUSH1 0x35 PUSH1 0x0 DUP3 DUP3 SLOAD PUSH2 0x209A SWAP2 SWAP1 PUSH2 0x276E JUMP JUMPDEST SWAP1 SWAP2 SSTORE POP POP PUSH1 0x1 PUSH1 0x1 PUSH1 0xA0 SHL SUB DUP3 AND PUSH1 0x0 SWAP1 DUP2 MSTORE PUSH1 0x33 PUSH1 0x20 MSTORE PUSH1 0x40 DUP2 KECCAK256 DUP1 SLOAD DUP4 SWAP3 SWAP1 PUSH2 0x20C7 SWAP1 DUP5 SWAP1 PUSH2 0x276E JUMP JUMPDEST SWAP1 SWAP2 SSTORE POP POP PUSH1 0x40 MLOAD DUP2 DUP2 MSTORE PUSH1 0x1 PUSH1 0x1 PUSH1 0xA0 SHL SUB DUP4 AND SWAP1 PUSH1 0x0 SWAP1 PUSH32 0xDDF252AD1BE2C89B69C2B068FC378DAA952BA7F163C4A11628F55A4DF523B3EF SWAP1 PUSH1 0x20 ADD PUSH1 0x40 MLOAD DUP1 SWAP2 SUB SWAP1 LOG3 POP POP JUMP JUMPDEST PUSH1 0x0 SLOAD PUSH2 0x100 SWAP1 DIV PUSH1 0xFF AND PUSH2 0x2138 JUMPI PUSH1 0x40 MLOAD PUSH3 0x461BCD PUSH1 0xE5 SHL DUP2 MSTORE PUSH1 0x4 ADD PUSH2 0x7DF SWAP1 PUSH2 0x2951 JUMP JUMPDEST PUSH2 0xEFE DUP3 DUP3 PUSH2 0x22F1 JUMP JUMPDEST PUSH1 0x0 DUP3 GT DUP1 ISZERO PUSH2 0x2153 JUMPI POP PUSH1 0x71 SLOAD DUP3 LT JUMPDEST PUSH2 0x2195 JUMPI PUSH1 0x40 MLOAD PUSH3 0x461BCD PUSH1 0xE5 SHL DUP2 MSTORE PUSH1 0x20 PUSH1 0x4 DUP3 ADD MSTORE PUSH1 0x13 PUSH1 0x24 DUP3 ADD MSTORE PUSH19 0x125B9D985B1A590815985B1A59185D1BDC9259 PUSH1 0x6A SHL PUSH1 0x44 DUP3 ADD MSTORE PUSH1 0x64 ADD PUSH2 0x7DF JUMP JUMPDEST PUSH1 0x0 DUP3 DUP2 MSTORE PUSH1 0x69 PUSH1 0x20 MSTORE PUSH1 0x40 SWAP1 KECCAK256 SLOAD PUSH2 0x21F0 JUMPI PUSH1 0x40 MLOAD PUSH3 0x461BCD PUSH1 0xE5 SHL DUP2 MSTORE PUSH1 0x20 PUSH1 0x4 DUP3 ADD MSTORE PUSH1 0x18 PUSH1 0x24 DUP3 ADD MSTORE PUSH32 0x56616C696461746F72206973206E6F74206F6E6C696E652E0000000000000000 PUSH1 0x44 DUP3 ADD MSTORE PUSH1 0x64 ADD PUSH2 0x7DF JUMP JUMPDEST DUP1 ISZERO PUSH2 0x227E JUMPI PUSH1 0x0 DUP3 DUP2 MSTORE PUSH1 0x69 PUSH1 0x20 MSTORE PUSH1 0x40 SWAP1 KECCAK256 SLOAD PUSH1 0x1 SUB PUSH2 0x2221 JUMPI POP PUSH1 0x0 SWAP1 DUP2 MSTORE PUSH1 0x69 PUSH1 0x20 MSTORE PUSH1 0x40 SWAP1 KECCAK256 PUSH1 0x2 SWAP1 SSTORE JUMP JUMPDEST PUSH1 0x40 MLOAD PUSH3 0x461BCD PUSH1 0xE5 SHL DUP2 MSTORE PUSH1 0x20 PUSH1 0x4 DUP3 ADD MSTORE PUSH1 0x2C PUSH1 0x24 DUP3 ADD MSTORE PUSH32 0x56616C696461746F72206265696E672061637469766174656420697320616C72 PUSH1 0x44 DUP3 ADD MSTORE PUSH12 0x656164792061637469766521 PUSH1 0xA0 SHL PUSH1 0x64 DUP3 ADD MSTORE PUSH1 0x84 ADD PUSH2 0x7DF JUMP JUMPDEST PUSH1 0x0 DUP3 DUP2 MSTORE PUSH1 0x69 PUSH1 0x20 MSTORE PUSH1 0x40 SWAP1 KECCAK256 SLOAD PUSH1 0x2 SUB PUSH2 0x22A9 JUMPI POP PUSH1 0x0 SWAP1 DUP2 MSTORE PUSH1 0x69 PUSH1 0x20 MSTORE PUSH1 0x40 SWAP1 KECCAK256 PUSH1 0x1 SWAP1 SSTORE JUMP JUMPDEST PUSH1 0x40 MLOAD PUSH3 0x461BCD PUSH1 0xE5 SHL DUP2 MSTORE PUSH1 0x20 PUSH1 0x4 DUP3 ADD MSTORE PUSH1 0x1E PUSH1 0x24 DUP3 ADD MSTORE PUSH32 0x56616C696461746F7220697320616C726561647920696E616374697665210000 PUSH1 0x44 DUP3 ADD MSTORE PUSH1 0x64 ADD PUSH2 0x7DF JUMP JUMPDEST PUSH1 0x0 SLOAD PUSH2 0x100 SWAP1 DIV PUSH1 0xFF AND PUSH2 0x2318 JUMPI PUSH1 0x40 MLOAD PUSH3 0x461BCD PUSH1 0xE5 SHL DUP2 MSTORE PUSH1 0x4 ADD PUSH2 0x7DF SWAP1 PUSH2 0x2951 JUMP JUMPDEST PUSH1 0x36 PUSH2 0x2324 DUP4 DUP3 PUSH2 0x2836 JUMP JUMPDEST POP PUSH1 0x37 PUSH2 0xDB2 DUP3 DUP3 PUSH2 0x2836 JUMP JUMPDEST DUP3 DUP1 SLOAD DUP3 DUP3 SSTORE SWAP1 PUSH1 0x0 MSTORE PUSH1 0x20 PUSH1 0x0 KECCAK256 SWAP1 DUP2 ADD SWAP3 DUP3 ISZERO PUSH2 0x2386 JUMPI SWAP2 PUSH1 0x20 MUL DUP3 ADD JUMPDEST DUP3 DUP2 GT ISZERO PUSH2 0x2386 JUMPI DUP3 MLOAD DUP3 SLOAD PUSH1 0x1 PUSH1 0x1 PUSH1 0xA0 SHL SUB NOT AND PUSH1 0x1 PUSH1 0x1 PUSH1 0xA0 SHL SUB SWAP1 SWAP2 AND OR DUP3 SSTORE PUSH1 0x20 SWAP1 SWAP3 ADD SWAP2 PUSH1 0x1 SWAP1 SWAP2 ADD SWAP1 PUSH2 0x2351 JUMP JUMPDEST POP PUSH2 0x2392 SWAP3 SWAP2 POP PUSH2 0x2396 JUMP JUMPDEST POP SWAP1 JUMP JUMPDEST JUMPDEST DUP1 DUP3 GT ISZERO PUSH2 0x2392 JUMPI PUSH1 0x0 DUP2 SSTORE PUSH1 0x1 ADD PUSH2 0x2397 JUMP JUMPDEST PUSH1 0x0 PUSH1 0x20 DUP3 DUP5 SUB SLT ISZERO PUSH2 0x23BD JUMPI PUSH1 0x0 DUP1 REVERT JUMPDEST POP CALLDATALOAD SWAP2 SWAP1 POP JUMP JUMPDEST PUSH1 0x0 JUMPDEST DUP4 DUP2 LT ISZERO PUSH2 0x23DF JUMPI DUP2 DUP2 ADD MLOAD DUP4 DUP3 ADD MSTORE PUSH1 0x20 ADD PUSH2 0x23C7 JUMP JUMPDEST POP POP PUSH1 0x0 SWAP2 ADD MSTORE JUMP JUMPDEST PUSH1 0x0 DUP2 MLOAD DUP1 DUP5 MSTORE PUSH2 0x2400 DUP2 PUSH1 0x20 DUP7 ADD PUSH1 0x20 DUP7 ADD PUSH2 0x23C4 JUMP JUMPDEST PUSH1 0x1F ADD PUSH1 0x1F NOT AND SWAP3 SWAP1 SWAP3 ADD PUSH1 0x20 ADD SWAP3 SWAP2 POP POP JUMP JUMPDEST PUSH1 0x20 DUP2 MSTORE PUSH1 0x0 PUSH2 0x2427 PUSH1 0x20 DUP4 ADD DUP5 PUSH2 0x23E8 JUMP JUMPDEST SWAP4 SWAP3 POP POP POP JUMP JUMPDEST DUP1 CALLDATALOAD PUSH1 0x1 PUSH1 0x1 PUSH1 0xA0 SHL SUB DUP2 AND DUP2 EQ PUSH2 0x2445 JUMPI PUSH1 0x0 DUP1 REVERT JUMPDEST SWAP2 SWAP1 POP JUMP JUMPDEST PUSH1 0x0 DUP1 PUSH1 0x40 DUP4 DUP6 SUB SLT ISZERO PUSH2 0x245D JUMPI PUSH1 0x0 DUP1 REVERT JUMPDEST PUSH2 0x2466 DUP4 PUSH2 0x242E JUMP JUMPDEST SWAP5 PUSH1 0x20 SWAP4 SWAP1 SWAP4 ADD CALLDATALOAD SWAP4 POP POP POP JUMP JUMPDEST PUSH1 0x0 DUP1 PUSH1 0x40 DUP4 DUP6 SUB SLT ISZERO PUSH2 0x2487 JUMPI PUSH1 0x0 DUP1 REVERT JUMPDEST DUP3 CALLDATALOAD PUSH1 0xFF DUP2 AND DUP2 EQ PUSH2 0x2466 JUMPI PUSH1 0x0 DUP1 REVERT JUMPDEST PUSH4 0x4E487B71 PUSH1 0xE0 SHL PUSH1 0x0 MSTORE PUSH1 0x41 PUSH1 0x4 MSTORE PUSH1 0x24 PUSH1 0x0 REVERT JUMPDEST PUSH1 0x0 PUSH1 0x20 DUP3 DUP5 SUB SLT ISZERO PUSH2 0x24C0 JUMPI PUSH1 0x0 DUP1 REVERT JUMPDEST DUP2 CALLDATALOAD PUSH8 0xFFFFFFFFFFFFFFFF DUP1 DUP3 GT ISZERO PUSH2 0x24D8 JUMPI PUSH1 0x0 DUP1 REVERT JUMPDEST DUP2 DUP5 ADD SWAP2 POP DUP5 PUSH1 0x1F DUP4 ADD SLT PUSH2 0x24EC JUMPI PUSH1 0x0 DUP1 REVERT JUMPDEST DUP2 CALLDATALOAD DUP2 DUP2 GT ISZERO PUSH2 0x24FE JUMPI PUSH2 0x24FE PUSH2 0x2498 JUMP JUMPDEST PUSH1 0x40 MLOAD PUSH1 0x1F DUP3 ADD PUSH1 0x1F NOT SWAP1 DUP2 AND PUSH1 0x3F ADD AND DUP2 ADD SWAP1 DUP4 DUP3 GT DUP2 DUP4 LT OR ISZERO PUSH2 0x2526 JUMPI PUSH2 0x2526 PUSH2 0x2498 JUMP JUMPDEST DUP2 PUSH1 0x40 MSTORE DUP3 DUP2 MSTORE DUP8 PUSH1 0x20 DUP5 DUP8 ADD ADD GT ISZERO PUSH2 0x253F JUMPI PUSH1 0x0 DUP1 REVERT JUMPDEST DUP3 PUSH1 0x20 DUP7 ADD PUSH1 0x20 DUP4 ADD CALLDATACOPY PUSH1 0x0 SWAP3 DUP2 ADD PUSH1 0x20 ADD SWAP3 SWAP1 SWAP3 MSTORE POP SWAP6 SWAP5 POP POP POP POP POP JUMP JUMPDEST PUSH1 0x0 DUP1 PUSH1 0x0 PUSH1 0x60 DUP5 DUP7 SUB SLT ISZERO PUSH2 0x2574 JUMPI PUSH1 0x0 DUP1 REVERT JUMPDEST PUSH2 0x257D DUP5 PUSH2 0x242E JUMP JUMPDEST SWAP3 POP PUSH2 0x258B PUSH1 0x20 DUP6 ADD PUSH2 0x242E JUMP JUMPDEST SWAP2 POP PUSH1 0x40 DUP5 ADD CALLDATALOAD SWAP1 POP SWAP3 POP SWAP3 POP SWAP3 JUMP JUMPDEST PUSH1 0x0 PUSH1 0x20 DUP3 DUP5 SUB SLT ISZERO PUSH2 0x25AD JUMPI PUSH1 0x0 DUP1 REVERT JUMPDEST PUSH2 0x2427 DUP3 PUSH2 0x242E JUMP JUMPDEST DUP8 DUP2 MSTORE PUSH1 0x1 PUSH1 0x1 PUSH1 0xA0 SHL SUB DUP8 AND PUSH1 0x20 DUP3 ADD MSTORE PUSH1 0xE0 PUSH1 0x40 DUP3 ADD DUP2 SWAP1 MSTORE PUSH1 0x0 SWAP1 PUSH2 0x25E0 SWAP1 DUP4 ADD DUP9 PUSH2 0x23E8 JUMP JUMPDEST SWAP1 POP PUSH4 0xFFFFFFFF DUP7 AND PUSH1 0x60 DUP4 ADD MSTORE DUP5 PUSH1 0x80 DUP4 ADD MSTORE PUSH1 0xFF DUP5 AND PUSH1 0xA0 DUP4 ADD MSTORE DUP3 ISZERO ISZERO PUSH1 0xC0 DUP4 ADD MSTORE SWAP9 SWAP8 POP POP POP POP POP POP POP POP JUMP JUMPDEST DUP5 DUP2 MSTORE PUSH1 0x1 PUSH1 0x1 PUSH1 0xA0 SHL SUB DUP5 AND PUSH1 0x20 DUP3 ADD MSTORE PUSH1 0x80 PUSH1 0x40 DUP3 ADD DUP2 SWAP1 MSTORE PUSH1 0x0 SWAP1 PUSH2 0x263B SWAP1 DUP4 ADD DUP6 PUSH2 0x23E8 JUMP JUMPDEST SWAP1 POP PUSH1 0xFF DUP4 AND PUSH1 0x60 DUP4 ADD MSTORE SWAP6 SWAP5 POP POP POP POP POP JUMP JUMPDEST PUSH1 0x0 PUSH1 0x20 DUP3 DUP5 SUB SLT ISZERO PUSH2 0x2661 JUMPI PUSH1 0x0 DUP1 REVERT JUMPDEST DUP2 CALLDATALOAD PUSH4 0xFFFFFFFF DUP2 AND DUP2 EQ PUSH2 0x2427 JUMPI PUSH1 0x0 DUP1 REVERT JUMPDEST PUSH1 0x20 DUP1 DUP3 MSTORE DUP3 MLOAD DUP3 DUP3 ADD DUP2 SWAP1 MSTORE PUSH1 0x0 SWAP2 SWAP1 DUP5 DUP3 ADD SWAP1 PUSH1 0x40 DUP6 ADD SWAP1 DUP5 JUMPDEST DUP2 DUP2 LT ISZERO PUSH2 0x26B6 JUMPI DUP4 MLOAD PUSH1 0x1 PUSH1 0x1 PUSH1 0xA0 SHL SUB AND DUP4 MSTORE SWAP3 DUP5 ADD SWAP3 SWAP2 DUP5 ADD SWAP2 PUSH1 0x1 ADD PUSH2 0x2691 JUMP JUMPDEST POP SWAP1 SWAP7 SWAP6 POP POP POP POP POP POP JUMP JUMPDEST PUSH1 0x0 DUP1 PUSH1 0x40 DUP4 DUP6 SUB SLT ISZERO PUSH2 0x26D5 JUMPI PUSH1 0x0 DUP1 REVERT JUMPDEST PUSH2 0x26DE DUP4 PUSH2 0x242E JUMP JUMPDEST SWAP2 POP PUSH2 0x26EC PUSH1 0x20 DUP5 ADD PUSH2 0x242E JUMP JUMPDEST SWAP1 POP SWAP3 POP SWAP3 SWAP1 POP JUMP JUMPDEST PUSH1 0x1 DUP2 DUP2 SHR SWAP1 DUP3 AND DUP1 PUSH2 0x2709 JUMPI PUSH1 0x7F DUP3 AND SWAP2 POP JUMPDEST PUSH1 0x20 DUP3 LT DUP2 SUB PUSH2 0x1117 JUMPI PUSH4 0x4E487B71 PUSH1 0xE0 SHL PUSH1 0x0 MSTORE PUSH1 0x22 PUSH1 0x4 MSTORE PUSH1 0x24 PUSH1 0x0 REVERT JUMPDEST PUSH4 0x4E487B71 PUSH1 0xE0 SHL PUSH1 0x0 MSTORE PUSH1 0x32 PUSH1 0x4 MSTORE PUSH1 0x24 PUSH1 0x0 REVERT JUMPDEST PUSH4 0x4E487B71 PUSH1 0xE0 SHL PUSH1 0x0 MSTORE PUSH1 0x11 PUSH1 0x4 MSTORE PUSH1 0x24 PUSH1 0x0 REVERT JUMPDEST PUSH1 0x0 PUSH1 0x1 DUP3 ADD PUSH2 0x2767 JUMPI PUSH2 0x2767 PUSH2 0x273F JUMP JUMPDEST POP PUSH1 0x1 ADD SWAP1 JUMP JUMPDEST DUP1 DUP3 ADD DUP1 DUP3 GT ISZERO PUSH2 0x786 JUMPI PUSH2 0x786 PUSH2 0x273F JUMP JUMPDEST PUSH1 0x20 DUP1 DUP3 MSTORE PUSH1 0x21 SWAP1 DUP3 ADD MSTORE PUSH32 0x416D6F756E74206D7573742062652067726561746572207468616E207A65726F PUSH1 0x40 DUP3 ADD MSTORE PUSH1 0x17 PUSH1 0xF9 SHL PUSH1 0x60 DUP3 ADD MSTORE PUSH1 0x80 ADD SWAP1 JUMP JUMPDEST PUSH4 0xFFFFFFFF DUP3 DUP2 AND DUP3 DUP3 AND SUB SWAP1 DUP1 DUP3 GT ISZERO PUSH2 0x27DF JUMPI PUSH2 0x27DF PUSH2 0x273F JUMP JUMPDEST POP SWAP3 SWAP2 POP POP JUMP JUMPDEST PUSH1 0x1F DUP3 GT ISZERO PUSH2 0xDB2 JUMPI PUSH1 0x0 DUP2 PUSH1 0x0 MSTORE PUSH1 0x20 PUSH1 0x0 KECCAK256 PUSH1 0x1F DUP6 ADD PUSH1 0x5 SHR DUP2 ADD PUSH1 0x20 DUP7 LT ISZERO PUSH2 0x280F JUMPI POP DUP1 JUMPDEST PUSH1 0x1F DUP6 ADD PUSH1 0x5 SHR DUP3 ADD SWAP2 POP JUMPDEST DUP2 DUP2 LT ISZERO PUSH2 0x282E JUMPI DUP3 DUP2 SSTORE PUSH1 0x1 ADD PUSH2 0x281B JUMP JUMPDEST POP POP POP POP POP POP JUMP JUMPDEST DUP2 MLOAD PUSH8 0xFFFFFFFFFFFFFFFF DUP2 GT ISZERO PUSH2 0x2850 JUMPI PUSH2 0x2850 PUSH2 0x2498 JUMP JUMPDEST PUSH2 0x2864 DUP2 PUSH2 0x285E DUP5 SLOAD PUSH2 0x26F5 JUMP JUMPDEST DUP5 PUSH2 0x27E6 JUMP JUMPDEST PUSH1 0x20 DUP1 PUSH1 0x1F DUP4 GT PUSH1 0x1 DUP2 EQ PUSH2 0x2899 JUMPI PUSH1 0x0 DUP5 ISZERO PUSH2 0x2881 JUMPI POP DUP6 DUP4 ADD MLOAD JUMPDEST PUSH1 0x0 NOT PUSH1 0x3 DUP7 SWAP1 SHL SHR NOT AND PUSH1 0x1 DUP6 SWAP1 SHL OR DUP6 SSTORE PUSH2 0x282E JUMP JUMPDEST PUSH1 0x0 DUP6 DUP2 MSTORE PUSH1 0x20 DUP2 KECCAK256 PUSH1 0x1F NOT DUP7 AND SWAP2 JUMPDEST DUP3 DUP2 LT ISZERO PUSH2 0x28C8 JUMPI DUP9 DUP7 ADD MLOAD DUP3 SSTORE SWAP5 DUP5 ADD SWAP5 PUSH1 0x1 SWAP1 SWAP2 ADD SWAP1 DUP5 ADD PUSH2 0x28A9 JUMP JUMPDEST POP DUP6 DUP3 LT ISZERO PUSH2 0x28E6 JUMPI DUP8 DUP6 ADD MLOAD PUSH1 0x0 NOT PUSH1 0x3 DUP9 SWAP1 SHL PUSH1 0xF8 AND SHR NOT AND DUP2 SSTORE JUMPDEST POP POP POP POP POP PUSH1 0x1 SWAP1 DUP2 SHL ADD SWAP1 SSTORE POP JUMP JUMPDEST PUSH1 0x0 DUP3 MLOAD PUSH2 0x2908 DUP2 DUP5 PUSH1 0x20 DUP8 ADD PUSH2 0x23C4 JUMP JUMPDEST SWAP2 SWAP1 SWAP2 ADD SWAP3 SWAP2 POP POP JUMP JUMPDEST PUSH4 0xFFFFFFFF DUP2 DUP2 AND DUP4 DUP3 AND ADD SWAP1 DUP1 DUP3 GT ISZERO PUSH2 0x27DF JUMPI PUSH2 0x27DF PUSH2 0x273F JUMP JUMPDEST PUSH1 0x0 DUP3 PUSH2 0x294C JUMPI PUSH4 0x4E487B71 PUSH1 0xE0 SHL PUSH1 0x0 MSTORE PUSH1 0x12 PUSH1 0x4 MSTORE PUSH1 0x24 PUSH1 0x0 REVERT JUMPDEST POP MOD SWAP1 JUMP JUMPDEST PUSH1 0x20 DUP1 DUP3 MSTORE PUSH1 0x2B SWAP1 DUP3 ADD MSTORE PUSH32 0x496E697469616C697A61626C653A20636F6E7472616374206973206E6F742069 PUSH1 0x40 DUP3 ADD MSTORE PUSH11 0x6E697469616C697A696E67 PUSH1 0xA8 SHL PUSH1 0x60 DUP3 ADD MSTORE PUSH1 0x80 ADD SWAP1 JUMP INVALID LOG2 PUSH5 0x6970667358 0x22 SLT KECCAK256 0xDC 0x26 0xB4 SHL 0xCA BALANCE EXTCODECOPY 0x2B PUSH16 0x5988CAE7374B32A94141B900D7802C10 0xC1 0x22 PUSH25 0xD60B3CE64736F6C6343000819003300000000000000000000 ",
  "sha1": "8de3b4d95460a9f459d8e4cb59088984447a284b",
  "source": "// SPDX-License-Identifier: MIT\npragma solidity ^0.8.0;\n\nimport \"@openzeppelin-upgradeable/contracts/token/ERC20/ERC20Upgradeable.sol\";\nimport \"@openzeppelin-upgradeable/contracts/proxy/utils/Initializable.sol\";\n\ncontract SmartNodes is Initializable, ERC20Upgradeable {\n    // // Modifier to require multisignature validation\n    // modifier onlyMultiSig() {\n    //     // Check if the function invocation is authorized by a specified number of validators\n    //     require(\n    //         countSignatures(msg.sender) >= requiredSignatures,\n    //         \"Multisignature validation required\"\n    //     );\n    //     _;\n    // }\n\n    struct Validator {\n        uint256 id;\n        address validatorAddress;\n        string publicKeyHash;\n        uint32 locked;\n        uint256 unlockTime;\n        uint8 reputation;\n        bool isActive;\n    }\n\n    struct User {\n        uint256 id;\n        address userAddress;\n        string publicKeyHash;\n        uint8 reputation;\n    }\n\n    struct Job {\n        uint256 id;\n        address owner;\n        uint256 capacity;\n        address[] validatorAddresses;\n        bool isCompleted;\n        mapping(address => bool) completeConfirmations;\n        uint8 completeCount;\n    }\n\n    // Validator mappings\n    mapping(uint256 => Validator) public validators;\n    mapping(address => uint256) public validatorIdByAddress;\n    mapping(string => uint256) public validatorIdByHash;\n    mapping(uint256 => string) public validatorHashById;\n    mapping(uint256 => uint256) public validatorStateById;\n\n    // User mappings\n    mapping(uint256 => User) public users;\n    mapping(address => uint256) public userIdByAddress;\n    mapping(string => uint256) public userIdByHash;\n    mapping(address => string) public userHashByAddress;\n    mapping(uint256 => bool) public userTraining;\n\n    // Job mappings\n    mapping(uint256 => Job) public jobs;\n    mapping(uint256 => uint256) public jobIdByUser;\n\n    // Counters for users\n    uint256 public validatorIdCounter;\n    uint256 public userIdCounter;\n    uint256 public jobCounter;\n\n    // Minimum and maximum required signatures for any job\n    uint8 public minValidators;\n    uint8 public maxValidators;\n\n    // Events\n    event ValidatorCreated(uint256 indexed id, address validatorAddress);\n    event TokensLocked(address indexed validator, uint256 amount);\n    event UnlockInitiated(address indexed validator, uint256 unlockTime);\n    event TokensUnlocked(address indexed validator, uint256 amount);\n    event ValidatorActivated(uint256 indexed validatorId);\n    event ValidatorDeactivated(uint256 indexed validatorId);\n    event JobCompleted(uint256 indexed jobId);\n\n    function initialize() public initializer {\n        __ERC20_init(\"TensorLink\", \"TLINK\");\n        _mint(msg.sender, 100);\n        validatorIdCounter = 1;\n        userIdCounter = 1;\n        jobCounter = 1;\n        minValidators = 1;\n        maxValidators = 3;\n    }\n\n    // Role creation methods (User & Validator)\n    function createUser(string memory publicKeyHash) external {\n        require(userIdByAddress[msg.sender] == 0, \"User already registered.\");\n        users[userIdCounter] = User({\n            id: userIdCounter,\n            userAddress: msg.sender,\n            reputation: 0,\n            publicKeyHash: publicKeyHash\n        });\n\n        userIdByHash[publicKeyHash] = userIdCounter;\n        userIdByAddress[msg.sender] = userIdCounter++;\n        userHashByAddress[msg.sender] = publicKeyHash;\n    }\n\n    function createValidator(string memory publicKeyHash) external {\n        require(\n            validatorIdByHash[publicKeyHash] == 0,\n            \"Validator with this publicKeyHash already exists.\"\n        );\n\n        Validator storage validator = validators[validatorIdCounter];\n        validator.id = validatorIdCounter;\n        validator.validatorAddress = msg.sender;\n        validator.publicKeyHash = publicKeyHash;\n        validator.isActive = true;\n\n        validatorIdByAddress[msg.sender] = validatorIdCounter;\n        validatorIdByHash[publicKeyHash] = validatorIdCounter;\n        validatorHashById[validatorIdCounter] = publicKeyHash;\n        validatorStateById[validatorIdCounter] = 1;\n\n        emit ValidatorCreated(validatorIdCounter, msg.sender);\n\n        validatorIdCounter++;\n    }\n\n    /// Validator Token Locking and Unlocking ///\n    function lockTokens(uint32 amount) external {\n        require(amount > 0, \"Amount must be greater than zero.\");\n        require(balanceOf(msg.sender) >= amount, \"Insufficient balance.\");\n\n        uint256 validatorId = validatorIdByAddress[msg.sender];\n        require(validatorId != 0, \"Validator does not exist.\");\n        Validator storage validator = validators[validatorId];\n        require(validator.isActive, \"Validator is not active.\");\n\n        transferFrom(msg.sender, address(this), amount);\n        validator.locked += amount;\n\n        emit TokensLocked(msg.sender, amount);\n    }\n\n    function unlockTokens(uint32 amount) external {\n        uint256 validatorId = validatorIdByAddress[msg.sender];\n        Validator storage validator = validators[validatorId];\n\n        require(amount <= validator.locked, \"Amount exceeds locked balance.\");\n        require(amount > 0, \"Amount must be greater than zero.\");\n\n        // Initialize the unlock time if it's the first unlock attempt\n        if (validator.unlockTime == 0) {\n            validator.unlockTime = block.timestamp + 50400; // 14 day unlocking period\n            emit UnlockInitiated(msg.sender, validator.unlockTime); // Optional: emit an event\n        } else {\n            // On subsequent attempts, check if the unlock period has elapsed\n            require(\n                block.timestamp >= validator.unlockTime,\n                \"Tokens are still locked.\"\n            );\n\n            validator.locked -= amount;\n            _mint(msg.sender, amount); // Mint tokens back to the validator's address\n\n            emit TokensUnlocked(msg.sender, amount); // Optional: emit an event when tokens are unlocked\n        }\n    }\n\n    // User Job Requesting\n    function requestJob(uint8 nValidators, uint256 capacity) external {\n        uint256 uid = userIdByAddress[msg.sender];\n        require(uid != 0, \"User not registered.\");\n        require(capacity > 0, \"Capacity must be greater zero.\");\n        require(userTraining[uid] == false, \"User has an active job.\");\n\n        Job storage request = jobs[jobCounter];\n        request.id = jobCounter;\n        request.owner = msg.sender;\n        request.capacity = capacity;\n\n        // Select validators pseudorandomly (do this in after request?)\n        uint256[] memory selectedValidatorIds = _pseudorandomValidatorSelection(\n            nValidators\n        );\n        jobIdByUser[uid] = request.id;\n\n        address[] memory selectedValidators = new address[](\n            selectedValidatorIds.length\n        );\n\n        // Change selected validators to the busy (active) state and grab their address\n        for (uint256 i = 0; i < selectedValidatorIds.length; i++) {\n            selectedValidators[i] = validators[selectedValidatorIds[i]]\n                .validatorAddress;\n        }\n\n        request.validatorAddresses = selectedValidators; // Store the selected validators\n        jobCounter++; // Increment jobCounter after storing the job request\n    }\n\n    // Validator job completion voting\n    function completeJob(uint256 jobId) external {\n        Job storage job = jobs[jobId];\n        require(job.id == jobId, \"Job does not exist.\");\n        require(job.isCompleted == false, \"Job is already completed.\");\n\n        // Check if sender is one of the validators\n        bool isValidator = false;\n        for (uint i = 0; i < job.validatorAddresses.length; i++) {\n            if (msg.sender == job.validatorAddresses[i]) {\n                isValidator = true;\n                break;\n            }\n        }\n\n        require(\n            isValidator,\n            \"Only validators of this job may call this function\"\n        );\n        require(\n            job.completeConfirmations[msg.sender] = false,\n            \"Validator already confirmed.\"\n        );\n\n        job.completeConfirmations[msg.sender] = true;\n        job.completeCount++;\n\n        // If all validators have confirmed status, mark job as complete\n        if (job.completeCount == job.validatorAddresses.length) {\n            job.isCompleted = true;\n\n            // Move all validators to the inactive state\n            for (uint i = 0; i < job.validatorAddresses.length; i++) {\n                Validator storage validator = validators[\n                    validatorIdByAddress[job.validatorAddresses[i]]\n                ];\n                _updateValidatorState(validator.id, false);\n            }\n\n            // Update user state from training\n            uint256 uid = userIdByAddress[job.owner];\n            userTraining[uid] = false;\n\n            emit JobCompleted(jobId);\n        }\n    }\n\n    // function updateJob(uint256 jobId) external {\n\n    // }\n\n    // Pseudorandom selection of validators\n    function _pseudorandomValidatorSelection(\n        uint8 nValidators\n    ) internal returns (uint256[] memory) {\n        require(\n            nValidators >= minValidators && nValidators <= maxValidators,\n            \"nValidators must be between minValidator and maxValidator\"\n        );\n        require(\n            nValidators > 0 && nValidators <= validatorIdCounter,\n            \"Not enough available validators for job, please try again later.\"\n        );\n\n        uint256[] memory selectedValidators = new uint256[](nValidators);\n        uint256 selectedCount = 0;\n\n        for (uint256 i = 0; i < nValidators; i++) {\n            uint256 nonce = 0;\n            while (selectedCount == i) {\n                uint256 randId = uint256(\n                    keccak256(\n                        abi.encodePacked(block.timestamp, msg.sender, nonce++)\n                    )\n                ) % validatorIdCounter;\n\n                if (validatorStateById[randId] == 1) {\n                    // Mark selected validator as busy\n                    _updateValidatorState(randId, true);\n                    selectedValidators[i] = randId;\n                    selectedCount++;\n                } else if (nonce < 50) {\n                    nonce++;\n                } else {\n                    revert(\"Max validator requests reached\");\n                }\n            }\n        }\n\n        return selectedValidators;\n    }\n\n    function _updateValidatorState(\n        uint256 validatorId,\n        bool activate\n    ) internal {\n        require(\n            validatorId > 0 && validatorId < validatorIdCounter,\n            \"Invalid ValidatorId\"\n        );\n        require(\n            validatorStateById[validatorId] > 0,\n            \"Validator is not online.\"\n        );\n\n        if (activate) {\n            // Move validator to the active state if not already active\n            if (validatorStateById[validatorId] == 1) {\n                validatorStateById[validatorId] = 2;\n            } else {\n                revert(\"Validator being activated is already active!\");\n            }\n        } else {\n            // Move validator to the inactive state if not already inactive\n            if (validatorStateById[validatorId] == 2) {\n                validatorStateById[validatorId] = 1;\n            } else {\n                revert(\"Validator is already inactive!\");\n            }\n        }\n    }\n\n    function _activateValidator(uint256 validatorId) internal {\n        require(\n            0 < validatorId && validatorId < validatorIdCounter,\n            \"Validator ID must be valid.\"\n        );\n\n        Validator storage validator = validators[validatorId];\n        require(!validator.isActive, \"Validator already active!\");\n        validator.isActive = true;\n        validatorStateById[validatorId] = 1;\n        emit ValidatorActivated(validatorId);\n    }\n\n    function _deactivateValidator(uint256 validatorId) internal {\n        require(\n            0 < validatorId && validatorId < validatorIdCounter,\n            \"Validator ID must be valid.\"\n        );\n        Validator storage validator = validators[validatorId];\n\n        require(validator.isActive, \"Validator not active!\");\n        validator.isActive = false;\n\n        validatorStateById[validatorId] = 0;\n        emit ValidatorActivated(validatorId);\n    }\n\n    function random() external view returns (uint256) {\n        return uint256(keccak256(abi.encodePacked((block.timestamp))));\n    }\n\n    function getJobCounter() external view returns (uint256) {\n        return jobCounter;\n    }\n\n    function getValidatorIdCounter() external view returns (uint256) {\n        return validatorIdCounter;\n    }\n\n    function getUserIdCounter() external view returns (uint256) {\n        return userIdCounter;\n    }\n\n    function getUserId(\n        string memory publicKeyHash\n    ) external view returns (uint256) {\n        return userIdByHash[publicKeyHash];\n    }\n\n    function getValidatorState(\n        uint256 validatorId\n    ) external view returns (uint256) {\n        require(\n            validatorId > 0 && validatorId < validatorIdCounter,\n            \"Invalid ValidatorId!\"\n        );\n        return validatorStateById[validatorId];\n    }\n\n    // Returns a list of all the selected validators for a job request\n    function getJobValidators(\n        uint256 reqId\n    ) external view returns (address[] memory) {\n        require(reqId < jobCounter, \"Invalid jobRequest ID\");\n        Job storage job = jobs[reqId];\n        if (job.id == reqId) {\n            address[] memory jobAddresses = jobs[reqId].validatorAddresses;\n            return jobAddresses;\n        } else {\n            revert(\"JobRequest not found!\");\n        }\n    }\n\n    function getJobAuthor(uint256 reqId) external view returns (address) {\n        require(reqId < jobCounter, \"Invalid job ID!\");\n        Job storage job = jobs[reqId];\n        if (job.id == reqId) {\n            return job.owner;\n        } else {\n            revert(\"Invalid job ID!\");\n        }\n    }\n}\n",
  "sourcePath": "contracts/SmartNodes.sol",
  "type": "contract"
}